{
	"register.sol": {
		"Voter": {
			"abi": [
				{
					"inputs": [],
					"stateMutability": "nonpayable",
					"type": "constructor"
				},
				{
					"inputs": [],
					"name": "confirmApplication",
					"outputs": [
						{
							"internalType": "bool",
							"name": "",
							"type": "bool"
						}
					],
					"stateMutability": "view",
					"type": "function"
				},
				{
					"inputs": [],
					"name": "contractOwner",
					"outputs": [
						{
							"internalType": "address",
							"name": "",
							"type": "address"
						}
					],
					"stateMutability": "view",
					"type": "function"
				},
				{
					"inputs": [
						{
							"internalType": "address",
							"name": "",
							"type": "address"
						}
					],
					"name": "coordinators",
					"outputs": [
						{
							"internalType": "string",
							"name": "name",
							"type": "string"
						},
						{
							"internalType": "string",
							"name": "cordID",
							"type": "string"
						},
						{
							"internalType": "string",
							"name": "electionID",
							"type": "string"
						},
						{
							"internalType": "bool",
							"name": "adminAuth",
							"type": "bool"
						},
						{
							"internalType": "address",
							"name": "voterAddress",
							"type": "address"
						}
					],
					"stateMutability": "view",
					"type": "function"
				},
				{
					"inputs": [],
					"name": "electionCordinator",
					"outputs": [
						{
							"internalType": "address",
							"name": "",
							"type": "address"
						}
					],
					"stateMutability": "view",
					"type": "function"
				},
				{
					"inputs": [],
					"name": "getDetails",
					"outputs": [
						{
							"components": [
								{
									"internalType": "string",
									"name": "name",
									"type": "string"
								},
								{
									"internalType": "uint256",
									"name": "age",
									"type": "uint256"
								},
								{
									"internalType": "string",
									"name": "voterID",
									"type": "string"
								},
								{
									"internalType": "bool",
									"name": "canApplyToVote",
									"type": "bool"
								},
								{
									"internalType": "address",
									"name": "voterAddress",
									"type": "address"
								}
							],
							"internalType": "struct voter",
							"name": "",
							"type": "tuple"
						}
					],
					"stateMutability": "view",
					"type": "function"
				},
				{
					"inputs": [
						{
							"internalType": "string",
							"name": "name",
							"type": "string"
						},
						{
							"internalType": "uint256",
							"name": "age",
							"type": "uint256"
						}
					],
					"name": "registerDetails",
					"outputs": [
						{
							"components": [
								{
									"internalType": "string",
									"name": "name",
									"type": "string"
								},
								{
									"internalType": "uint256",
									"name": "age",
									"type": "uint256"
								},
								{
									"internalType": "string",
									"name": "voterID",
									"type": "string"
								},
								{
									"internalType": "bool",
									"name": "canApplyToVote",
									"type": "bool"
								},
								{
									"internalType": "address",
									"name": "voterAddress",
									"type": "address"
								}
							],
							"internalType": "struct voter",
							"name": "",
							"type": "tuple"
						}
					],
					"stateMutability": "nonpayable",
					"type": "function"
				},
				{
					"inputs": [
						{
							"internalType": "address",
							"name": "",
							"type": "address"
						}
					],
					"name": "voters",
					"outputs": [
						{
							"internalType": "string",
							"name": "name",
							"type": "string"
						},
						{
							"internalType": "uint256",
							"name": "age",
							"type": "uint256"
						},
						{
							"internalType": "string",
							"name": "voterID",
							"type": "string"
						},
						{
							"internalType": "bool",
							"name": "canApplyToVote",
							"type": "bool"
						},
						{
							"internalType": "address",
							"name": "voterAddress",
							"type": "address"
						}
					],
					"stateMutability": "view",
					"type": "function"
				}
			],
			"devdoc": {
				"kind": "dev",
				"methods": {},
				"version": 1
			},
			"evm": {
				"assembly": "    /* \"register.sol\":1681:2982  contract Voter{... */\n  mstore(0x40, 0x80)\n    /* \"register.sol\":1903:1982  constructor(){ ... */\n  callvalue\n  dup1\n  iszero\n  tag_1\n  jumpi\n  0x00\n  dup1\n  revert\ntag_1:\n  pop\n    /* \"register.sol\":1943:1953  msg.sender */\n  caller\n    /* \"register.sol\":1927:1940  contractOwner */\n  0x01\n  0x00\n    /* \"register.sol\":1927:1953  contractOwner = msg.sender */\n  0x0100\n  exp\n  dup2\n  sload\n  dup2\n  0xffffffffffffffffffffffffffffffffffffffff\n  mul\n  not\n  and\n  swap1\n  dup4\n  0xffffffffffffffffffffffffffffffffffffffff\n  and\n  mul\n  or\n  swap1\n  sstore\n  pop\n    /* \"register.sol\":1974:1975  1 */\n  0x01\n    /* \"register.sol\":1963:1971  regCount */\n  0x02\n    /* \"register.sol\":1963:1975  regCount = 1 */\n  dup2\n  swap1\n  sstore\n  pop\n    /* \"register.sol\":1681:2982  contract Voter{... */\n  dataSize(sub_0)\n  dup1\n  dataOffset(sub_0)\n  0x00\n  codecopy\n  0x00\n  return\nstop\n\nsub_0: assembly {\n        /* \"register.sol\":1681:2982  contract Voter{... */\n      mstore(0x40, 0x80)\n      callvalue\n      dup1\n      iszero\n      tag_1\n      jumpi\n      0x00\n      dup1\n      revert\n    tag_1:\n      pop\n      jumpi(tag_2, lt(calldatasize, 0x04))\n      shr(0xe0, calldataload(0x00))\n      dup1\n      0xc0264d3a\n      gt\n      tag_10\n      jumpi\n      dup1\n      0xc0264d3a\n      eq\n      tag_6\n      jumpi\n      dup1\n      0xce606ee0\n      eq\n      tag_7\n      jumpi\n      dup1\n      0xcfa34208\n      eq\n      tag_8\n      jumpi\n      dup1\n      0xfbbf93a0\n      eq\n      tag_9\n      jumpi\n      jump(tag_2)\n    tag_10:\n      dup1\n      0x7151ace2\n      eq\n      tag_3\n      jumpi\n      dup1\n      0xa3ec138d\n      eq\n      tag_4\n      jumpi\n      dup1\n      0xa48af096\n      eq\n      tag_5\n      jumpi\n    tag_2:\n      0x00\n      dup1\n      revert\n        /* \"register.sol\":1702:1735  address public electionCordinator */\n    tag_3:\n      tag_11\n      tag_12\n      jump\t// in\n    tag_11:\n      mload(0x40)\n      tag_13\n      swap2\n      swap1\n      tag_14\n      jump\t// in\n    tag_13:\n      mload(0x40)\n      dup1\n      swap2\n      sub\n      swap1\n      return\n        /* \"register.sol\":1794:1834  mapping( address => voter) public voters */\n    tag_4:\n      tag_15\n      0x04\n      dup1\n      calldatasize\n      sub\n      dup2\n      add\n      swap1\n      tag_16\n      swap2\n      swap1\n      tag_17\n      jump\t// in\n    tag_16:\n      tag_18\n      jump\t// in\n    tag_15:\n      mload(0x40)\n      tag_19\n      swap6\n      swap5\n      swap4\n      swap3\n      swap2\n      swap1\n      tag_20\n      jump\t// in\n    tag_19:\n      mload(0x40)\n      dup1\n      swap2\n      sub\n      swap1\n      return\n        /* \"register.sol\":1840:1891  mapping(address => coordinator) public coordinators */\n    tag_5:\n      tag_21\n      0x04\n      dup1\n      calldatasize\n      sub\n      dup2\n      add\n      swap1\n      tag_22\n      swap2\n      swap1\n      tag_17\n      jump\t// in\n    tag_22:\n      tag_23\n      jump\t// in\n    tag_21:\n      mload(0x40)\n      tag_24\n      swap6\n      swap5\n      swap4\n      swap3\n      swap2\n      swap1\n      tag_25\n      jump\t// in\n    tag_24:\n      mload(0x40)\n      dup1\n      swap2\n      sub\n      swap1\n      return\n        /* \"register.sol\":2091:2535  function registerDetails(string calldata name, uint age) public returns (voter memory) {... */\n    tag_6:\n      tag_26\n      0x04\n      dup1\n      calldatasize\n      sub\n      dup2\n      add\n      swap1\n      tag_27\n      swap2\n      swap1\n      tag_28\n      jump\t// in\n    tag_27:\n      tag_29\n      jump\t// in\n    tag_26:\n      mload(0x40)\n      tag_30\n      swap2\n      swap1\n      tag_31\n      jump\t// in\n    tag_30:\n      mload(0x40)\n      dup1\n      swap2\n      sub\n      swap1\n      return\n        /* \"register.sol\":1741:1769  address public contractOwner */\n    tag_7:\n      tag_32\n      tag_33\n      jump\t// in\n    tag_32:\n      mload(0x40)\n      tag_34\n      swap2\n      swap1\n      tag_14\n      jump\t// in\n    tag_34:\n      mload(0x40)\n      dup1\n      swap2\n      sub\n      swap1\n      return\n        /* \"register.sol\":2542:2654  function confirmApplication() public view returns(bool){... */\n    tag_8:\n      tag_35\n      tag_36\n      jump\t// in\n    tag_35:\n      mload(0x40)\n      tag_37\n      swap2\n      swap1\n      tag_38\n      jump\t// in\n    tag_37:\n      mload(0x40)\n      dup1\n      swap2\n      sub\n      swap1\n      return\n        /* \"register.sol\":2660:2758  function getDetails() public view returns (voter memory){... */\n    tag_9:\n      tag_39\n      tag_40\n      jump\t// in\n    tag_39:\n      mload(0x40)\n      tag_41\n      swap2\n      swap1\n      tag_31\n      jump\t// in\n    tag_41:\n      mload(0x40)\n      dup1\n      swap2\n      sub\n      swap1\n      return\n        /* \"register.sol\":1702:1735  address public electionCordinator */\n    tag_12:\n      0x00\n      dup1\n      sload\n      swap1\n      0x0100\n      exp\n      swap1\n      div\n      0xffffffffffffffffffffffffffffffffffffffff\n      and\n      dup2\n      jump\t// out\n        /* \"register.sol\":1794:1834  mapping( address => voter) public voters */\n    tag_18:\n      mstore(0x20, 0x03)\n      dup1\n      0x00\n      mstore\n      keccak256(0x00, 0x40)\n      0x00\n      swap2\n      pop\n      swap1\n      pop\n      dup1\n      0x00\n      add\n      dup1\n      sload\n      tag_42\n      swap1\n      tag_43\n      jump\t// in\n    tag_42:\n      dup1\n      0x1f\n      add\n      0x20\n      dup1\n      swap2\n      div\n      mul\n      0x20\n      add\n      mload(0x40)\n      swap1\n      dup2\n      add\n      0x40\n      mstore\n      dup1\n      swap3\n      swap2\n      swap1\n      dup2\n      dup2\n      mstore\n      0x20\n      add\n      dup3\n      dup1\n      sload\n      tag_44\n      swap1\n      tag_43\n      jump\t// in\n    tag_44:\n      dup1\n      iszero\n      tag_45\n      jumpi\n      dup1\n      0x1f\n      lt\n      tag_46\n      jumpi\n      0x0100\n      dup1\n      dup4\n      sload\n      div\n      mul\n      dup4\n      mstore\n      swap2\n      0x20\n      add\n      swap2\n      jump(tag_45)\n    tag_46:\n      dup3\n      add\n      swap2\n      swap1\n      0x00\n      mstore\n      keccak256(0x00, 0x20)\n      swap1\n    tag_47:\n      dup2\n      sload\n      dup2\n      mstore\n      swap1\n      0x01\n      add\n      swap1\n      0x20\n      add\n      dup1\n      dup4\n      gt\n      tag_47\n      jumpi\n      dup3\n      swap1\n      sub\n      0x1f\n      and\n      dup3\n      add\n      swap2\n    tag_45:\n      pop\n      pop\n      pop\n      pop\n      pop\n      swap1\n      dup1\n      0x01\n      add\n      sload\n      swap1\n      dup1\n      0x02\n      add\n      dup1\n      sload\n      tag_48\n      swap1\n      tag_43\n      jump\t// in\n    tag_48:\n      dup1\n      0x1f\n      add\n      0x20\n      dup1\n      swap2\n      div\n      mul\n      0x20\n      add\n      mload(0x40)\n      swap1\n      dup2\n      add\n      0x40\n      mstore\n      dup1\n      swap3\n      swap2\n      swap1\n      dup2\n      dup2\n      mstore\n      0x20\n      add\n      dup3\n      dup1\n      sload\n      tag_49\n      swap1\n      tag_43\n      jump\t// in\n    tag_49:\n      dup1\n      iszero\n      tag_50\n      jumpi\n      dup1\n      0x1f\n      lt\n      tag_51\n      jumpi\n      0x0100\n      dup1\n      dup4\n      sload\n      div\n      mul\n      dup4\n      mstore\n      swap2\n      0x20\n      add\n      swap2\n      jump(tag_50)\n    tag_51:\n      dup3\n      add\n      swap2\n      swap1\n      0x00\n      mstore\n      keccak256(0x00, 0x20)\n      swap1\n    tag_52:\n      dup2\n      sload\n      dup2\n      mstore\n      swap1\n      0x01\n      add\n      swap1\n      0x20\n      add\n      dup1\n      dup4\n      gt\n      tag_52\n      jumpi\n      dup3\n      swap1\n      sub\n      0x1f\n      and\n      dup3\n      add\n      swap2\n    tag_50:\n      pop\n      pop\n      pop\n      pop\n      pop\n      swap1\n      dup1\n      0x03\n      add\n      0x00\n      swap1\n      sload\n      swap1\n      0x0100\n      exp\n      swap1\n      div\n      0xff\n      and\n      swap1\n      dup1\n      0x03\n      add\n      0x01\n      swap1\n      sload\n      swap1\n      0x0100\n      exp\n      swap1\n      div\n      0xffffffffffffffffffffffffffffffffffffffff\n      and\n      swap1\n      pop\n      dup6\n      jump\t// out\n        /* \"register.sol\":1840:1891  mapping(address => coordinator) public coordinators */\n    tag_23:\n      mstore(0x20, 0x04)\n      dup1\n      0x00\n      mstore\n      keccak256(0x00, 0x40)\n      0x00\n      swap2\n      pop\n      swap1\n      pop\n      dup1\n      0x00\n      add\n      dup1\n      sload\n      tag_53\n      swap1\n      tag_43\n      jump\t// in\n    tag_53:\n      dup1\n      0x1f\n      add\n      0x20\n      dup1\n      swap2\n      div\n      mul\n      0x20\n      add\n      mload(0x40)\n      swap1\n      dup2\n      add\n      0x40\n      mstore\n      dup1\n      swap3\n      swap2\n      swap1\n      dup2\n      dup2\n      mstore\n      0x20\n      add\n      dup3\n      dup1\n      sload\n      tag_54\n      swap1\n      tag_43\n      jump\t// in\n    tag_54:\n      dup1\n      iszero\n      tag_55\n      jumpi\n      dup1\n      0x1f\n      lt\n      tag_56\n      jumpi\n      0x0100\n      dup1\n      dup4\n      sload\n      div\n      mul\n      dup4\n      mstore\n      swap2\n      0x20\n      add\n      swap2\n      jump(tag_55)\n    tag_56:\n      dup3\n      add\n      swap2\n      swap1\n      0x00\n      mstore\n      keccak256(0x00, 0x20)\n      swap1\n    tag_57:\n      dup2\n      sload\n      dup2\n      mstore\n      swap1\n      0x01\n      add\n      swap1\n      0x20\n      add\n      dup1\n      dup4\n      gt\n      tag_57\n      jumpi\n      dup3\n      swap1\n      sub\n      0x1f\n      and\n      dup3\n      add\n      swap2\n    tag_55:\n      pop\n      pop\n      pop\n      pop\n      pop\n      swap1\n      dup1\n      0x01\n      add\n      dup1\n      sload\n      tag_58\n      swap1\n      tag_43\n      jump\t// in\n    tag_58:\n      dup1\n      0x1f\n      add\n      0x20\n      dup1\n      swap2\n      div\n      mul\n      0x20\n      add\n      mload(0x40)\n      swap1\n      dup2\n      add\n      0x40\n      mstore\n      dup1\n      swap3\n      swap2\n      swap1\n      dup2\n      dup2\n      mstore\n      0x20\n      add\n      dup3\n      dup1\n      sload\n      tag_59\n      swap1\n      tag_43\n      jump\t// in\n    tag_59:\n      dup1\n      iszero\n      tag_60\n      jumpi\n      dup1\n      0x1f\n      lt\n      tag_61\n      jumpi\n      0x0100\n      dup1\n      dup4\n      sload\n      div\n      mul\n      dup4\n      mstore\n      swap2\n      0x20\n      add\n      swap2\n      jump(tag_60)\n    tag_61:\n      dup3\n      add\n      swap2\n      swap1\n      0x00\n      mstore\n      keccak256(0x00, 0x20)\n      swap1\n    tag_62:\n      dup2\n      sload\n      dup2\n      mstore\n      swap1\n      0x01\n      add\n      swap1\n      0x20\n      add\n      dup1\n      dup4\n      gt\n      tag_62\n      jumpi\n      dup3\n      swap1\n      sub\n      0x1f\n      and\n      dup3\n      add\n      swap2\n    tag_60:\n      pop\n      pop\n      pop\n      pop\n      pop\n      swap1\n      dup1\n      0x02\n      add\n      dup1\n      sload\n      tag_63\n      swap1\n      tag_43\n      jump\t// in\n    tag_63:\n      dup1\n      0x1f\n      add\n      0x20\n      dup1\n      swap2\n      div\n      mul\n      0x20\n      add\n      mload(0x40)\n      swap1\n      dup2\n      add\n      0x40\n      mstore\n      dup1\n      swap3\n      swap2\n      swap1\n      dup2\n      dup2\n      mstore\n      0x20\n      add\n      dup3\n      dup1\n      sload\n      tag_64\n      swap1\n      tag_43\n      jump\t// in\n    tag_64:\n      dup1\n      iszero\n      tag_65\n      jumpi\n      dup1\n      0x1f\n      lt\n      tag_66\n      jumpi\n      0x0100\n      dup1\n      dup4\n      sload\n      div\n      mul\n      dup4\n      mstore\n      swap2\n      0x20\n      add\n      swap2\n      jump(tag_65)\n    tag_66:\n      dup3\n      add\n      swap2\n      swap1\n      0x00\n      mstore\n      keccak256(0x00, 0x20)\n      swap1\n    tag_67:\n      dup2\n      sload\n      dup2\n      mstore\n      swap1\n      0x01\n      add\n      swap1\n      0x20\n      add\n      dup1\n      dup4\n      gt\n      tag_67\n      jumpi\n      dup3\n      swap1\n      sub\n      0x1f\n      and\n      dup3\n      add\n      swap2\n    tag_65:\n      pop\n      pop\n      pop\n      pop\n      pop\n      swap1\n      dup1\n      0x03\n      add\n      0x00\n      swap1\n      sload\n      swap1\n      0x0100\n      exp\n      swap1\n      div\n      0xff\n      and\n      swap1\n      dup1\n      0x03\n      add\n      0x01\n      swap1\n      sload\n      swap1\n      0x0100\n      exp\n      swap1\n      div\n      0xffffffffffffffffffffffffffffffffffffffff\n      and\n      swap1\n      pop\n      dup6\n      jump\t// out\n        /* \"register.sol\":2091:2535  function registerDetails(string calldata name, uint age) public returns (voter memory) {... */\n    tag_29:\n        /* \"register.sol\":2164:2176  voter memory */\n      tag_68\n      tag_69\n      jump\t// in\n    tag_68:\n        /* \"register.sol\":2202:2204  17 */\n      0x11\n        /* \"register.sol\":2196:2199  age */\n      dup3\n        /* \"register.sol\":2196:2204  age > 17 */\n      gt\n        /* \"register.sol\":2188:2229  require(age > 17, \"not eligible to vote\") */\n      tag_71\n      jumpi\n      mload(0x40)\n      0x08c379a000000000000000000000000000000000000000000000000000000000\n      dup2\n      mstore\n      0x04\n      add\n      tag_72\n      swap1\n      tag_73\n      jump\t// in\n    tag_72:\n      mload(0x40)\n      dup1\n      swap2\n      sub\n      swap1\n      revert\n    tag_71:\n        /* \"register.sol\":2273:2274  0 */\n      0x00\n        /* \"register.sol\":2247:2253  voters */\n      0x03\n        /* \"register.sol\":2247:2265  voters[msg.sender] */\n      0x00\n        /* \"register.sol\":2254:2264  msg.sender */\n      caller\n        /* \"register.sol\":2247:2265  voters[msg.sender] */\n      0xffffffffffffffffffffffffffffffffffffffff\n      and\n      0xffffffffffffffffffffffffffffffffffffffff\n      and\n      dup2\n      mstore\n      0x20\n      add\n      swap1\n      dup2\n      mstore\n      0x20\n      add\n      0x00\n      keccak256\n        /* \"register.sol\":2247:2269  voters[msg.sender].age */\n      0x01\n      add\n      sload\n        /* \"register.sol\":2247:2274  voters[msg.sender].age == 0 */\n      eq\n        /* \"register.sol\":2239:2311  require(voters[msg.sender].age == 0, \"This address has been registered\") */\n      tag_74\n      jumpi\n      mload(0x40)\n      0x08c379a000000000000000000000000000000000000000000000000000000000\n      dup2\n      mstore\n      0x04\n      add\n      tag_75\n      swap1\n      tag_76\n      jump\t// in\n    tag_75:\n      mload(0x40)\n      dup1\n      swap2\n      sub\n      swap1\n      revert\n    tag_74:\n        /* \"register.sol\":2322:2343  string memory voterID */\n      0x00\n        /* \"register.sol\":2366:2392  Strings.toString(regCount) */\n      tag_77\n        /* \"register.sol\":2383:2391  regCount */\n      sload(0x02)\n        /* \"register.sol\":2366:2382  Strings.toString */\n      tag_78\n        /* \"register.sol\":2366:2392  Strings.toString(regCount) */\n      jump\t// in\n    tag_77:\n        /* \"register.sol\":2346:2393  string.concat(\"NIG\",Strings.toString(regCount)) */\n      add(0x20, mload(0x40))\n      tag_79\n      swap2\n      swap1\n      tag_80\n      jump\t// in\n    tag_79:\n      mload(0x40)\n      0x20\n      dup2\n      dup4\n      sub\n      sub\n      dup2\n      mstore\n      swap1\n      0x40\n      mstore\n        /* \"register.sol\":2322:2393  string memory voterID = string.concat(\"NIG\",Strings.toString(regCount)) */\n      swap1\n      pop\n        /* \"register.sol\":2425:2468  voter(name, age, voterID,false, msg.sender) */\n      mload(0x40)\n      dup1\n      0xa0\n      add\n      0x40\n      mstore\n      dup1\n        /* \"register.sol\":2431:2435  name */\n      dup7\n      dup7\n        /* \"register.sol\":2425:2468  voter(name, age, voterID,false, msg.sender) */\n      dup1\n      dup1\n      0x1f\n      add\n      0x20\n      dup1\n      swap2\n      div\n      mul\n      0x20\n      add\n      mload(0x40)\n      swap1\n      dup2\n      add\n      0x40\n      mstore\n      dup1\n      swap4\n      swap3\n      swap2\n      swap1\n      dup2\n      dup2\n      mstore\n      0x20\n      add\n      dup4\n      dup4\n      dup1\n      dup3\n      dup5\n      calldatacopy\n      0x00\n      dup2\n      dup5\n      add\n      mstore\n      not(0x1f)\n      0x1f\n      dup3\n      add\n      and\n      swap1\n      pop\n      dup1\n      dup4\n      add\n      swap3\n      pop\n      pop\n      pop\n      pop\n      pop\n      pop\n      pop\n      dup2\n      mstore\n      0x20\n      add\n        /* \"register.sol\":2437:2440  age */\n      dup5\n        /* \"register.sol\":2425:2468  voter(name, age, voterID,false, msg.sender) */\n      dup2\n      mstore\n      0x20\n      add\n        /* \"register.sol\":2442:2449  voterID */\n      dup3\n        /* \"register.sol\":2425:2468  voter(name, age, voterID,false, msg.sender) */\n      dup2\n      mstore\n      0x20\n      add\n        /* \"register.sol\":2450:2455  false */\n      0x00\n        /* \"register.sol\":2425:2468  voter(name, age, voterID,false, msg.sender) */\n      iszero\n      iszero\n      dup2\n      mstore\n      0x20\n      add\n        /* \"register.sol\":2457:2467  msg.sender */\n      caller\n        /* \"register.sol\":2425:2468  voter(name, age, voterID,false, msg.sender) */\n      0xffffffffffffffffffffffffffffffffffffffff\n      and\n      dup2\n      mstore\n      pop\n        /* \"register.sol\":2404:2410  voters */\n      0x03\n        /* \"register.sol\":2404:2422  voters[msg.sender] */\n      0x00\n        /* \"register.sol\":2411:2421  msg.sender */\n      caller\n        /* \"register.sol\":2404:2422  voters[msg.sender] */\n      0xffffffffffffffffffffffffffffffffffffffff\n      and\n      0xffffffffffffffffffffffffffffffffffffffff\n      and\n      dup2\n      mstore\n      0x20\n      add\n      swap1\n      dup2\n      mstore\n      0x20\n      add\n      0x00\n      keccak256\n        /* \"register.sol\":2404:2468  voters[msg.sender] = voter(name, age, voterID,false, msg.sender) */\n      0x00\n      dup3\n      add\n      mload\n      dup2\n      0x00\n      add\n      swap1\n      dup2\n      tag_81\n      swap2\n      swap1\n      tag_82\n      jump\t// in\n    tag_81:\n      pop\n      0x20\n      dup3\n      add\n      mload\n      dup2\n      0x01\n      add\n      sstore\n      0x40\n      dup3\n      add\n      mload\n      dup2\n      0x02\n      add\n      swap1\n      dup2\n      tag_83\n      swap2\n      swap1\n      tag_82\n      jump\t// in\n    tag_83:\n      pop\n      0x60\n      dup3\n      add\n      mload\n      dup2\n      0x03\n      add\n      exp(0x0100, 0x00)\n      dup2\n      sload\n      dup2\n      0xff\n      mul\n      not\n      and\n      swap1\n      dup4\n      iszero\n      iszero\n      mul\n      or\n      swap1\n      sstore\n      pop\n      0x80\n      dup3\n      add\n      mload\n      dup2\n      0x03\n      add\n      exp(0x0100, 0x01)\n      dup2\n      sload\n      dup2\n      0xffffffffffffffffffffffffffffffffffffffff\n      mul\n      not\n      and\n      swap1\n      dup4\n      0xffffffffffffffffffffffffffffffffffffffff\n      and\n      mul\n      or\n      swap1\n      sstore\n      pop\n      swap1\n      pop\n      pop\n        /* \"register.sol\":2491:2492  1 */\n      0x01\n        /* \"register.sol\":2479:2487  regCount */\n      0x02\n      0x00\n        /* \"register.sol\":2479:2492  regCount += 1 */\n      dup3\n      dup3\n      sload\n      tag_84\n      swap2\n      swap1\n      tag_85\n      jump\t// in\n    tag_84:\n      swap3\n      pop\n      pop\n      dup2\n      swap1\n      sstore\n      pop\n        /* \"register.sol\":2510:2516  voters */\n      0x03\n        /* \"register.sol\":2510:2528  voters[msg.sender] */\n      0x00\n        /* \"register.sol\":2517:2527  msg.sender */\n      caller\n        /* \"register.sol\":2510:2528  voters[msg.sender] */\n      0xffffffffffffffffffffffffffffffffffffffff\n      and\n      0xffffffffffffffffffffffffffffffffffffffff\n      and\n      dup2\n      mstore\n      0x20\n      add\n      swap1\n      dup2\n      mstore\n      0x20\n      add\n      0x00\n      keccak256\n        /* \"register.sol\":2503:2528  return voters[msg.sender] */\n      mload(0x40)\n      dup1\n      0xa0\n      add\n      0x40\n      mstore\n      swap1\n      dup2\n      0x00\n      dup3\n      add\n      dup1\n      sload\n      tag_86\n      swap1\n      tag_43\n      jump\t// in\n    tag_86:\n      dup1\n      0x1f\n      add\n      0x20\n      dup1\n      swap2\n      div\n      mul\n      0x20\n      add\n      mload(0x40)\n      swap1\n      dup2\n      add\n      0x40\n      mstore\n      dup1\n      swap3\n      swap2\n      swap1\n      dup2\n      dup2\n      mstore\n      0x20\n      add\n      dup3\n      dup1\n      sload\n      tag_87\n      swap1\n      tag_43\n      jump\t// in\n    tag_87:\n      dup1\n      iszero\n      tag_88\n      jumpi\n      dup1\n      0x1f\n      lt\n      tag_89\n      jumpi\n      0x0100\n      dup1\n      dup4\n      sload\n      div\n      mul\n      dup4\n      mstore\n      swap2\n      0x20\n      add\n      swap2\n      jump(tag_88)\n    tag_89:\n      dup3\n      add\n      swap2\n      swap1\n      0x00\n      mstore\n      keccak256(0x00, 0x20)\n      swap1\n    tag_90:\n      dup2\n      sload\n      dup2\n      mstore\n      swap1\n      0x01\n      add\n      swap1\n      0x20\n      add\n      dup1\n      dup4\n      gt\n      tag_90\n      jumpi\n      dup3\n      swap1\n      sub\n      0x1f\n      and\n      dup3\n      add\n      swap2\n    tag_88:\n      pop\n      pop\n      pop\n      pop\n      pop\n      dup2\n      mstore\n      0x20\n      add\n      0x01\n      dup3\n      add\n      sload\n      dup2\n      mstore\n      0x20\n      add\n      0x02\n      dup3\n      add\n      dup1\n      sload\n      tag_91\n      swap1\n      tag_43\n      jump\t// in\n    tag_91:\n      dup1\n      0x1f\n      add\n      0x20\n      dup1\n      swap2\n      div\n      mul\n      0x20\n      add\n      mload(0x40)\n      swap1\n      dup2\n      add\n      0x40\n      mstore\n      dup1\n      swap3\n      swap2\n      swap1\n      dup2\n      dup2\n      mstore\n      0x20\n      add\n      dup3\n      dup1\n      sload\n      tag_92\n      swap1\n      tag_43\n      jump\t// in\n    tag_92:\n      dup1\n      iszero\n      tag_93\n      jumpi\n      dup1\n      0x1f\n      lt\n      tag_94\n      jumpi\n      0x0100\n      dup1\n      dup4\n      sload\n      div\n      mul\n      dup4\n      mstore\n      swap2\n      0x20\n      add\n      swap2\n      jump(tag_93)\n    tag_94:\n      dup3\n      add\n      swap2\n      swap1\n      0x00\n      mstore\n      keccak256(0x00, 0x20)\n      swap1\n    tag_95:\n      dup2\n      sload\n      dup2\n      mstore\n      swap1\n      0x01\n      add\n      swap1\n      0x20\n      add\n      dup1\n      dup4\n      gt\n      tag_95\n      jumpi\n      dup3\n      swap1\n      sub\n      0x1f\n      and\n      dup3\n      add\n      swap2\n    tag_93:\n      pop\n      pop\n      pop\n      pop\n      pop\n      dup2\n      mstore\n      0x20\n      add\n      0x03\n      dup3\n      add\n      0x00\n      swap1\n      sload\n      swap1\n      0x0100\n      exp\n      swap1\n      div\n      0xff\n      and\n      iszero\n      iszero\n      iszero\n      iszero\n      dup2\n      mstore\n      0x20\n      add\n      0x03\n      dup3\n      add\n      0x01\n      swap1\n      sload\n      swap1\n      0x0100\n      exp\n      swap1\n      div\n      0xffffffffffffffffffffffffffffffffffffffff\n      and\n      0xffffffffffffffffffffffffffffffffffffffff\n      and\n      0xffffffffffffffffffffffffffffffffffffffff\n      and\n      dup2\n      mstore\n      pop\n      pop\n      swap2\n      pop\n      pop\n        /* \"register.sol\":2091:2535  function registerDetails(string calldata name, uint age) public returns (voter memory) {... */\n      swap4\n      swap3\n      pop\n      pop\n      pop\n      jump\t// out\n        /* \"register.sol\":1741:1769  address public contractOwner */\n    tag_33:\n      0x01\n      0x00\n      swap1\n      sload\n      swap1\n      0x0100\n      exp\n      swap1\n      div\n      0xffffffffffffffffffffffffffffffffffffffff\n      and\n      dup2\n      jump\t// out\n        /* \"register.sol\":2542:2654  function confirmApplication() public view returns(bool){... */\n    tag_36:\n        /* \"register.sol\":2592:2596  bool */\n      0x00\n        /* \"register.sol\":2614:2620  voters */\n      0x03\n        /* \"register.sol\":2614:2632  voters[msg.sender] */\n      0x00\n        /* \"register.sol\":2621:2631  msg.sender */\n      caller\n        /* \"register.sol\":2614:2632  voters[msg.sender] */\n      0xffffffffffffffffffffffffffffffffffffffff\n      and\n      0xffffffffffffffffffffffffffffffffffffffff\n      and\n      dup2\n      mstore\n      0x20\n      add\n      swap1\n      dup2\n      mstore\n      0x20\n      add\n      0x00\n      keccak256\n        /* \"register.sol\":2614:2647  voters[msg.sender].canApplyToVote */\n      0x03\n      add\n      0x00\n      swap1\n      sload\n      swap1\n      0x0100\n      exp\n      swap1\n      div\n      0xff\n      and\n        /* \"register.sol\":2607:2647  return voters[msg.sender].canApplyToVote */\n      swap1\n      pop\n        /* \"register.sol\":2542:2654  function confirmApplication() public view returns(bool){... */\n      swap1\n      jump\t// out\n        /* \"register.sol\":2660:2758  function getDetails() public view returns (voter memory){... */\n    tag_40:\n        /* \"register.sol\":2703:2715  voter memory */\n      tag_97\n      tag_69\n      jump\t// in\n    tag_97:\n        /* \"register.sol\":2733:2739  voters */\n      0x03\n        /* \"register.sol\":2733:2751  voters[msg.sender] */\n      0x00\n        /* \"register.sol\":2740:2750  msg.sender */\n      caller\n        /* \"register.sol\":2733:2751  voters[msg.sender] */\n      0xffffffffffffffffffffffffffffffffffffffff\n      and\n      0xffffffffffffffffffffffffffffffffffffffff\n      and\n      dup2\n      mstore\n      0x20\n      add\n      swap1\n      dup2\n      mstore\n      0x20\n      add\n      0x00\n      keccak256\n        /* \"register.sol\":2726:2751  return voters[msg.sender] */\n      mload(0x40)\n      dup1\n      0xa0\n      add\n      0x40\n      mstore\n      swap1\n      dup2\n      0x00\n      dup3\n      add\n      dup1\n      sload\n      tag_99\n      swap1\n      tag_43\n      jump\t// in\n    tag_99:\n      dup1\n      0x1f\n      add\n      0x20\n      dup1\n      swap2\n      div\n      mul\n      0x20\n      add\n      mload(0x40)\n      swap1\n      dup2\n      add\n      0x40\n      mstore\n      dup1\n      swap3\n      swap2\n      swap1\n      dup2\n      dup2\n      mstore\n      0x20\n      add\n      dup3\n      dup1\n      sload\n      tag_100\n      swap1\n      tag_43\n      jump\t// in\n    tag_100:\n      dup1\n      iszero\n      tag_101\n      jumpi\n      dup1\n      0x1f\n      lt\n      tag_102\n      jumpi\n      0x0100\n      dup1\n      dup4\n      sload\n      div\n      mul\n      dup4\n      mstore\n      swap2\n      0x20\n      add\n      swap2\n      jump(tag_101)\n    tag_102:\n      dup3\n      add\n      swap2\n      swap1\n      0x00\n      mstore\n      keccak256(0x00, 0x20)\n      swap1\n    tag_103:\n      dup2\n      sload\n      dup2\n      mstore\n      swap1\n      0x01\n      add\n      swap1\n      0x20\n      add\n      dup1\n      dup4\n      gt\n      tag_103\n      jumpi\n      dup3\n      swap1\n      sub\n      0x1f\n      and\n      dup3\n      add\n      swap2\n    tag_101:\n      pop\n      pop\n      pop\n      pop\n      pop\n      dup2\n      mstore\n      0x20\n      add\n      0x01\n      dup3\n      add\n      sload\n      dup2\n      mstore\n      0x20\n      add\n      0x02\n      dup3\n      add\n      dup1\n      sload\n      tag_104\n      swap1\n      tag_43\n      jump\t// in\n    tag_104:\n      dup1\n      0x1f\n      add\n      0x20\n      dup1\n      swap2\n      div\n      mul\n      0x20\n      add\n      mload(0x40)\n      swap1\n      dup2\n      add\n      0x40\n      mstore\n      dup1\n      swap3\n      swap2\n      swap1\n      dup2\n      dup2\n      mstore\n      0x20\n      add\n      dup3\n      dup1\n      sload\n      tag_105\n      swap1\n      tag_43\n      jump\t// in\n    tag_105:\n      dup1\n      iszero\n      tag_106\n      jumpi\n      dup1\n      0x1f\n      lt\n      tag_107\n      jumpi\n      0x0100\n      dup1\n      dup4\n      sload\n      div\n      mul\n      dup4\n      mstore\n      swap2\n      0x20\n      add\n      swap2\n      jump(tag_106)\n    tag_107:\n      dup3\n      add\n      swap2\n      swap1\n      0x00\n      mstore\n      keccak256(0x00, 0x20)\n      swap1\n    tag_108:\n      dup2\n      sload\n      dup2\n      mstore\n      swap1\n      0x01\n      add\n      swap1\n      0x20\n      add\n      dup1\n      dup4\n      gt\n      tag_108\n      jumpi\n      dup3\n      swap1\n      sub\n      0x1f\n      and\n      dup3\n      add\n      swap2\n    tag_106:\n      pop\n      pop\n      pop\n      pop\n      pop\n      dup2\n      mstore\n      0x20\n      add\n      0x03\n      dup3\n      add\n      0x00\n      swap1\n      sload\n      swap1\n      0x0100\n      exp\n      swap1\n      div\n      0xff\n      and\n      iszero\n      iszero\n      iszero\n      iszero\n      dup2\n      mstore\n      0x20\n      add\n      0x03\n      dup3\n      add\n      0x01\n      swap1\n      sload\n      swap1\n      0x0100\n      exp\n      swap1\n      div\n      0xffffffffffffffffffffffffffffffffffffffff\n      and\n      0xffffffffffffffffffffffffffffffffffffffff\n      and\n      0xffffffffffffffffffffffffffffffffffffffff\n      and\n      dup2\n      mstore\n      pop\n      pop\n      swap1\n      pop\n        /* \"register.sol\":2660:2758  function getDetails() public view returns (voter memory){... */\n      swap1\n      jump\t// out\n        /* \"@openzeppelin/contracts/utils/Strings.sol\":415:1111  function toString(uint256 value) internal pure returns (string memory) {... */\n    tag_78:\n        /* \"@openzeppelin/contracts/utils/Strings.sol\":471:484  string memory */\n      0x60\n        /* \"@openzeppelin/contracts/utils/Strings.sol\":520:534  uint256 length */\n      0x00\n        /* \"@openzeppelin/contracts/utils/Strings.sol\":557:558  1 */\n      0x01\n        /* \"@openzeppelin/contracts/utils/Strings.sol\":537:554  Math.log10(value) */\n      tag_110\n        /* \"@openzeppelin/contracts/utils/Strings.sol\":548:553  value */\n      dup5\n        /* \"@openzeppelin/contracts/utils/Strings.sol\":537:547  Math.log10 */\n      tag_111\n        /* \"@openzeppelin/contracts/utils/Strings.sol\":537:554  Math.log10(value) */\n      jump\t// in\n    tag_110:\n        /* \"@openzeppelin/contracts/utils/Strings.sol\":537:558  Math.log10(value) + 1 */\n      add\n        /* \"@openzeppelin/contracts/utils/Strings.sol\":520:558  uint256 length = Math.log10(value) + 1 */\n      swap1\n      pop\n        /* \"@openzeppelin/contracts/utils/Strings.sol\":572:592  string memory buffer */\n      0x00\n        /* \"@openzeppelin/contracts/utils/Strings.sol\":606:612  length */\n      dup2\n        /* \"@openzeppelin/contracts/utils/Strings.sol\":595:613  new string(length) */\n      0xffffffffffffffff\n      dup2\n      gt\n      iszero\n      tag_112\n      jumpi\n      tag_113\n      tag_114\n      jump\t// in\n    tag_113:\n    tag_112:\n      mload(0x40)\n      swap1\n      dup1\n      dup3\n      mstore\n      dup1\n      0x1f\n      add\n      not(0x1f)\n      and\n      0x20\n      add\n      dup3\n      add\n      0x40\n      mstore\n      dup1\n      iszero\n      tag_115\n      jumpi\n      dup2\n      0x20\n      add\n      0x01\n      dup3\n      mul\n      dup1\n      calldatasize\n      dup4\n      calldatacopy\n      dup1\n      dup3\n      add\n      swap2\n      pop\n      pop\n      swap1\n      pop\n    tag_115:\n      pop\n        /* \"@openzeppelin/contracts/utils/Strings.sol\":572:613  string memory buffer = new string(length) */\n      swap1\n      pop\n        /* \"@openzeppelin/contracts/utils/Strings.sol\":627:638  uint256 ptr */\n      0x00\n        /* \"@openzeppelin/contracts/utils/Strings.sol\":753:759  length */\n      dup3\n        /* \"@openzeppelin/contracts/utils/Strings.sol\":749:751  32 */\n      0x20\n        /* \"@openzeppelin/contracts/utils/Strings.sol\":745:760  add(32, length) */\n      add\n        /* \"@openzeppelin/contracts/utils/Strings.sol\":737:743  buffer */\n      dup3\n        /* \"@openzeppelin/contracts/utils/Strings.sol\":733:761  add(buffer, add(32, length)) */\n      add\n        /* \"@openzeppelin/contracts/utils/Strings.sol\":726:761  ptr := add(buffer, add(32, length)) */\n      swap1\n      pop\n        /* \"@openzeppelin/contracts/utils/Strings.sol\":788:1068  while (true) {... */\n    tag_116:\n        /* \"@openzeppelin/contracts/utils/Strings.sol\":795:799  true */\n      0x01\n        /* \"@openzeppelin/contracts/utils/Strings.sol\":788:1068  while (true) {... */\n      iszero\n      tag_117\n      jumpi\n        /* \"@openzeppelin/contracts/utils/Strings.sol\":819:824  ptr-- */\n      dup1\n      dup1\n      0x01\n      swap1\n      sub\n      swap2\n      pop\n      pop\n        /* \"@openzeppelin/contracts/utils/Strings.sol\":958:966  _SYMBOLS */\n      0x3031323334353637383961626364656600000000000000000000000000000000\n        /* \"@openzeppelin/contracts/utils/Strings.sol\":953:955  10 */\n      0x0a\n        /* \"@openzeppelin/contracts/utils/Strings.sol\":946:951  value */\n      dup7\n        /* \"@openzeppelin/contracts/utils/Strings.sol\":942:956  mod(value, 10) */\n      mod\n        /* \"@openzeppelin/contracts/utils/Strings.sol\":937:967  byte(mod(value, 10), _SYMBOLS) */\n      byte\n        /* \"@openzeppelin/contracts/utils/Strings.sol\":932:935  ptr */\n      dup2\n        /* \"@openzeppelin/contracts/utils/Strings.sol\":924:968  mstore8(ptr, byte(mod(value, 10), _SYMBOLS)) */\n      mstore8\n        /* \"@openzeppelin/contracts/utils/Strings.sol\":1012:1014  10 */\n      0x0a\n        /* \"@openzeppelin/contracts/utils/Strings.sol\":1003:1014  value /= 10 */\n      dup6\n      dup2\n      tag_118\n      jumpi\n      tag_119\n      tag_120\n      jump\t// in\n    tag_119:\n    tag_118:\n      div\n      swap5\n      pop\n        /* \"@openzeppelin/contracts/utils/Strings.sol\":1045:1046  0 */\n      0x00\n        /* \"@openzeppelin/contracts/utils/Strings.sol\":1036:1041  value */\n      dup6\n        /* \"@openzeppelin/contracts/utils/Strings.sol\":1036:1046  value == 0 */\n      sub\n        /* \"@openzeppelin/contracts/utils/Strings.sol\":788:1068  while (true) {... */\n      tag_116\n        /* \"@openzeppelin/contracts/utils/Strings.sol\":1032:1053  if (value == 0) break */\n      jumpi\n        /* \"@openzeppelin/contracts/utils/Strings.sol\":788:1068  while (true) {... */\n    tag_117:\n        /* \"@openzeppelin/contracts/utils/Strings.sol\":1088:1094  buffer */\n      dup2\n        /* \"@openzeppelin/contracts/utils/Strings.sol\":1081:1094  return buffer */\n      swap4\n      pop\n      pop\n      pop\n      pop\n        /* \"@openzeppelin/contracts/utils/Strings.sol\":415:1111  function toString(uint256 value) internal pure returns (string memory) {... */\n      swap2\n      swap1\n      pop\n      jump\t// out\n        /* \"@openzeppelin/contracts/utils/math/Math.sol\":9889:10779  function log10(uint256 value) internal pure returns (uint256) {... */\n    tag_111:\n        /* \"@openzeppelin/contracts/utils/math/Math.sol\":9942:9949  uint256 */\n      0x00\n        /* \"@openzeppelin/contracts/utils/math/Math.sol\":9961:9975  uint256 result */\n      dup1\n        /* \"@openzeppelin/contracts/utils/math/Math.sol\":9978:9979  0 */\n      0x00\n        /* \"@openzeppelin/contracts/utils/math/Math.sol\":9961:9979  uint256 result = 0 */\n      swap1\n      pop\n        /* \"@openzeppelin/contracts/utils/math/Math.sol\":10026:10032  10**64 */\n      0x184f03e93ff9f4daa797ed6e38ed64bf6a1f010000000000000000\n        /* \"@openzeppelin/contracts/utils/math/Math.sol\":10017:10022  value */\n      dup4\n        /* \"@openzeppelin/contracts/utils/math/Math.sol\":10017:10032  value >= 10**64 */\n      lt\n        /* \"@openzeppelin/contracts/utils/math/Math.sol\":10013:10112  if (value >= 10**64) {... */\n      tag_123\n      jumpi\n        /* \"@openzeppelin/contracts/utils/math/Math.sol\":10061:10067  10**64 */\n      0x184f03e93ff9f4daa797ed6e38ed64bf6a1f010000000000000000\n        /* \"@openzeppelin/contracts/utils/math/Math.sol\":10052:10067  value /= 10**64 */\n      dup4\n      dup2\n      tag_124\n      jumpi\n      tag_125\n      tag_120\n      jump\t// in\n    tag_125:\n    tag_124:\n      div\n      swap3\n      pop\n        /* \"@openzeppelin/contracts/utils/math/Math.sol\":10095:10097  64 */\n      0x40\n        /* \"@openzeppelin/contracts/utils/math/Math.sol\":10085:10097  result += 64 */\n      dup2\n      add\n      swap1\n      pop\n        /* \"@openzeppelin/contracts/utils/math/Math.sol\":10013:10112  if (value >= 10**64) {... */\n    tag_123:\n        /* \"@openzeppelin/contracts/utils/math/Math.sol\":10138:10144  10**32 */\n      0x04ee2d6d415b85acef8100000000\n        /* \"@openzeppelin/contracts/utils/math/Math.sol\":10129:10134  value */\n      dup4\n        /* \"@openzeppelin/contracts/utils/math/Math.sol\":10129:10144  value >= 10**32 */\n      lt\n        /* \"@openzeppelin/contracts/utils/math/Math.sol\":10125:10224  if (value >= 10**32) {... */\n      tag_126\n      jumpi\n        /* \"@openzeppelin/contracts/utils/math/Math.sol\":10173:10179  10**32 */\n      0x04ee2d6d415b85acef8100000000\n        /* \"@openzeppelin/contracts/utils/math/Math.sol\":10164:10179  value /= 10**32 */\n      dup4\n      dup2\n      tag_127\n      jumpi\n      tag_128\n      tag_120\n      jump\t// in\n    tag_128:\n    tag_127:\n      div\n      swap3\n      pop\n        /* \"@openzeppelin/contracts/utils/math/Math.sol\":10207:10209  32 */\n      0x20\n        /* \"@openzeppelin/contracts/utils/math/Math.sol\":10197:10209  result += 32 */\n      dup2\n      add\n      swap1\n      pop\n        /* \"@openzeppelin/contracts/utils/math/Math.sol\":10125:10224  if (value >= 10**32) {... */\n    tag_126:\n        /* \"@openzeppelin/contracts/utils/math/Math.sol\":10250:10256  10**16 */\n      0x2386f26fc10000\n        /* \"@openzeppelin/contracts/utils/math/Math.sol\":10241:10246  value */\n      dup4\n        /* \"@openzeppelin/contracts/utils/math/Math.sol\":10241:10256  value >= 10**16 */\n      lt\n        /* \"@openzeppelin/contracts/utils/math/Math.sol\":10237:10336  if (value >= 10**16) {... */\n      tag_129\n      jumpi\n        /* \"@openzeppelin/contracts/utils/math/Math.sol\":10285:10291  10**16 */\n      0x2386f26fc10000\n        /* \"@openzeppelin/contracts/utils/math/Math.sol\":10276:10291  value /= 10**16 */\n      dup4\n      dup2\n      tag_130\n      jumpi\n      tag_131\n      tag_120\n      jump\t// in\n    tag_131:\n    tag_130:\n      div\n      swap3\n      pop\n        /* \"@openzeppelin/contracts/utils/math/Math.sol\":10319:10321  16 */\n      0x10\n        /* \"@openzeppelin/contracts/utils/math/Math.sol\":10309:10321  result += 16 */\n      dup2\n      add\n      swap1\n      pop\n        /* \"@openzeppelin/contracts/utils/math/Math.sol\":10237:10336  if (value >= 10**16) {... */\n    tag_129:\n        /* \"@openzeppelin/contracts/utils/math/Math.sol\":10362:10367  10**8 */\n      0x05f5e100\n        /* \"@openzeppelin/contracts/utils/math/Math.sol\":10353:10358  value */\n      dup4\n        /* \"@openzeppelin/contracts/utils/math/Math.sol\":10353:10367  value >= 10**8 */\n      lt\n        /* \"@openzeppelin/contracts/utils/math/Math.sol\":10349:10445  if (value >= 10**8) {... */\n      tag_132\n      jumpi\n        /* \"@openzeppelin/contracts/utils/math/Math.sol\":10396:10401  10**8 */\n      0x05f5e100\n        /* \"@openzeppelin/contracts/utils/math/Math.sol\":10387:10401  value /= 10**8 */\n      dup4\n      dup2\n      tag_133\n      jumpi\n      tag_134\n      tag_120\n      jump\t// in\n    tag_134:\n    tag_133:\n      div\n      swap3\n      pop\n        /* \"@openzeppelin/contracts/utils/math/Math.sol\":10429:10430  8 */\n      0x08\n        /* \"@openzeppelin/contracts/utils/math/Math.sol\":10419:10430  result += 8 */\n      dup2\n      add\n      swap1\n      pop\n        /* \"@openzeppelin/contracts/utils/math/Math.sol\":10349:10445  if (value >= 10**8) {... */\n    tag_132:\n        /* \"@openzeppelin/contracts/utils/math/Math.sol\":10471:10476  10**4 */\n      0x2710\n        /* \"@openzeppelin/contracts/utils/math/Math.sol\":10462:10467  value */\n      dup4\n        /* \"@openzeppelin/contracts/utils/math/Math.sol\":10462:10476  value >= 10**4 */\n      lt\n        /* \"@openzeppelin/contracts/utils/math/Math.sol\":10458:10554  if (value >= 10**4) {... */\n      tag_135\n      jumpi\n        /* \"@openzeppelin/contracts/utils/math/Math.sol\":10505:10510  10**4 */\n      0x2710\n        /* \"@openzeppelin/contracts/utils/math/Math.sol\":10496:10510  value /= 10**4 */\n      dup4\n      dup2\n      tag_136\n      jumpi\n      tag_137\n      tag_120\n      jump\t// in\n    tag_137:\n    tag_136:\n      div\n      swap3\n      pop\n        /* \"@openzeppelin/contracts/utils/math/Math.sol\":10538:10539  4 */\n      0x04\n        /* \"@openzeppelin/contracts/utils/math/Math.sol\":10528:10539  result += 4 */\n      dup2\n      add\n      swap1\n      pop\n        /* \"@openzeppelin/contracts/utils/math/Math.sol\":10458:10554  if (value >= 10**4) {... */\n    tag_135:\n        /* \"@openzeppelin/contracts/utils/math/Math.sol\":10580:10585  10**2 */\n      0x64\n        /* \"@openzeppelin/contracts/utils/math/Math.sol\":10571:10576  value */\n      dup4\n        /* \"@openzeppelin/contracts/utils/math/Math.sol\":10571:10585  value >= 10**2 */\n      lt\n        /* \"@openzeppelin/contracts/utils/math/Math.sol\":10567:10663  if (value >= 10**2) {... */\n      tag_138\n      jumpi\n        /* \"@openzeppelin/contracts/utils/math/Math.sol\":10614:10619  10**2 */\n      0x64\n        /* \"@openzeppelin/contracts/utils/math/Math.sol\":10605:10619  value /= 10**2 */\n      dup4\n      dup2\n      tag_139\n      jumpi\n      tag_140\n      tag_120\n      jump\t// in\n    tag_140:\n    tag_139:\n      div\n      swap3\n      pop\n        /* \"@openzeppelin/contracts/utils/math/Math.sol\":10647:10648  2 */\n      0x02\n        /* \"@openzeppelin/contracts/utils/math/Math.sol\":10637:10648  result += 2 */\n      dup2\n      add\n      swap1\n      pop\n        /* \"@openzeppelin/contracts/utils/math/Math.sol\":10567:10663  if (value >= 10**2) {... */\n    tag_138:\n        /* \"@openzeppelin/contracts/utils/math/Math.sol\":10689:10694  10**1 */\n      0x0a\n        /* \"@openzeppelin/contracts/utils/math/Math.sol\":10680:10685  value */\n      dup4\n        /* \"@openzeppelin/contracts/utils/math/Math.sol\":10680:10694  value >= 10**1 */\n      lt\n        /* \"@openzeppelin/contracts/utils/math/Math.sol\":10676:10740  if (value >= 10**1) {... */\n      tag_141\n      jumpi\n        /* \"@openzeppelin/contracts/utils/math/Math.sol\":10724:10725  1 */\n      0x01\n        /* \"@openzeppelin/contracts/utils/math/Math.sol\":10714:10725  result += 1 */\n      dup2\n      add\n      swap1\n      pop\n        /* \"@openzeppelin/contracts/utils/math/Math.sol\":10676:10740  if (value >= 10**1) {... */\n    tag_141:\n        /* \"@openzeppelin/contracts/utils/math/Math.sol\":10766:10772  result */\n      dup1\n        /* \"@openzeppelin/contracts/utils/math/Math.sol\":10759:10772  return result */\n      swap2\n      pop\n      pop\n        /* \"@openzeppelin/contracts/utils/math/Math.sol\":9889:10779  function log10(uint256 value) internal pure returns (uint256) {... */\n      swap2\n      swap1\n      pop\n      jump\t// out\n    tag_69:\n      mload(0x40)\n      dup1\n      0xa0\n      add\n      0x40\n      mstore\n      dup1\n      0x60\n      dup2\n      mstore\n      0x20\n      add\n      0x00\n      dup2\n      mstore\n      0x20\n      add\n      0x60\n      dup2\n      mstore\n      0x20\n      add\n      iszero(iszero(0x00))\n      dup2\n      mstore\n      0x20\n      add\n      and(0xffffffffffffffffffffffffffffffffffffffff, 0x00)\n      dup2\n      mstore\n      pop\n      swap1\n      jump\t// out\n        /* \"#utility.yul\":7:133   */\n    tag_142:\n        /* \"#utility.yul\":44:51   */\n      0x00\n        /* \"#utility.yul\":84:126   */\n      0xffffffffffffffffffffffffffffffffffffffff\n        /* \"#utility.yul\":77:82   */\n      dup3\n        /* \"#utility.yul\":73:127   */\n      and\n        /* \"#utility.yul\":62:127   */\n      swap1\n      pop\n        /* \"#utility.yul\":7:133   */\n      swap2\n      swap1\n      pop\n      jump\t// out\n        /* \"#utility.yul\":139:235   */\n    tag_143:\n        /* \"#utility.yul\":176:183   */\n      0x00\n        /* \"#utility.yul\":205:229   */\n      tag_198\n        /* \"#utility.yul\":223:228   */\n      dup3\n        /* \"#utility.yul\":205:229   */\n      tag_142\n      jump\t// in\n    tag_198:\n        /* \"#utility.yul\":194:229   */\n      swap1\n      pop\n        /* \"#utility.yul\":139:235   */\n      swap2\n      swap1\n      pop\n      jump\t// out\n        /* \"#utility.yul\":241:359   */\n    tag_144:\n        /* \"#utility.yul\":328:352   */\n      tag_200\n        /* \"#utility.yul\":346:351   */\n      dup2\n        /* \"#utility.yul\":328:352   */\n      tag_143\n      jump\t// in\n    tag_200:\n        /* \"#utility.yul\":323:326   */\n      dup3\n        /* \"#utility.yul\":316:353   */\n      mstore\n        /* \"#utility.yul\":241:359   */\n      pop\n      pop\n      jump\t// out\n        /* \"#utility.yul\":365:587   */\n    tag_14:\n        /* \"#utility.yul\":458:462   */\n      0x00\n        /* \"#utility.yul\":496:498   */\n      0x20\n        /* \"#utility.yul\":485:494   */\n      dup3\n        /* \"#utility.yul\":481:499   */\n      add\n        /* \"#utility.yul\":473:499   */\n      swap1\n      pop\n        /* \"#utility.yul\":509:580   */\n      tag_202\n        /* \"#utility.yul\":577:578   */\n      0x00\n        /* \"#utility.yul\":566:575   */\n      dup4\n        /* \"#utility.yul\":562:579   */\n      add\n        /* \"#utility.yul\":553:559   */\n      dup5\n        /* \"#utility.yul\":509:580   */\n      tag_144\n      jump\t// in\n    tag_202:\n        /* \"#utility.yul\":365:587   */\n      swap3\n      swap2\n      pop\n      pop\n      jump\t// out\n        /* \"#utility.yul\":674:791   */\n    tag_146:\n        /* \"#utility.yul\":783:784   */\n      0x00\n        /* \"#utility.yul\":780:781   */\n      dup1\n        /* \"#utility.yul\":773:785   */\n      revert\n        /* \"#utility.yul\":797:914   */\n    tag_147:\n        /* \"#utility.yul\":906:907   */\n      0x00\n        /* \"#utility.yul\":903:904   */\n      dup1\n        /* \"#utility.yul\":896:908   */\n      revert\n        /* \"#utility.yul\":920:1042   */\n    tag_148:\n        /* \"#utility.yul\":993:1017   */\n      tag_207\n        /* \"#utility.yul\":1011:1016   */\n      dup2\n        /* \"#utility.yul\":993:1017   */\n      tag_143\n      jump\t// in\n    tag_207:\n        /* \"#utility.yul\":986:991   */\n      dup2\n        /* \"#utility.yul\":983:1018   */\n      eq\n        /* \"#utility.yul\":973:1036   */\n      tag_208\n      jumpi\n        /* \"#utility.yul\":1032:1033   */\n      0x00\n        /* \"#utility.yul\":1029:1030   */\n      dup1\n        /* \"#utility.yul\":1022:1034   */\n      revert\n        /* \"#utility.yul\":973:1036   */\n    tag_208:\n        /* \"#utility.yul\":920:1042   */\n      pop\n      jump\t// out\n        /* \"#utility.yul\":1048:1187   */\n    tag_149:\n        /* \"#utility.yul\":1094:1099   */\n      0x00\n        /* \"#utility.yul\":1132:1138   */\n      dup2\n        /* \"#utility.yul\":1119:1139   */\n      calldataload\n        /* \"#utility.yul\":1110:1139   */\n      swap1\n      pop\n        /* \"#utility.yul\":1148:1181   */\n      tag_210\n        /* \"#utility.yul\":1175:1180   */\n      dup2\n        /* \"#utility.yul\":1148:1181   */\n      tag_148\n      jump\t// in\n    tag_210:\n        /* \"#utility.yul\":1048:1187   */\n      swap3\n      swap2\n      pop\n      pop\n      jump\t// out\n        /* \"#utility.yul\":1193:1522   */\n    tag_17:\n        /* \"#utility.yul\":1252:1258   */\n      0x00\n        /* \"#utility.yul\":1301:1303   */\n      0x20\n        /* \"#utility.yul\":1289:1298   */\n      dup3\n        /* \"#utility.yul\":1280:1287   */\n      dup5\n        /* \"#utility.yul\":1276:1299   */\n      sub\n        /* \"#utility.yul\":1272:1304   */\n      slt\n        /* \"#utility.yul\":1269:1388   */\n      iszero\n      tag_212\n      jumpi\n        /* \"#utility.yul\":1307:1386   */\n      tag_213\n      tag_146\n      jump\t// in\n    tag_213:\n        /* \"#utility.yul\":1269:1388   */\n    tag_212:\n        /* \"#utility.yul\":1427:1428   */\n      0x00\n        /* \"#utility.yul\":1452:1505   */\n      tag_214\n        /* \"#utility.yul\":1497:1504   */\n      dup5\n        /* \"#utility.yul\":1488:1494   */\n      dup3\n        /* \"#utility.yul\":1477:1486   */\n      dup6\n        /* \"#utility.yul\":1473:1495   */\n      add\n        /* \"#utility.yul\":1452:1505   */\n      tag_149\n      jump\t// in\n    tag_214:\n        /* \"#utility.yul\":1442:1505   */\n      swap2\n      pop\n        /* \"#utility.yul\":1398:1515   */\n      pop\n        /* \"#utility.yul\":1193:1522   */\n      swap3\n      swap2\n      pop\n      pop\n      jump\t// out\n        /* \"#utility.yul\":1528:1627   */\n    tag_150:\n        /* \"#utility.yul\":1580:1586   */\n      0x00\n        /* \"#utility.yul\":1614:1619   */\n      dup2\n        /* \"#utility.yul\":1608:1620   */\n      mload\n        /* \"#utility.yul\":1598:1620   */\n      swap1\n      pop\n        /* \"#utility.yul\":1528:1627   */\n      swap2\n      swap1\n      pop\n      jump\t// out\n        /* \"#utility.yul\":1633:1802   */\n    tag_151:\n        /* \"#utility.yul\":1717:1728   */\n      0x00\n        /* \"#utility.yul\":1751:1757   */\n      dup3\n        /* \"#utility.yul\":1746:1749   */\n      dup3\n        /* \"#utility.yul\":1739:1758   */\n      mstore\n        /* \"#utility.yul\":1791:1795   */\n      0x20\n        /* \"#utility.yul\":1786:1789   */\n      dup3\n        /* \"#utility.yul\":1782:1796   */\n      add\n        /* \"#utility.yul\":1767:1796   */\n      swap1\n      pop\n        /* \"#utility.yul\":1633:1802   */\n      swap3\n      swap2\n      pop\n      pop\n      jump\t// out\n        /* \"#utility.yul\":1808:2054   */\n    tag_152:\n        /* \"#utility.yul\":1889:1890   */\n      0x00\n        /* \"#utility.yul\":1899:2012   */\n    tag_218:\n        /* \"#utility.yul\":1913:1919   */\n      dup4\n        /* \"#utility.yul\":1910:1911   */\n      dup2\n        /* \"#utility.yul\":1907:1920   */\n      lt\n        /* \"#utility.yul\":1899:2012   */\n      iszero\n      tag_220\n      jumpi\n        /* \"#utility.yul\":1998:1999   */\n      dup1\n        /* \"#utility.yul\":1993:1996   */\n      dup3\n        /* \"#utility.yul\":1989:2000   */\n      add\n        /* \"#utility.yul\":1983:2001   */\n      mload\n        /* \"#utility.yul\":1979:1980   */\n      dup2\n        /* \"#utility.yul\":1974:1977   */\n      dup5\n        /* \"#utility.yul\":1970:1981   */\n      add\n        /* \"#utility.yul\":1963:2002   */\n      mstore\n        /* \"#utility.yul\":1935:1937   */\n      0x20\n        /* \"#utility.yul\":1932:1933   */\n      dup2\n        /* \"#utility.yul\":1928:1938   */\n      add\n        /* \"#utility.yul\":1923:1938   */\n      swap1\n      pop\n        /* \"#utility.yul\":1899:2012   */\n      jump(tag_218)\n    tag_220:\n        /* \"#utility.yul\":2046:2047   */\n      0x00\n        /* \"#utility.yul\":2037:2043   */\n      dup5\n        /* \"#utility.yul\":2032:2035   */\n      dup5\n        /* \"#utility.yul\":2028:2044   */\n      add\n        /* \"#utility.yul\":2021:2048   */\n      mstore\n        /* \"#utility.yul\":1870:2054   */\n      pop\n        /* \"#utility.yul\":1808:2054   */\n      pop\n      pop\n      pop\n      jump\t// out\n        /* \"#utility.yul\":2060:2162   */\n    tag_153:\n        /* \"#utility.yul\":2101:2107   */\n      0x00\n        /* \"#utility.yul\":2152:2154   */\n      0x1f\n        /* \"#utility.yul\":2148:2155   */\n      not\n        /* \"#utility.yul\":2143:2145   */\n      0x1f\n        /* \"#utility.yul\":2136:2141   */\n      dup4\n        /* \"#utility.yul\":2132:2146   */\n      add\n        /* \"#utility.yul\":2128:2156   */\n      and\n        /* \"#utility.yul\":2118:2156   */\n      swap1\n      pop\n        /* \"#utility.yul\":2060:2162   */\n      swap2\n      swap1\n      pop\n      jump\t// out\n        /* \"#utility.yul\":2168:2545   */\n    tag_154:\n        /* \"#utility.yul\":2256:2259   */\n      0x00\n        /* \"#utility.yul\":2284:2323   */\n      tag_223\n        /* \"#utility.yul\":2317:2322   */\n      dup3\n        /* \"#utility.yul\":2284:2323   */\n      tag_150\n      jump\t// in\n    tag_223:\n        /* \"#utility.yul\":2339:2410   */\n      tag_224\n        /* \"#utility.yul\":2403:2409   */\n      dup2\n        /* \"#utility.yul\":2398:2401   */\n      dup6\n        /* \"#utility.yul\":2339:2410   */\n      tag_151\n      jump\t// in\n    tag_224:\n        /* \"#utility.yul\":2332:2410   */\n      swap4\n      pop\n        /* \"#utility.yul\":2419:2484   */\n      tag_225\n        /* \"#utility.yul\":2477:2483   */\n      dup2\n        /* \"#utility.yul\":2472:2475   */\n      dup6\n        /* \"#utility.yul\":2465:2469   */\n      0x20\n        /* \"#utility.yul\":2458:2463   */\n      dup7\n        /* \"#utility.yul\":2454:2470   */\n      add\n        /* \"#utility.yul\":2419:2484   */\n      tag_152\n      jump\t// in\n    tag_225:\n        /* \"#utility.yul\":2509:2538   */\n      tag_226\n        /* \"#utility.yul\":2531:2537   */\n      dup2\n        /* \"#utility.yul\":2509:2538   */\n      tag_153\n      jump\t// in\n    tag_226:\n        /* \"#utility.yul\":2504:2507   */\n      dup5\n        /* \"#utility.yul\":2500:2539   */\n      add\n        /* \"#utility.yul\":2493:2539   */\n      swap2\n      pop\n        /* \"#utility.yul\":2260:2545   */\n      pop\n        /* \"#utility.yul\":2168:2545   */\n      swap3\n      swap2\n      pop\n      pop\n      jump\t// out\n        /* \"#utility.yul\":2551:2628   */\n    tag_155:\n        /* \"#utility.yul\":2588:2595   */\n      0x00\n        /* \"#utility.yul\":2617:2622   */\n      dup2\n        /* \"#utility.yul\":2606:2622   */\n      swap1\n      pop\n        /* \"#utility.yul\":2551:2628   */\n      swap2\n      swap1\n      pop\n      jump\t// out\n        /* \"#utility.yul\":2634:2752   */\n    tag_156:\n        /* \"#utility.yul\":2721:2745   */\n      tag_229\n        /* \"#utility.yul\":2739:2744   */\n      dup2\n        /* \"#utility.yul\":2721:2745   */\n      tag_155\n      jump\t// in\n    tag_229:\n        /* \"#utility.yul\":2716:2719   */\n      dup3\n        /* \"#utility.yul\":2709:2746   */\n      mstore\n        /* \"#utility.yul\":2634:2752   */\n      pop\n      pop\n      jump\t// out\n        /* \"#utility.yul\":2758:2848   */\n    tag_157:\n        /* \"#utility.yul\":2792:2799   */\n      0x00\n        /* \"#utility.yul\":2835:2840   */\n      dup2\n        /* \"#utility.yul\":2828:2841   */\n      iszero\n        /* \"#utility.yul\":2821:2842   */\n      iszero\n        /* \"#utility.yul\":2810:2842   */\n      swap1\n      pop\n        /* \"#utility.yul\":2758:2848   */\n      swap2\n      swap1\n      pop\n      jump\t// out\n        /* \"#utility.yul\":2854:2963   */\n    tag_158:\n        /* \"#utility.yul\":2935:2956   */\n      tag_232\n        /* \"#utility.yul\":2950:2955   */\n      dup2\n        /* \"#utility.yul\":2935:2956   */\n      tag_157\n      jump\t// in\n    tag_232:\n        /* \"#utility.yul\":2930:2933   */\n      dup3\n        /* \"#utility.yul\":2923:2957   */\n      mstore\n        /* \"#utility.yul\":2854:2963   */\n      pop\n      pop\n      jump\t// out\n        /* \"#utility.yul\":2969:3803   */\n    tag_20:\n        /* \"#utility.yul\":3208:3212   */\n      0x00\n        /* \"#utility.yul\":3246:3249   */\n      0xa0\n        /* \"#utility.yul\":3235:3244   */\n      dup3\n        /* \"#utility.yul\":3231:3250   */\n      add\n        /* \"#utility.yul\":3223:3250   */\n      swap1\n      pop\n        /* \"#utility.yul\":3296:3305   */\n      dup2\n        /* \"#utility.yul\":3290:3294   */\n      dup2\n        /* \"#utility.yul\":3286:3306   */\n      sub\n        /* \"#utility.yul\":3282:3283   */\n      0x00\n        /* \"#utility.yul\":3271:3280   */\n      dup4\n        /* \"#utility.yul\":3267:3284   */\n      add\n        /* \"#utility.yul\":3260:3307   */\n      mstore\n        /* \"#utility.yul\":3324:3402   */\n      tag_234\n        /* \"#utility.yul\":3397:3401   */\n      dup2\n        /* \"#utility.yul\":3388:3394   */\n      dup9\n        /* \"#utility.yul\":3324:3402   */\n      tag_154\n      jump\t// in\n    tag_234:\n        /* \"#utility.yul\":3316:3402   */\n      swap1\n      pop\n        /* \"#utility.yul\":3412:3484   */\n      tag_235\n        /* \"#utility.yul\":3480:3482   */\n      0x20\n        /* \"#utility.yul\":3469:3478   */\n      dup4\n        /* \"#utility.yul\":3465:3483   */\n      add\n        /* \"#utility.yul\":3456:3462   */\n      dup8\n        /* \"#utility.yul\":3412:3484   */\n      tag_156\n      jump\t// in\n    tag_235:\n        /* \"#utility.yul\":3531:3540   */\n      dup2\n        /* \"#utility.yul\":3525:3529   */\n      dup2\n        /* \"#utility.yul\":3521:3541   */\n      sub\n        /* \"#utility.yul\":3516:3518   */\n      0x40\n        /* \"#utility.yul\":3505:3514   */\n      dup4\n        /* \"#utility.yul\":3501:3519   */\n      add\n        /* \"#utility.yul\":3494:3542   */\n      mstore\n        /* \"#utility.yul\":3559:3637   */\n      tag_236\n        /* \"#utility.yul\":3632:3636   */\n      dup2\n        /* \"#utility.yul\":3623:3629   */\n      dup7\n        /* \"#utility.yul\":3559:3637   */\n      tag_154\n      jump\t// in\n    tag_236:\n        /* \"#utility.yul\":3551:3637   */\n      swap1\n      pop\n        /* \"#utility.yul\":3647:3713   */\n      tag_237\n        /* \"#utility.yul\":3709:3711   */\n      0x60\n        /* \"#utility.yul\":3698:3707   */\n      dup4\n        /* \"#utility.yul\":3694:3712   */\n      add\n        /* \"#utility.yul\":3685:3691   */\n      dup6\n        /* \"#utility.yul\":3647:3713   */\n      tag_158\n      jump\t// in\n    tag_237:\n        /* \"#utility.yul\":3723:3796   */\n      tag_238\n        /* \"#utility.yul\":3791:3794   */\n      0x80\n        /* \"#utility.yul\":3780:3789   */\n      dup4\n        /* \"#utility.yul\":3776:3795   */\n      add\n        /* \"#utility.yul\":3767:3773   */\n      dup5\n        /* \"#utility.yul\":3723:3796   */\n      tag_144\n      jump\t// in\n    tag_238:\n        /* \"#utility.yul\":2969:3803   */\n      swap7\n      swap6\n      pop\n      pop\n      pop\n      pop\n      pop\n      pop\n      jump\t// out\n        /* \"#utility.yul\":3809:4734   */\n    tag_25:\n        /* \"#utility.yul\":4068:4072   */\n      0x00\n        /* \"#utility.yul\":4106:4109   */\n      0xa0\n        /* \"#utility.yul\":4095:4104   */\n      dup3\n        /* \"#utility.yul\":4091:4110   */\n      add\n        /* \"#utility.yul\":4083:4110   */\n      swap1\n      pop\n        /* \"#utility.yul\":4156:4165   */\n      dup2\n        /* \"#utility.yul\":4150:4154   */\n      dup2\n        /* \"#utility.yul\":4146:4166   */\n      sub\n        /* \"#utility.yul\":4142:4143   */\n      0x00\n        /* \"#utility.yul\":4131:4140   */\n      dup4\n        /* \"#utility.yul\":4127:4144   */\n      add\n        /* \"#utility.yul\":4120:4167   */\n      mstore\n        /* \"#utility.yul\":4184:4262   */\n      tag_240\n        /* \"#utility.yul\":4257:4261   */\n      dup2\n        /* \"#utility.yul\":4248:4254   */\n      dup9\n        /* \"#utility.yul\":4184:4262   */\n      tag_154\n      jump\t// in\n    tag_240:\n        /* \"#utility.yul\":4176:4262   */\n      swap1\n      pop\n        /* \"#utility.yul\":4309:4318   */\n      dup2\n        /* \"#utility.yul\":4303:4307   */\n      dup2\n        /* \"#utility.yul\":4299:4319   */\n      sub\n        /* \"#utility.yul\":4294:4296   */\n      0x20\n        /* \"#utility.yul\":4283:4292   */\n      dup4\n        /* \"#utility.yul\":4279:4297   */\n      add\n        /* \"#utility.yul\":4272:4320   */\n      mstore\n        /* \"#utility.yul\":4337:4415   */\n      tag_241\n        /* \"#utility.yul\":4410:4414   */\n      dup2\n        /* \"#utility.yul\":4401:4407   */\n      dup8\n        /* \"#utility.yul\":4337:4415   */\n      tag_154\n      jump\t// in\n    tag_241:\n        /* \"#utility.yul\":4329:4415   */\n      swap1\n      pop\n        /* \"#utility.yul\":4462:4471   */\n      dup2\n        /* \"#utility.yul\":4456:4460   */\n      dup2\n        /* \"#utility.yul\":4452:4472   */\n      sub\n        /* \"#utility.yul\":4447:4449   */\n      0x40\n        /* \"#utility.yul\":4436:4445   */\n      dup4\n        /* \"#utility.yul\":4432:4450   */\n      add\n        /* \"#utility.yul\":4425:4473   */\n      mstore\n        /* \"#utility.yul\":4490:4568   */\n      tag_242\n        /* \"#utility.yul\":4563:4567   */\n      dup2\n        /* \"#utility.yul\":4554:4560   */\n      dup7\n        /* \"#utility.yul\":4490:4568   */\n      tag_154\n      jump\t// in\n    tag_242:\n        /* \"#utility.yul\":4482:4568   */\n      swap1\n      pop\n        /* \"#utility.yul\":4578:4644   */\n      tag_243\n        /* \"#utility.yul\":4640:4642   */\n      0x60\n        /* \"#utility.yul\":4629:4638   */\n      dup4\n        /* \"#utility.yul\":4625:4643   */\n      add\n        /* \"#utility.yul\":4616:4622   */\n      dup6\n        /* \"#utility.yul\":4578:4644   */\n      tag_158\n      jump\t// in\n    tag_243:\n        /* \"#utility.yul\":4654:4727   */\n      tag_244\n        /* \"#utility.yul\":4722:4725   */\n      0x80\n        /* \"#utility.yul\":4711:4720   */\n      dup4\n        /* \"#utility.yul\":4707:4726   */\n      add\n        /* \"#utility.yul\":4698:4704   */\n      dup5\n        /* \"#utility.yul\":4654:4727   */\n      tag_144\n      jump\t// in\n    tag_244:\n        /* \"#utility.yul\":3809:4734   */\n      swap7\n      swap6\n      pop\n      pop\n      pop\n      pop\n      pop\n      pop\n      jump\t// out\n        /* \"#utility.yul\":4740:4857   */\n    tag_159:\n        /* \"#utility.yul\":4849:4850   */\n      0x00\n        /* \"#utility.yul\":4846:4847   */\n      dup1\n        /* \"#utility.yul\":4839:4851   */\n      revert\n        /* \"#utility.yul\":4863:4980   */\n    tag_160:\n        /* \"#utility.yul\":4972:4973   */\n      0x00\n        /* \"#utility.yul\":4969:4970   */\n      dup1\n        /* \"#utility.yul\":4962:4974   */\n      revert\n        /* \"#utility.yul\":4986:5103   */\n    tag_161:\n        /* \"#utility.yul\":5095:5096   */\n      0x00\n        /* \"#utility.yul\":5092:5093   */\n      dup1\n        /* \"#utility.yul\":5085:5097   */\n      revert\n        /* \"#utility.yul\":5123:5676   */\n    tag_162:\n        /* \"#utility.yul\":5181:5189   */\n      0x00\n        /* \"#utility.yul\":5191:5197   */\n      dup1\n        /* \"#utility.yul\":5241:5244   */\n      dup4\n        /* \"#utility.yul\":5234:5238   */\n      0x1f\n        /* \"#utility.yul\":5226:5232   */\n      dup5\n        /* \"#utility.yul\":5222:5239   */\n      add\n        /* \"#utility.yul\":5218:5245   */\n      slt\n        /* \"#utility.yul\":5208:5330   */\n      tag_249\n      jumpi\n        /* \"#utility.yul\":5249:5328   */\n      tag_250\n      tag_159\n      jump\t// in\n    tag_250:\n        /* \"#utility.yul\":5208:5330   */\n    tag_249:\n        /* \"#utility.yul\":5362:5368   */\n      dup3\n        /* \"#utility.yul\":5349:5369   */\n      calldataload\n        /* \"#utility.yul\":5339:5369   */\n      swap1\n      pop\n        /* \"#utility.yul\":5392:5410   */\n      0xffffffffffffffff\n        /* \"#utility.yul\":5384:5390   */\n      dup2\n        /* \"#utility.yul\":5381:5411   */\n      gt\n        /* \"#utility.yul\":5378:5495   */\n      iszero\n      tag_251\n      jumpi\n        /* \"#utility.yul\":5414:5493   */\n      tag_252\n      tag_160\n      jump\t// in\n    tag_252:\n        /* \"#utility.yul\":5378:5495   */\n    tag_251:\n        /* \"#utility.yul\":5528:5532   */\n      0x20\n        /* \"#utility.yul\":5520:5526   */\n      dup4\n        /* \"#utility.yul\":5516:5533   */\n      add\n        /* \"#utility.yul\":5504:5533   */\n      swap2\n      pop\n        /* \"#utility.yul\":5582:5585   */\n      dup4\n        /* \"#utility.yul\":5574:5578   */\n      0x01\n        /* \"#utility.yul\":5566:5572   */\n      dup3\n        /* \"#utility.yul\":5562:5579   */\n      mul\n        /* \"#utility.yul\":5552:5560   */\n      dup4\n        /* \"#utility.yul\":5548:5580   */\n      add\n        /* \"#utility.yul\":5545:5586   */\n      gt\n        /* \"#utility.yul\":5542:5670   */\n      iszero\n      tag_253\n      jumpi\n        /* \"#utility.yul\":5589:5668   */\n      tag_254\n      tag_161\n      jump\t// in\n    tag_254:\n        /* \"#utility.yul\":5542:5670   */\n    tag_253:\n        /* \"#utility.yul\":5123:5676   */\n      swap3\n      pop\n      swap3\n      swap1\n      pop\n      jump\t// out\n        /* \"#utility.yul\":5682:5804   */\n    tag_163:\n        /* \"#utility.yul\":5755:5779   */\n      tag_256\n        /* \"#utility.yul\":5773:5778   */\n      dup2\n        /* \"#utility.yul\":5755:5779   */\n      tag_155\n      jump\t// in\n    tag_256:\n        /* \"#utility.yul\":5748:5753   */\n      dup2\n        /* \"#utility.yul\":5745:5780   */\n      eq\n        /* \"#utility.yul\":5735:5798   */\n      tag_257\n      jumpi\n        /* \"#utility.yul\":5794:5795   */\n      0x00\n        /* \"#utility.yul\":5791:5792   */\n      dup1\n        /* \"#utility.yul\":5784:5796   */\n      revert\n        /* \"#utility.yul\":5735:5798   */\n    tag_257:\n        /* \"#utility.yul\":5682:5804   */\n      pop\n      jump\t// out\n        /* \"#utility.yul\":5810:5949   */\n    tag_164:\n        /* \"#utility.yul\":5856:5861   */\n      0x00\n        /* \"#utility.yul\":5894:5900   */\n      dup2\n        /* \"#utility.yul\":5881:5901   */\n      calldataload\n        /* \"#utility.yul\":5872:5901   */\n      swap1\n      pop\n        /* \"#utility.yul\":5910:5943   */\n      tag_259\n        /* \"#utility.yul\":5937:5942   */\n      dup2\n        /* \"#utility.yul\":5910:5943   */\n      tag_163\n      jump\t// in\n    tag_259:\n        /* \"#utility.yul\":5810:5949   */\n      swap3\n      swap2\n      pop\n      pop\n      jump\t// out\n        /* \"#utility.yul\":5955:6629   */\n    tag_28:\n        /* \"#utility.yul\":6035:6041   */\n      0x00\n        /* \"#utility.yul\":6043:6049   */\n      dup1\n        /* \"#utility.yul\":6051:6057   */\n      0x00\n        /* \"#utility.yul\":6100:6102   */\n      0x40\n        /* \"#utility.yul\":6088:6097   */\n      dup5\n        /* \"#utility.yul\":6079:6086   */\n      dup7\n        /* \"#utility.yul\":6075:6098   */\n      sub\n        /* \"#utility.yul\":6071:6103   */\n      slt\n        /* \"#utility.yul\":6068:6187   */\n      iszero\n      tag_261\n      jumpi\n        /* \"#utility.yul\":6106:6185   */\n      tag_262\n      tag_146\n      jump\t// in\n    tag_262:\n        /* \"#utility.yul\":6068:6187   */\n    tag_261:\n        /* \"#utility.yul\":6254:6255   */\n      0x00\n        /* \"#utility.yul\":6243:6252   */\n      dup5\n        /* \"#utility.yul\":6239:6256   */\n      add\n        /* \"#utility.yul\":6226:6257   */\n      calldataload\n        /* \"#utility.yul\":6284:6302   */\n      0xffffffffffffffff\n        /* \"#utility.yul\":6276:6282   */\n      dup2\n        /* \"#utility.yul\":6273:6303   */\n      gt\n        /* \"#utility.yul\":6270:6387   */\n      iszero\n      tag_263\n      jumpi\n        /* \"#utility.yul\":6306:6385   */\n      tag_264\n      tag_147\n      jump\t// in\n    tag_264:\n        /* \"#utility.yul\":6270:6387   */\n    tag_263:\n        /* \"#utility.yul\":6419:6484   */\n      tag_265\n        /* \"#utility.yul\":6476:6483   */\n      dup7\n        /* \"#utility.yul\":6467:6473   */\n      dup3\n        /* \"#utility.yul\":6456:6465   */\n      dup8\n        /* \"#utility.yul\":6452:6474   */\n      add\n        /* \"#utility.yul\":6419:6484   */\n      tag_162\n      jump\t// in\n    tag_265:\n        /* \"#utility.yul\":6401:6484   */\n      swap4\n      pop\n      swap4\n      pop\n        /* \"#utility.yul\":6197:6494   */\n      pop\n        /* \"#utility.yul\":6533:6535   */\n      0x20\n        /* \"#utility.yul\":6559:6612   */\n      tag_266\n        /* \"#utility.yul\":6604:6611   */\n      dup7\n        /* \"#utility.yul\":6595:6601   */\n      dup3\n        /* \"#utility.yul\":6584:6593   */\n      dup8\n        /* \"#utility.yul\":6580:6602   */\n      add\n        /* \"#utility.yul\":6559:6612   */\n      tag_164\n      jump\t// in\n    tag_266:\n        /* \"#utility.yul\":6549:6612   */\n      swap2\n      pop\n        /* \"#utility.yul\":6504:6622   */\n      pop\n        /* \"#utility.yul\":5955:6629   */\n      swap3\n      pop\n      swap3\n      pop\n      swap3\n      jump\t// out\n        /* \"#utility.yul\":6635:6794   */\n    tag_165:\n        /* \"#utility.yul\":6709:6720   */\n      0x00\n        /* \"#utility.yul\":6743:6749   */\n      dup3\n        /* \"#utility.yul\":6738:6741   */\n      dup3\n        /* \"#utility.yul\":6731:6750   */\n      mstore\n        /* \"#utility.yul\":6783:6787   */\n      0x20\n        /* \"#utility.yul\":6778:6781   */\n      dup3\n        /* \"#utility.yul\":6774:6788   */\n      add\n        /* \"#utility.yul\":6759:6788   */\n      swap1\n      pop\n        /* \"#utility.yul\":6635:6794   */\n      swap3\n      swap2\n      pop\n      pop\n      jump\t// out\n        /* \"#utility.yul\":6800:7157   */\n    tag_166:\n        /* \"#utility.yul\":6878:6881   */\n      0x00\n        /* \"#utility.yul\":6906:6945   */\n      tag_269\n        /* \"#utility.yul\":6939:6944   */\n      dup3\n        /* \"#utility.yul\":6906:6945   */\n      tag_150\n      jump\t// in\n    tag_269:\n        /* \"#utility.yul\":6961:7022   */\n      tag_270\n        /* \"#utility.yul\":7015:7021   */\n      dup2\n        /* \"#utility.yul\":7010:7013   */\n      dup6\n        /* \"#utility.yul\":6961:7022   */\n      tag_165\n      jump\t// in\n    tag_270:\n        /* \"#utility.yul\":6954:7022   */\n      swap4\n      pop\n        /* \"#utility.yul\":7031:7096   */\n      tag_271\n        /* \"#utility.yul\":7089:7095   */\n      dup2\n        /* \"#utility.yul\":7084:7087   */\n      dup6\n        /* \"#utility.yul\":7077:7081   */\n      0x20\n        /* \"#utility.yul\":7070:7075   */\n      dup7\n        /* \"#utility.yul\":7066:7082   */\n      add\n        /* \"#utility.yul\":7031:7096   */\n      tag_152\n      jump\t// in\n    tag_271:\n        /* \"#utility.yul\":7121:7150   */\n      tag_272\n        /* \"#utility.yul\":7143:7149   */\n      dup2\n        /* \"#utility.yul\":7121:7150   */\n      tag_153\n      jump\t// in\n    tag_272:\n        /* \"#utility.yul\":7116:7119   */\n      dup5\n        /* \"#utility.yul\":7112:7151   */\n      add\n        /* \"#utility.yul\":7105:7151   */\n      swap2\n      pop\n        /* \"#utility.yul\":6882:7157   */\n      pop\n        /* \"#utility.yul\":6800:7157   */\n      swap3\n      swap2\n      pop\n      pop\n      jump\t// out\n        /* \"#utility.yul\":7163:7271   */\n    tag_167:\n        /* \"#utility.yul\":7240:7264   */\n      tag_274\n        /* \"#utility.yul\":7258:7263   */\n      dup2\n        /* \"#utility.yul\":7240:7264   */\n      tag_155\n      jump\t// in\n    tag_274:\n        /* \"#utility.yul\":7235:7238   */\n      dup3\n        /* \"#utility.yul\":7228:7265   */\n      mstore\n        /* \"#utility.yul\":7163:7271   */\n      pop\n      pop\n      jump\t// out\n        /* \"#utility.yul\":7277:7376   */\n    tag_168:\n        /* \"#utility.yul\":7348:7369   */\n      tag_276\n        /* \"#utility.yul\":7363:7368   */\n      dup2\n        /* \"#utility.yul\":7348:7369   */\n      tag_157\n      jump\t// in\n    tag_276:\n        /* \"#utility.yul\":7343:7346   */\n      dup3\n        /* \"#utility.yul\":7336:7370   */\n      mstore\n        /* \"#utility.yul\":7277:7376   */\n      pop\n      pop\n      jump\t// out\n        /* \"#utility.yul\":7382:7490   */\n    tag_169:\n        /* \"#utility.yul\":7459:7483   */\n      tag_278\n        /* \"#utility.yul\":7477:7482   */\n      dup2\n        /* \"#utility.yul\":7459:7483   */\n      tag_143\n      jump\t// in\n    tag_278:\n        /* \"#utility.yul\":7454:7457   */\n      dup3\n        /* \"#utility.yul\":7447:7484   */\n      mstore\n        /* \"#utility.yul\":7382:7490   */\n      pop\n      pop\n      jump\t// out\n        /* \"#utility.yul\":7532:8741   */\n    tag_170:\n        /* \"#utility.yul\":7647:7650   */\n      0x00\n        /* \"#utility.yul\":7683:7687   */\n      0xa0\n        /* \"#utility.yul\":7678:7681   */\n      dup4\n        /* \"#utility.yul\":7674:7688   */\n      add\n        /* \"#utility.yul\":7770:7774   */\n      0x00\n        /* \"#utility.yul\":7763:7768   */\n      dup4\n        /* \"#utility.yul\":7759:7775   */\n      add\n        /* \"#utility.yul\":7753:7776   */\n      mload\n        /* \"#utility.yul\":7823:7826   */\n      dup5\n        /* \"#utility.yul\":7817:7821   */\n      dup3\n        /* \"#utility.yul\":7813:7827   */\n      sub\n        /* \"#utility.yul\":7806:7810   */\n      0x00\n        /* \"#utility.yul\":7801:7804   */\n      dup7\n        /* \"#utility.yul\":7797:7811   */\n      add\n        /* \"#utility.yul\":7790:7828   */\n      mstore\n        /* \"#utility.yul\":7849:7922   */\n      tag_280\n        /* \"#utility.yul\":7917:7921   */\n      dup3\n        /* \"#utility.yul\":7903:7915   */\n      dup3\n        /* \"#utility.yul\":7849:7922   */\n      tag_166\n      jump\t// in\n    tag_280:\n        /* \"#utility.yul\":7841:7922   */\n      swap2\n      pop\n        /* \"#utility.yul\":7698:7933   */\n      pop\n        /* \"#utility.yul\":8014:8018   */\n      0x20\n        /* \"#utility.yul\":8007:8012   */\n      dup4\n        /* \"#utility.yul\":8003:8019   */\n      add\n        /* \"#utility.yul\":7997:8020   */\n      mload\n        /* \"#utility.yul\":8033:8096   */\n      tag_281\n        /* \"#utility.yul\":8090:8094   */\n      0x20\n        /* \"#utility.yul\":8085:8088   */\n      dup7\n        /* \"#utility.yul\":8081:8095   */\n      add\n        /* \"#utility.yul\":8067:8079   */\n      dup3\n        /* \"#utility.yul\":8033:8096   */\n      tag_167\n      jump\t// in\n    tag_281:\n        /* \"#utility.yul\":7943:8106   */\n      pop\n        /* \"#utility.yul\":8191:8195   */\n      0x40\n        /* \"#utility.yul\":8184:8189   */\n      dup4\n        /* \"#utility.yul\":8180:8196   */\n      add\n        /* \"#utility.yul\":8174:8197   */\n      mload\n        /* \"#utility.yul\":8244:8247   */\n      dup5\n        /* \"#utility.yul\":8238:8242   */\n      dup3\n        /* \"#utility.yul\":8234:8248   */\n      sub\n        /* \"#utility.yul\":8227:8231   */\n      0x40\n        /* \"#utility.yul\":8222:8225   */\n      dup7\n        /* \"#utility.yul\":8218:8232   */\n      add\n        /* \"#utility.yul\":8211:8249   */\n      mstore\n        /* \"#utility.yul\":8270:8343   */\n      tag_282\n        /* \"#utility.yul\":8338:8342   */\n      dup3\n        /* \"#utility.yul\":8324:8336   */\n      dup3\n        /* \"#utility.yul\":8270:8343   */\n      tag_166\n      jump\t// in\n    tag_282:\n        /* \"#utility.yul\":8262:8343   */\n      swap2\n      pop\n        /* \"#utility.yul\":8116:8354   */\n      pop\n        /* \"#utility.yul\":8446:8450   */\n      0x60\n        /* \"#utility.yul\":8439:8444   */\n      dup4\n        /* \"#utility.yul\":8435:8451   */\n      add\n        /* \"#utility.yul\":8429:8452   */\n      mload\n        /* \"#utility.yul\":8465:8522   */\n      tag_283\n        /* \"#utility.yul\":8516:8520   */\n      0x60\n        /* \"#utility.yul\":8511:8514   */\n      dup7\n        /* \"#utility.yul\":8507:8521   */\n      add\n        /* \"#utility.yul\":8493:8505   */\n      dup3\n        /* \"#utility.yul\":8465:8522   */\n      tag_168\n      jump\t// in\n    tag_283:\n        /* \"#utility.yul\":8364:8532   */\n      pop\n        /* \"#utility.yul\":8622:8626   */\n      0x80\n        /* \"#utility.yul\":8615:8620   */\n      dup4\n        /* \"#utility.yul\":8611:8627   */\n      add\n        /* \"#utility.yul\":8605:8628   */\n      mload\n        /* \"#utility.yul\":8641:8704   */\n      tag_284\n        /* \"#utility.yul\":8698:8702   */\n      0x80\n        /* \"#utility.yul\":8693:8696   */\n      dup7\n        /* \"#utility.yul\":8689:8703   */\n      add\n        /* \"#utility.yul\":8675:8687   */\n      dup3\n        /* \"#utility.yul\":8641:8704   */\n      tag_169\n      jump\t// in\n    tag_284:\n        /* \"#utility.yul\":8542:8714   */\n      pop\n        /* \"#utility.yul\":8731:8735   */\n      dup1\n        /* \"#utility.yul\":8724:8735   */\n      swap2\n      pop\n        /* \"#utility.yul\":7652:8741   */\n      pop\n        /* \"#utility.yul\":7532:8741   */\n      swap3\n      swap2\n      pop\n      pop\n      jump\t// out\n        /* \"#utility.yul\":8747:9112   */\n    tag_31:\n        /* \"#utility.yul\":8886:8890   */\n      0x00\n        /* \"#utility.yul\":8924:8926   */\n      0x20\n        /* \"#utility.yul\":8913:8922   */\n      dup3\n        /* \"#utility.yul\":8909:8927   */\n      add\n        /* \"#utility.yul\":8901:8927   */\n      swap1\n      pop\n        /* \"#utility.yul\":8973:8982   */\n      dup2\n        /* \"#utility.yul\":8967:8971   */\n      dup2\n        /* \"#utility.yul\":8963:8983   */\n      sub\n        /* \"#utility.yul\":8959:8960   */\n      0x00\n        /* \"#utility.yul\":8948:8957   */\n      dup4\n        /* \"#utility.yul\":8944:8961   */\n      add\n        /* \"#utility.yul\":8937:8984   */\n      mstore\n        /* \"#utility.yul\":9001:9105   */\n      tag_286\n        /* \"#utility.yul\":9100:9104   */\n      dup2\n        /* \"#utility.yul\":9091:9097   */\n      dup5\n        /* \"#utility.yul\":9001:9105   */\n      tag_170\n      jump\t// in\n    tag_286:\n        /* \"#utility.yul\":8993:9105   */\n      swap1\n      pop\n        /* \"#utility.yul\":8747:9112   */\n      swap3\n      swap2\n      pop\n      pop\n      jump\t// out\n        /* \"#utility.yul\":9118:9328   */\n    tag_38:\n        /* \"#utility.yul\":9205:9209   */\n      0x00\n        /* \"#utility.yul\":9243:9245   */\n      0x20\n        /* \"#utility.yul\":9232:9241   */\n      dup3\n        /* \"#utility.yul\":9228:9246   */\n      add\n        /* \"#utility.yul\":9220:9246   */\n      swap1\n      pop\n        /* \"#utility.yul\":9256:9321   */\n      tag_288\n        /* \"#utility.yul\":9318:9319   */\n      0x00\n        /* \"#utility.yul\":9307:9316   */\n      dup4\n        /* \"#utility.yul\":9303:9320   */\n      add\n        /* \"#utility.yul\":9294:9300   */\n      dup5\n        /* \"#utility.yul\":9256:9321   */\n      tag_158\n      jump\t// in\n    tag_288:\n        /* \"#utility.yul\":9118:9328   */\n      swap3\n      swap2\n      pop\n      pop\n      jump\t// out\n        /* \"#utility.yul\":9334:9514   */\n    tag_171:\n        /* \"#utility.yul\":9382:9459   */\n      0x4e487b7100000000000000000000000000000000000000000000000000000000\n        /* \"#utility.yul\":9379:9380   */\n      0x00\n        /* \"#utility.yul\":9372:9460   */\n      mstore\n        /* \"#utility.yul\":9479:9483   */\n      0x22\n        /* \"#utility.yul\":9476:9477   */\n      0x04\n        /* \"#utility.yul\":9469:9484   */\n      mstore\n        /* \"#utility.yul\":9503:9507   */\n      0x24\n        /* \"#utility.yul\":9500:9501   */\n      0x00\n        /* \"#utility.yul\":9493:9508   */\n      revert\n        /* \"#utility.yul\":9520:9840   */\n    tag_43:\n        /* \"#utility.yul\":9564:9570   */\n      0x00\n        /* \"#utility.yul\":9601:9602   */\n      0x02\n        /* \"#utility.yul\":9595:9599   */\n      dup3\n        /* \"#utility.yul\":9591:9603   */\n      div\n        /* \"#utility.yul\":9581:9603   */\n      swap1\n      pop\n        /* \"#utility.yul\":9648:9649   */\n      0x01\n        /* \"#utility.yul\":9642:9646   */\n      dup3\n        /* \"#utility.yul\":9638:9650   */\n      and\n        /* \"#utility.yul\":9669:9687   */\n      dup1\n        /* \"#utility.yul\":9659:9740   */\n      tag_291\n      jumpi\n        /* \"#utility.yul\":9725:9729   */\n      0x7f\n        /* \"#utility.yul\":9717:9723   */\n      dup3\n        /* \"#utility.yul\":9713:9730   */\n      and\n        /* \"#utility.yul\":9703:9730   */\n      swap2\n      pop\n        /* \"#utility.yul\":9659:9740   */\n    tag_291:\n        /* \"#utility.yul\":9787:9789   */\n      0x20\n        /* \"#utility.yul\":9779:9785   */\n      dup3\n        /* \"#utility.yul\":9776:9790   */\n      lt\n        /* \"#utility.yul\":9756:9774   */\n      dup2\n        /* \"#utility.yul\":9753:9791   */\n      sub\n        /* \"#utility.yul\":9750:9834   */\n      tag_292\n      jumpi\n        /* \"#utility.yul\":9806:9824   */\n      tag_293\n      tag_171\n      jump\t// in\n    tag_293:\n        /* \"#utility.yul\":9750:9834   */\n    tag_292:\n        /* \"#utility.yul\":9571:9840   */\n      pop\n        /* \"#utility.yul\":9520:9840   */\n      swap2\n      swap1\n      pop\n      jump\t// out\n        /* \"#utility.yul\":9846:10016   */\n    tag_172:\n        /* \"#utility.yul\":9986:10008   */\n      0x6e6f7420656c696769626c6520746f20766f7465000000000000000000000000\n        /* \"#utility.yul\":9982:9983   */\n      0x00\n        /* \"#utility.yul\":9974:9980   */\n      dup3\n        /* \"#utility.yul\":9970:9984   */\n      add\n        /* \"#utility.yul\":9963:10009   */\n      mstore\n        /* \"#utility.yul\":9846:10016   */\n      pop\n      jump\t// out\n        /* \"#utility.yul\":10022:10388   */\n    tag_173:\n        /* \"#utility.yul\":10164:10167   */\n      0x00\n        /* \"#utility.yul\":10185:10252   */\n      tag_296\n        /* \"#utility.yul\":10249:10251   */\n      0x14\n        /* \"#utility.yul\":10244:10247   */\n      dup4\n        /* \"#utility.yul\":10185:10252   */\n      tag_151\n      jump\t// in\n    tag_296:\n        /* \"#utility.yul\":10178:10252   */\n      swap2\n      pop\n        /* \"#utility.yul\":10261:10354   */\n      tag_297\n        /* \"#utility.yul\":10350:10353   */\n      dup3\n        /* \"#utility.yul\":10261:10354   */\n      tag_172\n      jump\t// in\n    tag_297:\n        /* \"#utility.yul\":10379:10381   */\n      0x20\n        /* \"#utility.yul\":10374:10377   */\n      dup3\n        /* \"#utility.yul\":10370:10382   */\n      add\n        /* \"#utility.yul\":10363:10382   */\n      swap1\n      pop\n        /* \"#utility.yul\":10022:10388   */\n      swap2\n      swap1\n      pop\n      jump\t// out\n        /* \"#utility.yul\":10394:10813   */\n    tag_73:\n        /* \"#utility.yul\":10560:10564   */\n      0x00\n        /* \"#utility.yul\":10598:10600   */\n      0x20\n        /* \"#utility.yul\":10587:10596   */\n      dup3\n        /* \"#utility.yul\":10583:10601   */\n      add\n        /* \"#utility.yul\":10575:10601   */\n      swap1\n      pop\n        /* \"#utility.yul\":10647:10656   */\n      dup2\n        /* \"#utility.yul\":10641:10645   */\n      dup2\n        /* \"#utility.yul\":10637:10657   */\n      sub\n        /* \"#utility.yul\":10633:10634   */\n      0x00\n        /* \"#utility.yul\":10622:10631   */\n      dup4\n        /* \"#utility.yul\":10618:10635   */\n      add\n        /* \"#utility.yul\":10611:10658   */\n      mstore\n        /* \"#utility.yul\":10675:10806   */\n      tag_299\n        /* \"#utility.yul\":10801:10805   */\n      dup2\n        /* \"#utility.yul\":10675:10806   */\n      tag_173\n      jump\t// in\n    tag_299:\n        /* \"#utility.yul\":10667:10806   */\n      swap1\n      pop\n        /* \"#utility.yul\":10394:10813   */\n      swap2\n      swap1\n      pop\n      jump\t// out\n        /* \"#utility.yul\":10819:11001   */\n    tag_174:\n        /* \"#utility.yul\":10959:10993   */\n      0x54686973206164647265737320686173206265656e2072656769737465726564\n        /* \"#utility.yul\":10955:10956   */\n      0x00\n        /* \"#utility.yul\":10947:10953   */\n      dup3\n        /* \"#utility.yul\":10943:10957   */\n      add\n        /* \"#utility.yul\":10936:10994   */\n      mstore\n        /* \"#utility.yul\":10819:11001   */\n      pop\n      jump\t// out\n        /* \"#utility.yul\":11007:11373   */\n    tag_175:\n        /* \"#utility.yul\":11149:11152   */\n      0x00\n        /* \"#utility.yul\":11170:11237   */\n      tag_302\n        /* \"#utility.yul\":11234:11236   */\n      0x20\n        /* \"#utility.yul\":11229:11232   */\n      dup4\n        /* \"#utility.yul\":11170:11237   */\n      tag_151\n      jump\t// in\n    tag_302:\n        /* \"#utility.yul\":11163:11237   */\n      swap2\n      pop\n        /* \"#utility.yul\":11246:11339   */\n      tag_303\n        /* \"#utility.yul\":11335:11338   */\n      dup3\n        /* \"#utility.yul\":11246:11339   */\n      tag_174\n      jump\t// in\n    tag_303:\n        /* \"#utility.yul\":11364:11366   */\n      0x20\n        /* \"#utility.yul\":11359:11362   */\n      dup3\n        /* \"#utility.yul\":11355:11367   */\n      add\n        /* \"#utility.yul\":11348:11367   */\n      swap1\n      pop\n        /* \"#utility.yul\":11007:11373   */\n      swap2\n      swap1\n      pop\n      jump\t// out\n        /* \"#utility.yul\":11379:11798   */\n    tag_76:\n        /* \"#utility.yul\":11545:11549   */\n      0x00\n        /* \"#utility.yul\":11583:11585   */\n      0x20\n        /* \"#utility.yul\":11572:11581   */\n      dup3\n        /* \"#utility.yul\":11568:11586   */\n      add\n        /* \"#utility.yul\":11560:11586   */\n      swap1\n      pop\n        /* \"#utility.yul\":11632:11641   */\n      dup2\n        /* \"#utility.yul\":11626:11630   */\n      dup2\n        /* \"#utility.yul\":11622:11642   */\n      sub\n        /* \"#utility.yul\":11618:11619   */\n      0x00\n        /* \"#utility.yul\":11607:11616   */\n      dup4\n        /* \"#utility.yul\":11603:11620   */\n      add\n        /* \"#utility.yul\":11596:11643   */\n      mstore\n        /* \"#utility.yul\":11660:11791   */\n      tag_305\n        /* \"#utility.yul\":11786:11790   */\n      dup2\n        /* \"#utility.yul\":11660:11791   */\n      tag_175\n      jump\t// in\n    tag_305:\n        /* \"#utility.yul\":11652:11791   */\n      swap1\n      pop\n        /* \"#utility.yul\":11379:11798   */\n      swap2\n      swap1\n      pop\n      jump\t// out\n        /* \"#utility.yul\":11804:11984   */\n    tag_176:\n        /* \"#utility.yul\":11972:11977   */\n      0x4e49470000000000000000000000000000000000000000000000000000000000\n        /* \"#utility.yul\":11967:11970   */\n      dup2\n        /* \"#utility.yul\":11960:11978   */\n      mstore\n        /* \"#utility.yul\":11804:11984   */\n      pop\n      jump\t// out\n        /* \"#utility.yul\":11990:12138   */\n    tag_177:\n        /* \"#utility.yul\":12092:12103   */\n      0x00\n        /* \"#utility.yul\":12129:12132   */\n      dup2\n        /* \"#utility.yul\":12114:12132   */\n      swap1\n      pop\n        /* \"#utility.yul\":11990:12138   */\n      swap3\n      swap2\n      pop\n      pop\n      jump\t// out\n        /* \"#utility.yul\":12144:12534   */\n    tag_178:\n        /* \"#utility.yul\":12250:12253   */\n      0x00\n        /* \"#utility.yul\":12278:12317   */\n      tag_309\n        /* \"#utility.yul\":12311:12316   */\n      dup3\n        /* \"#utility.yul\":12278:12317   */\n      tag_150\n      jump\t// in\n    tag_309:\n        /* \"#utility.yul\":12333:12422   */\n      tag_310\n        /* \"#utility.yul\":12415:12421   */\n      dup2\n        /* \"#utility.yul\":12410:12413   */\n      dup6\n        /* \"#utility.yul\":12333:12422   */\n      tag_177\n      jump\t// in\n    tag_310:\n        /* \"#utility.yul\":12326:12422   */\n      swap4\n      pop\n        /* \"#utility.yul\":12431:12496   */\n      tag_311\n        /* \"#utility.yul\":12489:12495   */\n      dup2\n        /* \"#utility.yul\":12484:12487   */\n      dup6\n        /* \"#utility.yul\":12477:12481   */\n      0x20\n        /* \"#utility.yul\":12470:12475   */\n      dup7\n        /* \"#utility.yul\":12466:12482   */\n      add\n        /* \"#utility.yul\":12431:12496   */\n      tag_152\n      jump\t// in\n    tag_311:\n        /* \"#utility.yul\":12521:12527   */\n      dup1\n        /* \"#utility.yul\":12516:12519   */\n      dup5\n        /* \"#utility.yul\":12512:12528   */\n      add\n        /* \"#utility.yul\":12505:12528   */\n      swap2\n      pop\n        /* \"#utility.yul\":12254:12534   */\n      pop\n        /* \"#utility.yul\":12144:12534   */\n      swap3\n      swap2\n      pop\n      pop\n      jump\t// out\n        /* \"#utility.yul\":12540:13079   */\n    tag_80:\n        /* \"#utility.yul\":12762:12765   */\n      0x00\n        /* \"#utility.yul\":12777:12914   */\n      tag_313\n        /* \"#utility.yul\":12910:12913   */\n      dup3\n        /* \"#utility.yul\":12777:12914   */\n      tag_176\n      jump\t// in\n    tag_313:\n        /* \"#utility.yul\":12939:12940   */\n      0x03\n        /* \"#utility.yul\":12934:12937   */\n      dup3\n        /* \"#utility.yul\":12930:12941   */\n      add\n        /* \"#utility.yul\":12923:12941   */\n      swap2\n      pop\n        /* \"#utility.yul\":12958:13053   */\n      tag_314\n        /* \"#utility.yul\":13049:13052   */\n      dup3\n        /* \"#utility.yul\":13040:13046   */\n      dup5\n        /* \"#utility.yul\":12958:13053   */\n      tag_178\n      jump\t// in\n    tag_314:\n        /* \"#utility.yul\":12951:13053   */\n      swap2\n      pop\n        /* \"#utility.yul\":13070:13073   */\n      dup2\n        /* \"#utility.yul\":13063:13073   */\n      swap1\n      pop\n        /* \"#utility.yul\":12540:13079   */\n      swap3\n      swap2\n      pop\n      pop\n      jump\t// out\n        /* \"#utility.yul\":13085:13265   */\n    tag_114:\n        /* \"#utility.yul\":13133:13210   */\n      0x4e487b7100000000000000000000000000000000000000000000000000000000\n        /* \"#utility.yul\":13130:13131   */\n      0x00\n        /* \"#utility.yul\":13123:13211   */\n      mstore\n        /* \"#utility.yul\":13230:13234   */\n      0x41\n        /* \"#utility.yul\":13227:13228   */\n      0x04\n        /* \"#utility.yul\":13220:13235   */\n      mstore\n        /* \"#utility.yul\":13254:13258   */\n      0x24\n        /* \"#utility.yul\":13251:13252   */\n      0x00\n        /* \"#utility.yul\":13244:13259   */\n      revert\n        /* \"#utility.yul\":13271:13412   */\n    tag_179:\n        /* \"#utility.yul\":13320:13324   */\n      0x00\n        /* \"#utility.yul\":13343:13346   */\n      dup2\n        /* \"#utility.yul\":13335:13346   */\n      swap1\n      pop\n        /* \"#utility.yul\":13366:13369   */\n      dup2\n        /* \"#utility.yul\":13363:13364   */\n      0x00\n        /* \"#utility.yul\":13356:13370   */\n      mstore\n        /* \"#utility.yul\":13400:13404   */\n      0x20\n        /* \"#utility.yul\":13397:13398   */\n      0x00\n        /* \"#utility.yul\":13387:13405   */\n      keccak256\n        /* \"#utility.yul\":13379:13405   */\n      swap1\n      pop\n        /* \"#utility.yul\":13271:13412   */\n      swap2\n      swap1\n      pop\n      jump\t// out\n        /* \"#utility.yul\":13418:13511   */\n    tag_180:\n        /* \"#utility.yul\":13455:13461   */\n      0x00\n        /* \"#utility.yul\":13502:13504   */\n      0x20\n        /* \"#utility.yul\":13497:13499   */\n      0x1f\n        /* \"#utility.yul\":13490:13495   */\n      dup4\n        /* \"#utility.yul\":13486:13500   */\n      add\n        /* \"#utility.yul\":13482:13505   */\n      div\n        /* \"#utility.yul\":13472:13505   */\n      swap1\n      pop\n        /* \"#utility.yul\":13418:13511   */\n      swap2\n      swap1\n      pop\n      jump\t// out\n        /* \"#utility.yul\":13517:13624   */\n    tag_181:\n        /* \"#utility.yul\":13561:13569   */\n      0x00\n        /* \"#utility.yul\":13611:13616   */\n      dup3\n        /* \"#utility.yul\":13605:13609   */\n      dup3\n        /* \"#utility.yul\":13601:13617   */\n      shl\n        /* \"#utility.yul\":13580:13617   */\n      swap1\n      pop\n        /* \"#utility.yul\":13517:13624   */\n      swap3\n      swap2\n      pop\n      pop\n      jump\t// out\n        /* \"#utility.yul\":13630:14023   */\n    tag_182:\n        /* \"#utility.yul\":13699:13705   */\n      0x00\n        /* \"#utility.yul\":13749:13750   */\n      0x08\n        /* \"#utility.yul\":13737:13747   */\n      dup4\n        /* \"#utility.yul\":13733:13751   */\n      mul\n        /* \"#utility.yul\":13772:13869   */\n      tag_320\n        /* \"#utility.yul\":13802:13868   */\n      0xffffffffffffffffffffffffffffffffffffffffffffffffffffffffffffffff\n        /* \"#utility.yul\":13791:13800   */\n      dup3\n        /* \"#utility.yul\":13772:13869   */\n      tag_181\n      jump\t// in\n    tag_320:\n        /* \"#utility.yul\":13890:13929   */\n      tag_321\n        /* \"#utility.yul\":13920:13928   */\n      dup7\n        /* \"#utility.yul\":13909:13918   */\n      dup4\n        /* \"#utility.yul\":13890:13929   */\n      tag_181\n      jump\t// in\n    tag_321:\n        /* \"#utility.yul\":13878:13929   */\n      swap6\n      pop\n        /* \"#utility.yul\":13962:13966   */\n      dup1\n        /* \"#utility.yul\":13958:13967   */\n      not\n        /* \"#utility.yul\":13951:13956   */\n      dup5\n        /* \"#utility.yul\":13947:13968   */\n      and\n        /* \"#utility.yul\":13938:13968   */\n      swap4\n      pop\n        /* \"#utility.yul\":14011:14015   */\n      dup1\n        /* \"#utility.yul\":14001:14009   */\n      dup7\n        /* \"#utility.yul\":13997:14016   */\n      and\n        /* \"#utility.yul\":13990:13995   */\n      dup5\n        /* \"#utility.yul\":13987:14017   */\n      or\n        /* \"#utility.yul\":13977:14017   */\n      swap3\n      pop\n        /* \"#utility.yul\":13706:14023   */\n      pop\n      pop\n        /* \"#utility.yul\":13630:14023   */\n      swap4\n      swap3\n      pop\n      pop\n      pop\n      jump\t// out\n        /* \"#utility.yul\":14029:14089   */\n    tag_183:\n        /* \"#utility.yul\":14057:14060   */\n      0x00\n        /* \"#utility.yul\":14078:14083   */\n      dup2\n        /* \"#utility.yul\":14071:14083   */\n      swap1\n      pop\n        /* \"#utility.yul\":14029:14089   */\n      swap2\n      swap1\n      pop\n      jump\t// out\n        /* \"#utility.yul\":14095:14237   */\n    tag_184:\n        /* \"#utility.yul\":14145:14154   */\n      0x00\n        /* \"#utility.yul\":14178:14231   */\n      tag_324\n        /* \"#utility.yul\":14196:14230   */\n      tag_325\n        /* \"#utility.yul\":14205:14229   */\n      tag_326\n        /* \"#utility.yul\":14223:14228   */\n      dup5\n        /* \"#utility.yul\":14205:14229   */\n      tag_155\n      jump\t// in\n    tag_326:\n        /* \"#utility.yul\":14196:14230   */\n      tag_183\n      jump\t// in\n    tag_325:\n        /* \"#utility.yul\":14178:14231   */\n      tag_155\n      jump\t// in\n    tag_324:\n        /* \"#utility.yul\":14165:14231   */\n      swap1\n      pop\n        /* \"#utility.yul\":14095:14237   */\n      swap2\n      swap1\n      pop\n      jump\t// out\n        /* \"#utility.yul\":14243:14318   */\n    tag_185:\n        /* \"#utility.yul\":14286:14289   */\n      0x00\n        /* \"#utility.yul\":14307:14312   */\n      dup2\n        /* \"#utility.yul\":14300:14312   */\n      swap1\n      pop\n        /* \"#utility.yul\":14243:14318   */\n      swap2\n      swap1\n      pop\n      jump\t// out\n        /* \"#utility.yul\":14324:14593   */\n    tag_186:\n        /* \"#utility.yul\":14434:14473   */\n      tag_329\n        /* \"#utility.yul\":14465:14472   */\n      dup4\n        /* \"#utility.yul\":14434:14473   */\n      tag_184\n      jump\t// in\n    tag_329:\n        /* \"#utility.yul\":14495:14586   */\n      tag_330\n        /* \"#utility.yul\":14544:14585   */\n      tag_331\n        /* \"#utility.yul\":14568:14584   */\n      dup3\n        /* \"#utility.yul\":14544:14585   */\n      tag_185\n      jump\t// in\n    tag_331:\n        /* \"#utility.yul\":14536:14542   */\n      dup5\n        /* \"#utility.yul\":14529:14533   */\n      dup5\n        /* \"#utility.yul\":14523:14534   */\n      sload\n        /* \"#utility.yul\":14495:14586   */\n      tag_182\n      jump\t// in\n    tag_330:\n        /* \"#utility.yul\":14489:14493   */\n      dup3\n        /* \"#utility.yul\":14482:14587   */\n      sstore\n        /* \"#utility.yul\":14400:14593   */\n      pop\n        /* \"#utility.yul\":14324:14593   */\n      pop\n      pop\n      pop\n      jump\t// out\n        /* \"#utility.yul\":14599:14672   */\n    tag_187:\n        /* \"#utility.yul\":14644:14647   */\n      0x00\n        /* \"#utility.yul\":14599:14672   */\n      swap1\n      jump\t// out\n        /* \"#utility.yul\":14678:14867   */\n    tag_188:\n        /* \"#utility.yul\":14755:14787   */\n      tag_334\n      tag_187\n      jump\t// in\n    tag_334:\n        /* \"#utility.yul\":14796:14861   */\n      tag_335\n        /* \"#utility.yul\":14854:14860   */\n      dup2\n        /* \"#utility.yul\":14846:14852   */\n      dup5\n        /* \"#utility.yul\":14840:14844   */\n      dup5\n        /* \"#utility.yul\":14796:14861   */\n      tag_186\n      jump\t// in\n    tag_335:\n        /* \"#utility.yul\":14731:14867   */\n      pop\n        /* \"#utility.yul\":14678:14867   */\n      pop\n      pop\n      jump\t// out\n        /* \"#utility.yul\":14873:15059   */\n    tag_189:\n        /* \"#utility.yul\":14933:15053   */\n    tag_337:\n        /* \"#utility.yul\":14950:14953   */\n      dup2\n        /* \"#utility.yul\":14943:14948   */\n      dup2\n        /* \"#utility.yul\":14940:14954   */\n      lt\n        /* \"#utility.yul\":14933:15053   */\n      iszero\n      tag_339\n      jumpi\n        /* \"#utility.yul\":15004:15043   */\n      tag_340\n        /* \"#utility.yul\":15041:15042   */\n      0x00\n        /* \"#utility.yul\":15034:15039   */\n      dup3\n        /* \"#utility.yul\":15004:15043   */\n      tag_188\n      jump\t// in\n    tag_340:\n        /* \"#utility.yul\":14977:14978   */\n      0x01\n        /* \"#utility.yul\":14970:14975   */\n      dup2\n        /* \"#utility.yul\":14966:14979   */\n      add\n        /* \"#utility.yul\":14957:14979   */\n      swap1\n      pop\n        /* \"#utility.yul\":14933:15053   */\n      jump(tag_337)\n    tag_339:\n        /* \"#utility.yul\":14873:15059   */\n      pop\n      pop\n      jump\t// out\n        /* \"#utility.yul\":15065:15608   */\n    tag_190:\n        /* \"#utility.yul\":15166:15168   */\n      0x1f\n        /* \"#utility.yul\":15161:15164   */\n      dup3\n        /* \"#utility.yul\":15158:15169   */\n      gt\n        /* \"#utility.yul\":15155:15601   */\n      iszero\n      tag_342\n      jumpi\n        /* \"#utility.yul\":15200:15238   */\n      tag_343\n        /* \"#utility.yul\":15232:15237   */\n      dup2\n        /* \"#utility.yul\":15200:15238   */\n      tag_179\n      jump\t// in\n    tag_343:\n        /* \"#utility.yul\":15284:15313   */\n      tag_344\n        /* \"#utility.yul\":15302:15312   */\n      dup5\n        /* \"#utility.yul\":15284:15313   */\n      tag_180\n      jump\t// in\n    tag_344:\n        /* \"#utility.yul\":15274:15282   */\n      dup2\n        /* \"#utility.yul\":15270:15314   */\n      add\n        /* \"#utility.yul\":15467:15469   */\n      0x20\n        /* \"#utility.yul\":15455:15465   */\n      dup6\n        /* \"#utility.yul\":15452:15470   */\n      lt\n        /* \"#utility.yul\":15449:15498   */\n      iszero\n      tag_345\n      jumpi\n        /* \"#utility.yul\":15488:15496   */\n      dup2\n        /* \"#utility.yul\":15473:15496   */\n      swap1\n      pop\n        /* \"#utility.yul\":15449:15498   */\n    tag_345:\n        /* \"#utility.yul\":15511:15591   */\n      tag_346\n        /* \"#utility.yul\":15567:15589   */\n      tag_347\n        /* \"#utility.yul\":15585:15588   */\n      dup6\n        /* \"#utility.yul\":15567:15589   */\n      tag_180\n      jump\t// in\n    tag_347:\n        /* \"#utility.yul\":15557:15565   */\n      dup4\n        /* \"#utility.yul\":15553:15590   */\n      add\n        /* \"#utility.yul\":15540:15551   */\n      dup3\n        /* \"#utility.yul\":15511:15591   */\n      tag_189\n      jump\t// in\n    tag_346:\n        /* \"#utility.yul\":15170:15601   */\n      pop\n      pop\n        /* \"#utility.yul\":15155:15601   */\n    tag_342:\n        /* \"#utility.yul\":15065:15608   */\n      pop\n      pop\n      pop\n      jump\t// out\n        /* \"#utility.yul\":15614:15731   */\n    tag_191:\n        /* \"#utility.yul\":15668:15676   */\n      0x00\n        /* \"#utility.yul\":15718:15723   */\n      dup3\n        /* \"#utility.yul\":15712:15716   */\n      dup3\n        /* \"#utility.yul\":15708:15724   */\n      shr\n        /* \"#utility.yul\":15687:15724   */\n      swap1\n      pop\n        /* \"#utility.yul\":15614:15731   */\n      swap3\n      swap2\n      pop\n      pop\n      jump\t// out\n        /* \"#utility.yul\":15737:15906   */\n    tag_192:\n        /* \"#utility.yul\":15781:15787   */\n      0x00\n        /* \"#utility.yul\":15814:15865   */\n      tag_350\n        /* \"#utility.yul\":15862:15863   */\n      0x00\n        /* \"#utility.yul\":15858:15864   */\n      not\n        /* \"#utility.yul\":15850:15855   */\n      dup5\n        /* \"#utility.yul\":15847:15848   */\n      0x08\n        /* \"#utility.yul\":15843:15856   */\n      mul\n        /* \"#utility.yul\":15814:15865   */\n      tag_191\n      jump\t// in\n    tag_350:\n        /* \"#utility.yul\":15810:15866   */\n      not\n        /* \"#utility.yul\":15895:15899   */\n      dup1\n        /* \"#utility.yul\":15889:15893   */\n      dup4\n        /* \"#utility.yul\":15885:15900   */\n      and\n        /* \"#utility.yul\":15875:15900   */\n      swap2\n      pop\n        /* \"#utility.yul\":15788:15906   */\n      pop\n        /* \"#utility.yul\":15737:15906   */\n      swap3\n      swap2\n      pop\n      pop\n      jump\t// out\n        /* \"#utility.yul\":15911:16206   */\n    tag_193:\n        /* \"#utility.yul\":15987:15991   */\n      0x00\n        /* \"#utility.yul\":16133:16162   */\n      tag_352\n        /* \"#utility.yul\":16158:16161   */\n      dup4\n        /* \"#utility.yul\":16152:16156   */\n      dup4\n        /* \"#utility.yul\":16133:16162   */\n      tag_192\n      jump\t// in\n    tag_352:\n        /* \"#utility.yul\":16125:16162   */\n      swap2\n      pop\n        /* \"#utility.yul\":16195:16198   */\n      dup3\n        /* \"#utility.yul\":16192:16193   */\n      0x02\n        /* \"#utility.yul\":16188:16199   */\n      mul\n        /* \"#utility.yul\":16182:16186   */\n      dup3\n        /* \"#utility.yul\":16179:16200   */\n      or\n        /* \"#utility.yul\":16171:16200   */\n      swap1\n      pop\n        /* \"#utility.yul\":15911:16206   */\n      swap3\n      swap2\n      pop\n      pop\n      jump\t// out\n        /* \"#utility.yul\":16211:17606   */\n    tag_82:\n        /* \"#utility.yul\":16328:16365   */\n      tag_354\n        /* \"#utility.yul\":16361:16364   */\n      dup3\n        /* \"#utility.yul\":16328:16365   */\n      tag_150\n      jump\t// in\n    tag_354:\n        /* \"#utility.yul\":16430:16448   */\n      0xffffffffffffffff\n        /* \"#utility.yul\":16422:16428   */\n      dup2\n        /* \"#utility.yul\":16419:16449   */\n      gt\n        /* \"#utility.yul\":16416:16472   */\n      iszero\n      tag_355\n      jumpi\n        /* \"#utility.yul\":16452:16470   */\n      tag_356\n      tag_114\n      jump\t// in\n    tag_356:\n        /* \"#utility.yul\":16416:16472   */\n    tag_355:\n        /* \"#utility.yul\":16496:16534   */\n      tag_357\n        /* \"#utility.yul\":16528:16532   */\n      dup3\n        /* \"#utility.yul\":16522:16533   */\n      sload\n        /* \"#utility.yul\":16496:16534   */\n      tag_43\n      jump\t// in\n    tag_357:\n        /* \"#utility.yul\":16581:16648   */\n      tag_358\n        /* \"#utility.yul\":16641:16647   */\n      dup3\n        /* \"#utility.yul\":16633:16639   */\n      dup3\n        /* \"#utility.yul\":16627:16631   */\n      dup6\n        /* \"#utility.yul\":16581:16648   */\n      tag_190\n      jump\t// in\n    tag_358:\n        /* \"#utility.yul\":16675:16676   */\n      0x00\n        /* \"#utility.yul\":16699:16703   */\n      0x20\n        /* \"#utility.yul\":16686:16703   */\n      swap1\n      pop\n        /* \"#utility.yul\":16731:16733   */\n      0x1f\n        /* \"#utility.yul\":16723:16729   */\n      dup4\n        /* \"#utility.yul\":16720:16734   */\n      gt\n        /* \"#utility.yul\":16748:16749   */\n      0x01\n        /* \"#utility.yul\":16743:17361   */\n      dup2\n      eq\n      tag_360\n      jumpi\n        /* \"#utility.yul\":17405:17406   */\n      0x00\n        /* \"#utility.yul\":17422:17428   */\n      dup5\n        /* \"#utility.yul\":17419:17496   */\n      iszero\n      tag_361\n      jumpi\n        /* \"#utility.yul\":17471:17480   */\n      dup3\n        /* \"#utility.yul\":17466:17469   */\n      dup8\n        /* \"#utility.yul\":17462:17481   */\n      add\n        /* \"#utility.yul\":17456:17482   */\n      mload\n        /* \"#utility.yul\":17447:17482   */\n      swap1\n      pop\n        /* \"#utility.yul\":17419:17496   */\n    tag_361:\n        /* \"#utility.yul\":17522:17589   */\n      tag_362\n        /* \"#utility.yul\":17582:17588   */\n      dup6\n        /* \"#utility.yul\":17575:17580   */\n      dup3\n        /* \"#utility.yul\":17522:17589   */\n      tag_193\n      jump\t// in\n    tag_362:\n        /* \"#utility.yul\":17516:17520   */\n      dup7\n        /* \"#utility.yul\":17509:17590   */\n      sstore\n        /* \"#utility.yul\":17378:17600   */\n      pop\n        /* \"#utility.yul\":16713:17600   */\n      jump(tag_359)\n        /* \"#utility.yul\":16743:17361   */\n    tag_360:\n        /* \"#utility.yul\":16795:16799   */\n      0x1f\n        /* \"#utility.yul\":16791:16800   */\n      not\n        /* \"#utility.yul\":16783:16789   */\n      dup5\n        /* \"#utility.yul\":16779:16801   */\n      and\n        /* \"#utility.yul\":16829:16866   */\n      tag_363\n        /* \"#utility.yul\":16861:16865   */\n      dup7\n        /* \"#utility.yul\":16829:16866   */\n      tag_179\n      jump\t// in\n    tag_363:\n        /* \"#utility.yul\":16888:16889   */\n      0x00\n        /* \"#utility.yul\":16902:17110   */\n    tag_364:\n        /* \"#utility.yul\":16916:16923   */\n      dup3\n        /* \"#utility.yul\":16913:16914   */\n      dup2\n        /* \"#utility.yul\":16910:16924   */\n      lt\n        /* \"#utility.yul\":16902:17110   */\n      iszero\n      tag_366\n      jumpi\n        /* \"#utility.yul\":16995:17004   */\n      dup5\n        /* \"#utility.yul\":16990:16993   */\n      dup10\n        /* \"#utility.yul\":16986:17005   */\n      add\n        /* \"#utility.yul\":16980:17006   */\n      mload\n        /* \"#utility.yul\":16972:16978   */\n      dup3\n        /* \"#utility.yul\":16965:17007   */\n      sstore\n        /* \"#utility.yul\":17046:17047   */\n      0x01\n        /* \"#utility.yul\":17038:17044   */\n      dup3\n        /* \"#utility.yul\":17034:17048   */\n      add\n        /* \"#utility.yul\":17024:17048   */\n      swap2\n      pop\n        /* \"#utility.yul\":17093:17095   */\n      0x20\n        /* \"#utility.yul\":17082:17091   */\n      dup6\n        /* \"#utility.yul\":17078:17096   */\n      add\n        /* \"#utility.yul\":17065:17096   */\n      swap5\n      pop\n        /* \"#utility.yul\":16939:16943   */\n      0x20\n        /* \"#utility.yul\":16936:16937   */\n      dup2\n        /* \"#utility.yul\":16932:16944   */\n      add\n        /* \"#utility.yul\":16927:16944   */\n      swap1\n      pop\n        /* \"#utility.yul\":16902:17110   */\n      jump(tag_364)\n    tag_366:\n        /* \"#utility.yul\":17138:17144   */\n      dup7\n        /* \"#utility.yul\":17129:17136   */\n      dup4\n        /* \"#utility.yul\":17126:17145   */\n      lt\n        /* \"#utility.yul\":17123:17302   */\n      iszero\n      tag_367\n      jumpi\n        /* \"#utility.yul\":17196:17205   */\n      dup5\n        /* \"#utility.yul\":17191:17194   */\n      dup10\n        /* \"#utility.yul\":17187:17206   */\n      add\n        /* \"#utility.yul\":17181:17207   */\n      mload\n        /* \"#utility.yul\":17239:17287   */\n      tag_368\n        /* \"#utility.yul\":17281:17285   */\n      0x1f\n        /* \"#utility.yul\":17273:17279   */\n      dup10\n        /* \"#utility.yul\":17269:17286   */\n      and\n        /* \"#utility.yul\":17258:17267   */\n      dup3\n        /* \"#utility.yul\":17239:17287   */\n      tag_192\n      jump\t// in\n    tag_368:\n        /* \"#utility.yul\":17231:17237   */\n      dup4\n        /* \"#utility.yul\":17224:17288   */\n      sstore\n        /* \"#utility.yul\":17146:17302   */\n      pop\n        /* \"#utility.yul\":17123:17302   */\n    tag_367:\n        /* \"#utility.yul\":17348:17349   */\n      0x01\n        /* \"#utility.yul\":17344:17345   */\n      0x02\n        /* \"#utility.yul\":17336:17342   */\n      dup9\n        /* \"#utility.yul\":17332:17346   */\n      mul\n        /* \"#utility.yul\":17328:17350   */\n      add\n        /* \"#utility.yul\":17322:17326   */\n      dup9\n        /* \"#utility.yul\":17315:17351   */\n      sstore\n        /* \"#utility.yul\":16750:17361   */\n      pop\n      pop\n      pop\n        /* \"#utility.yul\":16713:17600   */\n    tag_359:\n      pop\n        /* \"#utility.yul\":16303:17606   */\n      pop\n      pop\n      pop\n        /* \"#utility.yul\":16211:17606   */\n      pop\n      pop\n      jump\t// out\n        /* \"#utility.yul\":17612:17792   */\n    tag_194:\n        /* \"#utility.yul\":17660:17737   */\n      0x4e487b7100000000000000000000000000000000000000000000000000000000\n        /* \"#utility.yul\":17657:17658   */\n      0x00\n        /* \"#utility.yul\":17650:17738   */\n      mstore\n        /* \"#utility.yul\":17757:17761   */\n      0x11\n        /* \"#utility.yul\":17754:17755   */\n      0x04\n        /* \"#utility.yul\":17747:17762   */\n      mstore\n        /* \"#utility.yul\":17781:17785   */\n      0x24\n        /* \"#utility.yul\":17778:17779   */\n      0x00\n        /* \"#utility.yul\":17771:17786   */\n      revert\n        /* \"#utility.yul\":17798:17989   */\n    tag_85:\n        /* \"#utility.yul\":17838:17841   */\n      0x00\n        /* \"#utility.yul\":17857:17877   */\n      tag_371\n        /* \"#utility.yul\":17875:17876   */\n      dup3\n        /* \"#utility.yul\":17857:17877   */\n      tag_155\n      jump\t// in\n    tag_371:\n        /* \"#utility.yul\":17852:17877   */\n      swap2\n      pop\n        /* \"#utility.yul\":17891:17911   */\n      tag_372\n        /* \"#utility.yul\":17909:17910   */\n      dup4\n        /* \"#utility.yul\":17891:17911   */\n      tag_155\n      jump\t// in\n    tag_372:\n        /* \"#utility.yul\":17886:17911   */\n      swap3\n      pop\n        /* \"#utility.yul\":17934:17935   */\n      dup3\n        /* \"#utility.yul\":17931:17932   */\n      dup3\n        /* \"#utility.yul\":17927:17936   */\n      add\n        /* \"#utility.yul\":17920:17936   */\n      swap1\n      pop\n        /* \"#utility.yul\":17955:17958   */\n      dup1\n        /* \"#utility.yul\":17952:17953   */\n      dup3\n        /* \"#utility.yul\":17949:17959   */\n      gt\n        /* \"#utility.yul\":17946:17982   */\n      iszero\n      tag_373\n      jumpi\n        /* \"#utility.yul\":17962:17980   */\n      tag_374\n      tag_194\n      jump\t// in\n    tag_374:\n        /* \"#utility.yul\":17946:17982   */\n    tag_373:\n        /* \"#utility.yul\":17798:17989   */\n      swap3\n      swap2\n      pop\n      pop\n      jump\t// out\n        /* \"#utility.yul\":17995:18175   */\n    tag_120:\n        /* \"#utility.yul\":18043:18120   */\n      0x4e487b7100000000000000000000000000000000000000000000000000000000\n        /* \"#utility.yul\":18040:18041   */\n      0x00\n        /* \"#utility.yul\":18033:18121   */\n      mstore\n        /* \"#utility.yul\":18140:18144   */\n      0x12\n        /* \"#utility.yul\":18137:18138   */\n      0x04\n        /* \"#utility.yul\":18130:18145   */\n      mstore\n        /* \"#utility.yul\":18164:18168   */\n      0x24\n        /* \"#utility.yul\":18161:18162   */\n      0x00\n        /* \"#utility.yul\":18154:18169   */\n      revert\n\n    auxdata: 0xa2646970667358221220b7fda0b9e071f91ffcb41dfab53fb47e150593c486771417c0144b24ca0889b264736f6c63430008120033\n}\n",
				"bytecode": {
					"linkReferences": {},
					"object": "608060405234801561001057600080fd5b5033600160006101000a81548173ffffffffffffffffffffffffffffffffffffffff021916908373ffffffffffffffffffffffffffffffffffffffff1602179055506001600281905550611810806100696000396000f3fe608060405234801561001057600080fd5b506004361061007d5760003560e01c8063c0264d3a1161005b578063c0264d3a14610108578063ce606ee014610138578063cfa3420814610156578063fbbf93a0146101745761007d565b80637151ace214610082578063a3ec138d146100a0578063a48af096146100d4575b600080fd5b61008a610192565b6040516100979190610eae565b60405180910390f35b6100ba60048036038101906100b59190610eff565b6101b6565b6040516100cb959493929190610ff0565b60405180910390f35b6100ee60048036038101906100e99190610eff565b610329565b6040516100ff959493929190611051565b60405180910390f35b610122600480360381019061011d919061114a565b610524565b60405161012f919061129e565b60405180910390f35b610140610992565b60405161014d9190610eae565b60405180910390f35b61015e6109b8565b60405161016b91906112c0565b60405180910390f35b61017c610a0f565b604051610189919061129e565b60405180910390f35b60008054906101000a900473ffffffffffffffffffffffffffffffffffffffff1681565b60036020528060005260406000206000915090508060000180546101d99061130a565b80601f01602080910402602001604051908101604052809291908181526020018280546102059061130a565b80156102525780601f1061022757610100808354040283529160200191610252565b820191906000526020600020905b81548152906001019060200180831161023557829003601f168201915b50505050509080600101549080600201805461026d9061130a565b80601f01602080910402602001604051908101604052809291908181526020018280546102999061130a565b80156102e65780601f106102bb576101008083540402835291602001916102e6565b820191906000526020600020905b8154815290600101906020018083116102c957829003601f168201915b5050505050908060030160009054906101000a900460ff16908060030160019054906101000a900473ffffffffffffffffffffffffffffffffffffffff16905085565b600460205280600052604060002060009150905080600001805461034c9061130a565b80601f01602080910402602001604051908101604052809291908181526020018280546103789061130a565b80156103c55780601f1061039a576101008083540402835291602001916103c5565b820191906000526020600020905b8154815290600101906020018083116103a857829003601f168201915b5050505050908060010180546103da9061130a565b80601f01602080910402602001604051908101604052809291908181526020018280546104069061130a565b80156104535780601f1061042857610100808354040283529160200191610453565b820191906000526020600020905b81548152906001019060200180831161043657829003601f168201915b5050505050908060020180546104689061130a565b80601f01602080910402602001604051908101604052809291908181526020018280546104949061130a565b80156104e15780601f106104b6576101008083540402835291602001916104e1565b820191906000526020600020905b8154815290600101906020018083116104c457829003601f168201915b5050505050908060030160009054906101000a900460ff16908060030160019054906101000a900473ffffffffffffffffffffffffffffffffffffffff16905085565b61052c610e26565b6011821161056f576040517f08c379a000000000000000000000000000000000000000000000000000000000815260040161056690611387565b60405180910390fd5b6000600360003373ffffffffffffffffffffffffffffffffffffffff1673ffffffffffffffffffffffffffffffffffffffff16815260200190815260200160002060010154146105f4576040517f08c379a00000000000000000000000000000000000000000000000000000000081526004016105eb906113f3565b60405180910390fd5b6000610601600254610c05565b6040516020016106119190611475565b60405160208183030381529060405290506040518060a0016040528086868080601f016020809104026020016040519081016040528093929190818152602001838380828437600081840152601f19601f8201169050808301925050505050505081526020018481526020018281526020016000151581526020013373ffffffffffffffffffffffffffffffffffffffff16815250600360003373ffffffffffffffffffffffffffffffffffffffff1673ffffffffffffffffffffffffffffffffffffffff16815260200190815260200160002060008201518160000190816106fa9190611676565b5060208201518160010155604082015181600201908161071a9190611676565b5060608201518160030160006101000a81548160ff02191690831515021790555060808201518160030160016101000a81548173ffffffffffffffffffffffffffffffffffffffff021916908373ffffffffffffffffffffffffffffffffffffffff1602179055509050506001600260008282546107989190611777565b92505081905550600360003373ffffffffffffffffffffffffffffffffffffffff1673ffffffffffffffffffffffffffffffffffffffff1681526020019081526020016000206040518060a00160405290816000820180546107f99061130a565b80601f01602080910402602001604051908101604052809291908181526020018280546108259061130a565b80156108725780601f1061084757610100808354040283529160200191610872565b820191906000526020600020905b81548152906001019060200180831161085557829003601f168201915b50505050508152602001600182015481526020016002820180546108959061130a565b80601f01602080910402602001604051908101604052809291908181526020018280546108c19061130a565b801561090e5780601f106108e35761010080835404028352916020019161090e565b820191906000526020600020905b8154815290600101906020018083116108f157829003601f168201915b505050505081526020016003820160009054906101000a900460ff161515151581526020016003820160019054906101000a900473ffffffffffffffffffffffffffffffffffffffff1673ffffffffffffffffffffffffffffffffffffffff1673ffffffffffffffffffffffffffffffffffffffff16815250509150509392505050565b600160009054906101000a900473ffffffffffffffffffffffffffffffffffffffff1681565b6000600360003373ffffffffffffffffffffffffffffffffffffffff1673ffffffffffffffffffffffffffffffffffffffff16815260200190815260200160002060030160009054906101000a900460ff16905090565b610a17610e26565b600360003373ffffffffffffffffffffffffffffffffffffffff1673ffffffffffffffffffffffffffffffffffffffff1681526020019081526020016000206040518060a0016040529081600082018054610a719061130a565b80601f0160208091040260200160405190810160405280929190818152602001828054610a9d9061130a565b8015610aea5780601f10610abf57610100808354040283529160200191610aea565b820191906000526020600020905b815481529060010190602001808311610acd57829003601f168201915b5050505050815260200160018201548152602001600282018054610b0d9061130a565b80601f0160208091040260200160405190810160405280929190818152602001828054610b399061130a565b8015610b865780601f10610b5b57610100808354040283529160200191610b86565b820191906000526020600020905b815481529060010190602001808311610b6957829003601f168201915b505050505081526020016003820160009054906101000a900460ff161515151581526020016003820160019054906101000a900473ffffffffffffffffffffffffffffffffffffffff1673ffffffffffffffffffffffffffffffffffffffff1673ffffffffffffffffffffffffffffffffffffffff1681525050905090565b606060006001610c1484610cd3565b01905060008167ffffffffffffffff811115610c3357610c3261149b565b5b6040519080825280601f01601f191660200182016040528015610c655781602001600182028036833780820191505090505b509050600082602001820190505b600115610cc8578080600190039150507f3031323334353637383961626364656600000000000000000000000000000000600a86061a8153600a8581610cbc57610cbb6117ab565b5b04945060008503610c73575b819350505050919050565b600080600090507a184f03e93ff9f4daa797ed6e38ed64bf6a1f0100000000000000008310610d31577a184f03e93ff9f4daa797ed6e38ed64bf6a1f0100000000000000008381610d2757610d266117ab565b5b0492506040810190505b6d04ee2d6d415b85acef81000000008310610d6e576d04ee2d6d415b85acef81000000008381610d6457610d636117ab565b5b0492506020810190505b662386f26fc100008310610d9d57662386f26fc100008381610d9357610d926117ab565b5b0492506010810190505b6305f5e1008310610dc6576305f5e1008381610dbc57610dbb6117ab565b5b0492506008810190505b6127108310610deb576127108381610de157610de06117ab565b5b0492506004810190505b60648310610e0e5760648381610e0457610e036117ab565b5b0492506002810190505b600a8310610e1d576001810190505b80915050919050565b6040518060a00160405280606081526020016000815260200160608152602001600015158152602001600073ffffffffffffffffffffffffffffffffffffffff1681525090565b600073ffffffffffffffffffffffffffffffffffffffff82169050919050565b6000610e9882610e6d565b9050919050565b610ea881610e8d565b82525050565b6000602082019050610ec36000830184610e9f565b92915050565b600080fd5b600080fd5b610edc81610e8d565b8114610ee757600080fd5b50565b600081359050610ef981610ed3565b92915050565b600060208284031215610f1557610f14610ec9565b5b6000610f2384828501610eea565b91505092915050565b600081519050919050565b600082825260208201905092915050565b60005b83811015610f66578082015181840152602081019050610f4b565b60008484015250505050565b6000601f19601f8301169050919050565b6000610f8e82610f2c565b610f988185610f37565b9350610fa8818560208601610f48565b610fb181610f72565b840191505092915050565b6000819050919050565b610fcf81610fbc565b82525050565b60008115159050919050565b610fea81610fd5565b82525050565b600060a082019050818103600083015261100a8188610f83565b90506110196020830187610fc6565b818103604083015261102b8186610f83565b905061103a6060830185610fe1565b6110476080830184610e9f565b9695505050505050565b600060a082019050818103600083015261106b8188610f83565b9050818103602083015261107f8187610f83565b905081810360408301526110938186610f83565b90506110a26060830185610fe1565b6110af6080830184610e9f565b9695505050505050565b600080fd5b600080fd5b600080fd5b60008083601f8401126110de576110dd6110b9565b5b8235905067ffffffffffffffff8111156110fb576110fa6110be565b5b602083019150836001820283011115611117576111166110c3565b5b9250929050565b61112781610fbc565b811461113257600080fd5b50565b6000813590506111448161111e565b92915050565b60008060006040848603121561116357611162610ec9565b5b600084013567ffffffffffffffff81111561118157611180610ece565b5b61118d868287016110c8565b935093505060206111a086828701611135565b9150509250925092565b600082825260208201905092915050565b60006111c682610f2c565b6111d081856111aa565b93506111e0818560208601610f48565b6111e981610f72565b840191505092915050565b6111fd81610fbc565b82525050565b61120c81610fd5565b82525050565b61121b81610e8d565b82525050565b600060a083016000830151848203600086015261123e82826111bb565b915050602083015161125360208601826111f4565b506040830151848203604086015261126b82826111bb565b91505060608301516112806060860182611203565b5060808301516112936080860182611212565b508091505092915050565b600060208201905081810360008301526112b88184611221565b905092915050565b60006020820190506112d56000830184610fe1565b92915050565b7f4e487b7100000000000000000000000000000000000000000000000000000000600052602260045260246000fd5b6000600282049050600182168061132257607f821691505b602082108103611335576113346112db565b5b50919050565b7f6e6f7420656c696769626c6520746f20766f7465000000000000000000000000600082015250565b6000611371601483610f37565b915061137c8261133b565b602082019050919050565b600060208201905081810360008301526113a081611364565b9050919050565b7f54686973206164647265737320686173206265656e2072656769737465726564600082015250565b60006113dd602083610f37565b91506113e8826113a7565b602082019050919050565b6000602082019050818103600083015261140c816113d0565b9050919050565b7f4e49470000000000000000000000000000000000000000000000000000000000815250565b600081905092915050565b600061144f82610f2c565b6114598185611439565b9350611469818560208601610f48565b80840191505092915050565b600061148082611413565b6003820191506114908284611444565b915081905092915050565b7f4e487b7100000000000000000000000000000000000000000000000000000000600052604160045260246000fd5b60008190508160005260206000209050919050565b60006020601f8301049050919050565b600082821b905092915050565b60006008830261152c7fffffffffffffffffffffffffffffffffffffffffffffffffffffffffffffffff826114ef565b61153686836114ef565b95508019841693508086168417925050509392505050565b6000819050919050565b600061157361156e61156984610fbc565b61154e565b610fbc565b9050919050565b6000819050919050565b61158d83611558565b6115a16115998261157a565b8484546114fc565b825550505050565b600090565b6115b66115a9565b6115c1818484611584565b505050565b5b818110156115e5576115da6000826115ae565b6001810190506115c7565b5050565b601f82111561162a576115fb816114ca565b611604846114df565b81016020851015611613578190505b61162761161f856114df565b8301826115c6565b50505b505050565b600082821c905092915050565b600061164d6000198460080261162f565b1980831691505092915050565b6000611666838361163c565b9150826002028217905092915050565b61167f82610f2c565b67ffffffffffffffff8111156116985761169761149b565b5b6116a2825461130a565b6116ad8282856115e9565b600060209050601f8311600181146116e057600084156116ce578287015190505b6116d8858261165a565b865550611740565b601f1984166116ee866114ca565b60005b82811015611716578489015182556001820191506020850194506020810190506116f1565b86831015611733578489015161172f601f89168261163c565b8355505b6001600288020188555050505b505050505050565b7f4e487b7100000000000000000000000000000000000000000000000000000000600052601160045260246000fd5b600061178282610fbc565b915061178d83610fbc565b92508282019050808211156117a5576117a4611748565b5b92915050565b7f4e487b7100000000000000000000000000000000000000000000000000000000600052601260045260246000fdfea2646970667358221220b7fda0b9e071f91ffcb41dfab53fb47e150593c486771417c0144b24ca0889b264736f6c63430008120033",
					"opcodes": "PUSH1 0x80 PUSH1 0x40 MSTORE CALLVALUE DUP1 ISZERO PUSH2 0x10 JUMPI PUSH1 0x0 DUP1 REVERT JUMPDEST POP CALLER PUSH1 0x1 PUSH1 0x0 PUSH2 0x100 EXP DUP2 SLOAD DUP2 PUSH20 0xFFFFFFFFFFFFFFFFFFFFFFFFFFFFFFFFFFFFFFFF MUL NOT AND SWAP1 DUP4 PUSH20 0xFFFFFFFFFFFFFFFFFFFFFFFFFFFFFFFFFFFFFFFF AND MUL OR SWAP1 SSTORE POP PUSH1 0x1 PUSH1 0x2 DUP2 SWAP1 SSTORE POP PUSH2 0x1810 DUP1 PUSH2 0x69 PUSH1 0x0 CODECOPY PUSH1 0x0 RETURN INVALID PUSH1 0x80 PUSH1 0x40 MSTORE CALLVALUE DUP1 ISZERO PUSH2 0x10 JUMPI PUSH1 0x0 DUP1 REVERT JUMPDEST POP PUSH1 0x4 CALLDATASIZE LT PUSH2 0x7D JUMPI PUSH1 0x0 CALLDATALOAD PUSH1 0xE0 SHR DUP1 PUSH4 0xC0264D3A GT PUSH2 0x5B JUMPI DUP1 PUSH4 0xC0264D3A EQ PUSH2 0x108 JUMPI DUP1 PUSH4 0xCE606EE0 EQ PUSH2 0x138 JUMPI DUP1 PUSH4 0xCFA34208 EQ PUSH2 0x156 JUMPI DUP1 PUSH4 0xFBBF93A0 EQ PUSH2 0x174 JUMPI PUSH2 0x7D JUMP JUMPDEST DUP1 PUSH4 0x7151ACE2 EQ PUSH2 0x82 JUMPI DUP1 PUSH4 0xA3EC138D EQ PUSH2 0xA0 JUMPI DUP1 PUSH4 0xA48AF096 EQ PUSH2 0xD4 JUMPI JUMPDEST PUSH1 0x0 DUP1 REVERT JUMPDEST PUSH2 0x8A PUSH2 0x192 JUMP JUMPDEST PUSH1 0x40 MLOAD PUSH2 0x97 SWAP2 SWAP1 PUSH2 0xEAE JUMP JUMPDEST PUSH1 0x40 MLOAD DUP1 SWAP2 SUB SWAP1 RETURN JUMPDEST PUSH2 0xBA PUSH1 0x4 DUP1 CALLDATASIZE SUB DUP2 ADD SWAP1 PUSH2 0xB5 SWAP2 SWAP1 PUSH2 0xEFF JUMP JUMPDEST PUSH2 0x1B6 JUMP JUMPDEST PUSH1 0x40 MLOAD PUSH2 0xCB SWAP6 SWAP5 SWAP4 SWAP3 SWAP2 SWAP1 PUSH2 0xFF0 JUMP JUMPDEST PUSH1 0x40 MLOAD DUP1 SWAP2 SUB SWAP1 RETURN JUMPDEST PUSH2 0xEE PUSH1 0x4 DUP1 CALLDATASIZE SUB DUP2 ADD SWAP1 PUSH2 0xE9 SWAP2 SWAP1 PUSH2 0xEFF JUMP JUMPDEST PUSH2 0x329 JUMP JUMPDEST PUSH1 0x40 MLOAD PUSH2 0xFF SWAP6 SWAP5 SWAP4 SWAP3 SWAP2 SWAP1 PUSH2 0x1051 JUMP JUMPDEST PUSH1 0x40 MLOAD DUP1 SWAP2 SUB SWAP1 RETURN JUMPDEST PUSH2 0x122 PUSH1 0x4 DUP1 CALLDATASIZE SUB DUP2 ADD SWAP1 PUSH2 0x11D SWAP2 SWAP1 PUSH2 0x114A JUMP JUMPDEST PUSH2 0x524 JUMP JUMPDEST PUSH1 0x40 MLOAD PUSH2 0x12F SWAP2 SWAP1 PUSH2 0x129E JUMP JUMPDEST PUSH1 0x40 MLOAD DUP1 SWAP2 SUB SWAP1 RETURN JUMPDEST PUSH2 0x140 PUSH2 0x992 JUMP JUMPDEST PUSH1 0x40 MLOAD PUSH2 0x14D SWAP2 SWAP1 PUSH2 0xEAE JUMP JUMPDEST PUSH1 0x40 MLOAD DUP1 SWAP2 SUB SWAP1 RETURN JUMPDEST PUSH2 0x15E PUSH2 0x9B8 JUMP JUMPDEST PUSH1 0x40 MLOAD PUSH2 0x16B SWAP2 SWAP1 PUSH2 0x12C0 JUMP JUMPDEST PUSH1 0x40 MLOAD DUP1 SWAP2 SUB SWAP1 RETURN JUMPDEST PUSH2 0x17C PUSH2 0xA0F JUMP JUMPDEST PUSH1 0x40 MLOAD PUSH2 0x189 SWAP2 SWAP1 PUSH2 0x129E JUMP JUMPDEST PUSH1 0x40 MLOAD DUP1 SWAP2 SUB SWAP1 RETURN JUMPDEST PUSH1 0x0 DUP1 SLOAD SWAP1 PUSH2 0x100 EXP SWAP1 DIV PUSH20 0xFFFFFFFFFFFFFFFFFFFFFFFFFFFFFFFFFFFFFFFF AND DUP2 JUMP JUMPDEST PUSH1 0x3 PUSH1 0x20 MSTORE DUP1 PUSH1 0x0 MSTORE PUSH1 0x40 PUSH1 0x0 KECCAK256 PUSH1 0x0 SWAP2 POP SWAP1 POP DUP1 PUSH1 0x0 ADD DUP1 SLOAD PUSH2 0x1D9 SWAP1 PUSH2 0x130A JUMP JUMPDEST DUP1 PUSH1 0x1F ADD PUSH1 0x20 DUP1 SWAP2 DIV MUL PUSH1 0x20 ADD PUSH1 0x40 MLOAD SWAP1 DUP2 ADD PUSH1 0x40 MSTORE DUP1 SWAP3 SWAP2 SWAP1 DUP2 DUP2 MSTORE PUSH1 0x20 ADD DUP3 DUP1 SLOAD PUSH2 0x205 SWAP1 PUSH2 0x130A JUMP JUMPDEST DUP1 ISZERO PUSH2 0x252 JUMPI DUP1 PUSH1 0x1F LT PUSH2 0x227 JUMPI PUSH2 0x100 DUP1 DUP4 SLOAD DIV MUL DUP4 MSTORE SWAP2 PUSH1 0x20 ADD SWAP2 PUSH2 0x252 JUMP JUMPDEST DUP3 ADD SWAP2 SWAP1 PUSH1 0x0 MSTORE PUSH1 0x20 PUSH1 0x0 KECCAK256 SWAP1 JUMPDEST DUP2 SLOAD DUP2 MSTORE SWAP1 PUSH1 0x1 ADD SWAP1 PUSH1 0x20 ADD DUP1 DUP4 GT PUSH2 0x235 JUMPI DUP3 SWAP1 SUB PUSH1 0x1F AND DUP3 ADD SWAP2 JUMPDEST POP POP POP POP POP SWAP1 DUP1 PUSH1 0x1 ADD SLOAD SWAP1 DUP1 PUSH1 0x2 ADD DUP1 SLOAD PUSH2 0x26D SWAP1 PUSH2 0x130A JUMP JUMPDEST DUP1 PUSH1 0x1F ADD PUSH1 0x20 DUP1 SWAP2 DIV MUL PUSH1 0x20 ADD PUSH1 0x40 MLOAD SWAP1 DUP2 ADD PUSH1 0x40 MSTORE DUP1 SWAP3 SWAP2 SWAP1 DUP2 DUP2 MSTORE PUSH1 0x20 ADD DUP3 DUP1 SLOAD PUSH2 0x299 SWAP1 PUSH2 0x130A JUMP JUMPDEST DUP1 ISZERO PUSH2 0x2E6 JUMPI DUP1 PUSH1 0x1F LT PUSH2 0x2BB JUMPI PUSH2 0x100 DUP1 DUP4 SLOAD DIV MUL DUP4 MSTORE SWAP2 PUSH1 0x20 ADD SWAP2 PUSH2 0x2E6 JUMP JUMPDEST DUP3 ADD SWAP2 SWAP1 PUSH1 0x0 MSTORE PUSH1 0x20 PUSH1 0x0 KECCAK256 SWAP1 JUMPDEST DUP2 SLOAD DUP2 MSTORE SWAP1 PUSH1 0x1 ADD SWAP1 PUSH1 0x20 ADD DUP1 DUP4 GT PUSH2 0x2C9 JUMPI DUP3 SWAP1 SUB PUSH1 0x1F AND DUP3 ADD SWAP2 JUMPDEST POP POP POP POP POP SWAP1 DUP1 PUSH1 0x3 ADD PUSH1 0x0 SWAP1 SLOAD SWAP1 PUSH2 0x100 EXP SWAP1 DIV PUSH1 0xFF AND SWAP1 DUP1 PUSH1 0x3 ADD PUSH1 0x1 SWAP1 SLOAD SWAP1 PUSH2 0x100 EXP SWAP1 DIV PUSH20 0xFFFFFFFFFFFFFFFFFFFFFFFFFFFFFFFFFFFFFFFF AND SWAP1 POP DUP6 JUMP JUMPDEST PUSH1 0x4 PUSH1 0x20 MSTORE DUP1 PUSH1 0x0 MSTORE PUSH1 0x40 PUSH1 0x0 KECCAK256 PUSH1 0x0 SWAP2 POP SWAP1 POP DUP1 PUSH1 0x0 ADD DUP1 SLOAD PUSH2 0x34C SWAP1 PUSH2 0x130A JUMP JUMPDEST DUP1 PUSH1 0x1F ADD PUSH1 0x20 DUP1 SWAP2 DIV MUL PUSH1 0x20 ADD PUSH1 0x40 MLOAD SWAP1 DUP2 ADD PUSH1 0x40 MSTORE DUP1 SWAP3 SWAP2 SWAP1 DUP2 DUP2 MSTORE PUSH1 0x20 ADD DUP3 DUP1 SLOAD PUSH2 0x378 SWAP1 PUSH2 0x130A JUMP JUMPDEST DUP1 ISZERO PUSH2 0x3C5 JUMPI DUP1 PUSH1 0x1F LT PUSH2 0x39A JUMPI PUSH2 0x100 DUP1 DUP4 SLOAD DIV MUL DUP4 MSTORE SWAP2 PUSH1 0x20 ADD SWAP2 PUSH2 0x3C5 JUMP JUMPDEST DUP3 ADD SWAP2 SWAP1 PUSH1 0x0 MSTORE PUSH1 0x20 PUSH1 0x0 KECCAK256 SWAP1 JUMPDEST DUP2 SLOAD DUP2 MSTORE SWAP1 PUSH1 0x1 ADD SWAP1 PUSH1 0x20 ADD DUP1 DUP4 GT PUSH2 0x3A8 JUMPI DUP3 SWAP1 SUB PUSH1 0x1F AND DUP3 ADD SWAP2 JUMPDEST POP POP POP POP POP SWAP1 DUP1 PUSH1 0x1 ADD DUP1 SLOAD PUSH2 0x3DA SWAP1 PUSH2 0x130A JUMP JUMPDEST DUP1 PUSH1 0x1F ADD PUSH1 0x20 DUP1 SWAP2 DIV MUL PUSH1 0x20 ADD PUSH1 0x40 MLOAD SWAP1 DUP2 ADD PUSH1 0x40 MSTORE DUP1 SWAP3 SWAP2 SWAP1 DUP2 DUP2 MSTORE PUSH1 0x20 ADD DUP3 DUP1 SLOAD PUSH2 0x406 SWAP1 PUSH2 0x130A JUMP JUMPDEST DUP1 ISZERO PUSH2 0x453 JUMPI DUP1 PUSH1 0x1F LT PUSH2 0x428 JUMPI PUSH2 0x100 DUP1 DUP4 SLOAD DIV MUL DUP4 MSTORE SWAP2 PUSH1 0x20 ADD SWAP2 PUSH2 0x453 JUMP JUMPDEST DUP3 ADD SWAP2 SWAP1 PUSH1 0x0 MSTORE PUSH1 0x20 PUSH1 0x0 KECCAK256 SWAP1 JUMPDEST DUP2 SLOAD DUP2 MSTORE SWAP1 PUSH1 0x1 ADD SWAP1 PUSH1 0x20 ADD DUP1 DUP4 GT PUSH2 0x436 JUMPI DUP3 SWAP1 SUB PUSH1 0x1F AND DUP3 ADD SWAP2 JUMPDEST POP POP POP POP POP SWAP1 DUP1 PUSH1 0x2 ADD DUP1 SLOAD PUSH2 0x468 SWAP1 PUSH2 0x130A JUMP JUMPDEST DUP1 PUSH1 0x1F ADD PUSH1 0x20 DUP1 SWAP2 DIV MUL PUSH1 0x20 ADD PUSH1 0x40 MLOAD SWAP1 DUP2 ADD PUSH1 0x40 MSTORE DUP1 SWAP3 SWAP2 SWAP1 DUP2 DUP2 MSTORE PUSH1 0x20 ADD DUP3 DUP1 SLOAD PUSH2 0x494 SWAP1 PUSH2 0x130A JUMP JUMPDEST DUP1 ISZERO PUSH2 0x4E1 JUMPI DUP1 PUSH1 0x1F LT PUSH2 0x4B6 JUMPI PUSH2 0x100 DUP1 DUP4 SLOAD DIV MUL DUP4 MSTORE SWAP2 PUSH1 0x20 ADD SWAP2 PUSH2 0x4E1 JUMP JUMPDEST DUP3 ADD SWAP2 SWAP1 PUSH1 0x0 MSTORE PUSH1 0x20 PUSH1 0x0 KECCAK256 SWAP1 JUMPDEST DUP2 SLOAD DUP2 MSTORE SWAP1 PUSH1 0x1 ADD SWAP1 PUSH1 0x20 ADD DUP1 DUP4 GT PUSH2 0x4C4 JUMPI DUP3 SWAP1 SUB PUSH1 0x1F AND DUP3 ADD SWAP2 JUMPDEST POP POP POP POP POP SWAP1 DUP1 PUSH1 0x3 ADD PUSH1 0x0 SWAP1 SLOAD SWAP1 PUSH2 0x100 EXP SWAP1 DIV PUSH1 0xFF AND SWAP1 DUP1 PUSH1 0x3 ADD PUSH1 0x1 SWAP1 SLOAD SWAP1 PUSH2 0x100 EXP SWAP1 DIV PUSH20 0xFFFFFFFFFFFFFFFFFFFFFFFFFFFFFFFFFFFFFFFF AND SWAP1 POP DUP6 JUMP JUMPDEST PUSH2 0x52C PUSH2 0xE26 JUMP JUMPDEST PUSH1 0x11 DUP3 GT PUSH2 0x56F JUMPI PUSH1 0x40 MLOAD PUSH32 0x8C379A000000000000000000000000000000000000000000000000000000000 DUP2 MSTORE PUSH1 0x4 ADD PUSH2 0x566 SWAP1 PUSH2 0x1387 JUMP JUMPDEST PUSH1 0x40 MLOAD DUP1 SWAP2 SUB SWAP1 REVERT JUMPDEST PUSH1 0x0 PUSH1 0x3 PUSH1 0x0 CALLER PUSH20 0xFFFFFFFFFFFFFFFFFFFFFFFFFFFFFFFFFFFFFFFF AND PUSH20 0xFFFFFFFFFFFFFFFFFFFFFFFFFFFFFFFFFFFFFFFF AND DUP2 MSTORE PUSH1 0x20 ADD SWAP1 DUP2 MSTORE PUSH1 0x20 ADD PUSH1 0x0 KECCAK256 PUSH1 0x1 ADD SLOAD EQ PUSH2 0x5F4 JUMPI PUSH1 0x40 MLOAD PUSH32 0x8C379A000000000000000000000000000000000000000000000000000000000 DUP2 MSTORE PUSH1 0x4 ADD PUSH2 0x5EB SWAP1 PUSH2 0x13F3 JUMP JUMPDEST PUSH1 0x40 MLOAD DUP1 SWAP2 SUB SWAP1 REVERT JUMPDEST PUSH1 0x0 PUSH2 0x601 PUSH1 0x2 SLOAD PUSH2 0xC05 JUMP JUMPDEST PUSH1 0x40 MLOAD PUSH1 0x20 ADD PUSH2 0x611 SWAP2 SWAP1 PUSH2 0x1475 JUMP JUMPDEST PUSH1 0x40 MLOAD PUSH1 0x20 DUP2 DUP4 SUB SUB DUP2 MSTORE SWAP1 PUSH1 0x40 MSTORE SWAP1 POP PUSH1 0x40 MLOAD DUP1 PUSH1 0xA0 ADD PUSH1 0x40 MSTORE DUP1 DUP7 DUP7 DUP1 DUP1 PUSH1 0x1F ADD PUSH1 0x20 DUP1 SWAP2 DIV MUL PUSH1 0x20 ADD PUSH1 0x40 MLOAD SWAP1 DUP2 ADD PUSH1 0x40 MSTORE DUP1 SWAP4 SWAP3 SWAP2 SWAP1 DUP2 DUP2 MSTORE PUSH1 0x20 ADD DUP4 DUP4 DUP1 DUP3 DUP5 CALLDATACOPY PUSH1 0x0 DUP2 DUP5 ADD MSTORE PUSH1 0x1F NOT PUSH1 0x1F DUP3 ADD AND SWAP1 POP DUP1 DUP4 ADD SWAP3 POP POP POP POP POP POP POP DUP2 MSTORE PUSH1 0x20 ADD DUP5 DUP2 MSTORE PUSH1 0x20 ADD DUP3 DUP2 MSTORE PUSH1 0x20 ADD PUSH1 0x0 ISZERO ISZERO DUP2 MSTORE PUSH1 0x20 ADD CALLER PUSH20 0xFFFFFFFFFFFFFFFFFFFFFFFFFFFFFFFFFFFFFFFF AND DUP2 MSTORE POP PUSH1 0x3 PUSH1 0x0 CALLER PUSH20 0xFFFFFFFFFFFFFFFFFFFFFFFFFFFFFFFFFFFFFFFF AND PUSH20 0xFFFFFFFFFFFFFFFFFFFFFFFFFFFFFFFFFFFFFFFF AND DUP2 MSTORE PUSH1 0x20 ADD SWAP1 DUP2 MSTORE PUSH1 0x20 ADD PUSH1 0x0 KECCAK256 PUSH1 0x0 DUP3 ADD MLOAD DUP2 PUSH1 0x0 ADD SWAP1 DUP2 PUSH2 0x6FA SWAP2 SWAP1 PUSH2 0x1676 JUMP JUMPDEST POP PUSH1 0x20 DUP3 ADD MLOAD DUP2 PUSH1 0x1 ADD SSTORE PUSH1 0x40 DUP3 ADD MLOAD DUP2 PUSH1 0x2 ADD SWAP1 DUP2 PUSH2 0x71A SWAP2 SWAP1 PUSH2 0x1676 JUMP JUMPDEST POP PUSH1 0x60 DUP3 ADD MLOAD DUP2 PUSH1 0x3 ADD PUSH1 0x0 PUSH2 0x100 EXP DUP2 SLOAD DUP2 PUSH1 0xFF MUL NOT AND SWAP1 DUP4 ISZERO ISZERO MUL OR SWAP1 SSTORE POP PUSH1 0x80 DUP3 ADD MLOAD DUP2 PUSH1 0x3 ADD PUSH1 0x1 PUSH2 0x100 EXP DUP2 SLOAD DUP2 PUSH20 0xFFFFFFFFFFFFFFFFFFFFFFFFFFFFFFFFFFFFFFFF MUL NOT AND SWAP1 DUP4 PUSH20 0xFFFFFFFFFFFFFFFFFFFFFFFFFFFFFFFFFFFFFFFF AND MUL OR SWAP1 SSTORE POP SWAP1 POP POP PUSH1 0x1 PUSH1 0x2 PUSH1 0x0 DUP3 DUP3 SLOAD PUSH2 0x798 SWAP2 SWAP1 PUSH2 0x1777 JUMP JUMPDEST SWAP3 POP POP DUP2 SWAP1 SSTORE POP PUSH1 0x3 PUSH1 0x0 CALLER PUSH20 0xFFFFFFFFFFFFFFFFFFFFFFFFFFFFFFFFFFFFFFFF AND PUSH20 0xFFFFFFFFFFFFFFFFFFFFFFFFFFFFFFFFFFFFFFFF AND DUP2 MSTORE PUSH1 0x20 ADD SWAP1 DUP2 MSTORE PUSH1 0x20 ADD PUSH1 0x0 KECCAK256 PUSH1 0x40 MLOAD DUP1 PUSH1 0xA0 ADD PUSH1 0x40 MSTORE SWAP1 DUP2 PUSH1 0x0 DUP3 ADD DUP1 SLOAD PUSH2 0x7F9 SWAP1 PUSH2 0x130A JUMP JUMPDEST DUP1 PUSH1 0x1F ADD PUSH1 0x20 DUP1 SWAP2 DIV MUL PUSH1 0x20 ADD PUSH1 0x40 MLOAD SWAP1 DUP2 ADD PUSH1 0x40 MSTORE DUP1 SWAP3 SWAP2 SWAP1 DUP2 DUP2 MSTORE PUSH1 0x20 ADD DUP3 DUP1 SLOAD PUSH2 0x825 SWAP1 PUSH2 0x130A JUMP JUMPDEST DUP1 ISZERO PUSH2 0x872 JUMPI DUP1 PUSH1 0x1F LT PUSH2 0x847 JUMPI PUSH2 0x100 DUP1 DUP4 SLOAD DIV MUL DUP4 MSTORE SWAP2 PUSH1 0x20 ADD SWAP2 PUSH2 0x872 JUMP JUMPDEST DUP3 ADD SWAP2 SWAP1 PUSH1 0x0 MSTORE PUSH1 0x20 PUSH1 0x0 KECCAK256 SWAP1 JUMPDEST DUP2 SLOAD DUP2 MSTORE SWAP1 PUSH1 0x1 ADD SWAP1 PUSH1 0x20 ADD DUP1 DUP4 GT PUSH2 0x855 JUMPI DUP3 SWAP1 SUB PUSH1 0x1F AND DUP3 ADD SWAP2 JUMPDEST POP POP POP POP POP DUP2 MSTORE PUSH1 0x20 ADD PUSH1 0x1 DUP3 ADD SLOAD DUP2 MSTORE PUSH1 0x20 ADD PUSH1 0x2 DUP3 ADD DUP1 SLOAD PUSH2 0x895 SWAP1 PUSH2 0x130A JUMP JUMPDEST DUP1 PUSH1 0x1F ADD PUSH1 0x20 DUP1 SWAP2 DIV MUL PUSH1 0x20 ADD PUSH1 0x40 MLOAD SWAP1 DUP2 ADD PUSH1 0x40 MSTORE DUP1 SWAP3 SWAP2 SWAP1 DUP2 DUP2 MSTORE PUSH1 0x20 ADD DUP3 DUP1 SLOAD PUSH2 0x8C1 SWAP1 PUSH2 0x130A JUMP JUMPDEST DUP1 ISZERO PUSH2 0x90E JUMPI DUP1 PUSH1 0x1F LT PUSH2 0x8E3 JUMPI PUSH2 0x100 DUP1 DUP4 SLOAD DIV MUL DUP4 MSTORE SWAP2 PUSH1 0x20 ADD SWAP2 PUSH2 0x90E JUMP JUMPDEST DUP3 ADD SWAP2 SWAP1 PUSH1 0x0 MSTORE PUSH1 0x20 PUSH1 0x0 KECCAK256 SWAP1 JUMPDEST DUP2 SLOAD DUP2 MSTORE SWAP1 PUSH1 0x1 ADD SWAP1 PUSH1 0x20 ADD DUP1 DUP4 GT PUSH2 0x8F1 JUMPI DUP3 SWAP1 SUB PUSH1 0x1F AND DUP3 ADD SWAP2 JUMPDEST POP POP POP POP POP DUP2 MSTORE PUSH1 0x20 ADD PUSH1 0x3 DUP3 ADD PUSH1 0x0 SWAP1 SLOAD SWAP1 PUSH2 0x100 EXP SWAP1 DIV PUSH1 0xFF AND ISZERO ISZERO ISZERO ISZERO DUP2 MSTORE PUSH1 0x20 ADD PUSH1 0x3 DUP3 ADD PUSH1 0x1 SWAP1 SLOAD SWAP1 PUSH2 0x100 EXP SWAP1 DIV PUSH20 0xFFFFFFFFFFFFFFFFFFFFFFFFFFFFFFFFFFFFFFFF AND PUSH20 0xFFFFFFFFFFFFFFFFFFFFFFFFFFFFFFFFFFFFFFFF AND PUSH20 0xFFFFFFFFFFFFFFFFFFFFFFFFFFFFFFFFFFFFFFFF AND DUP2 MSTORE POP POP SWAP2 POP POP SWAP4 SWAP3 POP POP POP JUMP JUMPDEST PUSH1 0x1 PUSH1 0x0 SWAP1 SLOAD SWAP1 PUSH2 0x100 EXP SWAP1 DIV PUSH20 0xFFFFFFFFFFFFFFFFFFFFFFFFFFFFFFFFFFFFFFFF AND DUP2 JUMP JUMPDEST PUSH1 0x0 PUSH1 0x3 PUSH1 0x0 CALLER PUSH20 0xFFFFFFFFFFFFFFFFFFFFFFFFFFFFFFFFFFFFFFFF AND PUSH20 0xFFFFFFFFFFFFFFFFFFFFFFFFFFFFFFFFFFFFFFFF AND DUP2 MSTORE PUSH1 0x20 ADD SWAP1 DUP2 MSTORE PUSH1 0x20 ADD PUSH1 0x0 KECCAK256 PUSH1 0x3 ADD PUSH1 0x0 SWAP1 SLOAD SWAP1 PUSH2 0x100 EXP SWAP1 DIV PUSH1 0xFF AND SWAP1 POP SWAP1 JUMP JUMPDEST PUSH2 0xA17 PUSH2 0xE26 JUMP JUMPDEST PUSH1 0x3 PUSH1 0x0 CALLER PUSH20 0xFFFFFFFFFFFFFFFFFFFFFFFFFFFFFFFFFFFFFFFF AND PUSH20 0xFFFFFFFFFFFFFFFFFFFFFFFFFFFFFFFFFFFFFFFF AND DUP2 MSTORE PUSH1 0x20 ADD SWAP1 DUP2 MSTORE PUSH1 0x20 ADD PUSH1 0x0 KECCAK256 PUSH1 0x40 MLOAD DUP1 PUSH1 0xA0 ADD PUSH1 0x40 MSTORE SWAP1 DUP2 PUSH1 0x0 DUP3 ADD DUP1 SLOAD PUSH2 0xA71 SWAP1 PUSH2 0x130A JUMP JUMPDEST DUP1 PUSH1 0x1F ADD PUSH1 0x20 DUP1 SWAP2 DIV MUL PUSH1 0x20 ADD PUSH1 0x40 MLOAD SWAP1 DUP2 ADD PUSH1 0x40 MSTORE DUP1 SWAP3 SWAP2 SWAP1 DUP2 DUP2 MSTORE PUSH1 0x20 ADD DUP3 DUP1 SLOAD PUSH2 0xA9D SWAP1 PUSH2 0x130A JUMP JUMPDEST DUP1 ISZERO PUSH2 0xAEA JUMPI DUP1 PUSH1 0x1F LT PUSH2 0xABF JUMPI PUSH2 0x100 DUP1 DUP4 SLOAD DIV MUL DUP4 MSTORE SWAP2 PUSH1 0x20 ADD SWAP2 PUSH2 0xAEA JUMP JUMPDEST DUP3 ADD SWAP2 SWAP1 PUSH1 0x0 MSTORE PUSH1 0x20 PUSH1 0x0 KECCAK256 SWAP1 JUMPDEST DUP2 SLOAD DUP2 MSTORE SWAP1 PUSH1 0x1 ADD SWAP1 PUSH1 0x20 ADD DUP1 DUP4 GT PUSH2 0xACD JUMPI DUP3 SWAP1 SUB PUSH1 0x1F AND DUP3 ADD SWAP2 JUMPDEST POP POP POP POP POP DUP2 MSTORE PUSH1 0x20 ADD PUSH1 0x1 DUP3 ADD SLOAD DUP2 MSTORE PUSH1 0x20 ADD PUSH1 0x2 DUP3 ADD DUP1 SLOAD PUSH2 0xB0D SWAP1 PUSH2 0x130A JUMP JUMPDEST DUP1 PUSH1 0x1F ADD PUSH1 0x20 DUP1 SWAP2 DIV MUL PUSH1 0x20 ADD PUSH1 0x40 MLOAD SWAP1 DUP2 ADD PUSH1 0x40 MSTORE DUP1 SWAP3 SWAP2 SWAP1 DUP2 DUP2 MSTORE PUSH1 0x20 ADD DUP3 DUP1 SLOAD PUSH2 0xB39 SWAP1 PUSH2 0x130A JUMP JUMPDEST DUP1 ISZERO PUSH2 0xB86 JUMPI DUP1 PUSH1 0x1F LT PUSH2 0xB5B JUMPI PUSH2 0x100 DUP1 DUP4 SLOAD DIV MUL DUP4 MSTORE SWAP2 PUSH1 0x20 ADD SWAP2 PUSH2 0xB86 JUMP JUMPDEST DUP3 ADD SWAP2 SWAP1 PUSH1 0x0 MSTORE PUSH1 0x20 PUSH1 0x0 KECCAK256 SWAP1 JUMPDEST DUP2 SLOAD DUP2 MSTORE SWAP1 PUSH1 0x1 ADD SWAP1 PUSH1 0x20 ADD DUP1 DUP4 GT PUSH2 0xB69 JUMPI DUP3 SWAP1 SUB PUSH1 0x1F AND DUP3 ADD SWAP2 JUMPDEST POP POP POP POP POP DUP2 MSTORE PUSH1 0x20 ADD PUSH1 0x3 DUP3 ADD PUSH1 0x0 SWAP1 SLOAD SWAP1 PUSH2 0x100 EXP SWAP1 DIV PUSH1 0xFF AND ISZERO ISZERO ISZERO ISZERO DUP2 MSTORE PUSH1 0x20 ADD PUSH1 0x3 DUP3 ADD PUSH1 0x1 SWAP1 SLOAD SWAP1 PUSH2 0x100 EXP SWAP1 DIV PUSH20 0xFFFFFFFFFFFFFFFFFFFFFFFFFFFFFFFFFFFFFFFF AND PUSH20 0xFFFFFFFFFFFFFFFFFFFFFFFFFFFFFFFFFFFFFFFF AND PUSH20 0xFFFFFFFFFFFFFFFFFFFFFFFFFFFFFFFFFFFFFFFF AND DUP2 MSTORE POP POP SWAP1 POP SWAP1 JUMP JUMPDEST PUSH1 0x60 PUSH1 0x0 PUSH1 0x1 PUSH2 0xC14 DUP5 PUSH2 0xCD3 JUMP JUMPDEST ADD SWAP1 POP PUSH1 0x0 DUP2 PUSH8 0xFFFFFFFFFFFFFFFF DUP2 GT ISZERO PUSH2 0xC33 JUMPI PUSH2 0xC32 PUSH2 0x149B JUMP JUMPDEST JUMPDEST PUSH1 0x40 MLOAD SWAP1 DUP1 DUP3 MSTORE DUP1 PUSH1 0x1F ADD PUSH1 0x1F NOT AND PUSH1 0x20 ADD DUP3 ADD PUSH1 0x40 MSTORE DUP1 ISZERO PUSH2 0xC65 JUMPI DUP2 PUSH1 0x20 ADD PUSH1 0x1 DUP3 MUL DUP1 CALLDATASIZE DUP4 CALLDATACOPY DUP1 DUP3 ADD SWAP2 POP POP SWAP1 POP JUMPDEST POP SWAP1 POP PUSH1 0x0 DUP3 PUSH1 0x20 ADD DUP3 ADD SWAP1 POP JUMPDEST PUSH1 0x1 ISZERO PUSH2 0xCC8 JUMPI DUP1 DUP1 PUSH1 0x1 SWAP1 SUB SWAP2 POP POP PUSH32 0x3031323334353637383961626364656600000000000000000000000000000000 PUSH1 0xA DUP7 MOD BYTE DUP2 MSTORE8 PUSH1 0xA DUP6 DUP2 PUSH2 0xCBC JUMPI PUSH2 0xCBB PUSH2 0x17AB JUMP JUMPDEST JUMPDEST DIV SWAP5 POP PUSH1 0x0 DUP6 SUB PUSH2 0xC73 JUMPI JUMPDEST DUP2 SWAP4 POP POP POP POP SWAP2 SWAP1 POP JUMP JUMPDEST PUSH1 0x0 DUP1 PUSH1 0x0 SWAP1 POP PUSH27 0x184F03E93FF9F4DAA797ED6E38ED64BF6A1F010000000000000000 DUP4 LT PUSH2 0xD31 JUMPI PUSH27 0x184F03E93FF9F4DAA797ED6E38ED64BF6A1F010000000000000000 DUP4 DUP2 PUSH2 0xD27 JUMPI PUSH2 0xD26 PUSH2 0x17AB JUMP JUMPDEST JUMPDEST DIV SWAP3 POP PUSH1 0x40 DUP2 ADD SWAP1 POP JUMPDEST PUSH14 0x4EE2D6D415B85ACEF8100000000 DUP4 LT PUSH2 0xD6E JUMPI PUSH14 0x4EE2D6D415B85ACEF8100000000 DUP4 DUP2 PUSH2 0xD64 JUMPI PUSH2 0xD63 PUSH2 0x17AB JUMP JUMPDEST JUMPDEST DIV SWAP3 POP PUSH1 0x20 DUP2 ADD SWAP1 POP JUMPDEST PUSH7 0x2386F26FC10000 DUP4 LT PUSH2 0xD9D JUMPI PUSH7 0x2386F26FC10000 DUP4 DUP2 PUSH2 0xD93 JUMPI PUSH2 0xD92 PUSH2 0x17AB JUMP JUMPDEST JUMPDEST DIV SWAP3 POP PUSH1 0x10 DUP2 ADD SWAP1 POP JUMPDEST PUSH4 0x5F5E100 DUP4 LT PUSH2 0xDC6 JUMPI PUSH4 0x5F5E100 DUP4 DUP2 PUSH2 0xDBC JUMPI PUSH2 0xDBB PUSH2 0x17AB JUMP JUMPDEST JUMPDEST DIV SWAP3 POP PUSH1 0x8 DUP2 ADD SWAP1 POP JUMPDEST PUSH2 0x2710 DUP4 LT PUSH2 0xDEB JUMPI PUSH2 0x2710 DUP4 DUP2 PUSH2 0xDE1 JUMPI PUSH2 0xDE0 PUSH2 0x17AB JUMP JUMPDEST JUMPDEST DIV SWAP3 POP PUSH1 0x4 DUP2 ADD SWAP1 POP JUMPDEST PUSH1 0x64 DUP4 LT PUSH2 0xE0E JUMPI PUSH1 0x64 DUP4 DUP2 PUSH2 0xE04 JUMPI PUSH2 0xE03 PUSH2 0x17AB JUMP JUMPDEST JUMPDEST DIV SWAP3 POP PUSH1 0x2 DUP2 ADD SWAP1 POP JUMPDEST PUSH1 0xA DUP4 LT PUSH2 0xE1D JUMPI PUSH1 0x1 DUP2 ADD SWAP1 POP JUMPDEST DUP1 SWAP2 POP POP SWAP2 SWAP1 POP JUMP JUMPDEST PUSH1 0x40 MLOAD DUP1 PUSH1 0xA0 ADD PUSH1 0x40 MSTORE DUP1 PUSH1 0x60 DUP2 MSTORE PUSH1 0x20 ADD PUSH1 0x0 DUP2 MSTORE PUSH1 0x20 ADD PUSH1 0x60 DUP2 MSTORE PUSH1 0x20 ADD PUSH1 0x0 ISZERO ISZERO DUP2 MSTORE PUSH1 0x20 ADD PUSH1 0x0 PUSH20 0xFFFFFFFFFFFFFFFFFFFFFFFFFFFFFFFFFFFFFFFF AND DUP2 MSTORE POP SWAP1 JUMP JUMPDEST PUSH1 0x0 PUSH20 0xFFFFFFFFFFFFFFFFFFFFFFFFFFFFFFFFFFFFFFFF DUP3 AND SWAP1 POP SWAP2 SWAP1 POP JUMP JUMPDEST PUSH1 0x0 PUSH2 0xE98 DUP3 PUSH2 0xE6D JUMP JUMPDEST SWAP1 POP SWAP2 SWAP1 POP JUMP JUMPDEST PUSH2 0xEA8 DUP2 PUSH2 0xE8D JUMP JUMPDEST DUP3 MSTORE POP POP JUMP JUMPDEST PUSH1 0x0 PUSH1 0x20 DUP3 ADD SWAP1 POP PUSH2 0xEC3 PUSH1 0x0 DUP4 ADD DUP5 PUSH2 0xE9F JUMP JUMPDEST SWAP3 SWAP2 POP POP JUMP JUMPDEST PUSH1 0x0 DUP1 REVERT JUMPDEST PUSH1 0x0 DUP1 REVERT JUMPDEST PUSH2 0xEDC DUP2 PUSH2 0xE8D JUMP JUMPDEST DUP2 EQ PUSH2 0xEE7 JUMPI PUSH1 0x0 DUP1 REVERT JUMPDEST POP JUMP JUMPDEST PUSH1 0x0 DUP2 CALLDATALOAD SWAP1 POP PUSH2 0xEF9 DUP2 PUSH2 0xED3 JUMP JUMPDEST SWAP3 SWAP2 POP POP JUMP JUMPDEST PUSH1 0x0 PUSH1 0x20 DUP3 DUP5 SUB SLT ISZERO PUSH2 0xF15 JUMPI PUSH2 0xF14 PUSH2 0xEC9 JUMP JUMPDEST JUMPDEST PUSH1 0x0 PUSH2 0xF23 DUP5 DUP3 DUP6 ADD PUSH2 0xEEA JUMP JUMPDEST SWAP2 POP POP SWAP3 SWAP2 POP POP JUMP JUMPDEST PUSH1 0x0 DUP2 MLOAD SWAP1 POP SWAP2 SWAP1 POP JUMP JUMPDEST PUSH1 0x0 DUP3 DUP3 MSTORE PUSH1 0x20 DUP3 ADD SWAP1 POP SWAP3 SWAP2 POP POP JUMP JUMPDEST PUSH1 0x0 JUMPDEST DUP4 DUP2 LT ISZERO PUSH2 0xF66 JUMPI DUP1 DUP3 ADD MLOAD DUP2 DUP5 ADD MSTORE PUSH1 0x20 DUP2 ADD SWAP1 POP PUSH2 0xF4B JUMP JUMPDEST PUSH1 0x0 DUP5 DUP5 ADD MSTORE POP POP POP POP JUMP JUMPDEST PUSH1 0x0 PUSH1 0x1F NOT PUSH1 0x1F DUP4 ADD AND SWAP1 POP SWAP2 SWAP1 POP JUMP JUMPDEST PUSH1 0x0 PUSH2 0xF8E DUP3 PUSH2 0xF2C JUMP JUMPDEST PUSH2 0xF98 DUP2 DUP6 PUSH2 0xF37 JUMP JUMPDEST SWAP4 POP PUSH2 0xFA8 DUP2 DUP6 PUSH1 0x20 DUP7 ADD PUSH2 0xF48 JUMP JUMPDEST PUSH2 0xFB1 DUP2 PUSH2 0xF72 JUMP JUMPDEST DUP5 ADD SWAP2 POP POP SWAP3 SWAP2 POP POP JUMP JUMPDEST PUSH1 0x0 DUP2 SWAP1 POP SWAP2 SWAP1 POP JUMP JUMPDEST PUSH2 0xFCF DUP2 PUSH2 0xFBC JUMP JUMPDEST DUP3 MSTORE POP POP JUMP JUMPDEST PUSH1 0x0 DUP2 ISZERO ISZERO SWAP1 POP SWAP2 SWAP1 POP JUMP JUMPDEST PUSH2 0xFEA DUP2 PUSH2 0xFD5 JUMP JUMPDEST DUP3 MSTORE POP POP JUMP JUMPDEST PUSH1 0x0 PUSH1 0xA0 DUP3 ADD SWAP1 POP DUP2 DUP2 SUB PUSH1 0x0 DUP4 ADD MSTORE PUSH2 0x100A DUP2 DUP9 PUSH2 0xF83 JUMP JUMPDEST SWAP1 POP PUSH2 0x1019 PUSH1 0x20 DUP4 ADD DUP8 PUSH2 0xFC6 JUMP JUMPDEST DUP2 DUP2 SUB PUSH1 0x40 DUP4 ADD MSTORE PUSH2 0x102B DUP2 DUP7 PUSH2 0xF83 JUMP JUMPDEST SWAP1 POP PUSH2 0x103A PUSH1 0x60 DUP4 ADD DUP6 PUSH2 0xFE1 JUMP JUMPDEST PUSH2 0x1047 PUSH1 0x80 DUP4 ADD DUP5 PUSH2 0xE9F JUMP JUMPDEST SWAP7 SWAP6 POP POP POP POP POP POP JUMP JUMPDEST PUSH1 0x0 PUSH1 0xA0 DUP3 ADD SWAP1 POP DUP2 DUP2 SUB PUSH1 0x0 DUP4 ADD MSTORE PUSH2 0x106B DUP2 DUP9 PUSH2 0xF83 JUMP JUMPDEST SWAP1 POP DUP2 DUP2 SUB PUSH1 0x20 DUP4 ADD MSTORE PUSH2 0x107F DUP2 DUP8 PUSH2 0xF83 JUMP JUMPDEST SWAP1 POP DUP2 DUP2 SUB PUSH1 0x40 DUP4 ADD MSTORE PUSH2 0x1093 DUP2 DUP7 PUSH2 0xF83 JUMP JUMPDEST SWAP1 POP PUSH2 0x10A2 PUSH1 0x60 DUP4 ADD DUP6 PUSH2 0xFE1 JUMP JUMPDEST PUSH2 0x10AF PUSH1 0x80 DUP4 ADD DUP5 PUSH2 0xE9F JUMP JUMPDEST SWAP7 SWAP6 POP POP POP POP POP POP JUMP JUMPDEST PUSH1 0x0 DUP1 REVERT JUMPDEST PUSH1 0x0 DUP1 REVERT JUMPDEST PUSH1 0x0 DUP1 REVERT JUMPDEST PUSH1 0x0 DUP1 DUP4 PUSH1 0x1F DUP5 ADD SLT PUSH2 0x10DE JUMPI PUSH2 0x10DD PUSH2 0x10B9 JUMP JUMPDEST JUMPDEST DUP3 CALLDATALOAD SWAP1 POP PUSH8 0xFFFFFFFFFFFFFFFF DUP2 GT ISZERO PUSH2 0x10FB JUMPI PUSH2 0x10FA PUSH2 0x10BE JUMP JUMPDEST JUMPDEST PUSH1 0x20 DUP4 ADD SWAP2 POP DUP4 PUSH1 0x1 DUP3 MUL DUP4 ADD GT ISZERO PUSH2 0x1117 JUMPI PUSH2 0x1116 PUSH2 0x10C3 JUMP JUMPDEST JUMPDEST SWAP3 POP SWAP3 SWAP1 POP JUMP JUMPDEST PUSH2 0x1127 DUP2 PUSH2 0xFBC JUMP JUMPDEST DUP2 EQ PUSH2 0x1132 JUMPI PUSH1 0x0 DUP1 REVERT JUMPDEST POP JUMP JUMPDEST PUSH1 0x0 DUP2 CALLDATALOAD SWAP1 POP PUSH2 0x1144 DUP2 PUSH2 0x111E JUMP JUMPDEST SWAP3 SWAP2 POP POP JUMP JUMPDEST PUSH1 0x0 DUP1 PUSH1 0x0 PUSH1 0x40 DUP5 DUP7 SUB SLT ISZERO PUSH2 0x1163 JUMPI PUSH2 0x1162 PUSH2 0xEC9 JUMP JUMPDEST JUMPDEST PUSH1 0x0 DUP5 ADD CALLDATALOAD PUSH8 0xFFFFFFFFFFFFFFFF DUP2 GT ISZERO PUSH2 0x1181 JUMPI PUSH2 0x1180 PUSH2 0xECE JUMP JUMPDEST JUMPDEST PUSH2 0x118D DUP7 DUP3 DUP8 ADD PUSH2 0x10C8 JUMP JUMPDEST SWAP4 POP SWAP4 POP POP PUSH1 0x20 PUSH2 0x11A0 DUP7 DUP3 DUP8 ADD PUSH2 0x1135 JUMP JUMPDEST SWAP2 POP POP SWAP3 POP SWAP3 POP SWAP3 JUMP JUMPDEST PUSH1 0x0 DUP3 DUP3 MSTORE PUSH1 0x20 DUP3 ADD SWAP1 POP SWAP3 SWAP2 POP POP JUMP JUMPDEST PUSH1 0x0 PUSH2 0x11C6 DUP3 PUSH2 0xF2C JUMP JUMPDEST PUSH2 0x11D0 DUP2 DUP6 PUSH2 0x11AA JUMP JUMPDEST SWAP4 POP PUSH2 0x11E0 DUP2 DUP6 PUSH1 0x20 DUP7 ADD PUSH2 0xF48 JUMP JUMPDEST PUSH2 0x11E9 DUP2 PUSH2 0xF72 JUMP JUMPDEST DUP5 ADD SWAP2 POP POP SWAP3 SWAP2 POP POP JUMP JUMPDEST PUSH2 0x11FD DUP2 PUSH2 0xFBC JUMP JUMPDEST DUP3 MSTORE POP POP JUMP JUMPDEST PUSH2 0x120C DUP2 PUSH2 0xFD5 JUMP JUMPDEST DUP3 MSTORE POP POP JUMP JUMPDEST PUSH2 0x121B DUP2 PUSH2 0xE8D JUMP JUMPDEST DUP3 MSTORE POP POP JUMP JUMPDEST PUSH1 0x0 PUSH1 0xA0 DUP4 ADD PUSH1 0x0 DUP4 ADD MLOAD DUP5 DUP3 SUB PUSH1 0x0 DUP7 ADD MSTORE PUSH2 0x123E DUP3 DUP3 PUSH2 0x11BB JUMP JUMPDEST SWAP2 POP POP PUSH1 0x20 DUP4 ADD MLOAD PUSH2 0x1253 PUSH1 0x20 DUP7 ADD DUP3 PUSH2 0x11F4 JUMP JUMPDEST POP PUSH1 0x40 DUP4 ADD MLOAD DUP5 DUP3 SUB PUSH1 0x40 DUP7 ADD MSTORE PUSH2 0x126B DUP3 DUP3 PUSH2 0x11BB JUMP JUMPDEST SWAP2 POP POP PUSH1 0x60 DUP4 ADD MLOAD PUSH2 0x1280 PUSH1 0x60 DUP7 ADD DUP3 PUSH2 0x1203 JUMP JUMPDEST POP PUSH1 0x80 DUP4 ADD MLOAD PUSH2 0x1293 PUSH1 0x80 DUP7 ADD DUP3 PUSH2 0x1212 JUMP JUMPDEST POP DUP1 SWAP2 POP POP SWAP3 SWAP2 POP POP JUMP JUMPDEST PUSH1 0x0 PUSH1 0x20 DUP3 ADD SWAP1 POP DUP2 DUP2 SUB PUSH1 0x0 DUP4 ADD MSTORE PUSH2 0x12B8 DUP2 DUP5 PUSH2 0x1221 JUMP JUMPDEST SWAP1 POP SWAP3 SWAP2 POP POP JUMP JUMPDEST PUSH1 0x0 PUSH1 0x20 DUP3 ADD SWAP1 POP PUSH2 0x12D5 PUSH1 0x0 DUP4 ADD DUP5 PUSH2 0xFE1 JUMP JUMPDEST SWAP3 SWAP2 POP POP JUMP JUMPDEST PUSH32 0x4E487B7100000000000000000000000000000000000000000000000000000000 PUSH1 0x0 MSTORE PUSH1 0x22 PUSH1 0x4 MSTORE PUSH1 0x24 PUSH1 0x0 REVERT JUMPDEST PUSH1 0x0 PUSH1 0x2 DUP3 DIV SWAP1 POP PUSH1 0x1 DUP3 AND DUP1 PUSH2 0x1322 JUMPI PUSH1 0x7F DUP3 AND SWAP2 POP JUMPDEST PUSH1 0x20 DUP3 LT DUP2 SUB PUSH2 0x1335 JUMPI PUSH2 0x1334 PUSH2 0x12DB JUMP JUMPDEST JUMPDEST POP SWAP2 SWAP1 POP JUMP JUMPDEST PUSH32 0x6E6F7420656C696769626C6520746F20766F7465000000000000000000000000 PUSH1 0x0 DUP3 ADD MSTORE POP JUMP JUMPDEST PUSH1 0x0 PUSH2 0x1371 PUSH1 0x14 DUP4 PUSH2 0xF37 JUMP JUMPDEST SWAP2 POP PUSH2 0x137C DUP3 PUSH2 0x133B JUMP JUMPDEST PUSH1 0x20 DUP3 ADD SWAP1 POP SWAP2 SWAP1 POP JUMP JUMPDEST PUSH1 0x0 PUSH1 0x20 DUP3 ADD SWAP1 POP DUP2 DUP2 SUB PUSH1 0x0 DUP4 ADD MSTORE PUSH2 0x13A0 DUP2 PUSH2 0x1364 JUMP JUMPDEST SWAP1 POP SWAP2 SWAP1 POP JUMP JUMPDEST PUSH32 0x54686973206164647265737320686173206265656E2072656769737465726564 PUSH1 0x0 DUP3 ADD MSTORE POP JUMP JUMPDEST PUSH1 0x0 PUSH2 0x13DD PUSH1 0x20 DUP4 PUSH2 0xF37 JUMP JUMPDEST SWAP2 POP PUSH2 0x13E8 DUP3 PUSH2 0x13A7 JUMP JUMPDEST PUSH1 0x20 DUP3 ADD SWAP1 POP SWAP2 SWAP1 POP JUMP JUMPDEST PUSH1 0x0 PUSH1 0x20 DUP3 ADD SWAP1 POP DUP2 DUP2 SUB PUSH1 0x0 DUP4 ADD MSTORE PUSH2 0x140C DUP2 PUSH2 0x13D0 JUMP JUMPDEST SWAP1 POP SWAP2 SWAP1 POP JUMP JUMPDEST PUSH32 0x4E49470000000000000000000000000000000000000000000000000000000000 DUP2 MSTORE POP JUMP JUMPDEST PUSH1 0x0 DUP2 SWAP1 POP SWAP3 SWAP2 POP POP JUMP JUMPDEST PUSH1 0x0 PUSH2 0x144F DUP3 PUSH2 0xF2C JUMP JUMPDEST PUSH2 0x1459 DUP2 DUP6 PUSH2 0x1439 JUMP JUMPDEST SWAP4 POP PUSH2 0x1469 DUP2 DUP6 PUSH1 0x20 DUP7 ADD PUSH2 0xF48 JUMP JUMPDEST DUP1 DUP5 ADD SWAP2 POP POP SWAP3 SWAP2 POP POP JUMP JUMPDEST PUSH1 0x0 PUSH2 0x1480 DUP3 PUSH2 0x1413 JUMP JUMPDEST PUSH1 0x3 DUP3 ADD SWAP2 POP PUSH2 0x1490 DUP3 DUP5 PUSH2 0x1444 JUMP JUMPDEST SWAP2 POP DUP2 SWAP1 POP SWAP3 SWAP2 POP POP JUMP JUMPDEST PUSH32 0x4E487B7100000000000000000000000000000000000000000000000000000000 PUSH1 0x0 MSTORE PUSH1 0x41 PUSH1 0x4 MSTORE PUSH1 0x24 PUSH1 0x0 REVERT JUMPDEST PUSH1 0x0 DUP2 SWAP1 POP DUP2 PUSH1 0x0 MSTORE PUSH1 0x20 PUSH1 0x0 KECCAK256 SWAP1 POP SWAP2 SWAP1 POP JUMP JUMPDEST PUSH1 0x0 PUSH1 0x20 PUSH1 0x1F DUP4 ADD DIV SWAP1 POP SWAP2 SWAP1 POP JUMP JUMPDEST PUSH1 0x0 DUP3 DUP3 SHL SWAP1 POP SWAP3 SWAP2 POP POP JUMP JUMPDEST PUSH1 0x0 PUSH1 0x8 DUP4 MUL PUSH2 0x152C PUSH32 0xFFFFFFFFFFFFFFFFFFFFFFFFFFFFFFFFFFFFFFFFFFFFFFFFFFFFFFFFFFFFFFFF DUP3 PUSH2 0x14EF JUMP JUMPDEST PUSH2 0x1536 DUP7 DUP4 PUSH2 0x14EF JUMP JUMPDEST SWAP6 POP DUP1 NOT DUP5 AND SWAP4 POP DUP1 DUP7 AND DUP5 OR SWAP3 POP POP POP SWAP4 SWAP3 POP POP POP JUMP JUMPDEST PUSH1 0x0 DUP2 SWAP1 POP SWAP2 SWAP1 POP JUMP JUMPDEST PUSH1 0x0 PUSH2 0x1573 PUSH2 0x156E PUSH2 0x1569 DUP5 PUSH2 0xFBC JUMP JUMPDEST PUSH2 0x154E JUMP JUMPDEST PUSH2 0xFBC JUMP JUMPDEST SWAP1 POP SWAP2 SWAP1 POP JUMP JUMPDEST PUSH1 0x0 DUP2 SWAP1 POP SWAP2 SWAP1 POP JUMP JUMPDEST PUSH2 0x158D DUP4 PUSH2 0x1558 JUMP JUMPDEST PUSH2 0x15A1 PUSH2 0x1599 DUP3 PUSH2 0x157A JUMP JUMPDEST DUP5 DUP5 SLOAD PUSH2 0x14FC JUMP JUMPDEST DUP3 SSTORE POP POP POP POP JUMP JUMPDEST PUSH1 0x0 SWAP1 JUMP JUMPDEST PUSH2 0x15B6 PUSH2 0x15A9 JUMP JUMPDEST PUSH2 0x15C1 DUP2 DUP5 DUP5 PUSH2 0x1584 JUMP JUMPDEST POP POP POP JUMP JUMPDEST JUMPDEST DUP2 DUP2 LT ISZERO PUSH2 0x15E5 JUMPI PUSH2 0x15DA PUSH1 0x0 DUP3 PUSH2 0x15AE JUMP JUMPDEST PUSH1 0x1 DUP2 ADD SWAP1 POP PUSH2 0x15C7 JUMP JUMPDEST POP POP JUMP JUMPDEST PUSH1 0x1F DUP3 GT ISZERO PUSH2 0x162A JUMPI PUSH2 0x15FB DUP2 PUSH2 0x14CA JUMP JUMPDEST PUSH2 0x1604 DUP5 PUSH2 0x14DF JUMP JUMPDEST DUP2 ADD PUSH1 0x20 DUP6 LT ISZERO PUSH2 0x1613 JUMPI DUP2 SWAP1 POP JUMPDEST PUSH2 0x1627 PUSH2 0x161F DUP6 PUSH2 0x14DF JUMP JUMPDEST DUP4 ADD DUP3 PUSH2 0x15C6 JUMP JUMPDEST POP POP JUMPDEST POP POP POP JUMP JUMPDEST PUSH1 0x0 DUP3 DUP3 SHR SWAP1 POP SWAP3 SWAP2 POP POP JUMP JUMPDEST PUSH1 0x0 PUSH2 0x164D PUSH1 0x0 NOT DUP5 PUSH1 0x8 MUL PUSH2 0x162F JUMP JUMPDEST NOT DUP1 DUP4 AND SWAP2 POP POP SWAP3 SWAP2 POP POP JUMP JUMPDEST PUSH1 0x0 PUSH2 0x1666 DUP4 DUP4 PUSH2 0x163C JUMP JUMPDEST SWAP2 POP DUP3 PUSH1 0x2 MUL DUP3 OR SWAP1 POP SWAP3 SWAP2 POP POP JUMP JUMPDEST PUSH2 0x167F DUP3 PUSH2 0xF2C JUMP JUMPDEST PUSH8 0xFFFFFFFFFFFFFFFF DUP2 GT ISZERO PUSH2 0x1698 JUMPI PUSH2 0x1697 PUSH2 0x149B JUMP JUMPDEST JUMPDEST PUSH2 0x16A2 DUP3 SLOAD PUSH2 0x130A JUMP JUMPDEST PUSH2 0x16AD DUP3 DUP3 DUP6 PUSH2 0x15E9 JUMP JUMPDEST PUSH1 0x0 PUSH1 0x20 SWAP1 POP PUSH1 0x1F DUP4 GT PUSH1 0x1 DUP2 EQ PUSH2 0x16E0 JUMPI PUSH1 0x0 DUP5 ISZERO PUSH2 0x16CE JUMPI DUP3 DUP8 ADD MLOAD SWAP1 POP JUMPDEST PUSH2 0x16D8 DUP6 DUP3 PUSH2 0x165A JUMP JUMPDEST DUP7 SSTORE POP PUSH2 0x1740 JUMP JUMPDEST PUSH1 0x1F NOT DUP5 AND PUSH2 0x16EE DUP7 PUSH2 0x14CA JUMP JUMPDEST PUSH1 0x0 JUMPDEST DUP3 DUP2 LT ISZERO PUSH2 0x1716 JUMPI DUP5 DUP10 ADD MLOAD DUP3 SSTORE PUSH1 0x1 DUP3 ADD SWAP2 POP PUSH1 0x20 DUP6 ADD SWAP5 POP PUSH1 0x20 DUP2 ADD SWAP1 POP PUSH2 0x16F1 JUMP JUMPDEST DUP7 DUP4 LT ISZERO PUSH2 0x1733 JUMPI DUP5 DUP10 ADD MLOAD PUSH2 0x172F PUSH1 0x1F DUP10 AND DUP3 PUSH2 0x163C JUMP JUMPDEST DUP4 SSTORE POP JUMPDEST PUSH1 0x1 PUSH1 0x2 DUP9 MUL ADD DUP9 SSTORE POP POP POP JUMPDEST POP POP POP POP POP POP JUMP JUMPDEST PUSH32 0x4E487B7100000000000000000000000000000000000000000000000000000000 PUSH1 0x0 MSTORE PUSH1 0x11 PUSH1 0x4 MSTORE PUSH1 0x24 PUSH1 0x0 REVERT JUMPDEST PUSH1 0x0 PUSH2 0x1782 DUP3 PUSH2 0xFBC JUMP JUMPDEST SWAP2 POP PUSH2 0x178D DUP4 PUSH2 0xFBC JUMP JUMPDEST SWAP3 POP DUP3 DUP3 ADD SWAP1 POP DUP1 DUP3 GT ISZERO PUSH2 0x17A5 JUMPI PUSH2 0x17A4 PUSH2 0x1748 JUMP JUMPDEST JUMPDEST SWAP3 SWAP2 POP POP JUMP JUMPDEST PUSH32 0x4E487B7100000000000000000000000000000000000000000000000000000000 PUSH1 0x0 MSTORE PUSH1 0x12 PUSH1 0x4 MSTORE PUSH1 0x24 PUSH1 0x0 REVERT INVALID LOG2 PUSH5 0x6970667358 0x22 SLT KECCAK256 0xB7 REVERT LOG0 0xB9 0xE0 PUSH18 0xF91FFCB41DFAB53FB47E150593C486771417 0xC0 EQ 0x4B 0x24 0xCA ADDMOD DUP10 0xB2 PUSH5 0x736F6C6343 STOP ADDMOD SLT STOP CALLER "
				},
				"gasEstimates": {
					"creation": {
						"codeDepositCost": "1232000",
						"executionCost": "47661",
						"totalCost": "1279661"
					},
					"external": {
						"confirmApplication()": "2618",
						"contractOwner()": "2536",
						"coordinators(address)": "infinite",
						"electionCordinator()": "2512",
						"getDetails()": "infinite",
						"registerDetails(string,uint256)": "infinite",
						"voters(address)": "infinite"
					}
				},
				"methodIdentifiers": {
					"confirmApplication()": "cfa34208",
					"contractOwner()": "ce606ee0",
					"coordinators(address)": "a48af096",
					"electionCordinator()": "7151ace2",
					"getDetails()": "fbbf93a0",
					"registerDetails(string,uint256)": "c0264d3a",
					"voters(address)": "a3ec138d"
				}
			},
			"storageLayout": {
				"storage": [
					{
						"astId": 1167,
						"contract": "register.sol:Voter",
						"label": "electionCordinator",
						"offset": 0,
						"slot": "0",
						"type": "t_address"
					},
					{
						"astId": 1169,
						"contract": "register.sol:Voter",
						"label": "contractOwner",
						"offset": 0,
						"slot": "1",
						"type": "t_address"
					},
					{
						"astId": 1171,
						"contract": "register.sol:Voter",
						"label": "regCount",
						"offset": 0,
						"slot": "2",
						"type": "t_uint256"
					},
					{
						"astId": 1176,
						"contract": "register.sol:Voter",
						"label": "voters",
						"offset": 0,
						"slot": "3",
						"type": "t_mapping(t_address,t_struct(voter)1053_storage)"
					},
					{
						"astId": 1181,
						"contract": "register.sol:Voter",
						"label": "coordinators",
						"offset": 0,
						"slot": "4",
						"type": "t_mapping(t_address,t_struct(coordinator)1064_storage)"
					}
				],
				"types": {
					"t_address": {
						"encoding": "inplace",
						"label": "address",
						"numberOfBytes": "20"
					},
					"t_bool": {
						"encoding": "inplace",
						"label": "bool",
						"numberOfBytes": "1"
					},
					"t_mapping(t_address,t_struct(coordinator)1064_storage)": {
						"encoding": "mapping",
						"key": "t_address",
						"label": "mapping(address => struct coordinator)",
						"numberOfBytes": "32",
						"value": "t_struct(coordinator)1064_storage"
					},
					"t_mapping(t_address,t_struct(voter)1053_storage)": {
						"encoding": "mapping",
						"key": "t_address",
						"label": "mapping(address => struct voter)",
						"numberOfBytes": "32",
						"value": "t_struct(voter)1053_storage"
					},
					"t_string_storage": {
						"encoding": "bytes",
						"label": "string",
						"numberOfBytes": "32"
					},
					"t_struct(coordinator)1064_storage": {
						"encoding": "inplace",
						"label": "struct coordinator",
						"members": [
							{
								"astId": 1055,
								"contract": "register.sol:Voter",
								"label": "name",
								"offset": 0,
								"slot": "0",
								"type": "t_string_storage"
							},
							{
								"astId": 1057,
								"contract": "register.sol:Voter",
								"label": "cordID",
								"offset": 0,
								"slot": "1",
								"type": "t_string_storage"
							},
							{
								"astId": 1059,
								"contract": "register.sol:Voter",
								"label": "electionID",
								"offset": 0,
								"slot": "2",
								"type": "t_string_storage"
							},
							{
								"astId": 1061,
								"contract": "register.sol:Voter",
								"label": "adminAuth",
								"offset": 0,
								"slot": "3",
								"type": "t_bool"
							},
							{
								"astId": 1063,
								"contract": "register.sol:Voter",
								"label": "voterAddress",
								"offset": 1,
								"slot": "3",
								"type": "t_address"
							}
						],
						"numberOfBytes": "128"
					},
					"t_struct(voter)1053_storage": {
						"encoding": "inplace",
						"label": "struct voter",
						"members": [
							{
								"astId": 1044,
								"contract": "register.sol:Voter",
								"label": "name",
								"offset": 0,
								"slot": "0",
								"type": "t_string_storage"
							},
							{
								"astId": 1046,
								"contract": "register.sol:Voter",
								"label": "age",
								"offset": 0,
								"slot": "1",
								"type": "t_uint256"
							},
							{
								"astId": 1048,
								"contract": "register.sol:Voter",
								"label": "voterID",
								"offset": 0,
								"slot": "2",
								"type": "t_string_storage"
							},
							{
								"astId": 1050,
								"contract": "register.sol:Voter",
								"label": "canApplyToVote",
								"offset": 0,
								"slot": "3",
								"type": "t_bool"
							},
							{
								"astId": 1052,
								"contract": "register.sol:Voter",
								"label": "voterAddress",
								"offset": 1,
								"slot": "3",
								"type": "t_address"
							}
						],
						"numberOfBytes": "128"
					},
					"t_uint256": {
						"encoding": "inplace",
						"label": "uint256",
						"numberOfBytes": "32"
					}
				}
			},
			"userdoc": {
				"kind": "user",
				"methods": {},
				"version": 1
			}
		}
	}
}