{
	"register.sol": {
		"Voter": {
			"abi": [
				{
					"inputs": [],
					"stateMutability": "nonpayable",
					"type": "constructor"
				},
				{
					"inputs": [],
					"name": "contractOwner",
					"outputs": [
						{
							"internalType": "address",
							"name": "",
							"type": "address"
						}
					],
					"stateMutability": "view",
					"type": "function"
				},
				{
					"inputs": [],
					"name": "electionCordinator",
					"outputs": [
						{
							"internalType": "address",
							"name": "",
							"type": "address"
						}
					],
					"stateMutability": "view",
					"type": "function"
				},
				{
					"inputs": [
						{
							"internalType": "string",
							"name": "name",
							"type": "string"
						},
						{
							"internalType": "uint256",
							"name": "age",
							"type": "uint256"
						}
					],
					"name": "registerDetails",
					"outputs": [
						{
							"components": [
								{
									"internalType": "string",
									"name": "name",
									"type": "string"
								},
								{
									"internalType": "uint256",
									"name": "age",
									"type": "uint256"
								},
								{
									"internalType": "string",
									"name": "voterID",
									"type": "string"
								},
								{
									"internalType": "bool",
									"name": "hasRightToVote",
									"type": "bool"
								}
							],
							"internalType": "struct voter",
							"name": "",
							"type": "tuple"
						}
					],
					"stateMutability": "nonpayable",
					"type": "function"
				},
				{
					"inputs": [
						{
							"internalType": "address",
							"name": "",
							"type": "address"
						}
					],
					"name": "voters",
					"outputs": [
						{
							"internalType": "string",
							"name": "name",
							"type": "string"
						},
						{
							"internalType": "uint256",
							"name": "age",
							"type": "uint256"
						},
						{
							"internalType": "string",
							"name": "voterID",
							"type": "string"
						},
						{
							"internalType": "bool",
							"name": "hasRightToVote",
							"type": "bool"
						}
					],
					"stateMutability": "view",
					"type": "function"
				}
			],
			"devdoc": {
				"kind": "dev",
				"methods": {},
				"version": 1
			},
			"evm": {
				"assembly": "    /* \"register.sol\":1359:2102  contract Voter{... */\n  mstore(0x40, 0x80)\n    /* \"register.sol\":1519:1598  constructor(){ ... */\n  callvalue\n  dup1\n  iszero\n  tag_1\n  jumpi\n  0x00\n  dup1\n  revert\ntag_1:\n  pop\n    /* \"register.sol\":1559:1569  msg.sender */\n  caller\n    /* \"register.sol\":1543:1556  contractOwner */\n  0x01\n  0x00\n    /* \"register.sol\":1543:1569  contractOwner = msg.sender */\n  0x0100\n  exp\n  dup2\n  sload\n  dup2\n  0xffffffffffffffffffffffffffffffffffffffff\n  mul\n  not\n  and\n  swap1\n  dup4\n  0xffffffffffffffffffffffffffffffffffffffff\n  and\n  mul\n  or\n  swap1\n  sstore\n  pop\n    /* \"register.sol\":1590:1591  1 */\n  0x01\n    /* \"register.sol\":1579:1587  regCount */\n  0x02\n    /* \"register.sol\":1579:1591  regCount = 1 */\n  dup2\n  swap1\n  sstore\n  pop\n    /* \"register.sol\":1359:2102  contract Voter{... */\n  dataSize(sub_0)\n  dup1\n  dataOffset(sub_0)\n  0x00\n  codecopy\n  0x00\n  return\nstop\n\nsub_0: assembly {\n        /* \"register.sol\":1359:2102  contract Voter{... */\n      mstore(0x40, 0x80)\n      callvalue\n      dup1\n      iszero\n      tag_1\n      jumpi\n      0x00\n      dup1\n      revert\n    tag_1:\n      pop\n      jumpi(tag_2, lt(calldatasize, 0x04))\n      shr(0xe0, calldataload(0x00))\n      dup1\n      0x7151ace2\n      eq\n      tag_3\n      jumpi\n      dup1\n      0xa3ec138d\n      eq\n      tag_4\n      jumpi\n      dup1\n      0xc0264d3a\n      eq\n      tag_5\n      jumpi\n      dup1\n      0xce606ee0\n      eq\n      tag_6\n      jumpi\n    tag_2:\n      0x00\n      dup1\n      revert\n        /* \"register.sol\":1380:1413  address public electionCordinator */\n    tag_3:\n      tag_7\n      tag_8\n      jump\t// in\n    tag_7:\n      mload(0x40)\n      tag_9\n      swap2\n      swap1\n      tag_10\n      jump\t// in\n    tag_9:\n      mload(0x40)\n      dup1\n      swap2\n      sub\n      swap1\n      return\n        /* \"register.sol\":1472:1512  mapping( address => voter) public voters */\n    tag_4:\n      tag_11\n      0x04\n      dup1\n      calldatasize\n      sub\n      dup2\n      add\n      swap1\n      tag_12\n      swap2\n      swap1\n      tag_13\n      jump\t// in\n    tag_12:\n      tag_14\n      jump\t// in\n    tag_11:\n      mload(0x40)\n      tag_15\n      swap5\n      swap4\n      swap3\n      swap2\n      swap1\n      tag_16\n      jump\t// in\n    tag_15:\n      mload(0x40)\n      dup1\n      swap2\n      sub\n      swap1\n      return\n        /* \"register.sol\":1604:2036  function registerDetails(string calldata name, uint age) public returns (voter memory) {... */\n    tag_5:\n      tag_17\n      0x04\n      dup1\n      calldatasize\n      sub\n      dup2\n      add\n      swap1\n      tag_18\n      swap2\n      swap1\n      tag_19\n      jump\t// in\n    tag_18:\n      tag_20\n      jump\t// in\n    tag_17:\n      mload(0x40)\n      tag_21\n      swap2\n      swap1\n      tag_22\n      jump\t// in\n    tag_21:\n      mload(0x40)\n      dup1\n      swap2\n      sub\n      swap1\n      return\n        /* \"register.sol\":1419:1447  address public contractOwner */\n    tag_6:\n      tag_23\n      tag_24\n      jump\t// in\n    tag_23:\n      mload(0x40)\n      tag_25\n      swap2\n      swap1\n      tag_10\n      jump\t// in\n    tag_25:\n      mload(0x40)\n      dup1\n      swap2\n      sub\n      swap1\n      return\n        /* \"register.sol\":1380:1413  address public electionCordinator */\n    tag_8:\n      0x00\n      dup1\n      sload\n      swap1\n      0x0100\n      exp\n      swap1\n      div\n      0xffffffffffffffffffffffffffffffffffffffff\n      and\n      dup2\n      jump\t// out\n        /* \"register.sol\":1472:1512  mapping( address => voter) public voters */\n    tag_14:\n      mstore(0x20, 0x03)\n      dup1\n      0x00\n      mstore\n      keccak256(0x00, 0x40)\n      0x00\n      swap2\n      pop\n      swap1\n      pop\n      dup1\n      0x00\n      add\n      dup1\n      sload\n      tag_26\n      swap1\n      tag_27\n      jump\t// in\n    tag_26:\n      dup1\n      0x1f\n      add\n      0x20\n      dup1\n      swap2\n      div\n      mul\n      0x20\n      add\n      mload(0x40)\n      swap1\n      dup2\n      add\n      0x40\n      mstore\n      dup1\n      swap3\n      swap2\n      swap1\n      dup2\n      dup2\n      mstore\n      0x20\n      add\n      dup3\n      dup1\n      sload\n      tag_28\n      swap1\n      tag_27\n      jump\t// in\n    tag_28:\n      dup1\n      iszero\n      tag_29\n      jumpi\n      dup1\n      0x1f\n      lt\n      tag_30\n      jumpi\n      0x0100\n      dup1\n      dup4\n      sload\n      div\n      mul\n      dup4\n      mstore\n      swap2\n      0x20\n      add\n      swap2\n      jump(tag_29)\n    tag_30:\n      dup3\n      add\n      swap2\n      swap1\n      0x00\n      mstore\n      keccak256(0x00, 0x20)\n      swap1\n    tag_31:\n      dup2\n      sload\n      dup2\n      mstore\n      swap1\n      0x01\n      add\n      swap1\n      0x20\n      add\n      dup1\n      dup4\n      gt\n      tag_31\n      jumpi\n      dup3\n      swap1\n      sub\n      0x1f\n      and\n      dup3\n      add\n      swap2\n    tag_29:\n      pop\n      pop\n      pop\n      pop\n      pop\n      swap1\n      dup1\n      0x01\n      add\n      sload\n      swap1\n      dup1\n      0x02\n      add\n      dup1\n      sload\n      tag_32\n      swap1\n      tag_27\n      jump\t// in\n    tag_32:\n      dup1\n      0x1f\n      add\n      0x20\n      dup1\n      swap2\n      div\n      mul\n      0x20\n      add\n      mload(0x40)\n      swap1\n      dup2\n      add\n      0x40\n      mstore\n      dup1\n      swap3\n      swap2\n      swap1\n      dup2\n      dup2\n      mstore\n      0x20\n      add\n      dup3\n      dup1\n      sload\n      tag_33\n      swap1\n      tag_27\n      jump\t// in\n    tag_33:\n      dup1\n      iszero\n      tag_34\n      jumpi\n      dup1\n      0x1f\n      lt\n      tag_35\n      jumpi\n      0x0100\n      dup1\n      dup4\n      sload\n      div\n      mul\n      dup4\n      mstore\n      swap2\n      0x20\n      add\n      swap2\n      jump(tag_34)\n    tag_35:\n      dup3\n      add\n      swap2\n      swap1\n      0x00\n      mstore\n      keccak256(0x00, 0x20)\n      swap1\n    tag_36:\n      dup2\n      sload\n      dup2\n      mstore\n      swap1\n      0x01\n      add\n      swap1\n      0x20\n      add\n      dup1\n      dup4\n      gt\n      tag_36\n      jumpi\n      dup3\n      swap1\n      sub\n      0x1f\n      and\n      dup3\n      add\n      swap2\n    tag_34:\n      pop\n      pop\n      pop\n      pop\n      pop\n      swap1\n      dup1\n      0x03\n      add\n      0x00\n      swap1\n      sload\n      swap1\n      0x0100\n      exp\n      swap1\n      div\n      0xff\n      and\n      swap1\n      pop\n      dup5\n      jump\t// out\n        /* \"register.sol\":1604:2036  function registerDetails(string calldata name, uint age) public returns (voter memory) {... */\n    tag_20:\n        /* \"register.sol\":1677:1689  voter memory */\n      tag_37\n      tag_38\n      jump\t// in\n    tag_37:\n        /* \"register.sol\":1715:1717  17 */\n      0x11\n        /* \"register.sol\":1709:1712  age */\n      dup3\n        /* \"register.sol\":1709:1717  age > 17 */\n      gt\n        /* \"register.sol\":1701:1742  require(age > 17, \"not eligible to vote\") */\n      tag_40\n      jumpi\n      mload(0x40)\n      0x08c379a000000000000000000000000000000000000000000000000000000000\n      dup2\n      mstore\n      0x04\n      add\n      tag_41\n      swap1\n      tag_42\n      jump\t// in\n    tag_41:\n      mload(0x40)\n      dup1\n      swap2\n      sub\n      swap1\n      revert\n    tag_40:\n        /* \"register.sol\":1786:1787  0 */\n      0x00\n        /* \"register.sol\":1760:1766  voters */\n      0x03\n        /* \"register.sol\":1760:1778  voters[msg.sender] */\n      0x00\n        /* \"register.sol\":1767:1777  msg.sender */\n      caller\n        /* \"register.sol\":1760:1778  voters[msg.sender] */\n      0xffffffffffffffffffffffffffffffffffffffff\n      and\n      0xffffffffffffffffffffffffffffffffffffffff\n      and\n      dup2\n      mstore\n      0x20\n      add\n      swap1\n      dup2\n      mstore\n      0x20\n      add\n      0x00\n      keccak256\n        /* \"register.sol\":1760:1782  voters[msg.sender].age */\n      0x01\n      add\n      sload\n        /* \"register.sol\":1760:1787  voters[msg.sender].age == 0 */\n      eq\n        /* \"register.sol\":1752:1824  require(voters[msg.sender].age == 0, \"This address has been registered\") */\n      tag_43\n      jumpi\n      mload(0x40)\n      0x08c379a000000000000000000000000000000000000000000000000000000000\n      dup2\n      mstore\n      0x04\n      add\n      tag_44\n      swap1\n      tag_45\n      jump\t// in\n    tag_44:\n      mload(0x40)\n      dup1\n      swap2\n      sub\n      swap1\n      revert\n    tag_43:\n        /* \"register.sol\":1835:1856  string memory voterID */\n      0x00\n        /* \"register.sol\":1879:1905  Strings.toString(regCount) */\n      tag_46\n        /* \"register.sol\":1896:1904  regCount */\n      sload(0x02)\n        /* \"register.sol\":1879:1895  Strings.toString */\n      tag_47\n        /* \"register.sol\":1879:1905  Strings.toString(regCount) */\n      jump\t// in\n    tag_46:\n        /* \"register.sol\":1859:1906  string.concat(\"NIG\",Strings.toString(regCount)) */\n      add(0x20, mload(0x40))\n      tag_48\n      swap2\n      swap1\n      tag_49\n      jump\t// in\n    tag_48:\n      mload(0x40)\n      0x20\n      dup2\n      dup4\n      sub\n      sub\n      dup2\n      mstore\n      swap1\n      0x40\n      mstore\n        /* \"register.sol\":1835:1906  string memory voterID = string.concat(\"NIG\",Strings.toString(regCount)) */\n      swap1\n      pop\n        /* \"register.sol\":1938:1969  voter(name, age, voterID,false) */\n      mload(0x40)\n      dup1\n      0x80\n      add\n      0x40\n      mstore\n      dup1\n        /* \"register.sol\":1944:1948  name */\n      dup7\n      dup7\n        /* \"register.sol\":1938:1969  voter(name, age, voterID,false) */\n      dup1\n      dup1\n      0x1f\n      add\n      0x20\n      dup1\n      swap2\n      div\n      mul\n      0x20\n      add\n      mload(0x40)\n      swap1\n      dup2\n      add\n      0x40\n      mstore\n      dup1\n      swap4\n      swap3\n      swap2\n      swap1\n      dup2\n      dup2\n      mstore\n      0x20\n      add\n      dup4\n      dup4\n      dup1\n      dup3\n      dup5\n      calldatacopy\n      0x00\n      dup2\n      dup5\n      add\n      mstore\n      not(0x1f)\n      0x1f\n      dup3\n      add\n      and\n      swap1\n      pop\n      dup1\n      dup4\n      add\n      swap3\n      pop\n      pop\n      pop\n      pop\n      pop\n      pop\n      pop\n      dup2\n      mstore\n      0x20\n      add\n        /* \"register.sol\":1950:1953  age */\n      dup5\n        /* \"register.sol\":1938:1969  voter(name, age, voterID,false) */\n      dup2\n      mstore\n      0x20\n      add\n        /* \"register.sol\":1955:1962  voterID */\n      dup3\n        /* \"register.sol\":1938:1969  voter(name, age, voterID,false) */\n      dup2\n      mstore\n      0x20\n      add\n        /* \"register.sol\":1963:1968  false */\n      0x00\n        /* \"register.sol\":1938:1969  voter(name, age, voterID,false) */\n      iszero\n      iszero\n      dup2\n      mstore\n      pop\n        /* \"register.sol\":1917:1923  voters */\n      0x03\n        /* \"register.sol\":1917:1935  voters[msg.sender] */\n      0x00\n        /* \"register.sol\":1924:1934  msg.sender */\n      caller\n        /* \"register.sol\":1917:1935  voters[msg.sender] */\n      0xffffffffffffffffffffffffffffffffffffffff\n      and\n      0xffffffffffffffffffffffffffffffffffffffff\n      and\n      dup2\n      mstore\n      0x20\n      add\n      swap1\n      dup2\n      mstore\n      0x20\n      add\n      0x00\n      keccak256\n        /* \"register.sol\":1917:1969  voters[msg.sender] = voter(name, age, voterID,false) */\n      0x00\n      dup3\n      add\n      mload\n      dup2\n      0x00\n      add\n      swap1\n      dup2\n      tag_50\n      swap2\n      swap1\n      tag_51\n      jump\t// in\n    tag_50:\n      pop\n      0x20\n      dup3\n      add\n      mload\n      dup2\n      0x01\n      add\n      sstore\n      0x40\n      dup3\n      add\n      mload\n      dup2\n      0x02\n      add\n      swap1\n      dup2\n      tag_52\n      swap2\n      swap1\n      tag_51\n      jump\t// in\n    tag_52:\n      pop\n      0x60\n      dup3\n      add\n      mload\n      dup2\n      0x03\n      add\n      exp(0x0100, 0x00)\n      dup2\n      sload\n      dup2\n      0xff\n      mul\n      not\n      and\n      swap1\n      dup4\n      iszero\n      iszero\n      mul\n      or\n      swap1\n      sstore\n      pop\n      swap1\n      pop\n      pop\n        /* \"register.sol\":1992:1993  1 */\n      0x01\n        /* \"register.sol\":1980:1988  regCount */\n      0x02\n      0x00\n        /* \"register.sol\":1980:1993  regCount += 1 */\n      dup3\n      dup3\n      sload\n      tag_53\n      swap2\n      swap1\n      tag_54\n      jump\t// in\n    tag_53:\n      swap3\n      pop\n      pop\n      dup2\n      swap1\n      sstore\n      pop\n        /* \"register.sol\":2011:2017  voters */\n      0x03\n        /* \"register.sol\":2011:2029  voters[msg.sender] */\n      0x00\n        /* \"register.sol\":2018:2028  msg.sender */\n      caller\n        /* \"register.sol\":2011:2029  voters[msg.sender] */\n      0xffffffffffffffffffffffffffffffffffffffff\n      and\n      0xffffffffffffffffffffffffffffffffffffffff\n      and\n      dup2\n      mstore\n      0x20\n      add\n      swap1\n      dup2\n      mstore\n      0x20\n      add\n      0x00\n      keccak256\n        /* \"register.sol\":2004:2029  return voters[msg.sender] */\n      mload(0x40)\n      dup1\n      0x80\n      add\n      0x40\n      mstore\n      swap1\n      dup2\n      0x00\n      dup3\n      add\n      dup1\n      sload\n      tag_55\n      swap1\n      tag_27\n      jump\t// in\n    tag_55:\n      dup1\n      0x1f\n      add\n      0x20\n      dup1\n      swap2\n      div\n      mul\n      0x20\n      add\n      mload(0x40)\n      swap1\n      dup2\n      add\n      0x40\n      mstore\n      dup1\n      swap3\n      swap2\n      swap1\n      dup2\n      dup2\n      mstore\n      0x20\n      add\n      dup3\n      dup1\n      sload\n      tag_56\n      swap1\n      tag_27\n      jump\t// in\n    tag_56:\n      dup1\n      iszero\n      tag_57\n      jumpi\n      dup1\n      0x1f\n      lt\n      tag_58\n      jumpi\n      0x0100\n      dup1\n      dup4\n      sload\n      div\n      mul\n      dup4\n      mstore\n      swap2\n      0x20\n      add\n      swap2\n      jump(tag_57)\n    tag_58:\n      dup3\n      add\n      swap2\n      swap1\n      0x00\n      mstore\n      keccak256(0x00, 0x20)\n      swap1\n    tag_59:\n      dup2\n      sload\n      dup2\n      mstore\n      swap1\n      0x01\n      add\n      swap1\n      0x20\n      add\n      dup1\n      dup4\n      gt\n      tag_59\n      jumpi\n      dup3\n      swap1\n      sub\n      0x1f\n      and\n      dup3\n      add\n      swap2\n    tag_57:\n      pop\n      pop\n      pop\n      pop\n      pop\n      dup2\n      mstore\n      0x20\n      add\n      0x01\n      dup3\n      add\n      sload\n      dup2\n      mstore\n      0x20\n      add\n      0x02\n      dup3\n      add\n      dup1\n      sload\n      tag_60\n      swap1\n      tag_27\n      jump\t// in\n    tag_60:\n      dup1\n      0x1f\n      add\n      0x20\n      dup1\n      swap2\n      div\n      mul\n      0x20\n      add\n      mload(0x40)\n      swap1\n      dup2\n      add\n      0x40\n      mstore\n      dup1\n      swap3\n      swap2\n      swap1\n      dup2\n      dup2\n      mstore\n      0x20\n      add\n      dup3\n      dup1\n      sload\n      tag_61\n      swap1\n      tag_27\n      jump\t// in\n    tag_61:\n      dup1\n      iszero\n      tag_62\n      jumpi\n      dup1\n      0x1f\n      lt\n      tag_63\n      jumpi\n      0x0100\n      dup1\n      dup4\n      sload\n      div\n      mul\n      dup4\n      mstore\n      swap2\n      0x20\n      add\n      swap2\n      jump(tag_62)\n    tag_63:\n      dup3\n      add\n      swap2\n      swap1\n      0x00\n      mstore\n      keccak256(0x00, 0x20)\n      swap1\n    tag_64:\n      dup2\n      sload\n      dup2\n      mstore\n      swap1\n      0x01\n      add\n      swap1\n      0x20\n      add\n      dup1\n      dup4\n      gt\n      tag_64\n      jumpi\n      dup3\n      swap1\n      sub\n      0x1f\n      and\n      dup3\n      add\n      swap2\n    tag_62:\n      pop\n      pop\n      pop\n      pop\n      pop\n      dup2\n      mstore\n      0x20\n      add\n      0x03\n      dup3\n      add\n      0x00\n      swap1\n      sload\n      swap1\n      0x0100\n      exp\n      swap1\n      div\n      0xff\n      and\n      iszero\n      iszero\n      iszero\n      iszero\n      dup2\n      mstore\n      pop\n      pop\n      swap2\n      pop\n      pop\n        /* \"register.sol\":1604:2036  function registerDetails(string calldata name, uint age) public returns (voter memory) {... */\n      swap4\n      swap3\n      pop\n      pop\n      pop\n      jump\t// out\n        /* \"register.sol\":1419:1447  address public contractOwner */\n    tag_24:\n      0x01\n      0x00\n      swap1\n      sload\n      swap1\n      0x0100\n      exp\n      swap1\n      div\n      0xffffffffffffffffffffffffffffffffffffffff\n      and\n      dup2\n      jump\t// out\n        /* \"@openzeppelin/contracts/utils/Strings.sol\":415:1111  function toString(uint256 value) internal pure returns (string memory) {... */\n    tag_47:\n        /* \"@openzeppelin/contracts/utils/Strings.sol\":471:484  string memory */\n      0x60\n        /* \"@openzeppelin/contracts/utils/Strings.sol\":520:534  uint256 length */\n      0x00\n        /* \"@openzeppelin/contracts/utils/Strings.sol\":557:558  1 */\n      0x01\n        /* \"@openzeppelin/contracts/utils/Strings.sol\":537:554  Math.log10(value) */\n      tag_66\n        /* \"@openzeppelin/contracts/utils/Strings.sol\":548:553  value */\n      dup5\n        /* \"@openzeppelin/contracts/utils/Strings.sol\":537:547  Math.log10 */\n      tag_67\n        /* \"@openzeppelin/contracts/utils/Strings.sol\":537:554  Math.log10(value) */\n      jump\t// in\n    tag_66:\n        /* \"@openzeppelin/contracts/utils/Strings.sol\":537:558  Math.log10(value) + 1 */\n      add\n        /* \"@openzeppelin/contracts/utils/Strings.sol\":520:558  uint256 length = Math.log10(value) + 1 */\n      swap1\n      pop\n        /* \"@openzeppelin/contracts/utils/Strings.sol\":572:592  string memory buffer */\n      0x00\n        /* \"@openzeppelin/contracts/utils/Strings.sol\":606:612  length */\n      dup2\n        /* \"@openzeppelin/contracts/utils/Strings.sol\":595:613  new string(length) */\n      0xffffffffffffffff\n      dup2\n      gt\n      iszero\n      tag_68\n      jumpi\n      tag_69\n      tag_70\n      jump\t// in\n    tag_69:\n    tag_68:\n      mload(0x40)\n      swap1\n      dup1\n      dup3\n      mstore\n      dup1\n      0x1f\n      add\n      not(0x1f)\n      and\n      0x20\n      add\n      dup3\n      add\n      0x40\n      mstore\n      dup1\n      iszero\n      tag_71\n      jumpi\n      dup2\n      0x20\n      add\n      0x01\n      dup3\n      mul\n      dup1\n      calldatasize\n      dup4\n      calldatacopy\n      dup1\n      dup3\n      add\n      swap2\n      pop\n      pop\n      swap1\n      pop\n    tag_71:\n      pop\n        /* \"@openzeppelin/contracts/utils/Strings.sol\":572:613  string memory buffer = new string(length) */\n      swap1\n      pop\n        /* \"@openzeppelin/contracts/utils/Strings.sol\":627:638  uint256 ptr */\n      0x00\n        /* \"@openzeppelin/contracts/utils/Strings.sol\":753:759  length */\n      dup3\n        /* \"@openzeppelin/contracts/utils/Strings.sol\":749:751  32 */\n      0x20\n        /* \"@openzeppelin/contracts/utils/Strings.sol\":745:760  add(32, length) */\n      add\n        /* \"@openzeppelin/contracts/utils/Strings.sol\":737:743  buffer */\n      dup3\n        /* \"@openzeppelin/contracts/utils/Strings.sol\":733:761  add(buffer, add(32, length)) */\n      add\n        /* \"@openzeppelin/contracts/utils/Strings.sol\":726:761  ptr := add(buffer, add(32, length)) */\n      swap1\n      pop\n        /* \"@openzeppelin/contracts/utils/Strings.sol\":788:1068  while (true) {... */\n    tag_72:\n        /* \"@openzeppelin/contracts/utils/Strings.sol\":795:799  true */\n      0x01\n        /* \"@openzeppelin/contracts/utils/Strings.sol\":788:1068  while (true) {... */\n      iszero\n      tag_73\n      jumpi\n        /* \"@openzeppelin/contracts/utils/Strings.sol\":819:824  ptr-- */\n      dup1\n      dup1\n      0x01\n      swap1\n      sub\n      swap2\n      pop\n      pop\n        /* \"@openzeppelin/contracts/utils/Strings.sol\":958:966  _SYMBOLS */\n      0x3031323334353637383961626364656600000000000000000000000000000000\n        /* \"@openzeppelin/contracts/utils/Strings.sol\":953:955  10 */\n      0x0a\n        /* \"@openzeppelin/contracts/utils/Strings.sol\":946:951  value */\n      dup7\n        /* \"@openzeppelin/contracts/utils/Strings.sol\":942:956  mod(value, 10) */\n      mod\n        /* \"@openzeppelin/contracts/utils/Strings.sol\":937:967  byte(mod(value, 10), _SYMBOLS) */\n      byte\n        /* \"@openzeppelin/contracts/utils/Strings.sol\":932:935  ptr */\n      dup2\n        /* \"@openzeppelin/contracts/utils/Strings.sol\":924:968  mstore8(ptr, byte(mod(value, 10), _SYMBOLS)) */\n      mstore8\n        /* \"@openzeppelin/contracts/utils/Strings.sol\":1012:1014  10 */\n      0x0a\n        /* \"@openzeppelin/contracts/utils/Strings.sol\":1003:1014  value /= 10 */\n      dup6\n      dup2\n      tag_74\n      jumpi\n      tag_75\n      tag_76\n      jump\t// in\n    tag_75:\n    tag_74:\n      div\n      swap5\n      pop\n        /* \"@openzeppelin/contracts/utils/Strings.sol\":1045:1046  0 */\n      0x00\n        /* \"@openzeppelin/contracts/utils/Strings.sol\":1036:1041  value */\n      dup6\n        /* \"@openzeppelin/contracts/utils/Strings.sol\":1036:1046  value == 0 */\n      sub\n        /* \"@openzeppelin/contracts/utils/Strings.sol\":788:1068  while (true) {... */\n      tag_72\n        /* \"@openzeppelin/contracts/utils/Strings.sol\":1032:1053  if (value == 0) break */\n      jumpi\n        /* \"@openzeppelin/contracts/utils/Strings.sol\":788:1068  while (true) {... */\n    tag_73:\n        /* \"@openzeppelin/contracts/utils/Strings.sol\":1088:1094  buffer */\n      dup2\n        /* \"@openzeppelin/contracts/utils/Strings.sol\":1081:1094  return buffer */\n      swap4\n      pop\n      pop\n      pop\n      pop\n        /* \"@openzeppelin/contracts/utils/Strings.sol\":415:1111  function toString(uint256 value) internal pure returns (string memory) {... */\n      swap2\n      swap1\n      pop\n      jump\t// out\n        /* \"@openzeppelin/contracts/utils/math/Math.sol\":9889:10779  function log10(uint256 value) internal pure returns (uint256) {... */\n    tag_67:\n        /* \"@openzeppelin/contracts/utils/math/Math.sol\":9942:9949  uint256 */\n      0x00\n        /* \"@openzeppelin/contracts/utils/math/Math.sol\":9961:9975  uint256 result */\n      dup1\n        /* \"@openzeppelin/contracts/utils/math/Math.sol\":9978:9979  0 */\n      0x00\n        /* \"@openzeppelin/contracts/utils/math/Math.sol\":9961:9979  uint256 result = 0 */\n      swap1\n      pop\n        /* \"@openzeppelin/contracts/utils/math/Math.sol\":10026:10032  10**64 */\n      0x184f03e93ff9f4daa797ed6e38ed64bf6a1f010000000000000000\n        /* \"@openzeppelin/contracts/utils/math/Math.sol\":10017:10022  value */\n      dup4\n        /* \"@openzeppelin/contracts/utils/math/Math.sol\":10017:10032  value >= 10**64 */\n      lt\n        /* \"@openzeppelin/contracts/utils/math/Math.sol\":10013:10112  if (value >= 10**64) {... */\n      tag_79\n      jumpi\n        /* \"@openzeppelin/contracts/utils/math/Math.sol\":10061:10067  10**64 */\n      0x184f03e93ff9f4daa797ed6e38ed64bf6a1f010000000000000000\n        /* \"@openzeppelin/contracts/utils/math/Math.sol\":10052:10067  value /= 10**64 */\n      dup4\n      dup2\n      tag_80\n      jumpi\n      tag_81\n      tag_76\n      jump\t// in\n    tag_81:\n    tag_80:\n      div\n      swap3\n      pop\n        /* \"@openzeppelin/contracts/utils/math/Math.sol\":10095:10097  64 */\n      0x40\n        /* \"@openzeppelin/contracts/utils/math/Math.sol\":10085:10097  result += 64 */\n      dup2\n      add\n      swap1\n      pop\n        /* \"@openzeppelin/contracts/utils/math/Math.sol\":10013:10112  if (value >= 10**64) {... */\n    tag_79:\n        /* \"@openzeppelin/contracts/utils/math/Math.sol\":10138:10144  10**32 */\n      0x04ee2d6d415b85acef8100000000\n        /* \"@openzeppelin/contracts/utils/math/Math.sol\":10129:10134  value */\n      dup4\n        /* \"@openzeppelin/contracts/utils/math/Math.sol\":10129:10144  value >= 10**32 */\n      lt\n        /* \"@openzeppelin/contracts/utils/math/Math.sol\":10125:10224  if (value >= 10**32) {... */\n      tag_82\n      jumpi\n        /* \"@openzeppelin/contracts/utils/math/Math.sol\":10173:10179  10**32 */\n      0x04ee2d6d415b85acef8100000000\n        /* \"@openzeppelin/contracts/utils/math/Math.sol\":10164:10179  value /= 10**32 */\n      dup4\n      dup2\n      tag_83\n      jumpi\n      tag_84\n      tag_76\n      jump\t// in\n    tag_84:\n    tag_83:\n      div\n      swap3\n      pop\n        /* \"@openzeppelin/contracts/utils/math/Math.sol\":10207:10209  32 */\n      0x20\n        /* \"@openzeppelin/contracts/utils/math/Math.sol\":10197:10209  result += 32 */\n      dup2\n      add\n      swap1\n      pop\n        /* \"@openzeppelin/contracts/utils/math/Math.sol\":10125:10224  if (value >= 10**32) {... */\n    tag_82:\n        /* \"@openzeppelin/contracts/utils/math/Math.sol\":10250:10256  10**16 */\n      0x2386f26fc10000\n        /* \"@openzeppelin/contracts/utils/math/Math.sol\":10241:10246  value */\n      dup4\n        /* \"@openzeppelin/contracts/utils/math/Math.sol\":10241:10256  value >= 10**16 */\n      lt\n        /* \"@openzeppelin/contracts/utils/math/Math.sol\":10237:10336  if (value >= 10**16) {... */\n      tag_85\n      jumpi\n        /* \"@openzeppelin/contracts/utils/math/Math.sol\":10285:10291  10**16 */\n      0x2386f26fc10000\n        /* \"@openzeppelin/contracts/utils/math/Math.sol\":10276:10291  value /= 10**16 */\n      dup4\n      dup2\n      tag_86\n      jumpi\n      tag_87\n      tag_76\n      jump\t// in\n    tag_87:\n    tag_86:\n      div\n      swap3\n      pop\n        /* \"@openzeppelin/contracts/utils/math/Math.sol\":10319:10321  16 */\n      0x10\n        /* \"@openzeppelin/contracts/utils/math/Math.sol\":10309:10321  result += 16 */\n      dup2\n      add\n      swap1\n      pop\n        /* \"@openzeppelin/contracts/utils/math/Math.sol\":10237:10336  if (value >= 10**16) {... */\n    tag_85:\n        /* \"@openzeppelin/contracts/utils/math/Math.sol\":10362:10367  10**8 */\n      0x05f5e100\n        /* \"@openzeppelin/contracts/utils/math/Math.sol\":10353:10358  value */\n      dup4\n        /* \"@openzeppelin/contracts/utils/math/Math.sol\":10353:10367  value >= 10**8 */\n      lt\n        /* \"@openzeppelin/contracts/utils/math/Math.sol\":10349:10445  if (value >= 10**8) {... */\n      tag_88\n      jumpi\n        /* \"@openzeppelin/contracts/utils/math/Math.sol\":10396:10401  10**8 */\n      0x05f5e100\n        /* \"@openzeppelin/contracts/utils/math/Math.sol\":10387:10401  value /= 10**8 */\n      dup4\n      dup2\n      tag_89\n      jumpi\n      tag_90\n      tag_76\n      jump\t// in\n    tag_90:\n    tag_89:\n      div\n      swap3\n      pop\n        /* \"@openzeppelin/contracts/utils/math/Math.sol\":10429:10430  8 */\n      0x08\n        /* \"@openzeppelin/contracts/utils/math/Math.sol\":10419:10430  result += 8 */\n      dup2\n      add\n      swap1\n      pop\n        /* \"@openzeppelin/contracts/utils/math/Math.sol\":10349:10445  if (value >= 10**8) {... */\n    tag_88:\n        /* \"@openzeppelin/contracts/utils/math/Math.sol\":10471:10476  10**4 */\n      0x2710\n        /* \"@openzeppelin/contracts/utils/math/Math.sol\":10462:10467  value */\n      dup4\n        /* \"@openzeppelin/contracts/utils/math/Math.sol\":10462:10476  value >= 10**4 */\n      lt\n        /* \"@openzeppelin/contracts/utils/math/Math.sol\":10458:10554  if (value >= 10**4) {... */\n      tag_91\n      jumpi\n        /* \"@openzeppelin/contracts/utils/math/Math.sol\":10505:10510  10**4 */\n      0x2710\n        /* \"@openzeppelin/contracts/utils/math/Math.sol\":10496:10510  value /= 10**4 */\n      dup4\n      dup2\n      tag_92\n      jumpi\n      tag_93\n      tag_76\n      jump\t// in\n    tag_93:\n    tag_92:\n      div\n      swap3\n      pop\n        /* \"@openzeppelin/contracts/utils/math/Math.sol\":10538:10539  4 */\n      0x04\n        /* \"@openzeppelin/contracts/utils/math/Math.sol\":10528:10539  result += 4 */\n      dup2\n      add\n      swap1\n      pop\n        /* \"@openzeppelin/contracts/utils/math/Math.sol\":10458:10554  if (value >= 10**4) {... */\n    tag_91:\n        /* \"@openzeppelin/contracts/utils/math/Math.sol\":10580:10585  10**2 */\n      0x64\n        /* \"@openzeppelin/contracts/utils/math/Math.sol\":10571:10576  value */\n      dup4\n        /* \"@openzeppelin/contracts/utils/math/Math.sol\":10571:10585  value >= 10**2 */\n      lt\n        /* \"@openzeppelin/contracts/utils/math/Math.sol\":10567:10663  if (value >= 10**2) {... */\n      tag_94\n      jumpi\n        /* \"@openzeppelin/contracts/utils/math/Math.sol\":10614:10619  10**2 */\n      0x64\n        /* \"@openzeppelin/contracts/utils/math/Math.sol\":10605:10619  value /= 10**2 */\n      dup4\n      dup2\n      tag_95\n      jumpi\n      tag_96\n      tag_76\n      jump\t// in\n    tag_96:\n    tag_95:\n      div\n      swap3\n      pop\n        /* \"@openzeppelin/contracts/utils/math/Math.sol\":10647:10648  2 */\n      0x02\n        /* \"@openzeppelin/contracts/utils/math/Math.sol\":10637:10648  result += 2 */\n      dup2\n      add\n      swap1\n      pop\n        /* \"@openzeppelin/contracts/utils/math/Math.sol\":10567:10663  if (value >= 10**2) {... */\n    tag_94:\n        /* \"@openzeppelin/contracts/utils/math/Math.sol\":10689:10694  10**1 */\n      0x0a\n        /* \"@openzeppelin/contracts/utils/math/Math.sol\":10680:10685  value */\n      dup4\n        /* \"@openzeppelin/contracts/utils/math/Math.sol\":10680:10694  value >= 10**1 */\n      lt\n        /* \"@openzeppelin/contracts/utils/math/Math.sol\":10676:10740  if (value >= 10**1) {... */\n      tag_97\n      jumpi\n        /* \"@openzeppelin/contracts/utils/math/Math.sol\":10724:10725  1 */\n      0x01\n        /* \"@openzeppelin/contracts/utils/math/Math.sol\":10714:10725  result += 1 */\n      dup2\n      add\n      swap1\n      pop\n        /* \"@openzeppelin/contracts/utils/math/Math.sol\":10676:10740  if (value >= 10**1) {... */\n    tag_97:\n        /* \"@openzeppelin/contracts/utils/math/Math.sol\":10766:10772  result */\n      dup1\n        /* \"@openzeppelin/contracts/utils/math/Math.sol\":10759:10772  return result */\n      swap2\n      pop\n      pop\n        /* \"@openzeppelin/contracts/utils/math/Math.sol\":9889:10779  function log10(uint256 value) internal pure returns (uint256) {... */\n      swap2\n      swap1\n      pop\n      jump\t// out\n    tag_38:\n      mload(0x40)\n      dup1\n      0x80\n      add\n      0x40\n      mstore\n      dup1\n      0x60\n      dup2\n      mstore\n      0x20\n      add\n      0x00\n      dup2\n      mstore\n      0x20\n      add\n      0x60\n      dup2\n      mstore\n      0x20\n      add\n      iszero(iszero(0x00))\n      dup2\n      mstore\n      pop\n      swap1\n      jump\t// out\n        /* \"#utility.yul\":7:133   */\n    tag_98:\n        /* \"#utility.yul\":44:51   */\n      0x00\n        /* \"#utility.yul\":84:126   */\n      0xffffffffffffffffffffffffffffffffffffffff\n        /* \"#utility.yul\":77:82   */\n      dup3\n        /* \"#utility.yul\":73:127   */\n      and\n        /* \"#utility.yul\":62:127   */\n      swap1\n      pop\n        /* \"#utility.yul\":7:133   */\n      swap2\n      swap1\n      pop\n      jump\t// out\n        /* \"#utility.yul\":139:235   */\n    tag_99:\n        /* \"#utility.yul\":176:183   */\n      0x00\n        /* \"#utility.yul\":205:229   */\n      tag_153\n        /* \"#utility.yul\":223:228   */\n      dup3\n        /* \"#utility.yul\":205:229   */\n      tag_98\n      jump\t// in\n    tag_153:\n        /* \"#utility.yul\":194:229   */\n      swap1\n      pop\n        /* \"#utility.yul\":139:235   */\n      swap2\n      swap1\n      pop\n      jump\t// out\n        /* \"#utility.yul\":241:359   */\n    tag_100:\n        /* \"#utility.yul\":328:352   */\n      tag_155\n        /* \"#utility.yul\":346:351   */\n      dup2\n        /* \"#utility.yul\":328:352   */\n      tag_99\n      jump\t// in\n    tag_155:\n        /* \"#utility.yul\":323:326   */\n      dup3\n        /* \"#utility.yul\":316:353   */\n      mstore\n        /* \"#utility.yul\":241:359   */\n      pop\n      pop\n      jump\t// out\n        /* \"#utility.yul\":365:587   */\n    tag_10:\n        /* \"#utility.yul\":458:462   */\n      0x00\n        /* \"#utility.yul\":496:498   */\n      0x20\n        /* \"#utility.yul\":485:494   */\n      dup3\n        /* \"#utility.yul\":481:499   */\n      add\n        /* \"#utility.yul\":473:499   */\n      swap1\n      pop\n        /* \"#utility.yul\":509:580   */\n      tag_157\n        /* \"#utility.yul\":577:578   */\n      0x00\n        /* \"#utility.yul\":566:575   */\n      dup4\n        /* \"#utility.yul\":562:579   */\n      add\n        /* \"#utility.yul\":553:559   */\n      dup5\n        /* \"#utility.yul\":509:580   */\n      tag_100\n      jump\t// in\n    tag_157:\n        /* \"#utility.yul\":365:587   */\n      swap3\n      swap2\n      pop\n      pop\n      jump\t// out\n        /* \"#utility.yul\":674:791   */\n    tag_102:\n        /* \"#utility.yul\":783:784   */\n      0x00\n        /* \"#utility.yul\":780:781   */\n      dup1\n        /* \"#utility.yul\":773:785   */\n      revert\n        /* \"#utility.yul\":797:914   */\n    tag_103:\n        /* \"#utility.yul\":906:907   */\n      0x00\n        /* \"#utility.yul\":903:904   */\n      dup1\n        /* \"#utility.yul\":896:908   */\n      revert\n        /* \"#utility.yul\":920:1042   */\n    tag_104:\n        /* \"#utility.yul\":993:1017   */\n      tag_162\n        /* \"#utility.yul\":1011:1016   */\n      dup2\n        /* \"#utility.yul\":993:1017   */\n      tag_99\n      jump\t// in\n    tag_162:\n        /* \"#utility.yul\":986:991   */\n      dup2\n        /* \"#utility.yul\":983:1018   */\n      eq\n        /* \"#utility.yul\":973:1036   */\n      tag_163\n      jumpi\n        /* \"#utility.yul\":1032:1033   */\n      0x00\n        /* \"#utility.yul\":1029:1030   */\n      dup1\n        /* \"#utility.yul\":1022:1034   */\n      revert\n        /* \"#utility.yul\":973:1036   */\n    tag_163:\n        /* \"#utility.yul\":920:1042   */\n      pop\n      jump\t// out\n        /* \"#utility.yul\":1048:1187   */\n    tag_105:\n        /* \"#utility.yul\":1094:1099   */\n      0x00\n        /* \"#utility.yul\":1132:1138   */\n      dup2\n        /* \"#utility.yul\":1119:1139   */\n      calldataload\n        /* \"#utility.yul\":1110:1139   */\n      swap1\n      pop\n        /* \"#utility.yul\":1148:1181   */\n      tag_165\n        /* \"#utility.yul\":1175:1180   */\n      dup2\n        /* \"#utility.yul\":1148:1181   */\n      tag_104\n      jump\t// in\n    tag_165:\n        /* \"#utility.yul\":1048:1187   */\n      swap3\n      swap2\n      pop\n      pop\n      jump\t// out\n        /* \"#utility.yul\":1193:1522   */\n    tag_13:\n        /* \"#utility.yul\":1252:1258   */\n      0x00\n        /* \"#utility.yul\":1301:1303   */\n      0x20\n        /* \"#utility.yul\":1289:1298   */\n      dup3\n        /* \"#utility.yul\":1280:1287   */\n      dup5\n        /* \"#utility.yul\":1276:1299   */\n      sub\n        /* \"#utility.yul\":1272:1304   */\n      slt\n        /* \"#utility.yul\":1269:1388   */\n      iszero\n      tag_167\n      jumpi\n        /* \"#utility.yul\":1307:1386   */\n      tag_168\n      tag_102\n      jump\t// in\n    tag_168:\n        /* \"#utility.yul\":1269:1388   */\n    tag_167:\n        /* \"#utility.yul\":1427:1428   */\n      0x00\n        /* \"#utility.yul\":1452:1505   */\n      tag_169\n        /* \"#utility.yul\":1497:1504   */\n      dup5\n        /* \"#utility.yul\":1488:1494   */\n      dup3\n        /* \"#utility.yul\":1477:1486   */\n      dup6\n        /* \"#utility.yul\":1473:1495   */\n      add\n        /* \"#utility.yul\":1452:1505   */\n      tag_105\n      jump\t// in\n    tag_169:\n        /* \"#utility.yul\":1442:1505   */\n      swap2\n      pop\n        /* \"#utility.yul\":1398:1515   */\n      pop\n        /* \"#utility.yul\":1193:1522   */\n      swap3\n      swap2\n      pop\n      pop\n      jump\t// out\n        /* \"#utility.yul\":1528:1627   */\n    tag_106:\n        /* \"#utility.yul\":1580:1586   */\n      0x00\n        /* \"#utility.yul\":1614:1619   */\n      dup2\n        /* \"#utility.yul\":1608:1620   */\n      mload\n        /* \"#utility.yul\":1598:1620   */\n      swap1\n      pop\n        /* \"#utility.yul\":1528:1627   */\n      swap2\n      swap1\n      pop\n      jump\t// out\n        /* \"#utility.yul\":1633:1802   */\n    tag_107:\n        /* \"#utility.yul\":1717:1728   */\n      0x00\n        /* \"#utility.yul\":1751:1757   */\n      dup3\n        /* \"#utility.yul\":1746:1749   */\n      dup3\n        /* \"#utility.yul\":1739:1758   */\n      mstore\n        /* \"#utility.yul\":1791:1795   */\n      0x20\n        /* \"#utility.yul\":1786:1789   */\n      dup3\n        /* \"#utility.yul\":1782:1796   */\n      add\n        /* \"#utility.yul\":1767:1796   */\n      swap1\n      pop\n        /* \"#utility.yul\":1633:1802   */\n      swap3\n      swap2\n      pop\n      pop\n      jump\t// out\n        /* \"#utility.yul\":1808:2054   */\n    tag_108:\n        /* \"#utility.yul\":1889:1890   */\n      0x00\n        /* \"#utility.yul\":1899:2012   */\n    tag_173:\n        /* \"#utility.yul\":1913:1919   */\n      dup4\n        /* \"#utility.yul\":1910:1911   */\n      dup2\n        /* \"#utility.yul\":1907:1920   */\n      lt\n        /* \"#utility.yul\":1899:2012   */\n      iszero\n      tag_175\n      jumpi\n        /* \"#utility.yul\":1998:1999   */\n      dup1\n        /* \"#utility.yul\":1993:1996   */\n      dup3\n        /* \"#utility.yul\":1989:2000   */\n      add\n        /* \"#utility.yul\":1983:2001   */\n      mload\n        /* \"#utility.yul\":1979:1980   */\n      dup2\n        /* \"#utility.yul\":1974:1977   */\n      dup5\n        /* \"#utility.yul\":1970:1981   */\n      add\n        /* \"#utility.yul\":1963:2002   */\n      mstore\n        /* \"#utility.yul\":1935:1937   */\n      0x20\n        /* \"#utility.yul\":1932:1933   */\n      dup2\n        /* \"#utility.yul\":1928:1938   */\n      add\n        /* \"#utility.yul\":1923:1938   */\n      swap1\n      pop\n        /* \"#utility.yul\":1899:2012   */\n      jump(tag_173)\n    tag_175:\n        /* \"#utility.yul\":2046:2047   */\n      0x00\n        /* \"#utility.yul\":2037:2043   */\n      dup5\n        /* \"#utility.yul\":2032:2035   */\n      dup5\n        /* \"#utility.yul\":2028:2044   */\n      add\n        /* \"#utility.yul\":2021:2048   */\n      mstore\n        /* \"#utility.yul\":1870:2054   */\n      pop\n        /* \"#utility.yul\":1808:2054   */\n      pop\n      pop\n      pop\n      jump\t// out\n        /* \"#utility.yul\":2060:2162   */\n    tag_109:\n        /* \"#utility.yul\":2101:2107   */\n      0x00\n        /* \"#utility.yul\":2152:2154   */\n      0x1f\n        /* \"#utility.yul\":2148:2155   */\n      not\n        /* \"#utility.yul\":2143:2145   */\n      0x1f\n        /* \"#utility.yul\":2136:2141   */\n      dup4\n        /* \"#utility.yul\":2132:2146   */\n      add\n        /* \"#utility.yul\":2128:2156   */\n      and\n        /* \"#utility.yul\":2118:2156   */\n      swap1\n      pop\n        /* \"#utility.yul\":2060:2162   */\n      swap2\n      swap1\n      pop\n      jump\t// out\n        /* \"#utility.yul\":2168:2545   */\n    tag_110:\n        /* \"#utility.yul\":2256:2259   */\n      0x00\n        /* \"#utility.yul\":2284:2323   */\n      tag_178\n        /* \"#utility.yul\":2317:2322   */\n      dup3\n        /* \"#utility.yul\":2284:2323   */\n      tag_106\n      jump\t// in\n    tag_178:\n        /* \"#utility.yul\":2339:2410   */\n      tag_179\n        /* \"#utility.yul\":2403:2409   */\n      dup2\n        /* \"#utility.yul\":2398:2401   */\n      dup6\n        /* \"#utility.yul\":2339:2410   */\n      tag_107\n      jump\t// in\n    tag_179:\n        /* \"#utility.yul\":2332:2410   */\n      swap4\n      pop\n        /* \"#utility.yul\":2419:2484   */\n      tag_180\n        /* \"#utility.yul\":2477:2483   */\n      dup2\n        /* \"#utility.yul\":2472:2475   */\n      dup6\n        /* \"#utility.yul\":2465:2469   */\n      0x20\n        /* \"#utility.yul\":2458:2463   */\n      dup7\n        /* \"#utility.yul\":2454:2470   */\n      add\n        /* \"#utility.yul\":2419:2484   */\n      tag_108\n      jump\t// in\n    tag_180:\n        /* \"#utility.yul\":2509:2538   */\n      tag_181\n        /* \"#utility.yul\":2531:2537   */\n      dup2\n        /* \"#utility.yul\":2509:2538   */\n      tag_109\n      jump\t// in\n    tag_181:\n        /* \"#utility.yul\":2504:2507   */\n      dup5\n        /* \"#utility.yul\":2500:2539   */\n      add\n        /* \"#utility.yul\":2493:2539   */\n      swap2\n      pop\n        /* \"#utility.yul\":2260:2545   */\n      pop\n        /* \"#utility.yul\":2168:2545   */\n      swap3\n      swap2\n      pop\n      pop\n      jump\t// out\n        /* \"#utility.yul\":2551:2628   */\n    tag_111:\n        /* \"#utility.yul\":2588:2595   */\n      0x00\n        /* \"#utility.yul\":2617:2622   */\n      dup2\n        /* \"#utility.yul\":2606:2622   */\n      swap1\n      pop\n        /* \"#utility.yul\":2551:2628   */\n      swap2\n      swap1\n      pop\n      jump\t// out\n        /* \"#utility.yul\":2634:2752   */\n    tag_112:\n        /* \"#utility.yul\":2721:2745   */\n      tag_184\n        /* \"#utility.yul\":2739:2744   */\n      dup2\n        /* \"#utility.yul\":2721:2745   */\n      tag_111\n      jump\t// in\n    tag_184:\n        /* \"#utility.yul\":2716:2719   */\n      dup3\n        /* \"#utility.yul\":2709:2746   */\n      mstore\n        /* \"#utility.yul\":2634:2752   */\n      pop\n      pop\n      jump\t// out\n        /* \"#utility.yul\":2758:2848   */\n    tag_113:\n        /* \"#utility.yul\":2792:2799   */\n      0x00\n        /* \"#utility.yul\":2835:2840   */\n      dup2\n        /* \"#utility.yul\":2828:2841   */\n      iszero\n        /* \"#utility.yul\":2821:2842   */\n      iszero\n        /* \"#utility.yul\":2810:2842   */\n      swap1\n      pop\n        /* \"#utility.yul\":2758:2848   */\n      swap2\n      swap1\n      pop\n      jump\t// out\n        /* \"#utility.yul\":2854:2963   */\n    tag_114:\n        /* \"#utility.yul\":2935:2956   */\n      tag_187\n        /* \"#utility.yul\":2950:2955   */\n      dup2\n        /* \"#utility.yul\":2935:2956   */\n      tag_113\n      jump\t// in\n    tag_187:\n        /* \"#utility.yul\":2930:2933   */\n      dup3\n        /* \"#utility.yul\":2923:2957   */\n      mstore\n        /* \"#utility.yul\":2854:2963   */\n      pop\n      pop\n      jump\t// out\n        /* \"#utility.yul\":2969:3692   */\n    tag_16:\n        /* \"#utility.yul\":3180:3184   */\n      0x00\n        /* \"#utility.yul\":3218:3221   */\n      0x80\n        /* \"#utility.yul\":3207:3216   */\n      dup3\n        /* \"#utility.yul\":3203:3222   */\n      add\n        /* \"#utility.yul\":3195:3222   */\n      swap1\n      pop\n        /* \"#utility.yul\":3268:3277   */\n      dup2\n        /* \"#utility.yul\":3262:3266   */\n      dup2\n        /* \"#utility.yul\":3258:3278   */\n      sub\n        /* \"#utility.yul\":3254:3255   */\n      0x00\n        /* \"#utility.yul\":3243:3252   */\n      dup4\n        /* \"#utility.yul\":3239:3256   */\n      add\n        /* \"#utility.yul\":3232:3279   */\n      mstore\n        /* \"#utility.yul\":3296:3374   */\n      tag_189\n        /* \"#utility.yul\":3369:3373   */\n      dup2\n        /* \"#utility.yul\":3360:3366   */\n      dup8\n        /* \"#utility.yul\":3296:3374   */\n      tag_110\n      jump\t// in\n    tag_189:\n        /* \"#utility.yul\":3288:3374   */\n      swap1\n      pop\n        /* \"#utility.yul\":3384:3456   */\n      tag_190\n        /* \"#utility.yul\":3452:3454   */\n      0x20\n        /* \"#utility.yul\":3441:3450   */\n      dup4\n        /* \"#utility.yul\":3437:3455   */\n      add\n        /* \"#utility.yul\":3428:3434   */\n      dup7\n        /* \"#utility.yul\":3384:3456   */\n      tag_112\n      jump\t// in\n    tag_190:\n        /* \"#utility.yul\":3503:3512   */\n      dup2\n        /* \"#utility.yul\":3497:3501   */\n      dup2\n        /* \"#utility.yul\":3493:3513   */\n      sub\n        /* \"#utility.yul\":3488:3490   */\n      0x40\n        /* \"#utility.yul\":3477:3486   */\n      dup4\n        /* \"#utility.yul\":3473:3491   */\n      add\n        /* \"#utility.yul\":3466:3514   */\n      mstore\n        /* \"#utility.yul\":3531:3609   */\n      tag_191\n        /* \"#utility.yul\":3604:3608   */\n      dup2\n        /* \"#utility.yul\":3595:3601   */\n      dup6\n        /* \"#utility.yul\":3531:3609   */\n      tag_110\n      jump\t// in\n    tag_191:\n        /* \"#utility.yul\":3523:3609   */\n      swap1\n      pop\n        /* \"#utility.yul\":3619:3685   */\n      tag_192\n        /* \"#utility.yul\":3681:3683   */\n      0x60\n        /* \"#utility.yul\":3670:3679   */\n      dup4\n        /* \"#utility.yul\":3666:3684   */\n      add\n        /* \"#utility.yul\":3657:3663   */\n      dup5\n        /* \"#utility.yul\":3619:3685   */\n      tag_114\n      jump\t// in\n    tag_192:\n        /* \"#utility.yul\":2969:3692   */\n      swap6\n      swap5\n      pop\n      pop\n      pop\n      pop\n      pop\n      jump\t// out\n        /* \"#utility.yul\":3698:3815   */\n    tag_115:\n        /* \"#utility.yul\":3807:3808   */\n      0x00\n        /* \"#utility.yul\":3804:3805   */\n      dup1\n        /* \"#utility.yul\":3797:3809   */\n      revert\n        /* \"#utility.yul\":3821:3938   */\n    tag_116:\n        /* \"#utility.yul\":3930:3931   */\n      0x00\n        /* \"#utility.yul\":3927:3928   */\n      dup1\n        /* \"#utility.yul\":3920:3932   */\n      revert\n        /* \"#utility.yul\":3944:4061   */\n    tag_117:\n        /* \"#utility.yul\":4053:4054   */\n      0x00\n        /* \"#utility.yul\":4050:4051   */\n      dup1\n        /* \"#utility.yul\":4043:4055   */\n      revert\n        /* \"#utility.yul\":4081:4634   */\n    tag_118:\n        /* \"#utility.yul\":4139:4147   */\n      0x00\n        /* \"#utility.yul\":4149:4155   */\n      dup1\n        /* \"#utility.yul\":4199:4202   */\n      dup4\n        /* \"#utility.yul\":4192:4196   */\n      0x1f\n        /* \"#utility.yul\":4184:4190   */\n      dup5\n        /* \"#utility.yul\":4180:4197   */\n      add\n        /* \"#utility.yul\":4176:4203   */\n      slt\n        /* \"#utility.yul\":4166:4288   */\n      tag_197\n      jumpi\n        /* \"#utility.yul\":4207:4286   */\n      tag_198\n      tag_115\n      jump\t// in\n    tag_198:\n        /* \"#utility.yul\":4166:4288   */\n    tag_197:\n        /* \"#utility.yul\":4320:4326   */\n      dup3\n        /* \"#utility.yul\":4307:4327   */\n      calldataload\n        /* \"#utility.yul\":4297:4327   */\n      swap1\n      pop\n        /* \"#utility.yul\":4350:4368   */\n      0xffffffffffffffff\n        /* \"#utility.yul\":4342:4348   */\n      dup2\n        /* \"#utility.yul\":4339:4369   */\n      gt\n        /* \"#utility.yul\":4336:4453   */\n      iszero\n      tag_199\n      jumpi\n        /* \"#utility.yul\":4372:4451   */\n      tag_200\n      tag_116\n      jump\t// in\n    tag_200:\n        /* \"#utility.yul\":4336:4453   */\n    tag_199:\n        /* \"#utility.yul\":4486:4490   */\n      0x20\n        /* \"#utility.yul\":4478:4484   */\n      dup4\n        /* \"#utility.yul\":4474:4491   */\n      add\n        /* \"#utility.yul\":4462:4491   */\n      swap2\n      pop\n        /* \"#utility.yul\":4540:4543   */\n      dup4\n        /* \"#utility.yul\":4532:4536   */\n      0x01\n        /* \"#utility.yul\":4524:4530   */\n      dup3\n        /* \"#utility.yul\":4520:4537   */\n      mul\n        /* \"#utility.yul\":4510:4518   */\n      dup4\n        /* \"#utility.yul\":4506:4538   */\n      add\n        /* \"#utility.yul\":4503:4544   */\n      gt\n        /* \"#utility.yul\":4500:4628   */\n      iszero\n      tag_201\n      jumpi\n        /* \"#utility.yul\":4547:4626   */\n      tag_202\n      tag_117\n      jump\t// in\n    tag_202:\n        /* \"#utility.yul\":4500:4628   */\n    tag_201:\n        /* \"#utility.yul\":4081:4634   */\n      swap3\n      pop\n      swap3\n      swap1\n      pop\n      jump\t// out\n        /* \"#utility.yul\":4640:4762   */\n    tag_119:\n        /* \"#utility.yul\":4713:4737   */\n      tag_204\n        /* \"#utility.yul\":4731:4736   */\n      dup2\n        /* \"#utility.yul\":4713:4737   */\n      tag_111\n      jump\t// in\n    tag_204:\n        /* \"#utility.yul\":4706:4711   */\n      dup2\n        /* \"#utility.yul\":4703:4738   */\n      eq\n        /* \"#utility.yul\":4693:4756   */\n      tag_205\n      jumpi\n        /* \"#utility.yul\":4752:4753   */\n      0x00\n        /* \"#utility.yul\":4749:4750   */\n      dup1\n        /* \"#utility.yul\":4742:4754   */\n      revert\n        /* \"#utility.yul\":4693:4756   */\n    tag_205:\n        /* \"#utility.yul\":4640:4762   */\n      pop\n      jump\t// out\n        /* \"#utility.yul\":4768:4907   */\n    tag_120:\n        /* \"#utility.yul\":4814:4819   */\n      0x00\n        /* \"#utility.yul\":4852:4858   */\n      dup2\n        /* \"#utility.yul\":4839:4859   */\n      calldataload\n        /* \"#utility.yul\":4830:4859   */\n      swap1\n      pop\n        /* \"#utility.yul\":4868:4901   */\n      tag_207\n        /* \"#utility.yul\":4895:4900   */\n      dup2\n        /* \"#utility.yul\":4868:4901   */\n      tag_119\n      jump\t// in\n    tag_207:\n        /* \"#utility.yul\":4768:4907   */\n      swap3\n      swap2\n      pop\n      pop\n      jump\t// out\n        /* \"#utility.yul\":4913:5587   */\n    tag_19:\n        /* \"#utility.yul\":4993:4999   */\n      0x00\n        /* \"#utility.yul\":5001:5007   */\n      dup1\n        /* \"#utility.yul\":5009:5015   */\n      0x00\n        /* \"#utility.yul\":5058:5060   */\n      0x40\n        /* \"#utility.yul\":5046:5055   */\n      dup5\n        /* \"#utility.yul\":5037:5044   */\n      dup7\n        /* \"#utility.yul\":5033:5056   */\n      sub\n        /* \"#utility.yul\":5029:5061   */\n      slt\n        /* \"#utility.yul\":5026:5145   */\n      iszero\n      tag_209\n      jumpi\n        /* \"#utility.yul\":5064:5143   */\n      tag_210\n      tag_102\n      jump\t// in\n    tag_210:\n        /* \"#utility.yul\":5026:5145   */\n    tag_209:\n        /* \"#utility.yul\":5212:5213   */\n      0x00\n        /* \"#utility.yul\":5201:5210   */\n      dup5\n        /* \"#utility.yul\":5197:5214   */\n      add\n        /* \"#utility.yul\":5184:5215   */\n      calldataload\n        /* \"#utility.yul\":5242:5260   */\n      0xffffffffffffffff\n        /* \"#utility.yul\":5234:5240   */\n      dup2\n        /* \"#utility.yul\":5231:5261   */\n      gt\n        /* \"#utility.yul\":5228:5345   */\n      iszero\n      tag_211\n      jumpi\n        /* \"#utility.yul\":5264:5343   */\n      tag_212\n      tag_103\n      jump\t// in\n    tag_212:\n        /* \"#utility.yul\":5228:5345   */\n    tag_211:\n        /* \"#utility.yul\":5377:5442   */\n      tag_213\n        /* \"#utility.yul\":5434:5441   */\n      dup7\n        /* \"#utility.yul\":5425:5431   */\n      dup3\n        /* \"#utility.yul\":5414:5423   */\n      dup8\n        /* \"#utility.yul\":5410:5432   */\n      add\n        /* \"#utility.yul\":5377:5442   */\n      tag_118\n      jump\t// in\n    tag_213:\n        /* \"#utility.yul\":5359:5442   */\n      swap4\n      pop\n      swap4\n      pop\n        /* \"#utility.yul\":5155:5452   */\n      pop\n        /* \"#utility.yul\":5491:5493   */\n      0x20\n        /* \"#utility.yul\":5517:5570   */\n      tag_214\n        /* \"#utility.yul\":5562:5569   */\n      dup7\n        /* \"#utility.yul\":5553:5559   */\n      dup3\n        /* \"#utility.yul\":5542:5551   */\n      dup8\n        /* \"#utility.yul\":5538:5560   */\n      add\n        /* \"#utility.yul\":5517:5570   */\n      tag_120\n      jump\t// in\n    tag_214:\n        /* \"#utility.yul\":5507:5570   */\n      swap2\n      pop\n        /* \"#utility.yul\":5462:5580   */\n      pop\n        /* \"#utility.yul\":4913:5587   */\n      swap3\n      pop\n      swap3\n      pop\n      swap3\n      jump\t// out\n        /* \"#utility.yul\":5593:5752   */\n    tag_121:\n        /* \"#utility.yul\":5667:5678   */\n      0x00\n        /* \"#utility.yul\":5701:5707   */\n      dup3\n        /* \"#utility.yul\":5696:5699   */\n      dup3\n        /* \"#utility.yul\":5689:5708   */\n      mstore\n        /* \"#utility.yul\":5741:5745   */\n      0x20\n        /* \"#utility.yul\":5736:5739   */\n      dup3\n        /* \"#utility.yul\":5732:5746   */\n      add\n        /* \"#utility.yul\":5717:5746   */\n      swap1\n      pop\n        /* \"#utility.yul\":5593:5752   */\n      swap3\n      swap2\n      pop\n      pop\n      jump\t// out\n        /* \"#utility.yul\":5758:6115   */\n    tag_122:\n        /* \"#utility.yul\":5836:5839   */\n      0x00\n        /* \"#utility.yul\":5864:5903   */\n      tag_217\n        /* \"#utility.yul\":5897:5902   */\n      dup3\n        /* \"#utility.yul\":5864:5903   */\n      tag_106\n      jump\t// in\n    tag_217:\n        /* \"#utility.yul\":5919:5980   */\n      tag_218\n        /* \"#utility.yul\":5973:5979   */\n      dup2\n        /* \"#utility.yul\":5968:5971   */\n      dup6\n        /* \"#utility.yul\":5919:5980   */\n      tag_121\n      jump\t// in\n    tag_218:\n        /* \"#utility.yul\":5912:5980   */\n      swap4\n      pop\n        /* \"#utility.yul\":5989:6054   */\n      tag_219\n        /* \"#utility.yul\":6047:6053   */\n      dup2\n        /* \"#utility.yul\":6042:6045   */\n      dup6\n        /* \"#utility.yul\":6035:6039   */\n      0x20\n        /* \"#utility.yul\":6028:6033   */\n      dup7\n        /* \"#utility.yul\":6024:6040   */\n      add\n        /* \"#utility.yul\":5989:6054   */\n      tag_108\n      jump\t// in\n    tag_219:\n        /* \"#utility.yul\":6079:6108   */\n      tag_220\n        /* \"#utility.yul\":6101:6107   */\n      dup2\n        /* \"#utility.yul\":6079:6108   */\n      tag_109\n      jump\t// in\n    tag_220:\n        /* \"#utility.yul\":6074:6077   */\n      dup5\n        /* \"#utility.yul\":6070:6109   */\n      add\n        /* \"#utility.yul\":6063:6109   */\n      swap2\n      pop\n        /* \"#utility.yul\":5840:6115   */\n      pop\n        /* \"#utility.yul\":5758:6115   */\n      swap3\n      swap2\n      pop\n      pop\n      jump\t// out\n        /* \"#utility.yul\":6121:6229   */\n    tag_123:\n        /* \"#utility.yul\":6198:6222   */\n      tag_222\n        /* \"#utility.yul\":6216:6221   */\n      dup2\n        /* \"#utility.yul\":6198:6222   */\n      tag_111\n      jump\t// in\n    tag_222:\n        /* \"#utility.yul\":6193:6196   */\n      dup3\n        /* \"#utility.yul\":6186:6223   */\n      mstore\n        /* \"#utility.yul\":6121:6229   */\n      pop\n      pop\n      jump\t// out\n        /* \"#utility.yul\":6235:6334   */\n    tag_124:\n        /* \"#utility.yul\":6306:6327   */\n      tag_224\n        /* \"#utility.yul\":6321:6326   */\n      dup2\n        /* \"#utility.yul\":6306:6327   */\n      tag_113\n      jump\t// in\n    tag_224:\n        /* \"#utility.yul\":6301:6304   */\n      dup3\n        /* \"#utility.yul\":6294:6328   */\n      mstore\n        /* \"#utility.yul\":6235:6334   */\n      pop\n      pop\n      jump\t// out\n        /* \"#utility.yul\":6376:7403   */\n    tag_125:\n        /* \"#utility.yul\":6491:6494   */\n      0x00\n        /* \"#utility.yul\":6527:6531   */\n      0x80\n        /* \"#utility.yul\":6522:6525   */\n      dup4\n        /* \"#utility.yul\":6518:6532   */\n      add\n        /* \"#utility.yul\":6614:6618   */\n      0x00\n        /* \"#utility.yul\":6607:6612   */\n      dup4\n        /* \"#utility.yul\":6603:6619   */\n      add\n        /* \"#utility.yul\":6597:6620   */\n      mload\n        /* \"#utility.yul\":6667:6670   */\n      dup5\n        /* \"#utility.yul\":6661:6665   */\n      dup3\n        /* \"#utility.yul\":6657:6671   */\n      sub\n        /* \"#utility.yul\":6650:6654   */\n      0x00\n        /* \"#utility.yul\":6645:6648   */\n      dup7\n        /* \"#utility.yul\":6641:6655   */\n      add\n        /* \"#utility.yul\":6634:6672   */\n      mstore\n        /* \"#utility.yul\":6693:6766   */\n      tag_226\n        /* \"#utility.yul\":6761:6765   */\n      dup3\n        /* \"#utility.yul\":6747:6759   */\n      dup3\n        /* \"#utility.yul\":6693:6766   */\n      tag_122\n      jump\t// in\n    tag_226:\n        /* \"#utility.yul\":6685:6766   */\n      swap2\n      pop\n        /* \"#utility.yul\":6542:6777   */\n      pop\n        /* \"#utility.yul\":6858:6862   */\n      0x20\n        /* \"#utility.yul\":6851:6856   */\n      dup4\n        /* \"#utility.yul\":6847:6863   */\n      add\n        /* \"#utility.yul\":6841:6864   */\n      mload\n        /* \"#utility.yul\":6877:6940   */\n      tag_227\n        /* \"#utility.yul\":6934:6938   */\n      0x20\n        /* \"#utility.yul\":6929:6932   */\n      dup7\n        /* \"#utility.yul\":6925:6939   */\n      add\n        /* \"#utility.yul\":6911:6923   */\n      dup3\n        /* \"#utility.yul\":6877:6940   */\n      tag_123\n      jump\t// in\n    tag_227:\n        /* \"#utility.yul\":6787:6950   */\n      pop\n        /* \"#utility.yul\":7035:7039   */\n      0x40\n        /* \"#utility.yul\":7028:7033   */\n      dup4\n        /* \"#utility.yul\":7024:7040   */\n      add\n        /* \"#utility.yul\":7018:7041   */\n      mload\n        /* \"#utility.yul\":7088:7091   */\n      dup5\n        /* \"#utility.yul\":7082:7086   */\n      dup3\n        /* \"#utility.yul\":7078:7092   */\n      sub\n        /* \"#utility.yul\":7071:7075   */\n      0x40\n        /* \"#utility.yul\":7066:7069   */\n      dup7\n        /* \"#utility.yul\":7062:7076   */\n      add\n        /* \"#utility.yul\":7055:7093   */\n      mstore\n        /* \"#utility.yul\":7114:7187   */\n      tag_228\n        /* \"#utility.yul\":7182:7186   */\n      dup3\n        /* \"#utility.yul\":7168:7180   */\n      dup3\n        /* \"#utility.yul\":7114:7187   */\n      tag_122\n      jump\t// in\n    tag_228:\n        /* \"#utility.yul\":7106:7187   */\n      swap2\n      pop\n        /* \"#utility.yul\":6960:7198   */\n      pop\n        /* \"#utility.yul\":7290:7294   */\n      0x60\n        /* \"#utility.yul\":7283:7288   */\n      dup4\n        /* \"#utility.yul\":7279:7295   */\n      add\n        /* \"#utility.yul\":7273:7296   */\n      mload\n        /* \"#utility.yul\":7309:7366   */\n      tag_229\n        /* \"#utility.yul\":7360:7364   */\n      0x60\n        /* \"#utility.yul\":7355:7358   */\n      dup7\n        /* \"#utility.yul\":7351:7365   */\n      add\n        /* \"#utility.yul\":7337:7349   */\n      dup3\n        /* \"#utility.yul\":7309:7366   */\n      tag_124\n      jump\t// in\n    tag_229:\n        /* \"#utility.yul\":7208:7376   */\n      pop\n        /* \"#utility.yul\":7393:7397   */\n      dup1\n        /* \"#utility.yul\":7386:7397   */\n      swap2\n      pop\n        /* \"#utility.yul\":6496:7403   */\n      pop\n        /* \"#utility.yul\":6376:7403   */\n      swap3\n      swap2\n      pop\n      pop\n      jump\t// out\n        /* \"#utility.yul\":7409:7774   */\n    tag_22:\n        /* \"#utility.yul\":7548:7552   */\n      0x00\n        /* \"#utility.yul\":7586:7588   */\n      0x20\n        /* \"#utility.yul\":7575:7584   */\n      dup3\n        /* \"#utility.yul\":7571:7589   */\n      add\n        /* \"#utility.yul\":7563:7589   */\n      swap1\n      pop\n        /* \"#utility.yul\":7635:7644   */\n      dup2\n        /* \"#utility.yul\":7629:7633   */\n      dup2\n        /* \"#utility.yul\":7625:7645   */\n      sub\n        /* \"#utility.yul\":7621:7622   */\n      0x00\n        /* \"#utility.yul\":7610:7619   */\n      dup4\n        /* \"#utility.yul\":7606:7623   */\n      add\n        /* \"#utility.yul\":7599:7646   */\n      mstore\n        /* \"#utility.yul\":7663:7767   */\n      tag_231\n        /* \"#utility.yul\":7762:7766   */\n      dup2\n        /* \"#utility.yul\":7753:7759   */\n      dup5\n        /* \"#utility.yul\":7663:7767   */\n      tag_125\n      jump\t// in\n    tag_231:\n        /* \"#utility.yul\":7655:7767   */\n      swap1\n      pop\n        /* \"#utility.yul\":7409:7774   */\n      swap3\n      swap2\n      pop\n      pop\n      jump\t// out\n        /* \"#utility.yul\":7780:7960   */\n    tag_126:\n        /* \"#utility.yul\":7828:7905   */\n      0x4e487b7100000000000000000000000000000000000000000000000000000000\n        /* \"#utility.yul\":7825:7826   */\n      0x00\n        /* \"#utility.yul\":7818:7906   */\n      mstore\n        /* \"#utility.yul\":7925:7929   */\n      0x22\n        /* \"#utility.yul\":7922:7923   */\n      0x04\n        /* \"#utility.yul\":7915:7930   */\n      mstore\n        /* \"#utility.yul\":7949:7953   */\n      0x24\n        /* \"#utility.yul\":7946:7947   */\n      0x00\n        /* \"#utility.yul\":7939:7954   */\n      revert\n        /* \"#utility.yul\":7966:8286   */\n    tag_27:\n        /* \"#utility.yul\":8010:8016   */\n      0x00\n        /* \"#utility.yul\":8047:8048   */\n      0x02\n        /* \"#utility.yul\":8041:8045   */\n      dup3\n        /* \"#utility.yul\":8037:8049   */\n      div\n        /* \"#utility.yul\":8027:8049   */\n      swap1\n      pop\n        /* \"#utility.yul\":8094:8095   */\n      0x01\n        /* \"#utility.yul\":8088:8092   */\n      dup3\n        /* \"#utility.yul\":8084:8096   */\n      and\n        /* \"#utility.yul\":8115:8133   */\n      dup1\n        /* \"#utility.yul\":8105:8186   */\n      tag_234\n      jumpi\n        /* \"#utility.yul\":8171:8175   */\n      0x7f\n        /* \"#utility.yul\":8163:8169   */\n      dup3\n        /* \"#utility.yul\":8159:8176   */\n      and\n        /* \"#utility.yul\":8149:8176   */\n      swap2\n      pop\n        /* \"#utility.yul\":8105:8186   */\n    tag_234:\n        /* \"#utility.yul\":8233:8235   */\n      0x20\n        /* \"#utility.yul\":8225:8231   */\n      dup3\n        /* \"#utility.yul\":8222:8236   */\n      lt\n        /* \"#utility.yul\":8202:8220   */\n      dup2\n        /* \"#utility.yul\":8199:8237   */\n      sub\n        /* \"#utility.yul\":8196:8280   */\n      tag_235\n      jumpi\n        /* \"#utility.yul\":8252:8270   */\n      tag_236\n      tag_126\n      jump\t// in\n    tag_236:\n        /* \"#utility.yul\":8196:8280   */\n    tag_235:\n        /* \"#utility.yul\":8017:8286   */\n      pop\n        /* \"#utility.yul\":7966:8286   */\n      swap2\n      swap1\n      pop\n      jump\t// out\n        /* \"#utility.yul\":8292:8462   */\n    tag_127:\n        /* \"#utility.yul\":8432:8454   */\n      0x6e6f7420656c696769626c6520746f20766f7465000000000000000000000000\n        /* \"#utility.yul\":8428:8429   */\n      0x00\n        /* \"#utility.yul\":8420:8426   */\n      dup3\n        /* \"#utility.yul\":8416:8430   */\n      add\n        /* \"#utility.yul\":8409:8455   */\n      mstore\n        /* \"#utility.yul\":8292:8462   */\n      pop\n      jump\t// out\n        /* \"#utility.yul\":8468:8834   */\n    tag_128:\n        /* \"#utility.yul\":8610:8613   */\n      0x00\n        /* \"#utility.yul\":8631:8698   */\n      tag_239\n        /* \"#utility.yul\":8695:8697   */\n      0x14\n        /* \"#utility.yul\":8690:8693   */\n      dup4\n        /* \"#utility.yul\":8631:8698   */\n      tag_107\n      jump\t// in\n    tag_239:\n        /* \"#utility.yul\":8624:8698   */\n      swap2\n      pop\n        /* \"#utility.yul\":8707:8800   */\n      tag_240\n        /* \"#utility.yul\":8796:8799   */\n      dup3\n        /* \"#utility.yul\":8707:8800   */\n      tag_127\n      jump\t// in\n    tag_240:\n        /* \"#utility.yul\":8825:8827   */\n      0x20\n        /* \"#utility.yul\":8820:8823   */\n      dup3\n        /* \"#utility.yul\":8816:8828   */\n      add\n        /* \"#utility.yul\":8809:8828   */\n      swap1\n      pop\n        /* \"#utility.yul\":8468:8834   */\n      swap2\n      swap1\n      pop\n      jump\t// out\n        /* \"#utility.yul\":8840:9259   */\n    tag_42:\n        /* \"#utility.yul\":9006:9010   */\n      0x00\n        /* \"#utility.yul\":9044:9046   */\n      0x20\n        /* \"#utility.yul\":9033:9042   */\n      dup3\n        /* \"#utility.yul\":9029:9047   */\n      add\n        /* \"#utility.yul\":9021:9047   */\n      swap1\n      pop\n        /* \"#utility.yul\":9093:9102   */\n      dup2\n        /* \"#utility.yul\":9087:9091   */\n      dup2\n        /* \"#utility.yul\":9083:9103   */\n      sub\n        /* \"#utility.yul\":9079:9080   */\n      0x00\n        /* \"#utility.yul\":9068:9077   */\n      dup4\n        /* \"#utility.yul\":9064:9081   */\n      add\n        /* \"#utility.yul\":9057:9104   */\n      mstore\n        /* \"#utility.yul\":9121:9252   */\n      tag_242\n        /* \"#utility.yul\":9247:9251   */\n      dup2\n        /* \"#utility.yul\":9121:9252   */\n      tag_128\n      jump\t// in\n    tag_242:\n        /* \"#utility.yul\":9113:9252   */\n      swap1\n      pop\n        /* \"#utility.yul\":8840:9259   */\n      swap2\n      swap1\n      pop\n      jump\t// out\n        /* \"#utility.yul\":9265:9447   */\n    tag_129:\n        /* \"#utility.yul\":9405:9439   */\n      0x54686973206164647265737320686173206265656e2072656769737465726564\n        /* \"#utility.yul\":9401:9402   */\n      0x00\n        /* \"#utility.yul\":9393:9399   */\n      dup3\n        /* \"#utility.yul\":9389:9403   */\n      add\n        /* \"#utility.yul\":9382:9440   */\n      mstore\n        /* \"#utility.yul\":9265:9447   */\n      pop\n      jump\t// out\n        /* \"#utility.yul\":9453:9819   */\n    tag_130:\n        /* \"#utility.yul\":9595:9598   */\n      0x00\n        /* \"#utility.yul\":9616:9683   */\n      tag_245\n        /* \"#utility.yul\":9680:9682   */\n      0x20\n        /* \"#utility.yul\":9675:9678   */\n      dup4\n        /* \"#utility.yul\":9616:9683   */\n      tag_107\n      jump\t// in\n    tag_245:\n        /* \"#utility.yul\":9609:9683   */\n      swap2\n      pop\n        /* \"#utility.yul\":9692:9785   */\n      tag_246\n        /* \"#utility.yul\":9781:9784   */\n      dup3\n        /* \"#utility.yul\":9692:9785   */\n      tag_129\n      jump\t// in\n    tag_246:\n        /* \"#utility.yul\":9810:9812   */\n      0x20\n        /* \"#utility.yul\":9805:9808   */\n      dup3\n        /* \"#utility.yul\":9801:9813   */\n      add\n        /* \"#utility.yul\":9794:9813   */\n      swap1\n      pop\n        /* \"#utility.yul\":9453:9819   */\n      swap2\n      swap1\n      pop\n      jump\t// out\n        /* \"#utility.yul\":9825:10244   */\n    tag_45:\n        /* \"#utility.yul\":9991:9995   */\n      0x00\n        /* \"#utility.yul\":10029:10031   */\n      0x20\n        /* \"#utility.yul\":10018:10027   */\n      dup3\n        /* \"#utility.yul\":10014:10032   */\n      add\n        /* \"#utility.yul\":10006:10032   */\n      swap1\n      pop\n        /* \"#utility.yul\":10078:10087   */\n      dup2\n        /* \"#utility.yul\":10072:10076   */\n      dup2\n        /* \"#utility.yul\":10068:10088   */\n      sub\n        /* \"#utility.yul\":10064:10065   */\n      0x00\n        /* \"#utility.yul\":10053:10062   */\n      dup4\n        /* \"#utility.yul\":10049:10066   */\n      add\n        /* \"#utility.yul\":10042:10089   */\n      mstore\n        /* \"#utility.yul\":10106:10237   */\n      tag_248\n        /* \"#utility.yul\":10232:10236   */\n      dup2\n        /* \"#utility.yul\":10106:10237   */\n      tag_130\n      jump\t// in\n    tag_248:\n        /* \"#utility.yul\":10098:10237   */\n      swap1\n      pop\n        /* \"#utility.yul\":9825:10244   */\n      swap2\n      swap1\n      pop\n      jump\t// out\n        /* \"#utility.yul\":10250:10430   */\n    tag_131:\n        /* \"#utility.yul\":10418:10423   */\n      0x4e49470000000000000000000000000000000000000000000000000000000000\n        /* \"#utility.yul\":10413:10416   */\n      dup2\n        /* \"#utility.yul\":10406:10424   */\n      mstore\n        /* \"#utility.yul\":10250:10430   */\n      pop\n      jump\t// out\n        /* \"#utility.yul\":10436:10584   */\n    tag_132:\n        /* \"#utility.yul\":10538:10549   */\n      0x00\n        /* \"#utility.yul\":10575:10578   */\n      dup2\n        /* \"#utility.yul\":10560:10578   */\n      swap1\n      pop\n        /* \"#utility.yul\":10436:10584   */\n      swap3\n      swap2\n      pop\n      pop\n      jump\t// out\n        /* \"#utility.yul\":10590:10980   */\n    tag_133:\n        /* \"#utility.yul\":10696:10699   */\n      0x00\n        /* \"#utility.yul\":10724:10763   */\n      tag_252\n        /* \"#utility.yul\":10757:10762   */\n      dup3\n        /* \"#utility.yul\":10724:10763   */\n      tag_106\n      jump\t// in\n    tag_252:\n        /* \"#utility.yul\":10779:10868   */\n      tag_253\n        /* \"#utility.yul\":10861:10867   */\n      dup2\n        /* \"#utility.yul\":10856:10859   */\n      dup6\n        /* \"#utility.yul\":10779:10868   */\n      tag_132\n      jump\t// in\n    tag_253:\n        /* \"#utility.yul\":10772:10868   */\n      swap4\n      pop\n        /* \"#utility.yul\":10877:10942   */\n      tag_254\n        /* \"#utility.yul\":10935:10941   */\n      dup2\n        /* \"#utility.yul\":10930:10933   */\n      dup6\n        /* \"#utility.yul\":10923:10927   */\n      0x20\n        /* \"#utility.yul\":10916:10921   */\n      dup7\n        /* \"#utility.yul\":10912:10928   */\n      add\n        /* \"#utility.yul\":10877:10942   */\n      tag_108\n      jump\t// in\n    tag_254:\n        /* \"#utility.yul\":10967:10973   */\n      dup1\n        /* \"#utility.yul\":10962:10965   */\n      dup5\n        /* \"#utility.yul\":10958:10974   */\n      add\n        /* \"#utility.yul\":10951:10974   */\n      swap2\n      pop\n        /* \"#utility.yul\":10700:10980   */\n      pop\n        /* \"#utility.yul\":10590:10980   */\n      swap3\n      swap2\n      pop\n      pop\n      jump\t// out\n        /* \"#utility.yul\":10986:11525   */\n    tag_49:\n        /* \"#utility.yul\":11208:11211   */\n      0x00\n        /* \"#utility.yul\":11223:11360   */\n      tag_256\n        /* \"#utility.yul\":11356:11359   */\n      dup3\n        /* \"#utility.yul\":11223:11360   */\n      tag_131\n      jump\t// in\n    tag_256:\n        /* \"#utility.yul\":11385:11386   */\n      0x03\n        /* \"#utility.yul\":11380:11383   */\n      dup3\n        /* \"#utility.yul\":11376:11387   */\n      add\n        /* \"#utility.yul\":11369:11387   */\n      swap2\n      pop\n        /* \"#utility.yul\":11404:11499   */\n      tag_257\n        /* \"#utility.yul\":11495:11498   */\n      dup3\n        /* \"#utility.yul\":11486:11492   */\n      dup5\n        /* \"#utility.yul\":11404:11499   */\n      tag_133\n      jump\t// in\n    tag_257:\n        /* \"#utility.yul\":11397:11499   */\n      swap2\n      pop\n        /* \"#utility.yul\":11516:11519   */\n      dup2\n        /* \"#utility.yul\":11509:11519   */\n      swap1\n      pop\n        /* \"#utility.yul\":10986:11525   */\n      swap3\n      swap2\n      pop\n      pop\n      jump\t// out\n        /* \"#utility.yul\":11531:11711   */\n    tag_70:\n        /* \"#utility.yul\":11579:11656   */\n      0x4e487b7100000000000000000000000000000000000000000000000000000000\n        /* \"#utility.yul\":11576:11577   */\n      0x00\n        /* \"#utility.yul\":11569:11657   */\n      mstore\n        /* \"#utility.yul\":11676:11680   */\n      0x41\n        /* \"#utility.yul\":11673:11674   */\n      0x04\n        /* \"#utility.yul\":11666:11681   */\n      mstore\n        /* \"#utility.yul\":11700:11704   */\n      0x24\n        /* \"#utility.yul\":11697:11698   */\n      0x00\n        /* \"#utility.yul\":11690:11705   */\n      revert\n        /* \"#utility.yul\":11717:11858   */\n    tag_134:\n        /* \"#utility.yul\":11766:11770   */\n      0x00\n        /* \"#utility.yul\":11789:11792   */\n      dup2\n        /* \"#utility.yul\":11781:11792   */\n      swap1\n      pop\n        /* \"#utility.yul\":11812:11815   */\n      dup2\n        /* \"#utility.yul\":11809:11810   */\n      0x00\n        /* \"#utility.yul\":11802:11816   */\n      mstore\n        /* \"#utility.yul\":11846:11850   */\n      0x20\n        /* \"#utility.yul\":11843:11844   */\n      0x00\n        /* \"#utility.yul\":11833:11851   */\n      keccak256\n        /* \"#utility.yul\":11825:11851   */\n      swap1\n      pop\n        /* \"#utility.yul\":11717:11858   */\n      swap2\n      swap1\n      pop\n      jump\t// out\n        /* \"#utility.yul\":11864:11957   */\n    tag_135:\n        /* \"#utility.yul\":11901:11907   */\n      0x00\n        /* \"#utility.yul\":11948:11950   */\n      0x20\n        /* \"#utility.yul\":11943:11945   */\n      0x1f\n        /* \"#utility.yul\":11936:11941   */\n      dup4\n        /* \"#utility.yul\":11932:11946   */\n      add\n        /* \"#utility.yul\":11928:11951   */\n      div\n        /* \"#utility.yul\":11918:11951   */\n      swap1\n      pop\n        /* \"#utility.yul\":11864:11957   */\n      swap2\n      swap1\n      pop\n      jump\t// out\n        /* \"#utility.yul\":11963:12070   */\n    tag_136:\n        /* \"#utility.yul\":12007:12015   */\n      0x00\n        /* \"#utility.yul\":12057:12062   */\n      dup3\n        /* \"#utility.yul\":12051:12055   */\n      dup3\n        /* \"#utility.yul\":12047:12063   */\n      shl\n        /* \"#utility.yul\":12026:12063   */\n      swap1\n      pop\n        /* \"#utility.yul\":11963:12070   */\n      swap3\n      swap2\n      pop\n      pop\n      jump\t// out\n        /* \"#utility.yul\":12076:12469   */\n    tag_137:\n        /* \"#utility.yul\":12145:12151   */\n      0x00\n        /* \"#utility.yul\":12195:12196   */\n      0x08\n        /* \"#utility.yul\":12183:12193   */\n      dup4\n        /* \"#utility.yul\":12179:12197   */\n      mul\n        /* \"#utility.yul\":12218:12315   */\n      tag_263\n        /* \"#utility.yul\":12248:12314   */\n      0xffffffffffffffffffffffffffffffffffffffffffffffffffffffffffffffff\n        /* \"#utility.yul\":12237:12246   */\n      dup3\n        /* \"#utility.yul\":12218:12315   */\n      tag_136\n      jump\t// in\n    tag_263:\n        /* \"#utility.yul\":12336:12375   */\n      tag_264\n        /* \"#utility.yul\":12366:12374   */\n      dup7\n        /* \"#utility.yul\":12355:12364   */\n      dup4\n        /* \"#utility.yul\":12336:12375   */\n      tag_136\n      jump\t// in\n    tag_264:\n        /* \"#utility.yul\":12324:12375   */\n      swap6\n      pop\n        /* \"#utility.yul\":12408:12412   */\n      dup1\n        /* \"#utility.yul\":12404:12413   */\n      not\n        /* \"#utility.yul\":12397:12402   */\n      dup5\n        /* \"#utility.yul\":12393:12414   */\n      and\n        /* \"#utility.yul\":12384:12414   */\n      swap4\n      pop\n        /* \"#utility.yul\":12457:12461   */\n      dup1\n        /* \"#utility.yul\":12447:12455   */\n      dup7\n        /* \"#utility.yul\":12443:12462   */\n      and\n        /* \"#utility.yul\":12436:12441   */\n      dup5\n        /* \"#utility.yul\":12433:12463   */\n      or\n        /* \"#utility.yul\":12423:12463   */\n      swap3\n      pop\n        /* \"#utility.yul\":12152:12469   */\n      pop\n      pop\n        /* \"#utility.yul\":12076:12469   */\n      swap4\n      swap3\n      pop\n      pop\n      pop\n      jump\t// out\n        /* \"#utility.yul\":12475:12535   */\n    tag_138:\n        /* \"#utility.yul\":12503:12506   */\n      0x00\n        /* \"#utility.yul\":12524:12529   */\n      dup2\n        /* \"#utility.yul\":12517:12529   */\n      swap1\n      pop\n        /* \"#utility.yul\":12475:12535   */\n      swap2\n      swap1\n      pop\n      jump\t// out\n        /* \"#utility.yul\":12541:12683   */\n    tag_139:\n        /* \"#utility.yul\":12591:12600   */\n      0x00\n        /* \"#utility.yul\":12624:12677   */\n      tag_267\n        /* \"#utility.yul\":12642:12676   */\n      tag_268\n        /* \"#utility.yul\":12651:12675   */\n      tag_269\n        /* \"#utility.yul\":12669:12674   */\n      dup5\n        /* \"#utility.yul\":12651:12675   */\n      tag_111\n      jump\t// in\n    tag_269:\n        /* \"#utility.yul\":12642:12676   */\n      tag_138\n      jump\t// in\n    tag_268:\n        /* \"#utility.yul\":12624:12677   */\n      tag_111\n      jump\t// in\n    tag_267:\n        /* \"#utility.yul\":12611:12677   */\n      swap1\n      pop\n        /* \"#utility.yul\":12541:12683   */\n      swap2\n      swap1\n      pop\n      jump\t// out\n        /* \"#utility.yul\":12689:12764   */\n    tag_140:\n        /* \"#utility.yul\":12732:12735   */\n      0x00\n        /* \"#utility.yul\":12753:12758   */\n      dup2\n        /* \"#utility.yul\":12746:12758   */\n      swap1\n      pop\n        /* \"#utility.yul\":12689:12764   */\n      swap2\n      swap1\n      pop\n      jump\t// out\n        /* \"#utility.yul\":12770:13039   */\n    tag_141:\n        /* \"#utility.yul\":12880:12919   */\n      tag_272\n        /* \"#utility.yul\":12911:12918   */\n      dup4\n        /* \"#utility.yul\":12880:12919   */\n      tag_139\n      jump\t// in\n    tag_272:\n        /* \"#utility.yul\":12941:13032   */\n      tag_273\n        /* \"#utility.yul\":12990:13031   */\n      tag_274\n        /* \"#utility.yul\":13014:13030   */\n      dup3\n        /* \"#utility.yul\":12990:13031   */\n      tag_140\n      jump\t// in\n    tag_274:\n        /* \"#utility.yul\":12982:12988   */\n      dup5\n        /* \"#utility.yul\":12975:12979   */\n      dup5\n        /* \"#utility.yul\":12969:12980   */\n      sload\n        /* \"#utility.yul\":12941:13032   */\n      tag_137\n      jump\t// in\n    tag_273:\n        /* \"#utility.yul\":12935:12939   */\n      dup3\n        /* \"#utility.yul\":12928:13033   */\n      sstore\n        /* \"#utility.yul\":12846:13039   */\n      pop\n        /* \"#utility.yul\":12770:13039   */\n      pop\n      pop\n      pop\n      jump\t// out\n        /* \"#utility.yul\":13045:13118   */\n    tag_142:\n        /* \"#utility.yul\":13090:13093   */\n      0x00\n        /* \"#utility.yul\":13045:13118   */\n      swap1\n      jump\t// out\n        /* \"#utility.yul\":13124:13313   */\n    tag_143:\n        /* \"#utility.yul\":13201:13233   */\n      tag_277\n      tag_142\n      jump\t// in\n    tag_277:\n        /* \"#utility.yul\":13242:13307   */\n      tag_278\n        /* \"#utility.yul\":13300:13306   */\n      dup2\n        /* \"#utility.yul\":13292:13298   */\n      dup5\n        /* \"#utility.yul\":13286:13290   */\n      dup5\n        /* \"#utility.yul\":13242:13307   */\n      tag_141\n      jump\t// in\n    tag_278:\n        /* \"#utility.yul\":13177:13313   */\n      pop\n        /* \"#utility.yul\":13124:13313   */\n      pop\n      pop\n      jump\t// out\n        /* \"#utility.yul\":13319:13505   */\n    tag_144:\n        /* \"#utility.yul\":13379:13499   */\n    tag_280:\n        /* \"#utility.yul\":13396:13399   */\n      dup2\n        /* \"#utility.yul\":13389:13394   */\n      dup2\n        /* \"#utility.yul\":13386:13400   */\n      lt\n        /* \"#utility.yul\":13379:13499   */\n      iszero\n      tag_282\n      jumpi\n        /* \"#utility.yul\":13450:13489   */\n      tag_283\n        /* \"#utility.yul\":13487:13488   */\n      0x00\n        /* \"#utility.yul\":13480:13485   */\n      dup3\n        /* \"#utility.yul\":13450:13489   */\n      tag_143\n      jump\t// in\n    tag_283:\n        /* \"#utility.yul\":13423:13424   */\n      0x01\n        /* \"#utility.yul\":13416:13421   */\n      dup2\n        /* \"#utility.yul\":13412:13425   */\n      add\n        /* \"#utility.yul\":13403:13425   */\n      swap1\n      pop\n        /* \"#utility.yul\":13379:13499   */\n      jump(tag_280)\n    tag_282:\n        /* \"#utility.yul\":13319:13505   */\n      pop\n      pop\n      jump\t// out\n        /* \"#utility.yul\":13511:14054   */\n    tag_145:\n        /* \"#utility.yul\":13612:13614   */\n      0x1f\n        /* \"#utility.yul\":13607:13610   */\n      dup3\n        /* \"#utility.yul\":13604:13615   */\n      gt\n        /* \"#utility.yul\":13601:14047   */\n      iszero\n      tag_285\n      jumpi\n        /* \"#utility.yul\":13646:13684   */\n      tag_286\n        /* \"#utility.yul\":13678:13683   */\n      dup2\n        /* \"#utility.yul\":13646:13684   */\n      tag_134\n      jump\t// in\n    tag_286:\n        /* \"#utility.yul\":13730:13759   */\n      tag_287\n        /* \"#utility.yul\":13748:13758   */\n      dup5\n        /* \"#utility.yul\":13730:13759   */\n      tag_135\n      jump\t// in\n    tag_287:\n        /* \"#utility.yul\":13720:13728   */\n      dup2\n        /* \"#utility.yul\":13716:13760   */\n      add\n        /* \"#utility.yul\":13913:13915   */\n      0x20\n        /* \"#utility.yul\":13901:13911   */\n      dup6\n        /* \"#utility.yul\":13898:13916   */\n      lt\n        /* \"#utility.yul\":13895:13944   */\n      iszero\n      tag_288\n      jumpi\n        /* \"#utility.yul\":13934:13942   */\n      dup2\n        /* \"#utility.yul\":13919:13942   */\n      swap1\n      pop\n        /* \"#utility.yul\":13895:13944   */\n    tag_288:\n        /* \"#utility.yul\":13957:14037   */\n      tag_289\n        /* \"#utility.yul\":14013:14035   */\n      tag_290\n        /* \"#utility.yul\":14031:14034   */\n      dup6\n        /* \"#utility.yul\":14013:14035   */\n      tag_135\n      jump\t// in\n    tag_290:\n        /* \"#utility.yul\":14003:14011   */\n      dup4\n        /* \"#utility.yul\":13999:14036   */\n      add\n        /* \"#utility.yul\":13986:13997   */\n      dup3\n        /* \"#utility.yul\":13957:14037   */\n      tag_144\n      jump\t// in\n    tag_289:\n        /* \"#utility.yul\":13616:14047   */\n      pop\n      pop\n        /* \"#utility.yul\":13601:14047   */\n    tag_285:\n        /* \"#utility.yul\":13511:14054   */\n      pop\n      pop\n      pop\n      jump\t// out\n        /* \"#utility.yul\":14060:14177   */\n    tag_146:\n        /* \"#utility.yul\":14114:14122   */\n      0x00\n        /* \"#utility.yul\":14164:14169   */\n      dup3\n        /* \"#utility.yul\":14158:14162   */\n      dup3\n        /* \"#utility.yul\":14154:14170   */\n      shr\n        /* \"#utility.yul\":14133:14170   */\n      swap1\n      pop\n        /* \"#utility.yul\":14060:14177   */\n      swap3\n      swap2\n      pop\n      pop\n      jump\t// out\n        /* \"#utility.yul\":14183:14352   */\n    tag_147:\n        /* \"#utility.yul\":14227:14233   */\n      0x00\n        /* \"#utility.yul\":14260:14311   */\n      tag_293\n        /* \"#utility.yul\":14308:14309   */\n      0x00\n        /* \"#utility.yul\":14304:14310   */\n      not\n        /* \"#utility.yul\":14296:14301   */\n      dup5\n        /* \"#utility.yul\":14293:14294   */\n      0x08\n        /* \"#utility.yul\":14289:14302   */\n      mul\n        /* \"#utility.yul\":14260:14311   */\n      tag_146\n      jump\t// in\n    tag_293:\n        /* \"#utility.yul\":14256:14312   */\n      not\n        /* \"#utility.yul\":14341:14345   */\n      dup1\n        /* \"#utility.yul\":14335:14339   */\n      dup4\n        /* \"#utility.yul\":14331:14346   */\n      and\n        /* \"#utility.yul\":14321:14346   */\n      swap2\n      pop\n        /* \"#utility.yul\":14234:14352   */\n      pop\n        /* \"#utility.yul\":14183:14352   */\n      swap3\n      swap2\n      pop\n      pop\n      jump\t// out\n        /* \"#utility.yul\":14357:14652   */\n    tag_148:\n        /* \"#utility.yul\":14433:14437   */\n      0x00\n        /* \"#utility.yul\":14579:14608   */\n      tag_295\n        /* \"#utility.yul\":14604:14607   */\n      dup4\n        /* \"#utility.yul\":14598:14602   */\n      dup4\n        /* \"#utility.yul\":14579:14608   */\n      tag_147\n      jump\t// in\n    tag_295:\n        /* \"#utility.yul\":14571:14608   */\n      swap2\n      pop\n        /* \"#utility.yul\":14641:14644   */\n      dup3\n        /* \"#utility.yul\":14638:14639   */\n      0x02\n        /* \"#utility.yul\":14634:14645   */\n      mul\n        /* \"#utility.yul\":14628:14632   */\n      dup3\n        /* \"#utility.yul\":14625:14646   */\n      or\n        /* \"#utility.yul\":14617:14646   */\n      swap1\n      pop\n        /* \"#utility.yul\":14357:14652   */\n      swap3\n      swap2\n      pop\n      pop\n      jump\t// out\n        /* \"#utility.yul\":14657:16052   */\n    tag_51:\n        /* \"#utility.yul\":14774:14811   */\n      tag_297\n        /* \"#utility.yul\":14807:14810   */\n      dup3\n        /* \"#utility.yul\":14774:14811   */\n      tag_106\n      jump\t// in\n    tag_297:\n        /* \"#utility.yul\":14876:14894   */\n      0xffffffffffffffff\n        /* \"#utility.yul\":14868:14874   */\n      dup2\n        /* \"#utility.yul\":14865:14895   */\n      gt\n        /* \"#utility.yul\":14862:14918   */\n      iszero\n      tag_298\n      jumpi\n        /* \"#utility.yul\":14898:14916   */\n      tag_299\n      tag_70\n      jump\t// in\n    tag_299:\n        /* \"#utility.yul\":14862:14918   */\n    tag_298:\n        /* \"#utility.yul\":14942:14980   */\n      tag_300\n        /* \"#utility.yul\":14974:14978   */\n      dup3\n        /* \"#utility.yul\":14968:14979   */\n      sload\n        /* \"#utility.yul\":14942:14980   */\n      tag_27\n      jump\t// in\n    tag_300:\n        /* \"#utility.yul\":15027:15094   */\n      tag_301\n        /* \"#utility.yul\":15087:15093   */\n      dup3\n        /* \"#utility.yul\":15079:15085   */\n      dup3\n        /* \"#utility.yul\":15073:15077   */\n      dup6\n        /* \"#utility.yul\":15027:15094   */\n      tag_145\n      jump\t// in\n    tag_301:\n        /* \"#utility.yul\":15121:15122   */\n      0x00\n        /* \"#utility.yul\":15145:15149   */\n      0x20\n        /* \"#utility.yul\":15132:15149   */\n      swap1\n      pop\n        /* \"#utility.yul\":15177:15179   */\n      0x1f\n        /* \"#utility.yul\":15169:15175   */\n      dup4\n        /* \"#utility.yul\":15166:15180   */\n      gt\n        /* \"#utility.yul\":15194:15195   */\n      0x01\n        /* \"#utility.yul\":15189:15807   */\n      dup2\n      eq\n      tag_303\n      jumpi\n        /* \"#utility.yul\":15851:15852   */\n      0x00\n        /* \"#utility.yul\":15868:15874   */\n      dup5\n        /* \"#utility.yul\":15865:15942   */\n      iszero\n      tag_304\n      jumpi\n        /* \"#utility.yul\":15917:15926   */\n      dup3\n        /* \"#utility.yul\":15912:15915   */\n      dup8\n        /* \"#utility.yul\":15908:15927   */\n      add\n        /* \"#utility.yul\":15902:15928   */\n      mload\n        /* \"#utility.yul\":15893:15928   */\n      swap1\n      pop\n        /* \"#utility.yul\":15865:15942   */\n    tag_304:\n        /* \"#utility.yul\":15968:16035   */\n      tag_305\n        /* \"#utility.yul\":16028:16034   */\n      dup6\n        /* \"#utility.yul\":16021:16026   */\n      dup3\n        /* \"#utility.yul\":15968:16035   */\n      tag_148\n      jump\t// in\n    tag_305:\n        /* \"#utility.yul\":15962:15966   */\n      dup7\n        /* \"#utility.yul\":15955:16036   */\n      sstore\n        /* \"#utility.yul\":15824:16046   */\n      pop\n        /* \"#utility.yul\":15159:16046   */\n      jump(tag_302)\n        /* \"#utility.yul\":15189:15807   */\n    tag_303:\n        /* \"#utility.yul\":15241:15245   */\n      0x1f\n        /* \"#utility.yul\":15237:15246   */\n      not\n        /* \"#utility.yul\":15229:15235   */\n      dup5\n        /* \"#utility.yul\":15225:15247   */\n      and\n        /* \"#utility.yul\":15275:15312   */\n      tag_306\n        /* \"#utility.yul\":15307:15311   */\n      dup7\n        /* \"#utility.yul\":15275:15312   */\n      tag_134\n      jump\t// in\n    tag_306:\n        /* \"#utility.yul\":15334:15335   */\n      0x00\n        /* \"#utility.yul\":15348:15556   */\n    tag_307:\n        /* \"#utility.yul\":15362:15369   */\n      dup3\n        /* \"#utility.yul\":15359:15360   */\n      dup2\n        /* \"#utility.yul\":15356:15370   */\n      lt\n        /* \"#utility.yul\":15348:15556   */\n      iszero\n      tag_309\n      jumpi\n        /* \"#utility.yul\":15441:15450   */\n      dup5\n        /* \"#utility.yul\":15436:15439   */\n      dup10\n        /* \"#utility.yul\":15432:15451   */\n      add\n        /* \"#utility.yul\":15426:15452   */\n      mload\n        /* \"#utility.yul\":15418:15424   */\n      dup3\n        /* \"#utility.yul\":15411:15453   */\n      sstore\n        /* \"#utility.yul\":15492:15493   */\n      0x01\n        /* \"#utility.yul\":15484:15490   */\n      dup3\n        /* \"#utility.yul\":15480:15494   */\n      add\n        /* \"#utility.yul\":15470:15494   */\n      swap2\n      pop\n        /* \"#utility.yul\":15539:15541   */\n      0x20\n        /* \"#utility.yul\":15528:15537   */\n      dup6\n        /* \"#utility.yul\":15524:15542   */\n      add\n        /* \"#utility.yul\":15511:15542   */\n      swap5\n      pop\n        /* \"#utility.yul\":15385:15389   */\n      0x20\n        /* \"#utility.yul\":15382:15383   */\n      dup2\n        /* \"#utility.yul\":15378:15390   */\n      add\n        /* \"#utility.yul\":15373:15390   */\n      swap1\n      pop\n        /* \"#utility.yul\":15348:15556   */\n      jump(tag_307)\n    tag_309:\n        /* \"#utility.yul\":15584:15590   */\n      dup7\n        /* \"#utility.yul\":15575:15582   */\n      dup4\n        /* \"#utility.yul\":15572:15591   */\n      lt\n        /* \"#utility.yul\":15569:15748   */\n      iszero\n      tag_310\n      jumpi\n        /* \"#utility.yul\":15642:15651   */\n      dup5\n        /* \"#utility.yul\":15637:15640   */\n      dup10\n        /* \"#utility.yul\":15633:15652   */\n      add\n        /* \"#utility.yul\":15627:15653   */\n      mload\n        /* \"#utility.yul\":15685:15733   */\n      tag_311\n        /* \"#utility.yul\":15727:15731   */\n      0x1f\n        /* \"#utility.yul\":15719:15725   */\n      dup10\n        /* \"#utility.yul\":15715:15732   */\n      and\n        /* \"#utility.yul\":15704:15713   */\n      dup3\n        /* \"#utility.yul\":15685:15733   */\n      tag_147\n      jump\t// in\n    tag_311:\n        /* \"#utility.yul\":15677:15683   */\n      dup4\n        /* \"#utility.yul\":15670:15734   */\n      sstore\n        /* \"#utility.yul\":15592:15748   */\n      pop\n        /* \"#utility.yul\":15569:15748   */\n    tag_310:\n        /* \"#utility.yul\":15794:15795   */\n      0x01\n        /* \"#utility.yul\":15790:15791   */\n      0x02\n        /* \"#utility.yul\":15782:15788   */\n      dup9\n        /* \"#utility.yul\":15778:15792   */\n      mul\n        /* \"#utility.yul\":15774:15796   */\n      add\n        /* \"#utility.yul\":15768:15772   */\n      dup9\n        /* \"#utility.yul\":15761:15797   */\n      sstore\n        /* \"#utility.yul\":15196:15807   */\n      pop\n      pop\n      pop\n        /* \"#utility.yul\":15159:16046   */\n    tag_302:\n      pop\n        /* \"#utility.yul\":14749:16052   */\n      pop\n      pop\n      pop\n        /* \"#utility.yul\":14657:16052   */\n      pop\n      pop\n      jump\t// out\n        /* \"#utility.yul\":16058:16238   */\n    tag_149:\n        /* \"#utility.yul\":16106:16183   */\n      0x4e487b7100000000000000000000000000000000000000000000000000000000\n        /* \"#utility.yul\":16103:16104   */\n      0x00\n        /* \"#utility.yul\":16096:16184   */\n      mstore\n        /* \"#utility.yul\":16203:16207   */\n      0x11\n        /* \"#utility.yul\":16200:16201   */\n      0x04\n        /* \"#utility.yul\":16193:16208   */\n      mstore\n        /* \"#utility.yul\":16227:16231   */\n      0x24\n        /* \"#utility.yul\":16224:16225   */\n      0x00\n        /* \"#utility.yul\":16217:16232   */\n      revert\n        /* \"#utility.yul\":16244:16435   */\n    tag_54:\n        /* \"#utility.yul\":16284:16287   */\n      0x00\n        /* \"#utility.yul\":16303:16323   */\n      tag_314\n        /* \"#utility.yul\":16321:16322   */\n      dup3\n        /* \"#utility.yul\":16303:16323   */\n      tag_111\n      jump\t// in\n    tag_314:\n        /* \"#utility.yul\":16298:16323   */\n      swap2\n      pop\n        /* \"#utility.yul\":16337:16357   */\n      tag_315\n        /* \"#utility.yul\":16355:16356   */\n      dup4\n        /* \"#utility.yul\":16337:16357   */\n      tag_111\n      jump\t// in\n    tag_315:\n        /* \"#utility.yul\":16332:16357   */\n      swap3\n      pop\n        /* \"#utility.yul\":16380:16381   */\n      dup3\n        /* \"#utility.yul\":16377:16378   */\n      dup3\n        /* \"#utility.yul\":16373:16382   */\n      add\n        /* \"#utility.yul\":16366:16382   */\n      swap1\n      pop\n        /* \"#utility.yul\":16401:16404   */\n      dup1\n        /* \"#utility.yul\":16398:16399   */\n      dup3\n        /* \"#utility.yul\":16395:16405   */\n      gt\n        /* \"#utility.yul\":16392:16428   */\n      iszero\n      tag_316\n      jumpi\n        /* \"#utility.yul\":16408:16426   */\n      tag_317\n      tag_149\n      jump\t// in\n    tag_317:\n        /* \"#utility.yul\":16392:16428   */\n    tag_316:\n        /* \"#utility.yul\":16244:16435   */\n      swap3\n      swap2\n      pop\n      pop\n      jump\t// out\n        /* \"#utility.yul\":16441:16621   */\n    tag_76:\n        /* \"#utility.yul\":16489:16566   */\n      0x4e487b7100000000000000000000000000000000000000000000000000000000\n        /* \"#utility.yul\":16486:16487   */\n      0x00\n        /* \"#utility.yul\":16479:16567   */\n      mstore\n        /* \"#utility.yul\":16586:16590   */\n      0x12\n        /* \"#utility.yul\":16583:16584   */\n      0x04\n        /* \"#utility.yul\":16576:16591   */\n      mstore\n        /* \"#utility.yul\":16610:16614   */\n      0x24\n        /* \"#utility.yul\":16607:16608   */\n      0x00\n        /* \"#utility.yul\":16600:16615   */\n      revert\n\n    auxdata: 0xa26469706673582212206fee2417af67760ccea8e08bc4d41e140216b7ef8fdde44d2bb80dc9d479745464736f6c63430008120033\n}\n",
				"bytecode": {
					"linkReferences": {},
					"object": "608060405234801561001057600080fd5b5033600160006101000a81548173ffffffffffffffffffffffffffffffffffffffff021916908373ffffffffffffffffffffffffffffffffffffffff1602179055506001600281905550611177806100696000396000f3fe608060405234801561001057600080fd5b506004361061004c5760003560e01c80637151ace214610051578063a3ec138d1461006f578063c0264d3a146100a2578063ce606ee0146100d2575b600080fd5b6100596100f0565b60405161006691906108c8565b60405180910390f35b61008960048036038101906100849190610919565b610114565b6040516100999493929190610a0a565b60405180910390f35b6100bc60048036038101906100b79190610aee565b610261565b6040516100c99190610c20565b60405180910390f35b6100da610616565b6040516100e791906108c8565b60405180910390f35b60008054906101000a900473ffffffffffffffffffffffffffffffffffffffff1681565b600360205280600052604060002060009150905080600001805461013790610c71565b80601f016020809104026020016040519081016040528092919081815260200182805461016390610c71565b80156101b05780601f10610185576101008083540402835291602001916101b0565b820191906000526020600020905b81548152906001019060200180831161019357829003601f168201915b5050505050908060010154908060020180546101cb90610c71565b80601f01602080910402602001604051908101604052809291908181526020018280546101f790610c71565b80156102445780601f1061021957610100808354040283529160200191610244565b820191906000526020600020905b81548152906001019060200180831161022757829003601f168201915b5050505050908060030160009054906101000a900460ff16905084565b61026961085d565b601182116102ac576040517f08c379a00000000000000000000000000000000000000000000000000000000081526004016102a390610cee565b60405180910390fd5b6000600360003373ffffffffffffffffffffffffffffffffffffffff1673ffffffffffffffffffffffffffffffffffffffff1681526020019081526020016000206001015414610331576040517f08c379a000000000000000000000000000000000000000000000000000000000815260040161032890610d5a565b60405180910390fd5b600061033e60025461063c565b60405160200161034e9190610ddc565b6040516020818303038152906040529050604051806080016040528086868080601f016020809104026020016040519081016040528093929190818152602001838380828437600081840152601f19601f82011690508083019250505050505050815260200184815260200182815260200160001515815250600360003373ffffffffffffffffffffffffffffffffffffffff1673ffffffffffffffffffffffffffffffffffffffff168152602001908152602001600020600082015181600001908161041b9190610fdd565b5060208201518160010155604082015181600201908161043b9190610fdd565b5060608201518160030160006101000a81548160ff02191690831515021790555090505060016002600082825461047291906110de565b92505081905550600360003373ffffffffffffffffffffffffffffffffffffffff1673ffffffffffffffffffffffffffffffffffffffff1681526020019081526020016000206040518060800160405290816000820180546104d390610c71565b80601f01602080910402602001604051908101604052809291908181526020018280546104ff90610c71565b801561054c5780601f106105215761010080835404028352916020019161054c565b820191906000526020600020905b81548152906001019060200180831161052f57829003601f168201915b505050505081526020016001820154815260200160028201805461056f90610c71565b80601f016020809104026020016040519081016040528092919081815260200182805461059b90610c71565b80156105e85780601f106105bd576101008083540402835291602001916105e8565b820191906000526020600020905b8154815290600101906020018083116105cb57829003601f168201915b505050505081526020016003820160009054906101000a900460ff1615151515815250509150509392505050565b600160009054906101000a900473ffffffffffffffffffffffffffffffffffffffff1681565b60606000600161064b8461070a565b01905060008167ffffffffffffffff81111561066a57610669610e02565b5b6040519080825280601f01601f19166020018201604052801561069c5781602001600182028036833780820191505090505b509050600082602001820190505b6001156106ff578080600190039150507f3031323334353637383961626364656600000000000000000000000000000000600a86061a8153600a85816106f3576106f2611112565b5b049450600085036106aa575b819350505050919050565b600080600090507a184f03e93ff9f4daa797ed6e38ed64bf6a1f0100000000000000008310610768577a184f03e93ff9f4daa797ed6e38ed64bf6a1f010000000000000000838161075e5761075d611112565b5b0492506040810190505b6d04ee2d6d415b85acef810000000083106107a5576d04ee2d6d415b85acef8100000000838161079b5761079a611112565b5b0492506020810190505b662386f26fc1000083106107d457662386f26fc1000083816107ca576107c9611112565b5b0492506010810190505b6305f5e10083106107fd576305f5e10083816107f3576107f2611112565b5b0492506008810190505b612710831061082257612710838161081857610817611112565b5b0492506004810190505b60648310610845576064838161083b5761083a611112565b5b0492506002810190505b600a8310610854576001810190505b80915050919050565b60405180608001604052806060815260200160008152602001606081526020016000151581525090565b600073ffffffffffffffffffffffffffffffffffffffff82169050919050565b60006108b282610887565b9050919050565b6108c2816108a7565b82525050565b60006020820190506108dd60008301846108b9565b92915050565b600080fd5b600080fd5b6108f6816108a7565b811461090157600080fd5b50565b600081359050610913816108ed565b92915050565b60006020828403121561092f5761092e6108e3565b5b600061093d84828501610904565b91505092915050565b600081519050919050565b600082825260208201905092915050565b60005b83811015610980578082015181840152602081019050610965565b60008484015250505050565b6000601f19601f8301169050919050565b60006109a882610946565b6109b28185610951565b93506109c2818560208601610962565b6109cb8161098c565b840191505092915050565b6000819050919050565b6109e9816109d6565b82525050565b60008115159050919050565b610a04816109ef565b82525050565b60006080820190508181036000830152610a24818761099d565b9050610a3360208301866109e0565b8181036040830152610a45818561099d565b9050610a5460608301846109fb565b95945050505050565b600080fd5b600080fd5b600080fd5b60008083601f840112610a8257610a81610a5d565b5b8235905067ffffffffffffffff811115610a9f57610a9e610a62565b5b602083019150836001820283011115610abb57610aba610a67565b5b9250929050565b610acb816109d6565b8114610ad657600080fd5b50565b600081359050610ae881610ac2565b92915050565b600080600060408486031215610b0757610b066108e3565b5b600084013567ffffffffffffffff811115610b2557610b246108e8565b5b610b3186828701610a6c565b93509350506020610b4486828701610ad9565b9150509250925092565b600082825260208201905092915050565b6000610b6a82610946565b610b748185610b4e565b9350610b84818560208601610962565b610b8d8161098c565b840191505092915050565b610ba1816109d6565b82525050565b610bb0816109ef565b82525050565b60006080830160008301518482036000860152610bd38282610b5f565b9150506020830151610be86020860182610b98565b5060408301518482036040860152610c008282610b5f565b9150506060830151610c156060860182610ba7565b508091505092915050565b60006020820190508181036000830152610c3a8184610bb6565b905092915050565b7f4e487b7100000000000000000000000000000000000000000000000000000000600052602260045260246000fd5b60006002820490506001821680610c8957607f821691505b602082108103610c9c57610c9b610c42565b5b50919050565b7f6e6f7420656c696769626c6520746f20766f7465000000000000000000000000600082015250565b6000610cd8601483610951565b9150610ce382610ca2565b602082019050919050565b60006020820190508181036000830152610d0781610ccb565b9050919050565b7f54686973206164647265737320686173206265656e2072656769737465726564600082015250565b6000610d44602083610951565b9150610d4f82610d0e565b602082019050919050565b60006020820190508181036000830152610d7381610d37565b9050919050565b7f4e49470000000000000000000000000000000000000000000000000000000000815250565b600081905092915050565b6000610db682610946565b610dc08185610da0565b9350610dd0818560208601610962565b80840191505092915050565b6000610de782610d7a565b600382019150610df78284610dab565b915081905092915050565b7f4e487b7100000000000000000000000000000000000000000000000000000000600052604160045260246000fd5b60008190508160005260206000209050919050565b60006020601f8301049050919050565b600082821b905092915050565b600060088302610e937fffffffffffffffffffffffffffffffffffffffffffffffffffffffffffffffff82610e56565b610e9d8683610e56565b95508019841693508086168417925050509392505050565b6000819050919050565b6000610eda610ed5610ed0846109d6565b610eb5565b6109d6565b9050919050565b6000819050919050565b610ef483610ebf565b610f08610f0082610ee1565b848454610e63565b825550505050565b600090565b610f1d610f10565b610f28818484610eeb565b505050565b5b81811015610f4c57610f41600082610f15565b600181019050610f2e565b5050565b601f821115610f9157610f6281610e31565b610f6b84610e46565b81016020851015610f7a578190505b610f8e610f8685610e46565b830182610f2d565b50505b505050565b600082821c905092915050565b6000610fb460001984600802610f96565b1980831691505092915050565b6000610fcd8383610fa3565b9150826002028217905092915050565b610fe682610946565b67ffffffffffffffff811115610fff57610ffe610e02565b5b6110098254610c71565b611014828285610f50565b600060209050601f8311600181146110475760008415611035578287015190505b61103f8582610fc1565b8655506110a7565b601f19841661105586610e31565b60005b8281101561107d57848901518255600182019150602085019450602081019050611058565b8683101561109a5784890151611096601f891682610fa3565b8355505b6001600288020188555050505b505050505050565b7f4e487b7100000000000000000000000000000000000000000000000000000000600052601160045260246000fd5b60006110e9826109d6565b91506110f4836109d6565b925082820190508082111561110c5761110b6110af565b5b92915050565b7f4e487b7100000000000000000000000000000000000000000000000000000000600052601260045260246000fdfea26469706673582212206fee2417af67760ccea8e08bc4d41e140216b7ef8fdde44d2bb80dc9d479745464736f6c63430008120033",
					"opcodes": "PUSH1 0x80 PUSH1 0x40 MSTORE CALLVALUE DUP1 ISZERO PUSH2 0x10 JUMPI PUSH1 0x0 DUP1 REVERT JUMPDEST POP CALLER PUSH1 0x1 PUSH1 0x0 PUSH2 0x100 EXP DUP2 SLOAD DUP2 PUSH20 0xFFFFFFFFFFFFFFFFFFFFFFFFFFFFFFFFFFFFFFFF MUL NOT AND SWAP1 DUP4 PUSH20 0xFFFFFFFFFFFFFFFFFFFFFFFFFFFFFFFFFFFFFFFF AND MUL OR SWAP1 SSTORE POP PUSH1 0x1 PUSH1 0x2 DUP2 SWAP1 SSTORE POP PUSH2 0x1177 DUP1 PUSH2 0x69 PUSH1 0x0 CODECOPY PUSH1 0x0 RETURN INVALID PUSH1 0x80 PUSH1 0x40 MSTORE CALLVALUE DUP1 ISZERO PUSH2 0x10 JUMPI PUSH1 0x0 DUP1 REVERT JUMPDEST POP PUSH1 0x4 CALLDATASIZE LT PUSH2 0x4C JUMPI PUSH1 0x0 CALLDATALOAD PUSH1 0xE0 SHR DUP1 PUSH4 0x7151ACE2 EQ PUSH2 0x51 JUMPI DUP1 PUSH4 0xA3EC138D EQ PUSH2 0x6F JUMPI DUP1 PUSH4 0xC0264D3A EQ PUSH2 0xA2 JUMPI DUP1 PUSH4 0xCE606EE0 EQ PUSH2 0xD2 JUMPI JUMPDEST PUSH1 0x0 DUP1 REVERT JUMPDEST PUSH2 0x59 PUSH2 0xF0 JUMP JUMPDEST PUSH1 0x40 MLOAD PUSH2 0x66 SWAP2 SWAP1 PUSH2 0x8C8 JUMP JUMPDEST PUSH1 0x40 MLOAD DUP1 SWAP2 SUB SWAP1 RETURN JUMPDEST PUSH2 0x89 PUSH1 0x4 DUP1 CALLDATASIZE SUB DUP2 ADD SWAP1 PUSH2 0x84 SWAP2 SWAP1 PUSH2 0x919 JUMP JUMPDEST PUSH2 0x114 JUMP JUMPDEST PUSH1 0x40 MLOAD PUSH2 0x99 SWAP5 SWAP4 SWAP3 SWAP2 SWAP1 PUSH2 0xA0A JUMP JUMPDEST PUSH1 0x40 MLOAD DUP1 SWAP2 SUB SWAP1 RETURN JUMPDEST PUSH2 0xBC PUSH1 0x4 DUP1 CALLDATASIZE SUB DUP2 ADD SWAP1 PUSH2 0xB7 SWAP2 SWAP1 PUSH2 0xAEE JUMP JUMPDEST PUSH2 0x261 JUMP JUMPDEST PUSH1 0x40 MLOAD PUSH2 0xC9 SWAP2 SWAP1 PUSH2 0xC20 JUMP JUMPDEST PUSH1 0x40 MLOAD DUP1 SWAP2 SUB SWAP1 RETURN JUMPDEST PUSH2 0xDA PUSH2 0x616 JUMP JUMPDEST PUSH1 0x40 MLOAD PUSH2 0xE7 SWAP2 SWAP1 PUSH2 0x8C8 JUMP JUMPDEST PUSH1 0x40 MLOAD DUP1 SWAP2 SUB SWAP1 RETURN JUMPDEST PUSH1 0x0 DUP1 SLOAD SWAP1 PUSH2 0x100 EXP SWAP1 DIV PUSH20 0xFFFFFFFFFFFFFFFFFFFFFFFFFFFFFFFFFFFFFFFF AND DUP2 JUMP JUMPDEST PUSH1 0x3 PUSH1 0x20 MSTORE DUP1 PUSH1 0x0 MSTORE PUSH1 0x40 PUSH1 0x0 KECCAK256 PUSH1 0x0 SWAP2 POP SWAP1 POP DUP1 PUSH1 0x0 ADD DUP1 SLOAD PUSH2 0x137 SWAP1 PUSH2 0xC71 JUMP JUMPDEST DUP1 PUSH1 0x1F ADD PUSH1 0x20 DUP1 SWAP2 DIV MUL PUSH1 0x20 ADD PUSH1 0x40 MLOAD SWAP1 DUP2 ADD PUSH1 0x40 MSTORE DUP1 SWAP3 SWAP2 SWAP1 DUP2 DUP2 MSTORE PUSH1 0x20 ADD DUP3 DUP1 SLOAD PUSH2 0x163 SWAP1 PUSH2 0xC71 JUMP JUMPDEST DUP1 ISZERO PUSH2 0x1B0 JUMPI DUP1 PUSH1 0x1F LT PUSH2 0x185 JUMPI PUSH2 0x100 DUP1 DUP4 SLOAD DIV MUL DUP4 MSTORE SWAP2 PUSH1 0x20 ADD SWAP2 PUSH2 0x1B0 JUMP JUMPDEST DUP3 ADD SWAP2 SWAP1 PUSH1 0x0 MSTORE PUSH1 0x20 PUSH1 0x0 KECCAK256 SWAP1 JUMPDEST DUP2 SLOAD DUP2 MSTORE SWAP1 PUSH1 0x1 ADD SWAP1 PUSH1 0x20 ADD DUP1 DUP4 GT PUSH2 0x193 JUMPI DUP3 SWAP1 SUB PUSH1 0x1F AND DUP3 ADD SWAP2 JUMPDEST POP POP POP POP POP SWAP1 DUP1 PUSH1 0x1 ADD SLOAD SWAP1 DUP1 PUSH1 0x2 ADD DUP1 SLOAD PUSH2 0x1CB SWAP1 PUSH2 0xC71 JUMP JUMPDEST DUP1 PUSH1 0x1F ADD PUSH1 0x20 DUP1 SWAP2 DIV MUL PUSH1 0x20 ADD PUSH1 0x40 MLOAD SWAP1 DUP2 ADD PUSH1 0x40 MSTORE DUP1 SWAP3 SWAP2 SWAP1 DUP2 DUP2 MSTORE PUSH1 0x20 ADD DUP3 DUP1 SLOAD PUSH2 0x1F7 SWAP1 PUSH2 0xC71 JUMP JUMPDEST DUP1 ISZERO PUSH2 0x244 JUMPI DUP1 PUSH1 0x1F LT PUSH2 0x219 JUMPI PUSH2 0x100 DUP1 DUP4 SLOAD DIV MUL DUP4 MSTORE SWAP2 PUSH1 0x20 ADD SWAP2 PUSH2 0x244 JUMP JUMPDEST DUP3 ADD SWAP2 SWAP1 PUSH1 0x0 MSTORE PUSH1 0x20 PUSH1 0x0 KECCAK256 SWAP1 JUMPDEST DUP2 SLOAD DUP2 MSTORE SWAP1 PUSH1 0x1 ADD SWAP1 PUSH1 0x20 ADD DUP1 DUP4 GT PUSH2 0x227 JUMPI DUP3 SWAP1 SUB PUSH1 0x1F AND DUP3 ADD SWAP2 JUMPDEST POP POP POP POP POP SWAP1 DUP1 PUSH1 0x3 ADD PUSH1 0x0 SWAP1 SLOAD SWAP1 PUSH2 0x100 EXP SWAP1 DIV PUSH1 0xFF AND SWAP1 POP DUP5 JUMP JUMPDEST PUSH2 0x269 PUSH2 0x85D JUMP JUMPDEST PUSH1 0x11 DUP3 GT PUSH2 0x2AC JUMPI PUSH1 0x40 MLOAD PUSH32 0x8C379A000000000000000000000000000000000000000000000000000000000 DUP2 MSTORE PUSH1 0x4 ADD PUSH2 0x2A3 SWAP1 PUSH2 0xCEE JUMP JUMPDEST PUSH1 0x40 MLOAD DUP1 SWAP2 SUB SWAP1 REVERT JUMPDEST PUSH1 0x0 PUSH1 0x3 PUSH1 0x0 CALLER PUSH20 0xFFFFFFFFFFFFFFFFFFFFFFFFFFFFFFFFFFFFFFFF AND PUSH20 0xFFFFFFFFFFFFFFFFFFFFFFFFFFFFFFFFFFFFFFFF AND DUP2 MSTORE PUSH1 0x20 ADD SWAP1 DUP2 MSTORE PUSH1 0x20 ADD PUSH1 0x0 KECCAK256 PUSH1 0x1 ADD SLOAD EQ PUSH2 0x331 JUMPI PUSH1 0x40 MLOAD PUSH32 0x8C379A000000000000000000000000000000000000000000000000000000000 DUP2 MSTORE PUSH1 0x4 ADD PUSH2 0x328 SWAP1 PUSH2 0xD5A JUMP JUMPDEST PUSH1 0x40 MLOAD DUP1 SWAP2 SUB SWAP1 REVERT JUMPDEST PUSH1 0x0 PUSH2 0x33E PUSH1 0x2 SLOAD PUSH2 0x63C JUMP JUMPDEST PUSH1 0x40 MLOAD PUSH1 0x20 ADD PUSH2 0x34E SWAP2 SWAP1 PUSH2 0xDDC JUMP JUMPDEST PUSH1 0x40 MLOAD PUSH1 0x20 DUP2 DUP4 SUB SUB DUP2 MSTORE SWAP1 PUSH1 0x40 MSTORE SWAP1 POP PUSH1 0x40 MLOAD DUP1 PUSH1 0x80 ADD PUSH1 0x40 MSTORE DUP1 DUP7 DUP7 DUP1 DUP1 PUSH1 0x1F ADD PUSH1 0x20 DUP1 SWAP2 DIV MUL PUSH1 0x20 ADD PUSH1 0x40 MLOAD SWAP1 DUP2 ADD PUSH1 0x40 MSTORE DUP1 SWAP4 SWAP3 SWAP2 SWAP1 DUP2 DUP2 MSTORE PUSH1 0x20 ADD DUP4 DUP4 DUP1 DUP3 DUP5 CALLDATACOPY PUSH1 0x0 DUP2 DUP5 ADD MSTORE PUSH1 0x1F NOT PUSH1 0x1F DUP3 ADD AND SWAP1 POP DUP1 DUP4 ADD SWAP3 POP POP POP POP POP POP POP DUP2 MSTORE PUSH1 0x20 ADD DUP5 DUP2 MSTORE PUSH1 0x20 ADD DUP3 DUP2 MSTORE PUSH1 0x20 ADD PUSH1 0x0 ISZERO ISZERO DUP2 MSTORE POP PUSH1 0x3 PUSH1 0x0 CALLER PUSH20 0xFFFFFFFFFFFFFFFFFFFFFFFFFFFFFFFFFFFFFFFF AND PUSH20 0xFFFFFFFFFFFFFFFFFFFFFFFFFFFFFFFFFFFFFFFF AND DUP2 MSTORE PUSH1 0x20 ADD SWAP1 DUP2 MSTORE PUSH1 0x20 ADD PUSH1 0x0 KECCAK256 PUSH1 0x0 DUP3 ADD MLOAD DUP2 PUSH1 0x0 ADD SWAP1 DUP2 PUSH2 0x41B SWAP2 SWAP1 PUSH2 0xFDD JUMP JUMPDEST POP PUSH1 0x20 DUP3 ADD MLOAD DUP2 PUSH1 0x1 ADD SSTORE PUSH1 0x40 DUP3 ADD MLOAD DUP2 PUSH1 0x2 ADD SWAP1 DUP2 PUSH2 0x43B SWAP2 SWAP1 PUSH2 0xFDD JUMP JUMPDEST POP PUSH1 0x60 DUP3 ADD MLOAD DUP2 PUSH1 0x3 ADD PUSH1 0x0 PUSH2 0x100 EXP DUP2 SLOAD DUP2 PUSH1 0xFF MUL NOT AND SWAP1 DUP4 ISZERO ISZERO MUL OR SWAP1 SSTORE POP SWAP1 POP POP PUSH1 0x1 PUSH1 0x2 PUSH1 0x0 DUP3 DUP3 SLOAD PUSH2 0x472 SWAP2 SWAP1 PUSH2 0x10DE JUMP JUMPDEST SWAP3 POP POP DUP2 SWAP1 SSTORE POP PUSH1 0x3 PUSH1 0x0 CALLER PUSH20 0xFFFFFFFFFFFFFFFFFFFFFFFFFFFFFFFFFFFFFFFF AND PUSH20 0xFFFFFFFFFFFFFFFFFFFFFFFFFFFFFFFFFFFFFFFF AND DUP2 MSTORE PUSH1 0x20 ADD SWAP1 DUP2 MSTORE PUSH1 0x20 ADD PUSH1 0x0 KECCAK256 PUSH1 0x40 MLOAD DUP1 PUSH1 0x80 ADD PUSH1 0x40 MSTORE SWAP1 DUP2 PUSH1 0x0 DUP3 ADD DUP1 SLOAD PUSH2 0x4D3 SWAP1 PUSH2 0xC71 JUMP JUMPDEST DUP1 PUSH1 0x1F ADD PUSH1 0x20 DUP1 SWAP2 DIV MUL PUSH1 0x20 ADD PUSH1 0x40 MLOAD SWAP1 DUP2 ADD PUSH1 0x40 MSTORE DUP1 SWAP3 SWAP2 SWAP1 DUP2 DUP2 MSTORE PUSH1 0x20 ADD DUP3 DUP1 SLOAD PUSH2 0x4FF SWAP1 PUSH2 0xC71 JUMP JUMPDEST DUP1 ISZERO PUSH2 0x54C JUMPI DUP1 PUSH1 0x1F LT PUSH2 0x521 JUMPI PUSH2 0x100 DUP1 DUP4 SLOAD DIV MUL DUP4 MSTORE SWAP2 PUSH1 0x20 ADD SWAP2 PUSH2 0x54C JUMP JUMPDEST DUP3 ADD SWAP2 SWAP1 PUSH1 0x0 MSTORE PUSH1 0x20 PUSH1 0x0 KECCAK256 SWAP1 JUMPDEST DUP2 SLOAD DUP2 MSTORE SWAP1 PUSH1 0x1 ADD SWAP1 PUSH1 0x20 ADD DUP1 DUP4 GT PUSH2 0x52F JUMPI DUP3 SWAP1 SUB PUSH1 0x1F AND DUP3 ADD SWAP2 JUMPDEST POP POP POP POP POP DUP2 MSTORE PUSH1 0x20 ADD PUSH1 0x1 DUP3 ADD SLOAD DUP2 MSTORE PUSH1 0x20 ADD PUSH1 0x2 DUP3 ADD DUP1 SLOAD PUSH2 0x56F SWAP1 PUSH2 0xC71 JUMP JUMPDEST DUP1 PUSH1 0x1F ADD PUSH1 0x20 DUP1 SWAP2 DIV MUL PUSH1 0x20 ADD PUSH1 0x40 MLOAD SWAP1 DUP2 ADD PUSH1 0x40 MSTORE DUP1 SWAP3 SWAP2 SWAP1 DUP2 DUP2 MSTORE PUSH1 0x20 ADD DUP3 DUP1 SLOAD PUSH2 0x59B SWAP1 PUSH2 0xC71 JUMP JUMPDEST DUP1 ISZERO PUSH2 0x5E8 JUMPI DUP1 PUSH1 0x1F LT PUSH2 0x5BD JUMPI PUSH2 0x100 DUP1 DUP4 SLOAD DIV MUL DUP4 MSTORE SWAP2 PUSH1 0x20 ADD SWAP2 PUSH2 0x5E8 JUMP JUMPDEST DUP3 ADD SWAP2 SWAP1 PUSH1 0x0 MSTORE PUSH1 0x20 PUSH1 0x0 KECCAK256 SWAP1 JUMPDEST DUP2 SLOAD DUP2 MSTORE SWAP1 PUSH1 0x1 ADD SWAP1 PUSH1 0x20 ADD DUP1 DUP4 GT PUSH2 0x5CB JUMPI DUP3 SWAP1 SUB PUSH1 0x1F AND DUP3 ADD SWAP2 JUMPDEST POP POP POP POP POP DUP2 MSTORE PUSH1 0x20 ADD PUSH1 0x3 DUP3 ADD PUSH1 0x0 SWAP1 SLOAD SWAP1 PUSH2 0x100 EXP SWAP1 DIV PUSH1 0xFF AND ISZERO ISZERO ISZERO ISZERO DUP2 MSTORE POP POP SWAP2 POP POP SWAP4 SWAP3 POP POP POP JUMP JUMPDEST PUSH1 0x1 PUSH1 0x0 SWAP1 SLOAD SWAP1 PUSH2 0x100 EXP SWAP1 DIV PUSH20 0xFFFFFFFFFFFFFFFFFFFFFFFFFFFFFFFFFFFFFFFF AND DUP2 JUMP JUMPDEST PUSH1 0x60 PUSH1 0x0 PUSH1 0x1 PUSH2 0x64B DUP5 PUSH2 0x70A JUMP JUMPDEST ADD SWAP1 POP PUSH1 0x0 DUP2 PUSH8 0xFFFFFFFFFFFFFFFF DUP2 GT ISZERO PUSH2 0x66A JUMPI PUSH2 0x669 PUSH2 0xE02 JUMP JUMPDEST JUMPDEST PUSH1 0x40 MLOAD SWAP1 DUP1 DUP3 MSTORE DUP1 PUSH1 0x1F ADD PUSH1 0x1F NOT AND PUSH1 0x20 ADD DUP3 ADD PUSH1 0x40 MSTORE DUP1 ISZERO PUSH2 0x69C JUMPI DUP2 PUSH1 0x20 ADD PUSH1 0x1 DUP3 MUL DUP1 CALLDATASIZE DUP4 CALLDATACOPY DUP1 DUP3 ADD SWAP2 POP POP SWAP1 POP JUMPDEST POP SWAP1 POP PUSH1 0x0 DUP3 PUSH1 0x20 ADD DUP3 ADD SWAP1 POP JUMPDEST PUSH1 0x1 ISZERO PUSH2 0x6FF JUMPI DUP1 DUP1 PUSH1 0x1 SWAP1 SUB SWAP2 POP POP PUSH32 0x3031323334353637383961626364656600000000000000000000000000000000 PUSH1 0xA DUP7 MOD BYTE DUP2 MSTORE8 PUSH1 0xA DUP6 DUP2 PUSH2 0x6F3 JUMPI PUSH2 0x6F2 PUSH2 0x1112 JUMP JUMPDEST JUMPDEST DIV SWAP5 POP PUSH1 0x0 DUP6 SUB PUSH2 0x6AA JUMPI JUMPDEST DUP2 SWAP4 POP POP POP POP SWAP2 SWAP1 POP JUMP JUMPDEST PUSH1 0x0 DUP1 PUSH1 0x0 SWAP1 POP PUSH27 0x184F03E93FF9F4DAA797ED6E38ED64BF6A1F010000000000000000 DUP4 LT PUSH2 0x768 JUMPI PUSH27 0x184F03E93FF9F4DAA797ED6E38ED64BF6A1F010000000000000000 DUP4 DUP2 PUSH2 0x75E JUMPI PUSH2 0x75D PUSH2 0x1112 JUMP JUMPDEST JUMPDEST DIV SWAP3 POP PUSH1 0x40 DUP2 ADD SWAP1 POP JUMPDEST PUSH14 0x4EE2D6D415B85ACEF8100000000 DUP4 LT PUSH2 0x7A5 JUMPI PUSH14 0x4EE2D6D415B85ACEF8100000000 DUP4 DUP2 PUSH2 0x79B JUMPI PUSH2 0x79A PUSH2 0x1112 JUMP JUMPDEST JUMPDEST DIV SWAP3 POP PUSH1 0x20 DUP2 ADD SWAP1 POP JUMPDEST PUSH7 0x2386F26FC10000 DUP4 LT PUSH2 0x7D4 JUMPI PUSH7 0x2386F26FC10000 DUP4 DUP2 PUSH2 0x7CA JUMPI PUSH2 0x7C9 PUSH2 0x1112 JUMP JUMPDEST JUMPDEST DIV SWAP3 POP PUSH1 0x10 DUP2 ADD SWAP1 POP JUMPDEST PUSH4 0x5F5E100 DUP4 LT PUSH2 0x7FD JUMPI PUSH4 0x5F5E100 DUP4 DUP2 PUSH2 0x7F3 JUMPI PUSH2 0x7F2 PUSH2 0x1112 JUMP JUMPDEST JUMPDEST DIV SWAP3 POP PUSH1 0x8 DUP2 ADD SWAP1 POP JUMPDEST PUSH2 0x2710 DUP4 LT PUSH2 0x822 JUMPI PUSH2 0x2710 DUP4 DUP2 PUSH2 0x818 JUMPI PUSH2 0x817 PUSH2 0x1112 JUMP JUMPDEST JUMPDEST DIV SWAP3 POP PUSH1 0x4 DUP2 ADD SWAP1 POP JUMPDEST PUSH1 0x64 DUP4 LT PUSH2 0x845 JUMPI PUSH1 0x64 DUP4 DUP2 PUSH2 0x83B JUMPI PUSH2 0x83A PUSH2 0x1112 JUMP JUMPDEST JUMPDEST DIV SWAP3 POP PUSH1 0x2 DUP2 ADD SWAP1 POP JUMPDEST PUSH1 0xA DUP4 LT PUSH2 0x854 JUMPI PUSH1 0x1 DUP2 ADD SWAP1 POP JUMPDEST DUP1 SWAP2 POP POP SWAP2 SWAP1 POP JUMP JUMPDEST PUSH1 0x40 MLOAD DUP1 PUSH1 0x80 ADD PUSH1 0x40 MSTORE DUP1 PUSH1 0x60 DUP2 MSTORE PUSH1 0x20 ADD PUSH1 0x0 DUP2 MSTORE PUSH1 0x20 ADD PUSH1 0x60 DUP2 MSTORE PUSH1 0x20 ADD PUSH1 0x0 ISZERO ISZERO DUP2 MSTORE POP SWAP1 JUMP JUMPDEST PUSH1 0x0 PUSH20 0xFFFFFFFFFFFFFFFFFFFFFFFFFFFFFFFFFFFFFFFF DUP3 AND SWAP1 POP SWAP2 SWAP1 POP JUMP JUMPDEST PUSH1 0x0 PUSH2 0x8B2 DUP3 PUSH2 0x887 JUMP JUMPDEST SWAP1 POP SWAP2 SWAP1 POP JUMP JUMPDEST PUSH2 0x8C2 DUP2 PUSH2 0x8A7 JUMP JUMPDEST DUP3 MSTORE POP POP JUMP JUMPDEST PUSH1 0x0 PUSH1 0x20 DUP3 ADD SWAP1 POP PUSH2 0x8DD PUSH1 0x0 DUP4 ADD DUP5 PUSH2 0x8B9 JUMP JUMPDEST SWAP3 SWAP2 POP POP JUMP JUMPDEST PUSH1 0x0 DUP1 REVERT JUMPDEST PUSH1 0x0 DUP1 REVERT JUMPDEST PUSH2 0x8F6 DUP2 PUSH2 0x8A7 JUMP JUMPDEST DUP2 EQ PUSH2 0x901 JUMPI PUSH1 0x0 DUP1 REVERT JUMPDEST POP JUMP JUMPDEST PUSH1 0x0 DUP2 CALLDATALOAD SWAP1 POP PUSH2 0x913 DUP2 PUSH2 0x8ED JUMP JUMPDEST SWAP3 SWAP2 POP POP JUMP JUMPDEST PUSH1 0x0 PUSH1 0x20 DUP3 DUP5 SUB SLT ISZERO PUSH2 0x92F JUMPI PUSH2 0x92E PUSH2 0x8E3 JUMP JUMPDEST JUMPDEST PUSH1 0x0 PUSH2 0x93D DUP5 DUP3 DUP6 ADD PUSH2 0x904 JUMP JUMPDEST SWAP2 POP POP SWAP3 SWAP2 POP POP JUMP JUMPDEST PUSH1 0x0 DUP2 MLOAD SWAP1 POP SWAP2 SWAP1 POP JUMP JUMPDEST PUSH1 0x0 DUP3 DUP3 MSTORE PUSH1 0x20 DUP3 ADD SWAP1 POP SWAP3 SWAP2 POP POP JUMP JUMPDEST PUSH1 0x0 JUMPDEST DUP4 DUP2 LT ISZERO PUSH2 0x980 JUMPI DUP1 DUP3 ADD MLOAD DUP2 DUP5 ADD MSTORE PUSH1 0x20 DUP2 ADD SWAP1 POP PUSH2 0x965 JUMP JUMPDEST PUSH1 0x0 DUP5 DUP5 ADD MSTORE POP POP POP POP JUMP JUMPDEST PUSH1 0x0 PUSH1 0x1F NOT PUSH1 0x1F DUP4 ADD AND SWAP1 POP SWAP2 SWAP1 POP JUMP JUMPDEST PUSH1 0x0 PUSH2 0x9A8 DUP3 PUSH2 0x946 JUMP JUMPDEST PUSH2 0x9B2 DUP2 DUP6 PUSH2 0x951 JUMP JUMPDEST SWAP4 POP PUSH2 0x9C2 DUP2 DUP6 PUSH1 0x20 DUP7 ADD PUSH2 0x962 JUMP JUMPDEST PUSH2 0x9CB DUP2 PUSH2 0x98C JUMP JUMPDEST DUP5 ADD SWAP2 POP POP SWAP3 SWAP2 POP POP JUMP JUMPDEST PUSH1 0x0 DUP2 SWAP1 POP SWAP2 SWAP1 POP JUMP JUMPDEST PUSH2 0x9E9 DUP2 PUSH2 0x9D6 JUMP JUMPDEST DUP3 MSTORE POP POP JUMP JUMPDEST PUSH1 0x0 DUP2 ISZERO ISZERO SWAP1 POP SWAP2 SWAP1 POP JUMP JUMPDEST PUSH2 0xA04 DUP2 PUSH2 0x9EF JUMP JUMPDEST DUP3 MSTORE POP POP JUMP JUMPDEST PUSH1 0x0 PUSH1 0x80 DUP3 ADD SWAP1 POP DUP2 DUP2 SUB PUSH1 0x0 DUP4 ADD MSTORE PUSH2 0xA24 DUP2 DUP8 PUSH2 0x99D JUMP JUMPDEST SWAP1 POP PUSH2 0xA33 PUSH1 0x20 DUP4 ADD DUP7 PUSH2 0x9E0 JUMP JUMPDEST DUP2 DUP2 SUB PUSH1 0x40 DUP4 ADD MSTORE PUSH2 0xA45 DUP2 DUP6 PUSH2 0x99D JUMP JUMPDEST SWAP1 POP PUSH2 0xA54 PUSH1 0x60 DUP4 ADD DUP5 PUSH2 0x9FB JUMP JUMPDEST SWAP6 SWAP5 POP POP POP POP POP JUMP JUMPDEST PUSH1 0x0 DUP1 REVERT JUMPDEST PUSH1 0x0 DUP1 REVERT JUMPDEST PUSH1 0x0 DUP1 REVERT JUMPDEST PUSH1 0x0 DUP1 DUP4 PUSH1 0x1F DUP5 ADD SLT PUSH2 0xA82 JUMPI PUSH2 0xA81 PUSH2 0xA5D JUMP JUMPDEST JUMPDEST DUP3 CALLDATALOAD SWAP1 POP PUSH8 0xFFFFFFFFFFFFFFFF DUP2 GT ISZERO PUSH2 0xA9F JUMPI PUSH2 0xA9E PUSH2 0xA62 JUMP JUMPDEST JUMPDEST PUSH1 0x20 DUP4 ADD SWAP2 POP DUP4 PUSH1 0x1 DUP3 MUL DUP4 ADD GT ISZERO PUSH2 0xABB JUMPI PUSH2 0xABA PUSH2 0xA67 JUMP JUMPDEST JUMPDEST SWAP3 POP SWAP3 SWAP1 POP JUMP JUMPDEST PUSH2 0xACB DUP2 PUSH2 0x9D6 JUMP JUMPDEST DUP2 EQ PUSH2 0xAD6 JUMPI PUSH1 0x0 DUP1 REVERT JUMPDEST POP JUMP JUMPDEST PUSH1 0x0 DUP2 CALLDATALOAD SWAP1 POP PUSH2 0xAE8 DUP2 PUSH2 0xAC2 JUMP JUMPDEST SWAP3 SWAP2 POP POP JUMP JUMPDEST PUSH1 0x0 DUP1 PUSH1 0x0 PUSH1 0x40 DUP5 DUP7 SUB SLT ISZERO PUSH2 0xB07 JUMPI PUSH2 0xB06 PUSH2 0x8E3 JUMP JUMPDEST JUMPDEST PUSH1 0x0 DUP5 ADD CALLDATALOAD PUSH8 0xFFFFFFFFFFFFFFFF DUP2 GT ISZERO PUSH2 0xB25 JUMPI PUSH2 0xB24 PUSH2 0x8E8 JUMP JUMPDEST JUMPDEST PUSH2 0xB31 DUP7 DUP3 DUP8 ADD PUSH2 0xA6C JUMP JUMPDEST SWAP4 POP SWAP4 POP POP PUSH1 0x20 PUSH2 0xB44 DUP7 DUP3 DUP8 ADD PUSH2 0xAD9 JUMP JUMPDEST SWAP2 POP POP SWAP3 POP SWAP3 POP SWAP3 JUMP JUMPDEST PUSH1 0x0 DUP3 DUP3 MSTORE PUSH1 0x20 DUP3 ADD SWAP1 POP SWAP3 SWAP2 POP POP JUMP JUMPDEST PUSH1 0x0 PUSH2 0xB6A DUP3 PUSH2 0x946 JUMP JUMPDEST PUSH2 0xB74 DUP2 DUP6 PUSH2 0xB4E JUMP JUMPDEST SWAP4 POP PUSH2 0xB84 DUP2 DUP6 PUSH1 0x20 DUP7 ADD PUSH2 0x962 JUMP JUMPDEST PUSH2 0xB8D DUP2 PUSH2 0x98C JUMP JUMPDEST DUP5 ADD SWAP2 POP POP SWAP3 SWAP2 POP POP JUMP JUMPDEST PUSH2 0xBA1 DUP2 PUSH2 0x9D6 JUMP JUMPDEST DUP3 MSTORE POP POP JUMP JUMPDEST PUSH2 0xBB0 DUP2 PUSH2 0x9EF JUMP JUMPDEST DUP3 MSTORE POP POP JUMP JUMPDEST PUSH1 0x0 PUSH1 0x80 DUP4 ADD PUSH1 0x0 DUP4 ADD MLOAD DUP5 DUP3 SUB PUSH1 0x0 DUP7 ADD MSTORE PUSH2 0xBD3 DUP3 DUP3 PUSH2 0xB5F JUMP JUMPDEST SWAP2 POP POP PUSH1 0x20 DUP4 ADD MLOAD PUSH2 0xBE8 PUSH1 0x20 DUP7 ADD DUP3 PUSH2 0xB98 JUMP JUMPDEST POP PUSH1 0x40 DUP4 ADD MLOAD DUP5 DUP3 SUB PUSH1 0x40 DUP7 ADD MSTORE PUSH2 0xC00 DUP3 DUP3 PUSH2 0xB5F JUMP JUMPDEST SWAP2 POP POP PUSH1 0x60 DUP4 ADD MLOAD PUSH2 0xC15 PUSH1 0x60 DUP7 ADD DUP3 PUSH2 0xBA7 JUMP JUMPDEST POP DUP1 SWAP2 POP POP SWAP3 SWAP2 POP POP JUMP JUMPDEST PUSH1 0x0 PUSH1 0x20 DUP3 ADD SWAP1 POP DUP2 DUP2 SUB PUSH1 0x0 DUP4 ADD MSTORE PUSH2 0xC3A DUP2 DUP5 PUSH2 0xBB6 JUMP JUMPDEST SWAP1 POP SWAP3 SWAP2 POP POP JUMP JUMPDEST PUSH32 0x4E487B7100000000000000000000000000000000000000000000000000000000 PUSH1 0x0 MSTORE PUSH1 0x22 PUSH1 0x4 MSTORE PUSH1 0x24 PUSH1 0x0 REVERT JUMPDEST PUSH1 0x0 PUSH1 0x2 DUP3 DIV SWAP1 POP PUSH1 0x1 DUP3 AND DUP1 PUSH2 0xC89 JUMPI PUSH1 0x7F DUP3 AND SWAP2 POP JUMPDEST PUSH1 0x20 DUP3 LT DUP2 SUB PUSH2 0xC9C JUMPI PUSH2 0xC9B PUSH2 0xC42 JUMP JUMPDEST JUMPDEST POP SWAP2 SWAP1 POP JUMP JUMPDEST PUSH32 0x6E6F7420656C696769626C6520746F20766F7465000000000000000000000000 PUSH1 0x0 DUP3 ADD MSTORE POP JUMP JUMPDEST PUSH1 0x0 PUSH2 0xCD8 PUSH1 0x14 DUP4 PUSH2 0x951 JUMP JUMPDEST SWAP2 POP PUSH2 0xCE3 DUP3 PUSH2 0xCA2 JUMP JUMPDEST PUSH1 0x20 DUP3 ADD SWAP1 POP SWAP2 SWAP1 POP JUMP JUMPDEST PUSH1 0x0 PUSH1 0x20 DUP3 ADD SWAP1 POP DUP2 DUP2 SUB PUSH1 0x0 DUP4 ADD MSTORE PUSH2 0xD07 DUP2 PUSH2 0xCCB JUMP JUMPDEST SWAP1 POP SWAP2 SWAP1 POP JUMP JUMPDEST PUSH32 0x54686973206164647265737320686173206265656E2072656769737465726564 PUSH1 0x0 DUP3 ADD MSTORE POP JUMP JUMPDEST PUSH1 0x0 PUSH2 0xD44 PUSH1 0x20 DUP4 PUSH2 0x951 JUMP JUMPDEST SWAP2 POP PUSH2 0xD4F DUP3 PUSH2 0xD0E JUMP JUMPDEST PUSH1 0x20 DUP3 ADD SWAP1 POP SWAP2 SWAP1 POP JUMP JUMPDEST PUSH1 0x0 PUSH1 0x20 DUP3 ADD SWAP1 POP DUP2 DUP2 SUB PUSH1 0x0 DUP4 ADD MSTORE PUSH2 0xD73 DUP2 PUSH2 0xD37 JUMP JUMPDEST SWAP1 POP SWAP2 SWAP1 POP JUMP JUMPDEST PUSH32 0x4E49470000000000000000000000000000000000000000000000000000000000 DUP2 MSTORE POP JUMP JUMPDEST PUSH1 0x0 DUP2 SWAP1 POP SWAP3 SWAP2 POP POP JUMP JUMPDEST PUSH1 0x0 PUSH2 0xDB6 DUP3 PUSH2 0x946 JUMP JUMPDEST PUSH2 0xDC0 DUP2 DUP6 PUSH2 0xDA0 JUMP JUMPDEST SWAP4 POP PUSH2 0xDD0 DUP2 DUP6 PUSH1 0x20 DUP7 ADD PUSH2 0x962 JUMP JUMPDEST DUP1 DUP5 ADD SWAP2 POP POP SWAP3 SWAP2 POP POP JUMP JUMPDEST PUSH1 0x0 PUSH2 0xDE7 DUP3 PUSH2 0xD7A JUMP JUMPDEST PUSH1 0x3 DUP3 ADD SWAP2 POP PUSH2 0xDF7 DUP3 DUP5 PUSH2 0xDAB JUMP JUMPDEST SWAP2 POP DUP2 SWAP1 POP SWAP3 SWAP2 POP POP JUMP JUMPDEST PUSH32 0x4E487B7100000000000000000000000000000000000000000000000000000000 PUSH1 0x0 MSTORE PUSH1 0x41 PUSH1 0x4 MSTORE PUSH1 0x24 PUSH1 0x0 REVERT JUMPDEST PUSH1 0x0 DUP2 SWAP1 POP DUP2 PUSH1 0x0 MSTORE PUSH1 0x20 PUSH1 0x0 KECCAK256 SWAP1 POP SWAP2 SWAP1 POP JUMP JUMPDEST PUSH1 0x0 PUSH1 0x20 PUSH1 0x1F DUP4 ADD DIV SWAP1 POP SWAP2 SWAP1 POP JUMP JUMPDEST PUSH1 0x0 DUP3 DUP3 SHL SWAP1 POP SWAP3 SWAP2 POP POP JUMP JUMPDEST PUSH1 0x0 PUSH1 0x8 DUP4 MUL PUSH2 0xE93 PUSH32 0xFFFFFFFFFFFFFFFFFFFFFFFFFFFFFFFFFFFFFFFFFFFFFFFFFFFFFFFFFFFFFFFF DUP3 PUSH2 0xE56 JUMP JUMPDEST PUSH2 0xE9D DUP7 DUP4 PUSH2 0xE56 JUMP JUMPDEST SWAP6 POP DUP1 NOT DUP5 AND SWAP4 POP DUP1 DUP7 AND DUP5 OR SWAP3 POP POP POP SWAP4 SWAP3 POP POP POP JUMP JUMPDEST PUSH1 0x0 DUP2 SWAP1 POP SWAP2 SWAP1 POP JUMP JUMPDEST PUSH1 0x0 PUSH2 0xEDA PUSH2 0xED5 PUSH2 0xED0 DUP5 PUSH2 0x9D6 JUMP JUMPDEST PUSH2 0xEB5 JUMP JUMPDEST PUSH2 0x9D6 JUMP JUMPDEST SWAP1 POP SWAP2 SWAP1 POP JUMP JUMPDEST PUSH1 0x0 DUP2 SWAP1 POP SWAP2 SWAP1 POP JUMP JUMPDEST PUSH2 0xEF4 DUP4 PUSH2 0xEBF JUMP JUMPDEST PUSH2 0xF08 PUSH2 0xF00 DUP3 PUSH2 0xEE1 JUMP JUMPDEST DUP5 DUP5 SLOAD PUSH2 0xE63 JUMP JUMPDEST DUP3 SSTORE POP POP POP POP JUMP JUMPDEST PUSH1 0x0 SWAP1 JUMP JUMPDEST PUSH2 0xF1D PUSH2 0xF10 JUMP JUMPDEST PUSH2 0xF28 DUP2 DUP5 DUP5 PUSH2 0xEEB JUMP JUMPDEST POP POP POP JUMP JUMPDEST JUMPDEST DUP2 DUP2 LT ISZERO PUSH2 0xF4C JUMPI PUSH2 0xF41 PUSH1 0x0 DUP3 PUSH2 0xF15 JUMP JUMPDEST PUSH1 0x1 DUP2 ADD SWAP1 POP PUSH2 0xF2E JUMP JUMPDEST POP POP JUMP JUMPDEST PUSH1 0x1F DUP3 GT ISZERO PUSH2 0xF91 JUMPI PUSH2 0xF62 DUP2 PUSH2 0xE31 JUMP JUMPDEST PUSH2 0xF6B DUP5 PUSH2 0xE46 JUMP JUMPDEST DUP2 ADD PUSH1 0x20 DUP6 LT ISZERO PUSH2 0xF7A JUMPI DUP2 SWAP1 POP JUMPDEST PUSH2 0xF8E PUSH2 0xF86 DUP6 PUSH2 0xE46 JUMP JUMPDEST DUP4 ADD DUP3 PUSH2 0xF2D JUMP JUMPDEST POP POP JUMPDEST POP POP POP JUMP JUMPDEST PUSH1 0x0 DUP3 DUP3 SHR SWAP1 POP SWAP3 SWAP2 POP POP JUMP JUMPDEST PUSH1 0x0 PUSH2 0xFB4 PUSH1 0x0 NOT DUP5 PUSH1 0x8 MUL PUSH2 0xF96 JUMP JUMPDEST NOT DUP1 DUP4 AND SWAP2 POP POP SWAP3 SWAP2 POP POP JUMP JUMPDEST PUSH1 0x0 PUSH2 0xFCD DUP4 DUP4 PUSH2 0xFA3 JUMP JUMPDEST SWAP2 POP DUP3 PUSH1 0x2 MUL DUP3 OR SWAP1 POP SWAP3 SWAP2 POP POP JUMP JUMPDEST PUSH2 0xFE6 DUP3 PUSH2 0x946 JUMP JUMPDEST PUSH8 0xFFFFFFFFFFFFFFFF DUP2 GT ISZERO PUSH2 0xFFF JUMPI PUSH2 0xFFE PUSH2 0xE02 JUMP JUMPDEST JUMPDEST PUSH2 0x1009 DUP3 SLOAD PUSH2 0xC71 JUMP JUMPDEST PUSH2 0x1014 DUP3 DUP3 DUP6 PUSH2 0xF50 JUMP JUMPDEST PUSH1 0x0 PUSH1 0x20 SWAP1 POP PUSH1 0x1F DUP4 GT PUSH1 0x1 DUP2 EQ PUSH2 0x1047 JUMPI PUSH1 0x0 DUP5 ISZERO PUSH2 0x1035 JUMPI DUP3 DUP8 ADD MLOAD SWAP1 POP JUMPDEST PUSH2 0x103F DUP6 DUP3 PUSH2 0xFC1 JUMP JUMPDEST DUP7 SSTORE POP PUSH2 0x10A7 JUMP JUMPDEST PUSH1 0x1F NOT DUP5 AND PUSH2 0x1055 DUP7 PUSH2 0xE31 JUMP JUMPDEST PUSH1 0x0 JUMPDEST DUP3 DUP2 LT ISZERO PUSH2 0x107D JUMPI DUP5 DUP10 ADD MLOAD DUP3 SSTORE PUSH1 0x1 DUP3 ADD SWAP2 POP PUSH1 0x20 DUP6 ADD SWAP5 POP PUSH1 0x20 DUP2 ADD SWAP1 POP PUSH2 0x1058 JUMP JUMPDEST DUP7 DUP4 LT ISZERO PUSH2 0x109A JUMPI DUP5 DUP10 ADD MLOAD PUSH2 0x1096 PUSH1 0x1F DUP10 AND DUP3 PUSH2 0xFA3 JUMP JUMPDEST DUP4 SSTORE POP JUMPDEST PUSH1 0x1 PUSH1 0x2 DUP9 MUL ADD DUP9 SSTORE POP POP POP JUMPDEST POP POP POP POP POP POP JUMP JUMPDEST PUSH32 0x4E487B7100000000000000000000000000000000000000000000000000000000 PUSH1 0x0 MSTORE PUSH1 0x11 PUSH1 0x4 MSTORE PUSH1 0x24 PUSH1 0x0 REVERT JUMPDEST PUSH1 0x0 PUSH2 0x10E9 DUP3 PUSH2 0x9D6 JUMP JUMPDEST SWAP2 POP PUSH2 0x10F4 DUP4 PUSH2 0x9D6 JUMP JUMPDEST SWAP3 POP DUP3 DUP3 ADD SWAP1 POP DUP1 DUP3 GT ISZERO PUSH2 0x110C JUMPI PUSH2 0x110B PUSH2 0x10AF JUMP JUMPDEST JUMPDEST SWAP3 SWAP2 POP POP JUMP JUMPDEST PUSH32 0x4E487B7100000000000000000000000000000000000000000000000000000000 PUSH1 0x0 MSTORE PUSH1 0x12 PUSH1 0x4 MSTORE PUSH1 0x24 PUSH1 0x0 REVERT INVALID LOG2 PUSH5 0x6970667358 0x22 SLT KECCAK256 PUSH16 0xEE2417AF67760CCEA8E08BC4D41E1402 AND 0xB7 0xEF DUP16 0xDD 0xE4 0x4D 0x2B 0xB8 0xD 0xC9 0xD4 PUSH26 0x745464736F6C6343000812003300000000000000000000000000 "
				},
				"gasEstimates": {
					"creation": {
						"codeDepositCost": "894200",
						"executionCost": "47309",
						"totalCost": "941509"
					},
					"external": {
						"contractOwner()": "2558",
						"electionCordinator()": "2489",
						"registerDetails(string,uint256)": "infinite",
						"voters(address)": "infinite"
					}
				},
				"methodIdentifiers": {
					"contractOwner()": "ce606ee0",
					"electionCordinator()": "7151ace2",
					"registerDetails(string,uint256)": "c0264d3a",
					"voters(address)": "a3ec138d"
				}
			},
			"storageLayout": {
				"storage": [
					{
						"astId": 1144,
						"contract": "register.sol:Voter",
						"label": "electionCordinator",
						"offset": 0,
						"slot": "0",
						"type": "t_address"
					},
					{
						"astId": 1146,
						"contract": "register.sol:Voter",
						"label": "contractOwner",
						"offset": 0,
						"slot": "1",
						"type": "t_address"
					},
					{
						"astId": 1148,
						"contract": "register.sol:Voter",
						"label": "regCount",
						"offset": 0,
						"slot": "2",
						"type": "t_uint256"
					},
					{
						"astId": 1153,
						"contract": "register.sol:Voter",
						"label": "voters",
						"offset": 0,
						"slot": "3",
						"type": "t_mapping(t_address,t_struct(voter)1051_storage)"
					}
				],
				"types": {
					"t_address": {
						"encoding": "inplace",
						"label": "address",
						"numberOfBytes": "20"
					},
					"t_bool": {
						"encoding": "inplace",
						"label": "bool",
						"numberOfBytes": "1"
					},
					"t_mapping(t_address,t_struct(voter)1051_storage)": {
						"encoding": "mapping",
						"key": "t_address",
						"label": "mapping(address => struct voter)",
						"numberOfBytes": "32",
						"value": "t_struct(voter)1051_storage"
					},
					"t_string_storage": {
						"encoding": "bytes",
						"label": "string",
						"numberOfBytes": "32"
					},
					"t_struct(voter)1051_storage": {
						"encoding": "inplace",
						"label": "struct voter",
						"members": [
							{
								"astId": 1044,
								"contract": "register.sol:Voter",
								"label": "name",
								"offset": 0,
								"slot": "0",
								"type": "t_string_storage"
							},
							{
								"astId": 1046,
								"contract": "register.sol:Voter",
								"label": "age",
								"offset": 0,
								"slot": "1",
								"type": "t_uint256"
							},
							{
								"astId": 1048,
								"contract": "register.sol:Voter",
								"label": "voterID",
								"offset": 0,
								"slot": "2",
								"type": "t_string_storage"
							},
							{
								"astId": 1050,
								"contract": "register.sol:Voter",
								"label": "hasRightToVote",
								"offset": 0,
								"slot": "3",
								"type": "t_bool"
							}
						],
						"numberOfBytes": "128"
					},
					"t_uint256": {
						"encoding": "inplace",
						"label": "uint256",
						"numberOfBytes": "32"
					}
				}
			},
			"userdoc": {
				"kind": "user",
				"methods": {},
				"version": 1
			}
		}
	}
}