{
	"register.sol": {
		"Voter": {
			"abi": [
				{
					"inputs": [],
					"stateMutability": "nonpayable",
					"type": "constructor"
				},
				{
					"inputs": [
						{
							"internalType": "string",
							"name": "name",
							"type": "string"
						},
						{
							"internalType": "string",
							"name": "electionID",
							"type": "string"
						}
					],
					"name": "applyForAdmin",
					"outputs": [],
					"stateMutability": "nonpayable",
					"type": "function"
				},
				{
					"inputs": [],
					"name": "confirmApplication",
					"outputs": [
						{
							"internalType": "bool",
							"name": "",
							"type": "bool"
						}
					],
					"stateMutability": "view",
					"type": "function"
				},
				{
					"inputs": [],
					"name": "contractOwner",
					"outputs": [
						{
							"internalType": "address",
							"name": "",
							"type": "address"
						}
					],
					"stateMutability": "view",
					"type": "function"
				},
				{
					"inputs": [
						{
							"internalType": "address",
							"name": "",
							"type": "address"
						}
					],
					"name": "coordinators",
					"outputs": [
						{
							"internalType": "string",
							"name": "name",
							"type": "string"
						},
						{
							"internalType": "string",
							"name": "cordID",
							"type": "string"
						},
						{
							"internalType": "string",
							"name": "electionID",
							"type": "string"
						},
						{
							"internalType": "bool",
							"name": "adminAuth",
							"type": "bool"
						},
						{
							"internalType": "address",
							"name": "voterAddress",
							"type": "address"
						}
					],
					"stateMutability": "view",
					"type": "function"
				},
				{
					"inputs": [],
					"name": "electionCordinator",
					"outputs": [
						{
							"internalType": "address",
							"name": "",
							"type": "address"
						}
					],
					"stateMutability": "view",
					"type": "function"
				},
				{
					"inputs": [],
					"name": "getDetails",
					"outputs": [
						{
							"components": [
								{
									"internalType": "string",
									"name": "name",
									"type": "string"
								},
								{
									"internalType": "uint256",
									"name": "age",
									"type": "uint256"
								},
								{
									"internalType": "string",
									"name": "voterID",
									"type": "string"
								},
								{
									"internalType": "bool",
									"name": "canApplyToVote",
									"type": "bool"
								},
								{
									"internalType": "address",
									"name": "voterAddress",
									"type": "address"
								}
							],
							"internalType": "struct voter",
							"name": "",
							"type": "tuple"
						}
					],
					"stateMutability": "view",
					"type": "function"
				},
				{
					"inputs": [
						{
							"internalType": "string",
							"name": "electionID",
							"type": "string"
						},
						{
							"internalType": "address",
							"name": "cordAddr",
							"type": "address"
						}
					],
					"name": "isElectionCoord",
					"outputs": [
						{
							"internalType": "bool",
							"name": "",
							"type": "bool"
						}
					],
					"stateMutability": "view",
					"type": "function"
				},
				{
					"inputs": [
						{
							"internalType": "string",
							"name": "name",
							"type": "string"
						},
						{
							"internalType": "uint256",
							"name": "age",
							"type": "uint256"
						}
					],
					"name": "registerDetails",
					"outputs": [
						{
							"components": [
								{
									"internalType": "string",
									"name": "name",
									"type": "string"
								},
								{
									"internalType": "uint256",
									"name": "age",
									"type": "uint256"
								},
								{
									"internalType": "string",
									"name": "voterID",
									"type": "string"
								},
								{
									"internalType": "bool",
									"name": "canApplyToVote",
									"type": "bool"
								},
								{
									"internalType": "address",
									"name": "voterAddress",
									"type": "address"
								}
							],
							"internalType": "struct voter",
							"name": "",
							"type": "tuple"
						}
					],
					"stateMutability": "nonpayable",
					"type": "function"
				},
				{
					"inputs": [
						{
							"internalType": "address",
							"name": "",
							"type": "address"
						}
					],
					"name": "voters",
					"outputs": [
						{
							"internalType": "string",
							"name": "name",
							"type": "string"
						},
						{
							"internalType": "uint256",
							"name": "age",
							"type": "uint256"
						},
						{
							"internalType": "string",
							"name": "voterID",
							"type": "string"
						},
						{
							"internalType": "bool",
							"name": "canApplyToVote",
							"type": "bool"
						},
						{
							"internalType": "address",
							"name": "voterAddress",
							"type": "address"
						}
					],
					"stateMutability": "view",
					"type": "function"
				}
			],
			"devdoc": {
				"kind": "dev",
				"methods": {},
				"version": 1
			},
			"evm": {
				"assembly": "    /* \"register.sol\":1584:3463  contract Voter is registerVoter{... */\n  mstore(0x40, 0x80)\n    /* \"register.sol\":1823:1902  constructor(){ ... */\n  callvalue\n  dup1\n  iszero\n  tag_1\n  jumpi\n  0x00\n  dup1\n  revert\ntag_1:\n  pop\n    /* \"register.sol\":1863:1873  msg.sender */\n  caller\n    /* \"register.sol\":1847:1860  contractOwner */\n  0x01\n  0x00\n    /* \"register.sol\":1847:1873  contractOwner = msg.sender */\n  0x0100\n  exp\n  dup2\n  sload\n  dup2\n  0xffffffffffffffffffffffffffffffffffffffff\n  mul\n  not\n  and\n  swap1\n  dup4\n  0xffffffffffffffffffffffffffffffffffffffff\n  and\n  mul\n  or\n  swap1\n  sstore\n  pop\n    /* \"register.sol\":1894:1895  1 */\n  0x01\n    /* \"register.sol\":1883:1891  regCount */\n  0x02\n    /* \"register.sol\":1883:1895  regCount = 1 */\n  dup2\n  swap1\n  sstore\n  pop\n    /* \"register.sol\":1584:3463  contract Voter is registerVoter{... */\n  dataSize(sub_0)\n  dup1\n  dataOffset(sub_0)\n  0x00\n  codecopy\n  0x00\n  return\nstop\n\nsub_0: assembly {\n        /* \"register.sol\":1584:3463  contract Voter is registerVoter{... */\n      mstore(0x40, 0x80)\n      callvalue\n      dup1\n      iszero\n      tag_1\n      jumpi\n      0x00\n      dup1\n      revert\n    tag_1:\n      pop\n      jumpi(tag_2, lt(calldatasize, 0x04))\n      shr(0xe0, calldataload(0x00))\n      dup1\n      0xc0264d3a\n      gt\n      tag_12\n      jumpi\n      dup1\n      0xc0264d3a\n      eq\n      tag_7\n      jumpi\n      dup1\n      0xce606ee0\n      eq\n      tag_8\n      jumpi\n      dup1\n      0xcfa34208\n      eq\n      tag_9\n      jumpi\n      dup1\n      0xef5b7ceb\n      eq\n      tag_10\n      jumpi\n      dup1\n      0xfbbf93a0\n      eq\n      tag_11\n      jumpi\n      jump(tag_2)\n    tag_12:\n      dup1\n      0x7151ace2\n      eq\n      tag_3\n      jumpi\n      dup1\n      0x8bc8d6ff\n      eq\n      tag_4\n      jumpi\n      dup1\n      0xa3ec138d\n      eq\n      tag_5\n      jumpi\n      dup1\n      0xa48af096\n      eq\n      tag_6\n      jumpi\n    tag_2:\n      0x00\n      dup1\n      revert\n        /* \"register.sol\":1622:1655  address public electionCordinator */\n    tag_3:\n      tag_13\n      tag_14\n      jump\t// in\n    tag_13:\n      mload(0x40)\n      tag_15\n      swap2\n      swap1\n      tag_16\n      jump\t// in\n    tag_15:\n      mload(0x40)\n      dup1\n      swap2\n      sub\n      swap1\n      return\n        /* \"register.sol\":2704:3228  function applyForAdmin(string calldata name, string calldata electionID) public{... */\n    tag_4:\n      tag_17\n      0x04\n      dup1\n      calldatasize\n      sub\n      dup2\n      add\n      swap1\n      tag_18\n      swap2\n      swap1\n      tag_19\n      jump\t// in\n    tag_18:\n      tag_20\n      jump\t// in\n    tag_17:\n      stop\n        /* \"register.sol\":1714:1754  mapping( address => voter) public voters */\n    tag_5:\n      tag_21\n      0x04\n      dup1\n      calldatasize\n      sub\n      dup2\n      add\n      swap1\n      tag_22\n      swap2\n      swap1\n      tag_23\n      jump\t// in\n    tag_22:\n      tag_24\n      jump\t// in\n    tag_21:\n      mload(0x40)\n      tag_25\n      swap6\n      swap5\n      swap4\n      swap3\n      swap2\n      swap1\n      tag_26\n      jump\t// in\n    tag_25:\n      mload(0x40)\n      dup1\n      swap2\n      sub\n      swap1\n      return\n        /* \"register.sol\":1760:1811  mapping(address => coordinator) public coordinators */\n    tag_6:\n      tag_27\n      0x04\n      dup1\n      calldatasize\n      sub\n      dup2\n      add\n      swap1\n      tag_28\n      swap2\n      swap1\n      tag_23\n      jump\t// in\n    tag_28:\n      tag_29\n      jump\t// in\n    tag_27:\n      mload(0x40)\n      tag_30\n      swap6\n      swap5\n      swap4\n      swap3\n      swap2\n      swap1\n      tag_31\n      jump\t// in\n    tag_30:\n      mload(0x40)\n      dup1\n      swap2\n      sub\n      swap1\n      return\n        /* \"register.sol\":2013:2475  function registerDetails(string calldata name, uint age) public returns (voter memory) {... */\n    tag_7:\n      tag_32\n      0x04\n      dup1\n      calldatasize\n      sub\n      dup2\n      add\n      swap1\n      tag_33\n      swap2\n      swap1\n      tag_34\n      jump\t// in\n    tag_33:\n      tag_35\n      jump\t// in\n    tag_32:\n      mload(0x40)\n      tag_36\n      swap2\n      swap1\n      tag_37\n      jump\t// in\n    tag_36:\n      mload(0x40)\n      dup1\n      swap2\n      sub\n      swap1\n      return\n        /* \"register.sol\":1661:1689  address public contractOwner */\n    tag_8:\n      tag_38\n      tag_39\n      jump\t// in\n    tag_38:\n      mload(0x40)\n      tag_40\n      swap2\n      swap1\n      tag_16\n      jump\t// in\n    tag_40:\n      mload(0x40)\n      dup1\n      swap2\n      sub\n      swap1\n      return\n        /* \"register.sol\":2482:2594  function confirmApplication() public view returns(bool){... */\n    tag_9:\n      tag_41\n      tag_42\n      jump\t// in\n    tag_41:\n      mload(0x40)\n      tag_43\n      swap2\n      swap1\n      tag_44\n      jump\t// in\n    tag_43:\n      mload(0x40)\n      dup1\n      swap2\n      sub\n      swap1\n      return\n        /* \"register.sol\":3234:3459  function isElectionCoord(string calldata electionID, address cordAddr) public view returns(bool){... */\n    tag_10:\n      tag_45\n      0x04\n      dup1\n      calldatasize\n      sub\n      dup2\n      add\n      swap1\n      tag_46\n      swap2\n      swap1\n      tag_47\n      jump\t// in\n    tag_46:\n      tag_48\n      jump\t// in\n    tag_45:\n      mload(0x40)\n      tag_49\n      swap2\n      swap1\n      tag_44\n      jump\t// in\n    tag_49:\n      mload(0x40)\n      dup1\n      swap2\n      sub\n      swap1\n      return\n        /* \"register.sol\":2600:2698  function getDetails() public view returns (voter memory){... */\n    tag_11:\n      tag_50\n      tag_51\n      jump\t// in\n    tag_50:\n      mload(0x40)\n      tag_52\n      swap2\n      swap1\n      tag_37\n      jump\t// in\n    tag_52:\n      mload(0x40)\n      dup1\n      swap2\n      sub\n      swap1\n      return\n        /* \"register.sol\":1622:1655  address public electionCordinator */\n    tag_14:\n      0x00\n      dup1\n      sload\n      swap1\n      0x0100\n      exp\n      swap1\n      div\n      0xffffffffffffffffffffffffffffffffffffffff\n      and\n      dup2\n      jump\t// out\n        /* \"register.sol\":2704:3228  function applyForAdmin(string calldata name, string calldata electionID) public{... */\n    tag_20:\n        /* \"register.sol\":2850:2851  0 */\n      0x00\n        /* \"register.sol\":2807:2819  coordinators */\n      0x04\n        /* \"register.sol\":2807:2831  coordinators[msg.sender] */\n      0x00\n        /* \"register.sol\":2820:2830  msg.sender */\n      caller\n        /* \"register.sol\":2807:2831  coordinators[msg.sender] */\n      0xffffffffffffffffffffffffffffffffffffffff\n      and\n      0xffffffffffffffffffffffffffffffffffffffff\n      and\n      dup2\n      mstore\n      0x20\n      add\n      swap1\n      dup2\n      mstore\n      0x20\n      add\n      0x00\n      keccak256\n        /* \"register.sol\":2807:2838  coordinators[msg.sender].cordID */\n      0x01\n      add\n        /* \"register.sol\":2801:2846  bytes(coordinators[msg.sender].cordID).length */\n      dup1\n      sload\n      tag_54\n      swap1\n      tag_55\n      jump\t// in\n    tag_54:\n      swap1\n      pop\n        /* \"register.sol\":2801:2851  bytes(coordinators[msg.sender].cordID).length == 0 */\n      eq\n        /* \"register.sol\":2793:2880  require(bytes(coordinators[msg.sender].cordID).length == 0, \"This address is an admin\") */\n      tag_56\n      jumpi\n      mload(0x40)\n      0x08c379a000000000000000000000000000000000000000000000000000000000\n      dup2\n      mstore\n      0x04\n      add\n      tag_57\n      swap1\n      tag_58\n      jump\t// in\n    tag_57:\n      mload(0x40)\n      dup1\n      swap2\n      sub\n      swap1\n      revert\n    tag_56:\n        /* \"register.sol\":2942:2943  0 */\n      0x00\n        /* \"register.sol\":2904:2910  voters */\n      0x03\n        /* \"register.sol\":2904:2922  voters[msg.sender] */\n      0x00\n        /* \"register.sol\":2911:2921  msg.sender */\n      caller\n        /* \"register.sol\":2904:2922  voters[msg.sender] */\n      0xffffffffffffffffffffffffffffffffffffffff\n      and\n      0xffffffffffffffffffffffffffffffffffffffff\n      and\n      dup2\n      mstore\n      0x20\n      add\n      swap1\n      dup2\n      mstore\n      0x20\n      add\n      0x00\n      keccak256\n        /* \"register.sol\":2904:2930  voters[msg.sender].voterID */\n      0x02\n      add\n        /* \"register.sol\":2898:2938  bytes(voters[msg.sender].voterID).length */\n      dup1\n      sload\n      tag_59\n      swap1\n      tag_55\n      jump\t// in\n    tag_59:\n      swap1\n      pop\n        /* \"register.sol\":2898:2943  bytes(voters[msg.sender].voterID).length != 0 */\n      sub\n        /* \"register.sol\":2890:3009  require(bytes(voters[msg.sender].voterID).length != 0, \"This address has mot been registered in the electoral process\") */\n      tag_60\n      jumpi\n      mload(0x40)\n      0x08c379a000000000000000000000000000000000000000000000000000000000\n      dup2\n      mstore\n      0x04\n      add\n      tag_61\n      swap1\n      tag_62\n      jump\t// in\n    tag_61:\n      mload(0x40)\n      dup1\n      swap2\n      sub\n      swap1\n      revert\n    tag_60:\n        /* \"register.sol\":3020:3040  string memory cordID */\n      0x00\n        /* \"register.sol\":3063:3089  Strings.toString(regCount) */\n      tag_63\n        /* \"register.sol\":3080:3088  regCount */\n      sload(0x02)\n        /* \"register.sol\":3063:3079  Strings.toString */\n      tag_64\n        /* \"register.sol\":3063:3089  Strings.toString(regCount) */\n      jump\t// in\n    tag_63:\n        /* \"register.sol\":3043:3090  string.concat(\"COD\",Strings.toString(regCount)) */\n      add(0x20, mload(0x40))\n      tag_65\n      swap2\n      swap1\n      tag_66\n      jump\t// in\n    tag_65:\n      mload(0x40)\n      0x20\n      dup2\n      dup4\n      sub\n      sub\n      dup2\n      mstore\n      swap1\n      0x40\n      mstore\n        /* \"register.sol\":3020:3090  string memory cordID = string.concat(\"COD\",Strings.toString(regCount)) */\n      swap1\n      pop\n        /* \"register.sol\":3100:3131  voters[msg.sender].voterID = '' */\n      mload(0x40)\n      dup1\n      0x20\n      add\n      0x40\n      mstore\n      dup1\n      0x00\n      dup2\n      mstore\n      pop\n        /* \"register.sol\":3100:3106  voters */\n      0x03\n        /* \"register.sol\":3100:3118  voters[msg.sender] */\n      0x00\n        /* \"register.sol\":3107:3117  msg.sender */\n      caller\n        /* \"register.sol\":3100:3118  voters[msg.sender] */\n      0xffffffffffffffffffffffffffffffffffffffff\n      and\n      0xffffffffffffffffffffffffffffffffffffffff\n      and\n      dup2\n      mstore\n      0x20\n      add\n      swap1\n      dup2\n      mstore\n      0x20\n      add\n      0x00\n      keccak256\n        /* \"register.sol\":3100:3126  voters[msg.sender].voterID */\n      0x02\n      add\n        /* \"register.sol\":3100:3131  voters[msg.sender].voterID = '' */\n      swap1\n      dup2\n      tag_67\n      swap2\n      swap1\n      tag_68\n      jump\t// in\n    tag_67:\n      pop\n        /* \"register.sol\":3167:3221  coordinator(name,cordID,electionID,false, msg.sender ) */\n      mload(0x40)\n      dup1\n      0xa0\n      add\n      0x40\n      mstore\n      dup1\n        /* \"register.sol\":3179:3183  name */\n      dup7\n      dup7\n        /* \"register.sol\":3167:3221  coordinator(name,cordID,electionID,false, msg.sender ) */\n      dup1\n      dup1\n      0x1f\n      add\n      0x20\n      dup1\n      swap2\n      div\n      mul\n      0x20\n      add\n      mload(0x40)\n      swap1\n      dup2\n      add\n      0x40\n      mstore\n      dup1\n      swap4\n      swap3\n      swap2\n      swap1\n      dup2\n      dup2\n      mstore\n      0x20\n      add\n      dup4\n      dup4\n      dup1\n      dup3\n      dup5\n      calldatacopy\n      0x00\n      dup2\n      dup5\n      add\n      mstore\n      not(0x1f)\n      0x1f\n      dup3\n      add\n      and\n      swap1\n      pop\n      dup1\n      dup4\n      add\n      swap3\n      pop\n      pop\n      pop\n      pop\n      pop\n      pop\n      pop\n      dup2\n      mstore\n      0x20\n      add\n        /* \"register.sol\":3184:3190  cordID */\n      dup3\n        /* \"register.sol\":3167:3221  coordinator(name,cordID,electionID,false, msg.sender ) */\n      dup2\n      mstore\n      0x20\n      add\n        /* \"register.sol\":3191:3201  electionID */\n      dup5\n      dup5\n        /* \"register.sol\":3167:3221  coordinator(name,cordID,electionID,false, msg.sender ) */\n      dup1\n      dup1\n      0x1f\n      add\n      0x20\n      dup1\n      swap2\n      div\n      mul\n      0x20\n      add\n      mload(0x40)\n      swap1\n      dup2\n      add\n      0x40\n      mstore\n      dup1\n      swap4\n      swap3\n      swap2\n      swap1\n      dup2\n      dup2\n      mstore\n      0x20\n      add\n      dup4\n      dup4\n      dup1\n      dup3\n      dup5\n      calldatacopy\n      0x00\n      dup2\n      dup5\n      add\n      mstore\n      not(0x1f)\n      0x1f\n      dup3\n      add\n      and\n      swap1\n      pop\n      dup1\n      dup4\n      add\n      swap3\n      pop\n      pop\n      pop\n      pop\n      pop\n      pop\n      pop\n      dup2\n      mstore\n      0x20\n      add\n        /* \"register.sol\":3202:3207  false */\n      0x00\n        /* \"register.sol\":3167:3221  coordinator(name,cordID,electionID,false, msg.sender ) */\n      iszero\n      iszero\n      dup2\n      mstore\n      0x20\n      add\n        /* \"register.sol\":3209:3219  msg.sender */\n      caller\n        /* \"register.sol\":3167:3221  coordinator(name,cordID,electionID,false, msg.sender ) */\n      0xffffffffffffffffffffffffffffffffffffffff\n      and\n      dup2\n      mstore\n      pop\n        /* \"register.sol\":3141:3153  coordinators */\n      0x04\n        /* \"register.sol\":3141:3165  coordinators[msg.sender] */\n      0x00\n        /* \"register.sol\":3154:3164  msg.sender */\n      caller\n        /* \"register.sol\":3141:3165  coordinators[msg.sender] */\n      0xffffffffffffffffffffffffffffffffffffffff\n      and\n      0xffffffffffffffffffffffffffffffffffffffff\n      and\n      dup2\n      mstore\n      0x20\n      add\n      swap1\n      dup2\n      mstore\n      0x20\n      add\n      0x00\n      keccak256\n        /* \"register.sol\":3141:3221  coordinators[msg.sender]= coordinator(name,cordID,electionID,false, msg.sender ) */\n      0x00\n      dup3\n      add\n      mload\n      dup2\n      0x00\n      add\n      swap1\n      dup2\n      tag_69\n      swap2\n      swap1\n      tag_68\n      jump\t// in\n    tag_69:\n      pop\n      0x20\n      dup3\n      add\n      mload\n      dup2\n      0x01\n      add\n      swap1\n      dup2\n      tag_70\n      swap2\n      swap1\n      tag_68\n      jump\t// in\n    tag_70:\n      pop\n      0x40\n      dup3\n      add\n      mload\n      dup2\n      0x02\n      add\n      swap1\n      dup2\n      tag_71\n      swap2\n      swap1\n      tag_68\n      jump\t// in\n    tag_71:\n      pop\n      0x60\n      dup3\n      add\n      mload\n      dup2\n      0x03\n      add\n      exp(0x0100, 0x00)\n      dup2\n      sload\n      dup2\n      0xff\n      mul\n      not\n      and\n      swap1\n      dup4\n      iszero\n      iszero\n      mul\n      or\n      swap1\n      sstore\n      pop\n      0x80\n      dup3\n      add\n      mload\n      dup2\n      0x03\n      add\n      exp(0x0100, 0x01)\n      dup2\n      sload\n      dup2\n      0xffffffffffffffffffffffffffffffffffffffff\n      mul\n      not\n      and\n      swap1\n      dup4\n      0xffffffffffffffffffffffffffffffffffffffff\n      and\n      mul\n      or\n      swap1\n      sstore\n      pop\n      swap1\n      pop\n      pop\n        /* \"register.sol\":2783:3228  {... */\n      pop\n        /* \"register.sol\":2704:3228  function applyForAdmin(string calldata name, string calldata electionID) public{... */\n      pop\n      pop\n      pop\n      pop\n      jump\t// out\n        /* \"register.sol\":1714:1754  mapping( address => voter) public voters */\n    tag_24:\n      mstore(0x20, 0x03)\n      dup1\n      0x00\n      mstore\n      keccak256(0x00, 0x40)\n      0x00\n      swap2\n      pop\n      swap1\n      pop\n      dup1\n      0x00\n      add\n      dup1\n      sload\n      tag_72\n      swap1\n      tag_55\n      jump\t// in\n    tag_72:\n      dup1\n      0x1f\n      add\n      0x20\n      dup1\n      swap2\n      div\n      mul\n      0x20\n      add\n      mload(0x40)\n      swap1\n      dup2\n      add\n      0x40\n      mstore\n      dup1\n      swap3\n      swap2\n      swap1\n      dup2\n      dup2\n      mstore\n      0x20\n      add\n      dup3\n      dup1\n      sload\n      tag_73\n      swap1\n      tag_55\n      jump\t// in\n    tag_73:\n      dup1\n      iszero\n      tag_74\n      jumpi\n      dup1\n      0x1f\n      lt\n      tag_75\n      jumpi\n      0x0100\n      dup1\n      dup4\n      sload\n      div\n      mul\n      dup4\n      mstore\n      swap2\n      0x20\n      add\n      swap2\n      jump(tag_74)\n    tag_75:\n      dup3\n      add\n      swap2\n      swap1\n      0x00\n      mstore\n      keccak256(0x00, 0x20)\n      swap1\n    tag_76:\n      dup2\n      sload\n      dup2\n      mstore\n      swap1\n      0x01\n      add\n      swap1\n      0x20\n      add\n      dup1\n      dup4\n      gt\n      tag_76\n      jumpi\n      dup3\n      swap1\n      sub\n      0x1f\n      and\n      dup3\n      add\n      swap2\n    tag_74:\n      pop\n      pop\n      pop\n      pop\n      pop\n      swap1\n      dup1\n      0x01\n      add\n      sload\n      swap1\n      dup1\n      0x02\n      add\n      dup1\n      sload\n      tag_77\n      swap1\n      tag_55\n      jump\t// in\n    tag_77:\n      dup1\n      0x1f\n      add\n      0x20\n      dup1\n      swap2\n      div\n      mul\n      0x20\n      add\n      mload(0x40)\n      swap1\n      dup2\n      add\n      0x40\n      mstore\n      dup1\n      swap3\n      swap2\n      swap1\n      dup2\n      dup2\n      mstore\n      0x20\n      add\n      dup3\n      dup1\n      sload\n      tag_78\n      swap1\n      tag_55\n      jump\t// in\n    tag_78:\n      dup1\n      iszero\n      tag_79\n      jumpi\n      dup1\n      0x1f\n      lt\n      tag_80\n      jumpi\n      0x0100\n      dup1\n      dup4\n      sload\n      div\n      mul\n      dup4\n      mstore\n      swap2\n      0x20\n      add\n      swap2\n      jump(tag_79)\n    tag_80:\n      dup3\n      add\n      swap2\n      swap1\n      0x00\n      mstore\n      keccak256(0x00, 0x20)\n      swap1\n    tag_81:\n      dup2\n      sload\n      dup2\n      mstore\n      swap1\n      0x01\n      add\n      swap1\n      0x20\n      add\n      dup1\n      dup4\n      gt\n      tag_81\n      jumpi\n      dup3\n      swap1\n      sub\n      0x1f\n      and\n      dup3\n      add\n      swap2\n    tag_79:\n      pop\n      pop\n      pop\n      pop\n      pop\n      swap1\n      dup1\n      0x03\n      add\n      0x00\n      swap1\n      sload\n      swap1\n      0x0100\n      exp\n      swap1\n      div\n      0xff\n      and\n      swap1\n      dup1\n      0x03\n      add\n      0x01\n      swap1\n      sload\n      swap1\n      0x0100\n      exp\n      swap1\n      div\n      0xffffffffffffffffffffffffffffffffffffffff\n      and\n      swap1\n      pop\n      dup6\n      jump\t// out\n        /* \"register.sol\":1760:1811  mapping(address => coordinator) public coordinators */\n    tag_29:\n      mstore(0x20, 0x04)\n      dup1\n      0x00\n      mstore\n      keccak256(0x00, 0x40)\n      0x00\n      swap2\n      pop\n      swap1\n      pop\n      dup1\n      0x00\n      add\n      dup1\n      sload\n      tag_82\n      swap1\n      tag_55\n      jump\t// in\n    tag_82:\n      dup1\n      0x1f\n      add\n      0x20\n      dup1\n      swap2\n      div\n      mul\n      0x20\n      add\n      mload(0x40)\n      swap1\n      dup2\n      add\n      0x40\n      mstore\n      dup1\n      swap3\n      swap2\n      swap1\n      dup2\n      dup2\n      mstore\n      0x20\n      add\n      dup3\n      dup1\n      sload\n      tag_83\n      swap1\n      tag_55\n      jump\t// in\n    tag_83:\n      dup1\n      iszero\n      tag_84\n      jumpi\n      dup1\n      0x1f\n      lt\n      tag_85\n      jumpi\n      0x0100\n      dup1\n      dup4\n      sload\n      div\n      mul\n      dup4\n      mstore\n      swap2\n      0x20\n      add\n      swap2\n      jump(tag_84)\n    tag_85:\n      dup3\n      add\n      swap2\n      swap1\n      0x00\n      mstore\n      keccak256(0x00, 0x20)\n      swap1\n    tag_86:\n      dup2\n      sload\n      dup2\n      mstore\n      swap1\n      0x01\n      add\n      swap1\n      0x20\n      add\n      dup1\n      dup4\n      gt\n      tag_86\n      jumpi\n      dup3\n      swap1\n      sub\n      0x1f\n      and\n      dup3\n      add\n      swap2\n    tag_84:\n      pop\n      pop\n      pop\n      pop\n      pop\n      swap1\n      dup1\n      0x01\n      add\n      dup1\n      sload\n      tag_87\n      swap1\n      tag_55\n      jump\t// in\n    tag_87:\n      dup1\n      0x1f\n      add\n      0x20\n      dup1\n      swap2\n      div\n      mul\n      0x20\n      add\n      mload(0x40)\n      swap1\n      dup2\n      add\n      0x40\n      mstore\n      dup1\n      swap3\n      swap2\n      swap1\n      dup2\n      dup2\n      mstore\n      0x20\n      add\n      dup3\n      dup1\n      sload\n      tag_88\n      swap1\n      tag_55\n      jump\t// in\n    tag_88:\n      dup1\n      iszero\n      tag_89\n      jumpi\n      dup1\n      0x1f\n      lt\n      tag_90\n      jumpi\n      0x0100\n      dup1\n      dup4\n      sload\n      div\n      mul\n      dup4\n      mstore\n      swap2\n      0x20\n      add\n      swap2\n      jump(tag_89)\n    tag_90:\n      dup3\n      add\n      swap2\n      swap1\n      0x00\n      mstore\n      keccak256(0x00, 0x20)\n      swap1\n    tag_91:\n      dup2\n      sload\n      dup2\n      mstore\n      swap1\n      0x01\n      add\n      swap1\n      0x20\n      add\n      dup1\n      dup4\n      gt\n      tag_91\n      jumpi\n      dup3\n      swap1\n      sub\n      0x1f\n      and\n      dup3\n      add\n      swap2\n    tag_89:\n      pop\n      pop\n      pop\n      pop\n      pop\n      swap1\n      dup1\n      0x02\n      add\n      dup1\n      sload\n      tag_92\n      swap1\n      tag_55\n      jump\t// in\n    tag_92:\n      dup1\n      0x1f\n      add\n      0x20\n      dup1\n      swap2\n      div\n      mul\n      0x20\n      add\n      mload(0x40)\n      swap1\n      dup2\n      add\n      0x40\n      mstore\n      dup1\n      swap3\n      swap2\n      swap1\n      dup2\n      dup2\n      mstore\n      0x20\n      add\n      dup3\n      dup1\n      sload\n      tag_93\n      swap1\n      tag_55\n      jump\t// in\n    tag_93:\n      dup1\n      iszero\n      tag_94\n      jumpi\n      dup1\n      0x1f\n      lt\n      tag_95\n      jumpi\n      0x0100\n      dup1\n      dup4\n      sload\n      div\n      mul\n      dup4\n      mstore\n      swap2\n      0x20\n      add\n      swap2\n      jump(tag_94)\n    tag_95:\n      dup3\n      add\n      swap2\n      swap1\n      0x00\n      mstore\n      keccak256(0x00, 0x20)\n      swap1\n    tag_96:\n      dup2\n      sload\n      dup2\n      mstore\n      swap1\n      0x01\n      add\n      swap1\n      0x20\n      add\n      dup1\n      dup4\n      gt\n      tag_96\n      jumpi\n      dup3\n      swap1\n      sub\n      0x1f\n      and\n      dup3\n      add\n      swap2\n    tag_94:\n      pop\n      pop\n      pop\n      pop\n      pop\n      swap1\n      dup1\n      0x03\n      add\n      0x00\n      swap1\n      sload\n      swap1\n      0x0100\n      exp\n      swap1\n      div\n      0xff\n      and\n      swap1\n      dup1\n      0x03\n      add\n      0x01\n      swap1\n      sload\n      swap1\n      0x0100\n      exp\n      swap1\n      div\n      0xffffffffffffffffffffffffffffffffffffffff\n      and\n      swap1\n      pop\n      dup6\n      jump\t// out\n        /* \"register.sol\":2013:2475  function registerDetails(string calldata name, uint age) public returns (voter memory) {... */\n    tag_35:\n        /* \"register.sol\":2086:2098  voter memory */\n      tag_97\n      tag_98\n      jump\t// in\n    tag_97:\n        /* \"register.sol\":2124:2126  17 */\n      0x11\n        /* \"register.sol\":2118:2121  age */\n      dup3\n        /* \"register.sol\":2118:2126  age > 17 */\n      gt\n        /* \"register.sol\":2110:2151  require(age > 17, \"not eligible to vote\") */\n      tag_100\n      jumpi\n      mload(0x40)\n      0x08c379a000000000000000000000000000000000000000000000000000000000\n      dup2\n      mstore\n      0x04\n      add\n      tag_101\n      swap1\n      tag_102\n      jump\t// in\n    tag_101:\n      mload(0x40)\n      dup1\n      swap2\n      sub\n      swap1\n      revert\n    tag_100:\n        /* \"register.sol\":2213:2214  0 */\n      0x00\n        /* \"register.sol\":2175:2181  voters */\n      0x03\n        /* \"register.sol\":2175:2193  voters[msg.sender] */\n      0x00\n        /* \"register.sol\":2182:2192  msg.sender */\n      caller\n        /* \"register.sol\":2175:2193  voters[msg.sender] */\n      0xffffffffffffffffffffffffffffffffffffffff\n      and\n      0xffffffffffffffffffffffffffffffffffffffff\n      and\n      dup2\n      mstore\n      0x20\n      add\n      swap1\n      dup2\n      mstore\n      0x20\n      add\n      0x00\n      keccak256\n        /* \"register.sol\":2175:2201  voters[msg.sender].voterID */\n      0x02\n      add\n        /* \"register.sol\":2169:2209  bytes(voters[msg.sender].voterID).length */\n      dup1\n      sload\n      tag_103\n      swap1\n      tag_55\n      jump\t// in\n    tag_103:\n      swap1\n      pop\n        /* \"register.sol\":2169:2214  bytes(voters[msg.sender].voterID).length == 0 */\n      eq\n        /* \"register.sol\":2161:2251  require(bytes(voters[msg.sender].voterID).length == 0, \"This address has been registered\") */\n      tag_104\n      jumpi\n      mload(0x40)\n      0x08c379a000000000000000000000000000000000000000000000000000000000\n      dup2\n      mstore\n      0x04\n      add\n      tag_105\n      swap1\n      tag_106\n      jump\t// in\n    tag_105:\n      mload(0x40)\n      dup1\n      swap2\n      sub\n      swap1\n      revert\n    tag_104:\n        /* \"register.sol\":2262:2283  string memory voterID */\n      0x00\n        /* \"register.sol\":2306:2332  Strings.toString(regCount) */\n      tag_107\n        /* \"register.sol\":2323:2331  regCount */\n      sload(0x02)\n        /* \"register.sol\":2306:2322  Strings.toString */\n      tag_64\n        /* \"register.sol\":2306:2332  Strings.toString(regCount) */\n      jump\t// in\n    tag_107:\n        /* \"register.sol\":2286:2333  string.concat(\"NIG\",Strings.toString(regCount)) */\n      add(0x20, mload(0x40))\n      tag_108\n      swap2\n      swap1\n      tag_109\n      jump\t// in\n    tag_108:\n      mload(0x40)\n      0x20\n      dup2\n      dup4\n      sub\n      sub\n      dup2\n      mstore\n      swap1\n      0x40\n      mstore\n        /* \"register.sol\":2262:2333  string memory voterID = string.concat(\"NIG\",Strings.toString(regCount)) */\n      swap1\n      pop\n        /* \"register.sol\":2365:2408  voter(name, age, voterID,false, msg.sender) */\n      mload(0x40)\n      dup1\n      0xa0\n      add\n      0x40\n      mstore\n      dup1\n        /* \"register.sol\":2371:2375  name */\n      dup7\n      dup7\n        /* \"register.sol\":2365:2408  voter(name, age, voterID,false, msg.sender) */\n      dup1\n      dup1\n      0x1f\n      add\n      0x20\n      dup1\n      swap2\n      div\n      mul\n      0x20\n      add\n      mload(0x40)\n      swap1\n      dup2\n      add\n      0x40\n      mstore\n      dup1\n      swap4\n      swap3\n      swap2\n      swap1\n      dup2\n      dup2\n      mstore\n      0x20\n      add\n      dup4\n      dup4\n      dup1\n      dup3\n      dup5\n      calldatacopy\n      0x00\n      dup2\n      dup5\n      add\n      mstore\n      not(0x1f)\n      0x1f\n      dup3\n      add\n      and\n      swap1\n      pop\n      dup1\n      dup4\n      add\n      swap3\n      pop\n      pop\n      pop\n      pop\n      pop\n      pop\n      pop\n      dup2\n      mstore\n      0x20\n      add\n        /* \"register.sol\":2377:2380  age */\n      dup5\n        /* \"register.sol\":2365:2408  voter(name, age, voterID,false, msg.sender) */\n      dup2\n      mstore\n      0x20\n      add\n        /* \"register.sol\":2382:2389  voterID */\n      dup3\n        /* \"register.sol\":2365:2408  voter(name, age, voterID,false, msg.sender) */\n      dup2\n      mstore\n      0x20\n      add\n        /* \"register.sol\":2390:2395  false */\n      0x00\n        /* \"register.sol\":2365:2408  voter(name, age, voterID,false, msg.sender) */\n      iszero\n      iszero\n      dup2\n      mstore\n      0x20\n      add\n        /* \"register.sol\":2397:2407  msg.sender */\n      caller\n        /* \"register.sol\":2365:2408  voter(name, age, voterID,false, msg.sender) */\n      0xffffffffffffffffffffffffffffffffffffffff\n      and\n      dup2\n      mstore\n      pop\n        /* \"register.sol\":2344:2350  voters */\n      0x03\n        /* \"register.sol\":2344:2362  voters[msg.sender] */\n      0x00\n        /* \"register.sol\":2351:2361  msg.sender */\n      caller\n        /* \"register.sol\":2344:2362  voters[msg.sender] */\n      0xffffffffffffffffffffffffffffffffffffffff\n      and\n      0xffffffffffffffffffffffffffffffffffffffff\n      and\n      dup2\n      mstore\n      0x20\n      add\n      swap1\n      dup2\n      mstore\n      0x20\n      add\n      0x00\n      keccak256\n        /* \"register.sol\":2344:2408  voters[msg.sender] = voter(name, age, voterID,false, msg.sender) */\n      0x00\n      dup3\n      add\n      mload\n      dup2\n      0x00\n      add\n      swap1\n      dup2\n      tag_110\n      swap2\n      swap1\n      tag_68\n      jump\t// in\n    tag_110:\n      pop\n      0x20\n      dup3\n      add\n      mload\n      dup2\n      0x01\n      add\n      sstore\n      0x40\n      dup3\n      add\n      mload\n      dup2\n      0x02\n      add\n      swap1\n      dup2\n      tag_111\n      swap2\n      swap1\n      tag_68\n      jump\t// in\n    tag_111:\n      pop\n      0x60\n      dup3\n      add\n      mload\n      dup2\n      0x03\n      add\n      exp(0x0100, 0x00)\n      dup2\n      sload\n      dup2\n      0xff\n      mul\n      not\n      and\n      swap1\n      dup4\n      iszero\n      iszero\n      mul\n      or\n      swap1\n      sstore\n      pop\n      0x80\n      dup3\n      add\n      mload\n      dup2\n      0x03\n      add\n      exp(0x0100, 0x01)\n      dup2\n      sload\n      dup2\n      0xffffffffffffffffffffffffffffffffffffffff\n      mul\n      not\n      and\n      swap1\n      dup4\n      0xffffffffffffffffffffffffffffffffffffffff\n      and\n      mul\n      or\n      swap1\n      sstore\n      pop\n      swap1\n      pop\n      pop\n        /* \"register.sol\":2431:2432  1 */\n      0x01\n        /* \"register.sol\":2419:2427  regCount */\n      0x02\n      0x00\n        /* \"register.sol\":2419:2432  regCount += 1 */\n      dup3\n      dup3\n      sload\n      tag_112\n      swap2\n      swap1\n      tag_113\n      jump\t// in\n    tag_112:\n      swap3\n      pop\n      pop\n      dup2\n      swap1\n      sstore\n      pop\n        /* \"register.sol\":2450:2456  voters */\n      0x03\n        /* \"register.sol\":2450:2468  voters[msg.sender] */\n      0x00\n        /* \"register.sol\":2457:2467  msg.sender */\n      caller\n        /* \"register.sol\":2450:2468  voters[msg.sender] */\n      0xffffffffffffffffffffffffffffffffffffffff\n      and\n      0xffffffffffffffffffffffffffffffffffffffff\n      and\n      dup2\n      mstore\n      0x20\n      add\n      swap1\n      dup2\n      mstore\n      0x20\n      add\n      0x00\n      keccak256\n        /* \"register.sol\":2443:2468  return voters[msg.sender] */\n      mload(0x40)\n      dup1\n      0xa0\n      add\n      0x40\n      mstore\n      swap1\n      dup2\n      0x00\n      dup3\n      add\n      dup1\n      sload\n      tag_114\n      swap1\n      tag_55\n      jump\t// in\n    tag_114:\n      dup1\n      0x1f\n      add\n      0x20\n      dup1\n      swap2\n      div\n      mul\n      0x20\n      add\n      mload(0x40)\n      swap1\n      dup2\n      add\n      0x40\n      mstore\n      dup1\n      swap3\n      swap2\n      swap1\n      dup2\n      dup2\n      mstore\n      0x20\n      add\n      dup3\n      dup1\n      sload\n      tag_115\n      swap1\n      tag_55\n      jump\t// in\n    tag_115:\n      dup1\n      iszero\n      tag_116\n      jumpi\n      dup1\n      0x1f\n      lt\n      tag_117\n      jumpi\n      0x0100\n      dup1\n      dup4\n      sload\n      div\n      mul\n      dup4\n      mstore\n      swap2\n      0x20\n      add\n      swap2\n      jump(tag_116)\n    tag_117:\n      dup3\n      add\n      swap2\n      swap1\n      0x00\n      mstore\n      keccak256(0x00, 0x20)\n      swap1\n    tag_118:\n      dup2\n      sload\n      dup2\n      mstore\n      swap1\n      0x01\n      add\n      swap1\n      0x20\n      add\n      dup1\n      dup4\n      gt\n      tag_118\n      jumpi\n      dup3\n      swap1\n      sub\n      0x1f\n      and\n      dup3\n      add\n      swap2\n    tag_116:\n      pop\n      pop\n      pop\n      pop\n      pop\n      dup2\n      mstore\n      0x20\n      add\n      0x01\n      dup3\n      add\n      sload\n      dup2\n      mstore\n      0x20\n      add\n      0x02\n      dup3\n      add\n      dup1\n      sload\n      tag_119\n      swap1\n      tag_55\n      jump\t// in\n    tag_119:\n      dup1\n      0x1f\n      add\n      0x20\n      dup1\n      swap2\n      div\n      mul\n      0x20\n      add\n      mload(0x40)\n      swap1\n      dup2\n      add\n      0x40\n      mstore\n      dup1\n      swap3\n      swap2\n      swap1\n      dup2\n      dup2\n      mstore\n      0x20\n      add\n      dup3\n      dup1\n      sload\n      tag_120\n      swap1\n      tag_55\n      jump\t// in\n    tag_120:\n      dup1\n      iszero\n      tag_121\n      jumpi\n      dup1\n      0x1f\n      lt\n      tag_122\n      jumpi\n      0x0100\n      dup1\n      dup4\n      sload\n      div\n      mul\n      dup4\n      mstore\n      swap2\n      0x20\n      add\n      swap2\n      jump(tag_121)\n    tag_122:\n      dup3\n      add\n      swap2\n      swap1\n      0x00\n      mstore\n      keccak256(0x00, 0x20)\n      swap1\n    tag_123:\n      dup2\n      sload\n      dup2\n      mstore\n      swap1\n      0x01\n      add\n      swap1\n      0x20\n      add\n      dup1\n      dup4\n      gt\n      tag_123\n      jumpi\n      dup3\n      swap1\n      sub\n      0x1f\n      and\n      dup3\n      add\n      swap2\n    tag_121:\n      pop\n      pop\n      pop\n      pop\n      pop\n      dup2\n      mstore\n      0x20\n      add\n      0x03\n      dup3\n      add\n      0x00\n      swap1\n      sload\n      swap1\n      0x0100\n      exp\n      swap1\n      div\n      0xff\n      and\n      iszero\n      iszero\n      iszero\n      iszero\n      dup2\n      mstore\n      0x20\n      add\n      0x03\n      dup3\n      add\n      0x01\n      swap1\n      sload\n      swap1\n      0x0100\n      exp\n      swap1\n      div\n      0xffffffffffffffffffffffffffffffffffffffff\n      and\n      0xffffffffffffffffffffffffffffffffffffffff\n      and\n      0xffffffffffffffffffffffffffffffffffffffff\n      and\n      dup2\n      mstore\n      pop\n      pop\n      swap2\n      pop\n      pop\n        /* \"register.sol\":2013:2475  function registerDetails(string calldata name, uint age) public returns (voter memory) {... */\n      swap4\n      swap3\n      pop\n      pop\n      pop\n      jump\t// out\n        /* \"register.sol\":1661:1689  address public contractOwner */\n    tag_39:\n      0x01\n      0x00\n      swap1\n      sload\n      swap1\n      0x0100\n      exp\n      swap1\n      div\n      0xffffffffffffffffffffffffffffffffffffffff\n      and\n      dup2\n      jump\t// out\n        /* \"register.sol\":2482:2594  function confirmApplication() public view returns(bool){... */\n    tag_42:\n        /* \"register.sol\":2532:2536  bool */\n      0x00\n        /* \"register.sol\":2554:2560  voters */\n      0x03\n        /* \"register.sol\":2554:2572  voters[msg.sender] */\n      0x00\n        /* \"register.sol\":2561:2571  msg.sender */\n      caller\n        /* \"register.sol\":2554:2572  voters[msg.sender] */\n      0xffffffffffffffffffffffffffffffffffffffff\n      and\n      0xffffffffffffffffffffffffffffffffffffffff\n      and\n      dup2\n      mstore\n      0x20\n      add\n      swap1\n      dup2\n      mstore\n      0x20\n      add\n      0x00\n      keccak256\n        /* \"register.sol\":2554:2587  voters[msg.sender].canApplyToVote */\n      0x03\n      add\n      0x00\n      swap1\n      sload\n      swap1\n      0x0100\n      exp\n      swap1\n      div\n      0xff\n      and\n        /* \"register.sol\":2547:2587  return voters[msg.sender].canApplyToVote */\n      swap1\n      pop\n        /* \"register.sol\":2482:2594  function confirmApplication() public view returns(bool){... */\n      swap1\n      jump\t// out\n        /* \"register.sol\":3234:3459  function isElectionCoord(string calldata electionID, address cordAddr) public view returns(bool){... */\n    tag_48:\n        /* \"register.sol\":3325:3329  bool */\n      0x00\n        /* \"register.sol\":3440:3450  electionID */\n      dup4\n      dup4\n        /* \"register.sol\":3423:3451  abi.encodePacked(electionID) */\n      add(0x20, mload(0x40))\n      tag_126\n      swap3\n      swap2\n      swap1\n      tag_127\n      jump\t// in\n    tag_126:\n      mload(0x40)\n      0x20\n      dup2\n      dup4\n      sub\n      sub\n      dup2\n      mstore\n      swap1\n      0x40\n      mstore\n        /* \"register.sol\":3413:3452  keccak256(abi.encodePacked(electionID)) */\n      dup1\n      mload\n      swap1\n      0x20\n      add\n      keccak256\n        /* \"register.sol\":3374:3386  coordinators */\n      0x04\n        /* \"register.sol\":3374:3396  coordinators[cordAddr] */\n      0x00\n        /* \"register.sol\":3387:3395  cordAddr */\n      dup5\n        /* \"register.sol\":3374:3396  coordinators[cordAddr] */\n      0xffffffffffffffffffffffffffffffffffffffff\n      and\n      0xffffffffffffffffffffffffffffffffffffffff\n      and\n      dup2\n      mstore\n      0x20\n      add\n      swap1\n      dup2\n      mstore\n      0x20\n      add\n      0x00\n      keccak256\n        /* \"register.sol\":3374:3407  coordinators[cordAddr].electionID */\n      0x02\n      add\n        /* \"register.sol\":3357:3408  abi.encodePacked(coordinators[cordAddr].electionID) */\n      add(0x20, mload(0x40))\n      tag_128\n      swap2\n      swap1\n      tag_129\n      jump\t// in\n    tag_128:\n      mload(0x40)\n      0x20\n      dup2\n      dup4\n      sub\n      sub\n      dup2\n      mstore\n      swap1\n      0x40\n      mstore\n        /* \"register.sol\":3347:3409  keccak256(abi.encodePacked(coordinators[cordAddr].electionID)) */\n      dup1\n      mload\n      swap1\n      0x20\n      add\n      keccak256\n        /* \"register.sol\":3347:3452  keccak256(abi.encodePacked(coordinators[cordAddr].electionID)) == keccak256(abi.encodePacked(electionID)) */\n      eq\n        /* \"register.sol\":3340:3452  return keccak256(abi.encodePacked(coordinators[cordAddr].electionID)) == keccak256(abi.encodePacked(electionID)) */\n      swap1\n      pop\n        /* \"register.sol\":3234:3459  function isElectionCoord(string calldata electionID, address cordAddr) public view returns(bool){... */\n      swap4\n      swap3\n      pop\n      pop\n      pop\n      jump\t// out\n        /* \"register.sol\":2600:2698  function getDetails() public view returns (voter memory){... */\n    tag_51:\n        /* \"register.sol\":2643:2655  voter memory */\n      tag_130\n      tag_98\n      jump\t// in\n    tag_130:\n        /* \"register.sol\":2673:2679  voters */\n      0x03\n        /* \"register.sol\":2673:2691  voters[msg.sender] */\n      0x00\n        /* \"register.sol\":2680:2690  msg.sender */\n      caller\n        /* \"register.sol\":2673:2691  voters[msg.sender] */\n      0xffffffffffffffffffffffffffffffffffffffff\n      and\n      0xffffffffffffffffffffffffffffffffffffffff\n      and\n      dup2\n      mstore\n      0x20\n      add\n      swap1\n      dup2\n      mstore\n      0x20\n      add\n      0x00\n      keccak256\n        /* \"register.sol\":2666:2691  return voters[msg.sender] */\n      mload(0x40)\n      dup1\n      0xa0\n      add\n      0x40\n      mstore\n      swap1\n      dup2\n      0x00\n      dup3\n      add\n      dup1\n      sload\n      tag_132\n      swap1\n      tag_55\n      jump\t// in\n    tag_132:\n      dup1\n      0x1f\n      add\n      0x20\n      dup1\n      swap2\n      div\n      mul\n      0x20\n      add\n      mload(0x40)\n      swap1\n      dup2\n      add\n      0x40\n      mstore\n      dup1\n      swap3\n      swap2\n      swap1\n      dup2\n      dup2\n      mstore\n      0x20\n      add\n      dup3\n      dup1\n      sload\n      tag_133\n      swap1\n      tag_55\n      jump\t// in\n    tag_133:\n      dup1\n      iszero\n      tag_134\n      jumpi\n      dup1\n      0x1f\n      lt\n      tag_135\n      jumpi\n      0x0100\n      dup1\n      dup4\n      sload\n      div\n      mul\n      dup4\n      mstore\n      swap2\n      0x20\n      add\n      swap2\n      jump(tag_134)\n    tag_135:\n      dup3\n      add\n      swap2\n      swap1\n      0x00\n      mstore\n      keccak256(0x00, 0x20)\n      swap1\n    tag_136:\n      dup2\n      sload\n      dup2\n      mstore\n      swap1\n      0x01\n      add\n      swap1\n      0x20\n      add\n      dup1\n      dup4\n      gt\n      tag_136\n      jumpi\n      dup3\n      swap1\n      sub\n      0x1f\n      and\n      dup3\n      add\n      swap2\n    tag_134:\n      pop\n      pop\n      pop\n      pop\n      pop\n      dup2\n      mstore\n      0x20\n      add\n      0x01\n      dup3\n      add\n      sload\n      dup2\n      mstore\n      0x20\n      add\n      0x02\n      dup3\n      add\n      dup1\n      sload\n      tag_137\n      swap1\n      tag_55\n      jump\t// in\n    tag_137:\n      dup1\n      0x1f\n      add\n      0x20\n      dup1\n      swap2\n      div\n      mul\n      0x20\n      add\n      mload(0x40)\n      swap1\n      dup2\n      add\n      0x40\n      mstore\n      dup1\n      swap3\n      swap2\n      swap1\n      dup2\n      dup2\n      mstore\n      0x20\n      add\n      dup3\n      dup1\n      sload\n      tag_138\n      swap1\n      tag_55\n      jump\t// in\n    tag_138:\n      dup1\n      iszero\n      tag_139\n      jumpi\n      dup1\n      0x1f\n      lt\n      tag_140\n      jumpi\n      0x0100\n      dup1\n      dup4\n      sload\n      div\n      mul\n      dup4\n      mstore\n      swap2\n      0x20\n      add\n      swap2\n      jump(tag_139)\n    tag_140:\n      dup3\n      add\n      swap2\n      swap1\n      0x00\n      mstore\n      keccak256(0x00, 0x20)\n      swap1\n    tag_141:\n      dup2\n      sload\n      dup2\n      mstore\n      swap1\n      0x01\n      add\n      swap1\n      0x20\n      add\n      dup1\n      dup4\n      gt\n      tag_141\n      jumpi\n      dup3\n      swap1\n      sub\n      0x1f\n      and\n      dup3\n      add\n      swap2\n    tag_139:\n      pop\n      pop\n      pop\n      pop\n      pop\n      dup2\n      mstore\n      0x20\n      add\n      0x03\n      dup3\n      add\n      0x00\n      swap1\n      sload\n      swap1\n      0x0100\n      exp\n      swap1\n      div\n      0xff\n      and\n      iszero\n      iszero\n      iszero\n      iszero\n      dup2\n      mstore\n      0x20\n      add\n      0x03\n      dup3\n      add\n      0x01\n      swap1\n      sload\n      swap1\n      0x0100\n      exp\n      swap1\n      div\n      0xffffffffffffffffffffffffffffffffffffffff\n      and\n      0xffffffffffffffffffffffffffffffffffffffff\n      and\n      0xffffffffffffffffffffffffffffffffffffffff\n      and\n      dup2\n      mstore\n      pop\n      pop\n      swap1\n      pop\n        /* \"register.sol\":2600:2698  function getDetails() public view returns (voter memory){... */\n      swap1\n      jump\t// out\n        /* \"@openzeppelin/contracts/utils/Strings.sol\":415:1111  function toString(uint256 value) internal pure returns (string memory) {... */\n    tag_64:\n        /* \"@openzeppelin/contracts/utils/Strings.sol\":471:484  string memory */\n      0x60\n        /* \"@openzeppelin/contracts/utils/Strings.sol\":520:534  uint256 length */\n      0x00\n        /* \"@openzeppelin/contracts/utils/Strings.sol\":557:558  1 */\n      0x01\n        /* \"@openzeppelin/contracts/utils/Strings.sol\":537:554  Math.log10(value) */\n      tag_143\n        /* \"@openzeppelin/contracts/utils/Strings.sol\":548:553  value */\n      dup5\n        /* \"@openzeppelin/contracts/utils/Strings.sol\":537:547  Math.log10 */\n      tag_144\n        /* \"@openzeppelin/contracts/utils/Strings.sol\":537:554  Math.log10(value) */\n      jump\t// in\n    tag_143:\n        /* \"@openzeppelin/contracts/utils/Strings.sol\":537:558  Math.log10(value) + 1 */\n      add\n        /* \"@openzeppelin/contracts/utils/Strings.sol\":520:558  uint256 length = Math.log10(value) + 1 */\n      swap1\n      pop\n        /* \"@openzeppelin/contracts/utils/Strings.sol\":572:592  string memory buffer */\n      0x00\n        /* \"@openzeppelin/contracts/utils/Strings.sol\":606:612  length */\n      dup2\n        /* \"@openzeppelin/contracts/utils/Strings.sol\":595:613  new string(length) */\n      0xffffffffffffffff\n      dup2\n      gt\n      iszero\n      tag_145\n      jumpi\n      tag_146\n      tag_147\n      jump\t// in\n    tag_146:\n    tag_145:\n      mload(0x40)\n      swap1\n      dup1\n      dup3\n      mstore\n      dup1\n      0x1f\n      add\n      not(0x1f)\n      and\n      0x20\n      add\n      dup3\n      add\n      0x40\n      mstore\n      dup1\n      iszero\n      tag_148\n      jumpi\n      dup2\n      0x20\n      add\n      0x01\n      dup3\n      mul\n      dup1\n      calldatasize\n      dup4\n      calldatacopy\n      dup1\n      dup3\n      add\n      swap2\n      pop\n      pop\n      swap1\n      pop\n    tag_148:\n      pop\n        /* \"@openzeppelin/contracts/utils/Strings.sol\":572:613  string memory buffer = new string(length) */\n      swap1\n      pop\n        /* \"@openzeppelin/contracts/utils/Strings.sol\":627:638  uint256 ptr */\n      0x00\n        /* \"@openzeppelin/contracts/utils/Strings.sol\":753:759  length */\n      dup3\n        /* \"@openzeppelin/contracts/utils/Strings.sol\":749:751  32 */\n      0x20\n        /* \"@openzeppelin/contracts/utils/Strings.sol\":745:760  add(32, length) */\n      add\n        /* \"@openzeppelin/contracts/utils/Strings.sol\":737:743  buffer */\n      dup3\n        /* \"@openzeppelin/contracts/utils/Strings.sol\":733:761  add(buffer, add(32, length)) */\n      add\n        /* \"@openzeppelin/contracts/utils/Strings.sol\":726:761  ptr := add(buffer, add(32, length)) */\n      swap1\n      pop\n        /* \"@openzeppelin/contracts/utils/Strings.sol\":788:1068  while (true) {... */\n    tag_149:\n        /* \"@openzeppelin/contracts/utils/Strings.sol\":795:799  true */\n      0x01\n        /* \"@openzeppelin/contracts/utils/Strings.sol\":788:1068  while (true) {... */\n      iszero\n      tag_150\n      jumpi\n        /* \"@openzeppelin/contracts/utils/Strings.sol\":819:824  ptr-- */\n      dup1\n      dup1\n      0x01\n      swap1\n      sub\n      swap2\n      pop\n      pop\n        /* \"@openzeppelin/contracts/utils/Strings.sol\":958:966  _SYMBOLS */\n      0x3031323334353637383961626364656600000000000000000000000000000000\n        /* \"@openzeppelin/contracts/utils/Strings.sol\":953:955  10 */\n      0x0a\n        /* \"@openzeppelin/contracts/utils/Strings.sol\":946:951  value */\n      dup7\n        /* \"@openzeppelin/contracts/utils/Strings.sol\":942:956  mod(value, 10) */\n      mod\n        /* \"@openzeppelin/contracts/utils/Strings.sol\":937:967  byte(mod(value, 10), _SYMBOLS) */\n      byte\n        /* \"@openzeppelin/contracts/utils/Strings.sol\":932:935  ptr */\n      dup2\n        /* \"@openzeppelin/contracts/utils/Strings.sol\":924:968  mstore8(ptr, byte(mod(value, 10), _SYMBOLS)) */\n      mstore8\n        /* \"@openzeppelin/contracts/utils/Strings.sol\":1012:1014  10 */\n      0x0a\n        /* \"@openzeppelin/contracts/utils/Strings.sol\":1003:1014  value /= 10 */\n      dup6\n      dup2\n      tag_151\n      jumpi\n      tag_152\n      tag_153\n      jump\t// in\n    tag_152:\n    tag_151:\n      div\n      swap5\n      pop\n        /* \"@openzeppelin/contracts/utils/Strings.sol\":1045:1046  0 */\n      0x00\n        /* \"@openzeppelin/contracts/utils/Strings.sol\":1036:1041  value */\n      dup6\n        /* \"@openzeppelin/contracts/utils/Strings.sol\":1036:1046  value == 0 */\n      sub\n        /* \"@openzeppelin/contracts/utils/Strings.sol\":788:1068  while (true) {... */\n      tag_149\n        /* \"@openzeppelin/contracts/utils/Strings.sol\":1032:1053  if (value == 0) break */\n      jumpi\n        /* \"@openzeppelin/contracts/utils/Strings.sol\":788:1068  while (true) {... */\n    tag_150:\n        /* \"@openzeppelin/contracts/utils/Strings.sol\":1088:1094  buffer */\n      dup2\n        /* \"@openzeppelin/contracts/utils/Strings.sol\":1081:1094  return buffer */\n      swap4\n      pop\n      pop\n      pop\n      pop\n        /* \"@openzeppelin/contracts/utils/Strings.sol\":415:1111  function toString(uint256 value) internal pure returns (string memory) {... */\n      swap2\n      swap1\n      pop\n      jump\t// out\n        /* \"@openzeppelin/contracts/utils/math/Math.sol\":9889:10779  function log10(uint256 value) internal pure returns (uint256) {... */\n    tag_144:\n        /* \"@openzeppelin/contracts/utils/math/Math.sol\":9942:9949  uint256 */\n      0x00\n        /* \"@openzeppelin/contracts/utils/math/Math.sol\":9961:9975  uint256 result */\n      dup1\n        /* \"@openzeppelin/contracts/utils/math/Math.sol\":9978:9979  0 */\n      0x00\n        /* \"@openzeppelin/contracts/utils/math/Math.sol\":9961:9979  uint256 result = 0 */\n      swap1\n      pop\n        /* \"@openzeppelin/contracts/utils/math/Math.sol\":10026:10032  10**64 */\n      0x184f03e93ff9f4daa797ed6e38ed64bf6a1f010000000000000000\n        /* \"@openzeppelin/contracts/utils/math/Math.sol\":10017:10022  value */\n      dup4\n        /* \"@openzeppelin/contracts/utils/math/Math.sol\":10017:10032  value >= 10**64 */\n      lt\n        /* \"@openzeppelin/contracts/utils/math/Math.sol\":10013:10112  if (value >= 10**64) {... */\n      tag_156\n      jumpi\n        /* \"@openzeppelin/contracts/utils/math/Math.sol\":10061:10067  10**64 */\n      0x184f03e93ff9f4daa797ed6e38ed64bf6a1f010000000000000000\n        /* \"@openzeppelin/contracts/utils/math/Math.sol\":10052:10067  value /= 10**64 */\n      dup4\n      dup2\n      tag_157\n      jumpi\n      tag_158\n      tag_153\n      jump\t// in\n    tag_158:\n    tag_157:\n      div\n      swap3\n      pop\n        /* \"@openzeppelin/contracts/utils/math/Math.sol\":10095:10097  64 */\n      0x40\n        /* \"@openzeppelin/contracts/utils/math/Math.sol\":10085:10097  result += 64 */\n      dup2\n      add\n      swap1\n      pop\n        /* \"@openzeppelin/contracts/utils/math/Math.sol\":10013:10112  if (value >= 10**64) {... */\n    tag_156:\n        /* \"@openzeppelin/contracts/utils/math/Math.sol\":10138:10144  10**32 */\n      0x04ee2d6d415b85acef8100000000\n        /* \"@openzeppelin/contracts/utils/math/Math.sol\":10129:10134  value */\n      dup4\n        /* \"@openzeppelin/contracts/utils/math/Math.sol\":10129:10144  value >= 10**32 */\n      lt\n        /* \"@openzeppelin/contracts/utils/math/Math.sol\":10125:10224  if (value >= 10**32) {... */\n      tag_159\n      jumpi\n        /* \"@openzeppelin/contracts/utils/math/Math.sol\":10173:10179  10**32 */\n      0x04ee2d6d415b85acef8100000000\n        /* \"@openzeppelin/contracts/utils/math/Math.sol\":10164:10179  value /= 10**32 */\n      dup4\n      dup2\n      tag_160\n      jumpi\n      tag_161\n      tag_153\n      jump\t// in\n    tag_161:\n    tag_160:\n      div\n      swap3\n      pop\n        /* \"@openzeppelin/contracts/utils/math/Math.sol\":10207:10209  32 */\n      0x20\n        /* \"@openzeppelin/contracts/utils/math/Math.sol\":10197:10209  result += 32 */\n      dup2\n      add\n      swap1\n      pop\n        /* \"@openzeppelin/contracts/utils/math/Math.sol\":10125:10224  if (value >= 10**32) {... */\n    tag_159:\n        /* \"@openzeppelin/contracts/utils/math/Math.sol\":10250:10256  10**16 */\n      0x2386f26fc10000\n        /* \"@openzeppelin/contracts/utils/math/Math.sol\":10241:10246  value */\n      dup4\n        /* \"@openzeppelin/contracts/utils/math/Math.sol\":10241:10256  value >= 10**16 */\n      lt\n        /* \"@openzeppelin/contracts/utils/math/Math.sol\":10237:10336  if (value >= 10**16) {... */\n      tag_162\n      jumpi\n        /* \"@openzeppelin/contracts/utils/math/Math.sol\":10285:10291  10**16 */\n      0x2386f26fc10000\n        /* \"@openzeppelin/contracts/utils/math/Math.sol\":10276:10291  value /= 10**16 */\n      dup4\n      dup2\n      tag_163\n      jumpi\n      tag_164\n      tag_153\n      jump\t// in\n    tag_164:\n    tag_163:\n      div\n      swap3\n      pop\n        /* \"@openzeppelin/contracts/utils/math/Math.sol\":10319:10321  16 */\n      0x10\n        /* \"@openzeppelin/contracts/utils/math/Math.sol\":10309:10321  result += 16 */\n      dup2\n      add\n      swap1\n      pop\n        /* \"@openzeppelin/contracts/utils/math/Math.sol\":10237:10336  if (value >= 10**16) {... */\n    tag_162:\n        /* \"@openzeppelin/contracts/utils/math/Math.sol\":10362:10367  10**8 */\n      0x05f5e100\n        /* \"@openzeppelin/contracts/utils/math/Math.sol\":10353:10358  value */\n      dup4\n        /* \"@openzeppelin/contracts/utils/math/Math.sol\":10353:10367  value >= 10**8 */\n      lt\n        /* \"@openzeppelin/contracts/utils/math/Math.sol\":10349:10445  if (value >= 10**8) {... */\n      tag_165\n      jumpi\n        /* \"@openzeppelin/contracts/utils/math/Math.sol\":10396:10401  10**8 */\n      0x05f5e100\n        /* \"@openzeppelin/contracts/utils/math/Math.sol\":10387:10401  value /= 10**8 */\n      dup4\n      dup2\n      tag_166\n      jumpi\n      tag_167\n      tag_153\n      jump\t// in\n    tag_167:\n    tag_166:\n      div\n      swap3\n      pop\n        /* \"@openzeppelin/contracts/utils/math/Math.sol\":10429:10430  8 */\n      0x08\n        /* \"@openzeppelin/contracts/utils/math/Math.sol\":10419:10430  result += 8 */\n      dup2\n      add\n      swap1\n      pop\n        /* \"@openzeppelin/contracts/utils/math/Math.sol\":10349:10445  if (value >= 10**8) {... */\n    tag_165:\n        /* \"@openzeppelin/contracts/utils/math/Math.sol\":10471:10476  10**4 */\n      0x2710\n        /* \"@openzeppelin/contracts/utils/math/Math.sol\":10462:10467  value */\n      dup4\n        /* \"@openzeppelin/contracts/utils/math/Math.sol\":10462:10476  value >= 10**4 */\n      lt\n        /* \"@openzeppelin/contracts/utils/math/Math.sol\":10458:10554  if (value >= 10**4) {... */\n      tag_168\n      jumpi\n        /* \"@openzeppelin/contracts/utils/math/Math.sol\":10505:10510  10**4 */\n      0x2710\n        /* \"@openzeppelin/contracts/utils/math/Math.sol\":10496:10510  value /= 10**4 */\n      dup4\n      dup2\n      tag_169\n      jumpi\n      tag_170\n      tag_153\n      jump\t// in\n    tag_170:\n    tag_169:\n      div\n      swap3\n      pop\n        /* \"@openzeppelin/contracts/utils/math/Math.sol\":10538:10539  4 */\n      0x04\n        /* \"@openzeppelin/contracts/utils/math/Math.sol\":10528:10539  result += 4 */\n      dup2\n      add\n      swap1\n      pop\n        /* \"@openzeppelin/contracts/utils/math/Math.sol\":10458:10554  if (value >= 10**4) {... */\n    tag_168:\n        /* \"@openzeppelin/contracts/utils/math/Math.sol\":10580:10585  10**2 */\n      0x64\n        /* \"@openzeppelin/contracts/utils/math/Math.sol\":10571:10576  value */\n      dup4\n        /* \"@openzeppelin/contracts/utils/math/Math.sol\":10571:10585  value >= 10**2 */\n      lt\n        /* \"@openzeppelin/contracts/utils/math/Math.sol\":10567:10663  if (value >= 10**2) {... */\n      tag_171\n      jumpi\n        /* \"@openzeppelin/contracts/utils/math/Math.sol\":10614:10619  10**2 */\n      0x64\n        /* \"@openzeppelin/contracts/utils/math/Math.sol\":10605:10619  value /= 10**2 */\n      dup4\n      dup2\n      tag_172\n      jumpi\n      tag_173\n      tag_153\n      jump\t// in\n    tag_173:\n    tag_172:\n      div\n      swap3\n      pop\n        /* \"@openzeppelin/contracts/utils/math/Math.sol\":10647:10648  2 */\n      0x02\n        /* \"@openzeppelin/contracts/utils/math/Math.sol\":10637:10648  result += 2 */\n      dup2\n      add\n      swap1\n      pop\n        /* \"@openzeppelin/contracts/utils/math/Math.sol\":10567:10663  if (value >= 10**2) {... */\n    tag_171:\n        /* \"@openzeppelin/contracts/utils/math/Math.sol\":10689:10694  10**1 */\n      0x0a\n        /* \"@openzeppelin/contracts/utils/math/Math.sol\":10680:10685  value */\n      dup4\n        /* \"@openzeppelin/contracts/utils/math/Math.sol\":10680:10694  value >= 10**1 */\n      lt\n        /* \"@openzeppelin/contracts/utils/math/Math.sol\":10676:10740  if (value >= 10**1) {... */\n      tag_174\n      jumpi\n        /* \"@openzeppelin/contracts/utils/math/Math.sol\":10724:10725  1 */\n      0x01\n        /* \"@openzeppelin/contracts/utils/math/Math.sol\":10714:10725  result += 1 */\n      dup2\n      add\n      swap1\n      pop\n        /* \"@openzeppelin/contracts/utils/math/Math.sol\":10676:10740  if (value >= 10**1) {... */\n    tag_174:\n        /* \"@openzeppelin/contracts/utils/math/Math.sol\":10766:10772  result */\n      dup1\n        /* \"@openzeppelin/contracts/utils/math/Math.sol\":10759:10772  return result */\n      swap2\n      pop\n      pop\n        /* \"@openzeppelin/contracts/utils/math/Math.sol\":9889:10779  function log10(uint256 value) internal pure returns (uint256) {... */\n      swap2\n      swap1\n      pop\n      jump\t// out\n    tag_98:\n      mload(0x40)\n      dup1\n      0xa0\n      add\n      0x40\n      mstore\n      dup1\n      0x60\n      dup2\n      mstore\n      0x20\n      add\n      0x00\n      dup2\n      mstore\n      0x20\n      add\n      0x60\n      dup2\n      mstore\n      0x20\n      add\n      iszero(iszero(0x00))\n      dup2\n      mstore\n      0x20\n      add\n      and(0xffffffffffffffffffffffffffffffffffffffff, 0x00)\n      dup2\n      mstore\n      pop\n      swap1\n      jump\t// out\n        /* \"#utility.yul\":7:133   */\n    tag_175:\n        /* \"#utility.yul\":44:51   */\n      0x00\n        /* \"#utility.yul\":84:126   */\n      0xffffffffffffffffffffffffffffffffffffffff\n        /* \"#utility.yul\":77:82   */\n      dup3\n        /* \"#utility.yul\":73:127   */\n      and\n        /* \"#utility.yul\":62:127   */\n      swap1\n      pop\n        /* \"#utility.yul\":7:133   */\n      swap2\n      swap1\n      pop\n      jump\t// out\n        /* \"#utility.yul\":139:235   */\n    tag_176:\n        /* \"#utility.yul\":176:183   */\n      0x00\n        /* \"#utility.yul\":205:229   */\n      tag_239\n        /* \"#utility.yul\":223:228   */\n      dup3\n        /* \"#utility.yul\":205:229   */\n      tag_175\n      jump\t// in\n    tag_239:\n        /* \"#utility.yul\":194:229   */\n      swap1\n      pop\n        /* \"#utility.yul\":139:235   */\n      swap2\n      swap1\n      pop\n      jump\t// out\n        /* \"#utility.yul\":241:359   */\n    tag_177:\n        /* \"#utility.yul\":328:352   */\n      tag_241\n        /* \"#utility.yul\":346:351   */\n      dup2\n        /* \"#utility.yul\":328:352   */\n      tag_176\n      jump\t// in\n    tag_241:\n        /* \"#utility.yul\":323:326   */\n      dup3\n        /* \"#utility.yul\":316:353   */\n      mstore\n        /* \"#utility.yul\":241:359   */\n      pop\n      pop\n      jump\t// out\n        /* \"#utility.yul\":365:587   */\n    tag_16:\n        /* \"#utility.yul\":458:462   */\n      0x00\n        /* \"#utility.yul\":496:498   */\n      0x20\n        /* \"#utility.yul\":485:494   */\n      dup3\n        /* \"#utility.yul\":481:499   */\n      add\n        /* \"#utility.yul\":473:499   */\n      swap1\n      pop\n        /* \"#utility.yul\":509:580   */\n      tag_243\n        /* \"#utility.yul\":577:578   */\n      0x00\n        /* \"#utility.yul\":566:575   */\n      dup4\n        /* \"#utility.yul\":562:579   */\n      add\n        /* \"#utility.yul\":553:559   */\n      dup5\n        /* \"#utility.yul\":509:580   */\n      tag_177\n      jump\t// in\n    tag_243:\n        /* \"#utility.yul\":365:587   */\n      swap3\n      swap2\n      pop\n      pop\n      jump\t// out\n        /* \"#utility.yul\":674:791   */\n    tag_179:\n        /* \"#utility.yul\":783:784   */\n      0x00\n        /* \"#utility.yul\":780:781   */\n      dup1\n        /* \"#utility.yul\":773:785   */\n      revert\n        /* \"#utility.yul\":797:914   */\n    tag_180:\n        /* \"#utility.yul\":906:907   */\n      0x00\n        /* \"#utility.yul\":903:904   */\n      dup1\n        /* \"#utility.yul\":896:908   */\n      revert\n        /* \"#utility.yul\":920:1037   */\n    tag_181:\n        /* \"#utility.yul\":1029:1030   */\n      0x00\n        /* \"#utility.yul\":1026:1027   */\n      dup1\n        /* \"#utility.yul\":1019:1031   */\n      revert\n        /* \"#utility.yul\":1043:1160   */\n    tag_182:\n        /* \"#utility.yul\":1152:1153   */\n      0x00\n        /* \"#utility.yul\":1149:1150   */\n      dup1\n        /* \"#utility.yul\":1142:1154   */\n      revert\n        /* \"#utility.yul\":1166:1283   */\n    tag_183:\n        /* \"#utility.yul\":1275:1276   */\n      0x00\n        /* \"#utility.yul\":1272:1273   */\n      dup1\n        /* \"#utility.yul\":1265:1277   */\n      revert\n        /* \"#utility.yul\":1303:1856   */\n    tag_184:\n        /* \"#utility.yul\":1361:1369   */\n      0x00\n        /* \"#utility.yul\":1371:1377   */\n      dup1\n        /* \"#utility.yul\":1421:1424   */\n      dup4\n        /* \"#utility.yul\":1414:1418   */\n      0x1f\n        /* \"#utility.yul\":1406:1412   */\n      dup5\n        /* \"#utility.yul\":1402:1419   */\n      add\n        /* \"#utility.yul\":1398:1425   */\n      slt\n        /* \"#utility.yul\":1388:1510   */\n      tag_251\n      jumpi\n        /* \"#utility.yul\":1429:1508   */\n      tag_252\n      tag_181\n      jump\t// in\n    tag_252:\n        /* \"#utility.yul\":1388:1510   */\n    tag_251:\n        /* \"#utility.yul\":1542:1548   */\n      dup3\n        /* \"#utility.yul\":1529:1549   */\n      calldataload\n        /* \"#utility.yul\":1519:1549   */\n      swap1\n      pop\n        /* \"#utility.yul\":1572:1590   */\n      0xffffffffffffffff\n        /* \"#utility.yul\":1564:1570   */\n      dup2\n        /* \"#utility.yul\":1561:1591   */\n      gt\n        /* \"#utility.yul\":1558:1675   */\n      iszero\n      tag_253\n      jumpi\n        /* \"#utility.yul\":1594:1673   */\n      tag_254\n      tag_182\n      jump\t// in\n    tag_254:\n        /* \"#utility.yul\":1558:1675   */\n    tag_253:\n        /* \"#utility.yul\":1708:1712   */\n      0x20\n        /* \"#utility.yul\":1700:1706   */\n      dup4\n        /* \"#utility.yul\":1696:1713   */\n      add\n        /* \"#utility.yul\":1684:1713   */\n      swap2\n      pop\n        /* \"#utility.yul\":1762:1765   */\n      dup4\n        /* \"#utility.yul\":1754:1758   */\n      0x01\n        /* \"#utility.yul\":1746:1752   */\n      dup3\n        /* \"#utility.yul\":1742:1759   */\n      mul\n        /* \"#utility.yul\":1732:1740   */\n      dup4\n        /* \"#utility.yul\":1728:1760   */\n      add\n        /* \"#utility.yul\":1725:1766   */\n      gt\n        /* \"#utility.yul\":1722:1850   */\n      iszero\n      tag_255\n      jumpi\n        /* \"#utility.yul\":1769:1848   */\n      tag_256\n      tag_183\n      jump\t// in\n    tag_256:\n        /* \"#utility.yul\":1722:1850   */\n    tag_255:\n        /* \"#utility.yul\":1303:1856   */\n      swap3\n      pop\n      swap3\n      swap1\n      pop\n      jump\t// out\n        /* \"#utility.yul\":1862:2736   */\n    tag_19:\n        /* \"#utility.yul\":1954:1960   */\n      0x00\n        /* \"#utility.yul\":1962:1968   */\n      dup1\n        /* \"#utility.yul\":1970:1976   */\n      0x00\n        /* \"#utility.yul\":1978:1984   */\n      dup1\n        /* \"#utility.yul\":2027:2029   */\n      0x40\n        /* \"#utility.yul\":2015:2024   */\n      dup6\n        /* \"#utility.yul\":2006:2013   */\n      dup8\n        /* \"#utility.yul\":2002:2025   */\n      sub\n        /* \"#utility.yul\":1998:2030   */\n      slt\n        /* \"#utility.yul\":1995:2114   */\n      iszero\n      tag_258\n      jumpi\n        /* \"#utility.yul\":2033:2112   */\n      tag_259\n      tag_179\n      jump\t// in\n    tag_259:\n        /* \"#utility.yul\":1995:2114   */\n    tag_258:\n        /* \"#utility.yul\":2181:2182   */\n      0x00\n        /* \"#utility.yul\":2170:2179   */\n      dup6\n        /* \"#utility.yul\":2166:2183   */\n      add\n        /* \"#utility.yul\":2153:2184   */\n      calldataload\n        /* \"#utility.yul\":2211:2229   */\n      0xffffffffffffffff\n        /* \"#utility.yul\":2203:2209   */\n      dup2\n        /* \"#utility.yul\":2200:2230   */\n      gt\n        /* \"#utility.yul\":2197:2314   */\n      iszero\n      tag_260\n      jumpi\n        /* \"#utility.yul\":2233:2312   */\n      tag_261\n      tag_180\n      jump\t// in\n    tag_261:\n        /* \"#utility.yul\":2197:2314   */\n    tag_260:\n        /* \"#utility.yul\":2346:2411   */\n      tag_262\n        /* \"#utility.yul\":2403:2410   */\n      dup8\n        /* \"#utility.yul\":2394:2400   */\n      dup3\n        /* \"#utility.yul\":2383:2392   */\n      dup9\n        /* \"#utility.yul\":2379:2401   */\n      add\n        /* \"#utility.yul\":2346:2411   */\n      tag_184\n      jump\t// in\n    tag_262:\n        /* \"#utility.yul\":2328:2411   */\n      swap5\n      pop\n      swap5\n      pop\n        /* \"#utility.yul\":2124:2421   */\n      pop\n        /* \"#utility.yul\":2488:2490   */\n      0x20\n        /* \"#utility.yul\":2477:2486   */\n      dup6\n        /* \"#utility.yul\":2473:2491   */\n      add\n        /* \"#utility.yul\":2460:2492   */\n      calldataload\n        /* \"#utility.yul\":2519:2537   */\n      0xffffffffffffffff\n        /* \"#utility.yul\":2511:2517   */\n      dup2\n        /* \"#utility.yul\":2508:2538   */\n      gt\n        /* \"#utility.yul\":2505:2622   */\n      iszero\n      tag_263\n      jumpi\n        /* \"#utility.yul\":2541:2620   */\n      tag_264\n      tag_180\n      jump\t// in\n    tag_264:\n        /* \"#utility.yul\":2505:2622   */\n    tag_263:\n        /* \"#utility.yul\":2654:2719   */\n      tag_265\n        /* \"#utility.yul\":2711:2718   */\n      dup8\n        /* \"#utility.yul\":2702:2708   */\n      dup3\n        /* \"#utility.yul\":2691:2700   */\n      dup9\n        /* \"#utility.yul\":2687:2709   */\n      add\n        /* \"#utility.yul\":2654:2719   */\n      tag_184\n      jump\t// in\n    tag_265:\n        /* \"#utility.yul\":2636:2719   */\n      swap3\n      pop\n      swap3\n      pop\n        /* \"#utility.yul\":2431:2729   */\n      pop\n        /* \"#utility.yul\":1862:2736   */\n      swap3\n      swap6\n      swap2\n      swap5\n      pop\n      swap3\n      pop\n      jump\t// out\n        /* \"#utility.yul\":2742:2864   */\n    tag_185:\n        /* \"#utility.yul\":2815:2839   */\n      tag_267\n        /* \"#utility.yul\":2833:2838   */\n      dup2\n        /* \"#utility.yul\":2815:2839   */\n      tag_176\n      jump\t// in\n    tag_267:\n        /* \"#utility.yul\":2808:2813   */\n      dup2\n        /* \"#utility.yul\":2805:2840   */\n      eq\n        /* \"#utility.yul\":2795:2858   */\n      tag_268\n      jumpi\n        /* \"#utility.yul\":2854:2855   */\n      0x00\n        /* \"#utility.yul\":2851:2852   */\n      dup1\n        /* \"#utility.yul\":2844:2856   */\n      revert\n        /* \"#utility.yul\":2795:2858   */\n    tag_268:\n        /* \"#utility.yul\":2742:2864   */\n      pop\n      jump\t// out\n        /* \"#utility.yul\":2870:3009   */\n    tag_186:\n        /* \"#utility.yul\":2916:2921   */\n      0x00\n        /* \"#utility.yul\":2954:2960   */\n      dup2\n        /* \"#utility.yul\":2941:2961   */\n      calldataload\n        /* \"#utility.yul\":2932:2961   */\n      swap1\n      pop\n        /* \"#utility.yul\":2970:3003   */\n      tag_270\n        /* \"#utility.yul\":2997:3002   */\n      dup2\n        /* \"#utility.yul\":2970:3003   */\n      tag_185\n      jump\t// in\n    tag_270:\n        /* \"#utility.yul\":2870:3009   */\n      swap3\n      swap2\n      pop\n      pop\n      jump\t// out\n        /* \"#utility.yul\":3015:3344   */\n    tag_23:\n        /* \"#utility.yul\":3074:3080   */\n      0x00\n        /* \"#utility.yul\":3123:3125   */\n      0x20\n        /* \"#utility.yul\":3111:3120   */\n      dup3\n        /* \"#utility.yul\":3102:3109   */\n      dup5\n        /* \"#utility.yul\":3098:3121   */\n      sub\n        /* \"#utility.yul\":3094:3126   */\n      slt\n        /* \"#utility.yul\":3091:3210   */\n      iszero\n      tag_272\n      jumpi\n        /* \"#utility.yul\":3129:3208   */\n      tag_273\n      tag_179\n      jump\t// in\n    tag_273:\n        /* \"#utility.yul\":3091:3210   */\n    tag_272:\n        /* \"#utility.yul\":3249:3250   */\n      0x00\n        /* \"#utility.yul\":3274:3327   */\n      tag_274\n        /* \"#utility.yul\":3319:3326   */\n      dup5\n        /* \"#utility.yul\":3310:3316   */\n      dup3\n        /* \"#utility.yul\":3299:3308   */\n      dup6\n        /* \"#utility.yul\":3295:3317   */\n      add\n        /* \"#utility.yul\":3274:3327   */\n      tag_186\n      jump\t// in\n    tag_274:\n        /* \"#utility.yul\":3264:3327   */\n      swap2\n      pop\n        /* \"#utility.yul\":3220:3337   */\n      pop\n        /* \"#utility.yul\":3015:3344   */\n      swap3\n      swap2\n      pop\n      pop\n      jump\t// out\n        /* \"#utility.yul\":3350:3449   */\n    tag_187:\n        /* \"#utility.yul\":3402:3408   */\n      0x00\n        /* \"#utility.yul\":3436:3441   */\n      dup2\n        /* \"#utility.yul\":3430:3442   */\n      mload\n        /* \"#utility.yul\":3420:3442   */\n      swap1\n      pop\n        /* \"#utility.yul\":3350:3449   */\n      swap2\n      swap1\n      pop\n      jump\t// out\n        /* \"#utility.yul\":3455:3624   */\n    tag_188:\n        /* \"#utility.yul\":3539:3550   */\n      0x00\n        /* \"#utility.yul\":3573:3579   */\n      dup3\n        /* \"#utility.yul\":3568:3571   */\n      dup3\n        /* \"#utility.yul\":3561:3580   */\n      mstore\n        /* \"#utility.yul\":3613:3617   */\n      0x20\n        /* \"#utility.yul\":3608:3611   */\n      dup3\n        /* \"#utility.yul\":3604:3618   */\n      add\n        /* \"#utility.yul\":3589:3618   */\n      swap1\n      pop\n        /* \"#utility.yul\":3455:3624   */\n      swap3\n      swap2\n      pop\n      pop\n      jump\t// out\n        /* \"#utility.yul\":3630:3876   */\n    tag_189:\n        /* \"#utility.yul\":3711:3712   */\n      0x00\n        /* \"#utility.yul\":3721:3834   */\n    tag_278:\n        /* \"#utility.yul\":3735:3741   */\n      dup4\n        /* \"#utility.yul\":3732:3733   */\n      dup2\n        /* \"#utility.yul\":3729:3742   */\n      lt\n        /* \"#utility.yul\":3721:3834   */\n      iszero\n      tag_280\n      jumpi\n        /* \"#utility.yul\":3820:3821   */\n      dup1\n        /* \"#utility.yul\":3815:3818   */\n      dup3\n        /* \"#utility.yul\":3811:3822   */\n      add\n        /* \"#utility.yul\":3805:3823   */\n      mload\n        /* \"#utility.yul\":3801:3802   */\n      dup2\n        /* \"#utility.yul\":3796:3799   */\n      dup5\n        /* \"#utility.yul\":3792:3803   */\n      add\n        /* \"#utility.yul\":3785:3824   */\n      mstore\n        /* \"#utility.yul\":3757:3759   */\n      0x20\n        /* \"#utility.yul\":3754:3755   */\n      dup2\n        /* \"#utility.yul\":3750:3760   */\n      add\n        /* \"#utility.yul\":3745:3760   */\n      swap1\n      pop\n        /* \"#utility.yul\":3721:3834   */\n      jump(tag_278)\n    tag_280:\n        /* \"#utility.yul\":3868:3869   */\n      0x00\n        /* \"#utility.yul\":3859:3865   */\n      dup5\n        /* \"#utility.yul\":3854:3857   */\n      dup5\n        /* \"#utility.yul\":3850:3866   */\n      add\n        /* \"#utility.yul\":3843:3870   */\n      mstore\n        /* \"#utility.yul\":3692:3876   */\n      pop\n        /* \"#utility.yul\":3630:3876   */\n      pop\n      pop\n      pop\n      jump\t// out\n        /* \"#utility.yul\":3882:3984   */\n    tag_190:\n        /* \"#utility.yul\":3923:3929   */\n      0x00\n        /* \"#utility.yul\":3974:3976   */\n      0x1f\n        /* \"#utility.yul\":3970:3977   */\n      not\n        /* \"#utility.yul\":3965:3967   */\n      0x1f\n        /* \"#utility.yul\":3958:3963   */\n      dup4\n        /* \"#utility.yul\":3954:3968   */\n      add\n        /* \"#utility.yul\":3950:3978   */\n      and\n        /* \"#utility.yul\":3940:3978   */\n      swap1\n      pop\n        /* \"#utility.yul\":3882:3984   */\n      swap2\n      swap1\n      pop\n      jump\t// out\n        /* \"#utility.yul\":3990:4367   */\n    tag_191:\n        /* \"#utility.yul\":4078:4081   */\n      0x00\n        /* \"#utility.yul\":4106:4145   */\n      tag_283\n        /* \"#utility.yul\":4139:4144   */\n      dup3\n        /* \"#utility.yul\":4106:4145   */\n      tag_187\n      jump\t// in\n    tag_283:\n        /* \"#utility.yul\":4161:4232   */\n      tag_284\n        /* \"#utility.yul\":4225:4231   */\n      dup2\n        /* \"#utility.yul\":4220:4223   */\n      dup6\n        /* \"#utility.yul\":4161:4232   */\n      tag_188\n      jump\t// in\n    tag_284:\n        /* \"#utility.yul\":4154:4232   */\n      swap4\n      pop\n        /* \"#utility.yul\":4241:4306   */\n      tag_285\n        /* \"#utility.yul\":4299:4305   */\n      dup2\n        /* \"#utility.yul\":4294:4297   */\n      dup6\n        /* \"#utility.yul\":4287:4291   */\n      0x20\n        /* \"#utility.yul\":4280:4285   */\n      dup7\n        /* \"#utility.yul\":4276:4292   */\n      add\n        /* \"#utility.yul\":4241:4306   */\n      tag_189\n      jump\t// in\n    tag_285:\n        /* \"#utility.yul\":4331:4360   */\n      tag_286\n        /* \"#utility.yul\":4353:4359   */\n      dup2\n        /* \"#utility.yul\":4331:4360   */\n      tag_190\n      jump\t// in\n    tag_286:\n        /* \"#utility.yul\":4326:4329   */\n      dup5\n        /* \"#utility.yul\":4322:4361   */\n      add\n        /* \"#utility.yul\":4315:4361   */\n      swap2\n      pop\n        /* \"#utility.yul\":4082:4367   */\n      pop\n        /* \"#utility.yul\":3990:4367   */\n      swap3\n      swap2\n      pop\n      pop\n      jump\t// out\n        /* \"#utility.yul\":4373:4450   */\n    tag_192:\n        /* \"#utility.yul\":4410:4417   */\n      0x00\n        /* \"#utility.yul\":4439:4444   */\n      dup2\n        /* \"#utility.yul\":4428:4444   */\n      swap1\n      pop\n        /* \"#utility.yul\":4373:4450   */\n      swap2\n      swap1\n      pop\n      jump\t// out\n        /* \"#utility.yul\":4456:4574   */\n    tag_193:\n        /* \"#utility.yul\":4543:4567   */\n      tag_289\n        /* \"#utility.yul\":4561:4566   */\n      dup2\n        /* \"#utility.yul\":4543:4567   */\n      tag_192\n      jump\t// in\n    tag_289:\n        /* \"#utility.yul\":4538:4541   */\n      dup3\n        /* \"#utility.yul\":4531:4568   */\n      mstore\n        /* \"#utility.yul\":4456:4574   */\n      pop\n      pop\n      jump\t// out\n        /* \"#utility.yul\":4580:4670   */\n    tag_194:\n        /* \"#utility.yul\":4614:4621   */\n      0x00\n        /* \"#utility.yul\":4657:4662   */\n      dup2\n        /* \"#utility.yul\":4650:4663   */\n      iszero\n        /* \"#utility.yul\":4643:4664   */\n      iszero\n        /* \"#utility.yul\":4632:4664   */\n      swap1\n      pop\n        /* \"#utility.yul\":4580:4670   */\n      swap2\n      swap1\n      pop\n      jump\t// out\n        /* \"#utility.yul\":4676:4785   */\n    tag_195:\n        /* \"#utility.yul\":4757:4778   */\n      tag_292\n        /* \"#utility.yul\":4772:4777   */\n      dup2\n        /* \"#utility.yul\":4757:4778   */\n      tag_194\n      jump\t// in\n    tag_292:\n        /* \"#utility.yul\":4752:4755   */\n      dup3\n        /* \"#utility.yul\":4745:4779   */\n      mstore\n        /* \"#utility.yul\":4676:4785   */\n      pop\n      pop\n      jump\t// out\n        /* \"#utility.yul\":4791:5625   */\n    tag_26:\n        /* \"#utility.yul\":5030:5034   */\n      0x00\n        /* \"#utility.yul\":5068:5071   */\n      0xa0\n        /* \"#utility.yul\":5057:5066   */\n      dup3\n        /* \"#utility.yul\":5053:5072   */\n      add\n        /* \"#utility.yul\":5045:5072   */\n      swap1\n      pop\n        /* \"#utility.yul\":5118:5127   */\n      dup2\n        /* \"#utility.yul\":5112:5116   */\n      dup2\n        /* \"#utility.yul\":5108:5128   */\n      sub\n        /* \"#utility.yul\":5104:5105   */\n      0x00\n        /* \"#utility.yul\":5093:5102   */\n      dup4\n        /* \"#utility.yul\":5089:5106   */\n      add\n        /* \"#utility.yul\":5082:5129   */\n      mstore\n        /* \"#utility.yul\":5146:5224   */\n      tag_294\n        /* \"#utility.yul\":5219:5223   */\n      dup2\n        /* \"#utility.yul\":5210:5216   */\n      dup9\n        /* \"#utility.yul\":5146:5224   */\n      tag_191\n      jump\t// in\n    tag_294:\n        /* \"#utility.yul\":5138:5224   */\n      swap1\n      pop\n        /* \"#utility.yul\":5234:5306   */\n      tag_295\n        /* \"#utility.yul\":5302:5304   */\n      0x20\n        /* \"#utility.yul\":5291:5300   */\n      dup4\n        /* \"#utility.yul\":5287:5305   */\n      add\n        /* \"#utility.yul\":5278:5284   */\n      dup8\n        /* \"#utility.yul\":5234:5306   */\n      tag_193\n      jump\t// in\n    tag_295:\n        /* \"#utility.yul\":5353:5362   */\n      dup2\n        /* \"#utility.yul\":5347:5351   */\n      dup2\n        /* \"#utility.yul\":5343:5363   */\n      sub\n        /* \"#utility.yul\":5338:5340   */\n      0x40\n        /* \"#utility.yul\":5327:5336   */\n      dup4\n        /* \"#utility.yul\":5323:5341   */\n      add\n        /* \"#utility.yul\":5316:5364   */\n      mstore\n        /* \"#utility.yul\":5381:5459   */\n      tag_296\n        /* \"#utility.yul\":5454:5458   */\n      dup2\n        /* \"#utility.yul\":5445:5451   */\n      dup7\n        /* \"#utility.yul\":5381:5459   */\n      tag_191\n      jump\t// in\n    tag_296:\n        /* \"#utility.yul\":5373:5459   */\n      swap1\n      pop\n        /* \"#utility.yul\":5469:5535   */\n      tag_297\n        /* \"#utility.yul\":5531:5533   */\n      0x60\n        /* \"#utility.yul\":5520:5529   */\n      dup4\n        /* \"#utility.yul\":5516:5534   */\n      add\n        /* \"#utility.yul\":5507:5513   */\n      dup6\n        /* \"#utility.yul\":5469:5535   */\n      tag_195\n      jump\t// in\n    tag_297:\n        /* \"#utility.yul\":5545:5618   */\n      tag_298\n        /* \"#utility.yul\":5613:5616   */\n      0x80\n        /* \"#utility.yul\":5602:5611   */\n      dup4\n        /* \"#utility.yul\":5598:5617   */\n      add\n        /* \"#utility.yul\":5589:5595   */\n      dup5\n        /* \"#utility.yul\":5545:5618   */\n      tag_177\n      jump\t// in\n    tag_298:\n        /* \"#utility.yul\":4791:5625   */\n      swap7\n      swap6\n      pop\n      pop\n      pop\n      pop\n      pop\n      pop\n      jump\t// out\n        /* \"#utility.yul\":5631:6556   */\n    tag_31:\n        /* \"#utility.yul\":5890:5894   */\n      0x00\n        /* \"#utility.yul\":5928:5931   */\n      0xa0\n        /* \"#utility.yul\":5917:5926   */\n      dup3\n        /* \"#utility.yul\":5913:5932   */\n      add\n        /* \"#utility.yul\":5905:5932   */\n      swap1\n      pop\n        /* \"#utility.yul\":5978:5987   */\n      dup2\n        /* \"#utility.yul\":5972:5976   */\n      dup2\n        /* \"#utility.yul\":5968:5988   */\n      sub\n        /* \"#utility.yul\":5964:5965   */\n      0x00\n        /* \"#utility.yul\":5953:5962   */\n      dup4\n        /* \"#utility.yul\":5949:5966   */\n      add\n        /* \"#utility.yul\":5942:5989   */\n      mstore\n        /* \"#utility.yul\":6006:6084   */\n      tag_300\n        /* \"#utility.yul\":6079:6083   */\n      dup2\n        /* \"#utility.yul\":6070:6076   */\n      dup9\n        /* \"#utility.yul\":6006:6084   */\n      tag_191\n      jump\t// in\n    tag_300:\n        /* \"#utility.yul\":5998:6084   */\n      swap1\n      pop\n        /* \"#utility.yul\":6131:6140   */\n      dup2\n        /* \"#utility.yul\":6125:6129   */\n      dup2\n        /* \"#utility.yul\":6121:6141   */\n      sub\n        /* \"#utility.yul\":6116:6118   */\n      0x20\n        /* \"#utility.yul\":6105:6114   */\n      dup4\n        /* \"#utility.yul\":6101:6119   */\n      add\n        /* \"#utility.yul\":6094:6142   */\n      mstore\n        /* \"#utility.yul\":6159:6237   */\n      tag_301\n        /* \"#utility.yul\":6232:6236   */\n      dup2\n        /* \"#utility.yul\":6223:6229   */\n      dup8\n        /* \"#utility.yul\":6159:6237   */\n      tag_191\n      jump\t// in\n    tag_301:\n        /* \"#utility.yul\":6151:6237   */\n      swap1\n      pop\n        /* \"#utility.yul\":6284:6293   */\n      dup2\n        /* \"#utility.yul\":6278:6282   */\n      dup2\n        /* \"#utility.yul\":6274:6294   */\n      sub\n        /* \"#utility.yul\":6269:6271   */\n      0x40\n        /* \"#utility.yul\":6258:6267   */\n      dup4\n        /* \"#utility.yul\":6254:6272   */\n      add\n        /* \"#utility.yul\":6247:6295   */\n      mstore\n        /* \"#utility.yul\":6312:6390   */\n      tag_302\n        /* \"#utility.yul\":6385:6389   */\n      dup2\n        /* \"#utility.yul\":6376:6382   */\n      dup7\n        /* \"#utility.yul\":6312:6390   */\n      tag_191\n      jump\t// in\n    tag_302:\n        /* \"#utility.yul\":6304:6390   */\n      swap1\n      pop\n        /* \"#utility.yul\":6400:6466   */\n      tag_303\n        /* \"#utility.yul\":6462:6464   */\n      0x60\n        /* \"#utility.yul\":6451:6460   */\n      dup4\n        /* \"#utility.yul\":6447:6465   */\n      add\n        /* \"#utility.yul\":6438:6444   */\n      dup6\n        /* \"#utility.yul\":6400:6466   */\n      tag_195\n      jump\t// in\n    tag_303:\n        /* \"#utility.yul\":6476:6549   */\n      tag_304\n        /* \"#utility.yul\":6544:6547   */\n      0x80\n        /* \"#utility.yul\":6533:6542   */\n      dup4\n        /* \"#utility.yul\":6529:6548   */\n      add\n        /* \"#utility.yul\":6520:6526   */\n      dup5\n        /* \"#utility.yul\":6476:6549   */\n      tag_177\n      jump\t// in\n    tag_304:\n        /* \"#utility.yul\":5631:6556   */\n      swap7\n      swap6\n      pop\n      pop\n      pop\n      pop\n      pop\n      pop\n      jump\t// out\n        /* \"#utility.yul\":6562:6684   */\n    tag_196:\n        /* \"#utility.yul\":6635:6659   */\n      tag_306\n        /* \"#utility.yul\":6653:6658   */\n      dup2\n        /* \"#utility.yul\":6635:6659   */\n      tag_192\n      jump\t// in\n    tag_306:\n        /* \"#utility.yul\":6628:6633   */\n      dup2\n        /* \"#utility.yul\":6625:6660   */\n      eq\n        /* \"#utility.yul\":6615:6678   */\n      tag_307\n      jumpi\n        /* \"#utility.yul\":6674:6675   */\n      0x00\n        /* \"#utility.yul\":6671:6672   */\n      dup1\n        /* \"#utility.yul\":6664:6676   */\n      revert\n        /* \"#utility.yul\":6615:6678   */\n    tag_307:\n        /* \"#utility.yul\":6562:6684   */\n      pop\n      jump\t// out\n        /* \"#utility.yul\":6690:6829   */\n    tag_197:\n        /* \"#utility.yul\":6736:6741   */\n      0x00\n        /* \"#utility.yul\":6774:6780   */\n      dup2\n        /* \"#utility.yul\":6761:6781   */\n      calldataload\n        /* \"#utility.yul\":6752:6781   */\n      swap1\n      pop\n        /* \"#utility.yul\":6790:6823   */\n      tag_309\n        /* \"#utility.yul\":6817:6822   */\n      dup2\n        /* \"#utility.yul\":6790:6823   */\n      tag_196\n      jump\t// in\n    tag_309:\n        /* \"#utility.yul\":6690:6829   */\n      swap3\n      swap2\n      pop\n      pop\n      jump\t// out\n        /* \"#utility.yul\":6835:7509   */\n    tag_34:\n        /* \"#utility.yul\":6915:6921   */\n      0x00\n        /* \"#utility.yul\":6923:6929   */\n      dup1\n        /* \"#utility.yul\":6931:6937   */\n      0x00\n        /* \"#utility.yul\":6980:6982   */\n      0x40\n        /* \"#utility.yul\":6968:6977   */\n      dup5\n        /* \"#utility.yul\":6959:6966   */\n      dup7\n        /* \"#utility.yul\":6955:6978   */\n      sub\n        /* \"#utility.yul\":6951:6983   */\n      slt\n        /* \"#utility.yul\":6948:7067   */\n      iszero\n      tag_311\n      jumpi\n        /* \"#utility.yul\":6986:7065   */\n      tag_312\n      tag_179\n      jump\t// in\n    tag_312:\n        /* \"#utility.yul\":6948:7067   */\n    tag_311:\n        /* \"#utility.yul\":7134:7135   */\n      0x00\n        /* \"#utility.yul\":7123:7132   */\n      dup5\n        /* \"#utility.yul\":7119:7136   */\n      add\n        /* \"#utility.yul\":7106:7137   */\n      calldataload\n        /* \"#utility.yul\":7164:7182   */\n      0xffffffffffffffff\n        /* \"#utility.yul\":7156:7162   */\n      dup2\n        /* \"#utility.yul\":7153:7183   */\n      gt\n        /* \"#utility.yul\":7150:7267   */\n      iszero\n      tag_313\n      jumpi\n        /* \"#utility.yul\":7186:7265   */\n      tag_314\n      tag_180\n      jump\t// in\n    tag_314:\n        /* \"#utility.yul\":7150:7267   */\n    tag_313:\n        /* \"#utility.yul\":7299:7364   */\n      tag_315\n        /* \"#utility.yul\":7356:7363   */\n      dup7\n        /* \"#utility.yul\":7347:7353   */\n      dup3\n        /* \"#utility.yul\":7336:7345   */\n      dup8\n        /* \"#utility.yul\":7332:7354   */\n      add\n        /* \"#utility.yul\":7299:7364   */\n      tag_184\n      jump\t// in\n    tag_315:\n        /* \"#utility.yul\":7281:7364   */\n      swap4\n      pop\n      swap4\n      pop\n        /* \"#utility.yul\":7077:7374   */\n      pop\n        /* \"#utility.yul\":7413:7415   */\n      0x20\n        /* \"#utility.yul\":7439:7492   */\n      tag_316\n        /* \"#utility.yul\":7484:7491   */\n      dup7\n        /* \"#utility.yul\":7475:7481   */\n      dup3\n        /* \"#utility.yul\":7464:7473   */\n      dup8\n        /* \"#utility.yul\":7460:7482   */\n      add\n        /* \"#utility.yul\":7439:7492   */\n      tag_197\n      jump\t// in\n    tag_316:\n        /* \"#utility.yul\":7429:7492   */\n      swap2\n      pop\n        /* \"#utility.yul\":7384:7502   */\n      pop\n        /* \"#utility.yul\":6835:7509   */\n      swap3\n      pop\n      swap3\n      pop\n      swap3\n      jump\t// out\n        /* \"#utility.yul\":7515:7674   */\n    tag_198:\n        /* \"#utility.yul\":7589:7600   */\n      0x00\n        /* \"#utility.yul\":7623:7629   */\n      dup3\n        /* \"#utility.yul\":7618:7621   */\n      dup3\n        /* \"#utility.yul\":7611:7630   */\n      mstore\n        /* \"#utility.yul\":7663:7667   */\n      0x20\n        /* \"#utility.yul\":7658:7661   */\n      dup3\n        /* \"#utility.yul\":7654:7668   */\n      add\n        /* \"#utility.yul\":7639:7668   */\n      swap1\n      pop\n        /* \"#utility.yul\":7515:7674   */\n      swap3\n      swap2\n      pop\n      pop\n      jump\t// out\n        /* \"#utility.yul\":7680:8037   */\n    tag_199:\n        /* \"#utility.yul\":7758:7761   */\n      0x00\n        /* \"#utility.yul\":7786:7825   */\n      tag_319\n        /* \"#utility.yul\":7819:7824   */\n      dup3\n        /* \"#utility.yul\":7786:7825   */\n      tag_187\n      jump\t// in\n    tag_319:\n        /* \"#utility.yul\":7841:7902   */\n      tag_320\n        /* \"#utility.yul\":7895:7901   */\n      dup2\n        /* \"#utility.yul\":7890:7893   */\n      dup6\n        /* \"#utility.yul\":7841:7902   */\n      tag_198\n      jump\t// in\n    tag_320:\n        /* \"#utility.yul\":7834:7902   */\n      swap4\n      pop\n        /* \"#utility.yul\":7911:7976   */\n      tag_321\n        /* \"#utility.yul\":7969:7975   */\n      dup2\n        /* \"#utility.yul\":7964:7967   */\n      dup6\n        /* \"#utility.yul\":7957:7961   */\n      0x20\n        /* \"#utility.yul\":7950:7955   */\n      dup7\n        /* \"#utility.yul\":7946:7962   */\n      add\n        /* \"#utility.yul\":7911:7976   */\n      tag_189\n      jump\t// in\n    tag_321:\n        /* \"#utility.yul\":8001:8030   */\n      tag_322\n        /* \"#utility.yul\":8023:8029   */\n      dup2\n        /* \"#utility.yul\":8001:8030   */\n      tag_190\n      jump\t// in\n    tag_322:\n        /* \"#utility.yul\":7996:7999   */\n      dup5\n        /* \"#utility.yul\":7992:8031   */\n      add\n        /* \"#utility.yul\":7985:8031   */\n      swap2\n      pop\n        /* \"#utility.yul\":7762:8037   */\n      pop\n        /* \"#utility.yul\":7680:8037   */\n      swap3\n      swap2\n      pop\n      pop\n      jump\t// out\n        /* \"#utility.yul\":8043:8151   */\n    tag_200:\n        /* \"#utility.yul\":8120:8144   */\n      tag_324\n        /* \"#utility.yul\":8138:8143   */\n      dup2\n        /* \"#utility.yul\":8120:8144   */\n      tag_192\n      jump\t// in\n    tag_324:\n        /* \"#utility.yul\":8115:8118   */\n      dup3\n        /* \"#utility.yul\":8108:8145   */\n      mstore\n        /* \"#utility.yul\":8043:8151   */\n      pop\n      pop\n      jump\t// out\n        /* \"#utility.yul\":8157:8256   */\n    tag_201:\n        /* \"#utility.yul\":8228:8249   */\n      tag_326\n        /* \"#utility.yul\":8243:8248   */\n      dup2\n        /* \"#utility.yul\":8228:8249   */\n      tag_194\n      jump\t// in\n    tag_326:\n        /* \"#utility.yul\":8223:8226   */\n      dup3\n        /* \"#utility.yul\":8216:8250   */\n      mstore\n        /* \"#utility.yul\":8157:8256   */\n      pop\n      pop\n      jump\t// out\n        /* \"#utility.yul\":8262:8370   */\n    tag_202:\n        /* \"#utility.yul\":8339:8363   */\n      tag_328\n        /* \"#utility.yul\":8357:8362   */\n      dup2\n        /* \"#utility.yul\":8339:8363   */\n      tag_176\n      jump\t// in\n    tag_328:\n        /* \"#utility.yul\":8334:8337   */\n      dup3\n        /* \"#utility.yul\":8327:8364   */\n      mstore\n        /* \"#utility.yul\":8262:8370   */\n      pop\n      pop\n      jump\t// out\n        /* \"#utility.yul\":8412:9621   */\n    tag_203:\n        /* \"#utility.yul\":8527:8530   */\n      0x00\n        /* \"#utility.yul\":8563:8567   */\n      0xa0\n        /* \"#utility.yul\":8558:8561   */\n      dup4\n        /* \"#utility.yul\":8554:8568   */\n      add\n        /* \"#utility.yul\":8650:8654   */\n      0x00\n        /* \"#utility.yul\":8643:8648   */\n      dup4\n        /* \"#utility.yul\":8639:8655   */\n      add\n        /* \"#utility.yul\":8633:8656   */\n      mload\n        /* \"#utility.yul\":8703:8706   */\n      dup5\n        /* \"#utility.yul\":8697:8701   */\n      dup3\n        /* \"#utility.yul\":8693:8707   */\n      sub\n        /* \"#utility.yul\":8686:8690   */\n      0x00\n        /* \"#utility.yul\":8681:8684   */\n      dup7\n        /* \"#utility.yul\":8677:8691   */\n      add\n        /* \"#utility.yul\":8670:8708   */\n      mstore\n        /* \"#utility.yul\":8729:8802   */\n      tag_330\n        /* \"#utility.yul\":8797:8801   */\n      dup3\n        /* \"#utility.yul\":8783:8795   */\n      dup3\n        /* \"#utility.yul\":8729:8802   */\n      tag_199\n      jump\t// in\n    tag_330:\n        /* \"#utility.yul\":8721:8802   */\n      swap2\n      pop\n        /* \"#utility.yul\":8578:8813   */\n      pop\n        /* \"#utility.yul\":8894:8898   */\n      0x20\n        /* \"#utility.yul\":8887:8892   */\n      dup4\n        /* \"#utility.yul\":8883:8899   */\n      add\n        /* \"#utility.yul\":8877:8900   */\n      mload\n        /* \"#utility.yul\":8913:8976   */\n      tag_331\n        /* \"#utility.yul\":8970:8974   */\n      0x20\n        /* \"#utility.yul\":8965:8968   */\n      dup7\n        /* \"#utility.yul\":8961:8975   */\n      add\n        /* \"#utility.yul\":8947:8959   */\n      dup3\n        /* \"#utility.yul\":8913:8976   */\n      tag_200\n      jump\t// in\n    tag_331:\n        /* \"#utility.yul\":8823:8986   */\n      pop\n        /* \"#utility.yul\":9071:9075   */\n      0x40\n        /* \"#utility.yul\":9064:9069   */\n      dup4\n        /* \"#utility.yul\":9060:9076   */\n      add\n        /* \"#utility.yul\":9054:9077   */\n      mload\n        /* \"#utility.yul\":9124:9127   */\n      dup5\n        /* \"#utility.yul\":9118:9122   */\n      dup3\n        /* \"#utility.yul\":9114:9128   */\n      sub\n        /* \"#utility.yul\":9107:9111   */\n      0x40\n        /* \"#utility.yul\":9102:9105   */\n      dup7\n        /* \"#utility.yul\":9098:9112   */\n      add\n        /* \"#utility.yul\":9091:9129   */\n      mstore\n        /* \"#utility.yul\":9150:9223   */\n      tag_332\n        /* \"#utility.yul\":9218:9222   */\n      dup3\n        /* \"#utility.yul\":9204:9216   */\n      dup3\n        /* \"#utility.yul\":9150:9223   */\n      tag_199\n      jump\t// in\n    tag_332:\n        /* \"#utility.yul\":9142:9223   */\n      swap2\n      pop\n        /* \"#utility.yul\":8996:9234   */\n      pop\n        /* \"#utility.yul\":9326:9330   */\n      0x60\n        /* \"#utility.yul\":9319:9324   */\n      dup4\n        /* \"#utility.yul\":9315:9331   */\n      add\n        /* \"#utility.yul\":9309:9332   */\n      mload\n        /* \"#utility.yul\":9345:9402   */\n      tag_333\n        /* \"#utility.yul\":9396:9400   */\n      0x60\n        /* \"#utility.yul\":9391:9394   */\n      dup7\n        /* \"#utility.yul\":9387:9401   */\n      add\n        /* \"#utility.yul\":9373:9385   */\n      dup3\n        /* \"#utility.yul\":9345:9402   */\n      tag_201\n      jump\t// in\n    tag_333:\n        /* \"#utility.yul\":9244:9412   */\n      pop\n        /* \"#utility.yul\":9502:9506   */\n      0x80\n        /* \"#utility.yul\":9495:9500   */\n      dup4\n        /* \"#utility.yul\":9491:9507   */\n      add\n        /* \"#utility.yul\":9485:9508   */\n      mload\n        /* \"#utility.yul\":9521:9584   */\n      tag_334\n        /* \"#utility.yul\":9578:9582   */\n      0x80\n        /* \"#utility.yul\":9573:9576   */\n      dup7\n        /* \"#utility.yul\":9569:9583   */\n      add\n        /* \"#utility.yul\":9555:9567   */\n      dup3\n        /* \"#utility.yul\":9521:9584   */\n      tag_202\n      jump\t// in\n    tag_334:\n        /* \"#utility.yul\":9422:9594   */\n      pop\n        /* \"#utility.yul\":9611:9615   */\n      dup1\n        /* \"#utility.yul\":9604:9615   */\n      swap2\n      pop\n        /* \"#utility.yul\":8532:9621   */\n      pop\n        /* \"#utility.yul\":8412:9621   */\n      swap3\n      swap2\n      pop\n      pop\n      jump\t// out\n        /* \"#utility.yul\":9627:9992   */\n    tag_37:\n        /* \"#utility.yul\":9766:9770   */\n      0x00\n        /* \"#utility.yul\":9804:9806   */\n      0x20\n        /* \"#utility.yul\":9793:9802   */\n      dup3\n        /* \"#utility.yul\":9789:9807   */\n      add\n        /* \"#utility.yul\":9781:9807   */\n      swap1\n      pop\n        /* \"#utility.yul\":9853:9862   */\n      dup2\n        /* \"#utility.yul\":9847:9851   */\n      dup2\n        /* \"#utility.yul\":9843:9863   */\n      sub\n        /* \"#utility.yul\":9839:9840   */\n      0x00\n        /* \"#utility.yul\":9828:9837   */\n      dup4\n        /* \"#utility.yul\":9824:9841   */\n      add\n        /* \"#utility.yul\":9817:9864   */\n      mstore\n        /* \"#utility.yul\":9881:9985   */\n      tag_336\n        /* \"#utility.yul\":9980:9984   */\n      dup2\n        /* \"#utility.yul\":9971:9977   */\n      dup5\n        /* \"#utility.yul\":9881:9985   */\n      tag_203\n      jump\t// in\n    tag_336:\n        /* \"#utility.yul\":9873:9985   */\n      swap1\n      pop\n        /* \"#utility.yul\":9627:9992   */\n      swap3\n      swap2\n      pop\n      pop\n      jump\t// out\n        /* \"#utility.yul\":9998:10208   */\n    tag_44:\n        /* \"#utility.yul\":10085:10089   */\n      0x00\n        /* \"#utility.yul\":10123:10125   */\n      0x20\n        /* \"#utility.yul\":10112:10121   */\n      dup3\n        /* \"#utility.yul\":10108:10126   */\n      add\n        /* \"#utility.yul\":10100:10126   */\n      swap1\n      pop\n        /* \"#utility.yul\":10136:10201   */\n      tag_338\n        /* \"#utility.yul\":10198:10199   */\n      0x00\n        /* \"#utility.yul\":10187:10196   */\n      dup4\n        /* \"#utility.yul\":10183:10200   */\n      add\n        /* \"#utility.yul\":10174:10180   */\n      dup5\n        /* \"#utility.yul\":10136:10201   */\n      tag_195\n      jump\t// in\n    tag_338:\n        /* \"#utility.yul\":9998:10208   */\n      swap3\n      swap2\n      pop\n      pop\n      jump\t// out\n        /* \"#utility.yul\":10214:10888   */\n    tag_47:\n        /* \"#utility.yul\":10294:10300   */\n      0x00\n        /* \"#utility.yul\":10302:10308   */\n      dup1\n        /* \"#utility.yul\":10310:10316   */\n      0x00\n        /* \"#utility.yul\":10359:10361   */\n      0x40\n        /* \"#utility.yul\":10347:10356   */\n      dup5\n        /* \"#utility.yul\":10338:10345   */\n      dup7\n        /* \"#utility.yul\":10334:10357   */\n      sub\n        /* \"#utility.yul\":10330:10362   */\n      slt\n        /* \"#utility.yul\":10327:10446   */\n      iszero\n      tag_340\n      jumpi\n        /* \"#utility.yul\":10365:10444   */\n      tag_341\n      tag_179\n      jump\t// in\n    tag_341:\n        /* \"#utility.yul\":10327:10446   */\n    tag_340:\n        /* \"#utility.yul\":10513:10514   */\n      0x00\n        /* \"#utility.yul\":10502:10511   */\n      dup5\n        /* \"#utility.yul\":10498:10515   */\n      add\n        /* \"#utility.yul\":10485:10516   */\n      calldataload\n        /* \"#utility.yul\":10543:10561   */\n      0xffffffffffffffff\n        /* \"#utility.yul\":10535:10541   */\n      dup2\n        /* \"#utility.yul\":10532:10562   */\n      gt\n        /* \"#utility.yul\":10529:10646   */\n      iszero\n      tag_342\n      jumpi\n        /* \"#utility.yul\":10565:10644   */\n      tag_343\n      tag_180\n      jump\t// in\n    tag_343:\n        /* \"#utility.yul\":10529:10646   */\n    tag_342:\n        /* \"#utility.yul\":10678:10743   */\n      tag_344\n        /* \"#utility.yul\":10735:10742   */\n      dup7\n        /* \"#utility.yul\":10726:10732   */\n      dup3\n        /* \"#utility.yul\":10715:10724   */\n      dup8\n        /* \"#utility.yul\":10711:10733   */\n      add\n        /* \"#utility.yul\":10678:10743   */\n      tag_184\n      jump\t// in\n    tag_344:\n        /* \"#utility.yul\":10660:10743   */\n      swap4\n      pop\n      swap4\n      pop\n        /* \"#utility.yul\":10456:10753   */\n      pop\n        /* \"#utility.yul\":10792:10794   */\n      0x20\n        /* \"#utility.yul\":10818:10871   */\n      tag_345\n        /* \"#utility.yul\":10863:10870   */\n      dup7\n        /* \"#utility.yul\":10854:10860   */\n      dup3\n        /* \"#utility.yul\":10843:10852   */\n      dup8\n        /* \"#utility.yul\":10839:10861   */\n      add\n        /* \"#utility.yul\":10818:10871   */\n      tag_186\n      jump\t// in\n    tag_345:\n        /* \"#utility.yul\":10808:10871   */\n      swap2\n      pop\n        /* \"#utility.yul\":10763:10881   */\n      pop\n        /* \"#utility.yul\":10214:10888   */\n      swap3\n      pop\n      swap3\n      pop\n      swap3\n      jump\t// out\n        /* \"#utility.yul\":10894:11074   */\n    tag_204:\n        /* \"#utility.yul\":10942:11019   */\n      0x4e487b7100000000000000000000000000000000000000000000000000000000\n        /* \"#utility.yul\":10939:10940   */\n      0x00\n        /* \"#utility.yul\":10932:11020   */\n      mstore\n        /* \"#utility.yul\":11039:11043   */\n      0x22\n        /* \"#utility.yul\":11036:11037   */\n      0x04\n        /* \"#utility.yul\":11029:11044   */\n      mstore\n        /* \"#utility.yul\":11063:11067   */\n      0x24\n        /* \"#utility.yul\":11060:11061   */\n      0x00\n        /* \"#utility.yul\":11053:11068   */\n      revert\n        /* \"#utility.yul\":11080:11400   */\n    tag_55:\n        /* \"#utility.yul\":11124:11130   */\n      0x00\n        /* \"#utility.yul\":11161:11162   */\n      0x02\n        /* \"#utility.yul\":11155:11159   */\n      dup3\n        /* \"#utility.yul\":11151:11163   */\n      div\n        /* \"#utility.yul\":11141:11163   */\n      swap1\n      pop\n        /* \"#utility.yul\":11208:11209   */\n      0x01\n        /* \"#utility.yul\":11202:11206   */\n      dup3\n        /* \"#utility.yul\":11198:11210   */\n      and\n        /* \"#utility.yul\":11229:11247   */\n      dup1\n        /* \"#utility.yul\":11219:11300   */\n      tag_348\n      jumpi\n        /* \"#utility.yul\":11285:11289   */\n      0x7f\n        /* \"#utility.yul\":11277:11283   */\n      dup3\n        /* \"#utility.yul\":11273:11290   */\n      and\n        /* \"#utility.yul\":11263:11290   */\n      swap2\n      pop\n        /* \"#utility.yul\":11219:11300   */\n    tag_348:\n        /* \"#utility.yul\":11347:11349   */\n      0x20\n        /* \"#utility.yul\":11339:11345   */\n      dup3\n        /* \"#utility.yul\":11336:11350   */\n      lt\n        /* \"#utility.yul\":11316:11334   */\n      dup2\n        /* \"#utility.yul\":11313:11351   */\n      sub\n        /* \"#utility.yul\":11310:11394   */\n      tag_349\n      jumpi\n        /* \"#utility.yul\":11366:11384   */\n      tag_350\n      tag_204\n      jump\t// in\n    tag_350:\n        /* \"#utility.yul\":11310:11394   */\n    tag_349:\n        /* \"#utility.yul\":11131:11400   */\n      pop\n        /* \"#utility.yul\":11080:11400   */\n      swap2\n      swap1\n      pop\n      jump\t// out\n        /* \"#utility.yul\":11406:11580   */\n    tag_205:\n        /* \"#utility.yul\":11546:11572   */\n      0x54686973206164647265737320697320616e2061646d696e0000000000000000\n        /* \"#utility.yul\":11542:11543   */\n      0x00\n        /* \"#utility.yul\":11534:11540   */\n      dup3\n        /* \"#utility.yul\":11530:11544   */\n      add\n        /* \"#utility.yul\":11523:11573   */\n      mstore\n        /* \"#utility.yul\":11406:11580   */\n      pop\n      jump\t// out\n        /* \"#utility.yul\":11586:11952   */\n    tag_206:\n        /* \"#utility.yul\":11728:11731   */\n      0x00\n        /* \"#utility.yul\":11749:11816   */\n      tag_353\n        /* \"#utility.yul\":11813:11815   */\n      0x18\n        /* \"#utility.yul\":11808:11811   */\n      dup4\n        /* \"#utility.yul\":11749:11816   */\n      tag_188\n      jump\t// in\n    tag_353:\n        /* \"#utility.yul\":11742:11816   */\n      swap2\n      pop\n        /* \"#utility.yul\":11825:11918   */\n      tag_354\n        /* \"#utility.yul\":11914:11917   */\n      dup3\n        /* \"#utility.yul\":11825:11918   */\n      tag_205\n      jump\t// in\n    tag_354:\n        /* \"#utility.yul\":11943:11945   */\n      0x20\n        /* \"#utility.yul\":11938:11941   */\n      dup3\n        /* \"#utility.yul\":11934:11946   */\n      add\n        /* \"#utility.yul\":11927:11946   */\n      swap1\n      pop\n        /* \"#utility.yul\":11586:11952   */\n      swap2\n      swap1\n      pop\n      jump\t// out\n        /* \"#utility.yul\":11958:12377   */\n    tag_58:\n        /* \"#utility.yul\":12124:12128   */\n      0x00\n        /* \"#utility.yul\":12162:12164   */\n      0x20\n        /* \"#utility.yul\":12151:12160   */\n      dup3\n        /* \"#utility.yul\":12147:12165   */\n      add\n        /* \"#utility.yul\":12139:12165   */\n      swap1\n      pop\n        /* \"#utility.yul\":12211:12220   */\n      dup2\n        /* \"#utility.yul\":12205:12209   */\n      dup2\n        /* \"#utility.yul\":12201:12221   */\n      sub\n        /* \"#utility.yul\":12197:12198   */\n      0x00\n        /* \"#utility.yul\":12186:12195   */\n      dup4\n        /* \"#utility.yul\":12182:12199   */\n      add\n        /* \"#utility.yul\":12175:12222   */\n      mstore\n        /* \"#utility.yul\":12239:12370   */\n      tag_356\n        /* \"#utility.yul\":12365:12369   */\n      dup2\n        /* \"#utility.yul\":12239:12370   */\n      tag_206\n      jump\t// in\n    tag_356:\n        /* \"#utility.yul\":12231:12370   */\n      swap1\n      pop\n        /* \"#utility.yul\":11958:12377   */\n      swap2\n      swap1\n      pop\n      jump\t// out\n        /* \"#utility.yul\":12383:12631   */\n    tag_207:\n        /* \"#utility.yul\":12523:12557   */\n      0x54686973206164647265737320686173206d6f74206265656e20726567697374\n        /* \"#utility.yul\":12519:12520   */\n      0x00\n        /* \"#utility.yul\":12511:12517   */\n      dup3\n        /* \"#utility.yul\":12507:12521   */\n      add\n        /* \"#utility.yul\":12500:12558   */\n      mstore\n        /* \"#utility.yul\":12592:12623   */\n      0x6572656420696e2074686520656c6563746f72616c2070726f63657373000000\n        /* \"#utility.yul\":12587:12589   */\n      0x20\n        /* \"#utility.yul\":12579:12585   */\n      dup3\n        /* \"#utility.yul\":12575:12590   */\n      add\n        /* \"#utility.yul\":12568:12624   */\n      mstore\n        /* \"#utility.yul\":12383:12631   */\n      pop\n      jump\t// out\n        /* \"#utility.yul\":12637:13003   */\n    tag_208:\n        /* \"#utility.yul\":12779:12782   */\n      0x00\n        /* \"#utility.yul\":12800:12867   */\n      tag_359\n        /* \"#utility.yul\":12864:12866   */\n      0x3d\n        /* \"#utility.yul\":12859:12862   */\n      dup4\n        /* \"#utility.yul\":12800:12867   */\n      tag_188\n      jump\t// in\n    tag_359:\n        /* \"#utility.yul\":12793:12867   */\n      swap2\n      pop\n        /* \"#utility.yul\":12876:12969   */\n      tag_360\n        /* \"#utility.yul\":12965:12968   */\n      dup3\n        /* \"#utility.yul\":12876:12969   */\n      tag_207\n      jump\t// in\n    tag_360:\n        /* \"#utility.yul\":12994:12996   */\n      0x40\n        /* \"#utility.yul\":12989:12992   */\n      dup3\n        /* \"#utility.yul\":12985:12997   */\n      add\n        /* \"#utility.yul\":12978:12997   */\n      swap1\n      pop\n        /* \"#utility.yul\":12637:13003   */\n      swap2\n      swap1\n      pop\n      jump\t// out\n        /* \"#utility.yul\":13009:13428   */\n    tag_62:\n        /* \"#utility.yul\":13175:13179   */\n      0x00\n        /* \"#utility.yul\":13213:13215   */\n      0x20\n        /* \"#utility.yul\":13202:13211   */\n      dup3\n        /* \"#utility.yul\":13198:13216   */\n      add\n        /* \"#utility.yul\":13190:13216   */\n      swap1\n      pop\n        /* \"#utility.yul\":13262:13271   */\n      dup2\n        /* \"#utility.yul\":13256:13260   */\n      dup2\n        /* \"#utility.yul\":13252:13272   */\n      sub\n        /* \"#utility.yul\":13248:13249   */\n      0x00\n        /* \"#utility.yul\":13237:13246   */\n      dup4\n        /* \"#utility.yul\":13233:13250   */\n      add\n        /* \"#utility.yul\":13226:13273   */\n      mstore\n        /* \"#utility.yul\":13290:13421   */\n      tag_362\n        /* \"#utility.yul\":13416:13420   */\n      dup2\n        /* \"#utility.yul\":13290:13421   */\n      tag_208\n      jump\t// in\n    tag_362:\n        /* \"#utility.yul\":13282:13421   */\n      swap1\n      pop\n        /* \"#utility.yul\":13009:13428   */\n      swap2\n      swap1\n      pop\n      jump\t// out\n        /* \"#utility.yul\":13434:13614   */\n    tag_209:\n        /* \"#utility.yul\":13602:13607   */\n      0x434f440000000000000000000000000000000000000000000000000000000000\n        /* \"#utility.yul\":13597:13600   */\n      dup2\n        /* \"#utility.yul\":13590:13608   */\n      mstore\n        /* \"#utility.yul\":13434:13614   */\n      pop\n      jump\t// out\n        /* \"#utility.yul\":13620:13768   */\n    tag_210:\n        /* \"#utility.yul\":13722:13733   */\n      0x00\n        /* \"#utility.yul\":13759:13762   */\n      dup2\n        /* \"#utility.yul\":13744:13762   */\n      swap1\n      pop\n        /* \"#utility.yul\":13620:13768   */\n      swap3\n      swap2\n      pop\n      pop\n      jump\t// out\n        /* \"#utility.yul\":13774:14164   */\n    tag_211:\n        /* \"#utility.yul\":13880:13883   */\n      0x00\n        /* \"#utility.yul\":13908:13947   */\n      tag_366\n        /* \"#utility.yul\":13941:13946   */\n      dup3\n        /* \"#utility.yul\":13908:13947   */\n      tag_187\n      jump\t// in\n    tag_366:\n        /* \"#utility.yul\":13963:14052   */\n      tag_367\n        /* \"#utility.yul\":14045:14051   */\n      dup2\n        /* \"#utility.yul\":14040:14043   */\n      dup6\n        /* \"#utility.yul\":13963:14052   */\n      tag_210\n      jump\t// in\n    tag_367:\n        /* \"#utility.yul\":13956:14052   */\n      swap4\n      pop\n        /* \"#utility.yul\":14061:14126   */\n      tag_368\n        /* \"#utility.yul\":14119:14125   */\n      dup2\n        /* \"#utility.yul\":14114:14117   */\n      dup6\n        /* \"#utility.yul\":14107:14111   */\n      0x20\n        /* \"#utility.yul\":14100:14105   */\n      dup7\n        /* \"#utility.yul\":14096:14112   */\n      add\n        /* \"#utility.yul\":14061:14126   */\n      tag_189\n      jump\t// in\n    tag_368:\n        /* \"#utility.yul\":14151:14157   */\n      dup1\n        /* \"#utility.yul\":14146:14149   */\n      dup5\n        /* \"#utility.yul\":14142:14158   */\n      add\n        /* \"#utility.yul\":14135:14158   */\n      swap2\n      pop\n        /* \"#utility.yul\":13884:14164   */\n      pop\n        /* \"#utility.yul\":13774:14164   */\n      swap3\n      swap2\n      pop\n      pop\n      jump\t// out\n        /* \"#utility.yul\":14170:14709   */\n    tag_66:\n        /* \"#utility.yul\":14392:14395   */\n      0x00\n        /* \"#utility.yul\":14407:14544   */\n      tag_370\n        /* \"#utility.yul\":14540:14543   */\n      dup3\n        /* \"#utility.yul\":14407:14544   */\n      tag_209\n      jump\t// in\n    tag_370:\n        /* \"#utility.yul\":14569:14570   */\n      0x03\n        /* \"#utility.yul\":14564:14567   */\n      dup3\n        /* \"#utility.yul\":14560:14571   */\n      add\n        /* \"#utility.yul\":14553:14571   */\n      swap2\n      pop\n        /* \"#utility.yul\":14588:14683   */\n      tag_371\n        /* \"#utility.yul\":14679:14682   */\n      dup3\n        /* \"#utility.yul\":14670:14676   */\n      dup5\n        /* \"#utility.yul\":14588:14683   */\n      tag_211\n      jump\t// in\n    tag_371:\n        /* \"#utility.yul\":14581:14683   */\n      swap2\n      pop\n        /* \"#utility.yul\":14700:14703   */\n      dup2\n        /* \"#utility.yul\":14693:14703   */\n      swap1\n      pop\n        /* \"#utility.yul\":14170:14709   */\n      swap3\n      swap2\n      pop\n      pop\n      jump\t// out\n        /* \"#utility.yul\":14715:14895   */\n    tag_147:\n        /* \"#utility.yul\":14763:14840   */\n      0x4e487b7100000000000000000000000000000000000000000000000000000000\n        /* \"#utility.yul\":14760:14761   */\n      0x00\n        /* \"#utility.yul\":14753:14841   */\n      mstore\n        /* \"#utility.yul\":14860:14864   */\n      0x41\n        /* \"#utility.yul\":14857:14858   */\n      0x04\n        /* \"#utility.yul\":14850:14865   */\n      mstore\n        /* \"#utility.yul\":14884:14888   */\n      0x24\n        /* \"#utility.yul\":14881:14882   */\n      0x00\n        /* \"#utility.yul\":14874:14889   */\n      revert\n        /* \"#utility.yul\":14901:15042   */\n    tag_212:\n        /* \"#utility.yul\":14950:14954   */\n      0x00\n        /* \"#utility.yul\":14973:14976   */\n      dup2\n        /* \"#utility.yul\":14965:14976   */\n      swap1\n      pop\n        /* \"#utility.yul\":14996:14999   */\n      dup2\n        /* \"#utility.yul\":14993:14994   */\n      0x00\n        /* \"#utility.yul\":14986:15000   */\n      mstore\n        /* \"#utility.yul\":15030:15034   */\n      0x20\n        /* \"#utility.yul\":15027:15028   */\n      0x00\n        /* \"#utility.yul\":15017:15035   */\n      keccak256\n        /* \"#utility.yul\":15009:15035   */\n      swap1\n      pop\n        /* \"#utility.yul\":14901:15042   */\n      swap2\n      swap1\n      pop\n      jump\t// out\n        /* \"#utility.yul\":15048:15141   */\n    tag_213:\n        /* \"#utility.yul\":15085:15091   */\n      0x00\n        /* \"#utility.yul\":15132:15134   */\n      0x20\n        /* \"#utility.yul\":15127:15129   */\n      0x1f\n        /* \"#utility.yul\":15120:15125   */\n      dup4\n        /* \"#utility.yul\":15116:15130   */\n      add\n        /* \"#utility.yul\":15112:15135   */\n      div\n        /* \"#utility.yul\":15102:15135   */\n      swap1\n      pop\n        /* \"#utility.yul\":15048:15141   */\n      swap2\n      swap1\n      pop\n      jump\t// out\n        /* \"#utility.yul\":15147:15254   */\n    tag_214:\n        /* \"#utility.yul\":15191:15199   */\n      0x00\n        /* \"#utility.yul\":15241:15246   */\n      dup3\n        /* \"#utility.yul\":15235:15239   */\n      dup3\n        /* \"#utility.yul\":15231:15247   */\n      shl\n        /* \"#utility.yul\":15210:15247   */\n      swap1\n      pop\n        /* \"#utility.yul\":15147:15254   */\n      swap3\n      swap2\n      pop\n      pop\n      jump\t// out\n        /* \"#utility.yul\":15260:15653   */\n    tag_215:\n        /* \"#utility.yul\":15329:15335   */\n      0x00\n        /* \"#utility.yul\":15379:15380   */\n      0x08\n        /* \"#utility.yul\":15367:15377   */\n      dup4\n        /* \"#utility.yul\":15363:15381   */\n      mul\n        /* \"#utility.yul\":15402:15499   */\n      tag_377\n        /* \"#utility.yul\":15432:15498   */\n      0xffffffffffffffffffffffffffffffffffffffffffffffffffffffffffffffff\n        /* \"#utility.yul\":15421:15430   */\n      dup3\n        /* \"#utility.yul\":15402:15499   */\n      tag_214\n      jump\t// in\n    tag_377:\n        /* \"#utility.yul\":15520:15559   */\n      tag_378\n        /* \"#utility.yul\":15550:15558   */\n      dup7\n        /* \"#utility.yul\":15539:15548   */\n      dup4\n        /* \"#utility.yul\":15520:15559   */\n      tag_214\n      jump\t// in\n    tag_378:\n        /* \"#utility.yul\":15508:15559   */\n      swap6\n      pop\n        /* \"#utility.yul\":15592:15596   */\n      dup1\n        /* \"#utility.yul\":15588:15597   */\n      not\n        /* \"#utility.yul\":15581:15586   */\n      dup5\n        /* \"#utility.yul\":15577:15598   */\n      and\n        /* \"#utility.yul\":15568:15598   */\n      swap4\n      pop\n        /* \"#utility.yul\":15641:15645   */\n      dup1\n        /* \"#utility.yul\":15631:15639   */\n      dup7\n        /* \"#utility.yul\":15627:15646   */\n      and\n        /* \"#utility.yul\":15620:15625   */\n      dup5\n        /* \"#utility.yul\":15617:15647   */\n      or\n        /* \"#utility.yul\":15607:15647   */\n      swap3\n      pop\n        /* \"#utility.yul\":15336:15653   */\n      pop\n      pop\n        /* \"#utility.yul\":15260:15653   */\n      swap4\n      swap3\n      pop\n      pop\n      pop\n      jump\t// out\n        /* \"#utility.yul\":15659:15719   */\n    tag_216:\n        /* \"#utility.yul\":15687:15690   */\n      0x00\n        /* \"#utility.yul\":15708:15713   */\n      dup2\n        /* \"#utility.yul\":15701:15713   */\n      swap1\n      pop\n        /* \"#utility.yul\":15659:15719   */\n      swap2\n      swap1\n      pop\n      jump\t// out\n        /* \"#utility.yul\":15725:15867   */\n    tag_217:\n        /* \"#utility.yul\":15775:15784   */\n      0x00\n        /* \"#utility.yul\":15808:15861   */\n      tag_381\n        /* \"#utility.yul\":15826:15860   */\n      tag_382\n        /* \"#utility.yul\":15835:15859   */\n      tag_383\n        /* \"#utility.yul\":15853:15858   */\n      dup5\n        /* \"#utility.yul\":15835:15859   */\n      tag_192\n      jump\t// in\n    tag_383:\n        /* \"#utility.yul\":15826:15860   */\n      tag_216\n      jump\t// in\n    tag_382:\n        /* \"#utility.yul\":15808:15861   */\n      tag_192\n      jump\t// in\n    tag_381:\n        /* \"#utility.yul\":15795:15861   */\n      swap1\n      pop\n        /* \"#utility.yul\":15725:15867   */\n      swap2\n      swap1\n      pop\n      jump\t// out\n        /* \"#utility.yul\":15873:15948   */\n    tag_218:\n        /* \"#utility.yul\":15916:15919   */\n      0x00\n        /* \"#utility.yul\":15937:15942   */\n      dup2\n        /* \"#utility.yul\":15930:15942   */\n      swap1\n      pop\n        /* \"#utility.yul\":15873:15948   */\n      swap2\n      swap1\n      pop\n      jump\t// out\n        /* \"#utility.yul\":15954:16223   */\n    tag_219:\n        /* \"#utility.yul\":16064:16103   */\n      tag_386\n        /* \"#utility.yul\":16095:16102   */\n      dup4\n        /* \"#utility.yul\":16064:16103   */\n      tag_217\n      jump\t// in\n    tag_386:\n        /* \"#utility.yul\":16125:16216   */\n      tag_387\n        /* \"#utility.yul\":16174:16215   */\n      tag_388\n        /* \"#utility.yul\":16198:16214   */\n      dup3\n        /* \"#utility.yul\":16174:16215   */\n      tag_218\n      jump\t// in\n    tag_388:\n        /* \"#utility.yul\":16166:16172   */\n      dup5\n        /* \"#utility.yul\":16159:16163   */\n      dup5\n        /* \"#utility.yul\":16153:16164   */\n      sload\n        /* \"#utility.yul\":16125:16216   */\n      tag_215\n      jump\t// in\n    tag_387:\n        /* \"#utility.yul\":16119:16123   */\n      dup3\n        /* \"#utility.yul\":16112:16217   */\n      sstore\n        /* \"#utility.yul\":16030:16223   */\n      pop\n        /* \"#utility.yul\":15954:16223   */\n      pop\n      pop\n      pop\n      jump\t// out\n        /* \"#utility.yul\":16229:16302   */\n    tag_220:\n        /* \"#utility.yul\":16274:16277   */\n      0x00\n        /* \"#utility.yul\":16229:16302   */\n      swap1\n      jump\t// out\n        /* \"#utility.yul\":16308:16497   */\n    tag_221:\n        /* \"#utility.yul\":16385:16417   */\n      tag_391\n      tag_220\n      jump\t// in\n    tag_391:\n        /* \"#utility.yul\":16426:16491   */\n      tag_392\n        /* \"#utility.yul\":16484:16490   */\n      dup2\n        /* \"#utility.yul\":16476:16482   */\n      dup5\n        /* \"#utility.yul\":16470:16474   */\n      dup5\n        /* \"#utility.yul\":16426:16491   */\n      tag_219\n      jump\t// in\n    tag_392:\n        /* \"#utility.yul\":16361:16497   */\n      pop\n        /* \"#utility.yul\":16308:16497   */\n      pop\n      pop\n      jump\t// out\n        /* \"#utility.yul\":16503:16689   */\n    tag_222:\n        /* \"#utility.yul\":16563:16683   */\n    tag_394:\n        /* \"#utility.yul\":16580:16583   */\n      dup2\n        /* \"#utility.yul\":16573:16578   */\n      dup2\n        /* \"#utility.yul\":16570:16584   */\n      lt\n        /* \"#utility.yul\":16563:16683   */\n      iszero\n      tag_396\n      jumpi\n        /* \"#utility.yul\":16634:16673   */\n      tag_397\n        /* \"#utility.yul\":16671:16672   */\n      0x00\n        /* \"#utility.yul\":16664:16669   */\n      dup3\n        /* \"#utility.yul\":16634:16673   */\n      tag_221\n      jump\t// in\n    tag_397:\n        /* \"#utility.yul\":16607:16608   */\n      0x01\n        /* \"#utility.yul\":16600:16605   */\n      dup2\n        /* \"#utility.yul\":16596:16609   */\n      add\n        /* \"#utility.yul\":16587:16609   */\n      swap1\n      pop\n        /* \"#utility.yul\":16563:16683   */\n      jump(tag_394)\n    tag_396:\n        /* \"#utility.yul\":16503:16689   */\n      pop\n      pop\n      jump\t// out\n        /* \"#utility.yul\":16695:17238   */\n    tag_223:\n        /* \"#utility.yul\":16796:16798   */\n      0x1f\n        /* \"#utility.yul\":16791:16794   */\n      dup3\n        /* \"#utility.yul\":16788:16799   */\n      gt\n        /* \"#utility.yul\":16785:17231   */\n      iszero\n      tag_399\n      jumpi\n        /* \"#utility.yul\":16830:16868   */\n      tag_400\n        /* \"#utility.yul\":16862:16867   */\n      dup2\n        /* \"#utility.yul\":16830:16868   */\n      tag_212\n      jump\t// in\n    tag_400:\n        /* \"#utility.yul\":16914:16943   */\n      tag_401\n        /* \"#utility.yul\":16932:16942   */\n      dup5\n        /* \"#utility.yul\":16914:16943   */\n      tag_213\n      jump\t// in\n    tag_401:\n        /* \"#utility.yul\":16904:16912   */\n      dup2\n        /* \"#utility.yul\":16900:16944   */\n      add\n        /* \"#utility.yul\":17097:17099   */\n      0x20\n        /* \"#utility.yul\":17085:17095   */\n      dup6\n        /* \"#utility.yul\":17082:17100   */\n      lt\n        /* \"#utility.yul\":17079:17128   */\n      iszero\n      tag_402\n      jumpi\n        /* \"#utility.yul\":17118:17126   */\n      dup2\n        /* \"#utility.yul\":17103:17126   */\n      swap1\n      pop\n        /* \"#utility.yul\":17079:17128   */\n    tag_402:\n        /* \"#utility.yul\":17141:17221   */\n      tag_403\n        /* \"#utility.yul\":17197:17219   */\n      tag_404\n        /* \"#utility.yul\":17215:17218   */\n      dup6\n        /* \"#utility.yul\":17197:17219   */\n      tag_213\n      jump\t// in\n    tag_404:\n        /* \"#utility.yul\":17187:17195   */\n      dup4\n        /* \"#utility.yul\":17183:17220   */\n      add\n        /* \"#utility.yul\":17170:17181   */\n      dup3\n        /* \"#utility.yul\":17141:17221   */\n      tag_222\n      jump\t// in\n    tag_403:\n        /* \"#utility.yul\":16800:17231   */\n      pop\n      pop\n        /* \"#utility.yul\":16785:17231   */\n    tag_399:\n        /* \"#utility.yul\":16695:17238   */\n      pop\n      pop\n      pop\n      jump\t// out\n        /* \"#utility.yul\":17244:17361   */\n    tag_224:\n        /* \"#utility.yul\":17298:17306   */\n      0x00\n        /* \"#utility.yul\":17348:17353   */\n      dup3\n        /* \"#utility.yul\":17342:17346   */\n      dup3\n        /* \"#utility.yul\":17338:17354   */\n      shr\n        /* \"#utility.yul\":17317:17354   */\n      swap1\n      pop\n        /* \"#utility.yul\":17244:17361   */\n      swap3\n      swap2\n      pop\n      pop\n      jump\t// out\n        /* \"#utility.yul\":17367:17536   */\n    tag_225:\n        /* \"#utility.yul\":17411:17417   */\n      0x00\n        /* \"#utility.yul\":17444:17495   */\n      tag_407\n        /* \"#utility.yul\":17492:17493   */\n      0x00\n        /* \"#utility.yul\":17488:17494   */\n      not\n        /* \"#utility.yul\":17480:17485   */\n      dup5\n        /* \"#utility.yul\":17477:17478   */\n      0x08\n        /* \"#utility.yul\":17473:17486   */\n      mul\n        /* \"#utility.yul\":17444:17495   */\n      tag_224\n      jump\t// in\n    tag_407:\n        /* \"#utility.yul\":17440:17496   */\n      not\n        /* \"#utility.yul\":17525:17529   */\n      dup1\n        /* \"#utility.yul\":17519:17523   */\n      dup4\n        /* \"#utility.yul\":17515:17530   */\n      and\n        /* \"#utility.yul\":17505:17530   */\n      swap2\n      pop\n        /* \"#utility.yul\":17418:17536   */\n      pop\n        /* \"#utility.yul\":17367:17536   */\n      swap3\n      swap2\n      pop\n      pop\n      jump\t// out\n        /* \"#utility.yul\":17541:17836   */\n    tag_226:\n        /* \"#utility.yul\":17617:17621   */\n      0x00\n        /* \"#utility.yul\":17763:17792   */\n      tag_409\n        /* \"#utility.yul\":17788:17791   */\n      dup4\n        /* \"#utility.yul\":17782:17786   */\n      dup4\n        /* \"#utility.yul\":17763:17792   */\n      tag_225\n      jump\t// in\n    tag_409:\n        /* \"#utility.yul\":17755:17792   */\n      swap2\n      pop\n        /* \"#utility.yul\":17825:17828   */\n      dup3\n        /* \"#utility.yul\":17822:17823   */\n      0x02\n        /* \"#utility.yul\":17818:17829   */\n      mul\n        /* \"#utility.yul\":17812:17816   */\n      dup3\n        /* \"#utility.yul\":17809:17830   */\n      or\n        /* \"#utility.yul\":17801:17830   */\n      swap1\n      pop\n        /* \"#utility.yul\":17541:17836   */\n      swap3\n      swap2\n      pop\n      pop\n      jump\t// out\n        /* \"#utility.yul\":17841:19236   */\n    tag_68:\n        /* \"#utility.yul\":17958:17995   */\n      tag_411\n        /* \"#utility.yul\":17991:17994   */\n      dup3\n        /* \"#utility.yul\":17958:17995   */\n      tag_187\n      jump\t// in\n    tag_411:\n        /* \"#utility.yul\":18060:18078   */\n      0xffffffffffffffff\n        /* \"#utility.yul\":18052:18058   */\n      dup2\n        /* \"#utility.yul\":18049:18079   */\n      gt\n        /* \"#utility.yul\":18046:18102   */\n      iszero\n      tag_412\n      jumpi\n        /* \"#utility.yul\":18082:18100   */\n      tag_413\n      tag_147\n      jump\t// in\n    tag_413:\n        /* \"#utility.yul\":18046:18102   */\n    tag_412:\n        /* \"#utility.yul\":18126:18164   */\n      tag_414\n        /* \"#utility.yul\":18158:18162   */\n      dup3\n        /* \"#utility.yul\":18152:18163   */\n      sload\n        /* \"#utility.yul\":18126:18164   */\n      tag_55\n      jump\t// in\n    tag_414:\n        /* \"#utility.yul\":18211:18278   */\n      tag_415\n        /* \"#utility.yul\":18271:18277   */\n      dup3\n        /* \"#utility.yul\":18263:18269   */\n      dup3\n        /* \"#utility.yul\":18257:18261   */\n      dup6\n        /* \"#utility.yul\":18211:18278   */\n      tag_223\n      jump\t// in\n    tag_415:\n        /* \"#utility.yul\":18305:18306   */\n      0x00\n        /* \"#utility.yul\":18329:18333   */\n      0x20\n        /* \"#utility.yul\":18316:18333   */\n      swap1\n      pop\n        /* \"#utility.yul\":18361:18363   */\n      0x1f\n        /* \"#utility.yul\":18353:18359   */\n      dup4\n        /* \"#utility.yul\":18350:18364   */\n      gt\n        /* \"#utility.yul\":18378:18379   */\n      0x01\n        /* \"#utility.yul\":18373:18991   */\n      dup2\n      eq\n      tag_417\n      jumpi\n        /* \"#utility.yul\":19035:19036   */\n      0x00\n        /* \"#utility.yul\":19052:19058   */\n      dup5\n        /* \"#utility.yul\":19049:19126   */\n      iszero\n      tag_418\n      jumpi\n        /* \"#utility.yul\":19101:19110   */\n      dup3\n        /* \"#utility.yul\":19096:19099   */\n      dup8\n        /* \"#utility.yul\":19092:19111   */\n      add\n        /* \"#utility.yul\":19086:19112   */\n      mload\n        /* \"#utility.yul\":19077:19112   */\n      swap1\n      pop\n        /* \"#utility.yul\":19049:19126   */\n    tag_418:\n        /* \"#utility.yul\":19152:19219   */\n      tag_419\n        /* \"#utility.yul\":19212:19218   */\n      dup6\n        /* \"#utility.yul\":19205:19210   */\n      dup3\n        /* \"#utility.yul\":19152:19219   */\n      tag_226\n      jump\t// in\n    tag_419:\n        /* \"#utility.yul\":19146:19150   */\n      dup7\n        /* \"#utility.yul\":19139:19220   */\n      sstore\n        /* \"#utility.yul\":19008:19230   */\n      pop\n        /* \"#utility.yul\":18343:19230   */\n      jump(tag_416)\n        /* \"#utility.yul\":18373:18991   */\n    tag_417:\n        /* \"#utility.yul\":18425:18429   */\n      0x1f\n        /* \"#utility.yul\":18421:18430   */\n      not\n        /* \"#utility.yul\":18413:18419   */\n      dup5\n        /* \"#utility.yul\":18409:18431   */\n      and\n        /* \"#utility.yul\":18459:18496   */\n      tag_420\n        /* \"#utility.yul\":18491:18495   */\n      dup7\n        /* \"#utility.yul\":18459:18496   */\n      tag_212\n      jump\t// in\n    tag_420:\n        /* \"#utility.yul\":18518:18519   */\n      0x00\n        /* \"#utility.yul\":18532:18740   */\n    tag_421:\n        /* \"#utility.yul\":18546:18553   */\n      dup3\n        /* \"#utility.yul\":18543:18544   */\n      dup2\n        /* \"#utility.yul\":18540:18554   */\n      lt\n        /* \"#utility.yul\":18532:18740   */\n      iszero\n      tag_423\n      jumpi\n        /* \"#utility.yul\":18625:18634   */\n      dup5\n        /* \"#utility.yul\":18620:18623   */\n      dup10\n        /* \"#utility.yul\":18616:18635   */\n      add\n        /* \"#utility.yul\":18610:18636   */\n      mload\n        /* \"#utility.yul\":18602:18608   */\n      dup3\n        /* \"#utility.yul\":18595:18637   */\n      sstore\n        /* \"#utility.yul\":18676:18677   */\n      0x01\n        /* \"#utility.yul\":18668:18674   */\n      dup3\n        /* \"#utility.yul\":18664:18678   */\n      add\n        /* \"#utility.yul\":18654:18678   */\n      swap2\n      pop\n        /* \"#utility.yul\":18723:18725   */\n      0x20\n        /* \"#utility.yul\":18712:18721   */\n      dup6\n        /* \"#utility.yul\":18708:18726   */\n      add\n        /* \"#utility.yul\":18695:18726   */\n      swap5\n      pop\n        /* \"#utility.yul\":18569:18573   */\n      0x20\n        /* \"#utility.yul\":18566:18567   */\n      dup2\n        /* \"#utility.yul\":18562:18574   */\n      add\n        /* \"#utility.yul\":18557:18574   */\n      swap1\n      pop\n        /* \"#utility.yul\":18532:18740   */\n      jump(tag_421)\n    tag_423:\n        /* \"#utility.yul\":18768:18774   */\n      dup7\n        /* \"#utility.yul\":18759:18766   */\n      dup4\n        /* \"#utility.yul\":18756:18775   */\n      lt\n        /* \"#utility.yul\":18753:18932   */\n      iszero\n      tag_424\n      jumpi\n        /* \"#utility.yul\":18826:18835   */\n      dup5\n        /* \"#utility.yul\":18821:18824   */\n      dup10\n        /* \"#utility.yul\":18817:18836   */\n      add\n        /* \"#utility.yul\":18811:18837   */\n      mload\n        /* \"#utility.yul\":18869:18917   */\n      tag_425\n        /* \"#utility.yul\":18911:18915   */\n      0x1f\n        /* \"#utility.yul\":18903:18909   */\n      dup10\n        /* \"#utility.yul\":18899:18916   */\n      and\n        /* \"#utility.yul\":18888:18897   */\n      dup3\n        /* \"#utility.yul\":18869:18917   */\n      tag_225\n      jump\t// in\n    tag_425:\n        /* \"#utility.yul\":18861:18867   */\n      dup4\n        /* \"#utility.yul\":18854:18918   */\n      sstore\n        /* \"#utility.yul\":18776:18932   */\n      pop\n        /* \"#utility.yul\":18753:18932   */\n    tag_424:\n        /* \"#utility.yul\":18978:18979   */\n      0x01\n        /* \"#utility.yul\":18974:18975   */\n      0x02\n        /* \"#utility.yul\":18966:18972   */\n      dup9\n        /* \"#utility.yul\":18962:18976   */\n      mul\n        /* \"#utility.yul\":18958:18980   */\n      add\n        /* \"#utility.yul\":18952:18956   */\n      dup9\n        /* \"#utility.yul\":18945:18981   */\n      sstore\n        /* \"#utility.yul\":18380:18991   */\n      pop\n      pop\n      pop\n        /* \"#utility.yul\":18343:19230   */\n    tag_416:\n      pop\n        /* \"#utility.yul\":17933:19236   */\n      pop\n      pop\n      pop\n        /* \"#utility.yul\":17841:19236   */\n      pop\n      pop\n      jump\t// out\n        /* \"#utility.yul\":19242:19412   */\n    tag_227:\n        /* \"#utility.yul\":19382:19404   */\n      0x6e6f7420656c696769626c6520746f20766f7465000000000000000000000000\n        /* \"#utility.yul\":19378:19379   */\n      0x00\n        /* \"#utility.yul\":19370:19376   */\n      dup3\n        /* \"#utility.yul\":19366:19380   */\n      add\n        /* \"#utility.yul\":19359:19405   */\n      mstore\n        /* \"#utility.yul\":19242:19412   */\n      pop\n      jump\t// out\n        /* \"#utility.yul\":19418:19784   */\n    tag_228:\n        /* \"#utility.yul\":19560:19563   */\n      0x00\n        /* \"#utility.yul\":19581:19648   */\n      tag_428\n        /* \"#utility.yul\":19645:19647   */\n      0x14\n        /* \"#utility.yul\":19640:19643   */\n      dup4\n        /* \"#utility.yul\":19581:19648   */\n      tag_188\n      jump\t// in\n    tag_428:\n        /* \"#utility.yul\":19574:19648   */\n      swap2\n      pop\n        /* \"#utility.yul\":19657:19750   */\n      tag_429\n        /* \"#utility.yul\":19746:19749   */\n      dup3\n        /* \"#utility.yul\":19657:19750   */\n      tag_227\n      jump\t// in\n    tag_429:\n        /* \"#utility.yul\":19775:19777   */\n      0x20\n        /* \"#utility.yul\":19770:19773   */\n      dup3\n        /* \"#utility.yul\":19766:19778   */\n      add\n        /* \"#utility.yul\":19759:19778   */\n      swap1\n      pop\n        /* \"#utility.yul\":19418:19784   */\n      swap2\n      swap1\n      pop\n      jump\t// out\n        /* \"#utility.yul\":19790:20209   */\n    tag_102:\n        /* \"#utility.yul\":19956:19960   */\n      0x00\n        /* \"#utility.yul\":19994:19996   */\n      0x20\n        /* \"#utility.yul\":19983:19992   */\n      dup3\n        /* \"#utility.yul\":19979:19997   */\n      add\n        /* \"#utility.yul\":19971:19997   */\n      swap1\n      pop\n        /* \"#utility.yul\":20043:20052   */\n      dup2\n        /* \"#utility.yul\":20037:20041   */\n      dup2\n        /* \"#utility.yul\":20033:20053   */\n      sub\n        /* \"#utility.yul\":20029:20030   */\n      0x00\n        /* \"#utility.yul\":20018:20027   */\n      dup4\n        /* \"#utility.yul\":20014:20031   */\n      add\n        /* \"#utility.yul\":20007:20054   */\n      mstore\n        /* \"#utility.yul\":20071:20202   */\n      tag_431\n        /* \"#utility.yul\":20197:20201   */\n      dup2\n        /* \"#utility.yul\":20071:20202   */\n      tag_228\n      jump\t// in\n    tag_431:\n        /* \"#utility.yul\":20063:20202   */\n      swap1\n      pop\n        /* \"#utility.yul\":19790:20209   */\n      swap2\n      swap1\n      pop\n      jump\t// out\n        /* \"#utility.yul\":20215:20397   */\n    tag_229:\n        /* \"#utility.yul\":20355:20389   */\n      0x54686973206164647265737320686173206265656e2072656769737465726564\n        /* \"#utility.yul\":20351:20352   */\n      0x00\n        /* \"#utility.yul\":20343:20349   */\n      dup3\n        /* \"#utility.yul\":20339:20353   */\n      add\n        /* \"#utility.yul\":20332:20390   */\n      mstore\n        /* \"#utility.yul\":20215:20397   */\n      pop\n      jump\t// out\n        /* \"#utility.yul\":20403:20769   */\n    tag_230:\n        /* \"#utility.yul\":20545:20548   */\n      0x00\n        /* \"#utility.yul\":20566:20633   */\n      tag_434\n        /* \"#utility.yul\":20630:20632   */\n      0x20\n        /* \"#utility.yul\":20625:20628   */\n      dup4\n        /* \"#utility.yul\":20566:20633   */\n      tag_188\n      jump\t// in\n    tag_434:\n        /* \"#utility.yul\":20559:20633   */\n      swap2\n      pop\n        /* \"#utility.yul\":20642:20735   */\n      tag_435\n        /* \"#utility.yul\":20731:20734   */\n      dup3\n        /* \"#utility.yul\":20642:20735   */\n      tag_229\n      jump\t// in\n    tag_435:\n        /* \"#utility.yul\":20760:20762   */\n      0x20\n        /* \"#utility.yul\":20755:20758   */\n      dup3\n        /* \"#utility.yul\":20751:20763   */\n      add\n        /* \"#utility.yul\":20744:20763   */\n      swap1\n      pop\n        /* \"#utility.yul\":20403:20769   */\n      swap2\n      swap1\n      pop\n      jump\t// out\n        /* \"#utility.yul\":20775:21194   */\n    tag_106:\n        /* \"#utility.yul\":20941:20945   */\n      0x00\n        /* \"#utility.yul\":20979:20981   */\n      0x20\n        /* \"#utility.yul\":20968:20977   */\n      dup3\n        /* \"#utility.yul\":20964:20982   */\n      add\n        /* \"#utility.yul\":20956:20982   */\n      swap1\n      pop\n        /* \"#utility.yul\":21028:21037   */\n      dup2\n        /* \"#utility.yul\":21022:21026   */\n      dup2\n        /* \"#utility.yul\":21018:21038   */\n      sub\n        /* \"#utility.yul\":21014:21015   */\n      0x00\n        /* \"#utility.yul\":21003:21012   */\n      dup4\n        /* \"#utility.yul\":20999:21016   */\n      add\n        /* \"#utility.yul\":20992:21039   */\n      mstore\n        /* \"#utility.yul\":21056:21187   */\n      tag_437\n        /* \"#utility.yul\":21182:21186   */\n      dup2\n        /* \"#utility.yul\":21056:21187   */\n      tag_230\n      jump\t// in\n    tag_437:\n        /* \"#utility.yul\":21048:21187   */\n      swap1\n      pop\n        /* \"#utility.yul\":20775:21194   */\n      swap2\n      swap1\n      pop\n      jump\t// out\n        /* \"#utility.yul\":21200:21380   */\n    tag_231:\n        /* \"#utility.yul\":21368:21373   */\n      0x4e49470000000000000000000000000000000000000000000000000000000000\n        /* \"#utility.yul\":21363:21366   */\n      dup2\n        /* \"#utility.yul\":21356:21374   */\n      mstore\n        /* \"#utility.yul\":21200:21380   */\n      pop\n      jump\t// out\n        /* \"#utility.yul\":21386:21925   */\n    tag_109:\n        /* \"#utility.yul\":21608:21611   */\n      0x00\n        /* \"#utility.yul\":21623:21760   */\n      tag_440\n        /* \"#utility.yul\":21756:21759   */\n      dup3\n        /* \"#utility.yul\":21623:21760   */\n      tag_231\n      jump\t// in\n    tag_440:\n        /* \"#utility.yul\":21785:21786   */\n      0x03\n        /* \"#utility.yul\":21780:21783   */\n      dup3\n        /* \"#utility.yul\":21776:21787   */\n      add\n        /* \"#utility.yul\":21769:21787   */\n      swap2\n      pop\n        /* \"#utility.yul\":21804:21899   */\n      tag_441\n        /* \"#utility.yul\":21895:21898   */\n      dup3\n        /* \"#utility.yul\":21886:21892   */\n      dup5\n        /* \"#utility.yul\":21804:21899   */\n      tag_211\n      jump\t// in\n    tag_441:\n        /* \"#utility.yul\":21797:21899   */\n      swap2\n      pop\n        /* \"#utility.yul\":21916:21919   */\n      dup2\n        /* \"#utility.yul\":21909:21919   */\n      swap1\n      pop\n        /* \"#utility.yul\":21386:21925   */\n      swap3\n      swap2\n      pop\n      pop\n      jump\t// out\n        /* \"#utility.yul\":21931:22111   */\n    tag_232:\n        /* \"#utility.yul\":21979:22056   */\n      0x4e487b7100000000000000000000000000000000000000000000000000000000\n        /* \"#utility.yul\":21976:21977   */\n      0x00\n        /* \"#utility.yul\":21969:22057   */\n      mstore\n        /* \"#utility.yul\":22076:22080   */\n      0x11\n        /* \"#utility.yul\":22073:22074   */\n      0x04\n        /* \"#utility.yul\":22066:22081   */\n      mstore\n        /* \"#utility.yul\":22100:22104   */\n      0x24\n        /* \"#utility.yul\":22097:22098   */\n      0x00\n        /* \"#utility.yul\":22090:22105   */\n      revert\n        /* \"#utility.yul\":22117:22308   */\n    tag_113:\n        /* \"#utility.yul\":22157:22160   */\n      0x00\n        /* \"#utility.yul\":22176:22196   */\n      tag_444\n        /* \"#utility.yul\":22194:22195   */\n      dup3\n        /* \"#utility.yul\":22176:22196   */\n      tag_192\n      jump\t// in\n    tag_444:\n        /* \"#utility.yul\":22171:22196   */\n      swap2\n      pop\n        /* \"#utility.yul\":22210:22230   */\n      tag_445\n        /* \"#utility.yul\":22228:22229   */\n      dup4\n        /* \"#utility.yul\":22210:22230   */\n      tag_192\n      jump\t// in\n    tag_445:\n        /* \"#utility.yul\":22205:22230   */\n      swap3\n      pop\n        /* \"#utility.yul\":22253:22254   */\n      dup3\n        /* \"#utility.yul\":22250:22251   */\n      dup3\n        /* \"#utility.yul\":22246:22255   */\n      add\n        /* \"#utility.yul\":22239:22255   */\n      swap1\n      pop\n        /* \"#utility.yul\":22274:22277   */\n      dup1\n        /* \"#utility.yul\":22271:22272   */\n      dup3\n        /* \"#utility.yul\":22268:22278   */\n      gt\n        /* \"#utility.yul\":22265:22301   */\n      iszero\n      tag_446\n      jumpi\n        /* \"#utility.yul\":22281:22299   */\n      tag_447\n      tag_232\n      jump\t// in\n    tag_447:\n        /* \"#utility.yul\":22265:22301   */\n    tag_446:\n        /* \"#utility.yul\":22117:22308   */\n      swap3\n      swap2\n      pop\n      pop\n      jump\t// out\n        /* \"#utility.yul\":22314:22460   */\n    tag_233:\n        /* \"#utility.yul\":22411:22417   */\n      dup3\n        /* \"#utility.yul\":22406:22409   */\n      dup2\n        /* \"#utility.yul\":22401:22404   */\n      dup4\n        /* \"#utility.yul\":22388:22418   */\n      calldatacopy\n        /* \"#utility.yul\":22452:22453   */\n      0x00\n        /* \"#utility.yul\":22443:22449   */\n      dup4\n        /* \"#utility.yul\":22438:22441   */\n      dup4\n        /* \"#utility.yul\":22434:22450   */\n      add\n        /* \"#utility.yul\":22427:22454   */\n      mstore\n        /* \"#utility.yul\":22314:22460   */\n      pop\n      pop\n      pop\n      jump\t// out\n        /* \"#utility.yul\":22490:22820   */\n    tag_234:\n        /* \"#utility.yul\":22606:22609   */\n      0x00\n        /* \"#utility.yul\":22627:22716   */\n      tag_450\n        /* \"#utility.yul\":22709:22715   */\n      dup4\n        /* \"#utility.yul\":22704:22707   */\n      dup6\n        /* \"#utility.yul\":22627:22716   */\n      tag_210\n      jump\t// in\n    tag_450:\n        /* \"#utility.yul\":22620:22716   */\n      swap4\n      pop\n        /* \"#utility.yul\":22726:22782   */\n      tag_451\n        /* \"#utility.yul\":22775:22781   */\n      dup4\n        /* \"#utility.yul\":22770:22773   */\n      dup6\n        /* \"#utility.yul\":22763:22768   */\n      dup5\n        /* \"#utility.yul\":22726:22782   */\n      tag_233\n      jump\t// in\n    tag_451:\n        /* \"#utility.yul\":22807:22813   */\n      dup3\n        /* \"#utility.yul\":22802:22805   */\n      dup5\n        /* \"#utility.yul\":22798:22814   */\n      add\n        /* \"#utility.yul\":22791:22814   */\n      swap1\n      pop\n        /* \"#utility.yul\":22490:22820   */\n      swap4\n      swap3\n      pop\n      pop\n      pop\n      jump\t// out\n        /* \"#utility.yul\":22826:23121   */\n    tag_127:\n        /* \"#utility.yul\":22968:22971   */\n      0x00\n        /* \"#utility.yul\":22990:23095   */\n      tag_453\n        /* \"#utility.yul\":23091:23094   */\n      dup3\n        /* \"#utility.yul\":23082:23088   */\n      dup5\n        /* \"#utility.yul\":23074:23080   */\n      dup7\n        /* \"#utility.yul\":22990:23095   */\n      tag_234\n      jump\t// in\n    tag_453:\n        /* \"#utility.yul\":22983:23095   */\n      swap2\n      pop\n        /* \"#utility.yul\":23112:23115   */\n      dup2\n        /* \"#utility.yul\":23105:23115   */\n      swap1\n      pop\n        /* \"#utility.yul\":22826:23121   */\n      swap4\n      swap3\n      pop\n      pop\n      pop\n      jump\t// out\n        /* \"#utility.yul\":23151:24025   */\n    tag_235:\n        /* \"#utility.yul\":23254:23257   */\n      0x00\n        /* \"#utility.yul\":23291:23296   */\n      dup2\n        /* \"#utility.yul\":23285:23297   */\n      sload\n        /* \"#utility.yul\":23320:23356   */\n      tag_455\n        /* \"#utility.yul\":23346:23355   */\n      dup2\n        /* \"#utility.yul\":23320:23356   */\n      tag_55\n      jump\t// in\n    tag_455:\n        /* \"#utility.yul\":23372:23461   */\n      tag_456\n        /* \"#utility.yul\":23454:23460   */\n      dup2\n        /* \"#utility.yul\":23449:23452   */\n      dup7\n        /* \"#utility.yul\":23372:23461   */\n      tag_210\n      jump\t// in\n    tag_456:\n        /* \"#utility.yul\":23365:23461   */\n      swap5\n      pop\n        /* \"#utility.yul\":23492:23493   */\n      0x01\n        /* \"#utility.yul\":23481:23490   */\n      dup3\n        /* \"#utility.yul\":23477:23494   */\n      and\n        /* \"#utility.yul\":23508:23509   */\n      0x00\n        /* \"#utility.yul\":23503:23669   */\n      dup2\n      eq\n      tag_458\n      jumpi\n        /* \"#utility.yul\":23683:23684   */\n      0x01\n        /* \"#utility.yul\":23678:24019   */\n      dup2\n      eq\n      tag_459\n      jumpi\n        /* \"#utility.yul\":23470:24019   */\n      jump(tag_457)\n        /* \"#utility.yul\":23503:23669   */\n    tag_458:\n        /* \"#utility.yul\":23587:23591   */\n      0xff\n        /* \"#utility.yul\":23583:23592   */\n      not\n        /* \"#utility.yul\":23572:23581   */\n      dup4\n        /* \"#utility.yul\":23568:23593   */\n      and\n        /* \"#utility.yul\":23563:23566   */\n      dup7\n        /* \"#utility.yul\":23556:23594   */\n      mstore\n        /* \"#utility.yul\":23649:23655   */\n      dup2\n        /* \"#utility.yul\":23642:23656   */\n      iszero\n        /* \"#utility.yul\":23635:23657   */\n      iszero\n        /* \"#utility.yul\":23627:23633   */\n      dup3\n        /* \"#utility.yul\":23623:23658   */\n      mul\n        /* \"#utility.yul\":23618:23621   */\n      dup7\n        /* \"#utility.yul\":23614:23659   */\n      add\n        /* \"#utility.yul\":23607:23659   */\n      swap4\n      pop\n        /* \"#utility.yul\":23503:23669   */\n      jump(tag_457)\n        /* \"#utility.yul\":23678:24019   */\n    tag_459:\n        /* \"#utility.yul\":23745:23783   */\n      tag_460\n        /* \"#utility.yul\":23777:23782   */\n      dup6\n        /* \"#utility.yul\":23745:23783   */\n      tag_212\n      jump\t// in\n    tag_460:\n        /* \"#utility.yul\":23805:23806   */\n      0x00\n        /* \"#utility.yul\":23819:23973   */\n    tag_461:\n        /* \"#utility.yul\":23833:23839   */\n      dup4\n        /* \"#utility.yul\":23830:23831   */\n      dup2\n        /* \"#utility.yul\":23827:23840   */\n      lt\n        /* \"#utility.yul\":23819:23973   */\n      iszero\n      tag_463\n      jumpi\n        /* \"#utility.yul\":23907:23914   */\n      dup2\n        /* \"#utility.yul\":23901:23915   */\n      sload\n        /* \"#utility.yul\":23897:23898   */\n      dup2\n        /* \"#utility.yul\":23892:23895   */\n      dup10\n        /* \"#utility.yul\":23888:23899   */\n      add\n        /* \"#utility.yul\":23881:23916   */\n      mstore\n        /* \"#utility.yul\":23957:23958   */\n      0x01\n        /* \"#utility.yul\":23948:23955   */\n      dup3\n        /* \"#utility.yul\":23944:23959   */\n      add\n        /* \"#utility.yul\":23933:23959   */\n      swap2\n      pop\n        /* \"#utility.yul\":23855:23859   */\n      0x20\n        /* \"#utility.yul\":23852:23853   */\n      dup2\n        /* \"#utility.yul\":23848:23860   */\n      add\n        /* \"#utility.yul\":23843:23860   */\n      swap1\n      pop\n        /* \"#utility.yul\":23819:23973   */\n      jump(tag_461)\n    tag_463:\n        /* \"#utility.yul\":24002:24008   */\n      dup4\n        /* \"#utility.yul\":23997:24000   */\n      dup9\n        /* \"#utility.yul\":23993:24009   */\n      add\n        /* \"#utility.yul\":23986:24009   */\n      swap6\n      pop\n        /* \"#utility.yul\":23685:24019   */\n      pop\n      pop\n        /* \"#utility.yul\":23470:24019   */\n    tag_457:\n      pop\n        /* \"#utility.yul\":23258:24025   */\n      pop\n      pop\n        /* \"#utility.yul\":23151:24025   */\n      swap3\n      swap2\n      pop\n      pop\n      jump\t// out\n        /* \"#utility.yul\":24031:24300   */\n    tag_129:\n        /* \"#utility.yul\":24160:24163   */\n      0x00\n        /* \"#utility.yul\":24182:24274   */\n      tag_465\n        /* \"#utility.yul\":24270:24273   */\n      dup3\n        /* \"#utility.yul\":24261:24267   */\n      dup5\n        /* \"#utility.yul\":24182:24274   */\n      tag_235\n      jump\t// in\n    tag_465:\n        /* \"#utility.yul\":24175:24274   */\n      swap2\n      pop\n        /* \"#utility.yul\":24291:24294   */\n      dup2\n        /* \"#utility.yul\":24284:24294   */\n      swap1\n      pop\n        /* \"#utility.yul\":24031:24300   */\n      swap3\n      swap2\n      pop\n      pop\n      jump\t// out\n        /* \"#utility.yul\":24306:24486   */\n    tag_153:\n        /* \"#utility.yul\":24354:24431   */\n      0x4e487b7100000000000000000000000000000000000000000000000000000000\n        /* \"#utility.yul\":24351:24352   */\n      0x00\n        /* \"#utility.yul\":24344:24432   */\n      mstore\n        /* \"#utility.yul\":24451:24455   */\n      0x12\n        /* \"#utility.yul\":24448:24449   */\n      0x04\n        /* \"#utility.yul\":24441:24456   */\n      mstore\n        /* \"#utility.yul\":24475:24479   */\n      0x24\n        /* \"#utility.yul\":24472:24473   */\n      0x00\n        /* \"#utility.yul\":24465:24480   */\n      revert\n\n    auxdata: 0xa264697066735822122047b701d9511c6f31f8874fc3776358881be4370b0d5a6163ae6e850908ebd73564736f6c63430008120033\n}\n",
				"bytecode": {
					"linkReferences": {},
					"object": "608060405234801561001057600080fd5b5033600160006101000a81548173ffffffffffffffffffffffffffffffffffffffff021916908373ffffffffffffffffffffffffffffffffffffffff1602179055506001600281905550611f96806100696000396000f3fe608060405234801561001057600080fd5b50600436106100935760003560e01c8063c0264d3a11610066578063c0264d3a1461013a578063ce606ee01461016a578063cfa3420814610188578063ef5b7ceb146101a6578063fbbf93a0146101d657610093565b80637151ace2146100985780638bc8d6ff146100b6578063a3ec138d146100d2578063a48af09614610106575b600080fd5b6100a06101f4565b6040516100ad9190611322565b60405180910390f35b6100d060048036038101906100cb91906113ac565b610218565b005b6100ec60048036038101906100e79190611459565b610581565b6040516100fd95949392919061154a565b60405180910390f35b610120600480360381019061011b9190611459565b6106f4565b6040516101319594939291906115ab565b60405180910390f35b610154600480360381019061014f919061163f565b6108ef565b6040516101619190611793565b60405180910390f35b610172610d69565b60405161017f9190611322565b60405180910390f35b610190610d8f565b60405161019d91906117b5565b60405180910390f35b6101c060048036038101906101bb91906117d0565b610de6565b6040516101cd91906117b5565b60405180910390f35b6101de610e83565b6040516101eb9190611793565b60405180910390f35b60008054906101000a900473ffffffffffffffffffffffffffffffffffffffff1681565b6000600460003373ffffffffffffffffffffffffffffffffffffffff1673ffffffffffffffffffffffffffffffffffffffff16815260200190815260200160002060010180546102679061185f565b9050146102a9576040517f08c379a00000000000000000000000000000000000000000000000000000000081526004016102a0906118dc565b60405180910390fd5b6000600360003373ffffffffffffffffffffffffffffffffffffffff1673ffffffffffffffffffffffffffffffffffffffff16815260200190815260200160002060020180546102f89061185f565b90500361033a576040517f08c379a00000000000000000000000000000000000000000000000000000000081526004016103319061196e565b60405180910390fd5b6000610347600254611079565b60405160200161035791906119f0565b604051602081830303815290604052905060405180602001604052806000815250600360003373ffffffffffffffffffffffffffffffffffffffff1673ffffffffffffffffffffffffffffffffffffffff16815260200190815260200160002060020190816103c69190611bf1565b506040518060a0016040528086868080601f016020809104026020016040519081016040528093929190818152602001838380828437600081840152601f19601f82011690508083019250505050505050815260200182815260200184848080601f016020809104026020016040519081016040528093929190818152602001838380828437600081840152601f19601f8201169050808301925050505050505081526020016000151581526020013373ffffffffffffffffffffffffffffffffffffffff16815250600460003373ffffffffffffffffffffffffffffffffffffffff1673ffffffffffffffffffffffffffffffffffffffff16815260200190815260200160002060008201518160000190816104e39190611bf1565b5060208201518160010190816104f99190611bf1565b50604082015181600201908161050f9190611bf1565b5060608201518160030160006101000a81548160ff02191690831515021790555060808201518160030160016101000a81548173ffffffffffffffffffffffffffffffffffffffff021916908373ffffffffffffffffffffffffffffffffffffffff1602179055509050505050505050565b60036020528060005260406000206000915090508060000180546105a49061185f565b80601f01602080910402602001604051908101604052809291908181526020018280546105d09061185f565b801561061d5780601f106105f25761010080835404028352916020019161061d565b820191906000526020600020905b81548152906001019060200180831161060057829003601f168201915b5050505050908060010154908060020180546106389061185f565b80601f01602080910402602001604051908101604052809291908181526020018280546106649061185f565b80156106b15780601f10610686576101008083540402835291602001916106b1565b820191906000526020600020905b81548152906001019060200180831161069457829003601f168201915b5050505050908060030160009054906101000a900460ff16908060030160019054906101000a900473ffffffffffffffffffffffffffffffffffffffff16905085565b60046020528060005260406000206000915090508060000180546107179061185f565b80601f01602080910402602001604051908101604052809291908181526020018280546107439061185f565b80156107905780601f1061076557610100808354040283529160200191610790565b820191906000526020600020905b81548152906001019060200180831161077357829003601f168201915b5050505050908060010180546107a59061185f565b80601f01602080910402602001604051908101604052809291908181526020018280546107d19061185f565b801561081e5780601f106107f35761010080835404028352916020019161081e565b820191906000526020600020905b81548152906001019060200180831161080157829003601f168201915b5050505050908060020180546108339061185f565b80601f016020809104026020016040519081016040528092919081815260200182805461085f9061185f565b80156108ac5780601f10610881576101008083540402835291602001916108ac565b820191906000526020600020905b81548152906001019060200180831161088f57829003601f168201915b5050505050908060030160009054906101000a900460ff16908060030160019054906101000a900473ffffffffffffffffffffffffffffffffffffffff16905085565b6108f761129a565b6011821161093a576040517f08c379a000000000000000000000000000000000000000000000000000000000815260040161093190611d0f565b60405180910390fd5b6000600360003373ffffffffffffffffffffffffffffffffffffffff1673ffffffffffffffffffffffffffffffffffffffff16815260200190815260200160002060020180546109899061185f565b9050146109cb576040517f08c379a00000000000000000000000000000000000000000000000000000000081526004016109c290611d7b565b60405180910390fd5b60006109d8600254611079565b6040516020016109e89190611dc1565b60405160208183030381529060405290506040518060a0016040528086868080601f016020809104026020016040519081016040528093929190818152602001838380828437600081840152601f19601f8201169050808301925050505050505081526020018481526020018281526020016000151581526020013373ffffffffffffffffffffffffffffffffffffffff16815250600360003373ffffffffffffffffffffffffffffffffffffffff1673ffffffffffffffffffffffffffffffffffffffff1681526020019081526020016000206000820151816000019081610ad19190611bf1565b50602082015181600101556040820151816002019081610af19190611bf1565b5060608201518160030160006101000a81548160ff02191690831515021790555060808201518160030160016101000a81548173ffffffffffffffffffffffffffffffffffffffff021916908373ffffffffffffffffffffffffffffffffffffffff160217905550905050600160026000828254610b6f9190611e16565b92505081905550600360003373ffffffffffffffffffffffffffffffffffffffff1673ffffffffffffffffffffffffffffffffffffffff1681526020019081526020016000206040518060a0016040529081600082018054610bd09061185f565b80601f0160208091040260200160405190810160405280929190818152602001828054610bfc9061185f565b8015610c495780601f10610c1e57610100808354040283529160200191610c49565b820191906000526020600020905b815481529060010190602001808311610c2c57829003601f168201915b5050505050815260200160018201548152602001600282018054610c6c9061185f565b80601f0160208091040260200160405190810160405280929190818152602001828054610c989061185f565b8015610ce55780601f10610cba57610100808354040283529160200191610ce5565b820191906000526020600020905b815481529060010190602001808311610cc857829003601f168201915b505050505081526020016003820160009054906101000a900460ff161515151581526020016003820160019054906101000a900473ffffffffffffffffffffffffffffffffffffffff1673ffffffffffffffffffffffffffffffffffffffff1673ffffffffffffffffffffffffffffffffffffffff16815250509150509392505050565b600160009054906101000a900473ffffffffffffffffffffffffffffffffffffffff1681565b6000600360003373ffffffffffffffffffffffffffffffffffffffff1673ffffffffffffffffffffffffffffffffffffffff16815260200190815260200160002060030160009054906101000a900460ff16905090565b60008383604051602001610dfb929190611e7e565b60405160208183030381529060405280519060200120600460008473ffffffffffffffffffffffffffffffffffffffff1673ffffffffffffffffffffffffffffffffffffffff168152602001908152602001600020600201604051602001610e639190611f1a565b604051602081830303815290604052805190602001201490509392505050565b610e8b61129a565b600360003373ffffffffffffffffffffffffffffffffffffffff1673ffffffffffffffffffffffffffffffffffffffff1681526020019081526020016000206040518060a0016040529081600082018054610ee59061185f565b80601f0160208091040260200160405190810160405280929190818152602001828054610f119061185f565b8015610f5e5780601f10610f3357610100808354040283529160200191610f5e565b820191906000526020600020905b815481529060010190602001808311610f4157829003601f168201915b5050505050815260200160018201548152602001600282018054610f819061185f565b80601f0160208091040260200160405190810160405280929190818152602001828054610fad9061185f565b8015610ffa5780601f10610fcf57610100808354040283529160200191610ffa565b820191906000526020600020905b815481529060010190602001808311610fdd57829003601f168201915b505050505081526020016003820160009054906101000a900460ff161515151581526020016003820160019054906101000a900473ffffffffffffffffffffffffffffffffffffffff1673ffffffffffffffffffffffffffffffffffffffff1673ffffffffffffffffffffffffffffffffffffffff1681525050905090565b60606000600161108884611147565b01905060008167ffffffffffffffff8111156110a7576110a6611a16565b5b6040519080825280601f01601f1916602001820160405280156110d95781602001600182028036833780820191505090505b509050600082602001820190505b60011561113c578080600190039150507f3031323334353637383961626364656600000000000000000000000000000000600a86061a8153600a85816111305761112f611f31565b5b049450600085036110e7575b819350505050919050565b600080600090507a184f03e93ff9f4daa797ed6e38ed64bf6a1f01000000000000000083106111a5577a184f03e93ff9f4daa797ed6e38ed64bf6a1f010000000000000000838161119b5761119a611f31565b5b0492506040810190505b6d04ee2d6d415b85acef810000000083106111e2576d04ee2d6d415b85acef810000000083816111d8576111d7611f31565b5b0492506020810190505b662386f26fc10000831061121157662386f26fc10000838161120757611206611f31565b5b0492506010810190505b6305f5e100831061123a576305f5e10083816112305761122f611f31565b5b0492506008810190505b612710831061125f57612710838161125557611254611f31565b5b0492506004810190505b60648310611282576064838161127857611277611f31565b5b0492506002810190505b600a8310611291576001810190505b80915050919050565b6040518060a00160405280606081526020016000815260200160608152602001600015158152602001600073ffffffffffffffffffffffffffffffffffffffff1681525090565b600073ffffffffffffffffffffffffffffffffffffffff82169050919050565b600061130c826112e1565b9050919050565b61131c81611301565b82525050565b60006020820190506113376000830184611313565b92915050565b600080fd5b600080fd5b600080fd5b600080fd5b600080fd5b60008083601f84011261136c5761136b611347565b5b8235905067ffffffffffffffff8111156113895761138861134c565b5b6020830191508360018202830111156113a5576113a4611351565b5b9250929050565b600080600080604085870312156113c6576113c561133d565b5b600085013567ffffffffffffffff8111156113e4576113e3611342565b5b6113f087828801611356565b9450945050602085013567ffffffffffffffff81111561141357611412611342565b5b61141f87828801611356565b925092505092959194509250565b61143681611301565b811461144157600080fd5b50565b6000813590506114538161142d565b92915050565b60006020828403121561146f5761146e61133d565b5b600061147d84828501611444565b91505092915050565b600081519050919050565b600082825260208201905092915050565b60005b838110156114c05780820151818401526020810190506114a5565b60008484015250505050565b6000601f19601f8301169050919050565b60006114e882611486565b6114f28185611491565b93506115028185602086016114a2565b61150b816114cc565b840191505092915050565b6000819050919050565b61152981611516565b82525050565b60008115159050919050565b6115448161152f565b82525050565b600060a082019050818103600083015261156481886114dd565b90506115736020830187611520565b818103604083015261158581866114dd565b9050611594606083018561153b565b6115a16080830184611313565b9695505050505050565b600060a08201905081810360008301526115c581886114dd565b905081810360208301526115d981876114dd565b905081810360408301526115ed81866114dd565b90506115fc606083018561153b565b6116096080830184611313565b9695505050505050565b61161c81611516565b811461162757600080fd5b50565b60008135905061163981611613565b92915050565b6000806000604084860312156116585761165761133d565b5b600084013567ffffffffffffffff81111561167657611675611342565b5b61168286828701611356565b935093505060206116958682870161162a565b9150509250925092565b600082825260208201905092915050565b60006116bb82611486565b6116c5818561169f565b93506116d58185602086016114a2565b6116de816114cc565b840191505092915050565b6116f281611516565b82525050565b6117018161152f565b82525050565b61171081611301565b82525050565b600060a083016000830151848203600086015261173382826116b0565b915050602083015161174860208601826116e9565b506040830151848203604086015261176082826116b0565b915050606083015161177560608601826116f8565b5060808301516117886080860182611707565b508091505092915050565b600060208201905081810360008301526117ad8184611716565b905092915050565b60006020820190506117ca600083018461153b565b92915050565b6000806000604084860312156117e9576117e861133d565b5b600084013567ffffffffffffffff81111561180757611806611342565b5b61181386828701611356565b9350935050602061182686828701611444565b9150509250925092565b7f4e487b7100000000000000000000000000000000000000000000000000000000600052602260045260246000fd5b6000600282049050600182168061187757607f821691505b60208210810361188a57611889611830565b5b50919050565b7f54686973206164647265737320697320616e2061646d696e0000000000000000600082015250565b60006118c6601883611491565b91506118d182611890565b602082019050919050565b600060208201905081810360008301526118f5816118b9565b9050919050565b7f54686973206164647265737320686173206d6f74206265656e2072656769737460008201527f6572656420696e2074686520656c6563746f72616c2070726f63657373000000602082015250565b6000611958603d83611491565b9150611963826118fc565b604082019050919050565b600060208201905081810360008301526119878161194b565b9050919050565b7f434f440000000000000000000000000000000000000000000000000000000000815250565b600081905092915050565b60006119ca82611486565b6119d481856119b4565b93506119e48185602086016114a2565b80840191505092915050565b60006119fb8261198e565b600382019150611a0b82846119bf565b915081905092915050565b7f4e487b7100000000000000000000000000000000000000000000000000000000600052604160045260246000fd5b60008190508160005260206000209050919050565b60006020601f8301049050919050565b600082821b905092915050565b600060088302611aa77fffffffffffffffffffffffffffffffffffffffffffffffffffffffffffffffff82611a6a565b611ab18683611a6a565b95508019841693508086168417925050509392505050565b6000819050919050565b6000611aee611ae9611ae484611516565b611ac9565b611516565b9050919050565b6000819050919050565b611b0883611ad3565b611b1c611b1482611af5565b848454611a77565b825550505050565b600090565b611b31611b24565b611b3c818484611aff565b505050565b5b81811015611b6057611b55600082611b29565b600181019050611b42565b5050565b601f821115611ba557611b7681611a45565b611b7f84611a5a565b81016020851015611b8e578190505b611ba2611b9a85611a5a565b830182611b41565b50505b505050565b600082821c905092915050565b6000611bc860001984600802611baa565b1980831691505092915050565b6000611be18383611bb7565b9150826002028217905092915050565b611bfa82611486565b67ffffffffffffffff811115611c1357611c12611a16565b5b611c1d825461185f565b611c28828285611b64565b600060209050601f831160018114611c5b5760008415611c49578287015190505b611c538582611bd5565b865550611cbb565b601f198416611c6986611a45565b60005b82811015611c9157848901518255600182019150602085019450602081019050611c6c565b86831015611cae5784890151611caa601f891682611bb7565b8355505b6001600288020188555050505b505050505050565b7f6e6f7420656c696769626c6520746f20766f7465000000000000000000000000600082015250565b6000611cf9601483611491565b9150611d0482611cc3565b602082019050919050565b60006020820190508181036000830152611d2881611cec565b9050919050565b7f54686973206164647265737320686173206265656e2072656769737465726564600082015250565b6000611d65602083611491565b9150611d7082611d2f565b602082019050919050565b60006020820190508181036000830152611d9481611d58565b9050919050565b7f4e49470000000000000000000000000000000000000000000000000000000000815250565b6000611dcc82611d9b565b600382019150611ddc82846119bf565b915081905092915050565b7f4e487b7100000000000000000000000000000000000000000000000000000000600052601160045260246000fd5b6000611e2182611516565b9150611e2c83611516565b9250828201905080821115611e4457611e43611de7565b5b92915050565b82818337600083830152505050565b6000611e6583856119b4565b9350611e72838584611e4a565b82840190509392505050565b6000611e8b828486611e59565b91508190509392505050565b60008154611ea48161185f565b611eae81866119b4565b94506001821660008114611ec95760018114611ede57611f11565b60ff1983168652811515820286019350611f11565b611ee785611a45565b60005b83811015611f0957815481890152600182019150602081019050611eea565b838801955050505b50505092915050565b6000611f268284611e97565b915081905092915050565b7f4e487b7100000000000000000000000000000000000000000000000000000000600052601260045260246000fdfea264697066735822122047b701d9511c6f31f8874fc3776358881be4370b0d5a6163ae6e850908ebd73564736f6c63430008120033",
					"opcodes": "PUSH1 0x80 PUSH1 0x40 MSTORE CALLVALUE DUP1 ISZERO PUSH2 0x10 JUMPI PUSH1 0x0 DUP1 REVERT JUMPDEST POP CALLER PUSH1 0x1 PUSH1 0x0 PUSH2 0x100 EXP DUP2 SLOAD DUP2 PUSH20 0xFFFFFFFFFFFFFFFFFFFFFFFFFFFFFFFFFFFFFFFF MUL NOT AND SWAP1 DUP4 PUSH20 0xFFFFFFFFFFFFFFFFFFFFFFFFFFFFFFFFFFFFFFFF AND MUL OR SWAP1 SSTORE POP PUSH1 0x1 PUSH1 0x2 DUP2 SWAP1 SSTORE POP PUSH2 0x1F96 DUP1 PUSH2 0x69 PUSH1 0x0 CODECOPY PUSH1 0x0 RETURN INVALID PUSH1 0x80 PUSH1 0x40 MSTORE CALLVALUE DUP1 ISZERO PUSH2 0x10 JUMPI PUSH1 0x0 DUP1 REVERT JUMPDEST POP PUSH1 0x4 CALLDATASIZE LT PUSH2 0x93 JUMPI PUSH1 0x0 CALLDATALOAD PUSH1 0xE0 SHR DUP1 PUSH4 0xC0264D3A GT PUSH2 0x66 JUMPI DUP1 PUSH4 0xC0264D3A EQ PUSH2 0x13A JUMPI DUP1 PUSH4 0xCE606EE0 EQ PUSH2 0x16A JUMPI DUP1 PUSH4 0xCFA34208 EQ PUSH2 0x188 JUMPI DUP1 PUSH4 0xEF5B7CEB EQ PUSH2 0x1A6 JUMPI DUP1 PUSH4 0xFBBF93A0 EQ PUSH2 0x1D6 JUMPI PUSH2 0x93 JUMP JUMPDEST DUP1 PUSH4 0x7151ACE2 EQ PUSH2 0x98 JUMPI DUP1 PUSH4 0x8BC8D6FF EQ PUSH2 0xB6 JUMPI DUP1 PUSH4 0xA3EC138D EQ PUSH2 0xD2 JUMPI DUP1 PUSH4 0xA48AF096 EQ PUSH2 0x106 JUMPI JUMPDEST PUSH1 0x0 DUP1 REVERT JUMPDEST PUSH2 0xA0 PUSH2 0x1F4 JUMP JUMPDEST PUSH1 0x40 MLOAD PUSH2 0xAD SWAP2 SWAP1 PUSH2 0x1322 JUMP JUMPDEST PUSH1 0x40 MLOAD DUP1 SWAP2 SUB SWAP1 RETURN JUMPDEST PUSH2 0xD0 PUSH1 0x4 DUP1 CALLDATASIZE SUB DUP2 ADD SWAP1 PUSH2 0xCB SWAP2 SWAP1 PUSH2 0x13AC JUMP JUMPDEST PUSH2 0x218 JUMP JUMPDEST STOP JUMPDEST PUSH2 0xEC PUSH1 0x4 DUP1 CALLDATASIZE SUB DUP2 ADD SWAP1 PUSH2 0xE7 SWAP2 SWAP1 PUSH2 0x1459 JUMP JUMPDEST PUSH2 0x581 JUMP JUMPDEST PUSH1 0x40 MLOAD PUSH2 0xFD SWAP6 SWAP5 SWAP4 SWAP3 SWAP2 SWAP1 PUSH2 0x154A JUMP JUMPDEST PUSH1 0x40 MLOAD DUP1 SWAP2 SUB SWAP1 RETURN JUMPDEST PUSH2 0x120 PUSH1 0x4 DUP1 CALLDATASIZE SUB DUP2 ADD SWAP1 PUSH2 0x11B SWAP2 SWAP1 PUSH2 0x1459 JUMP JUMPDEST PUSH2 0x6F4 JUMP JUMPDEST PUSH1 0x40 MLOAD PUSH2 0x131 SWAP6 SWAP5 SWAP4 SWAP3 SWAP2 SWAP1 PUSH2 0x15AB JUMP JUMPDEST PUSH1 0x40 MLOAD DUP1 SWAP2 SUB SWAP1 RETURN JUMPDEST PUSH2 0x154 PUSH1 0x4 DUP1 CALLDATASIZE SUB DUP2 ADD SWAP1 PUSH2 0x14F SWAP2 SWAP1 PUSH2 0x163F JUMP JUMPDEST PUSH2 0x8EF JUMP JUMPDEST PUSH1 0x40 MLOAD PUSH2 0x161 SWAP2 SWAP1 PUSH2 0x1793 JUMP JUMPDEST PUSH1 0x40 MLOAD DUP1 SWAP2 SUB SWAP1 RETURN JUMPDEST PUSH2 0x172 PUSH2 0xD69 JUMP JUMPDEST PUSH1 0x40 MLOAD PUSH2 0x17F SWAP2 SWAP1 PUSH2 0x1322 JUMP JUMPDEST PUSH1 0x40 MLOAD DUP1 SWAP2 SUB SWAP1 RETURN JUMPDEST PUSH2 0x190 PUSH2 0xD8F JUMP JUMPDEST PUSH1 0x40 MLOAD PUSH2 0x19D SWAP2 SWAP1 PUSH2 0x17B5 JUMP JUMPDEST PUSH1 0x40 MLOAD DUP1 SWAP2 SUB SWAP1 RETURN JUMPDEST PUSH2 0x1C0 PUSH1 0x4 DUP1 CALLDATASIZE SUB DUP2 ADD SWAP1 PUSH2 0x1BB SWAP2 SWAP1 PUSH2 0x17D0 JUMP JUMPDEST PUSH2 0xDE6 JUMP JUMPDEST PUSH1 0x40 MLOAD PUSH2 0x1CD SWAP2 SWAP1 PUSH2 0x17B5 JUMP JUMPDEST PUSH1 0x40 MLOAD DUP1 SWAP2 SUB SWAP1 RETURN JUMPDEST PUSH2 0x1DE PUSH2 0xE83 JUMP JUMPDEST PUSH1 0x40 MLOAD PUSH2 0x1EB SWAP2 SWAP1 PUSH2 0x1793 JUMP JUMPDEST PUSH1 0x40 MLOAD DUP1 SWAP2 SUB SWAP1 RETURN JUMPDEST PUSH1 0x0 DUP1 SLOAD SWAP1 PUSH2 0x100 EXP SWAP1 DIV PUSH20 0xFFFFFFFFFFFFFFFFFFFFFFFFFFFFFFFFFFFFFFFF AND DUP2 JUMP JUMPDEST PUSH1 0x0 PUSH1 0x4 PUSH1 0x0 CALLER PUSH20 0xFFFFFFFFFFFFFFFFFFFFFFFFFFFFFFFFFFFFFFFF AND PUSH20 0xFFFFFFFFFFFFFFFFFFFFFFFFFFFFFFFFFFFFFFFF AND DUP2 MSTORE PUSH1 0x20 ADD SWAP1 DUP2 MSTORE PUSH1 0x20 ADD PUSH1 0x0 KECCAK256 PUSH1 0x1 ADD DUP1 SLOAD PUSH2 0x267 SWAP1 PUSH2 0x185F JUMP JUMPDEST SWAP1 POP EQ PUSH2 0x2A9 JUMPI PUSH1 0x40 MLOAD PUSH32 0x8C379A000000000000000000000000000000000000000000000000000000000 DUP2 MSTORE PUSH1 0x4 ADD PUSH2 0x2A0 SWAP1 PUSH2 0x18DC JUMP JUMPDEST PUSH1 0x40 MLOAD DUP1 SWAP2 SUB SWAP1 REVERT JUMPDEST PUSH1 0x0 PUSH1 0x3 PUSH1 0x0 CALLER PUSH20 0xFFFFFFFFFFFFFFFFFFFFFFFFFFFFFFFFFFFFFFFF AND PUSH20 0xFFFFFFFFFFFFFFFFFFFFFFFFFFFFFFFFFFFFFFFF AND DUP2 MSTORE PUSH1 0x20 ADD SWAP1 DUP2 MSTORE PUSH1 0x20 ADD PUSH1 0x0 KECCAK256 PUSH1 0x2 ADD DUP1 SLOAD PUSH2 0x2F8 SWAP1 PUSH2 0x185F JUMP JUMPDEST SWAP1 POP SUB PUSH2 0x33A JUMPI PUSH1 0x40 MLOAD PUSH32 0x8C379A000000000000000000000000000000000000000000000000000000000 DUP2 MSTORE PUSH1 0x4 ADD PUSH2 0x331 SWAP1 PUSH2 0x196E JUMP JUMPDEST PUSH1 0x40 MLOAD DUP1 SWAP2 SUB SWAP1 REVERT JUMPDEST PUSH1 0x0 PUSH2 0x347 PUSH1 0x2 SLOAD PUSH2 0x1079 JUMP JUMPDEST PUSH1 0x40 MLOAD PUSH1 0x20 ADD PUSH2 0x357 SWAP2 SWAP1 PUSH2 0x19F0 JUMP JUMPDEST PUSH1 0x40 MLOAD PUSH1 0x20 DUP2 DUP4 SUB SUB DUP2 MSTORE SWAP1 PUSH1 0x40 MSTORE SWAP1 POP PUSH1 0x40 MLOAD DUP1 PUSH1 0x20 ADD PUSH1 0x40 MSTORE DUP1 PUSH1 0x0 DUP2 MSTORE POP PUSH1 0x3 PUSH1 0x0 CALLER PUSH20 0xFFFFFFFFFFFFFFFFFFFFFFFFFFFFFFFFFFFFFFFF AND PUSH20 0xFFFFFFFFFFFFFFFFFFFFFFFFFFFFFFFFFFFFFFFF AND DUP2 MSTORE PUSH1 0x20 ADD SWAP1 DUP2 MSTORE PUSH1 0x20 ADD PUSH1 0x0 KECCAK256 PUSH1 0x2 ADD SWAP1 DUP2 PUSH2 0x3C6 SWAP2 SWAP1 PUSH2 0x1BF1 JUMP JUMPDEST POP PUSH1 0x40 MLOAD DUP1 PUSH1 0xA0 ADD PUSH1 0x40 MSTORE DUP1 DUP7 DUP7 DUP1 DUP1 PUSH1 0x1F ADD PUSH1 0x20 DUP1 SWAP2 DIV MUL PUSH1 0x20 ADD PUSH1 0x40 MLOAD SWAP1 DUP2 ADD PUSH1 0x40 MSTORE DUP1 SWAP4 SWAP3 SWAP2 SWAP1 DUP2 DUP2 MSTORE PUSH1 0x20 ADD DUP4 DUP4 DUP1 DUP3 DUP5 CALLDATACOPY PUSH1 0x0 DUP2 DUP5 ADD MSTORE PUSH1 0x1F NOT PUSH1 0x1F DUP3 ADD AND SWAP1 POP DUP1 DUP4 ADD SWAP3 POP POP POP POP POP POP POP DUP2 MSTORE PUSH1 0x20 ADD DUP3 DUP2 MSTORE PUSH1 0x20 ADD DUP5 DUP5 DUP1 DUP1 PUSH1 0x1F ADD PUSH1 0x20 DUP1 SWAP2 DIV MUL PUSH1 0x20 ADD PUSH1 0x40 MLOAD SWAP1 DUP2 ADD PUSH1 0x40 MSTORE DUP1 SWAP4 SWAP3 SWAP2 SWAP1 DUP2 DUP2 MSTORE PUSH1 0x20 ADD DUP4 DUP4 DUP1 DUP3 DUP5 CALLDATACOPY PUSH1 0x0 DUP2 DUP5 ADD MSTORE PUSH1 0x1F NOT PUSH1 0x1F DUP3 ADD AND SWAP1 POP DUP1 DUP4 ADD SWAP3 POP POP POP POP POP POP POP DUP2 MSTORE PUSH1 0x20 ADD PUSH1 0x0 ISZERO ISZERO DUP2 MSTORE PUSH1 0x20 ADD CALLER PUSH20 0xFFFFFFFFFFFFFFFFFFFFFFFFFFFFFFFFFFFFFFFF AND DUP2 MSTORE POP PUSH1 0x4 PUSH1 0x0 CALLER PUSH20 0xFFFFFFFFFFFFFFFFFFFFFFFFFFFFFFFFFFFFFFFF AND PUSH20 0xFFFFFFFFFFFFFFFFFFFFFFFFFFFFFFFFFFFFFFFF AND DUP2 MSTORE PUSH1 0x20 ADD SWAP1 DUP2 MSTORE PUSH1 0x20 ADD PUSH1 0x0 KECCAK256 PUSH1 0x0 DUP3 ADD MLOAD DUP2 PUSH1 0x0 ADD SWAP1 DUP2 PUSH2 0x4E3 SWAP2 SWAP1 PUSH2 0x1BF1 JUMP JUMPDEST POP PUSH1 0x20 DUP3 ADD MLOAD DUP2 PUSH1 0x1 ADD SWAP1 DUP2 PUSH2 0x4F9 SWAP2 SWAP1 PUSH2 0x1BF1 JUMP JUMPDEST POP PUSH1 0x40 DUP3 ADD MLOAD DUP2 PUSH1 0x2 ADD SWAP1 DUP2 PUSH2 0x50F SWAP2 SWAP1 PUSH2 0x1BF1 JUMP JUMPDEST POP PUSH1 0x60 DUP3 ADD MLOAD DUP2 PUSH1 0x3 ADD PUSH1 0x0 PUSH2 0x100 EXP DUP2 SLOAD DUP2 PUSH1 0xFF MUL NOT AND SWAP1 DUP4 ISZERO ISZERO MUL OR SWAP1 SSTORE POP PUSH1 0x80 DUP3 ADD MLOAD DUP2 PUSH1 0x3 ADD PUSH1 0x1 PUSH2 0x100 EXP DUP2 SLOAD DUP2 PUSH20 0xFFFFFFFFFFFFFFFFFFFFFFFFFFFFFFFFFFFFFFFF MUL NOT AND SWAP1 DUP4 PUSH20 0xFFFFFFFFFFFFFFFFFFFFFFFFFFFFFFFFFFFFFFFF AND MUL OR SWAP1 SSTORE POP SWAP1 POP POP POP POP POP POP POP JUMP JUMPDEST PUSH1 0x3 PUSH1 0x20 MSTORE DUP1 PUSH1 0x0 MSTORE PUSH1 0x40 PUSH1 0x0 KECCAK256 PUSH1 0x0 SWAP2 POP SWAP1 POP DUP1 PUSH1 0x0 ADD DUP1 SLOAD PUSH2 0x5A4 SWAP1 PUSH2 0x185F JUMP JUMPDEST DUP1 PUSH1 0x1F ADD PUSH1 0x20 DUP1 SWAP2 DIV MUL PUSH1 0x20 ADD PUSH1 0x40 MLOAD SWAP1 DUP2 ADD PUSH1 0x40 MSTORE DUP1 SWAP3 SWAP2 SWAP1 DUP2 DUP2 MSTORE PUSH1 0x20 ADD DUP3 DUP1 SLOAD PUSH2 0x5D0 SWAP1 PUSH2 0x185F JUMP JUMPDEST DUP1 ISZERO PUSH2 0x61D JUMPI DUP1 PUSH1 0x1F LT PUSH2 0x5F2 JUMPI PUSH2 0x100 DUP1 DUP4 SLOAD DIV MUL DUP4 MSTORE SWAP2 PUSH1 0x20 ADD SWAP2 PUSH2 0x61D JUMP JUMPDEST DUP3 ADD SWAP2 SWAP1 PUSH1 0x0 MSTORE PUSH1 0x20 PUSH1 0x0 KECCAK256 SWAP1 JUMPDEST DUP2 SLOAD DUP2 MSTORE SWAP1 PUSH1 0x1 ADD SWAP1 PUSH1 0x20 ADD DUP1 DUP4 GT PUSH2 0x600 JUMPI DUP3 SWAP1 SUB PUSH1 0x1F AND DUP3 ADD SWAP2 JUMPDEST POP POP POP POP POP SWAP1 DUP1 PUSH1 0x1 ADD SLOAD SWAP1 DUP1 PUSH1 0x2 ADD DUP1 SLOAD PUSH2 0x638 SWAP1 PUSH2 0x185F JUMP JUMPDEST DUP1 PUSH1 0x1F ADD PUSH1 0x20 DUP1 SWAP2 DIV MUL PUSH1 0x20 ADD PUSH1 0x40 MLOAD SWAP1 DUP2 ADD PUSH1 0x40 MSTORE DUP1 SWAP3 SWAP2 SWAP1 DUP2 DUP2 MSTORE PUSH1 0x20 ADD DUP3 DUP1 SLOAD PUSH2 0x664 SWAP1 PUSH2 0x185F JUMP JUMPDEST DUP1 ISZERO PUSH2 0x6B1 JUMPI DUP1 PUSH1 0x1F LT PUSH2 0x686 JUMPI PUSH2 0x100 DUP1 DUP4 SLOAD DIV MUL DUP4 MSTORE SWAP2 PUSH1 0x20 ADD SWAP2 PUSH2 0x6B1 JUMP JUMPDEST DUP3 ADD SWAP2 SWAP1 PUSH1 0x0 MSTORE PUSH1 0x20 PUSH1 0x0 KECCAK256 SWAP1 JUMPDEST DUP2 SLOAD DUP2 MSTORE SWAP1 PUSH1 0x1 ADD SWAP1 PUSH1 0x20 ADD DUP1 DUP4 GT PUSH2 0x694 JUMPI DUP3 SWAP1 SUB PUSH1 0x1F AND DUP3 ADD SWAP2 JUMPDEST POP POP POP POP POP SWAP1 DUP1 PUSH1 0x3 ADD PUSH1 0x0 SWAP1 SLOAD SWAP1 PUSH2 0x100 EXP SWAP1 DIV PUSH1 0xFF AND SWAP1 DUP1 PUSH1 0x3 ADD PUSH1 0x1 SWAP1 SLOAD SWAP1 PUSH2 0x100 EXP SWAP1 DIV PUSH20 0xFFFFFFFFFFFFFFFFFFFFFFFFFFFFFFFFFFFFFFFF AND SWAP1 POP DUP6 JUMP JUMPDEST PUSH1 0x4 PUSH1 0x20 MSTORE DUP1 PUSH1 0x0 MSTORE PUSH1 0x40 PUSH1 0x0 KECCAK256 PUSH1 0x0 SWAP2 POP SWAP1 POP DUP1 PUSH1 0x0 ADD DUP1 SLOAD PUSH2 0x717 SWAP1 PUSH2 0x185F JUMP JUMPDEST DUP1 PUSH1 0x1F ADD PUSH1 0x20 DUP1 SWAP2 DIV MUL PUSH1 0x20 ADD PUSH1 0x40 MLOAD SWAP1 DUP2 ADD PUSH1 0x40 MSTORE DUP1 SWAP3 SWAP2 SWAP1 DUP2 DUP2 MSTORE PUSH1 0x20 ADD DUP3 DUP1 SLOAD PUSH2 0x743 SWAP1 PUSH2 0x185F JUMP JUMPDEST DUP1 ISZERO PUSH2 0x790 JUMPI DUP1 PUSH1 0x1F LT PUSH2 0x765 JUMPI PUSH2 0x100 DUP1 DUP4 SLOAD DIV MUL DUP4 MSTORE SWAP2 PUSH1 0x20 ADD SWAP2 PUSH2 0x790 JUMP JUMPDEST DUP3 ADD SWAP2 SWAP1 PUSH1 0x0 MSTORE PUSH1 0x20 PUSH1 0x0 KECCAK256 SWAP1 JUMPDEST DUP2 SLOAD DUP2 MSTORE SWAP1 PUSH1 0x1 ADD SWAP1 PUSH1 0x20 ADD DUP1 DUP4 GT PUSH2 0x773 JUMPI DUP3 SWAP1 SUB PUSH1 0x1F AND DUP3 ADD SWAP2 JUMPDEST POP POP POP POP POP SWAP1 DUP1 PUSH1 0x1 ADD DUP1 SLOAD PUSH2 0x7A5 SWAP1 PUSH2 0x185F JUMP JUMPDEST DUP1 PUSH1 0x1F ADD PUSH1 0x20 DUP1 SWAP2 DIV MUL PUSH1 0x20 ADD PUSH1 0x40 MLOAD SWAP1 DUP2 ADD PUSH1 0x40 MSTORE DUP1 SWAP3 SWAP2 SWAP1 DUP2 DUP2 MSTORE PUSH1 0x20 ADD DUP3 DUP1 SLOAD PUSH2 0x7D1 SWAP1 PUSH2 0x185F JUMP JUMPDEST DUP1 ISZERO PUSH2 0x81E JUMPI DUP1 PUSH1 0x1F LT PUSH2 0x7F3 JUMPI PUSH2 0x100 DUP1 DUP4 SLOAD DIV MUL DUP4 MSTORE SWAP2 PUSH1 0x20 ADD SWAP2 PUSH2 0x81E JUMP JUMPDEST DUP3 ADD SWAP2 SWAP1 PUSH1 0x0 MSTORE PUSH1 0x20 PUSH1 0x0 KECCAK256 SWAP1 JUMPDEST DUP2 SLOAD DUP2 MSTORE SWAP1 PUSH1 0x1 ADD SWAP1 PUSH1 0x20 ADD DUP1 DUP4 GT PUSH2 0x801 JUMPI DUP3 SWAP1 SUB PUSH1 0x1F AND DUP3 ADD SWAP2 JUMPDEST POP POP POP POP POP SWAP1 DUP1 PUSH1 0x2 ADD DUP1 SLOAD PUSH2 0x833 SWAP1 PUSH2 0x185F JUMP JUMPDEST DUP1 PUSH1 0x1F ADD PUSH1 0x20 DUP1 SWAP2 DIV MUL PUSH1 0x20 ADD PUSH1 0x40 MLOAD SWAP1 DUP2 ADD PUSH1 0x40 MSTORE DUP1 SWAP3 SWAP2 SWAP1 DUP2 DUP2 MSTORE PUSH1 0x20 ADD DUP3 DUP1 SLOAD PUSH2 0x85F SWAP1 PUSH2 0x185F JUMP JUMPDEST DUP1 ISZERO PUSH2 0x8AC JUMPI DUP1 PUSH1 0x1F LT PUSH2 0x881 JUMPI PUSH2 0x100 DUP1 DUP4 SLOAD DIV MUL DUP4 MSTORE SWAP2 PUSH1 0x20 ADD SWAP2 PUSH2 0x8AC JUMP JUMPDEST DUP3 ADD SWAP2 SWAP1 PUSH1 0x0 MSTORE PUSH1 0x20 PUSH1 0x0 KECCAK256 SWAP1 JUMPDEST DUP2 SLOAD DUP2 MSTORE SWAP1 PUSH1 0x1 ADD SWAP1 PUSH1 0x20 ADD DUP1 DUP4 GT PUSH2 0x88F JUMPI DUP3 SWAP1 SUB PUSH1 0x1F AND DUP3 ADD SWAP2 JUMPDEST POP POP POP POP POP SWAP1 DUP1 PUSH1 0x3 ADD PUSH1 0x0 SWAP1 SLOAD SWAP1 PUSH2 0x100 EXP SWAP1 DIV PUSH1 0xFF AND SWAP1 DUP1 PUSH1 0x3 ADD PUSH1 0x1 SWAP1 SLOAD SWAP1 PUSH2 0x100 EXP SWAP1 DIV PUSH20 0xFFFFFFFFFFFFFFFFFFFFFFFFFFFFFFFFFFFFFFFF AND SWAP1 POP DUP6 JUMP JUMPDEST PUSH2 0x8F7 PUSH2 0x129A JUMP JUMPDEST PUSH1 0x11 DUP3 GT PUSH2 0x93A JUMPI PUSH1 0x40 MLOAD PUSH32 0x8C379A000000000000000000000000000000000000000000000000000000000 DUP2 MSTORE PUSH1 0x4 ADD PUSH2 0x931 SWAP1 PUSH2 0x1D0F JUMP JUMPDEST PUSH1 0x40 MLOAD DUP1 SWAP2 SUB SWAP1 REVERT JUMPDEST PUSH1 0x0 PUSH1 0x3 PUSH1 0x0 CALLER PUSH20 0xFFFFFFFFFFFFFFFFFFFFFFFFFFFFFFFFFFFFFFFF AND PUSH20 0xFFFFFFFFFFFFFFFFFFFFFFFFFFFFFFFFFFFFFFFF AND DUP2 MSTORE PUSH1 0x20 ADD SWAP1 DUP2 MSTORE PUSH1 0x20 ADD PUSH1 0x0 KECCAK256 PUSH1 0x2 ADD DUP1 SLOAD PUSH2 0x989 SWAP1 PUSH2 0x185F JUMP JUMPDEST SWAP1 POP EQ PUSH2 0x9CB JUMPI PUSH1 0x40 MLOAD PUSH32 0x8C379A000000000000000000000000000000000000000000000000000000000 DUP2 MSTORE PUSH1 0x4 ADD PUSH2 0x9C2 SWAP1 PUSH2 0x1D7B JUMP JUMPDEST PUSH1 0x40 MLOAD DUP1 SWAP2 SUB SWAP1 REVERT JUMPDEST PUSH1 0x0 PUSH2 0x9D8 PUSH1 0x2 SLOAD PUSH2 0x1079 JUMP JUMPDEST PUSH1 0x40 MLOAD PUSH1 0x20 ADD PUSH2 0x9E8 SWAP2 SWAP1 PUSH2 0x1DC1 JUMP JUMPDEST PUSH1 0x40 MLOAD PUSH1 0x20 DUP2 DUP4 SUB SUB DUP2 MSTORE SWAP1 PUSH1 0x40 MSTORE SWAP1 POP PUSH1 0x40 MLOAD DUP1 PUSH1 0xA0 ADD PUSH1 0x40 MSTORE DUP1 DUP7 DUP7 DUP1 DUP1 PUSH1 0x1F ADD PUSH1 0x20 DUP1 SWAP2 DIV MUL PUSH1 0x20 ADD PUSH1 0x40 MLOAD SWAP1 DUP2 ADD PUSH1 0x40 MSTORE DUP1 SWAP4 SWAP3 SWAP2 SWAP1 DUP2 DUP2 MSTORE PUSH1 0x20 ADD DUP4 DUP4 DUP1 DUP3 DUP5 CALLDATACOPY PUSH1 0x0 DUP2 DUP5 ADD MSTORE PUSH1 0x1F NOT PUSH1 0x1F DUP3 ADD AND SWAP1 POP DUP1 DUP4 ADD SWAP3 POP POP POP POP POP POP POP DUP2 MSTORE PUSH1 0x20 ADD DUP5 DUP2 MSTORE PUSH1 0x20 ADD DUP3 DUP2 MSTORE PUSH1 0x20 ADD PUSH1 0x0 ISZERO ISZERO DUP2 MSTORE PUSH1 0x20 ADD CALLER PUSH20 0xFFFFFFFFFFFFFFFFFFFFFFFFFFFFFFFFFFFFFFFF AND DUP2 MSTORE POP PUSH1 0x3 PUSH1 0x0 CALLER PUSH20 0xFFFFFFFFFFFFFFFFFFFFFFFFFFFFFFFFFFFFFFFF AND PUSH20 0xFFFFFFFFFFFFFFFFFFFFFFFFFFFFFFFFFFFFFFFF AND DUP2 MSTORE PUSH1 0x20 ADD SWAP1 DUP2 MSTORE PUSH1 0x20 ADD PUSH1 0x0 KECCAK256 PUSH1 0x0 DUP3 ADD MLOAD DUP2 PUSH1 0x0 ADD SWAP1 DUP2 PUSH2 0xAD1 SWAP2 SWAP1 PUSH2 0x1BF1 JUMP JUMPDEST POP PUSH1 0x20 DUP3 ADD MLOAD DUP2 PUSH1 0x1 ADD SSTORE PUSH1 0x40 DUP3 ADD MLOAD DUP2 PUSH1 0x2 ADD SWAP1 DUP2 PUSH2 0xAF1 SWAP2 SWAP1 PUSH2 0x1BF1 JUMP JUMPDEST POP PUSH1 0x60 DUP3 ADD MLOAD DUP2 PUSH1 0x3 ADD PUSH1 0x0 PUSH2 0x100 EXP DUP2 SLOAD DUP2 PUSH1 0xFF MUL NOT AND SWAP1 DUP4 ISZERO ISZERO MUL OR SWAP1 SSTORE POP PUSH1 0x80 DUP3 ADD MLOAD DUP2 PUSH1 0x3 ADD PUSH1 0x1 PUSH2 0x100 EXP DUP2 SLOAD DUP2 PUSH20 0xFFFFFFFFFFFFFFFFFFFFFFFFFFFFFFFFFFFFFFFF MUL NOT AND SWAP1 DUP4 PUSH20 0xFFFFFFFFFFFFFFFFFFFFFFFFFFFFFFFFFFFFFFFF AND MUL OR SWAP1 SSTORE POP SWAP1 POP POP PUSH1 0x1 PUSH1 0x2 PUSH1 0x0 DUP3 DUP3 SLOAD PUSH2 0xB6F SWAP2 SWAP1 PUSH2 0x1E16 JUMP JUMPDEST SWAP3 POP POP DUP2 SWAP1 SSTORE POP PUSH1 0x3 PUSH1 0x0 CALLER PUSH20 0xFFFFFFFFFFFFFFFFFFFFFFFFFFFFFFFFFFFFFFFF AND PUSH20 0xFFFFFFFFFFFFFFFFFFFFFFFFFFFFFFFFFFFFFFFF AND DUP2 MSTORE PUSH1 0x20 ADD SWAP1 DUP2 MSTORE PUSH1 0x20 ADD PUSH1 0x0 KECCAK256 PUSH1 0x40 MLOAD DUP1 PUSH1 0xA0 ADD PUSH1 0x40 MSTORE SWAP1 DUP2 PUSH1 0x0 DUP3 ADD DUP1 SLOAD PUSH2 0xBD0 SWAP1 PUSH2 0x185F JUMP JUMPDEST DUP1 PUSH1 0x1F ADD PUSH1 0x20 DUP1 SWAP2 DIV MUL PUSH1 0x20 ADD PUSH1 0x40 MLOAD SWAP1 DUP2 ADD PUSH1 0x40 MSTORE DUP1 SWAP3 SWAP2 SWAP1 DUP2 DUP2 MSTORE PUSH1 0x20 ADD DUP3 DUP1 SLOAD PUSH2 0xBFC SWAP1 PUSH2 0x185F JUMP JUMPDEST DUP1 ISZERO PUSH2 0xC49 JUMPI DUP1 PUSH1 0x1F LT PUSH2 0xC1E JUMPI PUSH2 0x100 DUP1 DUP4 SLOAD DIV MUL DUP4 MSTORE SWAP2 PUSH1 0x20 ADD SWAP2 PUSH2 0xC49 JUMP JUMPDEST DUP3 ADD SWAP2 SWAP1 PUSH1 0x0 MSTORE PUSH1 0x20 PUSH1 0x0 KECCAK256 SWAP1 JUMPDEST DUP2 SLOAD DUP2 MSTORE SWAP1 PUSH1 0x1 ADD SWAP1 PUSH1 0x20 ADD DUP1 DUP4 GT PUSH2 0xC2C JUMPI DUP3 SWAP1 SUB PUSH1 0x1F AND DUP3 ADD SWAP2 JUMPDEST POP POP POP POP POP DUP2 MSTORE PUSH1 0x20 ADD PUSH1 0x1 DUP3 ADD SLOAD DUP2 MSTORE PUSH1 0x20 ADD PUSH1 0x2 DUP3 ADD DUP1 SLOAD PUSH2 0xC6C SWAP1 PUSH2 0x185F JUMP JUMPDEST DUP1 PUSH1 0x1F ADD PUSH1 0x20 DUP1 SWAP2 DIV MUL PUSH1 0x20 ADD PUSH1 0x40 MLOAD SWAP1 DUP2 ADD PUSH1 0x40 MSTORE DUP1 SWAP3 SWAP2 SWAP1 DUP2 DUP2 MSTORE PUSH1 0x20 ADD DUP3 DUP1 SLOAD PUSH2 0xC98 SWAP1 PUSH2 0x185F JUMP JUMPDEST DUP1 ISZERO PUSH2 0xCE5 JUMPI DUP1 PUSH1 0x1F LT PUSH2 0xCBA JUMPI PUSH2 0x100 DUP1 DUP4 SLOAD DIV MUL DUP4 MSTORE SWAP2 PUSH1 0x20 ADD SWAP2 PUSH2 0xCE5 JUMP JUMPDEST DUP3 ADD SWAP2 SWAP1 PUSH1 0x0 MSTORE PUSH1 0x20 PUSH1 0x0 KECCAK256 SWAP1 JUMPDEST DUP2 SLOAD DUP2 MSTORE SWAP1 PUSH1 0x1 ADD SWAP1 PUSH1 0x20 ADD DUP1 DUP4 GT PUSH2 0xCC8 JUMPI DUP3 SWAP1 SUB PUSH1 0x1F AND DUP3 ADD SWAP2 JUMPDEST POP POP POP POP POP DUP2 MSTORE PUSH1 0x20 ADD PUSH1 0x3 DUP3 ADD PUSH1 0x0 SWAP1 SLOAD SWAP1 PUSH2 0x100 EXP SWAP1 DIV PUSH1 0xFF AND ISZERO ISZERO ISZERO ISZERO DUP2 MSTORE PUSH1 0x20 ADD PUSH1 0x3 DUP3 ADD PUSH1 0x1 SWAP1 SLOAD SWAP1 PUSH2 0x100 EXP SWAP1 DIV PUSH20 0xFFFFFFFFFFFFFFFFFFFFFFFFFFFFFFFFFFFFFFFF AND PUSH20 0xFFFFFFFFFFFFFFFFFFFFFFFFFFFFFFFFFFFFFFFF AND PUSH20 0xFFFFFFFFFFFFFFFFFFFFFFFFFFFFFFFFFFFFFFFF AND DUP2 MSTORE POP POP SWAP2 POP POP SWAP4 SWAP3 POP POP POP JUMP JUMPDEST PUSH1 0x1 PUSH1 0x0 SWAP1 SLOAD SWAP1 PUSH2 0x100 EXP SWAP1 DIV PUSH20 0xFFFFFFFFFFFFFFFFFFFFFFFFFFFFFFFFFFFFFFFF AND DUP2 JUMP JUMPDEST PUSH1 0x0 PUSH1 0x3 PUSH1 0x0 CALLER PUSH20 0xFFFFFFFFFFFFFFFFFFFFFFFFFFFFFFFFFFFFFFFF AND PUSH20 0xFFFFFFFFFFFFFFFFFFFFFFFFFFFFFFFFFFFFFFFF AND DUP2 MSTORE PUSH1 0x20 ADD SWAP1 DUP2 MSTORE PUSH1 0x20 ADD PUSH1 0x0 KECCAK256 PUSH1 0x3 ADD PUSH1 0x0 SWAP1 SLOAD SWAP1 PUSH2 0x100 EXP SWAP1 DIV PUSH1 0xFF AND SWAP1 POP SWAP1 JUMP JUMPDEST PUSH1 0x0 DUP4 DUP4 PUSH1 0x40 MLOAD PUSH1 0x20 ADD PUSH2 0xDFB SWAP3 SWAP2 SWAP1 PUSH2 0x1E7E JUMP JUMPDEST PUSH1 0x40 MLOAD PUSH1 0x20 DUP2 DUP4 SUB SUB DUP2 MSTORE SWAP1 PUSH1 0x40 MSTORE DUP1 MLOAD SWAP1 PUSH1 0x20 ADD KECCAK256 PUSH1 0x4 PUSH1 0x0 DUP5 PUSH20 0xFFFFFFFFFFFFFFFFFFFFFFFFFFFFFFFFFFFFFFFF AND PUSH20 0xFFFFFFFFFFFFFFFFFFFFFFFFFFFFFFFFFFFFFFFF AND DUP2 MSTORE PUSH1 0x20 ADD SWAP1 DUP2 MSTORE PUSH1 0x20 ADD PUSH1 0x0 KECCAK256 PUSH1 0x2 ADD PUSH1 0x40 MLOAD PUSH1 0x20 ADD PUSH2 0xE63 SWAP2 SWAP1 PUSH2 0x1F1A JUMP JUMPDEST PUSH1 0x40 MLOAD PUSH1 0x20 DUP2 DUP4 SUB SUB DUP2 MSTORE SWAP1 PUSH1 0x40 MSTORE DUP1 MLOAD SWAP1 PUSH1 0x20 ADD KECCAK256 EQ SWAP1 POP SWAP4 SWAP3 POP POP POP JUMP JUMPDEST PUSH2 0xE8B PUSH2 0x129A JUMP JUMPDEST PUSH1 0x3 PUSH1 0x0 CALLER PUSH20 0xFFFFFFFFFFFFFFFFFFFFFFFFFFFFFFFFFFFFFFFF AND PUSH20 0xFFFFFFFFFFFFFFFFFFFFFFFFFFFFFFFFFFFFFFFF AND DUP2 MSTORE PUSH1 0x20 ADD SWAP1 DUP2 MSTORE PUSH1 0x20 ADD PUSH1 0x0 KECCAK256 PUSH1 0x40 MLOAD DUP1 PUSH1 0xA0 ADD PUSH1 0x40 MSTORE SWAP1 DUP2 PUSH1 0x0 DUP3 ADD DUP1 SLOAD PUSH2 0xEE5 SWAP1 PUSH2 0x185F JUMP JUMPDEST DUP1 PUSH1 0x1F ADD PUSH1 0x20 DUP1 SWAP2 DIV MUL PUSH1 0x20 ADD PUSH1 0x40 MLOAD SWAP1 DUP2 ADD PUSH1 0x40 MSTORE DUP1 SWAP3 SWAP2 SWAP1 DUP2 DUP2 MSTORE PUSH1 0x20 ADD DUP3 DUP1 SLOAD PUSH2 0xF11 SWAP1 PUSH2 0x185F JUMP JUMPDEST DUP1 ISZERO PUSH2 0xF5E JUMPI DUP1 PUSH1 0x1F LT PUSH2 0xF33 JUMPI PUSH2 0x100 DUP1 DUP4 SLOAD DIV MUL DUP4 MSTORE SWAP2 PUSH1 0x20 ADD SWAP2 PUSH2 0xF5E JUMP JUMPDEST DUP3 ADD SWAP2 SWAP1 PUSH1 0x0 MSTORE PUSH1 0x20 PUSH1 0x0 KECCAK256 SWAP1 JUMPDEST DUP2 SLOAD DUP2 MSTORE SWAP1 PUSH1 0x1 ADD SWAP1 PUSH1 0x20 ADD DUP1 DUP4 GT PUSH2 0xF41 JUMPI DUP3 SWAP1 SUB PUSH1 0x1F AND DUP3 ADD SWAP2 JUMPDEST POP POP POP POP POP DUP2 MSTORE PUSH1 0x20 ADD PUSH1 0x1 DUP3 ADD SLOAD DUP2 MSTORE PUSH1 0x20 ADD PUSH1 0x2 DUP3 ADD DUP1 SLOAD PUSH2 0xF81 SWAP1 PUSH2 0x185F JUMP JUMPDEST DUP1 PUSH1 0x1F ADD PUSH1 0x20 DUP1 SWAP2 DIV MUL PUSH1 0x20 ADD PUSH1 0x40 MLOAD SWAP1 DUP2 ADD PUSH1 0x40 MSTORE DUP1 SWAP3 SWAP2 SWAP1 DUP2 DUP2 MSTORE PUSH1 0x20 ADD DUP3 DUP1 SLOAD PUSH2 0xFAD SWAP1 PUSH2 0x185F JUMP JUMPDEST DUP1 ISZERO PUSH2 0xFFA JUMPI DUP1 PUSH1 0x1F LT PUSH2 0xFCF JUMPI PUSH2 0x100 DUP1 DUP4 SLOAD DIV MUL DUP4 MSTORE SWAP2 PUSH1 0x20 ADD SWAP2 PUSH2 0xFFA JUMP JUMPDEST DUP3 ADD SWAP2 SWAP1 PUSH1 0x0 MSTORE PUSH1 0x20 PUSH1 0x0 KECCAK256 SWAP1 JUMPDEST DUP2 SLOAD DUP2 MSTORE SWAP1 PUSH1 0x1 ADD SWAP1 PUSH1 0x20 ADD DUP1 DUP4 GT PUSH2 0xFDD JUMPI DUP3 SWAP1 SUB PUSH1 0x1F AND DUP3 ADD SWAP2 JUMPDEST POP POP POP POP POP DUP2 MSTORE PUSH1 0x20 ADD PUSH1 0x3 DUP3 ADD PUSH1 0x0 SWAP1 SLOAD SWAP1 PUSH2 0x100 EXP SWAP1 DIV PUSH1 0xFF AND ISZERO ISZERO ISZERO ISZERO DUP2 MSTORE PUSH1 0x20 ADD PUSH1 0x3 DUP3 ADD PUSH1 0x1 SWAP1 SLOAD SWAP1 PUSH2 0x100 EXP SWAP1 DIV PUSH20 0xFFFFFFFFFFFFFFFFFFFFFFFFFFFFFFFFFFFFFFFF AND PUSH20 0xFFFFFFFFFFFFFFFFFFFFFFFFFFFFFFFFFFFFFFFF AND PUSH20 0xFFFFFFFFFFFFFFFFFFFFFFFFFFFFFFFFFFFFFFFF AND DUP2 MSTORE POP POP SWAP1 POP SWAP1 JUMP JUMPDEST PUSH1 0x60 PUSH1 0x0 PUSH1 0x1 PUSH2 0x1088 DUP5 PUSH2 0x1147 JUMP JUMPDEST ADD SWAP1 POP PUSH1 0x0 DUP2 PUSH8 0xFFFFFFFFFFFFFFFF DUP2 GT ISZERO PUSH2 0x10A7 JUMPI PUSH2 0x10A6 PUSH2 0x1A16 JUMP JUMPDEST JUMPDEST PUSH1 0x40 MLOAD SWAP1 DUP1 DUP3 MSTORE DUP1 PUSH1 0x1F ADD PUSH1 0x1F NOT AND PUSH1 0x20 ADD DUP3 ADD PUSH1 0x40 MSTORE DUP1 ISZERO PUSH2 0x10D9 JUMPI DUP2 PUSH1 0x20 ADD PUSH1 0x1 DUP3 MUL DUP1 CALLDATASIZE DUP4 CALLDATACOPY DUP1 DUP3 ADD SWAP2 POP POP SWAP1 POP JUMPDEST POP SWAP1 POP PUSH1 0x0 DUP3 PUSH1 0x20 ADD DUP3 ADD SWAP1 POP JUMPDEST PUSH1 0x1 ISZERO PUSH2 0x113C JUMPI DUP1 DUP1 PUSH1 0x1 SWAP1 SUB SWAP2 POP POP PUSH32 0x3031323334353637383961626364656600000000000000000000000000000000 PUSH1 0xA DUP7 MOD BYTE DUP2 MSTORE8 PUSH1 0xA DUP6 DUP2 PUSH2 0x1130 JUMPI PUSH2 0x112F PUSH2 0x1F31 JUMP JUMPDEST JUMPDEST DIV SWAP5 POP PUSH1 0x0 DUP6 SUB PUSH2 0x10E7 JUMPI JUMPDEST DUP2 SWAP4 POP POP POP POP SWAP2 SWAP1 POP JUMP JUMPDEST PUSH1 0x0 DUP1 PUSH1 0x0 SWAP1 POP PUSH27 0x184F03E93FF9F4DAA797ED6E38ED64BF6A1F010000000000000000 DUP4 LT PUSH2 0x11A5 JUMPI PUSH27 0x184F03E93FF9F4DAA797ED6E38ED64BF6A1F010000000000000000 DUP4 DUP2 PUSH2 0x119B JUMPI PUSH2 0x119A PUSH2 0x1F31 JUMP JUMPDEST JUMPDEST DIV SWAP3 POP PUSH1 0x40 DUP2 ADD SWAP1 POP JUMPDEST PUSH14 0x4EE2D6D415B85ACEF8100000000 DUP4 LT PUSH2 0x11E2 JUMPI PUSH14 0x4EE2D6D415B85ACEF8100000000 DUP4 DUP2 PUSH2 0x11D8 JUMPI PUSH2 0x11D7 PUSH2 0x1F31 JUMP JUMPDEST JUMPDEST DIV SWAP3 POP PUSH1 0x20 DUP2 ADD SWAP1 POP JUMPDEST PUSH7 0x2386F26FC10000 DUP4 LT PUSH2 0x1211 JUMPI PUSH7 0x2386F26FC10000 DUP4 DUP2 PUSH2 0x1207 JUMPI PUSH2 0x1206 PUSH2 0x1F31 JUMP JUMPDEST JUMPDEST DIV SWAP3 POP PUSH1 0x10 DUP2 ADD SWAP1 POP JUMPDEST PUSH4 0x5F5E100 DUP4 LT PUSH2 0x123A JUMPI PUSH4 0x5F5E100 DUP4 DUP2 PUSH2 0x1230 JUMPI PUSH2 0x122F PUSH2 0x1F31 JUMP JUMPDEST JUMPDEST DIV SWAP3 POP PUSH1 0x8 DUP2 ADD SWAP1 POP JUMPDEST PUSH2 0x2710 DUP4 LT PUSH2 0x125F JUMPI PUSH2 0x2710 DUP4 DUP2 PUSH2 0x1255 JUMPI PUSH2 0x1254 PUSH2 0x1F31 JUMP JUMPDEST JUMPDEST DIV SWAP3 POP PUSH1 0x4 DUP2 ADD SWAP1 POP JUMPDEST PUSH1 0x64 DUP4 LT PUSH2 0x1282 JUMPI PUSH1 0x64 DUP4 DUP2 PUSH2 0x1278 JUMPI PUSH2 0x1277 PUSH2 0x1F31 JUMP JUMPDEST JUMPDEST DIV SWAP3 POP PUSH1 0x2 DUP2 ADD SWAP1 POP JUMPDEST PUSH1 0xA DUP4 LT PUSH2 0x1291 JUMPI PUSH1 0x1 DUP2 ADD SWAP1 POP JUMPDEST DUP1 SWAP2 POP POP SWAP2 SWAP1 POP JUMP JUMPDEST PUSH1 0x40 MLOAD DUP1 PUSH1 0xA0 ADD PUSH1 0x40 MSTORE DUP1 PUSH1 0x60 DUP2 MSTORE PUSH1 0x20 ADD PUSH1 0x0 DUP2 MSTORE PUSH1 0x20 ADD PUSH1 0x60 DUP2 MSTORE PUSH1 0x20 ADD PUSH1 0x0 ISZERO ISZERO DUP2 MSTORE PUSH1 0x20 ADD PUSH1 0x0 PUSH20 0xFFFFFFFFFFFFFFFFFFFFFFFFFFFFFFFFFFFFFFFF AND DUP2 MSTORE POP SWAP1 JUMP JUMPDEST PUSH1 0x0 PUSH20 0xFFFFFFFFFFFFFFFFFFFFFFFFFFFFFFFFFFFFFFFF DUP3 AND SWAP1 POP SWAP2 SWAP1 POP JUMP JUMPDEST PUSH1 0x0 PUSH2 0x130C DUP3 PUSH2 0x12E1 JUMP JUMPDEST SWAP1 POP SWAP2 SWAP1 POP JUMP JUMPDEST PUSH2 0x131C DUP2 PUSH2 0x1301 JUMP JUMPDEST DUP3 MSTORE POP POP JUMP JUMPDEST PUSH1 0x0 PUSH1 0x20 DUP3 ADD SWAP1 POP PUSH2 0x1337 PUSH1 0x0 DUP4 ADD DUP5 PUSH2 0x1313 JUMP JUMPDEST SWAP3 SWAP2 POP POP JUMP JUMPDEST PUSH1 0x0 DUP1 REVERT JUMPDEST PUSH1 0x0 DUP1 REVERT JUMPDEST PUSH1 0x0 DUP1 REVERT JUMPDEST PUSH1 0x0 DUP1 REVERT JUMPDEST PUSH1 0x0 DUP1 REVERT JUMPDEST PUSH1 0x0 DUP1 DUP4 PUSH1 0x1F DUP5 ADD SLT PUSH2 0x136C JUMPI PUSH2 0x136B PUSH2 0x1347 JUMP JUMPDEST JUMPDEST DUP3 CALLDATALOAD SWAP1 POP PUSH8 0xFFFFFFFFFFFFFFFF DUP2 GT ISZERO PUSH2 0x1389 JUMPI PUSH2 0x1388 PUSH2 0x134C JUMP JUMPDEST JUMPDEST PUSH1 0x20 DUP4 ADD SWAP2 POP DUP4 PUSH1 0x1 DUP3 MUL DUP4 ADD GT ISZERO PUSH2 0x13A5 JUMPI PUSH2 0x13A4 PUSH2 0x1351 JUMP JUMPDEST JUMPDEST SWAP3 POP SWAP3 SWAP1 POP JUMP JUMPDEST PUSH1 0x0 DUP1 PUSH1 0x0 DUP1 PUSH1 0x40 DUP6 DUP8 SUB SLT ISZERO PUSH2 0x13C6 JUMPI PUSH2 0x13C5 PUSH2 0x133D JUMP JUMPDEST JUMPDEST PUSH1 0x0 DUP6 ADD CALLDATALOAD PUSH8 0xFFFFFFFFFFFFFFFF DUP2 GT ISZERO PUSH2 0x13E4 JUMPI PUSH2 0x13E3 PUSH2 0x1342 JUMP JUMPDEST JUMPDEST PUSH2 0x13F0 DUP8 DUP3 DUP9 ADD PUSH2 0x1356 JUMP JUMPDEST SWAP5 POP SWAP5 POP POP PUSH1 0x20 DUP6 ADD CALLDATALOAD PUSH8 0xFFFFFFFFFFFFFFFF DUP2 GT ISZERO PUSH2 0x1413 JUMPI PUSH2 0x1412 PUSH2 0x1342 JUMP JUMPDEST JUMPDEST PUSH2 0x141F DUP8 DUP3 DUP9 ADD PUSH2 0x1356 JUMP JUMPDEST SWAP3 POP SWAP3 POP POP SWAP3 SWAP6 SWAP2 SWAP5 POP SWAP3 POP JUMP JUMPDEST PUSH2 0x1436 DUP2 PUSH2 0x1301 JUMP JUMPDEST DUP2 EQ PUSH2 0x1441 JUMPI PUSH1 0x0 DUP1 REVERT JUMPDEST POP JUMP JUMPDEST PUSH1 0x0 DUP2 CALLDATALOAD SWAP1 POP PUSH2 0x1453 DUP2 PUSH2 0x142D JUMP JUMPDEST SWAP3 SWAP2 POP POP JUMP JUMPDEST PUSH1 0x0 PUSH1 0x20 DUP3 DUP5 SUB SLT ISZERO PUSH2 0x146F JUMPI PUSH2 0x146E PUSH2 0x133D JUMP JUMPDEST JUMPDEST PUSH1 0x0 PUSH2 0x147D DUP5 DUP3 DUP6 ADD PUSH2 0x1444 JUMP JUMPDEST SWAP2 POP POP SWAP3 SWAP2 POP POP JUMP JUMPDEST PUSH1 0x0 DUP2 MLOAD SWAP1 POP SWAP2 SWAP1 POP JUMP JUMPDEST PUSH1 0x0 DUP3 DUP3 MSTORE PUSH1 0x20 DUP3 ADD SWAP1 POP SWAP3 SWAP2 POP POP JUMP JUMPDEST PUSH1 0x0 JUMPDEST DUP4 DUP2 LT ISZERO PUSH2 0x14C0 JUMPI DUP1 DUP3 ADD MLOAD DUP2 DUP5 ADD MSTORE PUSH1 0x20 DUP2 ADD SWAP1 POP PUSH2 0x14A5 JUMP JUMPDEST PUSH1 0x0 DUP5 DUP5 ADD MSTORE POP POP POP POP JUMP JUMPDEST PUSH1 0x0 PUSH1 0x1F NOT PUSH1 0x1F DUP4 ADD AND SWAP1 POP SWAP2 SWAP1 POP JUMP JUMPDEST PUSH1 0x0 PUSH2 0x14E8 DUP3 PUSH2 0x1486 JUMP JUMPDEST PUSH2 0x14F2 DUP2 DUP6 PUSH2 0x1491 JUMP JUMPDEST SWAP4 POP PUSH2 0x1502 DUP2 DUP6 PUSH1 0x20 DUP7 ADD PUSH2 0x14A2 JUMP JUMPDEST PUSH2 0x150B DUP2 PUSH2 0x14CC JUMP JUMPDEST DUP5 ADD SWAP2 POP POP SWAP3 SWAP2 POP POP JUMP JUMPDEST PUSH1 0x0 DUP2 SWAP1 POP SWAP2 SWAP1 POP JUMP JUMPDEST PUSH2 0x1529 DUP2 PUSH2 0x1516 JUMP JUMPDEST DUP3 MSTORE POP POP JUMP JUMPDEST PUSH1 0x0 DUP2 ISZERO ISZERO SWAP1 POP SWAP2 SWAP1 POP JUMP JUMPDEST PUSH2 0x1544 DUP2 PUSH2 0x152F JUMP JUMPDEST DUP3 MSTORE POP POP JUMP JUMPDEST PUSH1 0x0 PUSH1 0xA0 DUP3 ADD SWAP1 POP DUP2 DUP2 SUB PUSH1 0x0 DUP4 ADD MSTORE PUSH2 0x1564 DUP2 DUP9 PUSH2 0x14DD JUMP JUMPDEST SWAP1 POP PUSH2 0x1573 PUSH1 0x20 DUP4 ADD DUP8 PUSH2 0x1520 JUMP JUMPDEST DUP2 DUP2 SUB PUSH1 0x40 DUP4 ADD MSTORE PUSH2 0x1585 DUP2 DUP7 PUSH2 0x14DD JUMP JUMPDEST SWAP1 POP PUSH2 0x1594 PUSH1 0x60 DUP4 ADD DUP6 PUSH2 0x153B JUMP JUMPDEST PUSH2 0x15A1 PUSH1 0x80 DUP4 ADD DUP5 PUSH2 0x1313 JUMP JUMPDEST SWAP7 SWAP6 POP POP POP POP POP POP JUMP JUMPDEST PUSH1 0x0 PUSH1 0xA0 DUP3 ADD SWAP1 POP DUP2 DUP2 SUB PUSH1 0x0 DUP4 ADD MSTORE PUSH2 0x15C5 DUP2 DUP9 PUSH2 0x14DD JUMP JUMPDEST SWAP1 POP DUP2 DUP2 SUB PUSH1 0x20 DUP4 ADD MSTORE PUSH2 0x15D9 DUP2 DUP8 PUSH2 0x14DD JUMP JUMPDEST SWAP1 POP DUP2 DUP2 SUB PUSH1 0x40 DUP4 ADD MSTORE PUSH2 0x15ED DUP2 DUP7 PUSH2 0x14DD JUMP JUMPDEST SWAP1 POP PUSH2 0x15FC PUSH1 0x60 DUP4 ADD DUP6 PUSH2 0x153B JUMP JUMPDEST PUSH2 0x1609 PUSH1 0x80 DUP4 ADD DUP5 PUSH2 0x1313 JUMP JUMPDEST SWAP7 SWAP6 POP POP POP POP POP POP JUMP JUMPDEST PUSH2 0x161C DUP2 PUSH2 0x1516 JUMP JUMPDEST DUP2 EQ PUSH2 0x1627 JUMPI PUSH1 0x0 DUP1 REVERT JUMPDEST POP JUMP JUMPDEST PUSH1 0x0 DUP2 CALLDATALOAD SWAP1 POP PUSH2 0x1639 DUP2 PUSH2 0x1613 JUMP JUMPDEST SWAP3 SWAP2 POP POP JUMP JUMPDEST PUSH1 0x0 DUP1 PUSH1 0x0 PUSH1 0x40 DUP5 DUP7 SUB SLT ISZERO PUSH2 0x1658 JUMPI PUSH2 0x1657 PUSH2 0x133D JUMP JUMPDEST JUMPDEST PUSH1 0x0 DUP5 ADD CALLDATALOAD PUSH8 0xFFFFFFFFFFFFFFFF DUP2 GT ISZERO PUSH2 0x1676 JUMPI PUSH2 0x1675 PUSH2 0x1342 JUMP JUMPDEST JUMPDEST PUSH2 0x1682 DUP7 DUP3 DUP8 ADD PUSH2 0x1356 JUMP JUMPDEST SWAP4 POP SWAP4 POP POP PUSH1 0x20 PUSH2 0x1695 DUP7 DUP3 DUP8 ADD PUSH2 0x162A JUMP JUMPDEST SWAP2 POP POP SWAP3 POP SWAP3 POP SWAP3 JUMP JUMPDEST PUSH1 0x0 DUP3 DUP3 MSTORE PUSH1 0x20 DUP3 ADD SWAP1 POP SWAP3 SWAP2 POP POP JUMP JUMPDEST PUSH1 0x0 PUSH2 0x16BB DUP3 PUSH2 0x1486 JUMP JUMPDEST PUSH2 0x16C5 DUP2 DUP6 PUSH2 0x169F JUMP JUMPDEST SWAP4 POP PUSH2 0x16D5 DUP2 DUP6 PUSH1 0x20 DUP7 ADD PUSH2 0x14A2 JUMP JUMPDEST PUSH2 0x16DE DUP2 PUSH2 0x14CC JUMP JUMPDEST DUP5 ADD SWAP2 POP POP SWAP3 SWAP2 POP POP JUMP JUMPDEST PUSH2 0x16F2 DUP2 PUSH2 0x1516 JUMP JUMPDEST DUP3 MSTORE POP POP JUMP JUMPDEST PUSH2 0x1701 DUP2 PUSH2 0x152F JUMP JUMPDEST DUP3 MSTORE POP POP JUMP JUMPDEST PUSH2 0x1710 DUP2 PUSH2 0x1301 JUMP JUMPDEST DUP3 MSTORE POP POP JUMP JUMPDEST PUSH1 0x0 PUSH1 0xA0 DUP4 ADD PUSH1 0x0 DUP4 ADD MLOAD DUP5 DUP3 SUB PUSH1 0x0 DUP7 ADD MSTORE PUSH2 0x1733 DUP3 DUP3 PUSH2 0x16B0 JUMP JUMPDEST SWAP2 POP POP PUSH1 0x20 DUP4 ADD MLOAD PUSH2 0x1748 PUSH1 0x20 DUP7 ADD DUP3 PUSH2 0x16E9 JUMP JUMPDEST POP PUSH1 0x40 DUP4 ADD MLOAD DUP5 DUP3 SUB PUSH1 0x40 DUP7 ADD MSTORE PUSH2 0x1760 DUP3 DUP3 PUSH2 0x16B0 JUMP JUMPDEST SWAP2 POP POP PUSH1 0x60 DUP4 ADD MLOAD PUSH2 0x1775 PUSH1 0x60 DUP7 ADD DUP3 PUSH2 0x16F8 JUMP JUMPDEST POP PUSH1 0x80 DUP4 ADD MLOAD PUSH2 0x1788 PUSH1 0x80 DUP7 ADD DUP3 PUSH2 0x1707 JUMP JUMPDEST POP DUP1 SWAP2 POP POP SWAP3 SWAP2 POP POP JUMP JUMPDEST PUSH1 0x0 PUSH1 0x20 DUP3 ADD SWAP1 POP DUP2 DUP2 SUB PUSH1 0x0 DUP4 ADD MSTORE PUSH2 0x17AD DUP2 DUP5 PUSH2 0x1716 JUMP JUMPDEST SWAP1 POP SWAP3 SWAP2 POP POP JUMP JUMPDEST PUSH1 0x0 PUSH1 0x20 DUP3 ADD SWAP1 POP PUSH2 0x17CA PUSH1 0x0 DUP4 ADD DUP5 PUSH2 0x153B JUMP JUMPDEST SWAP3 SWAP2 POP POP JUMP JUMPDEST PUSH1 0x0 DUP1 PUSH1 0x0 PUSH1 0x40 DUP5 DUP7 SUB SLT ISZERO PUSH2 0x17E9 JUMPI PUSH2 0x17E8 PUSH2 0x133D JUMP JUMPDEST JUMPDEST PUSH1 0x0 DUP5 ADD CALLDATALOAD PUSH8 0xFFFFFFFFFFFFFFFF DUP2 GT ISZERO PUSH2 0x1807 JUMPI PUSH2 0x1806 PUSH2 0x1342 JUMP JUMPDEST JUMPDEST PUSH2 0x1813 DUP7 DUP3 DUP8 ADD PUSH2 0x1356 JUMP JUMPDEST SWAP4 POP SWAP4 POP POP PUSH1 0x20 PUSH2 0x1826 DUP7 DUP3 DUP8 ADD PUSH2 0x1444 JUMP JUMPDEST SWAP2 POP POP SWAP3 POP SWAP3 POP SWAP3 JUMP JUMPDEST PUSH32 0x4E487B7100000000000000000000000000000000000000000000000000000000 PUSH1 0x0 MSTORE PUSH1 0x22 PUSH1 0x4 MSTORE PUSH1 0x24 PUSH1 0x0 REVERT JUMPDEST PUSH1 0x0 PUSH1 0x2 DUP3 DIV SWAP1 POP PUSH1 0x1 DUP3 AND DUP1 PUSH2 0x1877 JUMPI PUSH1 0x7F DUP3 AND SWAP2 POP JUMPDEST PUSH1 0x20 DUP3 LT DUP2 SUB PUSH2 0x188A JUMPI PUSH2 0x1889 PUSH2 0x1830 JUMP JUMPDEST JUMPDEST POP SWAP2 SWAP1 POP JUMP JUMPDEST PUSH32 0x54686973206164647265737320697320616E2061646D696E0000000000000000 PUSH1 0x0 DUP3 ADD MSTORE POP JUMP JUMPDEST PUSH1 0x0 PUSH2 0x18C6 PUSH1 0x18 DUP4 PUSH2 0x1491 JUMP JUMPDEST SWAP2 POP PUSH2 0x18D1 DUP3 PUSH2 0x1890 JUMP JUMPDEST PUSH1 0x20 DUP3 ADD SWAP1 POP SWAP2 SWAP1 POP JUMP JUMPDEST PUSH1 0x0 PUSH1 0x20 DUP3 ADD SWAP1 POP DUP2 DUP2 SUB PUSH1 0x0 DUP4 ADD MSTORE PUSH2 0x18F5 DUP2 PUSH2 0x18B9 JUMP JUMPDEST SWAP1 POP SWAP2 SWAP1 POP JUMP JUMPDEST PUSH32 0x54686973206164647265737320686173206D6F74206265656E20726567697374 PUSH1 0x0 DUP3 ADD MSTORE PUSH32 0x6572656420696E2074686520656C6563746F72616C2070726F63657373000000 PUSH1 0x20 DUP3 ADD MSTORE POP JUMP JUMPDEST PUSH1 0x0 PUSH2 0x1958 PUSH1 0x3D DUP4 PUSH2 0x1491 JUMP JUMPDEST SWAP2 POP PUSH2 0x1963 DUP3 PUSH2 0x18FC JUMP JUMPDEST PUSH1 0x40 DUP3 ADD SWAP1 POP SWAP2 SWAP1 POP JUMP JUMPDEST PUSH1 0x0 PUSH1 0x20 DUP3 ADD SWAP1 POP DUP2 DUP2 SUB PUSH1 0x0 DUP4 ADD MSTORE PUSH2 0x1987 DUP2 PUSH2 0x194B JUMP JUMPDEST SWAP1 POP SWAP2 SWAP1 POP JUMP JUMPDEST PUSH32 0x434F440000000000000000000000000000000000000000000000000000000000 DUP2 MSTORE POP JUMP JUMPDEST PUSH1 0x0 DUP2 SWAP1 POP SWAP3 SWAP2 POP POP JUMP JUMPDEST PUSH1 0x0 PUSH2 0x19CA DUP3 PUSH2 0x1486 JUMP JUMPDEST PUSH2 0x19D4 DUP2 DUP6 PUSH2 0x19B4 JUMP JUMPDEST SWAP4 POP PUSH2 0x19E4 DUP2 DUP6 PUSH1 0x20 DUP7 ADD PUSH2 0x14A2 JUMP JUMPDEST DUP1 DUP5 ADD SWAP2 POP POP SWAP3 SWAP2 POP POP JUMP JUMPDEST PUSH1 0x0 PUSH2 0x19FB DUP3 PUSH2 0x198E JUMP JUMPDEST PUSH1 0x3 DUP3 ADD SWAP2 POP PUSH2 0x1A0B DUP3 DUP5 PUSH2 0x19BF JUMP JUMPDEST SWAP2 POP DUP2 SWAP1 POP SWAP3 SWAP2 POP POP JUMP JUMPDEST PUSH32 0x4E487B7100000000000000000000000000000000000000000000000000000000 PUSH1 0x0 MSTORE PUSH1 0x41 PUSH1 0x4 MSTORE PUSH1 0x24 PUSH1 0x0 REVERT JUMPDEST PUSH1 0x0 DUP2 SWAP1 POP DUP2 PUSH1 0x0 MSTORE PUSH1 0x20 PUSH1 0x0 KECCAK256 SWAP1 POP SWAP2 SWAP1 POP JUMP JUMPDEST PUSH1 0x0 PUSH1 0x20 PUSH1 0x1F DUP4 ADD DIV SWAP1 POP SWAP2 SWAP1 POP JUMP JUMPDEST PUSH1 0x0 DUP3 DUP3 SHL SWAP1 POP SWAP3 SWAP2 POP POP JUMP JUMPDEST PUSH1 0x0 PUSH1 0x8 DUP4 MUL PUSH2 0x1AA7 PUSH32 0xFFFFFFFFFFFFFFFFFFFFFFFFFFFFFFFFFFFFFFFFFFFFFFFFFFFFFFFFFFFFFFFF DUP3 PUSH2 0x1A6A JUMP JUMPDEST PUSH2 0x1AB1 DUP7 DUP4 PUSH2 0x1A6A JUMP JUMPDEST SWAP6 POP DUP1 NOT DUP5 AND SWAP4 POP DUP1 DUP7 AND DUP5 OR SWAP3 POP POP POP SWAP4 SWAP3 POP POP POP JUMP JUMPDEST PUSH1 0x0 DUP2 SWAP1 POP SWAP2 SWAP1 POP JUMP JUMPDEST PUSH1 0x0 PUSH2 0x1AEE PUSH2 0x1AE9 PUSH2 0x1AE4 DUP5 PUSH2 0x1516 JUMP JUMPDEST PUSH2 0x1AC9 JUMP JUMPDEST PUSH2 0x1516 JUMP JUMPDEST SWAP1 POP SWAP2 SWAP1 POP JUMP JUMPDEST PUSH1 0x0 DUP2 SWAP1 POP SWAP2 SWAP1 POP JUMP JUMPDEST PUSH2 0x1B08 DUP4 PUSH2 0x1AD3 JUMP JUMPDEST PUSH2 0x1B1C PUSH2 0x1B14 DUP3 PUSH2 0x1AF5 JUMP JUMPDEST DUP5 DUP5 SLOAD PUSH2 0x1A77 JUMP JUMPDEST DUP3 SSTORE POP POP POP POP JUMP JUMPDEST PUSH1 0x0 SWAP1 JUMP JUMPDEST PUSH2 0x1B31 PUSH2 0x1B24 JUMP JUMPDEST PUSH2 0x1B3C DUP2 DUP5 DUP5 PUSH2 0x1AFF JUMP JUMPDEST POP POP POP JUMP JUMPDEST JUMPDEST DUP2 DUP2 LT ISZERO PUSH2 0x1B60 JUMPI PUSH2 0x1B55 PUSH1 0x0 DUP3 PUSH2 0x1B29 JUMP JUMPDEST PUSH1 0x1 DUP2 ADD SWAP1 POP PUSH2 0x1B42 JUMP JUMPDEST POP POP JUMP JUMPDEST PUSH1 0x1F DUP3 GT ISZERO PUSH2 0x1BA5 JUMPI PUSH2 0x1B76 DUP2 PUSH2 0x1A45 JUMP JUMPDEST PUSH2 0x1B7F DUP5 PUSH2 0x1A5A JUMP JUMPDEST DUP2 ADD PUSH1 0x20 DUP6 LT ISZERO PUSH2 0x1B8E JUMPI DUP2 SWAP1 POP JUMPDEST PUSH2 0x1BA2 PUSH2 0x1B9A DUP6 PUSH2 0x1A5A JUMP JUMPDEST DUP4 ADD DUP3 PUSH2 0x1B41 JUMP JUMPDEST POP POP JUMPDEST POP POP POP JUMP JUMPDEST PUSH1 0x0 DUP3 DUP3 SHR SWAP1 POP SWAP3 SWAP2 POP POP JUMP JUMPDEST PUSH1 0x0 PUSH2 0x1BC8 PUSH1 0x0 NOT DUP5 PUSH1 0x8 MUL PUSH2 0x1BAA JUMP JUMPDEST NOT DUP1 DUP4 AND SWAP2 POP POP SWAP3 SWAP2 POP POP JUMP JUMPDEST PUSH1 0x0 PUSH2 0x1BE1 DUP4 DUP4 PUSH2 0x1BB7 JUMP JUMPDEST SWAP2 POP DUP3 PUSH1 0x2 MUL DUP3 OR SWAP1 POP SWAP3 SWAP2 POP POP JUMP JUMPDEST PUSH2 0x1BFA DUP3 PUSH2 0x1486 JUMP JUMPDEST PUSH8 0xFFFFFFFFFFFFFFFF DUP2 GT ISZERO PUSH2 0x1C13 JUMPI PUSH2 0x1C12 PUSH2 0x1A16 JUMP JUMPDEST JUMPDEST PUSH2 0x1C1D DUP3 SLOAD PUSH2 0x185F JUMP JUMPDEST PUSH2 0x1C28 DUP3 DUP3 DUP6 PUSH2 0x1B64 JUMP JUMPDEST PUSH1 0x0 PUSH1 0x20 SWAP1 POP PUSH1 0x1F DUP4 GT PUSH1 0x1 DUP2 EQ PUSH2 0x1C5B JUMPI PUSH1 0x0 DUP5 ISZERO PUSH2 0x1C49 JUMPI DUP3 DUP8 ADD MLOAD SWAP1 POP JUMPDEST PUSH2 0x1C53 DUP6 DUP3 PUSH2 0x1BD5 JUMP JUMPDEST DUP7 SSTORE POP PUSH2 0x1CBB JUMP JUMPDEST PUSH1 0x1F NOT DUP5 AND PUSH2 0x1C69 DUP7 PUSH2 0x1A45 JUMP JUMPDEST PUSH1 0x0 JUMPDEST DUP3 DUP2 LT ISZERO PUSH2 0x1C91 JUMPI DUP5 DUP10 ADD MLOAD DUP3 SSTORE PUSH1 0x1 DUP3 ADD SWAP2 POP PUSH1 0x20 DUP6 ADD SWAP5 POP PUSH1 0x20 DUP2 ADD SWAP1 POP PUSH2 0x1C6C JUMP JUMPDEST DUP7 DUP4 LT ISZERO PUSH2 0x1CAE JUMPI DUP5 DUP10 ADD MLOAD PUSH2 0x1CAA PUSH1 0x1F DUP10 AND DUP3 PUSH2 0x1BB7 JUMP JUMPDEST DUP4 SSTORE POP JUMPDEST PUSH1 0x1 PUSH1 0x2 DUP9 MUL ADD DUP9 SSTORE POP POP POP JUMPDEST POP POP POP POP POP POP JUMP JUMPDEST PUSH32 0x6E6F7420656C696769626C6520746F20766F7465000000000000000000000000 PUSH1 0x0 DUP3 ADD MSTORE POP JUMP JUMPDEST PUSH1 0x0 PUSH2 0x1CF9 PUSH1 0x14 DUP4 PUSH2 0x1491 JUMP JUMPDEST SWAP2 POP PUSH2 0x1D04 DUP3 PUSH2 0x1CC3 JUMP JUMPDEST PUSH1 0x20 DUP3 ADD SWAP1 POP SWAP2 SWAP1 POP JUMP JUMPDEST PUSH1 0x0 PUSH1 0x20 DUP3 ADD SWAP1 POP DUP2 DUP2 SUB PUSH1 0x0 DUP4 ADD MSTORE PUSH2 0x1D28 DUP2 PUSH2 0x1CEC JUMP JUMPDEST SWAP1 POP SWAP2 SWAP1 POP JUMP JUMPDEST PUSH32 0x54686973206164647265737320686173206265656E2072656769737465726564 PUSH1 0x0 DUP3 ADD MSTORE POP JUMP JUMPDEST PUSH1 0x0 PUSH2 0x1D65 PUSH1 0x20 DUP4 PUSH2 0x1491 JUMP JUMPDEST SWAP2 POP PUSH2 0x1D70 DUP3 PUSH2 0x1D2F JUMP JUMPDEST PUSH1 0x20 DUP3 ADD SWAP1 POP SWAP2 SWAP1 POP JUMP JUMPDEST PUSH1 0x0 PUSH1 0x20 DUP3 ADD SWAP1 POP DUP2 DUP2 SUB PUSH1 0x0 DUP4 ADD MSTORE PUSH2 0x1D94 DUP2 PUSH2 0x1D58 JUMP JUMPDEST SWAP1 POP SWAP2 SWAP1 POP JUMP JUMPDEST PUSH32 0x4E49470000000000000000000000000000000000000000000000000000000000 DUP2 MSTORE POP JUMP JUMPDEST PUSH1 0x0 PUSH2 0x1DCC DUP3 PUSH2 0x1D9B JUMP JUMPDEST PUSH1 0x3 DUP3 ADD SWAP2 POP PUSH2 0x1DDC DUP3 DUP5 PUSH2 0x19BF JUMP JUMPDEST SWAP2 POP DUP2 SWAP1 POP SWAP3 SWAP2 POP POP JUMP JUMPDEST PUSH32 0x4E487B7100000000000000000000000000000000000000000000000000000000 PUSH1 0x0 MSTORE PUSH1 0x11 PUSH1 0x4 MSTORE PUSH1 0x24 PUSH1 0x0 REVERT JUMPDEST PUSH1 0x0 PUSH2 0x1E21 DUP3 PUSH2 0x1516 JUMP JUMPDEST SWAP2 POP PUSH2 0x1E2C DUP4 PUSH2 0x1516 JUMP JUMPDEST SWAP3 POP DUP3 DUP3 ADD SWAP1 POP DUP1 DUP3 GT ISZERO PUSH2 0x1E44 JUMPI PUSH2 0x1E43 PUSH2 0x1DE7 JUMP JUMPDEST JUMPDEST SWAP3 SWAP2 POP POP JUMP JUMPDEST DUP3 DUP2 DUP4 CALLDATACOPY PUSH1 0x0 DUP4 DUP4 ADD MSTORE POP POP POP JUMP JUMPDEST PUSH1 0x0 PUSH2 0x1E65 DUP4 DUP6 PUSH2 0x19B4 JUMP JUMPDEST SWAP4 POP PUSH2 0x1E72 DUP4 DUP6 DUP5 PUSH2 0x1E4A JUMP JUMPDEST DUP3 DUP5 ADD SWAP1 POP SWAP4 SWAP3 POP POP POP JUMP JUMPDEST PUSH1 0x0 PUSH2 0x1E8B DUP3 DUP5 DUP7 PUSH2 0x1E59 JUMP JUMPDEST SWAP2 POP DUP2 SWAP1 POP SWAP4 SWAP3 POP POP POP JUMP JUMPDEST PUSH1 0x0 DUP2 SLOAD PUSH2 0x1EA4 DUP2 PUSH2 0x185F JUMP JUMPDEST PUSH2 0x1EAE DUP2 DUP7 PUSH2 0x19B4 JUMP JUMPDEST SWAP5 POP PUSH1 0x1 DUP3 AND PUSH1 0x0 DUP2 EQ PUSH2 0x1EC9 JUMPI PUSH1 0x1 DUP2 EQ PUSH2 0x1EDE JUMPI PUSH2 0x1F11 JUMP JUMPDEST PUSH1 0xFF NOT DUP4 AND DUP7 MSTORE DUP2 ISZERO ISZERO DUP3 MUL DUP7 ADD SWAP4 POP PUSH2 0x1F11 JUMP JUMPDEST PUSH2 0x1EE7 DUP6 PUSH2 0x1A45 JUMP JUMPDEST PUSH1 0x0 JUMPDEST DUP4 DUP2 LT ISZERO PUSH2 0x1F09 JUMPI DUP2 SLOAD DUP2 DUP10 ADD MSTORE PUSH1 0x1 DUP3 ADD SWAP2 POP PUSH1 0x20 DUP2 ADD SWAP1 POP PUSH2 0x1EEA JUMP JUMPDEST DUP4 DUP9 ADD SWAP6 POP POP POP JUMPDEST POP POP POP SWAP3 SWAP2 POP POP JUMP JUMPDEST PUSH1 0x0 PUSH2 0x1F26 DUP3 DUP5 PUSH2 0x1E97 JUMP JUMPDEST SWAP2 POP DUP2 SWAP1 POP SWAP3 SWAP2 POP POP JUMP JUMPDEST PUSH32 0x4E487B7100000000000000000000000000000000000000000000000000000000 PUSH1 0x0 MSTORE PUSH1 0x12 PUSH1 0x4 MSTORE PUSH1 0x24 PUSH1 0x0 REVERT INVALID LOG2 PUSH5 0x6970667358 0x22 SLT KECCAK256 SELFBALANCE 0xB7 ADD 0xD9 MLOAD SHR PUSH16 0x31F8874FC3776358881BE4370B0D5A61 PUSH4 0xAE6E8509 ADDMOD 0xEB 0xD7 CALLDATALOAD PUSH5 0x736F6C6343 STOP ADDMOD SLT STOP CALLER "
				},
				"gasEstimates": {
					"creation": {
						"codeDepositCost": "1617200",
						"executionCost": "48074",
						"totalCost": "1665274"
					},
					"external": {
						"applyForAdmin(string,string)": "infinite",
						"confirmApplication()": "2618",
						"contractOwner()": "2536",
						"coordinators(address)": "infinite",
						"electionCordinator()": "2512",
						"getDetails()": "infinite",
						"isElectionCoord(string,address)": "infinite",
						"registerDetails(string,uint256)": "infinite",
						"voters(address)": "infinite"
					}
				},
				"methodIdentifiers": {
					"applyForAdmin(string,string)": "8bc8d6ff",
					"confirmApplication()": "cfa34208",
					"contractOwner()": "ce606ee0",
					"coordinators(address)": "a48af096",
					"electionCordinator()": "7151ace2",
					"getDetails()": "fbbf93a0",
					"isElectionCoord(string,address)": "ef5b7ceb",
					"registerDetails(string,uint256)": "c0264d3a",
					"voters(address)": "a3ec138d"
				}
			},
			"storageLayout": {
				"storage": [
					{
						"astId": 1163,
						"contract": "register.sol:Voter",
						"label": "electionCordinator",
						"offset": 0,
						"slot": "0",
						"type": "t_address"
					},
					{
						"astId": 1165,
						"contract": "register.sol:Voter",
						"label": "contractOwner",
						"offset": 0,
						"slot": "1",
						"type": "t_address"
					},
					{
						"astId": 1167,
						"contract": "register.sol:Voter",
						"label": "regCount",
						"offset": 0,
						"slot": "2",
						"type": "t_uint256"
					},
					{
						"astId": 1172,
						"contract": "register.sol:Voter",
						"label": "voters",
						"offset": 0,
						"slot": "3",
						"type": "t_mapping(t_address,t_struct(voter)1053_storage)"
					},
					{
						"astId": 1177,
						"contract": "register.sol:Voter",
						"label": "coordinators",
						"offset": 0,
						"slot": "4",
						"type": "t_mapping(t_address,t_struct(coordinator)1064_storage)"
					}
				],
				"types": {
					"t_address": {
						"encoding": "inplace",
						"label": "address",
						"numberOfBytes": "20"
					},
					"t_bool": {
						"encoding": "inplace",
						"label": "bool",
						"numberOfBytes": "1"
					},
					"t_mapping(t_address,t_struct(coordinator)1064_storage)": {
						"encoding": "mapping",
						"key": "t_address",
						"label": "mapping(address => struct coordinator)",
						"numberOfBytes": "32",
						"value": "t_struct(coordinator)1064_storage"
					},
					"t_mapping(t_address,t_struct(voter)1053_storage)": {
						"encoding": "mapping",
						"key": "t_address",
						"label": "mapping(address => struct voter)",
						"numberOfBytes": "32",
						"value": "t_struct(voter)1053_storage"
					},
					"t_string_storage": {
						"encoding": "bytes",
						"label": "string",
						"numberOfBytes": "32"
					},
					"t_struct(coordinator)1064_storage": {
						"encoding": "inplace",
						"label": "struct coordinator",
						"members": [
							{
								"astId": 1055,
								"contract": "register.sol:Voter",
								"label": "name",
								"offset": 0,
								"slot": "0",
								"type": "t_string_storage"
							},
							{
								"astId": 1057,
								"contract": "register.sol:Voter",
								"label": "cordID",
								"offset": 0,
								"slot": "1",
								"type": "t_string_storage"
							},
							{
								"astId": 1059,
								"contract": "register.sol:Voter",
								"label": "electionID",
								"offset": 0,
								"slot": "2",
								"type": "t_string_storage"
							},
							{
								"astId": 1061,
								"contract": "register.sol:Voter",
								"label": "adminAuth",
								"offset": 0,
								"slot": "3",
								"type": "t_bool"
							},
							{
								"astId": 1063,
								"contract": "register.sol:Voter",
								"label": "voterAddress",
								"offset": 1,
								"slot": "3",
								"type": "t_address"
							}
						],
						"numberOfBytes": "128"
					},
					"t_struct(voter)1053_storage": {
						"encoding": "inplace",
						"label": "struct voter",
						"members": [
							{
								"astId": 1044,
								"contract": "register.sol:Voter",
								"label": "name",
								"offset": 0,
								"slot": "0",
								"type": "t_string_storage"
							},
							{
								"astId": 1046,
								"contract": "register.sol:Voter",
								"label": "age",
								"offset": 0,
								"slot": "1",
								"type": "t_uint256"
							},
							{
								"astId": 1048,
								"contract": "register.sol:Voter",
								"label": "voterID",
								"offset": 0,
								"slot": "2",
								"type": "t_string_storage"
							},
							{
								"astId": 1050,
								"contract": "register.sol:Voter",
								"label": "canApplyToVote",
								"offset": 0,
								"slot": "3",
								"type": "t_bool"
							},
							{
								"astId": 1052,
								"contract": "register.sol:Voter",
								"label": "voterAddress",
								"offset": 1,
								"slot": "3",
								"type": "t_address"
							}
						],
						"numberOfBytes": "128"
					},
					"t_uint256": {
						"encoding": "inplace",
						"label": "uint256",
						"numberOfBytes": "32"
					}
				}
			},
			"userdoc": {
				"kind": "user",
				"methods": {},
				"version": 1
			}
		}
	}
}