{
	"register.sol": {
		"Voter": {
			"abi": [
				{
					"inputs": [],
					"stateMutability": "nonpayable",
					"type": "constructor"
				},
				{
					"inputs": [
						{
							"internalType": "string",
							"name": "name",
							"type": "string"
						}
					],
					"name": "applyForAdmin",
					"outputs": [],
					"stateMutability": "nonpayable",
					"type": "function"
				},
				{
					"inputs": [],
					"name": "confirmApplication",
					"outputs": [
						{
							"internalType": "bool",
							"name": "",
							"type": "bool"
						}
					],
					"stateMutability": "view",
					"type": "function"
				},
				{
					"inputs": [],
					"name": "contractOwner",
					"outputs": [
						{
							"internalType": "address",
							"name": "",
							"type": "address"
						}
					],
					"stateMutability": "view",
					"type": "function"
				},
				{
					"inputs": [
						{
							"internalType": "address",
							"name": "",
							"type": "address"
						}
					],
					"name": "coordinators",
					"outputs": [
						{
							"internalType": "string",
							"name": "name",
							"type": "string"
						},
						{
							"internalType": "string",
							"name": "cordID",
							"type": "string"
						},
						{
							"internalType": "string",
							"name": "electionID",
							"type": "string"
						},
						{
							"internalType": "bool",
							"name": "adminAuth",
							"type": "bool"
						},
						{
							"internalType": "address",
							"name": "voterAddress",
							"type": "address"
						}
					],
					"stateMutability": "view",
					"type": "function"
				},
				{
					"inputs": [],
					"name": "electionCordinator",
					"outputs": [
						{
							"internalType": "address",
							"name": "",
							"type": "address"
						}
					],
					"stateMutability": "view",
					"type": "function"
				},
				{
					"inputs": [],
					"name": "getDetails",
					"outputs": [
						{
							"components": [
								{
									"internalType": "string",
									"name": "name",
									"type": "string"
								},
								{
									"internalType": "uint256",
									"name": "age",
									"type": "uint256"
								},
								{
									"internalType": "string",
									"name": "voterID",
									"type": "string"
								},
								{
									"internalType": "bool",
									"name": "canApplyToVote",
									"type": "bool"
								},
								{
									"internalType": "address",
									"name": "voterAddress",
									"type": "address"
								}
							],
							"internalType": "struct voter",
							"name": "",
							"type": "tuple"
						}
					],
					"stateMutability": "view",
					"type": "function"
				},
				{
					"inputs": [
						{
							"internalType": "string",
							"name": "electionID",
							"type": "string"
						},
						{
							"internalType": "address",
							"name": "cordAddr",
							"type": "address"
						}
					],
					"name": "isElectionCoord",
					"outputs": [
						{
							"internalType": "bool",
							"name": "",
							"type": "bool"
						}
					],
					"stateMutability": "view",
					"type": "function"
				},
				{
					"inputs": [
						{
							"internalType": "string",
							"name": "name",
							"type": "string"
						},
						{
							"internalType": "uint256",
							"name": "age",
							"type": "uint256"
						}
					],
					"name": "registerDetails",
					"outputs": [
						{
							"components": [
								{
									"internalType": "string",
									"name": "name",
									"type": "string"
								},
								{
									"internalType": "uint256",
									"name": "age",
									"type": "uint256"
								},
								{
									"internalType": "string",
									"name": "voterID",
									"type": "string"
								},
								{
									"internalType": "bool",
									"name": "canApplyToVote",
									"type": "bool"
								},
								{
									"internalType": "address",
									"name": "voterAddress",
									"type": "address"
								}
							],
							"internalType": "struct voter",
							"name": "",
							"type": "tuple"
						}
					],
					"stateMutability": "nonpayable",
					"type": "function"
				},
				{
					"inputs": [
						{
							"internalType": "address",
							"name": "",
							"type": "address"
						}
					],
					"name": "voters",
					"outputs": [
						{
							"internalType": "string",
							"name": "name",
							"type": "string"
						},
						{
							"internalType": "uint256",
							"name": "age",
							"type": "uint256"
						},
						{
							"internalType": "string",
							"name": "voterID",
							"type": "string"
						},
						{
							"internalType": "bool",
							"name": "canApplyToVote",
							"type": "bool"
						},
						{
							"internalType": "address",
							"name": "voterAddress",
							"type": "address"
						}
					],
					"stateMutability": "view",
					"type": "function"
				}
			],
			"devdoc": {
				"kind": "dev",
				"methods": {},
				"version": 1
			},
			"evm": {
				"assembly": "    /* \"register.sol\":1602:3450  contract Voter is registerVoter{... */\n  mstore(0x40, 0x80)\n    /* \"register.sol\":1841:1920  constructor(){ ... */\n  callvalue\n  dup1\n  iszero\n  tag_1\n  jumpi\n  0x00\n  dup1\n  revert\ntag_1:\n  pop\n    /* \"register.sol\":1881:1891  msg.sender */\n  caller\n    /* \"register.sol\":1865:1878  contractOwner */\n  0x01\n  0x00\n    /* \"register.sol\":1865:1891  contractOwner = msg.sender */\n  0x0100\n  exp\n  dup2\n  sload\n  dup2\n  0xffffffffffffffffffffffffffffffffffffffff\n  mul\n  not\n  and\n  swap1\n  dup4\n  0xffffffffffffffffffffffffffffffffffffffff\n  and\n  mul\n  or\n  swap1\n  sstore\n  pop\n    /* \"register.sol\":1912:1913  1 */\n  0x01\n    /* \"register.sol\":1901:1909  regCount */\n  0x02\n    /* \"register.sol\":1901:1913  regCount = 1 */\n  dup2\n  swap1\n  sstore\n  pop\n    /* \"register.sol\":1602:3450  contract Voter is registerVoter{... */\n  dataSize(sub_0)\n  dup1\n  dataOffset(sub_0)\n  0x00\n  codecopy\n  0x00\n  return\nstop\n\nsub_0: assembly {\n        /* \"register.sol\":1602:3450  contract Voter is registerVoter{... */\n      mstore(0x40, 0x80)\n      callvalue\n      dup1\n      iszero\n      tag_1\n      jumpi\n      0x00\n      dup1\n      revert\n    tag_1:\n      pop\n      jumpi(tag_2, lt(calldatasize, 0x04))\n      shr(0xe0, calldataload(0x00))\n      dup1\n      0xc0264d3a\n      gt\n      tag_12\n      jumpi\n      dup1\n      0xc0264d3a\n      eq\n      tag_7\n      jumpi\n      dup1\n      0xce606ee0\n      eq\n      tag_8\n      jumpi\n      dup1\n      0xcfa34208\n      eq\n      tag_9\n      jumpi\n      dup1\n      0xef5b7ceb\n      eq\n      tag_10\n      jumpi\n      dup1\n      0xfbbf93a0\n      eq\n      tag_11\n      jumpi\n      jump(tag_2)\n    tag_12:\n      dup1\n      0x7151ace2\n      eq\n      tag_3\n      jumpi\n      dup1\n      0xa3ec138d\n      eq\n      tag_4\n      jumpi\n      dup1\n      0xa48af096\n      eq\n      tag_5\n      jumpi\n      dup1\n      0xb8015216\n      eq\n      tag_6\n      jumpi\n    tag_2:\n      0x00\n      dup1\n      revert\n        /* \"register.sol\":1640:1673  address public electionCordinator */\n    tag_3:\n      tag_13\n      tag_14\n      jump\t// in\n    tag_13:\n      mload(0x40)\n      tag_15\n      swap2\n      swap1\n      tag_16\n      jump\t// in\n    tag_15:\n      mload(0x40)\n      dup1\n      swap2\n      sub\n      swap1\n      return\n        /* \"register.sol\":1732:1772  mapping( address => voter) public voters */\n    tag_4:\n      tag_17\n      0x04\n      dup1\n      calldatasize\n      sub\n      dup2\n      add\n      swap1\n      tag_18\n      swap2\n      swap1\n      tag_19\n      jump\t// in\n    tag_18:\n      tag_20\n      jump\t// in\n    tag_17:\n      mload(0x40)\n      tag_21\n      swap6\n      swap5\n      swap4\n      swap3\n      swap2\n      swap1\n      tag_22\n      jump\t// in\n    tag_21:\n      mload(0x40)\n      dup1\n      swap2\n      sub\n      swap1\n      return\n        /* \"register.sol\":1778:1829  mapping(address => coordinator) public coordinators */\n    tag_5:\n      tag_23\n      0x04\n      dup1\n      calldatasize\n      sub\n      dup2\n      add\n      swap1\n      tag_24\n      swap2\n      swap1\n      tag_19\n      jump\t// in\n    tag_24:\n      tag_25\n      jump\t// in\n    tag_23:\n      mload(0x40)\n      tag_26\n      swap6\n      swap5\n      swap4\n      swap3\n      swap2\n      swap1\n      tag_27\n      jump\t// in\n    tag_26:\n      mload(0x40)\n      dup1\n      swap2\n      sub\n      swap1\n      return\n        /* \"register.sol\":2722:3210  function applyForAdmin(string calldata name) public{... */\n    tag_6:\n      tag_28\n      0x04\n      dup1\n      calldatasize\n      sub\n      dup2\n      add\n      swap1\n      tag_29\n      swap2\n      swap1\n      tag_30\n      jump\t// in\n    tag_29:\n      tag_31\n      jump\t// in\n    tag_28:\n      stop\n        /* \"register.sol\":2031:2493  function registerDetails(string calldata name, uint age) public returns (voter memory) {... */\n    tag_7:\n      tag_32\n      0x04\n      dup1\n      calldatasize\n      sub\n      dup2\n      add\n      swap1\n      tag_33\n      swap2\n      swap1\n      tag_34\n      jump\t// in\n    tag_33:\n      tag_35\n      jump\t// in\n    tag_32:\n      mload(0x40)\n      tag_36\n      swap2\n      swap1\n      tag_37\n      jump\t// in\n    tag_36:\n      mload(0x40)\n      dup1\n      swap2\n      sub\n      swap1\n      return\n        /* \"register.sol\":1679:1707  address public contractOwner */\n    tag_8:\n      tag_38\n      tag_39\n      jump\t// in\n    tag_38:\n      mload(0x40)\n      tag_40\n      swap2\n      swap1\n      tag_16\n      jump\t// in\n    tag_40:\n      mload(0x40)\n      dup1\n      swap2\n      sub\n      swap1\n      return\n        /* \"register.sol\":2500:2612  function confirmApplication() public view returns(bool){... */\n    tag_9:\n      tag_41\n      tag_42\n      jump\t// in\n    tag_41:\n      mload(0x40)\n      tag_43\n      swap2\n      swap1\n      tag_44\n      jump\t// in\n    tag_43:\n      mload(0x40)\n      dup1\n      swap2\n      sub\n      swap1\n      return\n        /* \"register.sol\":3216:3441  function isElectionCoord(string calldata electionID, address cordAddr) public view returns(bool){... */\n    tag_10:\n      tag_45\n      0x04\n      dup1\n      calldatasize\n      sub\n      dup2\n      add\n      swap1\n      tag_46\n      swap2\n      swap1\n      tag_47\n      jump\t// in\n    tag_46:\n      tag_48\n      jump\t// in\n    tag_45:\n      mload(0x40)\n      tag_49\n      swap2\n      swap1\n      tag_44\n      jump\t// in\n    tag_49:\n      mload(0x40)\n      dup1\n      swap2\n      sub\n      swap1\n      return\n        /* \"register.sol\":2618:2716  function getDetails() public view returns (voter memory){... */\n    tag_11:\n      tag_50\n      tag_51\n      jump\t// in\n    tag_50:\n      mload(0x40)\n      tag_52\n      swap2\n      swap1\n      tag_37\n      jump\t// in\n    tag_52:\n      mload(0x40)\n      dup1\n      swap2\n      sub\n      swap1\n      return\n        /* \"register.sol\":1640:1673  address public electionCordinator */\n    tag_14:\n      0x00\n      dup1\n      sload\n      swap1\n      0x0100\n      exp\n      swap1\n      div\n      0xffffffffffffffffffffffffffffffffffffffff\n      and\n      dup2\n      jump\t// out\n        /* \"register.sol\":1732:1772  mapping( address => voter) public voters */\n    tag_20:\n      mstore(0x20, 0x03)\n      dup1\n      0x00\n      mstore\n      keccak256(0x00, 0x40)\n      0x00\n      swap2\n      pop\n      swap1\n      pop\n      dup1\n      0x00\n      add\n      dup1\n      sload\n      tag_53\n      swap1\n      tag_54\n      jump\t// in\n    tag_53:\n      dup1\n      0x1f\n      add\n      0x20\n      dup1\n      swap2\n      div\n      mul\n      0x20\n      add\n      mload(0x40)\n      swap1\n      dup2\n      add\n      0x40\n      mstore\n      dup1\n      swap3\n      swap2\n      swap1\n      dup2\n      dup2\n      mstore\n      0x20\n      add\n      dup3\n      dup1\n      sload\n      tag_55\n      swap1\n      tag_54\n      jump\t// in\n    tag_55:\n      dup1\n      iszero\n      tag_56\n      jumpi\n      dup1\n      0x1f\n      lt\n      tag_57\n      jumpi\n      0x0100\n      dup1\n      dup4\n      sload\n      div\n      mul\n      dup4\n      mstore\n      swap2\n      0x20\n      add\n      swap2\n      jump(tag_56)\n    tag_57:\n      dup3\n      add\n      swap2\n      swap1\n      0x00\n      mstore\n      keccak256(0x00, 0x20)\n      swap1\n    tag_58:\n      dup2\n      sload\n      dup2\n      mstore\n      swap1\n      0x01\n      add\n      swap1\n      0x20\n      add\n      dup1\n      dup4\n      gt\n      tag_58\n      jumpi\n      dup3\n      swap1\n      sub\n      0x1f\n      and\n      dup3\n      add\n      swap2\n    tag_56:\n      pop\n      pop\n      pop\n      pop\n      pop\n      swap1\n      dup1\n      0x01\n      add\n      sload\n      swap1\n      dup1\n      0x02\n      add\n      dup1\n      sload\n      tag_59\n      swap1\n      tag_54\n      jump\t// in\n    tag_59:\n      dup1\n      0x1f\n      add\n      0x20\n      dup1\n      swap2\n      div\n      mul\n      0x20\n      add\n      mload(0x40)\n      swap1\n      dup2\n      add\n      0x40\n      mstore\n      dup1\n      swap3\n      swap2\n      swap1\n      dup2\n      dup2\n      mstore\n      0x20\n      add\n      dup3\n      dup1\n      sload\n      tag_60\n      swap1\n      tag_54\n      jump\t// in\n    tag_60:\n      dup1\n      iszero\n      tag_61\n      jumpi\n      dup1\n      0x1f\n      lt\n      tag_62\n      jumpi\n      0x0100\n      dup1\n      dup4\n      sload\n      div\n      mul\n      dup4\n      mstore\n      swap2\n      0x20\n      add\n      swap2\n      jump(tag_61)\n    tag_62:\n      dup3\n      add\n      swap2\n      swap1\n      0x00\n      mstore\n      keccak256(0x00, 0x20)\n      swap1\n    tag_63:\n      dup2\n      sload\n      dup2\n      mstore\n      swap1\n      0x01\n      add\n      swap1\n      0x20\n      add\n      dup1\n      dup4\n      gt\n      tag_63\n      jumpi\n      dup3\n      swap1\n      sub\n      0x1f\n      and\n      dup3\n      add\n      swap2\n    tag_61:\n      pop\n      pop\n      pop\n      pop\n      pop\n      swap1\n      dup1\n      0x03\n      add\n      0x00\n      swap1\n      sload\n      swap1\n      0x0100\n      exp\n      swap1\n      div\n      0xff\n      and\n      swap1\n      dup1\n      0x03\n      add\n      0x01\n      swap1\n      sload\n      swap1\n      0x0100\n      exp\n      swap1\n      div\n      0xffffffffffffffffffffffffffffffffffffffff\n      and\n      swap1\n      pop\n      dup6\n      jump\t// out\n        /* \"register.sol\":1778:1829  mapping(address => coordinator) public coordinators */\n    tag_25:\n      mstore(0x20, 0x04)\n      dup1\n      0x00\n      mstore\n      keccak256(0x00, 0x40)\n      0x00\n      swap2\n      pop\n      swap1\n      pop\n      dup1\n      0x00\n      add\n      dup1\n      sload\n      tag_64\n      swap1\n      tag_54\n      jump\t// in\n    tag_64:\n      dup1\n      0x1f\n      add\n      0x20\n      dup1\n      swap2\n      div\n      mul\n      0x20\n      add\n      mload(0x40)\n      swap1\n      dup2\n      add\n      0x40\n      mstore\n      dup1\n      swap3\n      swap2\n      swap1\n      dup2\n      dup2\n      mstore\n      0x20\n      add\n      dup3\n      dup1\n      sload\n      tag_65\n      swap1\n      tag_54\n      jump\t// in\n    tag_65:\n      dup1\n      iszero\n      tag_66\n      jumpi\n      dup1\n      0x1f\n      lt\n      tag_67\n      jumpi\n      0x0100\n      dup1\n      dup4\n      sload\n      div\n      mul\n      dup4\n      mstore\n      swap2\n      0x20\n      add\n      swap2\n      jump(tag_66)\n    tag_67:\n      dup3\n      add\n      swap2\n      swap1\n      0x00\n      mstore\n      keccak256(0x00, 0x20)\n      swap1\n    tag_68:\n      dup2\n      sload\n      dup2\n      mstore\n      swap1\n      0x01\n      add\n      swap1\n      0x20\n      add\n      dup1\n      dup4\n      gt\n      tag_68\n      jumpi\n      dup3\n      swap1\n      sub\n      0x1f\n      and\n      dup3\n      add\n      swap2\n    tag_66:\n      pop\n      pop\n      pop\n      pop\n      pop\n      swap1\n      dup1\n      0x01\n      add\n      dup1\n      sload\n      tag_69\n      swap1\n      tag_54\n      jump\t// in\n    tag_69:\n      dup1\n      0x1f\n      add\n      0x20\n      dup1\n      swap2\n      div\n      mul\n      0x20\n      add\n      mload(0x40)\n      swap1\n      dup2\n      add\n      0x40\n      mstore\n      dup1\n      swap3\n      swap2\n      swap1\n      dup2\n      dup2\n      mstore\n      0x20\n      add\n      dup3\n      dup1\n      sload\n      tag_70\n      swap1\n      tag_54\n      jump\t// in\n    tag_70:\n      dup1\n      iszero\n      tag_71\n      jumpi\n      dup1\n      0x1f\n      lt\n      tag_72\n      jumpi\n      0x0100\n      dup1\n      dup4\n      sload\n      div\n      mul\n      dup4\n      mstore\n      swap2\n      0x20\n      add\n      swap2\n      jump(tag_71)\n    tag_72:\n      dup3\n      add\n      swap2\n      swap1\n      0x00\n      mstore\n      keccak256(0x00, 0x20)\n      swap1\n    tag_73:\n      dup2\n      sload\n      dup2\n      mstore\n      swap1\n      0x01\n      add\n      swap1\n      0x20\n      add\n      dup1\n      dup4\n      gt\n      tag_73\n      jumpi\n      dup3\n      swap1\n      sub\n      0x1f\n      and\n      dup3\n      add\n      swap2\n    tag_71:\n      pop\n      pop\n      pop\n      pop\n      pop\n      swap1\n      dup1\n      0x02\n      add\n      dup1\n      sload\n      tag_74\n      swap1\n      tag_54\n      jump\t// in\n    tag_74:\n      dup1\n      0x1f\n      add\n      0x20\n      dup1\n      swap2\n      div\n      mul\n      0x20\n      add\n      mload(0x40)\n      swap1\n      dup2\n      add\n      0x40\n      mstore\n      dup1\n      swap3\n      swap2\n      swap1\n      dup2\n      dup2\n      mstore\n      0x20\n      add\n      dup3\n      dup1\n      sload\n      tag_75\n      swap1\n      tag_54\n      jump\t// in\n    tag_75:\n      dup1\n      iszero\n      tag_76\n      jumpi\n      dup1\n      0x1f\n      lt\n      tag_77\n      jumpi\n      0x0100\n      dup1\n      dup4\n      sload\n      div\n      mul\n      dup4\n      mstore\n      swap2\n      0x20\n      add\n      swap2\n      jump(tag_76)\n    tag_77:\n      dup3\n      add\n      swap2\n      swap1\n      0x00\n      mstore\n      keccak256(0x00, 0x20)\n      swap1\n    tag_78:\n      dup2\n      sload\n      dup2\n      mstore\n      swap1\n      0x01\n      add\n      swap1\n      0x20\n      add\n      dup1\n      dup4\n      gt\n      tag_78\n      jumpi\n      dup3\n      swap1\n      sub\n      0x1f\n      and\n      dup3\n      add\n      swap2\n    tag_76:\n      pop\n      pop\n      pop\n      pop\n      pop\n      swap1\n      dup1\n      0x03\n      add\n      0x00\n      swap1\n      sload\n      swap1\n      0x0100\n      exp\n      swap1\n      div\n      0xff\n      and\n      swap1\n      dup1\n      0x03\n      add\n      0x01\n      swap1\n      sload\n      swap1\n      0x0100\n      exp\n      swap1\n      div\n      0xffffffffffffffffffffffffffffffffffffffff\n      and\n      swap1\n      pop\n      dup6\n      jump\t// out\n        /* \"register.sol\":2722:3210  function applyForAdmin(string calldata name) public{... */\n    tag_31:\n        /* \"register.sol\":2840:2841  0 */\n      0x00\n        /* \"register.sol\":2797:2809  coordinators */\n      0x04\n        /* \"register.sol\":2797:2821  coordinators[msg.sender] */\n      0x00\n        /* \"register.sol\":2810:2820  msg.sender */\n      caller\n        /* \"register.sol\":2797:2821  coordinators[msg.sender] */\n      0xffffffffffffffffffffffffffffffffffffffff\n      and\n      0xffffffffffffffffffffffffffffffffffffffff\n      and\n      dup2\n      mstore\n      0x20\n      add\n      swap1\n      dup2\n      mstore\n      0x20\n      add\n      0x00\n      keccak256\n        /* \"register.sol\":2797:2828  coordinators[msg.sender].cordID */\n      0x01\n      add\n        /* \"register.sol\":2791:2836  bytes(coordinators[msg.sender].cordID).length */\n      dup1\n      sload\n      tag_80\n      swap1\n      tag_54\n      jump\t// in\n    tag_80:\n      swap1\n      pop\n        /* \"register.sol\":2791:2841  bytes(coordinators[msg.sender].cordID).length == 0 */\n      eq\n        /* \"register.sol\":2783:2870  require(bytes(coordinators[msg.sender].cordID).length == 0, \"This address is an admin\") */\n      tag_81\n      jumpi\n      mload(0x40)\n      0x08c379a000000000000000000000000000000000000000000000000000000000\n      dup2\n      mstore\n      0x04\n      add\n      tag_82\n      swap1\n      tag_83\n      jump\t// in\n    tag_82:\n      mload(0x40)\n      dup1\n      swap2\n      sub\n      swap1\n      revert\n    tag_81:\n        /* \"register.sol\":2932:2933  0 */\n      0x00\n        /* \"register.sol\":2894:2900  voters */\n      0x03\n        /* \"register.sol\":2894:2912  voters[msg.sender] */\n      0x00\n        /* \"register.sol\":2901:2911  msg.sender */\n      caller\n        /* \"register.sol\":2894:2912  voters[msg.sender] */\n      0xffffffffffffffffffffffffffffffffffffffff\n      and\n      0xffffffffffffffffffffffffffffffffffffffff\n      and\n      dup2\n      mstore\n      0x20\n      add\n      swap1\n      dup2\n      mstore\n      0x20\n      add\n      0x00\n      keccak256\n        /* \"register.sol\":2894:2920  voters[msg.sender].voterID */\n      0x02\n      add\n        /* \"register.sol\":2888:2928  bytes(voters[msg.sender].voterID).length */\n      dup1\n      sload\n      tag_84\n      swap1\n      tag_54\n      jump\t// in\n    tag_84:\n      swap1\n      pop\n        /* \"register.sol\":2888:2933  bytes(voters[msg.sender].voterID).length != 0 */\n      sub\n        /* \"register.sol\":2880:2999  require(bytes(voters[msg.sender].voterID).length != 0, \"This address has mot been registered in the electoral process\") */\n      tag_85\n      jumpi\n      mload(0x40)\n      0x08c379a000000000000000000000000000000000000000000000000000000000\n      dup2\n      mstore\n      0x04\n      add\n      tag_86\n      swap1\n      tag_87\n      jump\t// in\n    tag_86:\n      mload(0x40)\n      dup1\n      swap2\n      sub\n      swap1\n      revert\n    tag_85:\n        /* \"register.sol\":3010:3030  string memory cordID */\n      0x00\n        /* \"register.sol\":3053:3079  Strings.toString(regCount) */\n      tag_88\n        /* \"register.sol\":3070:3078  regCount */\n      sload(0x02)\n        /* \"register.sol\":3053:3069  Strings.toString */\n      tag_89\n        /* \"register.sol\":3053:3079  Strings.toString(regCount) */\n      jump\t// in\n    tag_88:\n        /* \"register.sol\":3033:3080  string.concat(\"COD\",Strings.toString(regCount)) */\n      add(0x20, mload(0x40))\n      tag_90\n      swap2\n      swap1\n      tag_91\n      jump\t// in\n    tag_90:\n      mload(0x40)\n      0x20\n      dup2\n      dup4\n      sub\n      sub\n      dup2\n      mstore\n      swap1\n      0x40\n      mstore\n        /* \"register.sol\":3010:3080  string memory cordID = string.concat(\"COD\",Strings.toString(regCount)) */\n      swap1\n      pop\n        /* \"register.sol\":3090:3121  voters[msg.sender].voterID = '' */\n      mload(0x40)\n      dup1\n      0x20\n      add\n      0x40\n      mstore\n      dup1\n      0x00\n      dup2\n      mstore\n      pop\n        /* \"register.sol\":3090:3096  voters */\n      0x03\n        /* \"register.sol\":3090:3108  voters[msg.sender] */\n      0x00\n        /* \"register.sol\":3097:3107  msg.sender */\n      caller\n        /* \"register.sol\":3090:3108  voters[msg.sender] */\n      0xffffffffffffffffffffffffffffffffffffffff\n      and\n      0xffffffffffffffffffffffffffffffffffffffff\n      and\n      dup2\n      mstore\n      0x20\n      add\n      swap1\n      dup2\n      mstore\n      0x20\n      add\n      0x00\n      keccak256\n        /* \"register.sol\":3090:3116  voters[msg.sender].voterID */\n      0x02\n      add\n        /* \"register.sol\":3090:3121  voters[msg.sender].voterID = '' */\n      swap1\n      dup2\n      tag_92\n      swap2\n      swap1\n      tag_93\n      jump\t// in\n    tag_92:\n      pop\n        /* \"register.sol\":3157:3203  coordinator(name,cordID,\"\",false, msg.sender ) */\n      mload(0x40)\n      dup1\n      0xa0\n      add\n      0x40\n      mstore\n      dup1\n        /* \"register.sol\":3169:3173  name */\n      dup5\n      dup5\n        /* \"register.sol\":3157:3203  coordinator(name,cordID,\"\",false, msg.sender ) */\n      dup1\n      dup1\n      0x1f\n      add\n      0x20\n      dup1\n      swap2\n      div\n      mul\n      0x20\n      add\n      mload(0x40)\n      swap1\n      dup2\n      add\n      0x40\n      mstore\n      dup1\n      swap4\n      swap3\n      swap2\n      swap1\n      dup2\n      dup2\n      mstore\n      0x20\n      add\n      dup4\n      dup4\n      dup1\n      dup3\n      dup5\n      calldatacopy\n      0x00\n      dup2\n      dup5\n      add\n      mstore\n      not(0x1f)\n      0x1f\n      dup3\n      add\n      and\n      swap1\n      pop\n      dup1\n      dup4\n      add\n      swap3\n      pop\n      pop\n      pop\n      pop\n      pop\n      pop\n      pop\n      dup2\n      mstore\n      0x20\n      add\n        /* \"register.sol\":3174:3180  cordID */\n      dup3\n        /* \"register.sol\":3157:3203  coordinator(name,cordID,\"\",false, msg.sender ) */\n      dup2\n      mstore\n      0x20\n      add\n      mload(0x40)\n      dup1\n      0x20\n      add\n      0x40\n      mstore\n      dup1\n      0x00\n      dup2\n      mstore\n      pop\n      dup2\n      mstore\n      0x20\n      add\n        /* \"register.sol\":3184:3189  false */\n      0x00\n        /* \"register.sol\":3157:3203  coordinator(name,cordID,\"\",false, msg.sender ) */\n      iszero\n      iszero\n      dup2\n      mstore\n      0x20\n      add\n        /* \"register.sol\":3191:3201  msg.sender */\n      caller\n        /* \"register.sol\":3157:3203  coordinator(name,cordID,\"\",false, msg.sender ) */\n      0xffffffffffffffffffffffffffffffffffffffff\n      and\n      dup2\n      mstore\n      pop\n        /* \"register.sol\":3131:3143  coordinators */\n      0x04\n        /* \"register.sol\":3131:3155  coordinators[msg.sender] */\n      0x00\n        /* \"register.sol\":3144:3154  msg.sender */\n      caller\n        /* \"register.sol\":3131:3155  coordinators[msg.sender] */\n      0xffffffffffffffffffffffffffffffffffffffff\n      and\n      0xffffffffffffffffffffffffffffffffffffffff\n      and\n      dup2\n      mstore\n      0x20\n      add\n      swap1\n      dup2\n      mstore\n      0x20\n      add\n      0x00\n      keccak256\n        /* \"register.sol\":3131:3203  coordinators[msg.sender]= coordinator(name,cordID,\"\",false, msg.sender ) */\n      0x00\n      dup3\n      add\n      mload\n      dup2\n      0x00\n      add\n      swap1\n      dup2\n      tag_94\n      swap2\n      swap1\n      tag_93\n      jump\t// in\n    tag_94:\n      pop\n      0x20\n      dup3\n      add\n      mload\n      dup2\n      0x01\n      add\n      swap1\n      dup2\n      tag_95\n      swap2\n      swap1\n      tag_93\n      jump\t// in\n    tag_95:\n      pop\n      0x40\n      dup3\n      add\n      mload\n      dup2\n      0x02\n      add\n      swap1\n      dup2\n      tag_96\n      swap2\n      swap1\n      tag_93\n      jump\t// in\n    tag_96:\n      pop\n      0x60\n      dup3\n      add\n      mload\n      dup2\n      0x03\n      add\n      exp(0x0100, 0x00)\n      dup2\n      sload\n      dup2\n      0xff\n      mul\n      not\n      and\n      swap1\n      dup4\n      iszero\n      iszero\n      mul\n      or\n      swap1\n      sstore\n      pop\n      0x80\n      dup3\n      add\n      mload\n      dup2\n      0x03\n      add\n      exp(0x0100, 0x01)\n      dup2\n      sload\n      dup2\n      0xffffffffffffffffffffffffffffffffffffffff\n      mul\n      not\n      and\n      swap1\n      dup4\n      0xffffffffffffffffffffffffffffffffffffffff\n      and\n      mul\n      or\n      swap1\n      sstore\n      pop\n      swap1\n      pop\n      pop\n        /* \"register.sol\":2773:3210  {... */\n      pop\n        /* \"register.sol\":2722:3210  function applyForAdmin(string calldata name) public{... */\n      pop\n      pop\n      jump\t// out\n        /* \"register.sol\":2031:2493  function registerDetails(string calldata name, uint age) public returns (voter memory) {... */\n    tag_35:\n        /* \"register.sol\":2104:2116  voter memory */\n      tag_97\n      tag_98\n      jump\t// in\n    tag_97:\n        /* \"register.sol\":2142:2144  17 */\n      0x11\n        /* \"register.sol\":2136:2139  age */\n      dup3\n        /* \"register.sol\":2136:2144  age > 17 */\n      gt\n        /* \"register.sol\":2128:2169  require(age > 17, \"not eligible to vote\") */\n      tag_100\n      jumpi\n      mload(0x40)\n      0x08c379a000000000000000000000000000000000000000000000000000000000\n      dup2\n      mstore\n      0x04\n      add\n      tag_101\n      swap1\n      tag_102\n      jump\t// in\n    tag_101:\n      mload(0x40)\n      dup1\n      swap2\n      sub\n      swap1\n      revert\n    tag_100:\n        /* \"register.sol\":2231:2232  0 */\n      0x00\n        /* \"register.sol\":2193:2199  voters */\n      0x03\n        /* \"register.sol\":2193:2211  voters[msg.sender] */\n      0x00\n        /* \"register.sol\":2200:2210  msg.sender */\n      caller\n        /* \"register.sol\":2193:2211  voters[msg.sender] */\n      0xffffffffffffffffffffffffffffffffffffffff\n      and\n      0xffffffffffffffffffffffffffffffffffffffff\n      and\n      dup2\n      mstore\n      0x20\n      add\n      swap1\n      dup2\n      mstore\n      0x20\n      add\n      0x00\n      keccak256\n        /* \"register.sol\":2193:2219  voters[msg.sender].voterID */\n      0x02\n      add\n        /* \"register.sol\":2187:2227  bytes(voters[msg.sender].voterID).length */\n      dup1\n      sload\n      tag_103\n      swap1\n      tag_54\n      jump\t// in\n    tag_103:\n      swap1\n      pop\n        /* \"register.sol\":2187:2232  bytes(voters[msg.sender].voterID).length == 0 */\n      eq\n        /* \"register.sol\":2179:2269  require(bytes(voters[msg.sender].voterID).length == 0, \"This address has been registered\") */\n      tag_104\n      jumpi\n      mload(0x40)\n      0x08c379a000000000000000000000000000000000000000000000000000000000\n      dup2\n      mstore\n      0x04\n      add\n      tag_105\n      swap1\n      tag_106\n      jump\t// in\n    tag_105:\n      mload(0x40)\n      dup1\n      swap2\n      sub\n      swap1\n      revert\n    tag_104:\n        /* \"register.sol\":2280:2301  string memory voterID */\n      0x00\n        /* \"register.sol\":2324:2350  Strings.toString(regCount) */\n      tag_107\n        /* \"register.sol\":2341:2349  regCount */\n      sload(0x02)\n        /* \"register.sol\":2324:2340  Strings.toString */\n      tag_89\n        /* \"register.sol\":2324:2350  Strings.toString(regCount) */\n      jump\t// in\n    tag_107:\n        /* \"register.sol\":2304:2351  string.concat(\"NIG\",Strings.toString(regCount)) */\n      add(0x20, mload(0x40))\n      tag_108\n      swap2\n      swap1\n      tag_109\n      jump\t// in\n    tag_108:\n      mload(0x40)\n      0x20\n      dup2\n      dup4\n      sub\n      sub\n      dup2\n      mstore\n      swap1\n      0x40\n      mstore\n        /* \"register.sol\":2280:2351  string memory voterID = string.concat(\"NIG\",Strings.toString(regCount)) */\n      swap1\n      pop\n        /* \"register.sol\":2383:2426  voter(name, age, voterID,false, msg.sender) */\n      mload(0x40)\n      dup1\n      0xa0\n      add\n      0x40\n      mstore\n      dup1\n        /* \"register.sol\":2389:2393  name */\n      dup7\n      dup7\n        /* \"register.sol\":2383:2426  voter(name, age, voterID,false, msg.sender) */\n      dup1\n      dup1\n      0x1f\n      add\n      0x20\n      dup1\n      swap2\n      div\n      mul\n      0x20\n      add\n      mload(0x40)\n      swap1\n      dup2\n      add\n      0x40\n      mstore\n      dup1\n      swap4\n      swap3\n      swap2\n      swap1\n      dup2\n      dup2\n      mstore\n      0x20\n      add\n      dup4\n      dup4\n      dup1\n      dup3\n      dup5\n      calldatacopy\n      0x00\n      dup2\n      dup5\n      add\n      mstore\n      not(0x1f)\n      0x1f\n      dup3\n      add\n      and\n      swap1\n      pop\n      dup1\n      dup4\n      add\n      swap3\n      pop\n      pop\n      pop\n      pop\n      pop\n      pop\n      pop\n      dup2\n      mstore\n      0x20\n      add\n        /* \"register.sol\":2395:2398  age */\n      dup5\n        /* \"register.sol\":2383:2426  voter(name, age, voterID,false, msg.sender) */\n      dup2\n      mstore\n      0x20\n      add\n        /* \"register.sol\":2400:2407  voterID */\n      dup3\n        /* \"register.sol\":2383:2426  voter(name, age, voterID,false, msg.sender) */\n      dup2\n      mstore\n      0x20\n      add\n        /* \"register.sol\":2408:2413  false */\n      0x00\n        /* \"register.sol\":2383:2426  voter(name, age, voterID,false, msg.sender) */\n      iszero\n      iszero\n      dup2\n      mstore\n      0x20\n      add\n        /* \"register.sol\":2415:2425  msg.sender */\n      caller\n        /* \"register.sol\":2383:2426  voter(name, age, voterID,false, msg.sender) */\n      0xffffffffffffffffffffffffffffffffffffffff\n      and\n      dup2\n      mstore\n      pop\n        /* \"register.sol\":2362:2368  voters */\n      0x03\n        /* \"register.sol\":2362:2380  voters[msg.sender] */\n      0x00\n        /* \"register.sol\":2369:2379  msg.sender */\n      caller\n        /* \"register.sol\":2362:2380  voters[msg.sender] */\n      0xffffffffffffffffffffffffffffffffffffffff\n      and\n      0xffffffffffffffffffffffffffffffffffffffff\n      and\n      dup2\n      mstore\n      0x20\n      add\n      swap1\n      dup2\n      mstore\n      0x20\n      add\n      0x00\n      keccak256\n        /* \"register.sol\":2362:2426  voters[msg.sender] = voter(name, age, voterID,false, msg.sender) */\n      0x00\n      dup3\n      add\n      mload\n      dup2\n      0x00\n      add\n      swap1\n      dup2\n      tag_110\n      swap2\n      swap1\n      tag_93\n      jump\t// in\n    tag_110:\n      pop\n      0x20\n      dup3\n      add\n      mload\n      dup2\n      0x01\n      add\n      sstore\n      0x40\n      dup3\n      add\n      mload\n      dup2\n      0x02\n      add\n      swap1\n      dup2\n      tag_111\n      swap2\n      swap1\n      tag_93\n      jump\t// in\n    tag_111:\n      pop\n      0x60\n      dup3\n      add\n      mload\n      dup2\n      0x03\n      add\n      exp(0x0100, 0x00)\n      dup2\n      sload\n      dup2\n      0xff\n      mul\n      not\n      and\n      swap1\n      dup4\n      iszero\n      iszero\n      mul\n      or\n      swap1\n      sstore\n      pop\n      0x80\n      dup3\n      add\n      mload\n      dup2\n      0x03\n      add\n      exp(0x0100, 0x01)\n      dup2\n      sload\n      dup2\n      0xffffffffffffffffffffffffffffffffffffffff\n      mul\n      not\n      and\n      swap1\n      dup4\n      0xffffffffffffffffffffffffffffffffffffffff\n      and\n      mul\n      or\n      swap1\n      sstore\n      pop\n      swap1\n      pop\n      pop\n        /* \"register.sol\":2449:2450  1 */\n      0x01\n        /* \"register.sol\":2437:2445  regCount */\n      0x02\n      0x00\n        /* \"register.sol\":2437:2450  regCount += 1 */\n      dup3\n      dup3\n      sload\n      tag_112\n      swap2\n      swap1\n      tag_113\n      jump\t// in\n    tag_112:\n      swap3\n      pop\n      pop\n      dup2\n      swap1\n      sstore\n      pop\n        /* \"register.sol\":2468:2474  voters */\n      0x03\n        /* \"register.sol\":2468:2486  voters[msg.sender] */\n      0x00\n        /* \"register.sol\":2475:2485  msg.sender */\n      caller\n        /* \"register.sol\":2468:2486  voters[msg.sender] */\n      0xffffffffffffffffffffffffffffffffffffffff\n      and\n      0xffffffffffffffffffffffffffffffffffffffff\n      and\n      dup2\n      mstore\n      0x20\n      add\n      swap1\n      dup2\n      mstore\n      0x20\n      add\n      0x00\n      keccak256\n        /* \"register.sol\":2461:2486  return voters[msg.sender] */\n      mload(0x40)\n      dup1\n      0xa0\n      add\n      0x40\n      mstore\n      swap1\n      dup2\n      0x00\n      dup3\n      add\n      dup1\n      sload\n      tag_114\n      swap1\n      tag_54\n      jump\t// in\n    tag_114:\n      dup1\n      0x1f\n      add\n      0x20\n      dup1\n      swap2\n      div\n      mul\n      0x20\n      add\n      mload(0x40)\n      swap1\n      dup2\n      add\n      0x40\n      mstore\n      dup1\n      swap3\n      swap2\n      swap1\n      dup2\n      dup2\n      mstore\n      0x20\n      add\n      dup3\n      dup1\n      sload\n      tag_115\n      swap1\n      tag_54\n      jump\t// in\n    tag_115:\n      dup1\n      iszero\n      tag_116\n      jumpi\n      dup1\n      0x1f\n      lt\n      tag_117\n      jumpi\n      0x0100\n      dup1\n      dup4\n      sload\n      div\n      mul\n      dup4\n      mstore\n      swap2\n      0x20\n      add\n      swap2\n      jump(tag_116)\n    tag_117:\n      dup3\n      add\n      swap2\n      swap1\n      0x00\n      mstore\n      keccak256(0x00, 0x20)\n      swap1\n    tag_118:\n      dup2\n      sload\n      dup2\n      mstore\n      swap1\n      0x01\n      add\n      swap1\n      0x20\n      add\n      dup1\n      dup4\n      gt\n      tag_118\n      jumpi\n      dup3\n      swap1\n      sub\n      0x1f\n      and\n      dup3\n      add\n      swap2\n    tag_116:\n      pop\n      pop\n      pop\n      pop\n      pop\n      dup2\n      mstore\n      0x20\n      add\n      0x01\n      dup3\n      add\n      sload\n      dup2\n      mstore\n      0x20\n      add\n      0x02\n      dup3\n      add\n      dup1\n      sload\n      tag_119\n      swap1\n      tag_54\n      jump\t// in\n    tag_119:\n      dup1\n      0x1f\n      add\n      0x20\n      dup1\n      swap2\n      div\n      mul\n      0x20\n      add\n      mload(0x40)\n      swap1\n      dup2\n      add\n      0x40\n      mstore\n      dup1\n      swap3\n      swap2\n      swap1\n      dup2\n      dup2\n      mstore\n      0x20\n      add\n      dup3\n      dup1\n      sload\n      tag_120\n      swap1\n      tag_54\n      jump\t// in\n    tag_120:\n      dup1\n      iszero\n      tag_121\n      jumpi\n      dup1\n      0x1f\n      lt\n      tag_122\n      jumpi\n      0x0100\n      dup1\n      dup4\n      sload\n      div\n      mul\n      dup4\n      mstore\n      swap2\n      0x20\n      add\n      swap2\n      jump(tag_121)\n    tag_122:\n      dup3\n      add\n      swap2\n      swap1\n      0x00\n      mstore\n      keccak256(0x00, 0x20)\n      swap1\n    tag_123:\n      dup2\n      sload\n      dup2\n      mstore\n      swap1\n      0x01\n      add\n      swap1\n      0x20\n      add\n      dup1\n      dup4\n      gt\n      tag_123\n      jumpi\n      dup3\n      swap1\n      sub\n      0x1f\n      and\n      dup3\n      add\n      swap2\n    tag_121:\n      pop\n      pop\n      pop\n      pop\n      pop\n      dup2\n      mstore\n      0x20\n      add\n      0x03\n      dup3\n      add\n      0x00\n      swap1\n      sload\n      swap1\n      0x0100\n      exp\n      swap1\n      div\n      0xff\n      and\n      iszero\n      iszero\n      iszero\n      iszero\n      dup2\n      mstore\n      0x20\n      add\n      0x03\n      dup3\n      add\n      0x01\n      swap1\n      sload\n      swap1\n      0x0100\n      exp\n      swap1\n      div\n      0xffffffffffffffffffffffffffffffffffffffff\n      and\n      0xffffffffffffffffffffffffffffffffffffffff\n      and\n      0xffffffffffffffffffffffffffffffffffffffff\n      and\n      dup2\n      mstore\n      pop\n      pop\n      swap2\n      pop\n      pop\n        /* \"register.sol\":2031:2493  function registerDetails(string calldata name, uint age) public returns (voter memory) {... */\n      swap4\n      swap3\n      pop\n      pop\n      pop\n      jump\t// out\n        /* \"register.sol\":1679:1707  address public contractOwner */\n    tag_39:\n      0x01\n      0x00\n      swap1\n      sload\n      swap1\n      0x0100\n      exp\n      swap1\n      div\n      0xffffffffffffffffffffffffffffffffffffffff\n      and\n      dup2\n      jump\t// out\n        /* \"register.sol\":2500:2612  function confirmApplication() public view returns(bool){... */\n    tag_42:\n        /* \"register.sol\":2550:2554  bool */\n      0x00\n        /* \"register.sol\":2572:2578  voters */\n      0x03\n        /* \"register.sol\":2572:2590  voters[msg.sender] */\n      0x00\n        /* \"register.sol\":2579:2589  msg.sender */\n      caller\n        /* \"register.sol\":2572:2590  voters[msg.sender] */\n      0xffffffffffffffffffffffffffffffffffffffff\n      and\n      0xffffffffffffffffffffffffffffffffffffffff\n      and\n      dup2\n      mstore\n      0x20\n      add\n      swap1\n      dup2\n      mstore\n      0x20\n      add\n      0x00\n      keccak256\n        /* \"register.sol\":2572:2605  voters[msg.sender].canApplyToVote */\n      0x03\n      add\n      0x00\n      swap1\n      sload\n      swap1\n      0x0100\n      exp\n      swap1\n      div\n      0xff\n      and\n        /* \"register.sol\":2565:2605  return voters[msg.sender].canApplyToVote */\n      swap1\n      pop\n        /* \"register.sol\":2500:2612  function confirmApplication() public view returns(bool){... */\n      swap1\n      jump\t// out\n        /* \"register.sol\":3216:3441  function isElectionCoord(string calldata electionID, address cordAddr) public view returns(bool){... */\n    tag_48:\n        /* \"register.sol\":3307:3311  bool */\n      0x00\n        /* \"register.sol\":3422:3432  electionID */\n      dup4\n      dup4\n        /* \"register.sol\":3405:3433  abi.encodePacked(electionID) */\n      add(0x20, mload(0x40))\n      tag_126\n      swap3\n      swap2\n      swap1\n      tag_127\n      jump\t// in\n    tag_126:\n      mload(0x40)\n      0x20\n      dup2\n      dup4\n      sub\n      sub\n      dup2\n      mstore\n      swap1\n      0x40\n      mstore\n        /* \"register.sol\":3395:3434  keccak256(abi.encodePacked(electionID)) */\n      dup1\n      mload\n      swap1\n      0x20\n      add\n      keccak256\n        /* \"register.sol\":3356:3368  coordinators */\n      0x04\n        /* \"register.sol\":3356:3378  coordinators[cordAddr] */\n      0x00\n        /* \"register.sol\":3369:3377  cordAddr */\n      dup5\n        /* \"register.sol\":3356:3378  coordinators[cordAddr] */\n      0xffffffffffffffffffffffffffffffffffffffff\n      and\n      0xffffffffffffffffffffffffffffffffffffffff\n      and\n      dup2\n      mstore\n      0x20\n      add\n      swap1\n      dup2\n      mstore\n      0x20\n      add\n      0x00\n      keccak256\n        /* \"register.sol\":3356:3389  coordinators[cordAddr].electionID */\n      0x02\n      add\n        /* \"register.sol\":3339:3390  abi.encodePacked(coordinators[cordAddr].electionID) */\n      add(0x20, mload(0x40))\n      tag_128\n      swap2\n      swap1\n      tag_129\n      jump\t// in\n    tag_128:\n      mload(0x40)\n      0x20\n      dup2\n      dup4\n      sub\n      sub\n      dup2\n      mstore\n      swap1\n      0x40\n      mstore\n        /* \"register.sol\":3329:3391  keccak256(abi.encodePacked(coordinators[cordAddr].electionID)) */\n      dup1\n      mload\n      swap1\n      0x20\n      add\n      keccak256\n        /* \"register.sol\":3329:3434  keccak256(abi.encodePacked(coordinators[cordAddr].electionID)) == keccak256(abi.encodePacked(electionID)) */\n      eq\n        /* \"register.sol\":3322:3434  return keccak256(abi.encodePacked(coordinators[cordAddr].electionID)) == keccak256(abi.encodePacked(electionID)) */\n      swap1\n      pop\n        /* \"register.sol\":3216:3441  function isElectionCoord(string calldata electionID, address cordAddr) public view returns(bool){... */\n      swap4\n      swap3\n      pop\n      pop\n      pop\n      jump\t// out\n        /* \"register.sol\":2618:2716  function getDetails() public view returns (voter memory){... */\n    tag_51:\n        /* \"register.sol\":2661:2673  voter memory */\n      tag_130\n      tag_98\n      jump\t// in\n    tag_130:\n        /* \"register.sol\":2691:2697  voters */\n      0x03\n        /* \"register.sol\":2691:2709  voters[msg.sender] */\n      0x00\n        /* \"register.sol\":2698:2708  msg.sender */\n      caller\n        /* \"register.sol\":2691:2709  voters[msg.sender] */\n      0xffffffffffffffffffffffffffffffffffffffff\n      and\n      0xffffffffffffffffffffffffffffffffffffffff\n      and\n      dup2\n      mstore\n      0x20\n      add\n      swap1\n      dup2\n      mstore\n      0x20\n      add\n      0x00\n      keccak256\n        /* \"register.sol\":2684:2709  return voters[msg.sender] */\n      mload(0x40)\n      dup1\n      0xa0\n      add\n      0x40\n      mstore\n      swap1\n      dup2\n      0x00\n      dup3\n      add\n      dup1\n      sload\n      tag_132\n      swap1\n      tag_54\n      jump\t// in\n    tag_132:\n      dup1\n      0x1f\n      add\n      0x20\n      dup1\n      swap2\n      div\n      mul\n      0x20\n      add\n      mload(0x40)\n      swap1\n      dup2\n      add\n      0x40\n      mstore\n      dup1\n      swap3\n      swap2\n      swap1\n      dup2\n      dup2\n      mstore\n      0x20\n      add\n      dup3\n      dup1\n      sload\n      tag_133\n      swap1\n      tag_54\n      jump\t// in\n    tag_133:\n      dup1\n      iszero\n      tag_134\n      jumpi\n      dup1\n      0x1f\n      lt\n      tag_135\n      jumpi\n      0x0100\n      dup1\n      dup4\n      sload\n      div\n      mul\n      dup4\n      mstore\n      swap2\n      0x20\n      add\n      swap2\n      jump(tag_134)\n    tag_135:\n      dup3\n      add\n      swap2\n      swap1\n      0x00\n      mstore\n      keccak256(0x00, 0x20)\n      swap1\n    tag_136:\n      dup2\n      sload\n      dup2\n      mstore\n      swap1\n      0x01\n      add\n      swap1\n      0x20\n      add\n      dup1\n      dup4\n      gt\n      tag_136\n      jumpi\n      dup3\n      swap1\n      sub\n      0x1f\n      and\n      dup3\n      add\n      swap2\n    tag_134:\n      pop\n      pop\n      pop\n      pop\n      pop\n      dup2\n      mstore\n      0x20\n      add\n      0x01\n      dup3\n      add\n      sload\n      dup2\n      mstore\n      0x20\n      add\n      0x02\n      dup3\n      add\n      dup1\n      sload\n      tag_137\n      swap1\n      tag_54\n      jump\t// in\n    tag_137:\n      dup1\n      0x1f\n      add\n      0x20\n      dup1\n      swap2\n      div\n      mul\n      0x20\n      add\n      mload(0x40)\n      swap1\n      dup2\n      add\n      0x40\n      mstore\n      dup1\n      swap3\n      swap2\n      swap1\n      dup2\n      dup2\n      mstore\n      0x20\n      add\n      dup3\n      dup1\n      sload\n      tag_138\n      swap1\n      tag_54\n      jump\t// in\n    tag_138:\n      dup1\n      iszero\n      tag_139\n      jumpi\n      dup1\n      0x1f\n      lt\n      tag_140\n      jumpi\n      0x0100\n      dup1\n      dup4\n      sload\n      div\n      mul\n      dup4\n      mstore\n      swap2\n      0x20\n      add\n      swap2\n      jump(tag_139)\n    tag_140:\n      dup3\n      add\n      swap2\n      swap1\n      0x00\n      mstore\n      keccak256(0x00, 0x20)\n      swap1\n    tag_141:\n      dup2\n      sload\n      dup2\n      mstore\n      swap1\n      0x01\n      add\n      swap1\n      0x20\n      add\n      dup1\n      dup4\n      gt\n      tag_141\n      jumpi\n      dup3\n      swap1\n      sub\n      0x1f\n      and\n      dup3\n      add\n      swap2\n    tag_139:\n      pop\n      pop\n      pop\n      pop\n      pop\n      dup2\n      mstore\n      0x20\n      add\n      0x03\n      dup3\n      add\n      0x00\n      swap1\n      sload\n      swap1\n      0x0100\n      exp\n      swap1\n      div\n      0xff\n      and\n      iszero\n      iszero\n      iszero\n      iszero\n      dup2\n      mstore\n      0x20\n      add\n      0x03\n      dup3\n      add\n      0x01\n      swap1\n      sload\n      swap1\n      0x0100\n      exp\n      swap1\n      div\n      0xffffffffffffffffffffffffffffffffffffffff\n      and\n      0xffffffffffffffffffffffffffffffffffffffff\n      and\n      0xffffffffffffffffffffffffffffffffffffffff\n      and\n      dup2\n      mstore\n      pop\n      pop\n      swap1\n      pop\n        /* \"register.sol\":2618:2716  function getDetails() public view returns (voter memory){... */\n      swap1\n      jump\t// out\n        /* \"@openzeppelin/contracts/utils/Strings.sol\":415:1111  function toString(uint256 value) internal pure returns (string memory) {... */\n    tag_89:\n        /* \"@openzeppelin/contracts/utils/Strings.sol\":471:484  string memory */\n      0x60\n        /* \"@openzeppelin/contracts/utils/Strings.sol\":520:534  uint256 length */\n      0x00\n        /* \"@openzeppelin/contracts/utils/Strings.sol\":557:558  1 */\n      0x01\n        /* \"@openzeppelin/contracts/utils/Strings.sol\":537:554  Math.log10(value) */\n      tag_143\n        /* \"@openzeppelin/contracts/utils/Strings.sol\":548:553  value */\n      dup5\n        /* \"@openzeppelin/contracts/utils/Strings.sol\":537:547  Math.log10 */\n      tag_144\n        /* \"@openzeppelin/contracts/utils/Strings.sol\":537:554  Math.log10(value) */\n      jump\t// in\n    tag_143:\n        /* \"@openzeppelin/contracts/utils/Strings.sol\":537:558  Math.log10(value) + 1 */\n      add\n        /* \"@openzeppelin/contracts/utils/Strings.sol\":520:558  uint256 length = Math.log10(value) + 1 */\n      swap1\n      pop\n        /* \"@openzeppelin/contracts/utils/Strings.sol\":572:592  string memory buffer */\n      0x00\n        /* \"@openzeppelin/contracts/utils/Strings.sol\":606:612  length */\n      dup2\n        /* \"@openzeppelin/contracts/utils/Strings.sol\":595:613  new string(length) */\n      0xffffffffffffffff\n      dup2\n      gt\n      iszero\n      tag_145\n      jumpi\n      tag_146\n      tag_147\n      jump\t// in\n    tag_146:\n    tag_145:\n      mload(0x40)\n      swap1\n      dup1\n      dup3\n      mstore\n      dup1\n      0x1f\n      add\n      not(0x1f)\n      and\n      0x20\n      add\n      dup3\n      add\n      0x40\n      mstore\n      dup1\n      iszero\n      tag_148\n      jumpi\n      dup2\n      0x20\n      add\n      0x01\n      dup3\n      mul\n      dup1\n      calldatasize\n      dup4\n      calldatacopy\n      dup1\n      dup3\n      add\n      swap2\n      pop\n      pop\n      swap1\n      pop\n    tag_148:\n      pop\n        /* \"@openzeppelin/contracts/utils/Strings.sol\":572:613  string memory buffer = new string(length) */\n      swap1\n      pop\n        /* \"@openzeppelin/contracts/utils/Strings.sol\":627:638  uint256 ptr */\n      0x00\n        /* \"@openzeppelin/contracts/utils/Strings.sol\":753:759  length */\n      dup3\n        /* \"@openzeppelin/contracts/utils/Strings.sol\":749:751  32 */\n      0x20\n        /* \"@openzeppelin/contracts/utils/Strings.sol\":745:760  add(32, length) */\n      add\n        /* \"@openzeppelin/contracts/utils/Strings.sol\":737:743  buffer */\n      dup3\n        /* \"@openzeppelin/contracts/utils/Strings.sol\":733:761  add(buffer, add(32, length)) */\n      add\n        /* \"@openzeppelin/contracts/utils/Strings.sol\":726:761  ptr := add(buffer, add(32, length)) */\n      swap1\n      pop\n        /* \"@openzeppelin/contracts/utils/Strings.sol\":788:1068  while (true) {... */\n    tag_149:\n        /* \"@openzeppelin/contracts/utils/Strings.sol\":795:799  true */\n      0x01\n        /* \"@openzeppelin/contracts/utils/Strings.sol\":788:1068  while (true) {... */\n      iszero\n      tag_150\n      jumpi\n        /* \"@openzeppelin/contracts/utils/Strings.sol\":819:824  ptr-- */\n      dup1\n      dup1\n      0x01\n      swap1\n      sub\n      swap2\n      pop\n      pop\n        /* \"@openzeppelin/contracts/utils/Strings.sol\":958:966  _SYMBOLS */\n      0x3031323334353637383961626364656600000000000000000000000000000000\n        /* \"@openzeppelin/contracts/utils/Strings.sol\":953:955  10 */\n      0x0a\n        /* \"@openzeppelin/contracts/utils/Strings.sol\":946:951  value */\n      dup7\n        /* \"@openzeppelin/contracts/utils/Strings.sol\":942:956  mod(value, 10) */\n      mod\n        /* \"@openzeppelin/contracts/utils/Strings.sol\":937:967  byte(mod(value, 10), _SYMBOLS) */\n      byte\n        /* \"@openzeppelin/contracts/utils/Strings.sol\":932:935  ptr */\n      dup2\n        /* \"@openzeppelin/contracts/utils/Strings.sol\":924:968  mstore8(ptr, byte(mod(value, 10), _SYMBOLS)) */\n      mstore8\n        /* \"@openzeppelin/contracts/utils/Strings.sol\":1012:1014  10 */\n      0x0a\n        /* \"@openzeppelin/contracts/utils/Strings.sol\":1003:1014  value /= 10 */\n      dup6\n      dup2\n      tag_151\n      jumpi\n      tag_152\n      tag_153\n      jump\t// in\n    tag_152:\n    tag_151:\n      div\n      swap5\n      pop\n        /* \"@openzeppelin/contracts/utils/Strings.sol\":1045:1046  0 */\n      0x00\n        /* \"@openzeppelin/contracts/utils/Strings.sol\":1036:1041  value */\n      dup6\n        /* \"@openzeppelin/contracts/utils/Strings.sol\":1036:1046  value == 0 */\n      sub\n        /* \"@openzeppelin/contracts/utils/Strings.sol\":788:1068  while (true) {... */\n      tag_149\n        /* \"@openzeppelin/contracts/utils/Strings.sol\":1032:1053  if (value == 0) break */\n      jumpi\n        /* \"@openzeppelin/contracts/utils/Strings.sol\":788:1068  while (true) {... */\n    tag_150:\n        /* \"@openzeppelin/contracts/utils/Strings.sol\":1088:1094  buffer */\n      dup2\n        /* \"@openzeppelin/contracts/utils/Strings.sol\":1081:1094  return buffer */\n      swap4\n      pop\n      pop\n      pop\n      pop\n        /* \"@openzeppelin/contracts/utils/Strings.sol\":415:1111  function toString(uint256 value) internal pure returns (string memory) {... */\n      swap2\n      swap1\n      pop\n      jump\t// out\n        /* \"@openzeppelin/contracts/utils/math/Math.sol\":9889:10779  function log10(uint256 value) internal pure returns (uint256) {... */\n    tag_144:\n        /* \"@openzeppelin/contracts/utils/math/Math.sol\":9942:9949  uint256 */\n      0x00\n        /* \"@openzeppelin/contracts/utils/math/Math.sol\":9961:9975  uint256 result */\n      dup1\n        /* \"@openzeppelin/contracts/utils/math/Math.sol\":9978:9979  0 */\n      0x00\n        /* \"@openzeppelin/contracts/utils/math/Math.sol\":9961:9979  uint256 result = 0 */\n      swap1\n      pop\n        /* \"@openzeppelin/contracts/utils/math/Math.sol\":10026:10032  10**64 */\n      0x184f03e93ff9f4daa797ed6e38ed64bf6a1f010000000000000000\n        /* \"@openzeppelin/contracts/utils/math/Math.sol\":10017:10022  value */\n      dup4\n        /* \"@openzeppelin/contracts/utils/math/Math.sol\":10017:10032  value >= 10**64 */\n      lt\n        /* \"@openzeppelin/contracts/utils/math/Math.sol\":10013:10112  if (value >= 10**64) {... */\n      tag_156\n      jumpi\n        /* \"@openzeppelin/contracts/utils/math/Math.sol\":10061:10067  10**64 */\n      0x184f03e93ff9f4daa797ed6e38ed64bf6a1f010000000000000000\n        /* \"@openzeppelin/contracts/utils/math/Math.sol\":10052:10067  value /= 10**64 */\n      dup4\n      dup2\n      tag_157\n      jumpi\n      tag_158\n      tag_153\n      jump\t// in\n    tag_158:\n    tag_157:\n      div\n      swap3\n      pop\n        /* \"@openzeppelin/contracts/utils/math/Math.sol\":10095:10097  64 */\n      0x40\n        /* \"@openzeppelin/contracts/utils/math/Math.sol\":10085:10097  result += 64 */\n      dup2\n      add\n      swap1\n      pop\n        /* \"@openzeppelin/contracts/utils/math/Math.sol\":10013:10112  if (value >= 10**64) {... */\n    tag_156:\n        /* \"@openzeppelin/contracts/utils/math/Math.sol\":10138:10144  10**32 */\n      0x04ee2d6d415b85acef8100000000\n        /* \"@openzeppelin/contracts/utils/math/Math.sol\":10129:10134  value */\n      dup4\n        /* \"@openzeppelin/contracts/utils/math/Math.sol\":10129:10144  value >= 10**32 */\n      lt\n        /* \"@openzeppelin/contracts/utils/math/Math.sol\":10125:10224  if (value >= 10**32) {... */\n      tag_159\n      jumpi\n        /* \"@openzeppelin/contracts/utils/math/Math.sol\":10173:10179  10**32 */\n      0x04ee2d6d415b85acef8100000000\n        /* \"@openzeppelin/contracts/utils/math/Math.sol\":10164:10179  value /= 10**32 */\n      dup4\n      dup2\n      tag_160\n      jumpi\n      tag_161\n      tag_153\n      jump\t// in\n    tag_161:\n    tag_160:\n      div\n      swap3\n      pop\n        /* \"@openzeppelin/contracts/utils/math/Math.sol\":10207:10209  32 */\n      0x20\n        /* \"@openzeppelin/contracts/utils/math/Math.sol\":10197:10209  result += 32 */\n      dup2\n      add\n      swap1\n      pop\n        /* \"@openzeppelin/contracts/utils/math/Math.sol\":10125:10224  if (value >= 10**32) {... */\n    tag_159:\n        /* \"@openzeppelin/contracts/utils/math/Math.sol\":10250:10256  10**16 */\n      0x2386f26fc10000\n        /* \"@openzeppelin/contracts/utils/math/Math.sol\":10241:10246  value */\n      dup4\n        /* \"@openzeppelin/contracts/utils/math/Math.sol\":10241:10256  value >= 10**16 */\n      lt\n        /* \"@openzeppelin/contracts/utils/math/Math.sol\":10237:10336  if (value >= 10**16) {... */\n      tag_162\n      jumpi\n        /* \"@openzeppelin/contracts/utils/math/Math.sol\":10285:10291  10**16 */\n      0x2386f26fc10000\n        /* \"@openzeppelin/contracts/utils/math/Math.sol\":10276:10291  value /= 10**16 */\n      dup4\n      dup2\n      tag_163\n      jumpi\n      tag_164\n      tag_153\n      jump\t// in\n    tag_164:\n    tag_163:\n      div\n      swap3\n      pop\n        /* \"@openzeppelin/contracts/utils/math/Math.sol\":10319:10321  16 */\n      0x10\n        /* \"@openzeppelin/contracts/utils/math/Math.sol\":10309:10321  result += 16 */\n      dup2\n      add\n      swap1\n      pop\n        /* \"@openzeppelin/contracts/utils/math/Math.sol\":10237:10336  if (value >= 10**16) {... */\n    tag_162:\n        /* \"@openzeppelin/contracts/utils/math/Math.sol\":10362:10367  10**8 */\n      0x05f5e100\n        /* \"@openzeppelin/contracts/utils/math/Math.sol\":10353:10358  value */\n      dup4\n        /* \"@openzeppelin/contracts/utils/math/Math.sol\":10353:10367  value >= 10**8 */\n      lt\n        /* \"@openzeppelin/contracts/utils/math/Math.sol\":10349:10445  if (value >= 10**8) {... */\n      tag_165\n      jumpi\n        /* \"@openzeppelin/contracts/utils/math/Math.sol\":10396:10401  10**8 */\n      0x05f5e100\n        /* \"@openzeppelin/contracts/utils/math/Math.sol\":10387:10401  value /= 10**8 */\n      dup4\n      dup2\n      tag_166\n      jumpi\n      tag_167\n      tag_153\n      jump\t// in\n    tag_167:\n    tag_166:\n      div\n      swap3\n      pop\n        /* \"@openzeppelin/contracts/utils/math/Math.sol\":10429:10430  8 */\n      0x08\n        /* \"@openzeppelin/contracts/utils/math/Math.sol\":10419:10430  result += 8 */\n      dup2\n      add\n      swap1\n      pop\n        /* \"@openzeppelin/contracts/utils/math/Math.sol\":10349:10445  if (value >= 10**8) {... */\n    tag_165:\n        /* \"@openzeppelin/contracts/utils/math/Math.sol\":10471:10476  10**4 */\n      0x2710\n        /* \"@openzeppelin/contracts/utils/math/Math.sol\":10462:10467  value */\n      dup4\n        /* \"@openzeppelin/contracts/utils/math/Math.sol\":10462:10476  value >= 10**4 */\n      lt\n        /* \"@openzeppelin/contracts/utils/math/Math.sol\":10458:10554  if (value >= 10**4) {... */\n      tag_168\n      jumpi\n        /* \"@openzeppelin/contracts/utils/math/Math.sol\":10505:10510  10**4 */\n      0x2710\n        /* \"@openzeppelin/contracts/utils/math/Math.sol\":10496:10510  value /= 10**4 */\n      dup4\n      dup2\n      tag_169\n      jumpi\n      tag_170\n      tag_153\n      jump\t// in\n    tag_170:\n    tag_169:\n      div\n      swap3\n      pop\n        /* \"@openzeppelin/contracts/utils/math/Math.sol\":10538:10539  4 */\n      0x04\n        /* \"@openzeppelin/contracts/utils/math/Math.sol\":10528:10539  result += 4 */\n      dup2\n      add\n      swap1\n      pop\n        /* \"@openzeppelin/contracts/utils/math/Math.sol\":10458:10554  if (value >= 10**4) {... */\n    tag_168:\n        /* \"@openzeppelin/contracts/utils/math/Math.sol\":10580:10585  10**2 */\n      0x64\n        /* \"@openzeppelin/contracts/utils/math/Math.sol\":10571:10576  value */\n      dup4\n        /* \"@openzeppelin/contracts/utils/math/Math.sol\":10571:10585  value >= 10**2 */\n      lt\n        /* \"@openzeppelin/contracts/utils/math/Math.sol\":10567:10663  if (value >= 10**2) {... */\n      tag_171\n      jumpi\n        /* \"@openzeppelin/contracts/utils/math/Math.sol\":10614:10619  10**2 */\n      0x64\n        /* \"@openzeppelin/contracts/utils/math/Math.sol\":10605:10619  value /= 10**2 */\n      dup4\n      dup2\n      tag_172\n      jumpi\n      tag_173\n      tag_153\n      jump\t// in\n    tag_173:\n    tag_172:\n      div\n      swap3\n      pop\n        /* \"@openzeppelin/contracts/utils/math/Math.sol\":10647:10648  2 */\n      0x02\n        /* \"@openzeppelin/contracts/utils/math/Math.sol\":10637:10648  result += 2 */\n      dup2\n      add\n      swap1\n      pop\n        /* \"@openzeppelin/contracts/utils/math/Math.sol\":10567:10663  if (value >= 10**2) {... */\n    tag_171:\n        /* \"@openzeppelin/contracts/utils/math/Math.sol\":10689:10694  10**1 */\n      0x0a\n        /* \"@openzeppelin/contracts/utils/math/Math.sol\":10680:10685  value */\n      dup4\n        /* \"@openzeppelin/contracts/utils/math/Math.sol\":10680:10694  value >= 10**1 */\n      lt\n        /* \"@openzeppelin/contracts/utils/math/Math.sol\":10676:10740  if (value >= 10**1) {... */\n      tag_174\n      jumpi\n        /* \"@openzeppelin/contracts/utils/math/Math.sol\":10724:10725  1 */\n      0x01\n        /* \"@openzeppelin/contracts/utils/math/Math.sol\":10714:10725  result += 1 */\n      dup2\n      add\n      swap1\n      pop\n        /* \"@openzeppelin/contracts/utils/math/Math.sol\":10676:10740  if (value >= 10**1) {... */\n    tag_174:\n        /* \"@openzeppelin/contracts/utils/math/Math.sol\":10766:10772  result */\n      dup1\n        /* \"@openzeppelin/contracts/utils/math/Math.sol\":10759:10772  return result */\n      swap2\n      pop\n      pop\n        /* \"@openzeppelin/contracts/utils/math/Math.sol\":9889:10779  function log10(uint256 value) internal pure returns (uint256) {... */\n      swap2\n      swap1\n      pop\n      jump\t// out\n    tag_98:\n      mload(0x40)\n      dup1\n      0xa0\n      add\n      0x40\n      mstore\n      dup1\n      0x60\n      dup2\n      mstore\n      0x20\n      add\n      0x00\n      dup2\n      mstore\n      0x20\n      add\n      0x60\n      dup2\n      mstore\n      0x20\n      add\n      iszero(iszero(0x00))\n      dup2\n      mstore\n      0x20\n      add\n      and(0xffffffffffffffffffffffffffffffffffffffff, 0x00)\n      dup2\n      mstore\n      pop\n      swap1\n      jump\t// out\n        /* \"#utility.yul\":7:133   */\n    tag_175:\n        /* \"#utility.yul\":44:51   */\n      0x00\n        /* \"#utility.yul\":84:126   */\n      0xffffffffffffffffffffffffffffffffffffffff\n        /* \"#utility.yul\":77:82   */\n      dup3\n        /* \"#utility.yul\":73:127   */\n      and\n        /* \"#utility.yul\":62:127   */\n      swap1\n      pop\n        /* \"#utility.yul\":7:133   */\n      swap2\n      swap1\n      pop\n      jump\t// out\n        /* \"#utility.yul\":139:235   */\n    tag_176:\n        /* \"#utility.yul\":176:183   */\n      0x00\n        /* \"#utility.yul\":205:229   */\n      tag_239\n        /* \"#utility.yul\":223:228   */\n      dup3\n        /* \"#utility.yul\":205:229   */\n      tag_175\n      jump\t// in\n    tag_239:\n        /* \"#utility.yul\":194:229   */\n      swap1\n      pop\n        /* \"#utility.yul\":139:235   */\n      swap2\n      swap1\n      pop\n      jump\t// out\n        /* \"#utility.yul\":241:359   */\n    tag_177:\n        /* \"#utility.yul\":328:352   */\n      tag_241\n        /* \"#utility.yul\":346:351   */\n      dup2\n        /* \"#utility.yul\":328:352   */\n      tag_176\n      jump\t// in\n    tag_241:\n        /* \"#utility.yul\":323:326   */\n      dup3\n        /* \"#utility.yul\":316:353   */\n      mstore\n        /* \"#utility.yul\":241:359   */\n      pop\n      pop\n      jump\t// out\n        /* \"#utility.yul\":365:587   */\n    tag_16:\n        /* \"#utility.yul\":458:462   */\n      0x00\n        /* \"#utility.yul\":496:498   */\n      0x20\n        /* \"#utility.yul\":485:494   */\n      dup3\n        /* \"#utility.yul\":481:499   */\n      add\n        /* \"#utility.yul\":473:499   */\n      swap1\n      pop\n        /* \"#utility.yul\":509:580   */\n      tag_243\n        /* \"#utility.yul\":577:578   */\n      0x00\n        /* \"#utility.yul\":566:575   */\n      dup4\n        /* \"#utility.yul\":562:579   */\n      add\n        /* \"#utility.yul\":553:559   */\n      dup5\n        /* \"#utility.yul\":509:580   */\n      tag_177\n      jump\t// in\n    tag_243:\n        /* \"#utility.yul\":365:587   */\n      swap3\n      swap2\n      pop\n      pop\n      jump\t// out\n        /* \"#utility.yul\":674:791   */\n    tag_179:\n        /* \"#utility.yul\":783:784   */\n      0x00\n        /* \"#utility.yul\":780:781   */\n      dup1\n        /* \"#utility.yul\":773:785   */\n      revert\n        /* \"#utility.yul\":797:914   */\n    tag_180:\n        /* \"#utility.yul\":906:907   */\n      0x00\n        /* \"#utility.yul\":903:904   */\n      dup1\n        /* \"#utility.yul\":896:908   */\n      revert\n        /* \"#utility.yul\":920:1042   */\n    tag_181:\n        /* \"#utility.yul\":993:1017   */\n      tag_248\n        /* \"#utility.yul\":1011:1016   */\n      dup2\n        /* \"#utility.yul\":993:1017   */\n      tag_176\n      jump\t// in\n    tag_248:\n        /* \"#utility.yul\":986:991   */\n      dup2\n        /* \"#utility.yul\":983:1018   */\n      eq\n        /* \"#utility.yul\":973:1036   */\n      tag_249\n      jumpi\n        /* \"#utility.yul\":1032:1033   */\n      0x00\n        /* \"#utility.yul\":1029:1030   */\n      dup1\n        /* \"#utility.yul\":1022:1034   */\n      revert\n        /* \"#utility.yul\":973:1036   */\n    tag_249:\n        /* \"#utility.yul\":920:1042   */\n      pop\n      jump\t// out\n        /* \"#utility.yul\":1048:1187   */\n    tag_182:\n        /* \"#utility.yul\":1094:1099   */\n      0x00\n        /* \"#utility.yul\":1132:1138   */\n      dup2\n        /* \"#utility.yul\":1119:1139   */\n      calldataload\n        /* \"#utility.yul\":1110:1139   */\n      swap1\n      pop\n        /* \"#utility.yul\":1148:1181   */\n      tag_251\n        /* \"#utility.yul\":1175:1180   */\n      dup2\n        /* \"#utility.yul\":1148:1181   */\n      tag_181\n      jump\t// in\n    tag_251:\n        /* \"#utility.yul\":1048:1187   */\n      swap3\n      swap2\n      pop\n      pop\n      jump\t// out\n        /* \"#utility.yul\":1193:1522   */\n    tag_19:\n        /* \"#utility.yul\":1252:1258   */\n      0x00\n        /* \"#utility.yul\":1301:1303   */\n      0x20\n        /* \"#utility.yul\":1289:1298   */\n      dup3\n        /* \"#utility.yul\":1280:1287   */\n      dup5\n        /* \"#utility.yul\":1276:1299   */\n      sub\n        /* \"#utility.yul\":1272:1304   */\n      slt\n        /* \"#utility.yul\":1269:1388   */\n      iszero\n      tag_253\n      jumpi\n        /* \"#utility.yul\":1307:1386   */\n      tag_254\n      tag_179\n      jump\t// in\n    tag_254:\n        /* \"#utility.yul\":1269:1388   */\n    tag_253:\n        /* \"#utility.yul\":1427:1428   */\n      0x00\n        /* \"#utility.yul\":1452:1505   */\n      tag_255\n        /* \"#utility.yul\":1497:1504   */\n      dup5\n        /* \"#utility.yul\":1488:1494   */\n      dup3\n        /* \"#utility.yul\":1477:1486   */\n      dup6\n        /* \"#utility.yul\":1473:1495   */\n      add\n        /* \"#utility.yul\":1452:1505   */\n      tag_182\n      jump\t// in\n    tag_255:\n        /* \"#utility.yul\":1442:1505   */\n      swap2\n      pop\n        /* \"#utility.yul\":1398:1515   */\n      pop\n        /* \"#utility.yul\":1193:1522   */\n      swap3\n      swap2\n      pop\n      pop\n      jump\t// out\n        /* \"#utility.yul\":1528:1627   */\n    tag_183:\n        /* \"#utility.yul\":1580:1586   */\n      0x00\n        /* \"#utility.yul\":1614:1619   */\n      dup2\n        /* \"#utility.yul\":1608:1620   */\n      mload\n        /* \"#utility.yul\":1598:1620   */\n      swap1\n      pop\n        /* \"#utility.yul\":1528:1627   */\n      swap2\n      swap1\n      pop\n      jump\t// out\n        /* \"#utility.yul\":1633:1802   */\n    tag_184:\n        /* \"#utility.yul\":1717:1728   */\n      0x00\n        /* \"#utility.yul\":1751:1757   */\n      dup3\n        /* \"#utility.yul\":1746:1749   */\n      dup3\n        /* \"#utility.yul\":1739:1758   */\n      mstore\n        /* \"#utility.yul\":1791:1795   */\n      0x20\n        /* \"#utility.yul\":1786:1789   */\n      dup3\n        /* \"#utility.yul\":1782:1796   */\n      add\n        /* \"#utility.yul\":1767:1796   */\n      swap1\n      pop\n        /* \"#utility.yul\":1633:1802   */\n      swap3\n      swap2\n      pop\n      pop\n      jump\t// out\n        /* \"#utility.yul\":1808:2054   */\n    tag_185:\n        /* \"#utility.yul\":1889:1890   */\n      0x00\n        /* \"#utility.yul\":1899:2012   */\n    tag_259:\n        /* \"#utility.yul\":1913:1919   */\n      dup4\n        /* \"#utility.yul\":1910:1911   */\n      dup2\n        /* \"#utility.yul\":1907:1920   */\n      lt\n        /* \"#utility.yul\":1899:2012   */\n      iszero\n      tag_261\n      jumpi\n        /* \"#utility.yul\":1998:1999   */\n      dup1\n        /* \"#utility.yul\":1993:1996   */\n      dup3\n        /* \"#utility.yul\":1989:2000   */\n      add\n        /* \"#utility.yul\":1983:2001   */\n      mload\n        /* \"#utility.yul\":1979:1980   */\n      dup2\n        /* \"#utility.yul\":1974:1977   */\n      dup5\n        /* \"#utility.yul\":1970:1981   */\n      add\n        /* \"#utility.yul\":1963:2002   */\n      mstore\n        /* \"#utility.yul\":1935:1937   */\n      0x20\n        /* \"#utility.yul\":1932:1933   */\n      dup2\n        /* \"#utility.yul\":1928:1938   */\n      add\n        /* \"#utility.yul\":1923:1938   */\n      swap1\n      pop\n        /* \"#utility.yul\":1899:2012   */\n      jump(tag_259)\n    tag_261:\n        /* \"#utility.yul\":2046:2047   */\n      0x00\n        /* \"#utility.yul\":2037:2043   */\n      dup5\n        /* \"#utility.yul\":2032:2035   */\n      dup5\n        /* \"#utility.yul\":2028:2044   */\n      add\n        /* \"#utility.yul\":2021:2048   */\n      mstore\n        /* \"#utility.yul\":1870:2054   */\n      pop\n        /* \"#utility.yul\":1808:2054   */\n      pop\n      pop\n      pop\n      jump\t// out\n        /* \"#utility.yul\":2060:2162   */\n    tag_186:\n        /* \"#utility.yul\":2101:2107   */\n      0x00\n        /* \"#utility.yul\":2152:2154   */\n      0x1f\n        /* \"#utility.yul\":2148:2155   */\n      not\n        /* \"#utility.yul\":2143:2145   */\n      0x1f\n        /* \"#utility.yul\":2136:2141   */\n      dup4\n        /* \"#utility.yul\":2132:2146   */\n      add\n        /* \"#utility.yul\":2128:2156   */\n      and\n        /* \"#utility.yul\":2118:2156   */\n      swap1\n      pop\n        /* \"#utility.yul\":2060:2162   */\n      swap2\n      swap1\n      pop\n      jump\t// out\n        /* \"#utility.yul\":2168:2545   */\n    tag_187:\n        /* \"#utility.yul\":2256:2259   */\n      0x00\n        /* \"#utility.yul\":2284:2323   */\n      tag_264\n        /* \"#utility.yul\":2317:2322   */\n      dup3\n        /* \"#utility.yul\":2284:2323   */\n      tag_183\n      jump\t// in\n    tag_264:\n        /* \"#utility.yul\":2339:2410   */\n      tag_265\n        /* \"#utility.yul\":2403:2409   */\n      dup2\n        /* \"#utility.yul\":2398:2401   */\n      dup6\n        /* \"#utility.yul\":2339:2410   */\n      tag_184\n      jump\t// in\n    tag_265:\n        /* \"#utility.yul\":2332:2410   */\n      swap4\n      pop\n        /* \"#utility.yul\":2419:2484   */\n      tag_266\n        /* \"#utility.yul\":2477:2483   */\n      dup2\n        /* \"#utility.yul\":2472:2475   */\n      dup6\n        /* \"#utility.yul\":2465:2469   */\n      0x20\n        /* \"#utility.yul\":2458:2463   */\n      dup7\n        /* \"#utility.yul\":2454:2470   */\n      add\n        /* \"#utility.yul\":2419:2484   */\n      tag_185\n      jump\t// in\n    tag_266:\n        /* \"#utility.yul\":2509:2538   */\n      tag_267\n        /* \"#utility.yul\":2531:2537   */\n      dup2\n        /* \"#utility.yul\":2509:2538   */\n      tag_186\n      jump\t// in\n    tag_267:\n        /* \"#utility.yul\":2504:2507   */\n      dup5\n        /* \"#utility.yul\":2500:2539   */\n      add\n        /* \"#utility.yul\":2493:2539   */\n      swap2\n      pop\n        /* \"#utility.yul\":2260:2545   */\n      pop\n        /* \"#utility.yul\":2168:2545   */\n      swap3\n      swap2\n      pop\n      pop\n      jump\t// out\n        /* \"#utility.yul\":2551:2628   */\n    tag_188:\n        /* \"#utility.yul\":2588:2595   */\n      0x00\n        /* \"#utility.yul\":2617:2622   */\n      dup2\n        /* \"#utility.yul\":2606:2622   */\n      swap1\n      pop\n        /* \"#utility.yul\":2551:2628   */\n      swap2\n      swap1\n      pop\n      jump\t// out\n        /* \"#utility.yul\":2634:2752   */\n    tag_189:\n        /* \"#utility.yul\":2721:2745   */\n      tag_270\n        /* \"#utility.yul\":2739:2744   */\n      dup2\n        /* \"#utility.yul\":2721:2745   */\n      tag_188\n      jump\t// in\n    tag_270:\n        /* \"#utility.yul\":2716:2719   */\n      dup3\n        /* \"#utility.yul\":2709:2746   */\n      mstore\n        /* \"#utility.yul\":2634:2752   */\n      pop\n      pop\n      jump\t// out\n        /* \"#utility.yul\":2758:2848   */\n    tag_190:\n        /* \"#utility.yul\":2792:2799   */\n      0x00\n        /* \"#utility.yul\":2835:2840   */\n      dup2\n        /* \"#utility.yul\":2828:2841   */\n      iszero\n        /* \"#utility.yul\":2821:2842   */\n      iszero\n        /* \"#utility.yul\":2810:2842   */\n      swap1\n      pop\n        /* \"#utility.yul\":2758:2848   */\n      swap2\n      swap1\n      pop\n      jump\t// out\n        /* \"#utility.yul\":2854:2963   */\n    tag_191:\n        /* \"#utility.yul\":2935:2956   */\n      tag_273\n        /* \"#utility.yul\":2950:2955   */\n      dup2\n        /* \"#utility.yul\":2935:2956   */\n      tag_190\n      jump\t// in\n    tag_273:\n        /* \"#utility.yul\":2930:2933   */\n      dup3\n        /* \"#utility.yul\":2923:2957   */\n      mstore\n        /* \"#utility.yul\":2854:2963   */\n      pop\n      pop\n      jump\t// out\n        /* \"#utility.yul\":2969:3803   */\n    tag_22:\n        /* \"#utility.yul\":3208:3212   */\n      0x00\n        /* \"#utility.yul\":3246:3249   */\n      0xa0\n        /* \"#utility.yul\":3235:3244   */\n      dup3\n        /* \"#utility.yul\":3231:3250   */\n      add\n        /* \"#utility.yul\":3223:3250   */\n      swap1\n      pop\n        /* \"#utility.yul\":3296:3305   */\n      dup2\n        /* \"#utility.yul\":3290:3294   */\n      dup2\n        /* \"#utility.yul\":3286:3306   */\n      sub\n        /* \"#utility.yul\":3282:3283   */\n      0x00\n        /* \"#utility.yul\":3271:3280   */\n      dup4\n        /* \"#utility.yul\":3267:3284   */\n      add\n        /* \"#utility.yul\":3260:3307   */\n      mstore\n        /* \"#utility.yul\":3324:3402   */\n      tag_275\n        /* \"#utility.yul\":3397:3401   */\n      dup2\n        /* \"#utility.yul\":3388:3394   */\n      dup9\n        /* \"#utility.yul\":3324:3402   */\n      tag_187\n      jump\t// in\n    tag_275:\n        /* \"#utility.yul\":3316:3402   */\n      swap1\n      pop\n        /* \"#utility.yul\":3412:3484   */\n      tag_276\n        /* \"#utility.yul\":3480:3482   */\n      0x20\n        /* \"#utility.yul\":3469:3478   */\n      dup4\n        /* \"#utility.yul\":3465:3483   */\n      add\n        /* \"#utility.yul\":3456:3462   */\n      dup8\n        /* \"#utility.yul\":3412:3484   */\n      tag_189\n      jump\t// in\n    tag_276:\n        /* \"#utility.yul\":3531:3540   */\n      dup2\n        /* \"#utility.yul\":3525:3529   */\n      dup2\n        /* \"#utility.yul\":3521:3541   */\n      sub\n        /* \"#utility.yul\":3516:3518   */\n      0x40\n        /* \"#utility.yul\":3505:3514   */\n      dup4\n        /* \"#utility.yul\":3501:3519   */\n      add\n        /* \"#utility.yul\":3494:3542   */\n      mstore\n        /* \"#utility.yul\":3559:3637   */\n      tag_277\n        /* \"#utility.yul\":3632:3636   */\n      dup2\n        /* \"#utility.yul\":3623:3629   */\n      dup7\n        /* \"#utility.yul\":3559:3637   */\n      tag_187\n      jump\t// in\n    tag_277:\n        /* \"#utility.yul\":3551:3637   */\n      swap1\n      pop\n        /* \"#utility.yul\":3647:3713   */\n      tag_278\n        /* \"#utility.yul\":3709:3711   */\n      0x60\n        /* \"#utility.yul\":3698:3707   */\n      dup4\n        /* \"#utility.yul\":3694:3712   */\n      add\n        /* \"#utility.yul\":3685:3691   */\n      dup6\n        /* \"#utility.yul\":3647:3713   */\n      tag_191\n      jump\t// in\n    tag_278:\n        /* \"#utility.yul\":3723:3796   */\n      tag_279\n        /* \"#utility.yul\":3791:3794   */\n      0x80\n        /* \"#utility.yul\":3780:3789   */\n      dup4\n        /* \"#utility.yul\":3776:3795   */\n      add\n        /* \"#utility.yul\":3767:3773   */\n      dup5\n        /* \"#utility.yul\":3723:3796   */\n      tag_177\n      jump\t// in\n    tag_279:\n        /* \"#utility.yul\":2969:3803   */\n      swap7\n      swap6\n      pop\n      pop\n      pop\n      pop\n      pop\n      pop\n      jump\t// out\n        /* \"#utility.yul\":3809:4734   */\n    tag_27:\n        /* \"#utility.yul\":4068:4072   */\n      0x00\n        /* \"#utility.yul\":4106:4109   */\n      0xa0\n        /* \"#utility.yul\":4095:4104   */\n      dup3\n        /* \"#utility.yul\":4091:4110   */\n      add\n        /* \"#utility.yul\":4083:4110   */\n      swap1\n      pop\n        /* \"#utility.yul\":4156:4165   */\n      dup2\n        /* \"#utility.yul\":4150:4154   */\n      dup2\n        /* \"#utility.yul\":4146:4166   */\n      sub\n        /* \"#utility.yul\":4142:4143   */\n      0x00\n        /* \"#utility.yul\":4131:4140   */\n      dup4\n        /* \"#utility.yul\":4127:4144   */\n      add\n        /* \"#utility.yul\":4120:4167   */\n      mstore\n        /* \"#utility.yul\":4184:4262   */\n      tag_281\n        /* \"#utility.yul\":4257:4261   */\n      dup2\n        /* \"#utility.yul\":4248:4254   */\n      dup9\n        /* \"#utility.yul\":4184:4262   */\n      tag_187\n      jump\t// in\n    tag_281:\n        /* \"#utility.yul\":4176:4262   */\n      swap1\n      pop\n        /* \"#utility.yul\":4309:4318   */\n      dup2\n        /* \"#utility.yul\":4303:4307   */\n      dup2\n        /* \"#utility.yul\":4299:4319   */\n      sub\n        /* \"#utility.yul\":4294:4296   */\n      0x20\n        /* \"#utility.yul\":4283:4292   */\n      dup4\n        /* \"#utility.yul\":4279:4297   */\n      add\n        /* \"#utility.yul\":4272:4320   */\n      mstore\n        /* \"#utility.yul\":4337:4415   */\n      tag_282\n        /* \"#utility.yul\":4410:4414   */\n      dup2\n        /* \"#utility.yul\":4401:4407   */\n      dup8\n        /* \"#utility.yul\":4337:4415   */\n      tag_187\n      jump\t// in\n    tag_282:\n        /* \"#utility.yul\":4329:4415   */\n      swap1\n      pop\n        /* \"#utility.yul\":4462:4471   */\n      dup2\n        /* \"#utility.yul\":4456:4460   */\n      dup2\n        /* \"#utility.yul\":4452:4472   */\n      sub\n        /* \"#utility.yul\":4447:4449   */\n      0x40\n        /* \"#utility.yul\":4436:4445   */\n      dup4\n        /* \"#utility.yul\":4432:4450   */\n      add\n        /* \"#utility.yul\":4425:4473   */\n      mstore\n        /* \"#utility.yul\":4490:4568   */\n      tag_283\n        /* \"#utility.yul\":4563:4567   */\n      dup2\n        /* \"#utility.yul\":4554:4560   */\n      dup7\n        /* \"#utility.yul\":4490:4568   */\n      tag_187\n      jump\t// in\n    tag_283:\n        /* \"#utility.yul\":4482:4568   */\n      swap1\n      pop\n        /* \"#utility.yul\":4578:4644   */\n      tag_284\n        /* \"#utility.yul\":4640:4642   */\n      0x60\n        /* \"#utility.yul\":4629:4638   */\n      dup4\n        /* \"#utility.yul\":4625:4643   */\n      add\n        /* \"#utility.yul\":4616:4622   */\n      dup6\n        /* \"#utility.yul\":4578:4644   */\n      tag_191\n      jump\t// in\n    tag_284:\n        /* \"#utility.yul\":4654:4727   */\n      tag_285\n        /* \"#utility.yul\":4722:4725   */\n      0x80\n        /* \"#utility.yul\":4711:4720   */\n      dup4\n        /* \"#utility.yul\":4707:4726   */\n      add\n        /* \"#utility.yul\":4698:4704   */\n      dup5\n        /* \"#utility.yul\":4654:4727   */\n      tag_177\n      jump\t// in\n    tag_285:\n        /* \"#utility.yul\":3809:4734   */\n      swap7\n      swap6\n      pop\n      pop\n      pop\n      pop\n      pop\n      pop\n      jump\t// out\n        /* \"#utility.yul\":4740:4857   */\n    tag_192:\n        /* \"#utility.yul\":4849:4850   */\n      0x00\n        /* \"#utility.yul\":4846:4847   */\n      dup1\n        /* \"#utility.yul\":4839:4851   */\n      revert\n        /* \"#utility.yul\":4863:4980   */\n    tag_193:\n        /* \"#utility.yul\":4972:4973   */\n      0x00\n        /* \"#utility.yul\":4969:4970   */\n      dup1\n        /* \"#utility.yul\":4962:4974   */\n      revert\n        /* \"#utility.yul\":4986:5103   */\n    tag_194:\n        /* \"#utility.yul\":5095:5096   */\n      0x00\n        /* \"#utility.yul\":5092:5093   */\n      dup1\n        /* \"#utility.yul\":5085:5097   */\n      revert\n        /* \"#utility.yul\":5123:5676   */\n    tag_195:\n        /* \"#utility.yul\":5181:5189   */\n      0x00\n        /* \"#utility.yul\":5191:5197   */\n      dup1\n        /* \"#utility.yul\":5241:5244   */\n      dup4\n        /* \"#utility.yul\":5234:5238   */\n      0x1f\n        /* \"#utility.yul\":5226:5232   */\n      dup5\n        /* \"#utility.yul\":5222:5239   */\n      add\n        /* \"#utility.yul\":5218:5245   */\n      slt\n        /* \"#utility.yul\":5208:5330   */\n      tag_290\n      jumpi\n        /* \"#utility.yul\":5249:5328   */\n      tag_291\n      tag_192\n      jump\t// in\n    tag_291:\n        /* \"#utility.yul\":5208:5330   */\n    tag_290:\n        /* \"#utility.yul\":5362:5368   */\n      dup3\n        /* \"#utility.yul\":5349:5369   */\n      calldataload\n        /* \"#utility.yul\":5339:5369   */\n      swap1\n      pop\n        /* \"#utility.yul\":5392:5410   */\n      0xffffffffffffffff\n        /* \"#utility.yul\":5384:5390   */\n      dup2\n        /* \"#utility.yul\":5381:5411   */\n      gt\n        /* \"#utility.yul\":5378:5495   */\n      iszero\n      tag_292\n      jumpi\n        /* \"#utility.yul\":5414:5493   */\n      tag_293\n      tag_193\n      jump\t// in\n    tag_293:\n        /* \"#utility.yul\":5378:5495   */\n    tag_292:\n        /* \"#utility.yul\":5528:5532   */\n      0x20\n        /* \"#utility.yul\":5520:5526   */\n      dup4\n        /* \"#utility.yul\":5516:5533   */\n      add\n        /* \"#utility.yul\":5504:5533   */\n      swap2\n      pop\n        /* \"#utility.yul\":5582:5585   */\n      dup4\n        /* \"#utility.yul\":5574:5578   */\n      0x01\n        /* \"#utility.yul\":5566:5572   */\n      dup3\n        /* \"#utility.yul\":5562:5579   */\n      mul\n        /* \"#utility.yul\":5552:5560   */\n      dup4\n        /* \"#utility.yul\":5548:5580   */\n      add\n        /* \"#utility.yul\":5545:5586   */\n      gt\n        /* \"#utility.yul\":5542:5670   */\n      iszero\n      tag_294\n      jumpi\n        /* \"#utility.yul\":5589:5668   */\n      tag_295\n      tag_194\n      jump\t// in\n    tag_295:\n        /* \"#utility.yul\":5542:5670   */\n    tag_294:\n        /* \"#utility.yul\":5123:5676   */\n      swap3\n      pop\n      swap3\n      swap1\n      pop\n      jump\t// out\n        /* \"#utility.yul\":5682:6211   */\n    tag_30:\n        /* \"#utility.yul\":5753:5759   */\n      0x00\n        /* \"#utility.yul\":5761:5767   */\n      dup1\n        /* \"#utility.yul\":5810:5812   */\n      0x20\n        /* \"#utility.yul\":5798:5807   */\n      dup4\n        /* \"#utility.yul\":5789:5796   */\n      dup6\n        /* \"#utility.yul\":5785:5808   */\n      sub\n        /* \"#utility.yul\":5781:5813   */\n      slt\n        /* \"#utility.yul\":5778:5897   */\n      iszero\n      tag_297\n      jumpi\n        /* \"#utility.yul\":5816:5895   */\n      tag_298\n      tag_179\n      jump\t// in\n    tag_298:\n        /* \"#utility.yul\":5778:5897   */\n    tag_297:\n        /* \"#utility.yul\":5964:5965   */\n      0x00\n        /* \"#utility.yul\":5953:5962   */\n      dup4\n        /* \"#utility.yul\":5949:5966   */\n      add\n        /* \"#utility.yul\":5936:5967   */\n      calldataload\n        /* \"#utility.yul\":5994:6012   */\n      0xffffffffffffffff\n        /* \"#utility.yul\":5986:5992   */\n      dup2\n        /* \"#utility.yul\":5983:6013   */\n      gt\n        /* \"#utility.yul\":5980:6097   */\n      iszero\n      tag_299\n      jumpi\n        /* \"#utility.yul\":6016:6095   */\n      tag_300\n      tag_180\n      jump\t// in\n    tag_300:\n        /* \"#utility.yul\":5980:6097   */\n    tag_299:\n        /* \"#utility.yul\":6129:6194   */\n      tag_301\n        /* \"#utility.yul\":6186:6193   */\n      dup6\n        /* \"#utility.yul\":6177:6183   */\n      dup3\n        /* \"#utility.yul\":6166:6175   */\n      dup7\n        /* \"#utility.yul\":6162:6184   */\n      add\n        /* \"#utility.yul\":6129:6194   */\n      tag_195\n      jump\t// in\n    tag_301:\n        /* \"#utility.yul\":6111:6194   */\n      swap3\n      pop\n      swap3\n      pop\n        /* \"#utility.yul\":5907:6204   */\n      pop\n        /* \"#utility.yul\":5682:6211   */\n      swap3\n      pop\n      swap3\n      swap1\n      pop\n      jump\t// out\n        /* \"#utility.yul\":6217:6339   */\n    tag_196:\n        /* \"#utility.yul\":6290:6314   */\n      tag_303\n        /* \"#utility.yul\":6308:6313   */\n      dup2\n        /* \"#utility.yul\":6290:6314   */\n      tag_188\n      jump\t// in\n    tag_303:\n        /* \"#utility.yul\":6283:6288   */\n      dup2\n        /* \"#utility.yul\":6280:6315   */\n      eq\n        /* \"#utility.yul\":6270:6333   */\n      tag_304\n      jumpi\n        /* \"#utility.yul\":6329:6330   */\n      0x00\n        /* \"#utility.yul\":6326:6327   */\n      dup1\n        /* \"#utility.yul\":6319:6331   */\n      revert\n        /* \"#utility.yul\":6270:6333   */\n    tag_304:\n        /* \"#utility.yul\":6217:6339   */\n      pop\n      jump\t// out\n        /* \"#utility.yul\":6345:6484   */\n    tag_197:\n        /* \"#utility.yul\":6391:6396   */\n      0x00\n        /* \"#utility.yul\":6429:6435   */\n      dup2\n        /* \"#utility.yul\":6416:6436   */\n      calldataload\n        /* \"#utility.yul\":6407:6436   */\n      swap1\n      pop\n        /* \"#utility.yul\":6445:6478   */\n      tag_306\n        /* \"#utility.yul\":6472:6477   */\n      dup2\n        /* \"#utility.yul\":6445:6478   */\n      tag_196\n      jump\t// in\n    tag_306:\n        /* \"#utility.yul\":6345:6484   */\n      swap3\n      swap2\n      pop\n      pop\n      jump\t// out\n        /* \"#utility.yul\":6490:7164   */\n    tag_34:\n        /* \"#utility.yul\":6570:6576   */\n      0x00\n        /* \"#utility.yul\":6578:6584   */\n      dup1\n        /* \"#utility.yul\":6586:6592   */\n      0x00\n        /* \"#utility.yul\":6635:6637   */\n      0x40\n        /* \"#utility.yul\":6623:6632   */\n      dup5\n        /* \"#utility.yul\":6614:6621   */\n      dup7\n        /* \"#utility.yul\":6610:6633   */\n      sub\n        /* \"#utility.yul\":6606:6638   */\n      slt\n        /* \"#utility.yul\":6603:6722   */\n      iszero\n      tag_308\n      jumpi\n        /* \"#utility.yul\":6641:6720   */\n      tag_309\n      tag_179\n      jump\t// in\n    tag_309:\n        /* \"#utility.yul\":6603:6722   */\n    tag_308:\n        /* \"#utility.yul\":6789:6790   */\n      0x00\n        /* \"#utility.yul\":6778:6787   */\n      dup5\n        /* \"#utility.yul\":6774:6791   */\n      add\n        /* \"#utility.yul\":6761:6792   */\n      calldataload\n        /* \"#utility.yul\":6819:6837   */\n      0xffffffffffffffff\n        /* \"#utility.yul\":6811:6817   */\n      dup2\n        /* \"#utility.yul\":6808:6838   */\n      gt\n        /* \"#utility.yul\":6805:6922   */\n      iszero\n      tag_310\n      jumpi\n        /* \"#utility.yul\":6841:6920   */\n      tag_311\n      tag_180\n      jump\t// in\n    tag_311:\n        /* \"#utility.yul\":6805:6922   */\n    tag_310:\n        /* \"#utility.yul\":6954:7019   */\n      tag_312\n        /* \"#utility.yul\":7011:7018   */\n      dup7\n        /* \"#utility.yul\":7002:7008   */\n      dup3\n        /* \"#utility.yul\":6991:7000   */\n      dup8\n        /* \"#utility.yul\":6987:7009   */\n      add\n        /* \"#utility.yul\":6954:7019   */\n      tag_195\n      jump\t// in\n    tag_312:\n        /* \"#utility.yul\":6936:7019   */\n      swap4\n      pop\n      swap4\n      pop\n        /* \"#utility.yul\":6732:7029   */\n      pop\n        /* \"#utility.yul\":7068:7070   */\n      0x20\n        /* \"#utility.yul\":7094:7147   */\n      tag_313\n        /* \"#utility.yul\":7139:7146   */\n      dup7\n        /* \"#utility.yul\":7130:7136   */\n      dup3\n        /* \"#utility.yul\":7119:7128   */\n      dup8\n        /* \"#utility.yul\":7115:7137   */\n      add\n        /* \"#utility.yul\":7094:7147   */\n      tag_197\n      jump\t// in\n    tag_313:\n        /* \"#utility.yul\":7084:7147   */\n      swap2\n      pop\n        /* \"#utility.yul\":7039:7157   */\n      pop\n        /* \"#utility.yul\":6490:7164   */\n      swap3\n      pop\n      swap3\n      pop\n      swap3\n      jump\t// out\n        /* \"#utility.yul\":7170:7329   */\n    tag_198:\n        /* \"#utility.yul\":7244:7255   */\n      0x00\n        /* \"#utility.yul\":7278:7284   */\n      dup3\n        /* \"#utility.yul\":7273:7276   */\n      dup3\n        /* \"#utility.yul\":7266:7285   */\n      mstore\n        /* \"#utility.yul\":7318:7322   */\n      0x20\n        /* \"#utility.yul\":7313:7316   */\n      dup3\n        /* \"#utility.yul\":7309:7323   */\n      add\n        /* \"#utility.yul\":7294:7323   */\n      swap1\n      pop\n        /* \"#utility.yul\":7170:7329   */\n      swap3\n      swap2\n      pop\n      pop\n      jump\t// out\n        /* \"#utility.yul\":7335:7692   */\n    tag_199:\n        /* \"#utility.yul\":7413:7416   */\n      0x00\n        /* \"#utility.yul\":7441:7480   */\n      tag_316\n        /* \"#utility.yul\":7474:7479   */\n      dup3\n        /* \"#utility.yul\":7441:7480   */\n      tag_183\n      jump\t// in\n    tag_316:\n        /* \"#utility.yul\":7496:7557   */\n      tag_317\n        /* \"#utility.yul\":7550:7556   */\n      dup2\n        /* \"#utility.yul\":7545:7548   */\n      dup6\n        /* \"#utility.yul\":7496:7557   */\n      tag_198\n      jump\t// in\n    tag_317:\n        /* \"#utility.yul\":7489:7557   */\n      swap4\n      pop\n        /* \"#utility.yul\":7566:7631   */\n      tag_318\n        /* \"#utility.yul\":7624:7630   */\n      dup2\n        /* \"#utility.yul\":7619:7622   */\n      dup6\n        /* \"#utility.yul\":7612:7616   */\n      0x20\n        /* \"#utility.yul\":7605:7610   */\n      dup7\n        /* \"#utility.yul\":7601:7617   */\n      add\n        /* \"#utility.yul\":7566:7631   */\n      tag_185\n      jump\t// in\n    tag_318:\n        /* \"#utility.yul\":7656:7685   */\n      tag_319\n        /* \"#utility.yul\":7678:7684   */\n      dup2\n        /* \"#utility.yul\":7656:7685   */\n      tag_186\n      jump\t// in\n    tag_319:\n        /* \"#utility.yul\":7651:7654   */\n      dup5\n        /* \"#utility.yul\":7647:7686   */\n      add\n        /* \"#utility.yul\":7640:7686   */\n      swap2\n      pop\n        /* \"#utility.yul\":7417:7692   */\n      pop\n        /* \"#utility.yul\":7335:7692   */\n      swap3\n      swap2\n      pop\n      pop\n      jump\t// out\n        /* \"#utility.yul\":7698:7806   */\n    tag_200:\n        /* \"#utility.yul\":7775:7799   */\n      tag_321\n        /* \"#utility.yul\":7793:7798   */\n      dup2\n        /* \"#utility.yul\":7775:7799   */\n      tag_188\n      jump\t// in\n    tag_321:\n        /* \"#utility.yul\":7770:7773   */\n      dup3\n        /* \"#utility.yul\":7763:7800   */\n      mstore\n        /* \"#utility.yul\":7698:7806   */\n      pop\n      pop\n      jump\t// out\n        /* \"#utility.yul\":7812:7911   */\n    tag_201:\n        /* \"#utility.yul\":7883:7904   */\n      tag_323\n        /* \"#utility.yul\":7898:7903   */\n      dup2\n        /* \"#utility.yul\":7883:7904   */\n      tag_190\n      jump\t// in\n    tag_323:\n        /* \"#utility.yul\":7878:7881   */\n      dup3\n        /* \"#utility.yul\":7871:7905   */\n      mstore\n        /* \"#utility.yul\":7812:7911   */\n      pop\n      pop\n      jump\t// out\n        /* \"#utility.yul\":7917:8025   */\n    tag_202:\n        /* \"#utility.yul\":7994:8018   */\n      tag_325\n        /* \"#utility.yul\":8012:8017   */\n      dup2\n        /* \"#utility.yul\":7994:8018   */\n      tag_176\n      jump\t// in\n    tag_325:\n        /* \"#utility.yul\":7989:7992   */\n      dup3\n        /* \"#utility.yul\":7982:8019   */\n      mstore\n        /* \"#utility.yul\":7917:8025   */\n      pop\n      pop\n      jump\t// out\n        /* \"#utility.yul\":8067:9276   */\n    tag_203:\n        /* \"#utility.yul\":8182:8185   */\n      0x00\n        /* \"#utility.yul\":8218:8222   */\n      0xa0\n        /* \"#utility.yul\":8213:8216   */\n      dup4\n        /* \"#utility.yul\":8209:8223   */\n      add\n        /* \"#utility.yul\":8305:8309   */\n      0x00\n        /* \"#utility.yul\":8298:8303   */\n      dup4\n        /* \"#utility.yul\":8294:8310   */\n      add\n        /* \"#utility.yul\":8288:8311   */\n      mload\n        /* \"#utility.yul\":8358:8361   */\n      dup5\n        /* \"#utility.yul\":8352:8356   */\n      dup3\n        /* \"#utility.yul\":8348:8362   */\n      sub\n        /* \"#utility.yul\":8341:8345   */\n      0x00\n        /* \"#utility.yul\":8336:8339   */\n      dup7\n        /* \"#utility.yul\":8332:8346   */\n      add\n        /* \"#utility.yul\":8325:8363   */\n      mstore\n        /* \"#utility.yul\":8384:8457   */\n      tag_327\n        /* \"#utility.yul\":8452:8456   */\n      dup3\n        /* \"#utility.yul\":8438:8450   */\n      dup3\n        /* \"#utility.yul\":8384:8457   */\n      tag_199\n      jump\t// in\n    tag_327:\n        /* \"#utility.yul\":8376:8457   */\n      swap2\n      pop\n        /* \"#utility.yul\":8233:8468   */\n      pop\n        /* \"#utility.yul\":8549:8553   */\n      0x20\n        /* \"#utility.yul\":8542:8547   */\n      dup4\n        /* \"#utility.yul\":8538:8554   */\n      add\n        /* \"#utility.yul\":8532:8555   */\n      mload\n        /* \"#utility.yul\":8568:8631   */\n      tag_328\n        /* \"#utility.yul\":8625:8629   */\n      0x20\n        /* \"#utility.yul\":8620:8623   */\n      dup7\n        /* \"#utility.yul\":8616:8630   */\n      add\n        /* \"#utility.yul\":8602:8614   */\n      dup3\n        /* \"#utility.yul\":8568:8631   */\n      tag_200\n      jump\t// in\n    tag_328:\n        /* \"#utility.yul\":8478:8641   */\n      pop\n        /* \"#utility.yul\":8726:8730   */\n      0x40\n        /* \"#utility.yul\":8719:8724   */\n      dup4\n        /* \"#utility.yul\":8715:8731   */\n      add\n        /* \"#utility.yul\":8709:8732   */\n      mload\n        /* \"#utility.yul\":8779:8782   */\n      dup5\n        /* \"#utility.yul\":8773:8777   */\n      dup3\n        /* \"#utility.yul\":8769:8783   */\n      sub\n        /* \"#utility.yul\":8762:8766   */\n      0x40\n        /* \"#utility.yul\":8757:8760   */\n      dup7\n        /* \"#utility.yul\":8753:8767   */\n      add\n        /* \"#utility.yul\":8746:8784   */\n      mstore\n        /* \"#utility.yul\":8805:8878   */\n      tag_329\n        /* \"#utility.yul\":8873:8877   */\n      dup3\n        /* \"#utility.yul\":8859:8871   */\n      dup3\n        /* \"#utility.yul\":8805:8878   */\n      tag_199\n      jump\t// in\n    tag_329:\n        /* \"#utility.yul\":8797:8878   */\n      swap2\n      pop\n        /* \"#utility.yul\":8651:8889   */\n      pop\n        /* \"#utility.yul\":8981:8985   */\n      0x60\n        /* \"#utility.yul\":8974:8979   */\n      dup4\n        /* \"#utility.yul\":8970:8986   */\n      add\n        /* \"#utility.yul\":8964:8987   */\n      mload\n        /* \"#utility.yul\":9000:9057   */\n      tag_330\n        /* \"#utility.yul\":9051:9055   */\n      0x60\n        /* \"#utility.yul\":9046:9049   */\n      dup7\n        /* \"#utility.yul\":9042:9056   */\n      add\n        /* \"#utility.yul\":9028:9040   */\n      dup3\n        /* \"#utility.yul\":9000:9057   */\n      tag_201\n      jump\t// in\n    tag_330:\n        /* \"#utility.yul\":8899:9067   */\n      pop\n        /* \"#utility.yul\":9157:9161   */\n      0x80\n        /* \"#utility.yul\":9150:9155   */\n      dup4\n        /* \"#utility.yul\":9146:9162   */\n      add\n        /* \"#utility.yul\":9140:9163   */\n      mload\n        /* \"#utility.yul\":9176:9239   */\n      tag_331\n        /* \"#utility.yul\":9233:9237   */\n      0x80\n        /* \"#utility.yul\":9228:9231   */\n      dup7\n        /* \"#utility.yul\":9224:9238   */\n      add\n        /* \"#utility.yul\":9210:9222   */\n      dup3\n        /* \"#utility.yul\":9176:9239   */\n      tag_202\n      jump\t// in\n    tag_331:\n        /* \"#utility.yul\":9077:9249   */\n      pop\n        /* \"#utility.yul\":9266:9270   */\n      dup1\n        /* \"#utility.yul\":9259:9270   */\n      swap2\n      pop\n        /* \"#utility.yul\":8187:9276   */\n      pop\n        /* \"#utility.yul\":8067:9276   */\n      swap3\n      swap2\n      pop\n      pop\n      jump\t// out\n        /* \"#utility.yul\":9282:9647   */\n    tag_37:\n        /* \"#utility.yul\":9421:9425   */\n      0x00\n        /* \"#utility.yul\":9459:9461   */\n      0x20\n        /* \"#utility.yul\":9448:9457   */\n      dup3\n        /* \"#utility.yul\":9444:9462   */\n      add\n        /* \"#utility.yul\":9436:9462   */\n      swap1\n      pop\n        /* \"#utility.yul\":9508:9517   */\n      dup2\n        /* \"#utility.yul\":9502:9506   */\n      dup2\n        /* \"#utility.yul\":9498:9518   */\n      sub\n        /* \"#utility.yul\":9494:9495   */\n      0x00\n        /* \"#utility.yul\":9483:9492   */\n      dup4\n        /* \"#utility.yul\":9479:9496   */\n      add\n        /* \"#utility.yul\":9472:9519   */\n      mstore\n        /* \"#utility.yul\":9536:9640   */\n      tag_333\n        /* \"#utility.yul\":9635:9639   */\n      dup2\n        /* \"#utility.yul\":9626:9632   */\n      dup5\n        /* \"#utility.yul\":9536:9640   */\n      tag_203\n      jump\t// in\n    tag_333:\n        /* \"#utility.yul\":9528:9640   */\n      swap1\n      pop\n        /* \"#utility.yul\":9282:9647   */\n      swap3\n      swap2\n      pop\n      pop\n      jump\t// out\n        /* \"#utility.yul\":9653:9863   */\n    tag_44:\n        /* \"#utility.yul\":9740:9744   */\n      0x00\n        /* \"#utility.yul\":9778:9780   */\n      0x20\n        /* \"#utility.yul\":9767:9776   */\n      dup3\n        /* \"#utility.yul\":9763:9781   */\n      add\n        /* \"#utility.yul\":9755:9781   */\n      swap1\n      pop\n        /* \"#utility.yul\":9791:9856   */\n      tag_335\n        /* \"#utility.yul\":9853:9854   */\n      0x00\n        /* \"#utility.yul\":9842:9851   */\n      dup4\n        /* \"#utility.yul\":9838:9855   */\n      add\n        /* \"#utility.yul\":9829:9835   */\n      dup5\n        /* \"#utility.yul\":9791:9856   */\n      tag_191\n      jump\t// in\n    tag_335:\n        /* \"#utility.yul\":9653:9863   */\n      swap3\n      swap2\n      pop\n      pop\n      jump\t// out\n        /* \"#utility.yul\":9869:10543   */\n    tag_47:\n        /* \"#utility.yul\":9949:9955   */\n      0x00\n        /* \"#utility.yul\":9957:9963   */\n      dup1\n        /* \"#utility.yul\":9965:9971   */\n      0x00\n        /* \"#utility.yul\":10014:10016   */\n      0x40\n        /* \"#utility.yul\":10002:10011   */\n      dup5\n        /* \"#utility.yul\":9993:10000   */\n      dup7\n        /* \"#utility.yul\":9989:10012   */\n      sub\n        /* \"#utility.yul\":9985:10017   */\n      slt\n        /* \"#utility.yul\":9982:10101   */\n      iszero\n      tag_337\n      jumpi\n        /* \"#utility.yul\":10020:10099   */\n      tag_338\n      tag_179\n      jump\t// in\n    tag_338:\n        /* \"#utility.yul\":9982:10101   */\n    tag_337:\n        /* \"#utility.yul\":10168:10169   */\n      0x00\n        /* \"#utility.yul\":10157:10166   */\n      dup5\n        /* \"#utility.yul\":10153:10170   */\n      add\n        /* \"#utility.yul\":10140:10171   */\n      calldataload\n        /* \"#utility.yul\":10198:10216   */\n      0xffffffffffffffff\n        /* \"#utility.yul\":10190:10196   */\n      dup2\n        /* \"#utility.yul\":10187:10217   */\n      gt\n        /* \"#utility.yul\":10184:10301   */\n      iszero\n      tag_339\n      jumpi\n        /* \"#utility.yul\":10220:10299   */\n      tag_340\n      tag_180\n      jump\t// in\n    tag_340:\n        /* \"#utility.yul\":10184:10301   */\n    tag_339:\n        /* \"#utility.yul\":10333:10398   */\n      tag_341\n        /* \"#utility.yul\":10390:10397   */\n      dup7\n        /* \"#utility.yul\":10381:10387   */\n      dup3\n        /* \"#utility.yul\":10370:10379   */\n      dup8\n        /* \"#utility.yul\":10366:10388   */\n      add\n        /* \"#utility.yul\":10333:10398   */\n      tag_195\n      jump\t// in\n    tag_341:\n        /* \"#utility.yul\":10315:10398   */\n      swap4\n      pop\n      swap4\n      pop\n        /* \"#utility.yul\":10111:10408   */\n      pop\n        /* \"#utility.yul\":10447:10449   */\n      0x20\n        /* \"#utility.yul\":10473:10526   */\n      tag_342\n        /* \"#utility.yul\":10518:10525   */\n      dup7\n        /* \"#utility.yul\":10509:10515   */\n      dup3\n        /* \"#utility.yul\":10498:10507   */\n      dup8\n        /* \"#utility.yul\":10494:10516   */\n      add\n        /* \"#utility.yul\":10473:10526   */\n      tag_182\n      jump\t// in\n    tag_342:\n        /* \"#utility.yul\":10463:10526   */\n      swap2\n      pop\n        /* \"#utility.yul\":10418:10536   */\n      pop\n        /* \"#utility.yul\":9869:10543   */\n      swap3\n      pop\n      swap3\n      pop\n      swap3\n      jump\t// out\n        /* \"#utility.yul\":10549:10729   */\n    tag_204:\n        /* \"#utility.yul\":10597:10674   */\n      0x4e487b7100000000000000000000000000000000000000000000000000000000\n        /* \"#utility.yul\":10594:10595   */\n      0x00\n        /* \"#utility.yul\":10587:10675   */\n      mstore\n        /* \"#utility.yul\":10694:10698   */\n      0x22\n        /* \"#utility.yul\":10691:10692   */\n      0x04\n        /* \"#utility.yul\":10684:10699   */\n      mstore\n        /* \"#utility.yul\":10718:10722   */\n      0x24\n        /* \"#utility.yul\":10715:10716   */\n      0x00\n        /* \"#utility.yul\":10708:10723   */\n      revert\n        /* \"#utility.yul\":10735:11055   */\n    tag_54:\n        /* \"#utility.yul\":10779:10785   */\n      0x00\n        /* \"#utility.yul\":10816:10817   */\n      0x02\n        /* \"#utility.yul\":10810:10814   */\n      dup3\n        /* \"#utility.yul\":10806:10818   */\n      div\n        /* \"#utility.yul\":10796:10818   */\n      swap1\n      pop\n        /* \"#utility.yul\":10863:10864   */\n      0x01\n        /* \"#utility.yul\":10857:10861   */\n      dup3\n        /* \"#utility.yul\":10853:10865   */\n      and\n        /* \"#utility.yul\":10884:10902   */\n      dup1\n        /* \"#utility.yul\":10874:10955   */\n      tag_345\n      jumpi\n        /* \"#utility.yul\":10940:10944   */\n      0x7f\n        /* \"#utility.yul\":10932:10938   */\n      dup3\n        /* \"#utility.yul\":10928:10945   */\n      and\n        /* \"#utility.yul\":10918:10945   */\n      swap2\n      pop\n        /* \"#utility.yul\":10874:10955   */\n    tag_345:\n        /* \"#utility.yul\":11002:11004   */\n      0x20\n        /* \"#utility.yul\":10994:11000   */\n      dup3\n        /* \"#utility.yul\":10991:11005   */\n      lt\n        /* \"#utility.yul\":10971:10989   */\n      dup2\n        /* \"#utility.yul\":10968:11006   */\n      sub\n        /* \"#utility.yul\":10965:11049   */\n      tag_346\n      jumpi\n        /* \"#utility.yul\":11021:11039   */\n      tag_347\n      tag_204\n      jump\t// in\n    tag_347:\n        /* \"#utility.yul\":10965:11049   */\n    tag_346:\n        /* \"#utility.yul\":10786:11055   */\n      pop\n        /* \"#utility.yul\":10735:11055   */\n      swap2\n      swap1\n      pop\n      jump\t// out\n        /* \"#utility.yul\":11061:11235   */\n    tag_205:\n        /* \"#utility.yul\":11201:11227   */\n      0x54686973206164647265737320697320616e2061646d696e0000000000000000\n        /* \"#utility.yul\":11197:11198   */\n      0x00\n        /* \"#utility.yul\":11189:11195   */\n      dup3\n        /* \"#utility.yul\":11185:11199   */\n      add\n        /* \"#utility.yul\":11178:11228   */\n      mstore\n        /* \"#utility.yul\":11061:11235   */\n      pop\n      jump\t// out\n        /* \"#utility.yul\":11241:11607   */\n    tag_206:\n        /* \"#utility.yul\":11383:11386   */\n      0x00\n        /* \"#utility.yul\":11404:11471   */\n      tag_350\n        /* \"#utility.yul\":11468:11470   */\n      0x18\n        /* \"#utility.yul\":11463:11466   */\n      dup4\n        /* \"#utility.yul\":11404:11471   */\n      tag_184\n      jump\t// in\n    tag_350:\n        /* \"#utility.yul\":11397:11471   */\n      swap2\n      pop\n        /* \"#utility.yul\":11480:11573   */\n      tag_351\n        /* \"#utility.yul\":11569:11572   */\n      dup3\n        /* \"#utility.yul\":11480:11573   */\n      tag_205\n      jump\t// in\n    tag_351:\n        /* \"#utility.yul\":11598:11600   */\n      0x20\n        /* \"#utility.yul\":11593:11596   */\n      dup3\n        /* \"#utility.yul\":11589:11601   */\n      add\n        /* \"#utility.yul\":11582:11601   */\n      swap1\n      pop\n        /* \"#utility.yul\":11241:11607   */\n      swap2\n      swap1\n      pop\n      jump\t// out\n        /* \"#utility.yul\":11613:12032   */\n    tag_83:\n        /* \"#utility.yul\":11779:11783   */\n      0x00\n        /* \"#utility.yul\":11817:11819   */\n      0x20\n        /* \"#utility.yul\":11806:11815   */\n      dup3\n        /* \"#utility.yul\":11802:11820   */\n      add\n        /* \"#utility.yul\":11794:11820   */\n      swap1\n      pop\n        /* \"#utility.yul\":11866:11875   */\n      dup2\n        /* \"#utility.yul\":11860:11864   */\n      dup2\n        /* \"#utility.yul\":11856:11876   */\n      sub\n        /* \"#utility.yul\":11852:11853   */\n      0x00\n        /* \"#utility.yul\":11841:11850   */\n      dup4\n        /* \"#utility.yul\":11837:11854   */\n      add\n        /* \"#utility.yul\":11830:11877   */\n      mstore\n        /* \"#utility.yul\":11894:12025   */\n      tag_353\n        /* \"#utility.yul\":12020:12024   */\n      dup2\n        /* \"#utility.yul\":11894:12025   */\n      tag_206\n      jump\t// in\n    tag_353:\n        /* \"#utility.yul\":11886:12025   */\n      swap1\n      pop\n        /* \"#utility.yul\":11613:12032   */\n      swap2\n      swap1\n      pop\n      jump\t// out\n        /* \"#utility.yul\":12038:12286   */\n    tag_207:\n        /* \"#utility.yul\":12178:12212   */\n      0x54686973206164647265737320686173206d6f74206265656e20726567697374\n        /* \"#utility.yul\":12174:12175   */\n      0x00\n        /* \"#utility.yul\":12166:12172   */\n      dup3\n        /* \"#utility.yul\":12162:12176   */\n      add\n        /* \"#utility.yul\":12155:12213   */\n      mstore\n        /* \"#utility.yul\":12247:12278   */\n      0x6572656420696e2074686520656c6563746f72616c2070726f63657373000000\n        /* \"#utility.yul\":12242:12244   */\n      0x20\n        /* \"#utility.yul\":12234:12240   */\n      dup3\n        /* \"#utility.yul\":12230:12245   */\n      add\n        /* \"#utility.yul\":12223:12279   */\n      mstore\n        /* \"#utility.yul\":12038:12286   */\n      pop\n      jump\t// out\n        /* \"#utility.yul\":12292:12658   */\n    tag_208:\n        /* \"#utility.yul\":12434:12437   */\n      0x00\n        /* \"#utility.yul\":12455:12522   */\n      tag_356\n        /* \"#utility.yul\":12519:12521   */\n      0x3d\n        /* \"#utility.yul\":12514:12517   */\n      dup4\n        /* \"#utility.yul\":12455:12522   */\n      tag_184\n      jump\t// in\n    tag_356:\n        /* \"#utility.yul\":12448:12522   */\n      swap2\n      pop\n        /* \"#utility.yul\":12531:12624   */\n      tag_357\n        /* \"#utility.yul\":12620:12623   */\n      dup3\n        /* \"#utility.yul\":12531:12624   */\n      tag_207\n      jump\t// in\n    tag_357:\n        /* \"#utility.yul\":12649:12651   */\n      0x40\n        /* \"#utility.yul\":12644:12647   */\n      dup3\n        /* \"#utility.yul\":12640:12652   */\n      add\n        /* \"#utility.yul\":12633:12652   */\n      swap1\n      pop\n        /* \"#utility.yul\":12292:12658   */\n      swap2\n      swap1\n      pop\n      jump\t// out\n        /* \"#utility.yul\":12664:13083   */\n    tag_87:\n        /* \"#utility.yul\":12830:12834   */\n      0x00\n        /* \"#utility.yul\":12868:12870   */\n      0x20\n        /* \"#utility.yul\":12857:12866   */\n      dup3\n        /* \"#utility.yul\":12853:12871   */\n      add\n        /* \"#utility.yul\":12845:12871   */\n      swap1\n      pop\n        /* \"#utility.yul\":12917:12926   */\n      dup2\n        /* \"#utility.yul\":12911:12915   */\n      dup2\n        /* \"#utility.yul\":12907:12927   */\n      sub\n        /* \"#utility.yul\":12903:12904   */\n      0x00\n        /* \"#utility.yul\":12892:12901   */\n      dup4\n        /* \"#utility.yul\":12888:12905   */\n      add\n        /* \"#utility.yul\":12881:12928   */\n      mstore\n        /* \"#utility.yul\":12945:13076   */\n      tag_359\n        /* \"#utility.yul\":13071:13075   */\n      dup2\n        /* \"#utility.yul\":12945:13076   */\n      tag_208\n      jump\t// in\n    tag_359:\n        /* \"#utility.yul\":12937:13076   */\n      swap1\n      pop\n        /* \"#utility.yul\":12664:13083   */\n      swap2\n      swap1\n      pop\n      jump\t// out\n        /* \"#utility.yul\":13089:13269   */\n    tag_209:\n        /* \"#utility.yul\":13257:13262   */\n      0x434f440000000000000000000000000000000000000000000000000000000000\n        /* \"#utility.yul\":13252:13255   */\n      dup2\n        /* \"#utility.yul\":13245:13263   */\n      mstore\n        /* \"#utility.yul\":13089:13269   */\n      pop\n      jump\t// out\n        /* \"#utility.yul\":13275:13423   */\n    tag_210:\n        /* \"#utility.yul\":13377:13388   */\n      0x00\n        /* \"#utility.yul\":13414:13417   */\n      dup2\n        /* \"#utility.yul\":13399:13417   */\n      swap1\n      pop\n        /* \"#utility.yul\":13275:13423   */\n      swap3\n      swap2\n      pop\n      pop\n      jump\t// out\n        /* \"#utility.yul\":13429:13819   */\n    tag_211:\n        /* \"#utility.yul\":13535:13538   */\n      0x00\n        /* \"#utility.yul\":13563:13602   */\n      tag_363\n        /* \"#utility.yul\":13596:13601   */\n      dup3\n        /* \"#utility.yul\":13563:13602   */\n      tag_183\n      jump\t// in\n    tag_363:\n        /* \"#utility.yul\":13618:13707   */\n      tag_364\n        /* \"#utility.yul\":13700:13706   */\n      dup2\n        /* \"#utility.yul\":13695:13698   */\n      dup6\n        /* \"#utility.yul\":13618:13707   */\n      tag_210\n      jump\t// in\n    tag_364:\n        /* \"#utility.yul\":13611:13707   */\n      swap4\n      pop\n        /* \"#utility.yul\":13716:13781   */\n      tag_365\n        /* \"#utility.yul\":13774:13780   */\n      dup2\n        /* \"#utility.yul\":13769:13772   */\n      dup6\n        /* \"#utility.yul\":13762:13766   */\n      0x20\n        /* \"#utility.yul\":13755:13760   */\n      dup7\n        /* \"#utility.yul\":13751:13767   */\n      add\n        /* \"#utility.yul\":13716:13781   */\n      tag_185\n      jump\t// in\n    tag_365:\n        /* \"#utility.yul\":13806:13812   */\n      dup1\n        /* \"#utility.yul\":13801:13804   */\n      dup5\n        /* \"#utility.yul\":13797:13813   */\n      add\n        /* \"#utility.yul\":13790:13813   */\n      swap2\n      pop\n        /* \"#utility.yul\":13539:13819   */\n      pop\n        /* \"#utility.yul\":13429:13819   */\n      swap3\n      swap2\n      pop\n      pop\n      jump\t// out\n        /* \"#utility.yul\":13825:14364   */\n    tag_91:\n        /* \"#utility.yul\":14047:14050   */\n      0x00\n        /* \"#utility.yul\":14062:14199   */\n      tag_367\n        /* \"#utility.yul\":14195:14198   */\n      dup3\n        /* \"#utility.yul\":14062:14199   */\n      tag_209\n      jump\t// in\n    tag_367:\n        /* \"#utility.yul\":14224:14225   */\n      0x03\n        /* \"#utility.yul\":14219:14222   */\n      dup3\n        /* \"#utility.yul\":14215:14226   */\n      add\n        /* \"#utility.yul\":14208:14226   */\n      swap2\n      pop\n        /* \"#utility.yul\":14243:14338   */\n      tag_368\n        /* \"#utility.yul\":14334:14337   */\n      dup3\n        /* \"#utility.yul\":14325:14331   */\n      dup5\n        /* \"#utility.yul\":14243:14338   */\n      tag_211\n      jump\t// in\n    tag_368:\n        /* \"#utility.yul\":14236:14338   */\n      swap2\n      pop\n        /* \"#utility.yul\":14355:14358   */\n      dup2\n        /* \"#utility.yul\":14348:14358   */\n      swap1\n      pop\n        /* \"#utility.yul\":13825:14364   */\n      swap3\n      swap2\n      pop\n      pop\n      jump\t// out\n        /* \"#utility.yul\":14370:14550   */\n    tag_147:\n        /* \"#utility.yul\":14418:14495   */\n      0x4e487b7100000000000000000000000000000000000000000000000000000000\n        /* \"#utility.yul\":14415:14416   */\n      0x00\n        /* \"#utility.yul\":14408:14496   */\n      mstore\n        /* \"#utility.yul\":14515:14519   */\n      0x41\n        /* \"#utility.yul\":14512:14513   */\n      0x04\n        /* \"#utility.yul\":14505:14520   */\n      mstore\n        /* \"#utility.yul\":14539:14543   */\n      0x24\n        /* \"#utility.yul\":14536:14537   */\n      0x00\n        /* \"#utility.yul\":14529:14544   */\n      revert\n        /* \"#utility.yul\":14556:14697   */\n    tag_212:\n        /* \"#utility.yul\":14605:14609   */\n      0x00\n        /* \"#utility.yul\":14628:14631   */\n      dup2\n        /* \"#utility.yul\":14620:14631   */\n      swap1\n      pop\n        /* \"#utility.yul\":14651:14654   */\n      dup2\n        /* \"#utility.yul\":14648:14649   */\n      0x00\n        /* \"#utility.yul\":14641:14655   */\n      mstore\n        /* \"#utility.yul\":14685:14689   */\n      0x20\n        /* \"#utility.yul\":14682:14683   */\n      0x00\n        /* \"#utility.yul\":14672:14690   */\n      keccak256\n        /* \"#utility.yul\":14664:14690   */\n      swap1\n      pop\n        /* \"#utility.yul\":14556:14697   */\n      swap2\n      swap1\n      pop\n      jump\t// out\n        /* \"#utility.yul\":14703:14796   */\n    tag_213:\n        /* \"#utility.yul\":14740:14746   */\n      0x00\n        /* \"#utility.yul\":14787:14789   */\n      0x20\n        /* \"#utility.yul\":14782:14784   */\n      0x1f\n        /* \"#utility.yul\":14775:14780   */\n      dup4\n        /* \"#utility.yul\":14771:14785   */\n      add\n        /* \"#utility.yul\":14767:14790   */\n      div\n        /* \"#utility.yul\":14757:14790   */\n      swap1\n      pop\n        /* \"#utility.yul\":14703:14796   */\n      swap2\n      swap1\n      pop\n      jump\t// out\n        /* \"#utility.yul\":14802:14909   */\n    tag_214:\n        /* \"#utility.yul\":14846:14854   */\n      0x00\n        /* \"#utility.yul\":14896:14901   */\n      dup3\n        /* \"#utility.yul\":14890:14894   */\n      dup3\n        /* \"#utility.yul\":14886:14902   */\n      shl\n        /* \"#utility.yul\":14865:14902   */\n      swap1\n      pop\n        /* \"#utility.yul\":14802:14909   */\n      swap3\n      swap2\n      pop\n      pop\n      jump\t// out\n        /* \"#utility.yul\":14915:15308   */\n    tag_215:\n        /* \"#utility.yul\":14984:14990   */\n      0x00\n        /* \"#utility.yul\":15034:15035   */\n      0x08\n        /* \"#utility.yul\":15022:15032   */\n      dup4\n        /* \"#utility.yul\":15018:15036   */\n      mul\n        /* \"#utility.yul\":15057:15154   */\n      tag_374\n        /* \"#utility.yul\":15087:15153   */\n      0xffffffffffffffffffffffffffffffffffffffffffffffffffffffffffffffff\n        /* \"#utility.yul\":15076:15085   */\n      dup3\n        /* \"#utility.yul\":15057:15154   */\n      tag_214\n      jump\t// in\n    tag_374:\n        /* \"#utility.yul\":15175:15214   */\n      tag_375\n        /* \"#utility.yul\":15205:15213   */\n      dup7\n        /* \"#utility.yul\":15194:15203   */\n      dup4\n        /* \"#utility.yul\":15175:15214   */\n      tag_214\n      jump\t// in\n    tag_375:\n        /* \"#utility.yul\":15163:15214   */\n      swap6\n      pop\n        /* \"#utility.yul\":15247:15251   */\n      dup1\n        /* \"#utility.yul\":15243:15252   */\n      not\n        /* \"#utility.yul\":15236:15241   */\n      dup5\n        /* \"#utility.yul\":15232:15253   */\n      and\n        /* \"#utility.yul\":15223:15253   */\n      swap4\n      pop\n        /* \"#utility.yul\":15296:15300   */\n      dup1\n        /* \"#utility.yul\":15286:15294   */\n      dup7\n        /* \"#utility.yul\":15282:15301   */\n      and\n        /* \"#utility.yul\":15275:15280   */\n      dup5\n        /* \"#utility.yul\":15272:15302   */\n      or\n        /* \"#utility.yul\":15262:15302   */\n      swap3\n      pop\n        /* \"#utility.yul\":14991:15308   */\n      pop\n      pop\n        /* \"#utility.yul\":14915:15308   */\n      swap4\n      swap3\n      pop\n      pop\n      pop\n      jump\t// out\n        /* \"#utility.yul\":15314:15374   */\n    tag_216:\n        /* \"#utility.yul\":15342:15345   */\n      0x00\n        /* \"#utility.yul\":15363:15368   */\n      dup2\n        /* \"#utility.yul\":15356:15368   */\n      swap1\n      pop\n        /* \"#utility.yul\":15314:15374   */\n      swap2\n      swap1\n      pop\n      jump\t// out\n        /* \"#utility.yul\":15380:15522   */\n    tag_217:\n        /* \"#utility.yul\":15430:15439   */\n      0x00\n        /* \"#utility.yul\":15463:15516   */\n      tag_378\n        /* \"#utility.yul\":15481:15515   */\n      tag_379\n        /* \"#utility.yul\":15490:15514   */\n      tag_380\n        /* \"#utility.yul\":15508:15513   */\n      dup5\n        /* \"#utility.yul\":15490:15514   */\n      tag_188\n      jump\t// in\n    tag_380:\n        /* \"#utility.yul\":15481:15515   */\n      tag_216\n      jump\t// in\n    tag_379:\n        /* \"#utility.yul\":15463:15516   */\n      tag_188\n      jump\t// in\n    tag_378:\n        /* \"#utility.yul\":15450:15516   */\n      swap1\n      pop\n        /* \"#utility.yul\":15380:15522   */\n      swap2\n      swap1\n      pop\n      jump\t// out\n        /* \"#utility.yul\":15528:15603   */\n    tag_218:\n        /* \"#utility.yul\":15571:15574   */\n      0x00\n        /* \"#utility.yul\":15592:15597   */\n      dup2\n        /* \"#utility.yul\":15585:15597   */\n      swap1\n      pop\n        /* \"#utility.yul\":15528:15603   */\n      swap2\n      swap1\n      pop\n      jump\t// out\n        /* \"#utility.yul\":15609:15878   */\n    tag_219:\n        /* \"#utility.yul\":15719:15758   */\n      tag_383\n        /* \"#utility.yul\":15750:15757   */\n      dup4\n        /* \"#utility.yul\":15719:15758   */\n      tag_217\n      jump\t// in\n    tag_383:\n        /* \"#utility.yul\":15780:15871   */\n      tag_384\n        /* \"#utility.yul\":15829:15870   */\n      tag_385\n        /* \"#utility.yul\":15853:15869   */\n      dup3\n        /* \"#utility.yul\":15829:15870   */\n      tag_218\n      jump\t// in\n    tag_385:\n        /* \"#utility.yul\":15821:15827   */\n      dup5\n        /* \"#utility.yul\":15814:15818   */\n      dup5\n        /* \"#utility.yul\":15808:15819   */\n      sload\n        /* \"#utility.yul\":15780:15871   */\n      tag_215\n      jump\t// in\n    tag_384:\n        /* \"#utility.yul\":15774:15778   */\n      dup3\n        /* \"#utility.yul\":15767:15872   */\n      sstore\n        /* \"#utility.yul\":15685:15878   */\n      pop\n        /* \"#utility.yul\":15609:15878   */\n      pop\n      pop\n      pop\n      jump\t// out\n        /* \"#utility.yul\":15884:15957   */\n    tag_220:\n        /* \"#utility.yul\":15929:15932   */\n      0x00\n        /* \"#utility.yul\":15884:15957   */\n      swap1\n      jump\t// out\n        /* \"#utility.yul\":15963:16152   */\n    tag_221:\n        /* \"#utility.yul\":16040:16072   */\n      tag_388\n      tag_220\n      jump\t// in\n    tag_388:\n        /* \"#utility.yul\":16081:16146   */\n      tag_389\n        /* \"#utility.yul\":16139:16145   */\n      dup2\n        /* \"#utility.yul\":16131:16137   */\n      dup5\n        /* \"#utility.yul\":16125:16129   */\n      dup5\n        /* \"#utility.yul\":16081:16146   */\n      tag_219\n      jump\t// in\n    tag_389:\n        /* \"#utility.yul\":16016:16152   */\n      pop\n        /* \"#utility.yul\":15963:16152   */\n      pop\n      pop\n      jump\t// out\n        /* \"#utility.yul\":16158:16344   */\n    tag_222:\n        /* \"#utility.yul\":16218:16338   */\n    tag_391:\n        /* \"#utility.yul\":16235:16238   */\n      dup2\n        /* \"#utility.yul\":16228:16233   */\n      dup2\n        /* \"#utility.yul\":16225:16239   */\n      lt\n        /* \"#utility.yul\":16218:16338   */\n      iszero\n      tag_393\n      jumpi\n        /* \"#utility.yul\":16289:16328   */\n      tag_394\n        /* \"#utility.yul\":16326:16327   */\n      0x00\n        /* \"#utility.yul\":16319:16324   */\n      dup3\n        /* \"#utility.yul\":16289:16328   */\n      tag_221\n      jump\t// in\n    tag_394:\n        /* \"#utility.yul\":16262:16263   */\n      0x01\n        /* \"#utility.yul\":16255:16260   */\n      dup2\n        /* \"#utility.yul\":16251:16264   */\n      add\n        /* \"#utility.yul\":16242:16264   */\n      swap1\n      pop\n        /* \"#utility.yul\":16218:16338   */\n      jump(tag_391)\n    tag_393:\n        /* \"#utility.yul\":16158:16344   */\n      pop\n      pop\n      jump\t// out\n        /* \"#utility.yul\":16350:16893   */\n    tag_223:\n        /* \"#utility.yul\":16451:16453   */\n      0x1f\n        /* \"#utility.yul\":16446:16449   */\n      dup3\n        /* \"#utility.yul\":16443:16454   */\n      gt\n        /* \"#utility.yul\":16440:16886   */\n      iszero\n      tag_396\n      jumpi\n        /* \"#utility.yul\":16485:16523   */\n      tag_397\n        /* \"#utility.yul\":16517:16522   */\n      dup2\n        /* \"#utility.yul\":16485:16523   */\n      tag_212\n      jump\t// in\n    tag_397:\n        /* \"#utility.yul\":16569:16598   */\n      tag_398\n        /* \"#utility.yul\":16587:16597   */\n      dup5\n        /* \"#utility.yul\":16569:16598   */\n      tag_213\n      jump\t// in\n    tag_398:\n        /* \"#utility.yul\":16559:16567   */\n      dup2\n        /* \"#utility.yul\":16555:16599   */\n      add\n        /* \"#utility.yul\":16752:16754   */\n      0x20\n        /* \"#utility.yul\":16740:16750   */\n      dup6\n        /* \"#utility.yul\":16737:16755   */\n      lt\n        /* \"#utility.yul\":16734:16783   */\n      iszero\n      tag_399\n      jumpi\n        /* \"#utility.yul\":16773:16781   */\n      dup2\n        /* \"#utility.yul\":16758:16781   */\n      swap1\n      pop\n        /* \"#utility.yul\":16734:16783   */\n    tag_399:\n        /* \"#utility.yul\":16796:16876   */\n      tag_400\n        /* \"#utility.yul\":16852:16874   */\n      tag_401\n        /* \"#utility.yul\":16870:16873   */\n      dup6\n        /* \"#utility.yul\":16852:16874   */\n      tag_213\n      jump\t// in\n    tag_401:\n        /* \"#utility.yul\":16842:16850   */\n      dup4\n        /* \"#utility.yul\":16838:16875   */\n      add\n        /* \"#utility.yul\":16825:16836   */\n      dup3\n        /* \"#utility.yul\":16796:16876   */\n      tag_222\n      jump\t// in\n    tag_400:\n        /* \"#utility.yul\":16455:16886   */\n      pop\n      pop\n        /* \"#utility.yul\":16440:16886   */\n    tag_396:\n        /* \"#utility.yul\":16350:16893   */\n      pop\n      pop\n      pop\n      jump\t// out\n        /* \"#utility.yul\":16899:17016   */\n    tag_224:\n        /* \"#utility.yul\":16953:16961   */\n      0x00\n        /* \"#utility.yul\":17003:17008   */\n      dup3\n        /* \"#utility.yul\":16997:17001   */\n      dup3\n        /* \"#utility.yul\":16993:17009   */\n      shr\n        /* \"#utility.yul\":16972:17009   */\n      swap1\n      pop\n        /* \"#utility.yul\":16899:17016   */\n      swap3\n      swap2\n      pop\n      pop\n      jump\t// out\n        /* \"#utility.yul\":17022:17191   */\n    tag_225:\n        /* \"#utility.yul\":17066:17072   */\n      0x00\n        /* \"#utility.yul\":17099:17150   */\n      tag_404\n        /* \"#utility.yul\":17147:17148   */\n      0x00\n        /* \"#utility.yul\":17143:17149   */\n      not\n        /* \"#utility.yul\":17135:17140   */\n      dup5\n        /* \"#utility.yul\":17132:17133   */\n      0x08\n        /* \"#utility.yul\":17128:17141   */\n      mul\n        /* \"#utility.yul\":17099:17150   */\n      tag_224\n      jump\t// in\n    tag_404:\n        /* \"#utility.yul\":17095:17151   */\n      not\n        /* \"#utility.yul\":17180:17184   */\n      dup1\n        /* \"#utility.yul\":17174:17178   */\n      dup4\n        /* \"#utility.yul\":17170:17185   */\n      and\n        /* \"#utility.yul\":17160:17185   */\n      swap2\n      pop\n        /* \"#utility.yul\":17073:17191   */\n      pop\n        /* \"#utility.yul\":17022:17191   */\n      swap3\n      swap2\n      pop\n      pop\n      jump\t// out\n        /* \"#utility.yul\":17196:17491   */\n    tag_226:\n        /* \"#utility.yul\":17272:17276   */\n      0x00\n        /* \"#utility.yul\":17418:17447   */\n      tag_406\n        /* \"#utility.yul\":17443:17446   */\n      dup4\n        /* \"#utility.yul\":17437:17441   */\n      dup4\n        /* \"#utility.yul\":17418:17447   */\n      tag_225\n      jump\t// in\n    tag_406:\n        /* \"#utility.yul\":17410:17447   */\n      swap2\n      pop\n        /* \"#utility.yul\":17480:17483   */\n      dup3\n        /* \"#utility.yul\":17477:17478   */\n      0x02\n        /* \"#utility.yul\":17473:17484   */\n      mul\n        /* \"#utility.yul\":17467:17471   */\n      dup3\n        /* \"#utility.yul\":17464:17485   */\n      or\n        /* \"#utility.yul\":17456:17485   */\n      swap1\n      pop\n        /* \"#utility.yul\":17196:17491   */\n      swap3\n      swap2\n      pop\n      pop\n      jump\t// out\n        /* \"#utility.yul\":17496:18891   */\n    tag_93:\n        /* \"#utility.yul\":17613:17650   */\n      tag_408\n        /* \"#utility.yul\":17646:17649   */\n      dup3\n        /* \"#utility.yul\":17613:17650   */\n      tag_183\n      jump\t// in\n    tag_408:\n        /* \"#utility.yul\":17715:17733   */\n      0xffffffffffffffff\n        /* \"#utility.yul\":17707:17713   */\n      dup2\n        /* \"#utility.yul\":17704:17734   */\n      gt\n        /* \"#utility.yul\":17701:17757   */\n      iszero\n      tag_409\n      jumpi\n        /* \"#utility.yul\":17737:17755   */\n      tag_410\n      tag_147\n      jump\t// in\n    tag_410:\n        /* \"#utility.yul\":17701:17757   */\n    tag_409:\n        /* \"#utility.yul\":17781:17819   */\n      tag_411\n        /* \"#utility.yul\":17813:17817   */\n      dup3\n        /* \"#utility.yul\":17807:17818   */\n      sload\n        /* \"#utility.yul\":17781:17819   */\n      tag_54\n      jump\t// in\n    tag_411:\n        /* \"#utility.yul\":17866:17933   */\n      tag_412\n        /* \"#utility.yul\":17926:17932   */\n      dup3\n        /* \"#utility.yul\":17918:17924   */\n      dup3\n        /* \"#utility.yul\":17912:17916   */\n      dup6\n        /* \"#utility.yul\":17866:17933   */\n      tag_223\n      jump\t// in\n    tag_412:\n        /* \"#utility.yul\":17960:17961   */\n      0x00\n        /* \"#utility.yul\":17984:17988   */\n      0x20\n        /* \"#utility.yul\":17971:17988   */\n      swap1\n      pop\n        /* \"#utility.yul\":18016:18018   */\n      0x1f\n        /* \"#utility.yul\":18008:18014   */\n      dup4\n        /* \"#utility.yul\":18005:18019   */\n      gt\n        /* \"#utility.yul\":18033:18034   */\n      0x01\n        /* \"#utility.yul\":18028:18646   */\n      dup2\n      eq\n      tag_414\n      jumpi\n        /* \"#utility.yul\":18690:18691   */\n      0x00\n        /* \"#utility.yul\":18707:18713   */\n      dup5\n        /* \"#utility.yul\":18704:18781   */\n      iszero\n      tag_415\n      jumpi\n        /* \"#utility.yul\":18756:18765   */\n      dup3\n        /* \"#utility.yul\":18751:18754   */\n      dup8\n        /* \"#utility.yul\":18747:18766   */\n      add\n        /* \"#utility.yul\":18741:18767   */\n      mload\n        /* \"#utility.yul\":18732:18767   */\n      swap1\n      pop\n        /* \"#utility.yul\":18704:18781   */\n    tag_415:\n        /* \"#utility.yul\":18807:18874   */\n      tag_416\n        /* \"#utility.yul\":18867:18873   */\n      dup6\n        /* \"#utility.yul\":18860:18865   */\n      dup3\n        /* \"#utility.yul\":18807:18874   */\n      tag_226\n      jump\t// in\n    tag_416:\n        /* \"#utility.yul\":18801:18805   */\n      dup7\n        /* \"#utility.yul\":18794:18875   */\n      sstore\n        /* \"#utility.yul\":18663:18885   */\n      pop\n        /* \"#utility.yul\":17998:18885   */\n      jump(tag_413)\n        /* \"#utility.yul\":18028:18646   */\n    tag_414:\n        /* \"#utility.yul\":18080:18084   */\n      0x1f\n        /* \"#utility.yul\":18076:18085   */\n      not\n        /* \"#utility.yul\":18068:18074   */\n      dup5\n        /* \"#utility.yul\":18064:18086   */\n      and\n        /* \"#utility.yul\":18114:18151   */\n      tag_417\n        /* \"#utility.yul\":18146:18150   */\n      dup7\n        /* \"#utility.yul\":18114:18151   */\n      tag_212\n      jump\t// in\n    tag_417:\n        /* \"#utility.yul\":18173:18174   */\n      0x00\n        /* \"#utility.yul\":18187:18395   */\n    tag_418:\n        /* \"#utility.yul\":18201:18208   */\n      dup3\n        /* \"#utility.yul\":18198:18199   */\n      dup2\n        /* \"#utility.yul\":18195:18209   */\n      lt\n        /* \"#utility.yul\":18187:18395   */\n      iszero\n      tag_420\n      jumpi\n        /* \"#utility.yul\":18280:18289   */\n      dup5\n        /* \"#utility.yul\":18275:18278   */\n      dup10\n        /* \"#utility.yul\":18271:18290   */\n      add\n        /* \"#utility.yul\":18265:18291   */\n      mload\n        /* \"#utility.yul\":18257:18263   */\n      dup3\n        /* \"#utility.yul\":18250:18292   */\n      sstore\n        /* \"#utility.yul\":18331:18332   */\n      0x01\n        /* \"#utility.yul\":18323:18329   */\n      dup3\n        /* \"#utility.yul\":18319:18333   */\n      add\n        /* \"#utility.yul\":18309:18333   */\n      swap2\n      pop\n        /* \"#utility.yul\":18378:18380   */\n      0x20\n        /* \"#utility.yul\":18367:18376   */\n      dup6\n        /* \"#utility.yul\":18363:18381   */\n      add\n        /* \"#utility.yul\":18350:18381   */\n      swap5\n      pop\n        /* \"#utility.yul\":18224:18228   */\n      0x20\n        /* \"#utility.yul\":18221:18222   */\n      dup2\n        /* \"#utility.yul\":18217:18229   */\n      add\n        /* \"#utility.yul\":18212:18229   */\n      swap1\n      pop\n        /* \"#utility.yul\":18187:18395   */\n      jump(tag_418)\n    tag_420:\n        /* \"#utility.yul\":18423:18429   */\n      dup7\n        /* \"#utility.yul\":18414:18421   */\n      dup4\n        /* \"#utility.yul\":18411:18430   */\n      lt\n        /* \"#utility.yul\":18408:18587   */\n      iszero\n      tag_421\n      jumpi\n        /* \"#utility.yul\":18481:18490   */\n      dup5\n        /* \"#utility.yul\":18476:18479   */\n      dup10\n        /* \"#utility.yul\":18472:18491   */\n      add\n        /* \"#utility.yul\":18466:18492   */\n      mload\n        /* \"#utility.yul\":18524:18572   */\n      tag_422\n        /* \"#utility.yul\":18566:18570   */\n      0x1f\n        /* \"#utility.yul\":18558:18564   */\n      dup10\n        /* \"#utility.yul\":18554:18571   */\n      and\n        /* \"#utility.yul\":18543:18552   */\n      dup3\n        /* \"#utility.yul\":18524:18572   */\n      tag_225\n      jump\t// in\n    tag_422:\n        /* \"#utility.yul\":18516:18522   */\n      dup4\n        /* \"#utility.yul\":18509:18573   */\n      sstore\n        /* \"#utility.yul\":18431:18587   */\n      pop\n        /* \"#utility.yul\":18408:18587   */\n    tag_421:\n        /* \"#utility.yul\":18633:18634   */\n      0x01\n        /* \"#utility.yul\":18629:18630   */\n      0x02\n        /* \"#utility.yul\":18621:18627   */\n      dup9\n        /* \"#utility.yul\":18617:18631   */\n      mul\n        /* \"#utility.yul\":18613:18635   */\n      add\n        /* \"#utility.yul\":18607:18611   */\n      dup9\n        /* \"#utility.yul\":18600:18636   */\n      sstore\n        /* \"#utility.yul\":18035:18646   */\n      pop\n      pop\n      pop\n        /* \"#utility.yul\":17998:18885   */\n    tag_413:\n      pop\n        /* \"#utility.yul\":17588:18891   */\n      pop\n      pop\n      pop\n        /* \"#utility.yul\":17496:18891   */\n      pop\n      pop\n      jump\t// out\n        /* \"#utility.yul\":18897:19067   */\n    tag_227:\n        /* \"#utility.yul\":19037:19059   */\n      0x6e6f7420656c696769626c6520746f20766f7465000000000000000000000000\n        /* \"#utility.yul\":19033:19034   */\n      0x00\n        /* \"#utility.yul\":19025:19031   */\n      dup3\n        /* \"#utility.yul\":19021:19035   */\n      add\n        /* \"#utility.yul\":19014:19060   */\n      mstore\n        /* \"#utility.yul\":18897:19067   */\n      pop\n      jump\t// out\n        /* \"#utility.yul\":19073:19439   */\n    tag_228:\n        /* \"#utility.yul\":19215:19218   */\n      0x00\n        /* \"#utility.yul\":19236:19303   */\n      tag_425\n        /* \"#utility.yul\":19300:19302   */\n      0x14\n        /* \"#utility.yul\":19295:19298   */\n      dup4\n        /* \"#utility.yul\":19236:19303   */\n      tag_184\n      jump\t// in\n    tag_425:\n        /* \"#utility.yul\":19229:19303   */\n      swap2\n      pop\n        /* \"#utility.yul\":19312:19405   */\n      tag_426\n        /* \"#utility.yul\":19401:19404   */\n      dup3\n        /* \"#utility.yul\":19312:19405   */\n      tag_227\n      jump\t// in\n    tag_426:\n        /* \"#utility.yul\":19430:19432   */\n      0x20\n        /* \"#utility.yul\":19425:19428   */\n      dup3\n        /* \"#utility.yul\":19421:19433   */\n      add\n        /* \"#utility.yul\":19414:19433   */\n      swap1\n      pop\n        /* \"#utility.yul\":19073:19439   */\n      swap2\n      swap1\n      pop\n      jump\t// out\n        /* \"#utility.yul\":19445:19864   */\n    tag_102:\n        /* \"#utility.yul\":19611:19615   */\n      0x00\n        /* \"#utility.yul\":19649:19651   */\n      0x20\n        /* \"#utility.yul\":19638:19647   */\n      dup3\n        /* \"#utility.yul\":19634:19652   */\n      add\n        /* \"#utility.yul\":19626:19652   */\n      swap1\n      pop\n        /* \"#utility.yul\":19698:19707   */\n      dup2\n        /* \"#utility.yul\":19692:19696   */\n      dup2\n        /* \"#utility.yul\":19688:19708   */\n      sub\n        /* \"#utility.yul\":19684:19685   */\n      0x00\n        /* \"#utility.yul\":19673:19682   */\n      dup4\n        /* \"#utility.yul\":19669:19686   */\n      add\n        /* \"#utility.yul\":19662:19709   */\n      mstore\n        /* \"#utility.yul\":19726:19857   */\n      tag_428\n        /* \"#utility.yul\":19852:19856   */\n      dup2\n        /* \"#utility.yul\":19726:19857   */\n      tag_228\n      jump\t// in\n    tag_428:\n        /* \"#utility.yul\":19718:19857   */\n      swap1\n      pop\n        /* \"#utility.yul\":19445:19864   */\n      swap2\n      swap1\n      pop\n      jump\t// out\n        /* \"#utility.yul\":19870:20052   */\n    tag_229:\n        /* \"#utility.yul\":20010:20044   */\n      0x54686973206164647265737320686173206265656e2072656769737465726564\n        /* \"#utility.yul\":20006:20007   */\n      0x00\n        /* \"#utility.yul\":19998:20004   */\n      dup3\n        /* \"#utility.yul\":19994:20008   */\n      add\n        /* \"#utility.yul\":19987:20045   */\n      mstore\n        /* \"#utility.yul\":19870:20052   */\n      pop\n      jump\t// out\n        /* \"#utility.yul\":20058:20424   */\n    tag_230:\n        /* \"#utility.yul\":20200:20203   */\n      0x00\n        /* \"#utility.yul\":20221:20288   */\n      tag_431\n        /* \"#utility.yul\":20285:20287   */\n      0x20\n        /* \"#utility.yul\":20280:20283   */\n      dup4\n        /* \"#utility.yul\":20221:20288   */\n      tag_184\n      jump\t// in\n    tag_431:\n        /* \"#utility.yul\":20214:20288   */\n      swap2\n      pop\n        /* \"#utility.yul\":20297:20390   */\n      tag_432\n        /* \"#utility.yul\":20386:20389   */\n      dup3\n        /* \"#utility.yul\":20297:20390   */\n      tag_229\n      jump\t// in\n    tag_432:\n        /* \"#utility.yul\":20415:20417   */\n      0x20\n        /* \"#utility.yul\":20410:20413   */\n      dup3\n        /* \"#utility.yul\":20406:20418   */\n      add\n        /* \"#utility.yul\":20399:20418   */\n      swap1\n      pop\n        /* \"#utility.yul\":20058:20424   */\n      swap2\n      swap1\n      pop\n      jump\t// out\n        /* \"#utility.yul\":20430:20849   */\n    tag_106:\n        /* \"#utility.yul\":20596:20600   */\n      0x00\n        /* \"#utility.yul\":20634:20636   */\n      0x20\n        /* \"#utility.yul\":20623:20632   */\n      dup3\n        /* \"#utility.yul\":20619:20637   */\n      add\n        /* \"#utility.yul\":20611:20637   */\n      swap1\n      pop\n        /* \"#utility.yul\":20683:20692   */\n      dup2\n        /* \"#utility.yul\":20677:20681   */\n      dup2\n        /* \"#utility.yul\":20673:20693   */\n      sub\n        /* \"#utility.yul\":20669:20670   */\n      0x00\n        /* \"#utility.yul\":20658:20667   */\n      dup4\n        /* \"#utility.yul\":20654:20671   */\n      add\n        /* \"#utility.yul\":20647:20694   */\n      mstore\n        /* \"#utility.yul\":20711:20842   */\n      tag_434\n        /* \"#utility.yul\":20837:20841   */\n      dup2\n        /* \"#utility.yul\":20711:20842   */\n      tag_230\n      jump\t// in\n    tag_434:\n        /* \"#utility.yul\":20703:20842   */\n      swap1\n      pop\n        /* \"#utility.yul\":20430:20849   */\n      swap2\n      swap1\n      pop\n      jump\t// out\n        /* \"#utility.yul\":20855:21035   */\n    tag_231:\n        /* \"#utility.yul\":21023:21028   */\n      0x4e49470000000000000000000000000000000000000000000000000000000000\n        /* \"#utility.yul\":21018:21021   */\n      dup2\n        /* \"#utility.yul\":21011:21029   */\n      mstore\n        /* \"#utility.yul\":20855:21035   */\n      pop\n      jump\t// out\n        /* \"#utility.yul\":21041:21580   */\n    tag_109:\n        /* \"#utility.yul\":21263:21266   */\n      0x00\n        /* \"#utility.yul\":21278:21415   */\n      tag_437\n        /* \"#utility.yul\":21411:21414   */\n      dup3\n        /* \"#utility.yul\":21278:21415   */\n      tag_231\n      jump\t// in\n    tag_437:\n        /* \"#utility.yul\":21440:21441   */\n      0x03\n        /* \"#utility.yul\":21435:21438   */\n      dup3\n        /* \"#utility.yul\":21431:21442   */\n      add\n        /* \"#utility.yul\":21424:21442   */\n      swap2\n      pop\n        /* \"#utility.yul\":21459:21554   */\n      tag_438\n        /* \"#utility.yul\":21550:21553   */\n      dup3\n        /* \"#utility.yul\":21541:21547   */\n      dup5\n        /* \"#utility.yul\":21459:21554   */\n      tag_211\n      jump\t// in\n    tag_438:\n        /* \"#utility.yul\":21452:21554   */\n      swap2\n      pop\n        /* \"#utility.yul\":21571:21574   */\n      dup2\n        /* \"#utility.yul\":21564:21574   */\n      swap1\n      pop\n        /* \"#utility.yul\":21041:21580   */\n      swap3\n      swap2\n      pop\n      pop\n      jump\t// out\n        /* \"#utility.yul\":21586:21766   */\n    tag_232:\n        /* \"#utility.yul\":21634:21711   */\n      0x4e487b7100000000000000000000000000000000000000000000000000000000\n        /* \"#utility.yul\":21631:21632   */\n      0x00\n        /* \"#utility.yul\":21624:21712   */\n      mstore\n        /* \"#utility.yul\":21731:21735   */\n      0x11\n        /* \"#utility.yul\":21728:21729   */\n      0x04\n        /* \"#utility.yul\":21721:21736   */\n      mstore\n        /* \"#utility.yul\":21755:21759   */\n      0x24\n        /* \"#utility.yul\":21752:21753   */\n      0x00\n        /* \"#utility.yul\":21745:21760   */\n      revert\n        /* \"#utility.yul\":21772:21963   */\n    tag_113:\n        /* \"#utility.yul\":21812:21815   */\n      0x00\n        /* \"#utility.yul\":21831:21851   */\n      tag_441\n        /* \"#utility.yul\":21849:21850   */\n      dup3\n        /* \"#utility.yul\":21831:21851   */\n      tag_188\n      jump\t// in\n    tag_441:\n        /* \"#utility.yul\":21826:21851   */\n      swap2\n      pop\n        /* \"#utility.yul\":21865:21885   */\n      tag_442\n        /* \"#utility.yul\":21883:21884   */\n      dup4\n        /* \"#utility.yul\":21865:21885   */\n      tag_188\n      jump\t// in\n    tag_442:\n        /* \"#utility.yul\":21860:21885   */\n      swap3\n      pop\n        /* \"#utility.yul\":21908:21909   */\n      dup3\n        /* \"#utility.yul\":21905:21906   */\n      dup3\n        /* \"#utility.yul\":21901:21910   */\n      add\n        /* \"#utility.yul\":21894:21910   */\n      swap1\n      pop\n        /* \"#utility.yul\":21929:21932   */\n      dup1\n        /* \"#utility.yul\":21926:21927   */\n      dup3\n        /* \"#utility.yul\":21923:21933   */\n      gt\n        /* \"#utility.yul\":21920:21956   */\n      iszero\n      tag_443\n      jumpi\n        /* \"#utility.yul\":21936:21954   */\n      tag_444\n      tag_232\n      jump\t// in\n    tag_444:\n        /* \"#utility.yul\":21920:21956   */\n    tag_443:\n        /* \"#utility.yul\":21772:21963   */\n      swap3\n      swap2\n      pop\n      pop\n      jump\t// out\n        /* \"#utility.yul\":21969:22115   */\n    tag_233:\n        /* \"#utility.yul\":22066:22072   */\n      dup3\n        /* \"#utility.yul\":22061:22064   */\n      dup2\n        /* \"#utility.yul\":22056:22059   */\n      dup4\n        /* \"#utility.yul\":22043:22073   */\n      calldatacopy\n        /* \"#utility.yul\":22107:22108   */\n      0x00\n        /* \"#utility.yul\":22098:22104   */\n      dup4\n        /* \"#utility.yul\":22093:22096   */\n      dup4\n        /* \"#utility.yul\":22089:22105   */\n      add\n        /* \"#utility.yul\":22082:22109   */\n      mstore\n        /* \"#utility.yul\":21969:22115   */\n      pop\n      pop\n      pop\n      jump\t// out\n        /* \"#utility.yul\":22145:22475   */\n    tag_234:\n        /* \"#utility.yul\":22261:22264   */\n      0x00\n        /* \"#utility.yul\":22282:22371   */\n      tag_447\n        /* \"#utility.yul\":22364:22370   */\n      dup4\n        /* \"#utility.yul\":22359:22362   */\n      dup6\n        /* \"#utility.yul\":22282:22371   */\n      tag_210\n      jump\t// in\n    tag_447:\n        /* \"#utility.yul\":22275:22371   */\n      swap4\n      pop\n        /* \"#utility.yul\":22381:22437   */\n      tag_448\n        /* \"#utility.yul\":22430:22436   */\n      dup4\n        /* \"#utility.yul\":22425:22428   */\n      dup6\n        /* \"#utility.yul\":22418:22423   */\n      dup5\n        /* \"#utility.yul\":22381:22437   */\n      tag_233\n      jump\t// in\n    tag_448:\n        /* \"#utility.yul\":22462:22468   */\n      dup3\n        /* \"#utility.yul\":22457:22460   */\n      dup5\n        /* \"#utility.yul\":22453:22469   */\n      add\n        /* \"#utility.yul\":22446:22469   */\n      swap1\n      pop\n        /* \"#utility.yul\":22145:22475   */\n      swap4\n      swap3\n      pop\n      pop\n      pop\n      jump\t// out\n        /* \"#utility.yul\":22481:22776   */\n    tag_127:\n        /* \"#utility.yul\":22623:22626   */\n      0x00\n        /* \"#utility.yul\":22645:22750   */\n      tag_450\n        /* \"#utility.yul\":22746:22749   */\n      dup3\n        /* \"#utility.yul\":22737:22743   */\n      dup5\n        /* \"#utility.yul\":22729:22735   */\n      dup7\n        /* \"#utility.yul\":22645:22750   */\n      tag_234\n      jump\t// in\n    tag_450:\n        /* \"#utility.yul\":22638:22750   */\n      swap2\n      pop\n        /* \"#utility.yul\":22767:22770   */\n      dup2\n        /* \"#utility.yul\":22760:22770   */\n      swap1\n      pop\n        /* \"#utility.yul\":22481:22776   */\n      swap4\n      swap3\n      pop\n      pop\n      pop\n      jump\t// out\n        /* \"#utility.yul\":22806:23680   */\n    tag_235:\n        /* \"#utility.yul\":22909:22912   */\n      0x00\n        /* \"#utility.yul\":22946:22951   */\n      dup2\n        /* \"#utility.yul\":22940:22952   */\n      sload\n        /* \"#utility.yul\":22975:23011   */\n      tag_452\n        /* \"#utility.yul\":23001:23010   */\n      dup2\n        /* \"#utility.yul\":22975:23011   */\n      tag_54\n      jump\t// in\n    tag_452:\n        /* \"#utility.yul\":23027:23116   */\n      tag_453\n        /* \"#utility.yul\":23109:23115   */\n      dup2\n        /* \"#utility.yul\":23104:23107   */\n      dup7\n        /* \"#utility.yul\":23027:23116   */\n      tag_210\n      jump\t// in\n    tag_453:\n        /* \"#utility.yul\":23020:23116   */\n      swap5\n      pop\n        /* \"#utility.yul\":23147:23148   */\n      0x01\n        /* \"#utility.yul\":23136:23145   */\n      dup3\n        /* \"#utility.yul\":23132:23149   */\n      and\n        /* \"#utility.yul\":23163:23164   */\n      0x00\n        /* \"#utility.yul\":23158:23324   */\n      dup2\n      eq\n      tag_455\n      jumpi\n        /* \"#utility.yul\":23338:23339   */\n      0x01\n        /* \"#utility.yul\":23333:23674   */\n      dup2\n      eq\n      tag_456\n      jumpi\n        /* \"#utility.yul\":23125:23674   */\n      jump(tag_454)\n        /* \"#utility.yul\":23158:23324   */\n    tag_455:\n        /* \"#utility.yul\":23242:23246   */\n      0xff\n        /* \"#utility.yul\":23238:23247   */\n      not\n        /* \"#utility.yul\":23227:23236   */\n      dup4\n        /* \"#utility.yul\":23223:23248   */\n      and\n        /* \"#utility.yul\":23218:23221   */\n      dup7\n        /* \"#utility.yul\":23211:23249   */\n      mstore\n        /* \"#utility.yul\":23304:23310   */\n      dup2\n        /* \"#utility.yul\":23297:23311   */\n      iszero\n        /* \"#utility.yul\":23290:23312   */\n      iszero\n        /* \"#utility.yul\":23282:23288   */\n      dup3\n        /* \"#utility.yul\":23278:23313   */\n      mul\n        /* \"#utility.yul\":23273:23276   */\n      dup7\n        /* \"#utility.yul\":23269:23314   */\n      add\n        /* \"#utility.yul\":23262:23314   */\n      swap4\n      pop\n        /* \"#utility.yul\":23158:23324   */\n      jump(tag_454)\n        /* \"#utility.yul\":23333:23674   */\n    tag_456:\n        /* \"#utility.yul\":23400:23438   */\n      tag_457\n        /* \"#utility.yul\":23432:23437   */\n      dup6\n        /* \"#utility.yul\":23400:23438   */\n      tag_212\n      jump\t// in\n    tag_457:\n        /* \"#utility.yul\":23460:23461   */\n      0x00\n        /* \"#utility.yul\":23474:23628   */\n    tag_458:\n        /* \"#utility.yul\":23488:23494   */\n      dup4\n        /* \"#utility.yul\":23485:23486   */\n      dup2\n        /* \"#utility.yul\":23482:23495   */\n      lt\n        /* \"#utility.yul\":23474:23628   */\n      iszero\n      tag_460\n      jumpi\n        /* \"#utility.yul\":23562:23569   */\n      dup2\n        /* \"#utility.yul\":23556:23570   */\n      sload\n        /* \"#utility.yul\":23552:23553   */\n      dup2\n        /* \"#utility.yul\":23547:23550   */\n      dup10\n        /* \"#utility.yul\":23543:23554   */\n      add\n        /* \"#utility.yul\":23536:23571   */\n      mstore\n        /* \"#utility.yul\":23612:23613   */\n      0x01\n        /* \"#utility.yul\":23603:23610   */\n      dup3\n        /* \"#utility.yul\":23599:23614   */\n      add\n        /* \"#utility.yul\":23588:23614   */\n      swap2\n      pop\n        /* \"#utility.yul\":23510:23514   */\n      0x20\n        /* \"#utility.yul\":23507:23508   */\n      dup2\n        /* \"#utility.yul\":23503:23515   */\n      add\n        /* \"#utility.yul\":23498:23515   */\n      swap1\n      pop\n        /* \"#utility.yul\":23474:23628   */\n      jump(tag_458)\n    tag_460:\n        /* \"#utility.yul\":23657:23663   */\n      dup4\n        /* \"#utility.yul\":23652:23655   */\n      dup9\n        /* \"#utility.yul\":23648:23664   */\n      add\n        /* \"#utility.yul\":23641:23664   */\n      swap6\n      pop\n        /* \"#utility.yul\":23340:23674   */\n      pop\n      pop\n        /* \"#utility.yul\":23125:23674   */\n    tag_454:\n      pop\n        /* \"#utility.yul\":22913:23680   */\n      pop\n      pop\n        /* \"#utility.yul\":22806:23680   */\n      swap3\n      swap2\n      pop\n      pop\n      jump\t// out\n        /* \"#utility.yul\":23686:23955   */\n    tag_129:\n        /* \"#utility.yul\":23815:23818   */\n      0x00\n        /* \"#utility.yul\":23837:23929   */\n      tag_462\n        /* \"#utility.yul\":23925:23928   */\n      dup3\n        /* \"#utility.yul\":23916:23922   */\n      dup5\n        /* \"#utility.yul\":23837:23929   */\n      tag_235\n      jump\t// in\n    tag_462:\n        /* \"#utility.yul\":23830:23929   */\n      swap2\n      pop\n        /* \"#utility.yul\":23946:23949   */\n      dup2\n        /* \"#utility.yul\":23939:23949   */\n      swap1\n      pop\n        /* \"#utility.yul\":23686:23955   */\n      swap3\n      swap2\n      pop\n      pop\n      jump\t// out\n        /* \"#utility.yul\":23961:24141   */\n    tag_153:\n        /* \"#utility.yul\":24009:24086   */\n      0x4e487b7100000000000000000000000000000000000000000000000000000000\n        /* \"#utility.yul\":24006:24007   */\n      0x00\n        /* \"#utility.yul\":23999:24087   */\n      mstore\n        /* \"#utility.yul\":24106:24110   */\n      0x12\n        /* \"#utility.yul\":24103:24104   */\n      0x04\n        /* \"#utility.yul\":24096:24111   */\n      mstore\n        /* \"#utility.yul\":24130:24134   */\n      0x24\n        /* \"#utility.yul\":24127:24128   */\n      0x00\n        /* \"#utility.yul\":24120:24135   */\n      revert\n\n    auxdata: 0xa264697066735822122090dd5cba2892a7727229bd0628f72d5880c75bc6d44d2732da9ce03b0d2ddc5564736f6c63430008120033\n}\n",
				"bytecode": {
					"linkReferences": {},
					"object": "608060405234801561001057600080fd5b5033600160006101000a81548173ffffffffffffffffffffffffffffffffffffffff021916908373ffffffffffffffffffffffffffffffffffffffff1602179055506001600281905550611f2b806100696000396000f3fe608060405234801561001057600080fd5b50600436106100935760003560e01c8063c0264d3a11610066578063c0264d3a1461013a578063ce606ee01461016a578063cfa3420814610188578063ef5b7ceb146101a6578063fbbf93a0146101d657610093565b80637151ace214610098578063a3ec138d146100b6578063a48af096146100ea578063b80152161461011e575b600080fd5b6100a06101f4565b6040516100ad91906112eb565b60405180910390f35b6100d060048036038101906100cb919061133c565b610218565b6040516100e195949392919061142d565b60405180910390f35b61010460048036038101906100ff919061133c565b61038b565b60405161011595949392919061148e565b60405180910390f35b6101386004803603810190610133919061155b565b610586565b005b610154600480360381019061014f91906115d4565b6108b8565b6040516101619190611728565b60405180910390f35b610172610d32565b60405161017f91906112eb565b60405180910390f35b610190610d58565b60405161019d919061174a565b60405180910390f35b6101c060048036038101906101bb9190611765565b610daf565b6040516101cd919061174a565b60405180910390f35b6101de610e4c565b6040516101eb9190611728565b60405180910390f35b60008054906101000a900473ffffffffffffffffffffffffffffffffffffffff1681565b600360205280600052604060002060009150905080600001805461023b906117f4565b80601f0160208091040260200160405190810160405280929190818152602001828054610267906117f4565b80156102b45780601f10610289576101008083540402835291602001916102b4565b820191906000526020600020905b81548152906001019060200180831161029757829003601f168201915b5050505050908060010154908060020180546102cf906117f4565b80601f01602080910402602001604051908101604052809291908181526020018280546102fb906117f4565b80156103485780601f1061031d57610100808354040283529160200191610348565b820191906000526020600020905b81548152906001019060200180831161032b57829003601f168201915b5050505050908060030160009054906101000a900460ff16908060030160019054906101000a900473ffffffffffffffffffffffffffffffffffffffff16905085565b60046020528060005260406000206000915090508060000180546103ae906117f4565b80601f01602080910402602001604051908101604052809291908181526020018280546103da906117f4565b80156104275780601f106103fc57610100808354040283529160200191610427565b820191906000526020600020905b81548152906001019060200180831161040a57829003601f168201915b50505050509080600101805461043c906117f4565b80601f0160208091040260200160405190810160405280929190818152602001828054610468906117f4565b80156104b55780601f1061048a576101008083540402835291602001916104b5565b820191906000526020600020905b81548152906001019060200180831161049857829003601f168201915b5050505050908060020180546104ca906117f4565b80601f01602080910402602001604051908101604052809291908181526020018280546104f6906117f4565b80156105435780601f1061051857610100808354040283529160200191610543565b820191906000526020600020905b81548152906001019060200180831161052657829003601f168201915b5050505050908060030160009054906101000a900460ff16908060030160019054906101000a900473ffffffffffffffffffffffffffffffffffffffff16905085565b6000600460003373ffffffffffffffffffffffffffffffffffffffff1673ffffffffffffffffffffffffffffffffffffffff16815260200190815260200160002060010180546105d5906117f4565b905014610617576040517f08c379a000000000000000000000000000000000000000000000000000000000815260040161060e90611871565b60405180910390fd5b6000600360003373ffffffffffffffffffffffffffffffffffffffff1673ffffffffffffffffffffffffffffffffffffffff1681526020019081526020016000206002018054610666906117f4565b9050036106a8576040517f08c379a000000000000000000000000000000000000000000000000000000000815260040161069f90611903565b60405180910390fd5b60006106b5600254611042565b6040516020016106c59190611985565b604051602081830303815290604052905060405180602001604052806000815250600360003373ffffffffffffffffffffffffffffffffffffffff1673ffffffffffffffffffffffffffffffffffffffff16815260200190815260200160002060020190816107349190611b86565b506040518060a0016040528084848080601f016020809104026020016040519081016040528093929190818152602001838380828437600081840152601f19601f8201169050808301925050505050505081526020018281526020016040518060200160405280600081525081526020016000151581526020013373ffffffffffffffffffffffffffffffffffffffff16815250600460003373ffffffffffffffffffffffffffffffffffffffff1673ffffffffffffffffffffffffffffffffffffffff168152602001908152602001600020600082015181600001908161081c9190611b86565b5060208201518160010190816108329190611b86565b5060408201518160020190816108489190611b86565b5060608201518160030160006101000a81548160ff02191690831515021790555060808201518160030160016101000a81548173ffffffffffffffffffffffffffffffffffffffff021916908373ffffffffffffffffffffffffffffffffffffffff160217905550905050505050565b6108c0611263565b60118211610903576040517f08c379a00000000000000000000000000000000000000000000000000000000081526004016108fa90611ca4565b60405180910390fd5b6000600360003373ffffffffffffffffffffffffffffffffffffffff1673ffffffffffffffffffffffffffffffffffffffff1681526020019081526020016000206002018054610952906117f4565b905014610994576040517f08c379a000000000000000000000000000000000000000000000000000000000815260040161098b90611d10565b60405180910390fd5b60006109a1600254611042565b6040516020016109b19190611d56565b60405160208183030381529060405290506040518060a0016040528086868080601f016020809104026020016040519081016040528093929190818152602001838380828437600081840152601f19601f8201169050808301925050505050505081526020018481526020018281526020016000151581526020013373ffffffffffffffffffffffffffffffffffffffff16815250600360003373ffffffffffffffffffffffffffffffffffffffff1673ffffffffffffffffffffffffffffffffffffffff1681526020019081526020016000206000820151816000019081610a9a9190611b86565b50602082015181600101556040820151816002019081610aba9190611b86565b5060608201518160030160006101000a81548160ff02191690831515021790555060808201518160030160016101000a81548173ffffffffffffffffffffffffffffffffffffffff021916908373ffffffffffffffffffffffffffffffffffffffff160217905550905050600160026000828254610b389190611dab565b92505081905550600360003373ffffffffffffffffffffffffffffffffffffffff1673ffffffffffffffffffffffffffffffffffffffff1681526020019081526020016000206040518060a0016040529081600082018054610b99906117f4565b80601f0160208091040260200160405190810160405280929190818152602001828054610bc5906117f4565b8015610c125780601f10610be757610100808354040283529160200191610c12565b820191906000526020600020905b815481529060010190602001808311610bf557829003601f168201915b5050505050815260200160018201548152602001600282018054610c35906117f4565b80601f0160208091040260200160405190810160405280929190818152602001828054610c61906117f4565b8015610cae5780601f10610c8357610100808354040283529160200191610cae565b820191906000526020600020905b815481529060010190602001808311610c9157829003601f168201915b505050505081526020016003820160009054906101000a900460ff161515151581526020016003820160019054906101000a900473ffffffffffffffffffffffffffffffffffffffff1673ffffffffffffffffffffffffffffffffffffffff1673ffffffffffffffffffffffffffffffffffffffff16815250509150509392505050565b600160009054906101000a900473ffffffffffffffffffffffffffffffffffffffff1681565b6000600360003373ffffffffffffffffffffffffffffffffffffffff1673ffffffffffffffffffffffffffffffffffffffff16815260200190815260200160002060030160009054906101000a900460ff16905090565b60008383604051602001610dc4929190611e13565b60405160208183030381529060405280519060200120600460008473ffffffffffffffffffffffffffffffffffffffff1673ffffffffffffffffffffffffffffffffffffffff168152602001908152602001600020600201604051602001610e2c9190611eaf565b604051602081830303815290604052805190602001201490509392505050565b610e54611263565b600360003373ffffffffffffffffffffffffffffffffffffffff1673ffffffffffffffffffffffffffffffffffffffff1681526020019081526020016000206040518060a0016040529081600082018054610eae906117f4565b80601f0160208091040260200160405190810160405280929190818152602001828054610eda906117f4565b8015610f275780601f10610efc57610100808354040283529160200191610f27565b820191906000526020600020905b815481529060010190602001808311610f0a57829003601f168201915b5050505050815260200160018201548152602001600282018054610f4a906117f4565b80601f0160208091040260200160405190810160405280929190818152602001828054610f76906117f4565b8015610fc35780601f10610f9857610100808354040283529160200191610fc3565b820191906000526020600020905b815481529060010190602001808311610fa657829003601f168201915b505050505081526020016003820160009054906101000a900460ff161515151581526020016003820160019054906101000a900473ffffffffffffffffffffffffffffffffffffffff1673ffffffffffffffffffffffffffffffffffffffff1673ffffffffffffffffffffffffffffffffffffffff1681525050905090565b60606000600161105184611110565b01905060008167ffffffffffffffff8111156110705761106f6119ab565b5b6040519080825280601f01601f1916602001820160405280156110a25781602001600182028036833780820191505090505b509050600082602001820190505b600115611105578080600190039150507f3031323334353637383961626364656600000000000000000000000000000000600a86061a8153600a85816110f9576110f8611ec6565b5b049450600085036110b0575b819350505050919050565b600080600090507a184f03e93ff9f4daa797ed6e38ed64bf6a1f010000000000000000831061116e577a184f03e93ff9f4daa797ed6e38ed64bf6a1f010000000000000000838161116457611163611ec6565b5b0492506040810190505b6d04ee2d6d415b85acef810000000083106111ab576d04ee2d6d415b85acef810000000083816111a1576111a0611ec6565b5b0492506020810190505b662386f26fc1000083106111da57662386f26fc1000083816111d0576111cf611ec6565b5b0492506010810190505b6305f5e1008310611203576305f5e10083816111f9576111f8611ec6565b5b0492506008810190505b612710831061122857612710838161121e5761121d611ec6565b5b0492506004810190505b6064831061124b576064838161124157611240611ec6565b5b0492506002810190505b600a831061125a576001810190505b80915050919050565b6040518060a00160405280606081526020016000815260200160608152602001600015158152602001600073ffffffffffffffffffffffffffffffffffffffff1681525090565b600073ffffffffffffffffffffffffffffffffffffffff82169050919050565b60006112d5826112aa565b9050919050565b6112e5816112ca565b82525050565b600060208201905061130060008301846112dc565b92915050565b600080fd5b600080fd5b611319816112ca565b811461132457600080fd5b50565b60008135905061133681611310565b92915050565b60006020828403121561135257611351611306565b5b600061136084828501611327565b91505092915050565b600081519050919050565b600082825260208201905092915050565b60005b838110156113a3578082015181840152602081019050611388565b60008484015250505050565b6000601f19601f8301169050919050565b60006113cb82611369565b6113d58185611374565b93506113e5818560208601611385565b6113ee816113af565b840191505092915050565b6000819050919050565b61140c816113f9565b82525050565b60008115159050919050565b61142781611412565b82525050565b600060a082019050818103600083015261144781886113c0565b90506114566020830187611403565b818103604083015261146881866113c0565b9050611477606083018561141e565b61148460808301846112dc565b9695505050505050565b600060a08201905081810360008301526114a881886113c0565b905081810360208301526114bc81876113c0565b905081810360408301526114d081866113c0565b90506114df606083018561141e565b6114ec60808301846112dc565b9695505050505050565b600080fd5b600080fd5b600080fd5b60008083601f84011261151b5761151a6114f6565b5b8235905067ffffffffffffffff811115611538576115376114fb565b5b60208301915083600182028301111561155457611553611500565b5b9250929050565b6000806020838503121561157257611571611306565b5b600083013567ffffffffffffffff8111156115905761158f61130b565b5b61159c85828601611505565b92509250509250929050565b6115b1816113f9565b81146115bc57600080fd5b50565b6000813590506115ce816115a8565b92915050565b6000806000604084860312156115ed576115ec611306565b5b600084013567ffffffffffffffff81111561160b5761160a61130b565b5b61161786828701611505565b9350935050602061162a868287016115bf565b9150509250925092565b600082825260208201905092915050565b600061165082611369565b61165a8185611634565b935061166a818560208601611385565b611673816113af565b840191505092915050565b611687816113f9565b82525050565b61169681611412565b82525050565b6116a5816112ca565b82525050565b600060a08301600083015184820360008601526116c88282611645565b91505060208301516116dd602086018261167e565b50604083015184820360408601526116f58282611645565b915050606083015161170a606086018261168d565b50608083015161171d608086018261169c565b508091505092915050565b6000602082019050818103600083015261174281846116ab565b905092915050565b600060208201905061175f600083018461141e565b92915050565b60008060006040848603121561177e5761177d611306565b5b600084013567ffffffffffffffff81111561179c5761179b61130b565b5b6117a886828701611505565b935093505060206117bb86828701611327565b9150509250925092565b7f4e487b7100000000000000000000000000000000000000000000000000000000600052602260045260246000fd5b6000600282049050600182168061180c57607f821691505b60208210810361181f5761181e6117c5565b5b50919050565b7f54686973206164647265737320697320616e2061646d696e0000000000000000600082015250565b600061185b601883611374565b915061186682611825565b602082019050919050565b6000602082019050818103600083015261188a8161184e565b9050919050565b7f54686973206164647265737320686173206d6f74206265656e2072656769737460008201527f6572656420696e2074686520656c6563746f72616c2070726f63657373000000602082015250565b60006118ed603d83611374565b91506118f882611891565b604082019050919050565b6000602082019050818103600083015261191c816118e0565b9050919050565b7f434f440000000000000000000000000000000000000000000000000000000000815250565b600081905092915050565b600061195f82611369565b6119698185611949565b9350611979818560208601611385565b80840191505092915050565b600061199082611923565b6003820191506119a08284611954565b915081905092915050565b7f4e487b7100000000000000000000000000000000000000000000000000000000600052604160045260246000fd5b60008190508160005260206000209050919050565b60006020601f8301049050919050565b600082821b905092915050565b600060088302611a3c7fffffffffffffffffffffffffffffffffffffffffffffffffffffffffffffffff826119ff565b611a4686836119ff565b95508019841693508086168417925050509392505050565b6000819050919050565b6000611a83611a7e611a79846113f9565b611a5e565b6113f9565b9050919050565b6000819050919050565b611a9d83611a68565b611ab1611aa982611a8a565b848454611a0c565b825550505050565b600090565b611ac6611ab9565b611ad1818484611a94565b505050565b5b81811015611af557611aea600082611abe565b600181019050611ad7565b5050565b601f821115611b3a57611b0b816119da565b611b14846119ef565b81016020851015611b23578190505b611b37611b2f856119ef565b830182611ad6565b50505b505050565b600082821c905092915050565b6000611b5d60001984600802611b3f565b1980831691505092915050565b6000611b768383611b4c565b9150826002028217905092915050565b611b8f82611369565b67ffffffffffffffff811115611ba857611ba76119ab565b5b611bb282546117f4565b611bbd828285611af9565b600060209050601f831160018114611bf05760008415611bde578287015190505b611be88582611b6a565b865550611c50565b601f198416611bfe866119da565b60005b82811015611c2657848901518255600182019150602085019450602081019050611c01565b86831015611c435784890151611c3f601f891682611b4c565b8355505b6001600288020188555050505b505050505050565b7f6e6f7420656c696769626c6520746f20766f7465000000000000000000000000600082015250565b6000611c8e601483611374565b9150611c9982611c58565b602082019050919050565b60006020820190508181036000830152611cbd81611c81565b9050919050565b7f54686973206164647265737320686173206265656e2072656769737465726564600082015250565b6000611cfa602083611374565b9150611d0582611cc4565b602082019050919050565b60006020820190508181036000830152611d2981611ced565b9050919050565b7f4e49470000000000000000000000000000000000000000000000000000000000815250565b6000611d6182611d30565b600382019150611d718284611954565b915081905092915050565b7f4e487b7100000000000000000000000000000000000000000000000000000000600052601160045260246000fd5b6000611db6826113f9565b9150611dc1836113f9565b9250828201905080821115611dd957611dd8611d7c565b5b92915050565b82818337600083830152505050565b6000611dfa8385611949565b9350611e07838584611ddf565b82840190509392505050565b6000611e20828486611dee565b91508190509392505050565b60008154611e39816117f4565b611e438186611949565b94506001821660008114611e5e5760018114611e7357611ea6565b60ff1983168652811515820286019350611ea6565b611e7c856119da565b60005b83811015611e9e57815481890152600182019150602081019050611e7f565b838801955050505b50505092915050565b6000611ebb8284611e2c565b915081905092915050565b7f4e487b7100000000000000000000000000000000000000000000000000000000600052601260045260246000fdfea264697066735822122090dd5cba2892a7727229bd0628f72d5880c75bc6d44d2732da9ce03b0d2ddc5564736f6c63430008120033",
					"opcodes": "PUSH1 0x80 PUSH1 0x40 MSTORE CALLVALUE DUP1 ISZERO PUSH2 0x10 JUMPI PUSH1 0x0 DUP1 REVERT JUMPDEST POP CALLER PUSH1 0x1 PUSH1 0x0 PUSH2 0x100 EXP DUP2 SLOAD DUP2 PUSH20 0xFFFFFFFFFFFFFFFFFFFFFFFFFFFFFFFFFFFFFFFF MUL NOT AND SWAP1 DUP4 PUSH20 0xFFFFFFFFFFFFFFFFFFFFFFFFFFFFFFFFFFFFFFFF AND MUL OR SWAP1 SSTORE POP PUSH1 0x1 PUSH1 0x2 DUP2 SWAP1 SSTORE POP PUSH2 0x1F2B DUP1 PUSH2 0x69 PUSH1 0x0 CODECOPY PUSH1 0x0 RETURN INVALID PUSH1 0x80 PUSH1 0x40 MSTORE CALLVALUE DUP1 ISZERO PUSH2 0x10 JUMPI PUSH1 0x0 DUP1 REVERT JUMPDEST POP PUSH1 0x4 CALLDATASIZE LT PUSH2 0x93 JUMPI PUSH1 0x0 CALLDATALOAD PUSH1 0xE0 SHR DUP1 PUSH4 0xC0264D3A GT PUSH2 0x66 JUMPI DUP1 PUSH4 0xC0264D3A EQ PUSH2 0x13A JUMPI DUP1 PUSH4 0xCE606EE0 EQ PUSH2 0x16A JUMPI DUP1 PUSH4 0xCFA34208 EQ PUSH2 0x188 JUMPI DUP1 PUSH4 0xEF5B7CEB EQ PUSH2 0x1A6 JUMPI DUP1 PUSH4 0xFBBF93A0 EQ PUSH2 0x1D6 JUMPI PUSH2 0x93 JUMP JUMPDEST DUP1 PUSH4 0x7151ACE2 EQ PUSH2 0x98 JUMPI DUP1 PUSH4 0xA3EC138D EQ PUSH2 0xB6 JUMPI DUP1 PUSH4 0xA48AF096 EQ PUSH2 0xEA JUMPI DUP1 PUSH4 0xB8015216 EQ PUSH2 0x11E JUMPI JUMPDEST PUSH1 0x0 DUP1 REVERT JUMPDEST PUSH2 0xA0 PUSH2 0x1F4 JUMP JUMPDEST PUSH1 0x40 MLOAD PUSH2 0xAD SWAP2 SWAP1 PUSH2 0x12EB JUMP JUMPDEST PUSH1 0x40 MLOAD DUP1 SWAP2 SUB SWAP1 RETURN JUMPDEST PUSH2 0xD0 PUSH1 0x4 DUP1 CALLDATASIZE SUB DUP2 ADD SWAP1 PUSH2 0xCB SWAP2 SWAP1 PUSH2 0x133C JUMP JUMPDEST PUSH2 0x218 JUMP JUMPDEST PUSH1 0x40 MLOAD PUSH2 0xE1 SWAP6 SWAP5 SWAP4 SWAP3 SWAP2 SWAP1 PUSH2 0x142D JUMP JUMPDEST PUSH1 0x40 MLOAD DUP1 SWAP2 SUB SWAP1 RETURN JUMPDEST PUSH2 0x104 PUSH1 0x4 DUP1 CALLDATASIZE SUB DUP2 ADD SWAP1 PUSH2 0xFF SWAP2 SWAP1 PUSH2 0x133C JUMP JUMPDEST PUSH2 0x38B JUMP JUMPDEST PUSH1 0x40 MLOAD PUSH2 0x115 SWAP6 SWAP5 SWAP4 SWAP3 SWAP2 SWAP1 PUSH2 0x148E JUMP JUMPDEST PUSH1 0x40 MLOAD DUP1 SWAP2 SUB SWAP1 RETURN JUMPDEST PUSH2 0x138 PUSH1 0x4 DUP1 CALLDATASIZE SUB DUP2 ADD SWAP1 PUSH2 0x133 SWAP2 SWAP1 PUSH2 0x155B JUMP JUMPDEST PUSH2 0x586 JUMP JUMPDEST STOP JUMPDEST PUSH2 0x154 PUSH1 0x4 DUP1 CALLDATASIZE SUB DUP2 ADD SWAP1 PUSH2 0x14F SWAP2 SWAP1 PUSH2 0x15D4 JUMP JUMPDEST PUSH2 0x8B8 JUMP JUMPDEST PUSH1 0x40 MLOAD PUSH2 0x161 SWAP2 SWAP1 PUSH2 0x1728 JUMP JUMPDEST PUSH1 0x40 MLOAD DUP1 SWAP2 SUB SWAP1 RETURN JUMPDEST PUSH2 0x172 PUSH2 0xD32 JUMP JUMPDEST PUSH1 0x40 MLOAD PUSH2 0x17F SWAP2 SWAP1 PUSH2 0x12EB JUMP JUMPDEST PUSH1 0x40 MLOAD DUP1 SWAP2 SUB SWAP1 RETURN JUMPDEST PUSH2 0x190 PUSH2 0xD58 JUMP JUMPDEST PUSH1 0x40 MLOAD PUSH2 0x19D SWAP2 SWAP1 PUSH2 0x174A JUMP JUMPDEST PUSH1 0x40 MLOAD DUP1 SWAP2 SUB SWAP1 RETURN JUMPDEST PUSH2 0x1C0 PUSH1 0x4 DUP1 CALLDATASIZE SUB DUP2 ADD SWAP1 PUSH2 0x1BB SWAP2 SWAP1 PUSH2 0x1765 JUMP JUMPDEST PUSH2 0xDAF JUMP JUMPDEST PUSH1 0x40 MLOAD PUSH2 0x1CD SWAP2 SWAP1 PUSH2 0x174A JUMP JUMPDEST PUSH1 0x40 MLOAD DUP1 SWAP2 SUB SWAP1 RETURN JUMPDEST PUSH2 0x1DE PUSH2 0xE4C JUMP JUMPDEST PUSH1 0x40 MLOAD PUSH2 0x1EB SWAP2 SWAP1 PUSH2 0x1728 JUMP JUMPDEST PUSH1 0x40 MLOAD DUP1 SWAP2 SUB SWAP1 RETURN JUMPDEST PUSH1 0x0 DUP1 SLOAD SWAP1 PUSH2 0x100 EXP SWAP1 DIV PUSH20 0xFFFFFFFFFFFFFFFFFFFFFFFFFFFFFFFFFFFFFFFF AND DUP2 JUMP JUMPDEST PUSH1 0x3 PUSH1 0x20 MSTORE DUP1 PUSH1 0x0 MSTORE PUSH1 0x40 PUSH1 0x0 KECCAK256 PUSH1 0x0 SWAP2 POP SWAP1 POP DUP1 PUSH1 0x0 ADD DUP1 SLOAD PUSH2 0x23B SWAP1 PUSH2 0x17F4 JUMP JUMPDEST DUP1 PUSH1 0x1F ADD PUSH1 0x20 DUP1 SWAP2 DIV MUL PUSH1 0x20 ADD PUSH1 0x40 MLOAD SWAP1 DUP2 ADD PUSH1 0x40 MSTORE DUP1 SWAP3 SWAP2 SWAP1 DUP2 DUP2 MSTORE PUSH1 0x20 ADD DUP3 DUP1 SLOAD PUSH2 0x267 SWAP1 PUSH2 0x17F4 JUMP JUMPDEST DUP1 ISZERO PUSH2 0x2B4 JUMPI DUP1 PUSH1 0x1F LT PUSH2 0x289 JUMPI PUSH2 0x100 DUP1 DUP4 SLOAD DIV MUL DUP4 MSTORE SWAP2 PUSH1 0x20 ADD SWAP2 PUSH2 0x2B4 JUMP JUMPDEST DUP3 ADD SWAP2 SWAP1 PUSH1 0x0 MSTORE PUSH1 0x20 PUSH1 0x0 KECCAK256 SWAP1 JUMPDEST DUP2 SLOAD DUP2 MSTORE SWAP1 PUSH1 0x1 ADD SWAP1 PUSH1 0x20 ADD DUP1 DUP4 GT PUSH2 0x297 JUMPI DUP3 SWAP1 SUB PUSH1 0x1F AND DUP3 ADD SWAP2 JUMPDEST POP POP POP POP POP SWAP1 DUP1 PUSH1 0x1 ADD SLOAD SWAP1 DUP1 PUSH1 0x2 ADD DUP1 SLOAD PUSH2 0x2CF SWAP1 PUSH2 0x17F4 JUMP JUMPDEST DUP1 PUSH1 0x1F ADD PUSH1 0x20 DUP1 SWAP2 DIV MUL PUSH1 0x20 ADD PUSH1 0x40 MLOAD SWAP1 DUP2 ADD PUSH1 0x40 MSTORE DUP1 SWAP3 SWAP2 SWAP1 DUP2 DUP2 MSTORE PUSH1 0x20 ADD DUP3 DUP1 SLOAD PUSH2 0x2FB SWAP1 PUSH2 0x17F4 JUMP JUMPDEST DUP1 ISZERO PUSH2 0x348 JUMPI DUP1 PUSH1 0x1F LT PUSH2 0x31D JUMPI PUSH2 0x100 DUP1 DUP4 SLOAD DIV MUL DUP4 MSTORE SWAP2 PUSH1 0x20 ADD SWAP2 PUSH2 0x348 JUMP JUMPDEST DUP3 ADD SWAP2 SWAP1 PUSH1 0x0 MSTORE PUSH1 0x20 PUSH1 0x0 KECCAK256 SWAP1 JUMPDEST DUP2 SLOAD DUP2 MSTORE SWAP1 PUSH1 0x1 ADD SWAP1 PUSH1 0x20 ADD DUP1 DUP4 GT PUSH2 0x32B JUMPI DUP3 SWAP1 SUB PUSH1 0x1F AND DUP3 ADD SWAP2 JUMPDEST POP POP POP POP POP SWAP1 DUP1 PUSH1 0x3 ADD PUSH1 0x0 SWAP1 SLOAD SWAP1 PUSH2 0x100 EXP SWAP1 DIV PUSH1 0xFF AND SWAP1 DUP1 PUSH1 0x3 ADD PUSH1 0x1 SWAP1 SLOAD SWAP1 PUSH2 0x100 EXP SWAP1 DIV PUSH20 0xFFFFFFFFFFFFFFFFFFFFFFFFFFFFFFFFFFFFFFFF AND SWAP1 POP DUP6 JUMP JUMPDEST PUSH1 0x4 PUSH1 0x20 MSTORE DUP1 PUSH1 0x0 MSTORE PUSH1 0x40 PUSH1 0x0 KECCAK256 PUSH1 0x0 SWAP2 POP SWAP1 POP DUP1 PUSH1 0x0 ADD DUP1 SLOAD PUSH2 0x3AE SWAP1 PUSH2 0x17F4 JUMP JUMPDEST DUP1 PUSH1 0x1F ADD PUSH1 0x20 DUP1 SWAP2 DIV MUL PUSH1 0x20 ADD PUSH1 0x40 MLOAD SWAP1 DUP2 ADD PUSH1 0x40 MSTORE DUP1 SWAP3 SWAP2 SWAP1 DUP2 DUP2 MSTORE PUSH1 0x20 ADD DUP3 DUP1 SLOAD PUSH2 0x3DA SWAP1 PUSH2 0x17F4 JUMP JUMPDEST DUP1 ISZERO PUSH2 0x427 JUMPI DUP1 PUSH1 0x1F LT PUSH2 0x3FC JUMPI PUSH2 0x100 DUP1 DUP4 SLOAD DIV MUL DUP4 MSTORE SWAP2 PUSH1 0x20 ADD SWAP2 PUSH2 0x427 JUMP JUMPDEST DUP3 ADD SWAP2 SWAP1 PUSH1 0x0 MSTORE PUSH1 0x20 PUSH1 0x0 KECCAK256 SWAP1 JUMPDEST DUP2 SLOAD DUP2 MSTORE SWAP1 PUSH1 0x1 ADD SWAP1 PUSH1 0x20 ADD DUP1 DUP4 GT PUSH2 0x40A JUMPI DUP3 SWAP1 SUB PUSH1 0x1F AND DUP3 ADD SWAP2 JUMPDEST POP POP POP POP POP SWAP1 DUP1 PUSH1 0x1 ADD DUP1 SLOAD PUSH2 0x43C SWAP1 PUSH2 0x17F4 JUMP JUMPDEST DUP1 PUSH1 0x1F ADD PUSH1 0x20 DUP1 SWAP2 DIV MUL PUSH1 0x20 ADD PUSH1 0x40 MLOAD SWAP1 DUP2 ADD PUSH1 0x40 MSTORE DUP1 SWAP3 SWAP2 SWAP1 DUP2 DUP2 MSTORE PUSH1 0x20 ADD DUP3 DUP1 SLOAD PUSH2 0x468 SWAP1 PUSH2 0x17F4 JUMP JUMPDEST DUP1 ISZERO PUSH2 0x4B5 JUMPI DUP1 PUSH1 0x1F LT PUSH2 0x48A JUMPI PUSH2 0x100 DUP1 DUP4 SLOAD DIV MUL DUP4 MSTORE SWAP2 PUSH1 0x20 ADD SWAP2 PUSH2 0x4B5 JUMP JUMPDEST DUP3 ADD SWAP2 SWAP1 PUSH1 0x0 MSTORE PUSH1 0x20 PUSH1 0x0 KECCAK256 SWAP1 JUMPDEST DUP2 SLOAD DUP2 MSTORE SWAP1 PUSH1 0x1 ADD SWAP1 PUSH1 0x20 ADD DUP1 DUP4 GT PUSH2 0x498 JUMPI DUP3 SWAP1 SUB PUSH1 0x1F AND DUP3 ADD SWAP2 JUMPDEST POP POP POP POP POP SWAP1 DUP1 PUSH1 0x2 ADD DUP1 SLOAD PUSH2 0x4CA SWAP1 PUSH2 0x17F4 JUMP JUMPDEST DUP1 PUSH1 0x1F ADD PUSH1 0x20 DUP1 SWAP2 DIV MUL PUSH1 0x20 ADD PUSH1 0x40 MLOAD SWAP1 DUP2 ADD PUSH1 0x40 MSTORE DUP1 SWAP3 SWAP2 SWAP1 DUP2 DUP2 MSTORE PUSH1 0x20 ADD DUP3 DUP1 SLOAD PUSH2 0x4F6 SWAP1 PUSH2 0x17F4 JUMP JUMPDEST DUP1 ISZERO PUSH2 0x543 JUMPI DUP1 PUSH1 0x1F LT PUSH2 0x518 JUMPI PUSH2 0x100 DUP1 DUP4 SLOAD DIV MUL DUP4 MSTORE SWAP2 PUSH1 0x20 ADD SWAP2 PUSH2 0x543 JUMP JUMPDEST DUP3 ADD SWAP2 SWAP1 PUSH1 0x0 MSTORE PUSH1 0x20 PUSH1 0x0 KECCAK256 SWAP1 JUMPDEST DUP2 SLOAD DUP2 MSTORE SWAP1 PUSH1 0x1 ADD SWAP1 PUSH1 0x20 ADD DUP1 DUP4 GT PUSH2 0x526 JUMPI DUP3 SWAP1 SUB PUSH1 0x1F AND DUP3 ADD SWAP2 JUMPDEST POP POP POP POP POP SWAP1 DUP1 PUSH1 0x3 ADD PUSH1 0x0 SWAP1 SLOAD SWAP1 PUSH2 0x100 EXP SWAP1 DIV PUSH1 0xFF AND SWAP1 DUP1 PUSH1 0x3 ADD PUSH1 0x1 SWAP1 SLOAD SWAP1 PUSH2 0x100 EXP SWAP1 DIV PUSH20 0xFFFFFFFFFFFFFFFFFFFFFFFFFFFFFFFFFFFFFFFF AND SWAP1 POP DUP6 JUMP JUMPDEST PUSH1 0x0 PUSH1 0x4 PUSH1 0x0 CALLER PUSH20 0xFFFFFFFFFFFFFFFFFFFFFFFFFFFFFFFFFFFFFFFF AND PUSH20 0xFFFFFFFFFFFFFFFFFFFFFFFFFFFFFFFFFFFFFFFF AND DUP2 MSTORE PUSH1 0x20 ADD SWAP1 DUP2 MSTORE PUSH1 0x20 ADD PUSH1 0x0 KECCAK256 PUSH1 0x1 ADD DUP1 SLOAD PUSH2 0x5D5 SWAP1 PUSH2 0x17F4 JUMP JUMPDEST SWAP1 POP EQ PUSH2 0x617 JUMPI PUSH1 0x40 MLOAD PUSH32 0x8C379A000000000000000000000000000000000000000000000000000000000 DUP2 MSTORE PUSH1 0x4 ADD PUSH2 0x60E SWAP1 PUSH2 0x1871 JUMP JUMPDEST PUSH1 0x40 MLOAD DUP1 SWAP2 SUB SWAP1 REVERT JUMPDEST PUSH1 0x0 PUSH1 0x3 PUSH1 0x0 CALLER PUSH20 0xFFFFFFFFFFFFFFFFFFFFFFFFFFFFFFFFFFFFFFFF AND PUSH20 0xFFFFFFFFFFFFFFFFFFFFFFFFFFFFFFFFFFFFFFFF AND DUP2 MSTORE PUSH1 0x20 ADD SWAP1 DUP2 MSTORE PUSH1 0x20 ADD PUSH1 0x0 KECCAK256 PUSH1 0x2 ADD DUP1 SLOAD PUSH2 0x666 SWAP1 PUSH2 0x17F4 JUMP JUMPDEST SWAP1 POP SUB PUSH2 0x6A8 JUMPI PUSH1 0x40 MLOAD PUSH32 0x8C379A000000000000000000000000000000000000000000000000000000000 DUP2 MSTORE PUSH1 0x4 ADD PUSH2 0x69F SWAP1 PUSH2 0x1903 JUMP JUMPDEST PUSH1 0x40 MLOAD DUP1 SWAP2 SUB SWAP1 REVERT JUMPDEST PUSH1 0x0 PUSH2 0x6B5 PUSH1 0x2 SLOAD PUSH2 0x1042 JUMP JUMPDEST PUSH1 0x40 MLOAD PUSH1 0x20 ADD PUSH2 0x6C5 SWAP2 SWAP1 PUSH2 0x1985 JUMP JUMPDEST PUSH1 0x40 MLOAD PUSH1 0x20 DUP2 DUP4 SUB SUB DUP2 MSTORE SWAP1 PUSH1 0x40 MSTORE SWAP1 POP PUSH1 0x40 MLOAD DUP1 PUSH1 0x20 ADD PUSH1 0x40 MSTORE DUP1 PUSH1 0x0 DUP2 MSTORE POP PUSH1 0x3 PUSH1 0x0 CALLER PUSH20 0xFFFFFFFFFFFFFFFFFFFFFFFFFFFFFFFFFFFFFFFF AND PUSH20 0xFFFFFFFFFFFFFFFFFFFFFFFFFFFFFFFFFFFFFFFF AND DUP2 MSTORE PUSH1 0x20 ADD SWAP1 DUP2 MSTORE PUSH1 0x20 ADD PUSH1 0x0 KECCAK256 PUSH1 0x2 ADD SWAP1 DUP2 PUSH2 0x734 SWAP2 SWAP1 PUSH2 0x1B86 JUMP JUMPDEST POP PUSH1 0x40 MLOAD DUP1 PUSH1 0xA0 ADD PUSH1 0x40 MSTORE DUP1 DUP5 DUP5 DUP1 DUP1 PUSH1 0x1F ADD PUSH1 0x20 DUP1 SWAP2 DIV MUL PUSH1 0x20 ADD PUSH1 0x40 MLOAD SWAP1 DUP2 ADD PUSH1 0x40 MSTORE DUP1 SWAP4 SWAP3 SWAP2 SWAP1 DUP2 DUP2 MSTORE PUSH1 0x20 ADD DUP4 DUP4 DUP1 DUP3 DUP5 CALLDATACOPY PUSH1 0x0 DUP2 DUP5 ADD MSTORE PUSH1 0x1F NOT PUSH1 0x1F DUP3 ADD AND SWAP1 POP DUP1 DUP4 ADD SWAP3 POP POP POP POP POP POP POP DUP2 MSTORE PUSH1 0x20 ADD DUP3 DUP2 MSTORE PUSH1 0x20 ADD PUSH1 0x40 MLOAD DUP1 PUSH1 0x20 ADD PUSH1 0x40 MSTORE DUP1 PUSH1 0x0 DUP2 MSTORE POP DUP2 MSTORE PUSH1 0x20 ADD PUSH1 0x0 ISZERO ISZERO DUP2 MSTORE PUSH1 0x20 ADD CALLER PUSH20 0xFFFFFFFFFFFFFFFFFFFFFFFFFFFFFFFFFFFFFFFF AND DUP2 MSTORE POP PUSH1 0x4 PUSH1 0x0 CALLER PUSH20 0xFFFFFFFFFFFFFFFFFFFFFFFFFFFFFFFFFFFFFFFF AND PUSH20 0xFFFFFFFFFFFFFFFFFFFFFFFFFFFFFFFFFFFFFFFF AND DUP2 MSTORE PUSH1 0x20 ADD SWAP1 DUP2 MSTORE PUSH1 0x20 ADD PUSH1 0x0 KECCAK256 PUSH1 0x0 DUP3 ADD MLOAD DUP2 PUSH1 0x0 ADD SWAP1 DUP2 PUSH2 0x81C SWAP2 SWAP1 PUSH2 0x1B86 JUMP JUMPDEST POP PUSH1 0x20 DUP3 ADD MLOAD DUP2 PUSH1 0x1 ADD SWAP1 DUP2 PUSH2 0x832 SWAP2 SWAP1 PUSH2 0x1B86 JUMP JUMPDEST POP PUSH1 0x40 DUP3 ADD MLOAD DUP2 PUSH1 0x2 ADD SWAP1 DUP2 PUSH2 0x848 SWAP2 SWAP1 PUSH2 0x1B86 JUMP JUMPDEST POP PUSH1 0x60 DUP3 ADD MLOAD DUP2 PUSH1 0x3 ADD PUSH1 0x0 PUSH2 0x100 EXP DUP2 SLOAD DUP2 PUSH1 0xFF MUL NOT AND SWAP1 DUP4 ISZERO ISZERO MUL OR SWAP1 SSTORE POP PUSH1 0x80 DUP3 ADD MLOAD DUP2 PUSH1 0x3 ADD PUSH1 0x1 PUSH2 0x100 EXP DUP2 SLOAD DUP2 PUSH20 0xFFFFFFFFFFFFFFFFFFFFFFFFFFFFFFFFFFFFFFFF MUL NOT AND SWAP1 DUP4 PUSH20 0xFFFFFFFFFFFFFFFFFFFFFFFFFFFFFFFFFFFFFFFF AND MUL OR SWAP1 SSTORE POP SWAP1 POP POP POP POP POP JUMP JUMPDEST PUSH2 0x8C0 PUSH2 0x1263 JUMP JUMPDEST PUSH1 0x11 DUP3 GT PUSH2 0x903 JUMPI PUSH1 0x40 MLOAD PUSH32 0x8C379A000000000000000000000000000000000000000000000000000000000 DUP2 MSTORE PUSH1 0x4 ADD PUSH2 0x8FA SWAP1 PUSH2 0x1CA4 JUMP JUMPDEST PUSH1 0x40 MLOAD DUP1 SWAP2 SUB SWAP1 REVERT JUMPDEST PUSH1 0x0 PUSH1 0x3 PUSH1 0x0 CALLER PUSH20 0xFFFFFFFFFFFFFFFFFFFFFFFFFFFFFFFFFFFFFFFF AND PUSH20 0xFFFFFFFFFFFFFFFFFFFFFFFFFFFFFFFFFFFFFFFF AND DUP2 MSTORE PUSH1 0x20 ADD SWAP1 DUP2 MSTORE PUSH1 0x20 ADD PUSH1 0x0 KECCAK256 PUSH1 0x2 ADD DUP1 SLOAD PUSH2 0x952 SWAP1 PUSH2 0x17F4 JUMP JUMPDEST SWAP1 POP EQ PUSH2 0x994 JUMPI PUSH1 0x40 MLOAD PUSH32 0x8C379A000000000000000000000000000000000000000000000000000000000 DUP2 MSTORE PUSH1 0x4 ADD PUSH2 0x98B SWAP1 PUSH2 0x1D10 JUMP JUMPDEST PUSH1 0x40 MLOAD DUP1 SWAP2 SUB SWAP1 REVERT JUMPDEST PUSH1 0x0 PUSH2 0x9A1 PUSH1 0x2 SLOAD PUSH2 0x1042 JUMP JUMPDEST PUSH1 0x40 MLOAD PUSH1 0x20 ADD PUSH2 0x9B1 SWAP2 SWAP1 PUSH2 0x1D56 JUMP JUMPDEST PUSH1 0x40 MLOAD PUSH1 0x20 DUP2 DUP4 SUB SUB DUP2 MSTORE SWAP1 PUSH1 0x40 MSTORE SWAP1 POP PUSH1 0x40 MLOAD DUP1 PUSH1 0xA0 ADD PUSH1 0x40 MSTORE DUP1 DUP7 DUP7 DUP1 DUP1 PUSH1 0x1F ADD PUSH1 0x20 DUP1 SWAP2 DIV MUL PUSH1 0x20 ADD PUSH1 0x40 MLOAD SWAP1 DUP2 ADD PUSH1 0x40 MSTORE DUP1 SWAP4 SWAP3 SWAP2 SWAP1 DUP2 DUP2 MSTORE PUSH1 0x20 ADD DUP4 DUP4 DUP1 DUP3 DUP5 CALLDATACOPY PUSH1 0x0 DUP2 DUP5 ADD MSTORE PUSH1 0x1F NOT PUSH1 0x1F DUP3 ADD AND SWAP1 POP DUP1 DUP4 ADD SWAP3 POP POP POP POP POP POP POP DUP2 MSTORE PUSH1 0x20 ADD DUP5 DUP2 MSTORE PUSH1 0x20 ADD DUP3 DUP2 MSTORE PUSH1 0x20 ADD PUSH1 0x0 ISZERO ISZERO DUP2 MSTORE PUSH1 0x20 ADD CALLER PUSH20 0xFFFFFFFFFFFFFFFFFFFFFFFFFFFFFFFFFFFFFFFF AND DUP2 MSTORE POP PUSH1 0x3 PUSH1 0x0 CALLER PUSH20 0xFFFFFFFFFFFFFFFFFFFFFFFFFFFFFFFFFFFFFFFF AND PUSH20 0xFFFFFFFFFFFFFFFFFFFFFFFFFFFFFFFFFFFFFFFF AND DUP2 MSTORE PUSH1 0x20 ADD SWAP1 DUP2 MSTORE PUSH1 0x20 ADD PUSH1 0x0 KECCAK256 PUSH1 0x0 DUP3 ADD MLOAD DUP2 PUSH1 0x0 ADD SWAP1 DUP2 PUSH2 0xA9A SWAP2 SWAP1 PUSH2 0x1B86 JUMP JUMPDEST POP PUSH1 0x20 DUP3 ADD MLOAD DUP2 PUSH1 0x1 ADD SSTORE PUSH1 0x40 DUP3 ADD MLOAD DUP2 PUSH1 0x2 ADD SWAP1 DUP2 PUSH2 0xABA SWAP2 SWAP1 PUSH2 0x1B86 JUMP JUMPDEST POP PUSH1 0x60 DUP3 ADD MLOAD DUP2 PUSH1 0x3 ADD PUSH1 0x0 PUSH2 0x100 EXP DUP2 SLOAD DUP2 PUSH1 0xFF MUL NOT AND SWAP1 DUP4 ISZERO ISZERO MUL OR SWAP1 SSTORE POP PUSH1 0x80 DUP3 ADD MLOAD DUP2 PUSH1 0x3 ADD PUSH1 0x1 PUSH2 0x100 EXP DUP2 SLOAD DUP2 PUSH20 0xFFFFFFFFFFFFFFFFFFFFFFFFFFFFFFFFFFFFFFFF MUL NOT AND SWAP1 DUP4 PUSH20 0xFFFFFFFFFFFFFFFFFFFFFFFFFFFFFFFFFFFFFFFF AND MUL OR SWAP1 SSTORE POP SWAP1 POP POP PUSH1 0x1 PUSH1 0x2 PUSH1 0x0 DUP3 DUP3 SLOAD PUSH2 0xB38 SWAP2 SWAP1 PUSH2 0x1DAB JUMP JUMPDEST SWAP3 POP POP DUP2 SWAP1 SSTORE POP PUSH1 0x3 PUSH1 0x0 CALLER PUSH20 0xFFFFFFFFFFFFFFFFFFFFFFFFFFFFFFFFFFFFFFFF AND PUSH20 0xFFFFFFFFFFFFFFFFFFFFFFFFFFFFFFFFFFFFFFFF AND DUP2 MSTORE PUSH1 0x20 ADD SWAP1 DUP2 MSTORE PUSH1 0x20 ADD PUSH1 0x0 KECCAK256 PUSH1 0x40 MLOAD DUP1 PUSH1 0xA0 ADD PUSH1 0x40 MSTORE SWAP1 DUP2 PUSH1 0x0 DUP3 ADD DUP1 SLOAD PUSH2 0xB99 SWAP1 PUSH2 0x17F4 JUMP JUMPDEST DUP1 PUSH1 0x1F ADD PUSH1 0x20 DUP1 SWAP2 DIV MUL PUSH1 0x20 ADD PUSH1 0x40 MLOAD SWAP1 DUP2 ADD PUSH1 0x40 MSTORE DUP1 SWAP3 SWAP2 SWAP1 DUP2 DUP2 MSTORE PUSH1 0x20 ADD DUP3 DUP1 SLOAD PUSH2 0xBC5 SWAP1 PUSH2 0x17F4 JUMP JUMPDEST DUP1 ISZERO PUSH2 0xC12 JUMPI DUP1 PUSH1 0x1F LT PUSH2 0xBE7 JUMPI PUSH2 0x100 DUP1 DUP4 SLOAD DIV MUL DUP4 MSTORE SWAP2 PUSH1 0x20 ADD SWAP2 PUSH2 0xC12 JUMP JUMPDEST DUP3 ADD SWAP2 SWAP1 PUSH1 0x0 MSTORE PUSH1 0x20 PUSH1 0x0 KECCAK256 SWAP1 JUMPDEST DUP2 SLOAD DUP2 MSTORE SWAP1 PUSH1 0x1 ADD SWAP1 PUSH1 0x20 ADD DUP1 DUP4 GT PUSH2 0xBF5 JUMPI DUP3 SWAP1 SUB PUSH1 0x1F AND DUP3 ADD SWAP2 JUMPDEST POP POP POP POP POP DUP2 MSTORE PUSH1 0x20 ADD PUSH1 0x1 DUP3 ADD SLOAD DUP2 MSTORE PUSH1 0x20 ADD PUSH1 0x2 DUP3 ADD DUP1 SLOAD PUSH2 0xC35 SWAP1 PUSH2 0x17F4 JUMP JUMPDEST DUP1 PUSH1 0x1F ADD PUSH1 0x20 DUP1 SWAP2 DIV MUL PUSH1 0x20 ADD PUSH1 0x40 MLOAD SWAP1 DUP2 ADD PUSH1 0x40 MSTORE DUP1 SWAP3 SWAP2 SWAP1 DUP2 DUP2 MSTORE PUSH1 0x20 ADD DUP3 DUP1 SLOAD PUSH2 0xC61 SWAP1 PUSH2 0x17F4 JUMP JUMPDEST DUP1 ISZERO PUSH2 0xCAE JUMPI DUP1 PUSH1 0x1F LT PUSH2 0xC83 JUMPI PUSH2 0x100 DUP1 DUP4 SLOAD DIV MUL DUP4 MSTORE SWAP2 PUSH1 0x20 ADD SWAP2 PUSH2 0xCAE JUMP JUMPDEST DUP3 ADD SWAP2 SWAP1 PUSH1 0x0 MSTORE PUSH1 0x20 PUSH1 0x0 KECCAK256 SWAP1 JUMPDEST DUP2 SLOAD DUP2 MSTORE SWAP1 PUSH1 0x1 ADD SWAP1 PUSH1 0x20 ADD DUP1 DUP4 GT PUSH2 0xC91 JUMPI DUP3 SWAP1 SUB PUSH1 0x1F AND DUP3 ADD SWAP2 JUMPDEST POP POP POP POP POP DUP2 MSTORE PUSH1 0x20 ADD PUSH1 0x3 DUP3 ADD PUSH1 0x0 SWAP1 SLOAD SWAP1 PUSH2 0x100 EXP SWAP1 DIV PUSH1 0xFF AND ISZERO ISZERO ISZERO ISZERO DUP2 MSTORE PUSH1 0x20 ADD PUSH1 0x3 DUP3 ADD PUSH1 0x1 SWAP1 SLOAD SWAP1 PUSH2 0x100 EXP SWAP1 DIV PUSH20 0xFFFFFFFFFFFFFFFFFFFFFFFFFFFFFFFFFFFFFFFF AND PUSH20 0xFFFFFFFFFFFFFFFFFFFFFFFFFFFFFFFFFFFFFFFF AND PUSH20 0xFFFFFFFFFFFFFFFFFFFFFFFFFFFFFFFFFFFFFFFF AND DUP2 MSTORE POP POP SWAP2 POP POP SWAP4 SWAP3 POP POP POP JUMP JUMPDEST PUSH1 0x1 PUSH1 0x0 SWAP1 SLOAD SWAP1 PUSH2 0x100 EXP SWAP1 DIV PUSH20 0xFFFFFFFFFFFFFFFFFFFFFFFFFFFFFFFFFFFFFFFF AND DUP2 JUMP JUMPDEST PUSH1 0x0 PUSH1 0x3 PUSH1 0x0 CALLER PUSH20 0xFFFFFFFFFFFFFFFFFFFFFFFFFFFFFFFFFFFFFFFF AND PUSH20 0xFFFFFFFFFFFFFFFFFFFFFFFFFFFFFFFFFFFFFFFF AND DUP2 MSTORE PUSH1 0x20 ADD SWAP1 DUP2 MSTORE PUSH1 0x20 ADD PUSH1 0x0 KECCAK256 PUSH1 0x3 ADD PUSH1 0x0 SWAP1 SLOAD SWAP1 PUSH2 0x100 EXP SWAP1 DIV PUSH1 0xFF AND SWAP1 POP SWAP1 JUMP JUMPDEST PUSH1 0x0 DUP4 DUP4 PUSH1 0x40 MLOAD PUSH1 0x20 ADD PUSH2 0xDC4 SWAP3 SWAP2 SWAP1 PUSH2 0x1E13 JUMP JUMPDEST PUSH1 0x40 MLOAD PUSH1 0x20 DUP2 DUP4 SUB SUB DUP2 MSTORE SWAP1 PUSH1 0x40 MSTORE DUP1 MLOAD SWAP1 PUSH1 0x20 ADD KECCAK256 PUSH1 0x4 PUSH1 0x0 DUP5 PUSH20 0xFFFFFFFFFFFFFFFFFFFFFFFFFFFFFFFFFFFFFFFF AND PUSH20 0xFFFFFFFFFFFFFFFFFFFFFFFFFFFFFFFFFFFFFFFF AND DUP2 MSTORE PUSH1 0x20 ADD SWAP1 DUP2 MSTORE PUSH1 0x20 ADD PUSH1 0x0 KECCAK256 PUSH1 0x2 ADD PUSH1 0x40 MLOAD PUSH1 0x20 ADD PUSH2 0xE2C SWAP2 SWAP1 PUSH2 0x1EAF JUMP JUMPDEST PUSH1 0x40 MLOAD PUSH1 0x20 DUP2 DUP4 SUB SUB DUP2 MSTORE SWAP1 PUSH1 0x40 MSTORE DUP1 MLOAD SWAP1 PUSH1 0x20 ADD KECCAK256 EQ SWAP1 POP SWAP4 SWAP3 POP POP POP JUMP JUMPDEST PUSH2 0xE54 PUSH2 0x1263 JUMP JUMPDEST PUSH1 0x3 PUSH1 0x0 CALLER PUSH20 0xFFFFFFFFFFFFFFFFFFFFFFFFFFFFFFFFFFFFFFFF AND PUSH20 0xFFFFFFFFFFFFFFFFFFFFFFFFFFFFFFFFFFFFFFFF AND DUP2 MSTORE PUSH1 0x20 ADD SWAP1 DUP2 MSTORE PUSH1 0x20 ADD PUSH1 0x0 KECCAK256 PUSH1 0x40 MLOAD DUP1 PUSH1 0xA0 ADD PUSH1 0x40 MSTORE SWAP1 DUP2 PUSH1 0x0 DUP3 ADD DUP1 SLOAD PUSH2 0xEAE SWAP1 PUSH2 0x17F4 JUMP JUMPDEST DUP1 PUSH1 0x1F ADD PUSH1 0x20 DUP1 SWAP2 DIV MUL PUSH1 0x20 ADD PUSH1 0x40 MLOAD SWAP1 DUP2 ADD PUSH1 0x40 MSTORE DUP1 SWAP3 SWAP2 SWAP1 DUP2 DUP2 MSTORE PUSH1 0x20 ADD DUP3 DUP1 SLOAD PUSH2 0xEDA SWAP1 PUSH2 0x17F4 JUMP JUMPDEST DUP1 ISZERO PUSH2 0xF27 JUMPI DUP1 PUSH1 0x1F LT PUSH2 0xEFC JUMPI PUSH2 0x100 DUP1 DUP4 SLOAD DIV MUL DUP4 MSTORE SWAP2 PUSH1 0x20 ADD SWAP2 PUSH2 0xF27 JUMP JUMPDEST DUP3 ADD SWAP2 SWAP1 PUSH1 0x0 MSTORE PUSH1 0x20 PUSH1 0x0 KECCAK256 SWAP1 JUMPDEST DUP2 SLOAD DUP2 MSTORE SWAP1 PUSH1 0x1 ADD SWAP1 PUSH1 0x20 ADD DUP1 DUP4 GT PUSH2 0xF0A JUMPI DUP3 SWAP1 SUB PUSH1 0x1F AND DUP3 ADD SWAP2 JUMPDEST POP POP POP POP POP DUP2 MSTORE PUSH1 0x20 ADD PUSH1 0x1 DUP3 ADD SLOAD DUP2 MSTORE PUSH1 0x20 ADD PUSH1 0x2 DUP3 ADD DUP1 SLOAD PUSH2 0xF4A SWAP1 PUSH2 0x17F4 JUMP JUMPDEST DUP1 PUSH1 0x1F ADD PUSH1 0x20 DUP1 SWAP2 DIV MUL PUSH1 0x20 ADD PUSH1 0x40 MLOAD SWAP1 DUP2 ADD PUSH1 0x40 MSTORE DUP1 SWAP3 SWAP2 SWAP1 DUP2 DUP2 MSTORE PUSH1 0x20 ADD DUP3 DUP1 SLOAD PUSH2 0xF76 SWAP1 PUSH2 0x17F4 JUMP JUMPDEST DUP1 ISZERO PUSH2 0xFC3 JUMPI DUP1 PUSH1 0x1F LT PUSH2 0xF98 JUMPI PUSH2 0x100 DUP1 DUP4 SLOAD DIV MUL DUP4 MSTORE SWAP2 PUSH1 0x20 ADD SWAP2 PUSH2 0xFC3 JUMP JUMPDEST DUP3 ADD SWAP2 SWAP1 PUSH1 0x0 MSTORE PUSH1 0x20 PUSH1 0x0 KECCAK256 SWAP1 JUMPDEST DUP2 SLOAD DUP2 MSTORE SWAP1 PUSH1 0x1 ADD SWAP1 PUSH1 0x20 ADD DUP1 DUP4 GT PUSH2 0xFA6 JUMPI DUP3 SWAP1 SUB PUSH1 0x1F AND DUP3 ADD SWAP2 JUMPDEST POP POP POP POP POP DUP2 MSTORE PUSH1 0x20 ADD PUSH1 0x3 DUP3 ADD PUSH1 0x0 SWAP1 SLOAD SWAP1 PUSH2 0x100 EXP SWAP1 DIV PUSH1 0xFF AND ISZERO ISZERO ISZERO ISZERO DUP2 MSTORE PUSH1 0x20 ADD PUSH1 0x3 DUP3 ADD PUSH1 0x1 SWAP1 SLOAD SWAP1 PUSH2 0x100 EXP SWAP1 DIV PUSH20 0xFFFFFFFFFFFFFFFFFFFFFFFFFFFFFFFFFFFFFFFF AND PUSH20 0xFFFFFFFFFFFFFFFFFFFFFFFFFFFFFFFFFFFFFFFF AND PUSH20 0xFFFFFFFFFFFFFFFFFFFFFFFFFFFFFFFFFFFFFFFF AND DUP2 MSTORE POP POP SWAP1 POP SWAP1 JUMP JUMPDEST PUSH1 0x60 PUSH1 0x0 PUSH1 0x1 PUSH2 0x1051 DUP5 PUSH2 0x1110 JUMP JUMPDEST ADD SWAP1 POP PUSH1 0x0 DUP2 PUSH8 0xFFFFFFFFFFFFFFFF DUP2 GT ISZERO PUSH2 0x1070 JUMPI PUSH2 0x106F PUSH2 0x19AB JUMP JUMPDEST JUMPDEST PUSH1 0x40 MLOAD SWAP1 DUP1 DUP3 MSTORE DUP1 PUSH1 0x1F ADD PUSH1 0x1F NOT AND PUSH1 0x20 ADD DUP3 ADD PUSH1 0x40 MSTORE DUP1 ISZERO PUSH2 0x10A2 JUMPI DUP2 PUSH1 0x20 ADD PUSH1 0x1 DUP3 MUL DUP1 CALLDATASIZE DUP4 CALLDATACOPY DUP1 DUP3 ADD SWAP2 POP POP SWAP1 POP JUMPDEST POP SWAP1 POP PUSH1 0x0 DUP3 PUSH1 0x20 ADD DUP3 ADD SWAP1 POP JUMPDEST PUSH1 0x1 ISZERO PUSH2 0x1105 JUMPI DUP1 DUP1 PUSH1 0x1 SWAP1 SUB SWAP2 POP POP PUSH32 0x3031323334353637383961626364656600000000000000000000000000000000 PUSH1 0xA DUP7 MOD BYTE DUP2 MSTORE8 PUSH1 0xA DUP6 DUP2 PUSH2 0x10F9 JUMPI PUSH2 0x10F8 PUSH2 0x1EC6 JUMP JUMPDEST JUMPDEST DIV SWAP5 POP PUSH1 0x0 DUP6 SUB PUSH2 0x10B0 JUMPI JUMPDEST DUP2 SWAP4 POP POP POP POP SWAP2 SWAP1 POP JUMP JUMPDEST PUSH1 0x0 DUP1 PUSH1 0x0 SWAP1 POP PUSH27 0x184F03E93FF9F4DAA797ED6E38ED64BF6A1F010000000000000000 DUP4 LT PUSH2 0x116E JUMPI PUSH27 0x184F03E93FF9F4DAA797ED6E38ED64BF6A1F010000000000000000 DUP4 DUP2 PUSH2 0x1164 JUMPI PUSH2 0x1163 PUSH2 0x1EC6 JUMP JUMPDEST JUMPDEST DIV SWAP3 POP PUSH1 0x40 DUP2 ADD SWAP1 POP JUMPDEST PUSH14 0x4EE2D6D415B85ACEF8100000000 DUP4 LT PUSH2 0x11AB JUMPI PUSH14 0x4EE2D6D415B85ACEF8100000000 DUP4 DUP2 PUSH2 0x11A1 JUMPI PUSH2 0x11A0 PUSH2 0x1EC6 JUMP JUMPDEST JUMPDEST DIV SWAP3 POP PUSH1 0x20 DUP2 ADD SWAP1 POP JUMPDEST PUSH7 0x2386F26FC10000 DUP4 LT PUSH2 0x11DA JUMPI PUSH7 0x2386F26FC10000 DUP4 DUP2 PUSH2 0x11D0 JUMPI PUSH2 0x11CF PUSH2 0x1EC6 JUMP JUMPDEST JUMPDEST DIV SWAP3 POP PUSH1 0x10 DUP2 ADD SWAP1 POP JUMPDEST PUSH4 0x5F5E100 DUP4 LT PUSH2 0x1203 JUMPI PUSH4 0x5F5E100 DUP4 DUP2 PUSH2 0x11F9 JUMPI PUSH2 0x11F8 PUSH2 0x1EC6 JUMP JUMPDEST JUMPDEST DIV SWAP3 POP PUSH1 0x8 DUP2 ADD SWAP1 POP JUMPDEST PUSH2 0x2710 DUP4 LT PUSH2 0x1228 JUMPI PUSH2 0x2710 DUP4 DUP2 PUSH2 0x121E JUMPI PUSH2 0x121D PUSH2 0x1EC6 JUMP JUMPDEST JUMPDEST DIV SWAP3 POP PUSH1 0x4 DUP2 ADD SWAP1 POP JUMPDEST PUSH1 0x64 DUP4 LT PUSH2 0x124B JUMPI PUSH1 0x64 DUP4 DUP2 PUSH2 0x1241 JUMPI PUSH2 0x1240 PUSH2 0x1EC6 JUMP JUMPDEST JUMPDEST DIV SWAP3 POP PUSH1 0x2 DUP2 ADD SWAP1 POP JUMPDEST PUSH1 0xA DUP4 LT PUSH2 0x125A JUMPI PUSH1 0x1 DUP2 ADD SWAP1 POP JUMPDEST DUP1 SWAP2 POP POP SWAP2 SWAP1 POP JUMP JUMPDEST PUSH1 0x40 MLOAD DUP1 PUSH1 0xA0 ADD PUSH1 0x40 MSTORE DUP1 PUSH1 0x60 DUP2 MSTORE PUSH1 0x20 ADD PUSH1 0x0 DUP2 MSTORE PUSH1 0x20 ADD PUSH1 0x60 DUP2 MSTORE PUSH1 0x20 ADD PUSH1 0x0 ISZERO ISZERO DUP2 MSTORE PUSH1 0x20 ADD PUSH1 0x0 PUSH20 0xFFFFFFFFFFFFFFFFFFFFFFFFFFFFFFFFFFFFFFFF AND DUP2 MSTORE POP SWAP1 JUMP JUMPDEST PUSH1 0x0 PUSH20 0xFFFFFFFFFFFFFFFFFFFFFFFFFFFFFFFFFFFFFFFF DUP3 AND SWAP1 POP SWAP2 SWAP1 POP JUMP JUMPDEST PUSH1 0x0 PUSH2 0x12D5 DUP3 PUSH2 0x12AA JUMP JUMPDEST SWAP1 POP SWAP2 SWAP1 POP JUMP JUMPDEST PUSH2 0x12E5 DUP2 PUSH2 0x12CA JUMP JUMPDEST DUP3 MSTORE POP POP JUMP JUMPDEST PUSH1 0x0 PUSH1 0x20 DUP3 ADD SWAP1 POP PUSH2 0x1300 PUSH1 0x0 DUP4 ADD DUP5 PUSH2 0x12DC JUMP JUMPDEST SWAP3 SWAP2 POP POP JUMP JUMPDEST PUSH1 0x0 DUP1 REVERT JUMPDEST PUSH1 0x0 DUP1 REVERT JUMPDEST PUSH2 0x1319 DUP2 PUSH2 0x12CA JUMP JUMPDEST DUP2 EQ PUSH2 0x1324 JUMPI PUSH1 0x0 DUP1 REVERT JUMPDEST POP JUMP JUMPDEST PUSH1 0x0 DUP2 CALLDATALOAD SWAP1 POP PUSH2 0x1336 DUP2 PUSH2 0x1310 JUMP JUMPDEST SWAP3 SWAP2 POP POP JUMP JUMPDEST PUSH1 0x0 PUSH1 0x20 DUP3 DUP5 SUB SLT ISZERO PUSH2 0x1352 JUMPI PUSH2 0x1351 PUSH2 0x1306 JUMP JUMPDEST JUMPDEST PUSH1 0x0 PUSH2 0x1360 DUP5 DUP3 DUP6 ADD PUSH2 0x1327 JUMP JUMPDEST SWAP2 POP POP SWAP3 SWAP2 POP POP JUMP JUMPDEST PUSH1 0x0 DUP2 MLOAD SWAP1 POP SWAP2 SWAP1 POP JUMP JUMPDEST PUSH1 0x0 DUP3 DUP3 MSTORE PUSH1 0x20 DUP3 ADD SWAP1 POP SWAP3 SWAP2 POP POP JUMP JUMPDEST PUSH1 0x0 JUMPDEST DUP4 DUP2 LT ISZERO PUSH2 0x13A3 JUMPI DUP1 DUP3 ADD MLOAD DUP2 DUP5 ADD MSTORE PUSH1 0x20 DUP2 ADD SWAP1 POP PUSH2 0x1388 JUMP JUMPDEST PUSH1 0x0 DUP5 DUP5 ADD MSTORE POP POP POP POP JUMP JUMPDEST PUSH1 0x0 PUSH1 0x1F NOT PUSH1 0x1F DUP4 ADD AND SWAP1 POP SWAP2 SWAP1 POP JUMP JUMPDEST PUSH1 0x0 PUSH2 0x13CB DUP3 PUSH2 0x1369 JUMP JUMPDEST PUSH2 0x13D5 DUP2 DUP6 PUSH2 0x1374 JUMP JUMPDEST SWAP4 POP PUSH2 0x13E5 DUP2 DUP6 PUSH1 0x20 DUP7 ADD PUSH2 0x1385 JUMP JUMPDEST PUSH2 0x13EE DUP2 PUSH2 0x13AF JUMP JUMPDEST DUP5 ADD SWAP2 POP POP SWAP3 SWAP2 POP POP JUMP JUMPDEST PUSH1 0x0 DUP2 SWAP1 POP SWAP2 SWAP1 POP JUMP JUMPDEST PUSH2 0x140C DUP2 PUSH2 0x13F9 JUMP JUMPDEST DUP3 MSTORE POP POP JUMP JUMPDEST PUSH1 0x0 DUP2 ISZERO ISZERO SWAP1 POP SWAP2 SWAP1 POP JUMP JUMPDEST PUSH2 0x1427 DUP2 PUSH2 0x1412 JUMP JUMPDEST DUP3 MSTORE POP POP JUMP JUMPDEST PUSH1 0x0 PUSH1 0xA0 DUP3 ADD SWAP1 POP DUP2 DUP2 SUB PUSH1 0x0 DUP4 ADD MSTORE PUSH2 0x1447 DUP2 DUP9 PUSH2 0x13C0 JUMP JUMPDEST SWAP1 POP PUSH2 0x1456 PUSH1 0x20 DUP4 ADD DUP8 PUSH2 0x1403 JUMP JUMPDEST DUP2 DUP2 SUB PUSH1 0x40 DUP4 ADD MSTORE PUSH2 0x1468 DUP2 DUP7 PUSH2 0x13C0 JUMP JUMPDEST SWAP1 POP PUSH2 0x1477 PUSH1 0x60 DUP4 ADD DUP6 PUSH2 0x141E JUMP JUMPDEST PUSH2 0x1484 PUSH1 0x80 DUP4 ADD DUP5 PUSH2 0x12DC JUMP JUMPDEST SWAP7 SWAP6 POP POP POP POP POP POP JUMP JUMPDEST PUSH1 0x0 PUSH1 0xA0 DUP3 ADD SWAP1 POP DUP2 DUP2 SUB PUSH1 0x0 DUP4 ADD MSTORE PUSH2 0x14A8 DUP2 DUP9 PUSH2 0x13C0 JUMP JUMPDEST SWAP1 POP DUP2 DUP2 SUB PUSH1 0x20 DUP4 ADD MSTORE PUSH2 0x14BC DUP2 DUP8 PUSH2 0x13C0 JUMP JUMPDEST SWAP1 POP DUP2 DUP2 SUB PUSH1 0x40 DUP4 ADD MSTORE PUSH2 0x14D0 DUP2 DUP7 PUSH2 0x13C0 JUMP JUMPDEST SWAP1 POP PUSH2 0x14DF PUSH1 0x60 DUP4 ADD DUP6 PUSH2 0x141E JUMP JUMPDEST PUSH2 0x14EC PUSH1 0x80 DUP4 ADD DUP5 PUSH2 0x12DC JUMP JUMPDEST SWAP7 SWAP6 POP POP POP POP POP POP JUMP JUMPDEST PUSH1 0x0 DUP1 REVERT JUMPDEST PUSH1 0x0 DUP1 REVERT JUMPDEST PUSH1 0x0 DUP1 REVERT JUMPDEST PUSH1 0x0 DUP1 DUP4 PUSH1 0x1F DUP5 ADD SLT PUSH2 0x151B JUMPI PUSH2 0x151A PUSH2 0x14F6 JUMP JUMPDEST JUMPDEST DUP3 CALLDATALOAD SWAP1 POP PUSH8 0xFFFFFFFFFFFFFFFF DUP2 GT ISZERO PUSH2 0x1538 JUMPI PUSH2 0x1537 PUSH2 0x14FB JUMP JUMPDEST JUMPDEST PUSH1 0x20 DUP4 ADD SWAP2 POP DUP4 PUSH1 0x1 DUP3 MUL DUP4 ADD GT ISZERO PUSH2 0x1554 JUMPI PUSH2 0x1553 PUSH2 0x1500 JUMP JUMPDEST JUMPDEST SWAP3 POP SWAP3 SWAP1 POP JUMP JUMPDEST PUSH1 0x0 DUP1 PUSH1 0x20 DUP4 DUP6 SUB SLT ISZERO PUSH2 0x1572 JUMPI PUSH2 0x1571 PUSH2 0x1306 JUMP JUMPDEST JUMPDEST PUSH1 0x0 DUP4 ADD CALLDATALOAD PUSH8 0xFFFFFFFFFFFFFFFF DUP2 GT ISZERO PUSH2 0x1590 JUMPI PUSH2 0x158F PUSH2 0x130B JUMP JUMPDEST JUMPDEST PUSH2 0x159C DUP6 DUP3 DUP7 ADD PUSH2 0x1505 JUMP JUMPDEST SWAP3 POP SWAP3 POP POP SWAP3 POP SWAP3 SWAP1 POP JUMP JUMPDEST PUSH2 0x15B1 DUP2 PUSH2 0x13F9 JUMP JUMPDEST DUP2 EQ PUSH2 0x15BC JUMPI PUSH1 0x0 DUP1 REVERT JUMPDEST POP JUMP JUMPDEST PUSH1 0x0 DUP2 CALLDATALOAD SWAP1 POP PUSH2 0x15CE DUP2 PUSH2 0x15A8 JUMP JUMPDEST SWAP3 SWAP2 POP POP JUMP JUMPDEST PUSH1 0x0 DUP1 PUSH1 0x0 PUSH1 0x40 DUP5 DUP7 SUB SLT ISZERO PUSH2 0x15ED JUMPI PUSH2 0x15EC PUSH2 0x1306 JUMP JUMPDEST JUMPDEST PUSH1 0x0 DUP5 ADD CALLDATALOAD PUSH8 0xFFFFFFFFFFFFFFFF DUP2 GT ISZERO PUSH2 0x160B JUMPI PUSH2 0x160A PUSH2 0x130B JUMP JUMPDEST JUMPDEST PUSH2 0x1617 DUP7 DUP3 DUP8 ADD PUSH2 0x1505 JUMP JUMPDEST SWAP4 POP SWAP4 POP POP PUSH1 0x20 PUSH2 0x162A DUP7 DUP3 DUP8 ADD PUSH2 0x15BF JUMP JUMPDEST SWAP2 POP POP SWAP3 POP SWAP3 POP SWAP3 JUMP JUMPDEST PUSH1 0x0 DUP3 DUP3 MSTORE PUSH1 0x20 DUP3 ADD SWAP1 POP SWAP3 SWAP2 POP POP JUMP JUMPDEST PUSH1 0x0 PUSH2 0x1650 DUP3 PUSH2 0x1369 JUMP JUMPDEST PUSH2 0x165A DUP2 DUP6 PUSH2 0x1634 JUMP JUMPDEST SWAP4 POP PUSH2 0x166A DUP2 DUP6 PUSH1 0x20 DUP7 ADD PUSH2 0x1385 JUMP JUMPDEST PUSH2 0x1673 DUP2 PUSH2 0x13AF JUMP JUMPDEST DUP5 ADD SWAP2 POP POP SWAP3 SWAP2 POP POP JUMP JUMPDEST PUSH2 0x1687 DUP2 PUSH2 0x13F9 JUMP JUMPDEST DUP3 MSTORE POP POP JUMP JUMPDEST PUSH2 0x1696 DUP2 PUSH2 0x1412 JUMP JUMPDEST DUP3 MSTORE POP POP JUMP JUMPDEST PUSH2 0x16A5 DUP2 PUSH2 0x12CA JUMP JUMPDEST DUP3 MSTORE POP POP JUMP JUMPDEST PUSH1 0x0 PUSH1 0xA0 DUP4 ADD PUSH1 0x0 DUP4 ADD MLOAD DUP5 DUP3 SUB PUSH1 0x0 DUP7 ADD MSTORE PUSH2 0x16C8 DUP3 DUP3 PUSH2 0x1645 JUMP JUMPDEST SWAP2 POP POP PUSH1 0x20 DUP4 ADD MLOAD PUSH2 0x16DD PUSH1 0x20 DUP7 ADD DUP3 PUSH2 0x167E JUMP JUMPDEST POP PUSH1 0x40 DUP4 ADD MLOAD DUP5 DUP3 SUB PUSH1 0x40 DUP7 ADD MSTORE PUSH2 0x16F5 DUP3 DUP3 PUSH2 0x1645 JUMP JUMPDEST SWAP2 POP POP PUSH1 0x60 DUP4 ADD MLOAD PUSH2 0x170A PUSH1 0x60 DUP7 ADD DUP3 PUSH2 0x168D JUMP JUMPDEST POP PUSH1 0x80 DUP4 ADD MLOAD PUSH2 0x171D PUSH1 0x80 DUP7 ADD DUP3 PUSH2 0x169C JUMP JUMPDEST POP DUP1 SWAP2 POP POP SWAP3 SWAP2 POP POP JUMP JUMPDEST PUSH1 0x0 PUSH1 0x20 DUP3 ADD SWAP1 POP DUP2 DUP2 SUB PUSH1 0x0 DUP4 ADD MSTORE PUSH2 0x1742 DUP2 DUP5 PUSH2 0x16AB JUMP JUMPDEST SWAP1 POP SWAP3 SWAP2 POP POP JUMP JUMPDEST PUSH1 0x0 PUSH1 0x20 DUP3 ADD SWAP1 POP PUSH2 0x175F PUSH1 0x0 DUP4 ADD DUP5 PUSH2 0x141E JUMP JUMPDEST SWAP3 SWAP2 POP POP JUMP JUMPDEST PUSH1 0x0 DUP1 PUSH1 0x0 PUSH1 0x40 DUP5 DUP7 SUB SLT ISZERO PUSH2 0x177E JUMPI PUSH2 0x177D PUSH2 0x1306 JUMP JUMPDEST JUMPDEST PUSH1 0x0 DUP5 ADD CALLDATALOAD PUSH8 0xFFFFFFFFFFFFFFFF DUP2 GT ISZERO PUSH2 0x179C JUMPI PUSH2 0x179B PUSH2 0x130B JUMP JUMPDEST JUMPDEST PUSH2 0x17A8 DUP7 DUP3 DUP8 ADD PUSH2 0x1505 JUMP JUMPDEST SWAP4 POP SWAP4 POP POP PUSH1 0x20 PUSH2 0x17BB DUP7 DUP3 DUP8 ADD PUSH2 0x1327 JUMP JUMPDEST SWAP2 POP POP SWAP3 POP SWAP3 POP SWAP3 JUMP JUMPDEST PUSH32 0x4E487B7100000000000000000000000000000000000000000000000000000000 PUSH1 0x0 MSTORE PUSH1 0x22 PUSH1 0x4 MSTORE PUSH1 0x24 PUSH1 0x0 REVERT JUMPDEST PUSH1 0x0 PUSH1 0x2 DUP3 DIV SWAP1 POP PUSH1 0x1 DUP3 AND DUP1 PUSH2 0x180C JUMPI PUSH1 0x7F DUP3 AND SWAP2 POP JUMPDEST PUSH1 0x20 DUP3 LT DUP2 SUB PUSH2 0x181F JUMPI PUSH2 0x181E PUSH2 0x17C5 JUMP JUMPDEST JUMPDEST POP SWAP2 SWAP1 POP JUMP JUMPDEST PUSH32 0x54686973206164647265737320697320616E2061646D696E0000000000000000 PUSH1 0x0 DUP3 ADD MSTORE POP JUMP JUMPDEST PUSH1 0x0 PUSH2 0x185B PUSH1 0x18 DUP4 PUSH2 0x1374 JUMP JUMPDEST SWAP2 POP PUSH2 0x1866 DUP3 PUSH2 0x1825 JUMP JUMPDEST PUSH1 0x20 DUP3 ADD SWAP1 POP SWAP2 SWAP1 POP JUMP JUMPDEST PUSH1 0x0 PUSH1 0x20 DUP3 ADD SWAP1 POP DUP2 DUP2 SUB PUSH1 0x0 DUP4 ADD MSTORE PUSH2 0x188A DUP2 PUSH2 0x184E JUMP JUMPDEST SWAP1 POP SWAP2 SWAP1 POP JUMP JUMPDEST PUSH32 0x54686973206164647265737320686173206D6F74206265656E20726567697374 PUSH1 0x0 DUP3 ADD MSTORE PUSH32 0x6572656420696E2074686520656C6563746F72616C2070726F63657373000000 PUSH1 0x20 DUP3 ADD MSTORE POP JUMP JUMPDEST PUSH1 0x0 PUSH2 0x18ED PUSH1 0x3D DUP4 PUSH2 0x1374 JUMP JUMPDEST SWAP2 POP PUSH2 0x18F8 DUP3 PUSH2 0x1891 JUMP JUMPDEST PUSH1 0x40 DUP3 ADD SWAP1 POP SWAP2 SWAP1 POP JUMP JUMPDEST PUSH1 0x0 PUSH1 0x20 DUP3 ADD SWAP1 POP DUP2 DUP2 SUB PUSH1 0x0 DUP4 ADD MSTORE PUSH2 0x191C DUP2 PUSH2 0x18E0 JUMP JUMPDEST SWAP1 POP SWAP2 SWAP1 POP JUMP JUMPDEST PUSH32 0x434F440000000000000000000000000000000000000000000000000000000000 DUP2 MSTORE POP JUMP JUMPDEST PUSH1 0x0 DUP2 SWAP1 POP SWAP3 SWAP2 POP POP JUMP JUMPDEST PUSH1 0x0 PUSH2 0x195F DUP3 PUSH2 0x1369 JUMP JUMPDEST PUSH2 0x1969 DUP2 DUP6 PUSH2 0x1949 JUMP JUMPDEST SWAP4 POP PUSH2 0x1979 DUP2 DUP6 PUSH1 0x20 DUP7 ADD PUSH2 0x1385 JUMP JUMPDEST DUP1 DUP5 ADD SWAP2 POP POP SWAP3 SWAP2 POP POP JUMP JUMPDEST PUSH1 0x0 PUSH2 0x1990 DUP3 PUSH2 0x1923 JUMP JUMPDEST PUSH1 0x3 DUP3 ADD SWAP2 POP PUSH2 0x19A0 DUP3 DUP5 PUSH2 0x1954 JUMP JUMPDEST SWAP2 POP DUP2 SWAP1 POP SWAP3 SWAP2 POP POP JUMP JUMPDEST PUSH32 0x4E487B7100000000000000000000000000000000000000000000000000000000 PUSH1 0x0 MSTORE PUSH1 0x41 PUSH1 0x4 MSTORE PUSH1 0x24 PUSH1 0x0 REVERT JUMPDEST PUSH1 0x0 DUP2 SWAP1 POP DUP2 PUSH1 0x0 MSTORE PUSH1 0x20 PUSH1 0x0 KECCAK256 SWAP1 POP SWAP2 SWAP1 POP JUMP JUMPDEST PUSH1 0x0 PUSH1 0x20 PUSH1 0x1F DUP4 ADD DIV SWAP1 POP SWAP2 SWAP1 POP JUMP JUMPDEST PUSH1 0x0 DUP3 DUP3 SHL SWAP1 POP SWAP3 SWAP2 POP POP JUMP JUMPDEST PUSH1 0x0 PUSH1 0x8 DUP4 MUL PUSH2 0x1A3C PUSH32 0xFFFFFFFFFFFFFFFFFFFFFFFFFFFFFFFFFFFFFFFFFFFFFFFFFFFFFFFFFFFFFFFF DUP3 PUSH2 0x19FF JUMP JUMPDEST PUSH2 0x1A46 DUP7 DUP4 PUSH2 0x19FF JUMP JUMPDEST SWAP6 POP DUP1 NOT DUP5 AND SWAP4 POP DUP1 DUP7 AND DUP5 OR SWAP3 POP POP POP SWAP4 SWAP3 POP POP POP JUMP JUMPDEST PUSH1 0x0 DUP2 SWAP1 POP SWAP2 SWAP1 POP JUMP JUMPDEST PUSH1 0x0 PUSH2 0x1A83 PUSH2 0x1A7E PUSH2 0x1A79 DUP5 PUSH2 0x13F9 JUMP JUMPDEST PUSH2 0x1A5E JUMP JUMPDEST PUSH2 0x13F9 JUMP JUMPDEST SWAP1 POP SWAP2 SWAP1 POP JUMP JUMPDEST PUSH1 0x0 DUP2 SWAP1 POP SWAP2 SWAP1 POP JUMP JUMPDEST PUSH2 0x1A9D DUP4 PUSH2 0x1A68 JUMP JUMPDEST PUSH2 0x1AB1 PUSH2 0x1AA9 DUP3 PUSH2 0x1A8A JUMP JUMPDEST DUP5 DUP5 SLOAD PUSH2 0x1A0C JUMP JUMPDEST DUP3 SSTORE POP POP POP POP JUMP JUMPDEST PUSH1 0x0 SWAP1 JUMP JUMPDEST PUSH2 0x1AC6 PUSH2 0x1AB9 JUMP JUMPDEST PUSH2 0x1AD1 DUP2 DUP5 DUP5 PUSH2 0x1A94 JUMP JUMPDEST POP POP POP JUMP JUMPDEST JUMPDEST DUP2 DUP2 LT ISZERO PUSH2 0x1AF5 JUMPI PUSH2 0x1AEA PUSH1 0x0 DUP3 PUSH2 0x1ABE JUMP JUMPDEST PUSH1 0x1 DUP2 ADD SWAP1 POP PUSH2 0x1AD7 JUMP JUMPDEST POP POP JUMP JUMPDEST PUSH1 0x1F DUP3 GT ISZERO PUSH2 0x1B3A JUMPI PUSH2 0x1B0B DUP2 PUSH2 0x19DA JUMP JUMPDEST PUSH2 0x1B14 DUP5 PUSH2 0x19EF JUMP JUMPDEST DUP2 ADD PUSH1 0x20 DUP6 LT ISZERO PUSH2 0x1B23 JUMPI DUP2 SWAP1 POP JUMPDEST PUSH2 0x1B37 PUSH2 0x1B2F DUP6 PUSH2 0x19EF JUMP JUMPDEST DUP4 ADD DUP3 PUSH2 0x1AD6 JUMP JUMPDEST POP POP JUMPDEST POP POP POP JUMP JUMPDEST PUSH1 0x0 DUP3 DUP3 SHR SWAP1 POP SWAP3 SWAP2 POP POP JUMP JUMPDEST PUSH1 0x0 PUSH2 0x1B5D PUSH1 0x0 NOT DUP5 PUSH1 0x8 MUL PUSH2 0x1B3F JUMP JUMPDEST NOT DUP1 DUP4 AND SWAP2 POP POP SWAP3 SWAP2 POP POP JUMP JUMPDEST PUSH1 0x0 PUSH2 0x1B76 DUP4 DUP4 PUSH2 0x1B4C JUMP JUMPDEST SWAP2 POP DUP3 PUSH1 0x2 MUL DUP3 OR SWAP1 POP SWAP3 SWAP2 POP POP JUMP JUMPDEST PUSH2 0x1B8F DUP3 PUSH2 0x1369 JUMP JUMPDEST PUSH8 0xFFFFFFFFFFFFFFFF DUP2 GT ISZERO PUSH2 0x1BA8 JUMPI PUSH2 0x1BA7 PUSH2 0x19AB JUMP JUMPDEST JUMPDEST PUSH2 0x1BB2 DUP3 SLOAD PUSH2 0x17F4 JUMP JUMPDEST PUSH2 0x1BBD DUP3 DUP3 DUP6 PUSH2 0x1AF9 JUMP JUMPDEST PUSH1 0x0 PUSH1 0x20 SWAP1 POP PUSH1 0x1F DUP4 GT PUSH1 0x1 DUP2 EQ PUSH2 0x1BF0 JUMPI PUSH1 0x0 DUP5 ISZERO PUSH2 0x1BDE JUMPI DUP3 DUP8 ADD MLOAD SWAP1 POP JUMPDEST PUSH2 0x1BE8 DUP6 DUP3 PUSH2 0x1B6A JUMP JUMPDEST DUP7 SSTORE POP PUSH2 0x1C50 JUMP JUMPDEST PUSH1 0x1F NOT DUP5 AND PUSH2 0x1BFE DUP7 PUSH2 0x19DA JUMP JUMPDEST PUSH1 0x0 JUMPDEST DUP3 DUP2 LT ISZERO PUSH2 0x1C26 JUMPI DUP5 DUP10 ADD MLOAD DUP3 SSTORE PUSH1 0x1 DUP3 ADD SWAP2 POP PUSH1 0x20 DUP6 ADD SWAP5 POP PUSH1 0x20 DUP2 ADD SWAP1 POP PUSH2 0x1C01 JUMP JUMPDEST DUP7 DUP4 LT ISZERO PUSH2 0x1C43 JUMPI DUP5 DUP10 ADD MLOAD PUSH2 0x1C3F PUSH1 0x1F DUP10 AND DUP3 PUSH2 0x1B4C JUMP JUMPDEST DUP4 SSTORE POP JUMPDEST PUSH1 0x1 PUSH1 0x2 DUP9 MUL ADD DUP9 SSTORE POP POP POP JUMPDEST POP POP POP POP POP POP JUMP JUMPDEST PUSH32 0x6E6F7420656C696769626C6520746F20766F7465000000000000000000000000 PUSH1 0x0 DUP3 ADD MSTORE POP JUMP JUMPDEST PUSH1 0x0 PUSH2 0x1C8E PUSH1 0x14 DUP4 PUSH2 0x1374 JUMP JUMPDEST SWAP2 POP PUSH2 0x1C99 DUP3 PUSH2 0x1C58 JUMP JUMPDEST PUSH1 0x20 DUP3 ADD SWAP1 POP SWAP2 SWAP1 POP JUMP JUMPDEST PUSH1 0x0 PUSH1 0x20 DUP3 ADD SWAP1 POP DUP2 DUP2 SUB PUSH1 0x0 DUP4 ADD MSTORE PUSH2 0x1CBD DUP2 PUSH2 0x1C81 JUMP JUMPDEST SWAP1 POP SWAP2 SWAP1 POP JUMP JUMPDEST PUSH32 0x54686973206164647265737320686173206265656E2072656769737465726564 PUSH1 0x0 DUP3 ADD MSTORE POP JUMP JUMPDEST PUSH1 0x0 PUSH2 0x1CFA PUSH1 0x20 DUP4 PUSH2 0x1374 JUMP JUMPDEST SWAP2 POP PUSH2 0x1D05 DUP3 PUSH2 0x1CC4 JUMP JUMPDEST PUSH1 0x20 DUP3 ADD SWAP1 POP SWAP2 SWAP1 POP JUMP JUMPDEST PUSH1 0x0 PUSH1 0x20 DUP3 ADD SWAP1 POP DUP2 DUP2 SUB PUSH1 0x0 DUP4 ADD MSTORE PUSH2 0x1D29 DUP2 PUSH2 0x1CED JUMP JUMPDEST SWAP1 POP SWAP2 SWAP1 POP JUMP JUMPDEST PUSH32 0x4E49470000000000000000000000000000000000000000000000000000000000 DUP2 MSTORE POP JUMP JUMPDEST PUSH1 0x0 PUSH2 0x1D61 DUP3 PUSH2 0x1D30 JUMP JUMPDEST PUSH1 0x3 DUP3 ADD SWAP2 POP PUSH2 0x1D71 DUP3 DUP5 PUSH2 0x1954 JUMP JUMPDEST SWAP2 POP DUP2 SWAP1 POP SWAP3 SWAP2 POP POP JUMP JUMPDEST PUSH32 0x4E487B7100000000000000000000000000000000000000000000000000000000 PUSH1 0x0 MSTORE PUSH1 0x11 PUSH1 0x4 MSTORE PUSH1 0x24 PUSH1 0x0 REVERT JUMPDEST PUSH1 0x0 PUSH2 0x1DB6 DUP3 PUSH2 0x13F9 JUMP JUMPDEST SWAP2 POP PUSH2 0x1DC1 DUP4 PUSH2 0x13F9 JUMP JUMPDEST SWAP3 POP DUP3 DUP3 ADD SWAP1 POP DUP1 DUP3 GT ISZERO PUSH2 0x1DD9 JUMPI PUSH2 0x1DD8 PUSH2 0x1D7C JUMP JUMPDEST JUMPDEST SWAP3 SWAP2 POP POP JUMP JUMPDEST DUP3 DUP2 DUP4 CALLDATACOPY PUSH1 0x0 DUP4 DUP4 ADD MSTORE POP POP POP JUMP JUMPDEST PUSH1 0x0 PUSH2 0x1DFA DUP4 DUP6 PUSH2 0x1949 JUMP JUMPDEST SWAP4 POP PUSH2 0x1E07 DUP4 DUP6 DUP5 PUSH2 0x1DDF JUMP JUMPDEST DUP3 DUP5 ADD SWAP1 POP SWAP4 SWAP3 POP POP POP JUMP JUMPDEST PUSH1 0x0 PUSH2 0x1E20 DUP3 DUP5 DUP7 PUSH2 0x1DEE JUMP JUMPDEST SWAP2 POP DUP2 SWAP1 POP SWAP4 SWAP3 POP POP POP JUMP JUMPDEST PUSH1 0x0 DUP2 SLOAD PUSH2 0x1E39 DUP2 PUSH2 0x17F4 JUMP JUMPDEST PUSH2 0x1E43 DUP2 DUP7 PUSH2 0x1949 JUMP JUMPDEST SWAP5 POP PUSH1 0x1 DUP3 AND PUSH1 0x0 DUP2 EQ PUSH2 0x1E5E JUMPI PUSH1 0x1 DUP2 EQ PUSH2 0x1E73 JUMPI PUSH2 0x1EA6 JUMP JUMPDEST PUSH1 0xFF NOT DUP4 AND DUP7 MSTORE DUP2 ISZERO ISZERO DUP3 MUL DUP7 ADD SWAP4 POP PUSH2 0x1EA6 JUMP JUMPDEST PUSH2 0x1E7C DUP6 PUSH2 0x19DA JUMP JUMPDEST PUSH1 0x0 JUMPDEST DUP4 DUP2 LT ISZERO PUSH2 0x1E9E JUMPI DUP2 SLOAD DUP2 DUP10 ADD MSTORE PUSH1 0x1 DUP3 ADD SWAP2 POP PUSH1 0x20 DUP2 ADD SWAP1 POP PUSH2 0x1E7F JUMP JUMPDEST DUP4 DUP9 ADD SWAP6 POP POP POP JUMPDEST POP POP POP SWAP3 SWAP2 POP POP JUMP JUMPDEST PUSH1 0x0 PUSH2 0x1EBB DUP3 DUP5 PUSH2 0x1E2C JUMP JUMPDEST SWAP2 POP DUP2 SWAP1 POP SWAP3 SWAP2 POP POP JUMP JUMPDEST PUSH32 0x4E487B7100000000000000000000000000000000000000000000000000000000 PUSH1 0x0 MSTORE PUSH1 0x12 PUSH1 0x4 MSTORE PUSH1 0x24 PUSH1 0x0 REVERT INVALID LOG2 PUSH5 0x6970667358 0x22 SLT KECCAK256 SWAP1 0xDD 0x5C 0xBA 0x28 SWAP3 0xA7 PUSH19 0x7229BD0628F72D5880C75BC6D44D2732DA9CE0 EXTCODESIZE 0xD 0x2D 0xDC SSTORE PUSH5 0x736F6C6343 STOP ADDMOD SLT STOP CALLER "
				},
				"gasEstimates": {
					"creation": {
						"codeDepositCost": "1595800",
						"executionCost": "48053",
						"totalCost": "1643853"
					},
					"external": {
						"applyForAdmin(string)": "infinite",
						"confirmApplication()": "2618",
						"contractOwner()": "2536",
						"coordinators(address)": "infinite",
						"electionCordinator()": "2512",
						"getDetails()": "infinite",
						"isElectionCoord(string,address)": "infinite",
						"registerDetails(string,uint256)": "infinite",
						"voters(address)": "infinite"
					}
				},
				"methodIdentifiers": {
					"applyForAdmin(string)": "b8015216",
					"confirmApplication()": "cfa34208",
					"contractOwner()": "ce606ee0",
					"coordinators(address)": "a48af096",
					"electionCordinator()": "7151ace2",
					"getDetails()": "fbbf93a0",
					"isElectionCoord(string,address)": "ef5b7ceb",
					"registerDetails(string,uint256)": "c0264d3a",
					"voters(address)": "a3ec138d"
				}
			},
			"storageLayout": {
				"storage": [
					{
						"astId": 1165,
						"contract": "register.sol:Voter",
						"label": "electionCordinator",
						"offset": 0,
						"slot": "0",
						"type": "t_address"
					},
					{
						"astId": 1167,
						"contract": "register.sol:Voter",
						"label": "contractOwner",
						"offset": 0,
						"slot": "1",
						"type": "t_address"
					},
					{
						"astId": 1169,
						"contract": "register.sol:Voter",
						"label": "regCount",
						"offset": 0,
						"slot": "2",
						"type": "t_uint256"
					},
					{
						"astId": 1174,
						"contract": "register.sol:Voter",
						"label": "voters",
						"offset": 0,
						"slot": "3",
						"type": "t_mapping(t_address,t_struct(voter)1053_storage)"
					},
					{
						"astId": 1179,
						"contract": "register.sol:Voter",
						"label": "coordinators",
						"offset": 0,
						"slot": "4",
						"type": "t_mapping(t_address,t_struct(coordinator)1064_storage)"
					}
				],
				"types": {
					"t_address": {
						"encoding": "inplace",
						"label": "address",
						"numberOfBytes": "20"
					},
					"t_bool": {
						"encoding": "inplace",
						"label": "bool",
						"numberOfBytes": "1"
					},
					"t_mapping(t_address,t_struct(coordinator)1064_storage)": {
						"encoding": "mapping",
						"key": "t_address",
						"label": "mapping(address => struct coordinator)",
						"numberOfBytes": "32",
						"value": "t_struct(coordinator)1064_storage"
					},
					"t_mapping(t_address,t_struct(voter)1053_storage)": {
						"encoding": "mapping",
						"key": "t_address",
						"label": "mapping(address => struct voter)",
						"numberOfBytes": "32",
						"value": "t_struct(voter)1053_storage"
					},
					"t_string_storage": {
						"encoding": "bytes",
						"label": "string",
						"numberOfBytes": "32"
					},
					"t_struct(coordinator)1064_storage": {
						"encoding": "inplace",
						"label": "struct coordinator",
						"members": [
							{
								"astId": 1055,
								"contract": "register.sol:Voter",
								"label": "name",
								"offset": 0,
								"slot": "0",
								"type": "t_string_storage"
							},
							{
								"astId": 1057,
								"contract": "register.sol:Voter",
								"label": "cordID",
								"offset": 0,
								"slot": "1",
								"type": "t_string_storage"
							},
							{
								"astId": 1059,
								"contract": "register.sol:Voter",
								"label": "electionID",
								"offset": 0,
								"slot": "2",
								"type": "t_string_storage"
							},
							{
								"astId": 1061,
								"contract": "register.sol:Voter",
								"label": "adminAuth",
								"offset": 0,
								"slot": "3",
								"type": "t_bool"
							},
							{
								"astId": 1063,
								"contract": "register.sol:Voter",
								"label": "voterAddress",
								"offset": 1,
								"slot": "3",
								"type": "t_address"
							}
						],
						"numberOfBytes": "128"
					},
					"t_struct(voter)1053_storage": {
						"encoding": "inplace",
						"label": "struct voter",
						"members": [
							{
								"astId": 1044,
								"contract": "register.sol:Voter",
								"label": "name",
								"offset": 0,
								"slot": "0",
								"type": "t_string_storage"
							},
							{
								"astId": 1046,
								"contract": "register.sol:Voter",
								"label": "age",
								"offset": 0,
								"slot": "1",
								"type": "t_uint256"
							},
							{
								"astId": 1048,
								"contract": "register.sol:Voter",
								"label": "voterID",
								"offset": 0,
								"slot": "2",
								"type": "t_string_storage"
							},
							{
								"astId": 1050,
								"contract": "register.sol:Voter",
								"label": "canApplyToVote",
								"offset": 0,
								"slot": "3",
								"type": "t_bool"
							},
							{
								"astId": 1052,
								"contract": "register.sol:Voter",
								"label": "voterAddress",
								"offset": 1,
								"slot": "3",
								"type": "t_address"
							}
						],
						"numberOfBytes": "128"
					},
					"t_uint256": {
						"encoding": "inplace",
						"label": "uint256",
						"numberOfBytes": "32"
					}
				}
			},
			"userdoc": {
				"kind": "user",
				"methods": {},
				"version": 1
			}
		}
	}
}