{
	"register.sol": {
		"Voter": {
			"abi": [
				{
					"inputs": [],
					"stateMutability": "nonpayable",
					"type": "constructor"
				},
				{
					"inputs": [
						{
							"internalType": "string",
							"name": "name",
							"type": "string"
						},
						{
							"internalType": "string",
							"name": "electionID",
							"type": "string"
						}
					],
					"name": "applyForAdmin",
					"outputs": [],
					"stateMutability": "nonpayable",
					"type": "function"
				},
				{
					"inputs": [],
					"name": "confirmApplication",
					"outputs": [
						{
							"internalType": "bool",
							"name": "",
							"type": "bool"
						}
					],
					"stateMutability": "view",
					"type": "function"
				},
				{
					"inputs": [],
					"name": "contractOwner",
					"outputs": [
						{
							"internalType": "address",
							"name": "",
							"type": "address"
						}
					],
					"stateMutability": "view",
					"type": "function"
				},
				{
					"inputs": [
						{
							"internalType": "address",
							"name": "",
							"type": "address"
						}
					],
					"name": "coordinators",
					"outputs": [
						{
							"internalType": "string",
							"name": "name",
							"type": "string"
						},
						{
							"internalType": "string",
							"name": "cordID",
							"type": "string"
						},
						{
							"internalType": "string",
							"name": "electionID",
							"type": "string"
						},
						{
							"internalType": "bool",
							"name": "adminAuth",
							"type": "bool"
						},
						{
							"internalType": "address",
							"name": "voterAddress",
							"type": "address"
						}
					],
					"stateMutability": "view",
					"type": "function"
				},
				{
					"inputs": [],
					"name": "electionCordinator",
					"outputs": [
						{
							"internalType": "address",
							"name": "",
							"type": "address"
						}
					],
					"stateMutability": "view",
					"type": "function"
				},
				{
					"inputs": [],
					"name": "getDetails",
					"outputs": [
						{
							"components": [
								{
									"internalType": "string",
									"name": "name",
									"type": "string"
								},
								{
									"internalType": "uint256",
									"name": "age",
									"type": "uint256"
								},
								{
									"internalType": "string",
									"name": "voterID",
									"type": "string"
								},
								{
									"internalType": "bool",
									"name": "canApplyToVote",
									"type": "bool"
								},
								{
									"internalType": "address",
									"name": "voterAddress",
									"type": "address"
								}
							],
							"internalType": "struct voter",
							"name": "",
							"type": "tuple"
						}
					],
					"stateMutability": "view",
					"type": "function"
				},
				{
					"inputs": [
						{
							"internalType": "string",
							"name": "electionID",
							"type": "string"
						},
						{
							"internalType": "address",
							"name": "cordAddr",
							"type": "address"
						}
					],
					"name": "grantAdminPrivileges",
					"outputs": [],
					"stateMutability": "nonpayable",
					"type": "function"
				},
				{
					"inputs": [
						{
							"internalType": "string",
							"name": "electionID",
							"type": "string"
						},
						{
							"internalType": "address",
							"name": "cordAddr",
							"type": "address"
						}
					],
					"name": "isElectionCoord",
					"outputs": [
						{
							"internalType": "bool",
							"name": "",
							"type": "bool"
						}
					],
					"stateMutability": "view",
					"type": "function"
				},
				{
					"inputs": [
						{
							"internalType": "string",
							"name": "name",
							"type": "string"
						},
						{
							"internalType": "uint256",
							"name": "age",
							"type": "uint256"
						}
					],
					"name": "registerDetails",
					"outputs": [
						{
							"components": [
								{
									"internalType": "string",
									"name": "name",
									"type": "string"
								},
								{
									"internalType": "uint256",
									"name": "age",
									"type": "uint256"
								},
								{
									"internalType": "string",
									"name": "voterID",
									"type": "string"
								},
								{
									"internalType": "bool",
									"name": "canApplyToVote",
									"type": "bool"
								},
								{
									"internalType": "address",
									"name": "voterAddress",
									"type": "address"
								}
							],
							"internalType": "struct voter",
							"name": "",
							"type": "tuple"
						}
					],
					"stateMutability": "nonpayable",
					"type": "function"
				},
				{
					"inputs": [
						{
							"internalType": "address",
							"name": "",
							"type": "address"
						}
					],
					"name": "voters",
					"outputs": [
						{
							"internalType": "string",
							"name": "name",
							"type": "string"
						},
						{
							"internalType": "uint256",
							"name": "age",
							"type": "uint256"
						},
						{
							"internalType": "string",
							"name": "voterID",
							"type": "string"
						},
						{
							"internalType": "bool",
							"name": "canApplyToVote",
							"type": "bool"
						},
						{
							"internalType": "address",
							"name": "voterAddress",
							"type": "address"
						}
					],
					"stateMutability": "view",
					"type": "function"
				}
			],
			"devdoc": {
				"kind": "dev",
				"methods": {},
				"version": 1
			},
			"evm": {
				"assembly": "    /* \"register.sol\":1602:3952  contract Voter is registerVoter{... */\n  mstore(0x40, 0x80)\n    /* \"register.sol\":1841:1920  constructor(){ ... */\n  callvalue\n  dup1\n  iszero\n  tag_1\n  jumpi\n  0x00\n  dup1\n  revert\ntag_1:\n  pop\n    /* \"register.sol\":1881:1891  msg.sender */\n  caller\n    /* \"register.sol\":1865:1878  contractOwner */\n  0x01\n  0x00\n    /* \"register.sol\":1865:1891  contractOwner = msg.sender */\n  0x0100\n  exp\n  dup2\n  sload\n  dup2\n  0xffffffffffffffffffffffffffffffffffffffff\n  mul\n  not\n  and\n  swap1\n  dup4\n  0xffffffffffffffffffffffffffffffffffffffff\n  and\n  mul\n  or\n  swap1\n  sstore\n  pop\n    /* \"register.sol\":1912:1913  1 */\n  0x01\n    /* \"register.sol\":1901:1909  regCount */\n  0x02\n    /* \"register.sol\":1901:1913  regCount = 1 */\n  dup2\n  swap1\n  sstore\n  pop\n    /* \"register.sol\":1602:3952  contract Voter is registerVoter{... */\n  dataSize(sub_0)\n  dup1\n  dataOffset(sub_0)\n  0x00\n  codecopy\n  0x00\n  return\nstop\n\nsub_0: assembly {\n        /* \"register.sol\":1602:3952  contract Voter is registerVoter{... */\n      mstore(0x40, 0x80)\n      callvalue\n      dup1\n      iszero\n      tag_1\n      jumpi\n      0x00\n      dup1\n      revert\n    tag_1:\n      pop\n      jumpi(tag_2, lt(calldatasize, 0x04))\n      shr(0xe0, calldataload(0x00))\n      dup1\n      0xc0264d3a\n      gt\n      tag_13\n      jumpi\n      dup1\n      0xc0264d3a\n      eq\n      tag_8\n      jumpi\n      dup1\n      0xce606ee0\n      eq\n      tag_9\n      jumpi\n      dup1\n      0xcfa34208\n      eq\n      tag_10\n      jumpi\n      dup1\n      0xef5b7ceb\n      eq\n      tag_11\n      jumpi\n      dup1\n      0xfbbf93a0\n      eq\n      tag_12\n      jumpi\n      jump(tag_2)\n    tag_13:\n      dup1\n      0x7151ace2\n      eq\n      tag_3\n      jumpi\n      dup1\n      0x74775fae\n      eq\n      tag_4\n      jumpi\n      dup1\n      0x8bc8d6ff\n      eq\n      tag_5\n      jumpi\n      dup1\n      0xa3ec138d\n      eq\n      tag_6\n      jumpi\n      dup1\n      0xa48af096\n      eq\n      tag_7\n      jumpi\n    tag_2:\n      0x00\n      dup1\n      revert\n        /* \"register.sol\":1640:1673  address public electionCordinator */\n    tag_3:\n      tag_14\n      tag_15\n      jump\t// in\n    tag_14:\n      mload(0x40)\n      tag_16\n      swap2\n      swap1\n      tag_17\n      jump\t// in\n    tag_16:\n      mload(0x40)\n      dup1\n      swap2\n      sub\n      swap1\n      return\n        /* \"register.sol\":3483:3948  function grantAdminPrivileges(string calldata electionID, address cordAddr) public onlyAdmin{... */\n    tag_4:\n      tag_18\n      0x04\n      dup1\n      calldatasize\n      sub\n      dup2\n      add\n      swap1\n      tag_19\n      swap2\n      swap1\n      tag_20\n      jump\t// in\n    tag_19:\n      tag_21\n      jump\t// in\n    tag_18:\n      stop\n        /* \"register.sol\":2722:3246  function applyForAdmin(string calldata name, string calldata electionID) public{... */\n    tag_5:\n      tag_22\n      0x04\n      dup1\n      calldatasize\n      sub\n      dup2\n      add\n      swap1\n      tag_23\n      swap2\n      swap1\n      tag_24\n      jump\t// in\n    tag_23:\n      tag_25\n      jump\t// in\n    tag_22:\n      stop\n        /* \"register.sol\":1732:1772  mapping( address => voter) public voters */\n    tag_6:\n      tag_26\n      0x04\n      dup1\n      calldatasize\n      sub\n      dup2\n      add\n      swap1\n      tag_27\n      swap2\n      swap1\n      tag_28\n      jump\t// in\n    tag_27:\n      tag_29\n      jump\t// in\n    tag_26:\n      mload(0x40)\n      tag_30\n      swap6\n      swap5\n      swap4\n      swap3\n      swap2\n      swap1\n      tag_31\n      jump\t// in\n    tag_30:\n      mload(0x40)\n      dup1\n      swap2\n      sub\n      swap1\n      return\n        /* \"register.sol\":1778:1829  mapping(address => coordinator) public coordinators */\n    tag_7:\n      tag_32\n      0x04\n      dup1\n      calldatasize\n      sub\n      dup2\n      add\n      swap1\n      tag_33\n      swap2\n      swap1\n      tag_28\n      jump\t// in\n    tag_33:\n      tag_34\n      jump\t// in\n    tag_32:\n      mload(0x40)\n      tag_35\n      swap6\n      swap5\n      swap4\n      swap3\n      swap2\n      swap1\n      tag_36\n      jump\t// in\n    tag_35:\n      mload(0x40)\n      dup1\n      swap2\n      sub\n      swap1\n      return\n        /* \"register.sol\":2031:2493  function registerDetails(string calldata name, uint age) public returns (voter memory) {... */\n    tag_8:\n      tag_37\n      0x04\n      dup1\n      calldatasize\n      sub\n      dup2\n      add\n      swap1\n      tag_38\n      swap2\n      swap1\n      tag_39\n      jump\t// in\n    tag_38:\n      tag_40\n      jump\t// in\n    tag_37:\n      mload(0x40)\n      tag_41\n      swap2\n      swap1\n      tag_42\n      jump\t// in\n    tag_41:\n      mload(0x40)\n      dup1\n      swap2\n      sub\n      swap1\n      return\n        /* \"register.sol\":1679:1707  address public contractOwner */\n    tag_9:\n      tag_43\n      tag_44\n      jump\t// in\n    tag_43:\n      mload(0x40)\n      tag_45\n      swap2\n      swap1\n      tag_17\n      jump\t// in\n    tag_45:\n      mload(0x40)\n      dup1\n      swap2\n      sub\n      swap1\n      return\n        /* \"register.sol\":2500:2612  function confirmApplication() public view returns(bool){... */\n    tag_10:\n      tag_46\n      tag_47\n      jump\t// in\n    tag_46:\n      mload(0x40)\n      tag_48\n      swap2\n      swap1\n      tag_49\n      jump\t// in\n    tag_48:\n      mload(0x40)\n      dup1\n      swap2\n      sub\n      swap1\n      return\n        /* \"register.sol\":3252:3477  function isElectionCoord(string calldata electionID, address cordAddr) public view returns(bool){... */\n    tag_11:\n      tag_50\n      0x04\n      dup1\n      calldatasize\n      sub\n      dup2\n      add\n      swap1\n      tag_51\n      swap2\n      swap1\n      tag_20\n      jump\t// in\n    tag_51:\n      tag_52\n      jump\t// in\n    tag_50:\n      mload(0x40)\n      tag_53\n      swap2\n      swap1\n      tag_49\n      jump\t// in\n    tag_53:\n      mload(0x40)\n      dup1\n      swap2\n      sub\n      swap1\n      return\n        /* \"register.sol\":2618:2716  function getDetails() public view returns (voter memory){... */\n    tag_12:\n      tag_54\n      tag_55\n      jump\t// in\n    tag_54:\n      mload(0x40)\n      tag_56\n      swap2\n      swap1\n      tag_42\n      jump\t// in\n    tag_56:\n      mload(0x40)\n      dup1\n      swap2\n      sub\n      swap1\n      return\n        /* \"register.sol\":1640:1673  address public electionCordinator */\n    tag_15:\n      0x00\n      dup1\n      sload\n      swap1\n      0x0100\n      exp\n      swap1\n      div\n      0xffffffffffffffffffffffffffffffffffffffff\n      and\n      dup2\n      jump\t// out\n        /* \"register.sol\":3483:3948  function grantAdminPrivileges(string calldata electionID, address cordAddr) public onlyAdmin{... */\n    tag_21:\n        /* \"register.sol\":2001:2005  true */\n      0x01\n        /* \"register.sol\":1963:2005  coordinators[msg.sender].adminAuth == true */\n      iszero\n      iszero\n        /* \"register.sol\":1963:1975  coordinators */\n      0x04\n        /* \"register.sol\":1963:1987  coordinators[msg.sender] */\n      0x00\n        /* \"register.sol\":1976:1986  msg.sender */\n      caller\n        /* \"register.sol\":1963:1987  coordinators[msg.sender] */\n      0xffffffffffffffffffffffffffffffffffffffff\n      and\n      0xffffffffffffffffffffffffffffffffffffffff\n      and\n      dup2\n      mstore\n      0x20\n      add\n      swap1\n      dup2\n      mstore\n      0x20\n      add\n      0x00\n      keccak256\n        /* \"register.sol\":1963:1997  coordinators[msg.sender].adminAuth */\n      0x03\n      add\n      0x00\n      swap1\n      sload\n      swap1\n      0x0100\n      exp\n      swap1\n      div\n      0xff\n      and\n        /* \"register.sol\":1963:2005  coordinators[msg.sender].adminAuth == true */\n      iszero\n      iszero\n      eq\n        /* \"register.sol\":1954:2006  require (coordinators[msg.sender].adminAuth == true) */\n      tag_58\n      jumpi\n      0x00\n      dup1\n      revert\n    tag_58:\n        /* \"register.sol\":3640:3641  0 */\n      0x00\n        /* \"register.sol\":3599:3611  coordinators */\n      0x04\n        /* \"register.sol\":3599:3621  coordinators[cordAddr] */\n      0x00\n        /* \"register.sol\":3612:3620  cordAddr */\n      dup4\n        /* \"register.sol\":3599:3621  coordinators[cordAddr] */\n      0xffffffffffffffffffffffffffffffffffffffff\n      and\n      0xffffffffffffffffffffffffffffffffffffffff\n      and\n      dup2\n      mstore\n      0x20\n      add\n      swap1\n      dup2\n      mstore\n      0x20\n      add\n      0x00\n      keccak256\n        /* \"register.sol\":3599:3628  coordinators[cordAddr].cordID */\n      0x01\n      add\n        /* \"register.sol\":3593:3636  bytes(coordinators[cordAddr].cordID).length */\n      dup1\n      sload\n      tag_60\n      swap1\n      tag_61\n      jump\t// in\n    tag_60:\n      swap1\n      pop\n        /* \"register.sol\":3593:3641  bytes(coordinators[cordAddr].cordID).length != 0 */\n      sub\n        /* \"register.sol\":3585:3679  require(bytes(coordinators[cordAddr].cordID).length != 0, \"this address is not a coordinator\") */\n      tag_62\n      jumpi\n      mload(0x40)\n      0x08c379a000000000000000000000000000000000000000000000000000000000\n      dup2\n      mstore\n      0x04\n      add\n      tag_63\n      swap1\n      tag_64\n      jump\t// in\n    tag_63:\n      mload(0x40)\n      dup1\n      swap2\n      sub\n      swap1\n      revert\n    tag_62:\n        /* \"register.sol\":3733:3738  false */\n      0x00\n        /* \"register.sol\":3697:3738  coordinators[cordAddr].adminAuth != false */\n      iszero\n      iszero\n        /* \"register.sol\":3697:3709  coordinators */\n      0x04\n        /* \"register.sol\":3697:3719  coordinators[cordAddr] */\n      0x00\n        /* \"register.sol\":3710:3718  cordAddr */\n      dup4\n        /* \"register.sol\":3697:3719  coordinators[cordAddr] */\n      0xffffffffffffffffffffffffffffffffffffffff\n      and\n      0xffffffffffffffffffffffffffffffffffffffff\n      and\n      dup2\n      mstore\n      0x20\n      add\n      swap1\n      dup2\n      mstore\n      0x20\n      add\n      0x00\n      keccak256\n        /* \"register.sol\":3697:3729  coordinators[cordAddr].adminAuth */\n      0x03\n      add\n      0x00\n      swap1\n      sload\n      swap1\n      0x0100\n      exp\n      swap1\n      div\n      0xff\n      and\n        /* \"register.sol\":3697:3738  coordinators[cordAddr].adminAuth != false */\n      iszero\n      iszero\n      sub\n        /* \"register.sol\":3689:3768  require(coordinators[cordAddr].adminAuth != false, \"This user is not an admin\") */\n      tag_65\n      jumpi\n      mload(0x40)\n      0x08c379a000000000000000000000000000000000000000000000000000000000\n      dup2\n      mstore\n      0x04\n      add\n      tag_66\n      swap1\n      tag_67\n      jump\t// in\n    tag_66:\n      mload(0x40)\n      dup1\n      swap2\n      sub\n      swap1\n      revert\n    tag_65:\n        /* \"register.sol\":3878:3888  electionID */\n      dup3\n      dup3\n        /* \"register.sol\":3861:3889  abi.encodePacked(electionID) */\n      add(0x20, mload(0x40))\n      tag_68\n      swap3\n      swap2\n      swap1\n      tag_69\n      jump\t// in\n    tag_68:\n      mload(0x40)\n      0x20\n      dup2\n      dup4\n      sub\n      sub\n      dup2\n      mstore\n      swap1\n      0x40\n      mstore\n        /* \"register.sol\":3851:3891  keccak256(abi.encodePacked(electionID) ) */\n      dup1\n      mload\n      swap1\n      0x20\n      add\n      keccak256\n        /* \"register.sol\":3813:3825  coordinators */\n      0x04\n        /* \"register.sol\":3813:3835  coordinators[cordAddr] */\n      0x00\n        /* \"register.sol\":3826:3834  cordAddr */\n      dup4\n        /* \"register.sol\":3813:3835  coordinators[cordAddr] */\n      0xffffffffffffffffffffffffffffffffffffffff\n      and\n      0xffffffffffffffffffffffffffffffffffffffff\n      and\n      dup2\n      mstore\n      0x20\n      add\n      swap1\n      dup2\n      mstore\n      0x20\n      add\n      0x00\n      keccak256\n        /* \"register.sol\":3813:3846  coordinators[cordAddr].electionID */\n      0x02\n      add\n        /* \"register.sol\":3796:3847  abi.encodePacked(coordinators[cordAddr].electionID) */\n      add(0x20, mload(0x40))\n      tag_70\n      swap2\n      swap1\n      tag_71\n      jump\t// in\n    tag_70:\n      mload(0x40)\n      0x20\n      dup2\n      dup4\n      sub\n      sub\n      dup2\n      mstore\n      swap1\n      0x40\n      mstore\n        /* \"register.sol\":3786:3848  keccak256(abi.encodePacked(coordinators[cordAddr].electionID)) */\n      dup1\n      mload\n      swap1\n      0x20\n      add\n      keccak256\n        /* \"register.sol\":3786:3891  keccak256(abi.encodePacked(coordinators[cordAddr].electionID)) !=keccak256(abi.encodePacked(electionID) ) */\n      sub\n        /* \"register.sol\":3778:3939  require(keccak256(abi.encodePacked(coordinators[cordAddr].electionID)) !=keccak256(abi.encodePacked(electionID) ), \"This user has admin rights to this election\") */\n      tag_72\n      jumpi\n      mload(0x40)\n      0x08c379a000000000000000000000000000000000000000000000000000000000\n      dup2\n      mstore\n      0x04\n      add\n      tag_73\n      swap1\n      tag_74\n      jump\t// in\n    tag_73:\n      mload(0x40)\n      dup1\n      swap2\n      sub\n      swap1\n      revert\n    tag_72:\n        /* \"register.sol\":3483:3948  function grantAdminPrivileges(string calldata electionID, address cordAddr) public onlyAdmin{... */\n      pop\n      pop\n      pop\n      jump\t// out\n        /* \"register.sol\":2722:3246  function applyForAdmin(string calldata name, string calldata electionID) public{... */\n    tag_25:\n        /* \"register.sol\":2868:2869  0 */\n      0x00\n        /* \"register.sol\":2825:2837  coordinators */\n      0x04\n        /* \"register.sol\":2825:2849  coordinators[msg.sender] */\n      0x00\n        /* \"register.sol\":2838:2848  msg.sender */\n      caller\n        /* \"register.sol\":2825:2849  coordinators[msg.sender] */\n      0xffffffffffffffffffffffffffffffffffffffff\n      and\n      0xffffffffffffffffffffffffffffffffffffffff\n      and\n      dup2\n      mstore\n      0x20\n      add\n      swap1\n      dup2\n      mstore\n      0x20\n      add\n      0x00\n      keccak256\n        /* \"register.sol\":2825:2856  coordinators[msg.sender].cordID */\n      0x01\n      add\n        /* \"register.sol\":2819:2864  bytes(coordinators[msg.sender].cordID).length */\n      dup1\n      sload\n      tag_76\n      swap1\n      tag_61\n      jump\t// in\n    tag_76:\n      swap1\n      pop\n        /* \"register.sol\":2819:2869  bytes(coordinators[msg.sender].cordID).length == 0 */\n      eq\n        /* \"register.sol\":2811:2898  require(bytes(coordinators[msg.sender].cordID).length == 0, \"This address is an admin\") */\n      tag_77\n      jumpi\n      mload(0x40)\n      0x08c379a000000000000000000000000000000000000000000000000000000000\n      dup2\n      mstore\n      0x04\n      add\n      tag_78\n      swap1\n      tag_79\n      jump\t// in\n    tag_78:\n      mload(0x40)\n      dup1\n      swap2\n      sub\n      swap1\n      revert\n    tag_77:\n        /* \"register.sol\":2960:2961  0 */\n      0x00\n        /* \"register.sol\":2922:2928  voters */\n      0x03\n        /* \"register.sol\":2922:2940  voters[msg.sender] */\n      0x00\n        /* \"register.sol\":2929:2939  msg.sender */\n      caller\n        /* \"register.sol\":2922:2940  voters[msg.sender] */\n      0xffffffffffffffffffffffffffffffffffffffff\n      and\n      0xffffffffffffffffffffffffffffffffffffffff\n      and\n      dup2\n      mstore\n      0x20\n      add\n      swap1\n      dup2\n      mstore\n      0x20\n      add\n      0x00\n      keccak256\n        /* \"register.sol\":2922:2948  voters[msg.sender].voterID */\n      0x02\n      add\n        /* \"register.sol\":2916:2956  bytes(voters[msg.sender].voterID).length */\n      dup1\n      sload\n      tag_80\n      swap1\n      tag_61\n      jump\t// in\n    tag_80:\n      swap1\n      pop\n        /* \"register.sol\":2916:2961  bytes(voters[msg.sender].voterID).length != 0 */\n      sub\n        /* \"register.sol\":2908:3027  require(bytes(voters[msg.sender].voterID).length != 0, \"This address has mot been registered in the electoral process\") */\n      tag_81\n      jumpi\n      mload(0x40)\n      0x08c379a000000000000000000000000000000000000000000000000000000000\n      dup2\n      mstore\n      0x04\n      add\n      tag_82\n      swap1\n      tag_83\n      jump\t// in\n    tag_82:\n      mload(0x40)\n      dup1\n      swap2\n      sub\n      swap1\n      revert\n    tag_81:\n        /* \"register.sol\":3038:3058  string memory cordID */\n      0x00\n        /* \"register.sol\":3081:3107  Strings.toString(regCount) */\n      tag_84\n        /* \"register.sol\":3098:3106  regCount */\n      sload(0x02)\n        /* \"register.sol\":3081:3097  Strings.toString */\n      tag_85\n        /* \"register.sol\":3081:3107  Strings.toString(regCount) */\n      jump\t// in\n    tag_84:\n        /* \"register.sol\":3061:3108  string.concat(\"COD\",Strings.toString(regCount)) */\n      add(0x20, mload(0x40))\n      tag_86\n      swap2\n      swap1\n      tag_87\n      jump\t// in\n    tag_86:\n      mload(0x40)\n      0x20\n      dup2\n      dup4\n      sub\n      sub\n      dup2\n      mstore\n      swap1\n      0x40\n      mstore\n        /* \"register.sol\":3038:3108  string memory cordID = string.concat(\"COD\",Strings.toString(regCount)) */\n      swap1\n      pop\n        /* \"register.sol\":3118:3149  voters[msg.sender].voterID = '' */\n      mload(0x40)\n      dup1\n      0x20\n      add\n      0x40\n      mstore\n      dup1\n      0x00\n      dup2\n      mstore\n      pop\n        /* \"register.sol\":3118:3124  voters */\n      0x03\n        /* \"register.sol\":3118:3136  voters[msg.sender] */\n      0x00\n        /* \"register.sol\":3125:3135  msg.sender */\n      caller\n        /* \"register.sol\":3118:3136  voters[msg.sender] */\n      0xffffffffffffffffffffffffffffffffffffffff\n      and\n      0xffffffffffffffffffffffffffffffffffffffff\n      and\n      dup2\n      mstore\n      0x20\n      add\n      swap1\n      dup2\n      mstore\n      0x20\n      add\n      0x00\n      keccak256\n        /* \"register.sol\":3118:3144  voters[msg.sender].voterID */\n      0x02\n      add\n        /* \"register.sol\":3118:3149  voters[msg.sender].voterID = '' */\n      swap1\n      dup2\n      tag_88\n      swap2\n      swap1\n      tag_89\n      jump\t// in\n    tag_88:\n      pop\n        /* \"register.sol\":3185:3239  coordinator(name,cordID,electionID,false, msg.sender ) */\n      mload(0x40)\n      dup1\n      0xa0\n      add\n      0x40\n      mstore\n      dup1\n        /* \"register.sol\":3197:3201  name */\n      dup7\n      dup7\n        /* \"register.sol\":3185:3239  coordinator(name,cordID,electionID,false, msg.sender ) */\n      dup1\n      dup1\n      0x1f\n      add\n      0x20\n      dup1\n      swap2\n      div\n      mul\n      0x20\n      add\n      mload(0x40)\n      swap1\n      dup2\n      add\n      0x40\n      mstore\n      dup1\n      swap4\n      swap3\n      swap2\n      swap1\n      dup2\n      dup2\n      mstore\n      0x20\n      add\n      dup4\n      dup4\n      dup1\n      dup3\n      dup5\n      calldatacopy\n      0x00\n      dup2\n      dup5\n      add\n      mstore\n      not(0x1f)\n      0x1f\n      dup3\n      add\n      and\n      swap1\n      pop\n      dup1\n      dup4\n      add\n      swap3\n      pop\n      pop\n      pop\n      pop\n      pop\n      pop\n      pop\n      dup2\n      mstore\n      0x20\n      add\n        /* \"register.sol\":3202:3208  cordID */\n      dup3\n        /* \"register.sol\":3185:3239  coordinator(name,cordID,electionID,false, msg.sender ) */\n      dup2\n      mstore\n      0x20\n      add\n        /* \"register.sol\":3209:3219  electionID */\n      dup5\n      dup5\n        /* \"register.sol\":3185:3239  coordinator(name,cordID,electionID,false, msg.sender ) */\n      dup1\n      dup1\n      0x1f\n      add\n      0x20\n      dup1\n      swap2\n      div\n      mul\n      0x20\n      add\n      mload(0x40)\n      swap1\n      dup2\n      add\n      0x40\n      mstore\n      dup1\n      swap4\n      swap3\n      swap2\n      swap1\n      dup2\n      dup2\n      mstore\n      0x20\n      add\n      dup4\n      dup4\n      dup1\n      dup3\n      dup5\n      calldatacopy\n      0x00\n      dup2\n      dup5\n      add\n      mstore\n      not(0x1f)\n      0x1f\n      dup3\n      add\n      and\n      swap1\n      pop\n      dup1\n      dup4\n      add\n      swap3\n      pop\n      pop\n      pop\n      pop\n      pop\n      pop\n      pop\n      dup2\n      mstore\n      0x20\n      add\n        /* \"register.sol\":3220:3225  false */\n      0x00\n        /* \"register.sol\":3185:3239  coordinator(name,cordID,electionID,false, msg.sender ) */\n      iszero\n      iszero\n      dup2\n      mstore\n      0x20\n      add\n        /* \"register.sol\":3227:3237  msg.sender */\n      caller\n        /* \"register.sol\":3185:3239  coordinator(name,cordID,electionID,false, msg.sender ) */\n      0xffffffffffffffffffffffffffffffffffffffff\n      and\n      dup2\n      mstore\n      pop\n        /* \"register.sol\":3159:3171  coordinators */\n      0x04\n        /* \"register.sol\":3159:3183  coordinators[msg.sender] */\n      0x00\n        /* \"register.sol\":3172:3182  msg.sender */\n      caller\n        /* \"register.sol\":3159:3183  coordinators[msg.sender] */\n      0xffffffffffffffffffffffffffffffffffffffff\n      and\n      0xffffffffffffffffffffffffffffffffffffffff\n      and\n      dup2\n      mstore\n      0x20\n      add\n      swap1\n      dup2\n      mstore\n      0x20\n      add\n      0x00\n      keccak256\n        /* \"register.sol\":3159:3239  coordinators[msg.sender]= coordinator(name,cordID,electionID,false, msg.sender ) */\n      0x00\n      dup3\n      add\n      mload\n      dup2\n      0x00\n      add\n      swap1\n      dup2\n      tag_90\n      swap2\n      swap1\n      tag_89\n      jump\t// in\n    tag_90:\n      pop\n      0x20\n      dup3\n      add\n      mload\n      dup2\n      0x01\n      add\n      swap1\n      dup2\n      tag_91\n      swap2\n      swap1\n      tag_89\n      jump\t// in\n    tag_91:\n      pop\n      0x40\n      dup3\n      add\n      mload\n      dup2\n      0x02\n      add\n      swap1\n      dup2\n      tag_92\n      swap2\n      swap1\n      tag_89\n      jump\t// in\n    tag_92:\n      pop\n      0x60\n      dup3\n      add\n      mload\n      dup2\n      0x03\n      add\n      exp(0x0100, 0x00)\n      dup2\n      sload\n      dup2\n      0xff\n      mul\n      not\n      and\n      swap1\n      dup4\n      iszero\n      iszero\n      mul\n      or\n      swap1\n      sstore\n      pop\n      0x80\n      dup3\n      add\n      mload\n      dup2\n      0x03\n      add\n      exp(0x0100, 0x01)\n      dup2\n      sload\n      dup2\n      0xffffffffffffffffffffffffffffffffffffffff\n      mul\n      not\n      and\n      swap1\n      dup4\n      0xffffffffffffffffffffffffffffffffffffffff\n      and\n      mul\n      or\n      swap1\n      sstore\n      pop\n      swap1\n      pop\n      pop\n        /* \"register.sol\":2801:3246  {... */\n      pop\n        /* \"register.sol\":2722:3246  function applyForAdmin(string calldata name, string calldata electionID) public{... */\n      pop\n      pop\n      pop\n      pop\n      jump\t// out\n        /* \"register.sol\":1732:1772  mapping( address => voter) public voters */\n    tag_29:\n      mstore(0x20, 0x03)\n      dup1\n      0x00\n      mstore\n      keccak256(0x00, 0x40)\n      0x00\n      swap2\n      pop\n      swap1\n      pop\n      dup1\n      0x00\n      add\n      dup1\n      sload\n      tag_93\n      swap1\n      tag_61\n      jump\t// in\n    tag_93:\n      dup1\n      0x1f\n      add\n      0x20\n      dup1\n      swap2\n      div\n      mul\n      0x20\n      add\n      mload(0x40)\n      swap1\n      dup2\n      add\n      0x40\n      mstore\n      dup1\n      swap3\n      swap2\n      swap1\n      dup2\n      dup2\n      mstore\n      0x20\n      add\n      dup3\n      dup1\n      sload\n      tag_94\n      swap1\n      tag_61\n      jump\t// in\n    tag_94:\n      dup1\n      iszero\n      tag_95\n      jumpi\n      dup1\n      0x1f\n      lt\n      tag_96\n      jumpi\n      0x0100\n      dup1\n      dup4\n      sload\n      div\n      mul\n      dup4\n      mstore\n      swap2\n      0x20\n      add\n      swap2\n      jump(tag_95)\n    tag_96:\n      dup3\n      add\n      swap2\n      swap1\n      0x00\n      mstore\n      keccak256(0x00, 0x20)\n      swap1\n    tag_97:\n      dup2\n      sload\n      dup2\n      mstore\n      swap1\n      0x01\n      add\n      swap1\n      0x20\n      add\n      dup1\n      dup4\n      gt\n      tag_97\n      jumpi\n      dup3\n      swap1\n      sub\n      0x1f\n      and\n      dup3\n      add\n      swap2\n    tag_95:\n      pop\n      pop\n      pop\n      pop\n      pop\n      swap1\n      dup1\n      0x01\n      add\n      sload\n      swap1\n      dup1\n      0x02\n      add\n      dup1\n      sload\n      tag_98\n      swap1\n      tag_61\n      jump\t// in\n    tag_98:\n      dup1\n      0x1f\n      add\n      0x20\n      dup1\n      swap2\n      div\n      mul\n      0x20\n      add\n      mload(0x40)\n      swap1\n      dup2\n      add\n      0x40\n      mstore\n      dup1\n      swap3\n      swap2\n      swap1\n      dup2\n      dup2\n      mstore\n      0x20\n      add\n      dup3\n      dup1\n      sload\n      tag_99\n      swap1\n      tag_61\n      jump\t// in\n    tag_99:\n      dup1\n      iszero\n      tag_100\n      jumpi\n      dup1\n      0x1f\n      lt\n      tag_101\n      jumpi\n      0x0100\n      dup1\n      dup4\n      sload\n      div\n      mul\n      dup4\n      mstore\n      swap2\n      0x20\n      add\n      swap2\n      jump(tag_100)\n    tag_101:\n      dup3\n      add\n      swap2\n      swap1\n      0x00\n      mstore\n      keccak256(0x00, 0x20)\n      swap1\n    tag_102:\n      dup2\n      sload\n      dup2\n      mstore\n      swap1\n      0x01\n      add\n      swap1\n      0x20\n      add\n      dup1\n      dup4\n      gt\n      tag_102\n      jumpi\n      dup3\n      swap1\n      sub\n      0x1f\n      and\n      dup3\n      add\n      swap2\n    tag_100:\n      pop\n      pop\n      pop\n      pop\n      pop\n      swap1\n      dup1\n      0x03\n      add\n      0x00\n      swap1\n      sload\n      swap1\n      0x0100\n      exp\n      swap1\n      div\n      0xff\n      and\n      swap1\n      dup1\n      0x03\n      add\n      0x01\n      swap1\n      sload\n      swap1\n      0x0100\n      exp\n      swap1\n      div\n      0xffffffffffffffffffffffffffffffffffffffff\n      and\n      swap1\n      pop\n      dup6\n      jump\t// out\n        /* \"register.sol\":1778:1829  mapping(address => coordinator) public coordinators */\n    tag_34:\n      mstore(0x20, 0x04)\n      dup1\n      0x00\n      mstore\n      keccak256(0x00, 0x40)\n      0x00\n      swap2\n      pop\n      swap1\n      pop\n      dup1\n      0x00\n      add\n      dup1\n      sload\n      tag_103\n      swap1\n      tag_61\n      jump\t// in\n    tag_103:\n      dup1\n      0x1f\n      add\n      0x20\n      dup1\n      swap2\n      div\n      mul\n      0x20\n      add\n      mload(0x40)\n      swap1\n      dup2\n      add\n      0x40\n      mstore\n      dup1\n      swap3\n      swap2\n      swap1\n      dup2\n      dup2\n      mstore\n      0x20\n      add\n      dup3\n      dup1\n      sload\n      tag_104\n      swap1\n      tag_61\n      jump\t// in\n    tag_104:\n      dup1\n      iszero\n      tag_105\n      jumpi\n      dup1\n      0x1f\n      lt\n      tag_106\n      jumpi\n      0x0100\n      dup1\n      dup4\n      sload\n      div\n      mul\n      dup4\n      mstore\n      swap2\n      0x20\n      add\n      swap2\n      jump(tag_105)\n    tag_106:\n      dup3\n      add\n      swap2\n      swap1\n      0x00\n      mstore\n      keccak256(0x00, 0x20)\n      swap1\n    tag_107:\n      dup2\n      sload\n      dup2\n      mstore\n      swap1\n      0x01\n      add\n      swap1\n      0x20\n      add\n      dup1\n      dup4\n      gt\n      tag_107\n      jumpi\n      dup3\n      swap1\n      sub\n      0x1f\n      and\n      dup3\n      add\n      swap2\n    tag_105:\n      pop\n      pop\n      pop\n      pop\n      pop\n      swap1\n      dup1\n      0x01\n      add\n      dup1\n      sload\n      tag_108\n      swap1\n      tag_61\n      jump\t// in\n    tag_108:\n      dup1\n      0x1f\n      add\n      0x20\n      dup1\n      swap2\n      div\n      mul\n      0x20\n      add\n      mload(0x40)\n      swap1\n      dup2\n      add\n      0x40\n      mstore\n      dup1\n      swap3\n      swap2\n      swap1\n      dup2\n      dup2\n      mstore\n      0x20\n      add\n      dup3\n      dup1\n      sload\n      tag_109\n      swap1\n      tag_61\n      jump\t// in\n    tag_109:\n      dup1\n      iszero\n      tag_110\n      jumpi\n      dup1\n      0x1f\n      lt\n      tag_111\n      jumpi\n      0x0100\n      dup1\n      dup4\n      sload\n      div\n      mul\n      dup4\n      mstore\n      swap2\n      0x20\n      add\n      swap2\n      jump(tag_110)\n    tag_111:\n      dup3\n      add\n      swap2\n      swap1\n      0x00\n      mstore\n      keccak256(0x00, 0x20)\n      swap1\n    tag_112:\n      dup2\n      sload\n      dup2\n      mstore\n      swap1\n      0x01\n      add\n      swap1\n      0x20\n      add\n      dup1\n      dup4\n      gt\n      tag_112\n      jumpi\n      dup3\n      swap1\n      sub\n      0x1f\n      and\n      dup3\n      add\n      swap2\n    tag_110:\n      pop\n      pop\n      pop\n      pop\n      pop\n      swap1\n      dup1\n      0x02\n      add\n      dup1\n      sload\n      tag_113\n      swap1\n      tag_61\n      jump\t// in\n    tag_113:\n      dup1\n      0x1f\n      add\n      0x20\n      dup1\n      swap2\n      div\n      mul\n      0x20\n      add\n      mload(0x40)\n      swap1\n      dup2\n      add\n      0x40\n      mstore\n      dup1\n      swap3\n      swap2\n      swap1\n      dup2\n      dup2\n      mstore\n      0x20\n      add\n      dup3\n      dup1\n      sload\n      tag_114\n      swap1\n      tag_61\n      jump\t// in\n    tag_114:\n      dup1\n      iszero\n      tag_115\n      jumpi\n      dup1\n      0x1f\n      lt\n      tag_116\n      jumpi\n      0x0100\n      dup1\n      dup4\n      sload\n      div\n      mul\n      dup4\n      mstore\n      swap2\n      0x20\n      add\n      swap2\n      jump(tag_115)\n    tag_116:\n      dup3\n      add\n      swap2\n      swap1\n      0x00\n      mstore\n      keccak256(0x00, 0x20)\n      swap1\n    tag_117:\n      dup2\n      sload\n      dup2\n      mstore\n      swap1\n      0x01\n      add\n      swap1\n      0x20\n      add\n      dup1\n      dup4\n      gt\n      tag_117\n      jumpi\n      dup3\n      swap1\n      sub\n      0x1f\n      and\n      dup3\n      add\n      swap2\n    tag_115:\n      pop\n      pop\n      pop\n      pop\n      pop\n      swap1\n      dup1\n      0x03\n      add\n      0x00\n      swap1\n      sload\n      swap1\n      0x0100\n      exp\n      swap1\n      div\n      0xff\n      and\n      swap1\n      dup1\n      0x03\n      add\n      0x01\n      swap1\n      sload\n      swap1\n      0x0100\n      exp\n      swap1\n      div\n      0xffffffffffffffffffffffffffffffffffffffff\n      and\n      swap1\n      pop\n      dup6\n      jump\t// out\n        /* \"register.sol\":2031:2493  function registerDetails(string calldata name, uint age) public returns (voter memory) {... */\n    tag_40:\n        /* \"register.sol\":2104:2116  voter memory */\n      tag_118\n      tag_119\n      jump\t// in\n    tag_118:\n        /* \"register.sol\":2142:2144  17 */\n      0x11\n        /* \"register.sol\":2136:2139  age */\n      dup3\n        /* \"register.sol\":2136:2144  age > 17 */\n      gt\n        /* \"register.sol\":2128:2169  require(age > 17, \"not eligible to vote\") */\n      tag_121\n      jumpi\n      mload(0x40)\n      0x08c379a000000000000000000000000000000000000000000000000000000000\n      dup2\n      mstore\n      0x04\n      add\n      tag_122\n      swap1\n      tag_123\n      jump\t// in\n    tag_122:\n      mload(0x40)\n      dup1\n      swap2\n      sub\n      swap1\n      revert\n    tag_121:\n        /* \"register.sol\":2231:2232  0 */\n      0x00\n        /* \"register.sol\":2193:2199  voters */\n      0x03\n        /* \"register.sol\":2193:2211  voters[msg.sender] */\n      0x00\n        /* \"register.sol\":2200:2210  msg.sender */\n      caller\n        /* \"register.sol\":2193:2211  voters[msg.sender] */\n      0xffffffffffffffffffffffffffffffffffffffff\n      and\n      0xffffffffffffffffffffffffffffffffffffffff\n      and\n      dup2\n      mstore\n      0x20\n      add\n      swap1\n      dup2\n      mstore\n      0x20\n      add\n      0x00\n      keccak256\n        /* \"register.sol\":2193:2219  voters[msg.sender].voterID */\n      0x02\n      add\n        /* \"register.sol\":2187:2227  bytes(voters[msg.sender].voterID).length */\n      dup1\n      sload\n      tag_124\n      swap1\n      tag_61\n      jump\t// in\n    tag_124:\n      swap1\n      pop\n        /* \"register.sol\":2187:2232  bytes(voters[msg.sender].voterID).length == 0 */\n      eq\n        /* \"register.sol\":2179:2269  require(bytes(voters[msg.sender].voterID).length == 0, \"This address has been registered\") */\n      tag_125\n      jumpi\n      mload(0x40)\n      0x08c379a000000000000000000000000000000000000000000000000000000000\n      dup2\n      mstore\n      0x04\n      add\n      tag_126\n      swap1\n      tag_127\n      jump\t// in\n    tag_126:\n      mload(0x40)\n      dup1\n      swap2\n      sub\n      swap1\n      revert\n    tag_125:\n        /* \"register.sol\":2280:2301  string memory voterID */\n      0x00\n        /* \"register.sol\":2324:2350  Strings.toString(regCount) */\n      tag_128\n        /* \"register.sol\":2341:2349  regCount */\n      sload(0x02)\n        /* \"register.sol\":2324:2340  Strings.toString */\n      tag_85\n        /* \"register.sol\":2324:2350  Strings.toString(regCount) */\n      jump\t// in\n    tag_128:\n        /* \"register.sol\":2304:2351  string.concat(\"NIG\",Strings.toString(regCount)) */\n      add(0x20, mload(0x40))\n      tag_129\n      swap2\n      swap1\n      tag_130\n      jump\t// in\n    tag_129:\n      mload(0x40)\n      0x20\n      dup2\n      dup4\n      sub\n      sub\n      dup2\n      mstore\n      swap1\n      0x40\n      mstore\n        /* \"register.sol\":2280:2351  string memory voterID = string.concat(\"NIG\",Strings.toString(regCount)) */\n      swap1\n      pop\n        /* \"register.sol\":2383:2426  voter(name, age, voterID,false, msg.sender) */\n      mload(0x40)\n      dup1\n      0xa0\n      add\n      0x40\n      mstore\n      dup1\n        /* \"register.sol\":2389:2393  name */\n      dup7\n      dup7\n        /* \"register.sol\":2383:2426  voter(name, age, voterID,false, msg.sender) */\n      dup1\n      dup1\n      0x1f\n      add\n      0x20\n      dup1\n      swap2\n      div\n      mul\n      0x20\n      add\n      mload(0x40)\n      swap1\n      dup2\n      add\n      0x40\n      mstore\n      dup1\n      swap4\n      swap3\n      swap2\n      swap1\n      dup2\n      dup2\n      mstore\n      0x20\n      add\n      dup4\n      dup4\n      dup1\n      dup3\n      dup5\n      calldatacopy\n      0x00\n      dup2\n      dup5\n      add\n      mstore\n      not(0x1f)\n      0x1f\n      dup3\n      add\n      and\n      swap1\n      pop\n      dup1\n      dup4\n      add\n      swap3\n      pop\n      pop\n      pop\n      pop\n      pop\n      pop\n      pop\n      dup2\n      mstore\n      0x20\n      add\n        /* \"register.sol\":2395:2398  age */\n      dup5\n        /* \"register.sol\":2383:2426  voter(name, age, voterID,false, msg.sender) */\n      dup2\n      mstore\n      0x20\n      add\n        /* \"register.sol\":2400:2407  voterID */\n      dup3\n        /* \"register.sol\":2383:2426  voter(name, age, voterID,false, msg.sender) */\n      dup2\n      mstore\n      0x20\n      add\n        /* \"register.sol\":2408:2413  false */\n      0x00\n        /* \"register.sol\":2383:2426  voter(name, age, voterID,false, msg.sender) */\n      iszero\n      iszero\n      dup2\n      mstore\n      0x20\n      add\n        /* \"register.sol\":2415:2425  msg.sender */\n      caller\n        /* \"register.sol\":2383:2426  voter(name, age, voterID,false, msg.sender) */\n      0xffffffffffffffffffffffffffffffffffffffff\n      and\n      dup2\n      mstore\n      pop\n        /* \"register.sol\":2362:2368  voters */\n      0x03\n        /* \"register.sol\":2362:2380  voters[msg.sender] */\n      0x00\n        /* \"register.sol\":2369:2379  msg.sender */\n      caller\n        /* \"register.sol\":2362:2380  voters[msg.sender] */\n      0xffffffffffffffffffffffffffffffffffffffff\n      and\n      0xffffffffffffffffffffffffffffffffffffffff\n      and\n      dup2\n      mstore\n      0x20\n      add\n      swap1\n      dup2\n      mstore\n      0x20\n      add\n      0x00\n      keccak256\n        /* \"register.sol\":2362:2426  voters[msg.sender] = voter(name, age, voterID,false, msg.sender) */\n      0x00\n      dup3\n      add\n      mload\n      dup2\n      0x00\n      add\n      swap1\n      dup2\n      tag_131\n      swap2\n      swap1\n      tag_89\n      jump\t// in\n    tag_131:\n      pop\n      0x20\n      dup3\n      add\n      mload\n      dup2\n      0x01\n      add\n      sstore\n      0x40\n      dup3\n      add\n      mload\n      dup2\n      0x02\n      add\n      swap1\n      dup2\n      tag_132\n      swap2\n      swap1\n      tag_89\n      jump\t// in\n    tag_132:\n      pop\n      0x60\n      dup3\n      add\n      mload\n      dup2\n      0x03\n      add\n      exp(0x0100, 0x00)\n      dup2\n      sload\n      dup2\n      0xff\n      mul\n      not\n      and\n      swap1\n      dup4\n      iszero\n      iszero\n      mul\n      or\n      swap1\n      sstore\n      pop\n      0x80\n      dup3\n      add\n      mload\n      dup2\n      0x03\n      add\n      exp(0x0100, 0x01)\n      dup2\n      sload\n      dup2\n      0xffffffffffffffffffffffffffffffffffffffff\n      mul\n      not\n      and\n      swap1\n      dup4\n      0xffffffffffffffffffffffffffffffffffffffff\n      and\n      mul\n      or\n      swap1\n      sstore\n      pop\n      swap1\n      pop\n      pop\n        /* \"register.sol\":2449:2450  1 */\n      0x01\n        /* \"register.sol\":2437:2445  regCount */\n      0x02\n      0x00\n        /* \"register.sol\":2437:2450  regCount += 1 */\n      dup3\n      dup3\n      sload\n      tag_133\n      swap2\n      swap1\n      tag_134\n      jump\t// in\n    tag_133:\n      swap3\n      pop\n      pop\n      dup2\n      swap1\n      sstore\n      pop\n        /* \"register.sol\":2468:2474  voters */\n      0x03\n        /* \"register.sol\":2468:2486  voters[msg.sender] */\n      0x00\n        /* \"register.sol\":2475:2485  msg.sender */\n      caller\n        /* \"register.sol\":2468:2486  voters[msg.sender] */\n      0xffffffffffffffffffffffffffffffffffffffff\n      and\n      0xffffffffffffffffffffffffffffffffffffffff\n      and\n      dup2\n      mstore\n      0x20\n      add\n      swap1\n      dup2\n      mstore\n      0x20\n      add\n      0x00\n      keccak256\n        /* \"register.sol\":2461:2486  return voters[msg.sender] */\n      mload(0x40)\n      dup1\n      0xa0\n      add\n      0x40\n      mstore\n      swap1\n      dup2\n      0x00\n      dup3\n      add\n      dup1\n      sload\n      tag_135\n      swap1\n      tag_61\n      jump\t// in\n    tag_135:\n      dup1\n      0x1f\n      add\n      0x20\n      dup1\n      swap2\n      div\n      mul\n      0x20\n      add\n      mload(0x40)\n      swap1\n      dup2\n      add\n      0x40\n      mstore\n      dup1\n      swap3\n      swap2\n      swap1\n      dup2\n      dup2\n      mstore\n      0x20\n      add\n      dup3\n      dup1\n      sload\n      tag_136\n      swap1\n      tag_61\n      jump\t// in\n    tag_136:\n      dup1\n      iszero\n      tag_137\n      jumpi\n      dup1\n      0x1f\n      lt\n      tag_138\n      jumpi\n      0x0100\n      dup1\n      dup4\n      sload\n      div\n      mul\n      dup4\n      mstore\n      swap2\n      0x20\n      add\n      swap2\n      jump(tag_137)\n    tag_138:\n      dup3\n      add\n      swap2\n      swap1\n      0x00\n      mstore\n      keccak256(0x00, 0x20)\n      swap1\n    tag_139:\n      dup2\n      sload\n      dup2\n      mstore\n      swap1\n      0x01\n      add\n      swap1\n      0x20\n      add\n      dup1\n      dup4\n      gt\n      tag_139\n      jumpi\n      dup3\n      swap1\n      sub\n      0x1f\n      and\n      dup3\n      add\n      swap2\n    tag_137:\n      pop\n      pop\n      pop\n      pop\n      pop\n      dup2\n      mstore\n      0x20\n      add\n      0x01\n      dup3\n      add\n      sload\n      dup2\n      mstore\n      0x20\n      add\n      0x02\n      dup3\n      add\n      dup1\n      sload\n      tag_140\n      swap1\n      tag_61\n      jump\t// in\n    tag_140:\n      dup1\n      0x1f\n      add\n      0x20\n      dup1\n      swap2\n      div\n      mul\n      0x20\n      add\n      mload(0x40)\n      swap1\n      dup2\n      add\n      0x40\n      mstore\n      dup1\n      swap3\n      swap2\n      swap1\n      dup2\n      dup2\n      mstore\n      0x20\n      add\n      dup3\n      dup1\n      sload\n      tag_141\n      swap1\n      tag_61\n      jump\t// in\n    tag_141:\n      dup1\n      iszero\n      tag_142\n      jumpi\n      dup1\n      0x1f\n      lt\n      tag_143\n      jumpi\n      0x0100\n      dup1\n      dup4\n      sload\n      div\n      mul\n      dup4\n      mstore\n      swap2\n      0x20\n      add\n      swap2\n      jump(tag_142)\n    tag_143:\n      dup3\n      add\n      swap2\n      swap1\n      0x00\n      mstore\n      keccak256(0x00, 0x20)\n      swap1\n    tag_144:\n      dup2\n      sload\n      dup2\n      mstore\n      swap1\n      0x01\n      add\n      swap1\n      0x20\n      add\n      dup1\n      dup4\n      gt\n      tag_144\n      jumpi\n      dup3\n      swap1\n      sub\n      0x1f\n      and\n      dup3\n      add\n      swap2\n    tag_142:\n      pop\n      pop\n      pop\n      pop\n      pop\n      dup2\n      mstore\n      0x20\n      add\n      0x03\n      dup3\n      add\n      0x00\n      swap1\n      sload\n      swap1\n      0x0100\n      exp\n      swap1\n      div\n      0xff\n      and\n      iszero\n      iszero\n      iszero\n      iszero\n      dup2\n      mstore\n      0x20\n      add\n      0x03\n      dup3\n      add\n      0x01\n      swap1\n      sload\n      swap1\n      0x0100\n      exp\n      swap1\n      div\n      0xffffffffffffffffffffffffffffffffffffffff\n      and\n      0xffffffffffffffffffffffffffffffffffffffff\n      and\n      0xffffffffffffffffffffffffffffffffffffffff\n      and\n      dup2\n      mstore\n      pop\n      pop\n      swap2\n      pop\n      pop\n        /* \"register.sol\":2031:2493  function registerDetails(string calldata name, uint age) public returns (voter memory) {... */\n      swap4\n      swap3\n      pop\n      pop\n      pop\n      jump\t// out\n        /* \"register.sol\":1679:1707  address public contractOwner */\n    tag_44:\n      0x01\n      0x00\n      swap1\n      sload\n      swap1\n      0x0100\n      exp\n      swap1\n      div\n      0xffffffffffffffffffffffffffffffffffffffff\n      and\n      dup2\n      jump\t// out\n        /* \"register.sol\":2500:2612  function confirmApplication() public view returns(bool){... */\n    tag_47:\n        /* \"register.sol\":2550:2554  bool */\n      0x00\n        /* \"register.sol\":2572:2578  voters */\n      0x03\n        /* \"register.sol\":2572:2590  voters[msg.sender] */\n      0x00\n        /* \"register.sol\":2579:2589  msg.sender */\n      caller\n        /* \"register.sol\":2572:2590  voters[msg.sender] */\n      0xffffffffffffffffffffffffffffffffffffffff\n      and\n      0xffffffffffffffffffffffffffffffffffffffff\n      and\n      dup2\n      mstore\n      0x20\n      add\n      swap1\n      dup2\n      mstore\n      0x20\n      add\n      0x00\n      keccak256\n        /* \"register.sol\":2572:2605  voters[msg.sender].canApplyToVote */\n      0x03\n      add\n      0x00\n      swap1\n      sload\n      swap1\n      0x0100\n      exp\n      swap1\n      div\n      0xff\n      and\n        /* \"register.sol\":2565:2605  return voters[msg.sender].canApplyToVote */\n      swap1\n      pop\n        /* \"register.sol\":2500:2612  function confirmApplication() public view returns(bool){... */\n      swap1\n      jump\t// out\n        /* \"register.sol\":3252:3477  function isElectionCoord(string calldata electionID, address cordAddr) public view returns(bool){... */\n    tag_52:\n        /* \"register.sol\":3343:3347  bool */\n      0x00\n        /* \"register.sol\":3458:3468  electionID */\n      dup4\n      dup4\n        /* \"register.sol\":3441:3469  abi.encodePacked(electionID) */\n      add(0x20, mload(0x40))\n      tag_147\n      swap3\n      swap2\n      swap1\n      tag_69\n      jump\t// in\n    tag_147:\n      mload(0x40)\n      0x20\n      dup2\n      dup4\n      sub\n      sub\n      dup2\n      mstore\n      swap1\n      0x40\n      mstore\n        /* \"register.sol\":3431:3470  keccak256(abi.encodePacked(electionID)) */\n      dup1\n      mload\n      swap1\n      0x20\n      add\n      keccak256\n        /* \"register.sol\":3392:3404  coordinators */\n      0x04\n        /* \"register.sol\":3392:3414  coordinators[cordAddr] */\n      0x00\n        /* \"register.sol\":3405:3413  cordAddr */\n      dup5\n        /* \"register.sol\":3392:3414  coordinators[cordAddr] */\n      0xffffffffffffffffffffffffffffffffffffffff\n      and\n      0xffffffffffffffffffffffffffffffffffffffff\n      and\n      dup2\n      mstore\n      0x20\n      add\n      swap1\n      dup2\n      mstore\n      0x20\n      add\n      0x00\n      keccak256\n        /* \"register.sol\":3392:3425  coordinators[cordAddr].electionID */\n      0x02\n      add\n        /* \"register.sol\":3375:3426  abi.encodePacked(coordinators[cordAddr].electionID) */\n      add(0x20, mload(0x40))\n      tag_148\n      swap2\n      swap1\n      tag_71\n      jump\t// in\n    tag_148:\n      mload(0x40)\n      0x20\n      dup2\n      dup4\n      sub\n      sub\n      dup2\n      mstore\n      swap1\n      0x40\n      mstore\n        /* \"register.sol\":3365:3427  keccak256(abi.encodePacked(coordinators[cordAddr].electionID)) */\n      dup1\n      mload\n      swap1\n      0x20\n      add\n      keccak256\n        /* \"register.sol\":3365:3470  keccak256(abi.encodePacked(coordinators[cordAddr].electionID)) == keccak256(abi.encodePacked(electionID)) */\n      eq\n        /* \"register.sol\":3358:3470  return keccak256(abi.encodePacked(coordinators[cordAddr].electionID)) == keccak256(abi.encodePacked(electionID)) */\n      swap1\n      pop\n        /* \"register.sol\":3252:3477  function isElectionCoord(string calldata electionID, address cordAddr) public view returns(bool){... */\n      swap4\n      swap3\n      pop\n      pop\n      pop\n      jump\t// out\n        /* \"register.sol\":2618:2716  function getDetails() public view returns (voter memory){... */\n    tag_55:\n        /* \"register.sol\":2661:2673  voter memory */\n      tag_149\n      tag_119\n      jump\t// in\n    tag_149:\n        /* \"register.sol\":2691:2697  voters */\n      0x03\n        /* \"register.sol\":2691:2709  voters[msg.sender] */\n      0x00\n        /* \"register.sol\":2698:2708  msg.sender */\n      caller\n        /* \"register.sol\":2691:2709  voters[msg.sender] */\n      0xffffffffffffffffffffffffffffffffffffffff\n      and\n      0xffffffffffffffffffffffffffffffffffffffff\n      and\n      dup2\n      mstore\n      0x20\n      add\n      swap1\n      dup2\n      mstore\n      0x20\n      add\n      0x00\n      keccak256\n        /* \"register.sol\":2684:2709  return voters[msg.sender] */\n      mload(0x40)\n      dup1\n      0xa0\n      add\n      0x40\n      mstore\n      swap1\n      dup2\n      0x00\n      dup3\n      add\n      dup1\n      sload\n      tag_151\n      swap1\n      tag_61\n      jump\t// in\n    tag_151:\n      dup1\n      0x1f\n      add\n      0x20\n      dup1\n      swap2\n      div\n      mul\n      0x20\n      add\n      mload(0x40)\n      swap1\n      dup2\n      add\n      0x40\n      mstore\n      dup1\n      swap3\n      swap2\n      swap1\n      dup2\n      dup2\n      mstore\n      0x20\n      add\n      dup3\n      dup1\n      sload\n      tag_152\n      swap1\n      tag_61\n      jump\t// in\n    tag_152:\n      dup1\n      iszero\n      tag_153\n      jumpi\n      dup1\n      0x1f\n      lt\n      tag_154\n      jumpi\n      0x0100\n      dup1\n      dup4\n      sload\n      div\n      mul\n      dup4\n      mstore\n      swap2\n      0x20\n      add\n      swap2\n      jump(tag_153)\n    tag_154:\n      dup3\n      add\n      swap2\n      swap1\n      0x00\n      mstore\n      keccak256(0x00, 0x20)\n      swap1\n    tag_155:\n      dup2\n      sload\n      dup2\n      mstore\n      swap1\n      0x01\n      add\n      swap1\n      0x20\n      add\n      dup1\n      dup4\n      gt\n      tag_155\n      jumpi\n      dup3\n      swap1\n      sub\n      0x1f\n      and\n      dup3\n      add\n      swap2\n    tag_153:\n      pop\n      pop\n      pop\n      pop\n      pop\n      dup2\n      mstore\n      0x20\n      add\n      0x01\n      dup3\n      add\n      sload\n      dup2\n      mstore\n      0x20\n      add\n      0x02\n      dup3\n      add\n      dup1\n      sload\n      tag_156\n      swap1\n      tag_61\n      jump\t// in\n    tag_156:\n      dup1\n      0x1f\n      add\n      0x20\n      dup1\n      swap2\n      div\n      mul\n      0x20\n      add\n      mload(0x40)\n      swap1\n      dup2\n      add\n      0x40\n      mstore\n      dup1\n      swap3\n      swap2\n      swap1\n      dup2\n      dup2\n      mstore\n      0x20\n      add\n      dup3\n      dup1\n      sload\n      tag_157\n      swap1\n      tag_61\n      jump\t// in\n    tag_157:\n      dup1\n      iszero\n      tag_158\n      jumpi\n      dup1\n      0x1f\n      lt\n      tag_159\n      jumpi\n      0x0100\n      dup1\n      dup4\n      sload\n      div\n      mul\n      dup4\n      mstore\n      swap2\n      0x20\n      add\n      swap2\n      jump(tag_158)\n    tag_159:\n      dup3\n      add\n      swap2\n      swap1\n      0x00\n      mstore\n      keccak256(0x00, 0x20)\n      swap1\n    tag_160:\n      dup2\n      sload\n      dup2\n      mstore\n      swap1\n      0x01\n      add\n      swap1\n      0x20\n      add\n      dup1\n      dup4\n      gt\n      tag_160\n      jumpi\n      dup3\n      swap1\n      sub\n      0x1f\n      and\n      dup3\n      add\n      swap2\n    tag_158:\n      pop\n      pop\n      pop\n      pop\n      pop\n      dup2\n      mstore\n      0x20\n      add\n      0x03\n      dup3\n      add\n      0x00\n      swap1\n      sload\n      swap1\n      0x0100\n      exp\n      swap1\n      div\n      0xff\n      and\n      iszero\n      iszero\n      iszero\n      iszero\n      dup2\n      mstore\n      0x20\n      add\n      0x03\n      dup3\n      add\n      0x01\n      swap1\n      sload\n      swap1\n      0x0100\n      exp\n      swap1\n      div\n      0xffffffffffffffffffffffffffffffffffffffff\n      and\n      0xffffffffffffffffffffffffffffffffffffffff\n      and\n      0xffffffffffffffffffffffffffffffffffffffff\n      and\n      dup2\n      mstore\n      pop\n      pop\n      swap1\n      pop\n        /* \"register.sol\":2618:2716  function getDetails() public view returns (voter memory){... */\n      swap1\n      jump\t// out\n        /* \"@openzeppelin/contracts/utils/Strings.sol\":415:1111  function toString(uint256 value) internal pure returns (string memory) {... */\n    tag_85:\n        /* \"@openzeppelin/contracts/utils/Strings.sol\":471:484  string memory */\n      0x60\n        /* \"@openzeppelin/contracts/utils/Strings.sol\":520:534  uint256 length */\n      0x00\n        /* \"@openzeppelin/contracts/utils/Strings.sol\":557:558  1 */\n      0x01\n        /* \"@openzeppelin/contracts/utils/Strings.sol\":537:554  Math.log10(value) */\n      tag_162\n        /* \"@openzeppelin/contracts/utils/Strings.sol\":548:553  value */\n      dup5\n        /* \"@openzeppelin/contracts/utils/Strings.sol\":537:547  Math.log10 */\n      tag_163\n        /* \"@openzeppelin/contracts/utils/Strings.sol\":537:554  Math.log10(value) */\n      jump\t// in\n    tag_162:\n        /* \"@openzeppelin/contracts/utils/Strings.sol\":537:558  Math.log10(value) + 1 */\n      add\n        /* \"@openzeppelin/contracts/utils/Strings.sol\":520:558  uint256 length = Math.log10(value) + 1 */\n      swap1\n      pop\n        /* \"@openzeppelin/contracts/utils/Strings.sol\":572:592  string memory buffer */\n      0x00\n        /* \"@openzeppelin/contracts/utils/Strings.sol\":606:612  length */\n      dup2\n        /* \"@openzeppelin/contracts/utils/Strings.sol\":595:613  new string(length) */\n      0xffffffffffffffff\n      dup2\n      gt\n      iszero\n      tag_164\n      jumpi\n      tag_165\n      tag_166\n      jump\t// in\n    tag_165:\n    tag_164:\n      mload(0x40)\n      swap1\n      dup1\n      dup3\n      mstore\n      dup1\n      0x1f\n      add\n      not(0x1f)\n      and\n      0x20\n      add\n      dup3\n      add\n      0x40\n      mstore\n      dup1\n      iszero\n      tag_167\n      jumpi\n      dup2\n      0x20\n      add\n      0x01\n      dup3\n      mul\n      dup1\n      calldatasize\n      dup4\n      calldatacopy\n      dup1\n      dup3\n      add\n      swap2\n      pop\n      pop\n      swap1\n      pop\n    tag_167:\n      pop\n        /* \"@openzeppelin/contracts/utils/Strings.sol\":572:613  string memory buffer = new string(length) */\n      swap1\n      pop\n        /* \"@openzeppelin/contracts/utils/Strings.sol\":627:638  uint256 ptr */\n      0x00\n        /* \"@openzeppelin/contracts/utils/Strings.sol\":753:759  length */\n      dup3\n        /* \"@openzeppelin/contracts/utils/Strings.sol\":749:751  32 */\n      0x20\n        /* \"@openzeppelin/contracts/utils/Strings.sol\":745:760  add(32, length) */\n      add\n        /* \"@openzeppelin/contracts/utils/Strings.sol\":737:743  buffer */\n      dup3\n        /* \"@openzeppelin/contracts/utils/Strings.sol\":733:761  add(buffer, add(32, length)) */\n      add\n        /* \"@openzeppelin/contracts/utils/Strings.sol\":726:761  ptr := add(buffer, add(32, length)) */\n      swap1\n      pop\n        /* \"@openzeppelin/contracts/utils/Strings.sol\":788:1068  while (true) {... */\n    tag_168:\n        /* \"@openzeppelin/contracts/utils/Strings.sol\":795:799  true */\n      0x01\n        /* \"@openzeppelin/contracts/utils/Strings.sol\":788:1068  while (true) {... */\n      iszero\n      tag_169\n      jumpi\n        /* \"@openzeppelin/contracts/utils/Strings.sol\":819:824  ptr-- */\n      dup1\n      dup1\n      0x01\n      swap1\n      sub\n      swap2\n      pop\n      pop\n        /* \"@openzeppelin/contracts/utils/Strings.sol\":958:966  _SYMBOLS */\n      0x3031323334353637383961626364656600000000000000000000000000000000\n        /* \"@openzeppelin/contracts/utils/Strings.sol\":953:955  10 */\n      0x0a\n        /* \"@openzeppelin/contracts/utils/Strings.sol\":946:951  value */\n      dup7\n        /* \"@openzeppelin/contracts/utils/Strings.sol\":942:956  mod(value, 10) */\n      mod\n        /* \"@openzeppelin/contracts/utils/Strings.sol\":937:967  byte(mod(value, 10), _SYMBOLS) */\n      byte\n        /* \"@openzeppelin/contracts/utils/Strings.sol\":932:935  ptr */\n      dup2\n        /* \"@openzeppelin/contracts/utils/Strings.sol\":924:968  mstore8(ptr, byte(mod(value, 10), _SYMBOLS)) */\n      mstore8\n        /* \"@openzeppelin/contracts/utils/Strings.sol\":1012:1014  10 */\n      0x0a\n        /* \"@openzeppelin/contracts/utils/Strings.sol\":1003:1014  value /= 10 */\n      dup6\n      dup2\n      tag_170\n      jumpi\n      tag_171\n      tag_172\n      jump\t// in\n    tag_171:\n    tag_170:\n      div\n      swap5\n      pop\n        /* \"@openzeppelin/contracts/utils/Strings.sol\":1045:1046  0 */\n      0x00\n        /* \"@openzeppelin/contracts/utils/Strings.sol\":1036:1041  value */\n      dup6\n        /* \"@openzeppelin/contracts/utils/Strings.sol\":1036:1046  value == 0 */\n      sub\n        /* \"@openzeppelin/contracts/utils/Strings.sol\":788:1068  while (true) {... */\n      tag_168\n        /* \"@openzeppelin/contracts/utils/Strings.sol\":1032:1053  if (value == 0) break */\n      jumpi\n        /* \"@openzeppelin/contracts/utils/Strings.sol\":788:1068  while (true) {... */\n    tag_169:\n        /* \"@openzeppelin/contracts/utils/Strings.sol\":1088:1094  buffer */\n      dup2\n        /* \"@openzeppelin/contracts/utils/Strings.sol\":1081:1094  return buffer */\n      swap4\n      pop\n      pop\n      pop\n      pop\n        /* \"@openzeppelin/contracts/utils/Strings.sol\":415:1111  function toString(uint256 value) internal pure returns (string memory) {... */\n      swap2\n      swap1\n      pop\n      jump\t// out\n        /* \"@openzeppelin/contracts/utils/math/Math.sol\":9889:10779  function log10(uint256 value) internal pure returns (uint256) {... */\n    tag_163:\n        /* \"@openzeppelin/contracts/utils/math/Math.sol\":9942:9949  uint256 */\n      0x00\n        /* \"@openzeppelin/contracts/utils/math/Math.sol\":9961:9975  uint256 result */\n      dup1\n        /* \"@openzeppelin/contracts/utils/math/Math.sol\":9978:9979  0 */\n      0x00\n        /* \"@openzeppelin/contracts/utils/math/Math.sol\":9961:9979  uint256 result = 0 */\n      swap1\n      pop\n        /* \"@openzeppelin/contracts/utils/math/Math.sol\":10026:10032  10**64 */\n      0x184f03e93ff9f4daa797ed6e38ed64bf6a1f010000000000000000\n        /* \"@openzeppelin/contracts/utils/math/Math.sol\":10017:10022  value */\n      dup4\n        /* \"@openzeppelin/contracts/utils/math/Math.sol\":10017:10032  value >= 10**64 */\n      lt\n        /* \"@openzeppelin/contracts/utils/math/Math.sol\":10013:10112  if (value >= 10**64) {... */\n      tag_175\n      jumpi\n        /* \"@openzeppelin/contracts/utils/math/Math.sol\":10061:10067  10**64 */\n      0x184f03e93ff9f4daa797ed6e38ed64bf6a1f010000000000000000\n        /* \"@openzeppelin/contracts/utils/math/Math.sol\":10052:10067  value /= 10**64 */\n      dup4\n      dup2\n      tag_176\n      jumpi\n      tag_177\n      tag_172\n      jump\t// in\n    tag_177:\n    tag_176:\n      div\n      swap3\n      pop\n        /* \"@openzeppelin/contracts/utils/math/Math.sol\":10095:10097  64 */\n      0x40\n        /* \"@openzeppelin/contracts/utils/math/Math.sol\":10085:10097  result += 64 */\n      dup2\n      add\n      swap1\n      pop\n        /* \"@openzeppelin/contracts/utils/math/Math.sol\":10013:10112  if (value >= 10**64) {... */\n    tag_175:\n        /* \"@openzeppelin/contracts/utils/math/Math.sol\":10138:10144  10**32 */\n      0x04ee2d6d415b85acef8100000000\n        /* \"@openzeppelin/contracts/utils/math/Math.sol\":10129:10134  value */\n      dup4\n        /* \"@openzeppelin/contracts/utils/math/Math.sol\":10129:10144  value >= 10**32 */\n      lt\n        /* \"@openzeppelin/contracts/utils/math/Math.sol\":10125:10224  if (value >= 10**32) {... */\n      tag_178\n      jumpi\n        /* \"@openzeppelin/contracts/utils/math/Math.sol\":10173:10179  10**32 */\n      0x04ee2d6d415b85acef8100000000\n        /* \"@openzeppelin/contracts/utils/math/Math.sol\":10164:10179  value /= 10**32 */\n      dup4\n      dup2\n      tag_179\n      jumpi\n      tag_180\n      tag_172\n      jump\t// in\n    tag_180:\n    tag_179:\n      div\n      swap3\n      pop\n        /* \"@openzeppelin/contracts/utils/math/Math.sol\":10207:10209  32 */\n      0x20\n        /* \"@openzeppelin/contracts/utils/math/Math.sol\":10197:10209  result += 32 */\n      dup2\n      add\n      swap1\n      pop\n        /* \"@openzeppelin/contracts/utils/math/Math.sol\":10125:10224  if (value >= 10**32) {... */\n    tag_178:\n        /* \"@openzeppelin/contracts/utils/math/Math.sol\":10250:10256  10**16 */\n      0x2386f26fc10000\n        /* \"@openzeppelin/contracts/utils/math/Math.sol\":10241:10246  value */\n      dup4\n        /* \"@openzeppelin/contracts/utils/math/Math.sol\":10241:10256  value >= 10**16 */\n      lt\n        /* \"@openzeppelin/contracts/utils/math/Math.sol\":10237:10336  if (value >= 10**16) {... */\n      tag_181\n      jumpi\n        /* \"@openzeppelin/contracts/utils/math/Math.sol\":10285:10291  10**16 */\n      0x2386f26fc10000\n        /* \"@openzeppelin/contracts/utils/math/Math.sol\":10276:10291  value /= 10**16 */\n      dup4\n      dup2\n      tag_182\n      jumpi\n      tag_183\n      tag_172\n      jump\t// in\n    tag_183:\n    tag_182:\n      div\n      swap3\n      pop\n        /* \"@openzeppelin/contracts/utils/math/Math.sol\":10319:10321  16 */\n      0x10\n        /* \"@openzeppelin/contracts/utils/math/Math.sol\":10309:10321  result += 16 */\n      dup2\n      add\n      swap1\n      pop\n        /* \"@openzeppelin/contracts/utils/math/Math.sol\":10237:10336  if (value >= 10**16) {... */\n    tag_181:\n        /* \"@openzeppelin/contracts/utils/math/Math.sol\":10362:10367  10**8 */\n      0x05f5e100\n        /* \"@openzeppelin/contracts/utils/math/Math.sol\":10353:10358  value */\n      dup4\n        /* \"@openzeppelin/contracts/utils/math/Math.sol\":10353:10367  value >= 10**8 */\n      lt\n        /* \"@openzeppelin/contracts/utils/math/Math.sol\":10349:10445  if (value >= 10**8) {... */\n      tag_184\n      jumpi\n        /* \"@openzeppelin/contracts/utils/math/Math.sol\":10396:10401  10**8 */\n      0x05f5e100\n        /* \"@openzeppelin/contracts/utils/math/Math.sol\":10387:10401  value /= 10**8 */\n      dup4\n      dup2\n      tag_185\n      jumpi\n      tag_186\n      tag_172\n      jump\t// in\n    tag_186:\n    tag_185:\n      div\n      swap3\n      pop\n        /* \"@openzeppelin/contracts/utils/math/Math.sol\":10429:10430  8 */\n      0x08\n        /* \"@openzeppelin/contracts/utils/math/Math.sol\":10419:10430  result += 8 */\n      dup2\n      add\n      swap1\n      pop\n        /* \"@openzeppelin/contracts/utils/math/Math.sol\":10349:10445  if (value >= 10**8) {... */\n    tag_184:\n        /* \"@openzeppelin/contracts/utils/math/Math.sol\":10471:10476  10**4 */\n      0x2710\n        /* \"@openzeppelin/contracts/utils/math/Math.sol\":10462:10467  value */\n      dup4\n        /* \"@openzeppelin/contracts/utils/math/Math.sol\":10462:10476  value >= 10**4 */\n      lt\n        /* \"@openzeppelin/contracts/utils/math/Math.sol\":10458:10554  if (value >= 10**4) {... */\n      tag_187\n      jumpi\n        /* \"@openzeppelin/contracts/utils/math/Math.sol\":10505:10510  10**4 */\n      0x2710\n        /* \"@openzeppelin/contracts/utils/math/Math.sol\":10496:10510  value /= 10**4 */\n      dup4\n      dup2\n      tag_188\n      jumpi\n      tag_189\n      tag_172\n      jump\t// in\n    tag_189:\n    tag_188:\n      div\n      swap3\n      pop\n        /* \"@openzeppelin/contracts/utils/math/Math.sol\":10538:10539  4 */\n      0x04\n        /* \"@openzeppelin/contracts/utils/math/Math.sol\":10528:10539  result += 4 */\n      dup2\n      add\n      swap1\n      pop\n        /* \"@openzeppelin/contracts/utils/math/Math.sol\":10458:10554  if (value >= 10**4) {... */\n    tag_187:\n        /* \"@openzeppelin/contracts/utils/math/Math.sol\":10580:10585  10**2 */\n      0x64\n        /* \"@openzeppelin/contracts/utils/math/Math.sol\":10571:10576  value */\n      dup4\n        /* \"@openzeppelin/contracts/utils/math/Math.sol\":10571:10585  value >= 10**2 */\n      lt\n        /* \"@openzeppelin/contracts/utils/math/Math.sol\":10567:10663  if (value >= 10**2) {... */\n      tag_190\n      jumpi\n        /* \"@openzeppelin/contracts/utils/math/Math.sol\":10614:10619  10**2 */\n      0x64\n        /* \"@openzeppelin/contracts/utils/math/Math.sol\":10605:10619  value /= 10**2 */\n      dup4\n      dup2\n      tag_191\n      jumpi\n      tag_192\n      tag_172\n      jump\t// in\n    tag_192:\n    tag_191:\n      div\n      swap3\n      pop\n        /* \"@openzeppelin/contracts/utils/math/Math.sol\":10647:10648  2 */\n      0x02\n        /* \"@openzeppelin/contracts/utils/math/Math.sol\":10637:10648  result += 2 */\n      dup2\n      add\n      swap1\n      pop\n        /* \"@openzeppelin/contracts/utils/math/Math.sol\":10567:10663  if (value >= 10**2) {... */\n    tag_190:\n        /* \"@openzeppelin/contracts/utils/math/Math.sol\":10689:10694  10**1 */\n      0x0a\n        /* \"@openzeppelin/contracts/utils/math/Math.sol\":10680:10685  value */\n      dup4\n        /* \"@openzeppelin/contracts/utils/math/Math.sol\":10680:10694  value >= 10**1 */\n      lt\n        /* \"@openzeppelin/contracts/utils/math/Math.sol\":10676:10740  if (value >= 10**1) {... */\n      tag_193\n      jumpi\n        /* \"@openzeppelin/contracts/utils/math/Math.sol\":10724:10725  1 */\n      0x01\n        /* \"@openzeppelin/contracts/utils/math/Math.sol\":10714:10725  result += 1 */\n      dup2\n      add\n      swap1\n      pop\n        /* \"@openzeppelin/contracts/utils/math/Math.sol\":10676:10740  if (value >= 10**1) {... */\n    tag_193:\n        /* \"@openzeppelin/contracts/utils/math/Math.sol\":10766:10772  result */\n      dup1\n        /* \"@openzeppelin/contracts/utils/math/Math.sol\":10759:10772  return result */\n      swap2\n      pop\n      pop\n        /* \"@openzeppelin/contracts/utils/math/Math.sol\":9889:10779  function log10(uint256 value) internal pure returns (uint256) {... */\n      swap2\n      swap1\n      pop\n      jump\t// out\n    tag_119:\n      mload(0x40)\n      dup1\n      0xa0\n      add\n      0x40\n      mstore\n      dup1\n      0x60\n      dup2\n      mstore\n      0x20\n      add\n      0x00\n      dup2\n      mstore\n      0x20\n      add\n      0x60\n      dup2\n      mstore\n      0x20\n      add\n      iszero(iszero(0x00))\n      dup2\n      mstore\n      0x20\n      add\n      and(0xffffffffffffffffffffffffffffffffffffffff, 0x00)\n      dup2\n      mstore\n      pop\n      swap1\n      jump\t// out\n        /* \"#utility.yul\":7:133   */\n    tag_194:\n        /* \"#utility.yul\":44:51   */\n      0x00\n        /* \"#utility.yul\":84:126   */\n      0xffffffffffffffffffffffffffffffffffffffff\n        /* \"#utility.yul\":77:82   */\n      dup3\n        /* \"#utility.yul\":73:127   */\n      and\n        /* \"#utility.yul\":62:127   */\n      swap1\n      pop\n        /* \"#utility.yul\":7:133   */\n      swap2\n      swap1\n      pop\n      jump\t// out\n        /* \"#utility.yul\":139:235   */\n    tag_195:\n        /* \"#utility.yul\":176:183   */\n      0x00\n        /* \"#utility.yul\":205:229   */\n      tag_264\n        /* \"#utility.yul\":223:228   */\n      dup3\n        /* \"#utility.yul\":205:229   */\n      tag_194\n      jump\t// in\n    tag_264:\n        /* \"#utility.yul\":194:229   */\n      swap1\n      pop\n        /* \"#utility.yul\":139:235   */\n      swap2\n      swap1\n      pop\n      jump\t// out\n        /* \"#utility.yul\":241:359   */\n    tag_196:\n        /* \"#utility.yul\":328:352   */\n      tag_266\n        /* \"#utility.yul\":346:351   */\n      dup2\n        /* \"#utility.yul\":328:352   */\n      tag_195\n      jump\t// in\n    tag_266:\n        /* \"#utility.yul\":323:326   */\n      dup3\n        /* \"#utility.yul\":316:353   */\n      mstore\n        /* \"#utility.yul\":241:359   */\n      pop\n      pop\n      jump\t// out\n        /* \"#utility.yul\":365:587   */\n    tag_17:\n        /* \"#utility.yul\":458:462   */\n      0x00\n        /* \"#utility.yul\":496:498   */\n      0x20\n        /* \"#utility.yul\":485:494   */\n      dup3\n        /* \"#utility.yul\":481:499   */\n      add\n        /* \"#utility.yul\":473:499   */\n      swap1\n      pop\n        /* \"#utility.yul\":509:580   */\n      tag_268\n        /* \"#utility.yul\":577:578   */\n      0x00\n        /* \"#utility.yul\":566:575   */\n      dup4\n        /* \"#utility.yul\":562:579   */\n      add\n        /* \"#utility.yul\":553:559   */\n      dup5\n        /* \"#utility.yul\":509:580   */\n      tag_196\n      jump\t// in\n    tag_268:\n        /* \"#utility.yul\":365:587   */\n      swap3\n      swap2\n      pop\n      pop\n      jump\t// out\n        /* \"#utility.yul\":674:791   */\n    tag_198:\n        /* \"#utility.yul\":783:784   */\n      0x00\n        /* \"#utility.yul\":780:781   */\n      dup1\n        /* \"#utility.yul\":773:785   */\n      revert\n        /* \"#utility.yul\":797:914   */\n    tag_199:\n        /* \"#utility.yul\":906:907   */\n      0x00\n        /* \"#utility.yul\":903:904   */\n      dup1\n        /* \"#utility.yul\":896:908   */\n      revert\n        /* \"#utility.yul\":920:1037   */\n    tag_200:\n        /* \"#utility.yul\":1029:1030   */\n      0x00\n        /* \"#utility.yul\":1026:1027   */\n      dup1\n        /* \"#utility.yul\":1019:1031   */\n      revert\n        /* \"#utility.yul\":1043:1160   */\n    tag_201:\n        /* \"#utility.yul\":1152:1153   */\n      0x00\n        /* \"#utility.yul\":1149:1150   */\n      dup1\n        /* \"#utility.yul\":1142:1154   */\n      revert\n        /* \"#utility.yul\":1166:1283   */\n    tag_202:\n        /* \"#utility.yul\":1275:1276   */\n      0x00\n        /* \"#utility.yul\":1272:1273   */\n      dup1\n        /* \"#utility.yul\":1265:1277   */\n      revert\n        /* \"#utility.yul\":1303:1856   */\n    tag_203:\n        /* \"#utility.yul\":1361:1369   */\n      0x00\n        /* \"#utility.yul\":1371:1377   */\n      dup1\n        /* \"#utility.yul\":1421:1424   */\n      dup4\n        /* \"#utility.yul\":1414:1418   */\n      0x1f\n        /* \"#utility.yul\":1406:1412   */\n      dup5\n        /* \"#utility.yul\":1402:1419   */\n      add\n        /* \"#utility.yul\":1398:1425   */\n      slt\n        /* \"#utility.yul\":1388:1510   */\n      tag_276\n      jumpi\n        /* \"#utility.yul\":1429:1508   */\n      tag_277\n      tag_200\n      jump\t// in\n    tag_277:\n        /* \"#utility.yul\":1388:1510   */\n    tag_276:\n        /* \"#utility.yul\":1542:1548   */\n      dup3\n        /* \"#utility.yul\":1529:1549   */\n      calldataload\n        /* \"#utility.yul\":1519:1549   */\n      swap1\n      pop\n        /* \"#utility.yul\":1572:1590   */\n      0xffffffffffffffff\n        /* \"#utility.yul\":1564:1570   */\n      dup2\n        /* \"#utility.yul\":1561:1591   */\n      gt\n        /* \"#utility.yul\":1558:1675   */\n      iszero\n      tag_278\n      jumpi\n        /* \"#utility.yul\":1594:1673   */\n      tag_279\n      tag_201\n      jump\t// in\n    tag_279:\n        /* \"#utility.yul\":1558:1675   */\n    tag_278:\n        /* \"#utility.yul\":1708:1712   */\n      0x20\n        /* \"#utility.yul\":1700:1706   */\n      dup4\n        /* \"#utility.yul\":1696:1713   */\n      add\n        /* \"#utility.yul\":1684:1713   */\n      swap2\n      pop\n        /* \"#utility.yul\":1762:1765   */\n      dup4\n        /* \"#utility.yul\":1754:1758   */\n      0x01\n        /* \"#utility.yul\":1746:1752   */\n      dup3\n        /* \"#utility.yul\":1742:1759   */\n      mul\n        /* \"#utility.yul\":1732:1740   */\n      dup4\n        /* \"#utility.yul\":1728:1760   */\n      add\n        /* \"#utility.yul\":1725:1766   */\n      gt\n        /* \"#utility.yul\":1722:1850   */\n      iszero\n      tag_280\n      jumpi\n        /* \"#utility.yul\":1769:1848   */\n      tag_281\n      tag_202\n      jump\t// in\n    tag_281:\n        /* \"#utility.yul\":1722:1850   */\n    tag_280:\n        /* \"#utility.yul\":1303:1856   */\n      swap3\n      pop\n      swap3\n      swap1\n      pop\n      jump\t// out\n        /* \"#utility.yul\":1862:1984   */\n    tag_204:\n        /* \"#utility.yul\":1935:1959   */\n      tag_283\n        /* \"#utility.yul\":1953:1958   */\n      dup2\n        /* \"#utility.yul\":1935:1959   */\n      tag_195\n      jump\t// in\n    tag_283:\n        /* \"#utility.yul\":1928:1933   */\n      dup2\n        /* \"#utility.yul\":1925:1960   */\n      eq\n        /* \"#utility.yul\":1915:1978   */\n      tag_284\n      jumpi\n        /* \"#utility.yul\":1974:1975   */\n      0x00\n        /* \"#utility.yul\":1971:1972   */\n      dup1\n        /* \"#utility.yul\":1964:1976   */\n      revert\n        /* \"#utility.yul\":1915:1978   */\n    tag_284:\n        /* \"#utility.yul\":1862:1984   */\n      pop\n      jump\t// out\n        /* \"#utility.yul\":1990:2129   */\n    tag_205:\n        /* \"#utility.yul\":2036:2041   */\n      0x00\n        /* \"#utility.yul\":2074:2080   */\n      dup2\n        /* \"#utility.yul\":2061:2081   */\n      calldataload\n        /* \"#utility.yul\":2052:2081   */\n      swap1\n      pop\n        /* \"#utility.yul\":2090:2123   */\n      tag_286\n        /* \"#utility.yul\":2117:2122   */\n      dup2\n        /* \"#utility.yul\":2090:2123   */\n      tag_204\n      jump\t// in\n    tag_286:\n        /* \"#utility.yul\":1990:2129   */\n      swap3\n      swap2\n      pop\n      pop\n      jump\t// out\n        /* \"#utility.yul\":2135:2809   */\n    tag_20:\n        /* \"#utility.yul\":2215:2221   */\n      0x00\n        /* \"#utility.yul\":2223:2229   */\n      dup1\n        /* \"#utility.yul\":2231:2237   */\n      0x00\n        /* \"#utility.yul\":2280:2282   */\n      0x40\n        /* \"#utility.yul\":2268:2277   */\n      dup5\n        /* \"#utility.yul\":2259:2266   */\n      dup7\n        /* \"#utility.yul\":2255:2278   */\n      sub\n        /* \"#utility.yul\":2251:2283   */\n      slt\n        /* \"#utility.yul\":2248:2367   */\n      iszero\n      tag_288\n      jumpi\n        /* \"#utility.yul\":2286:2365   */\n      tag_289\n      tag_198\n      jump\t// in\n    tag_289:\n        /* \"#utility.yul\":2248:2367   */\n    tag_288:\n        /* \"#utility.yul\":2434:2435   */\n      0x00\n        /* \"#utility.yul\":2423:2432   */\n      dup5\n        /* \"#utility.yul\":2419:2436   */\n      add\n        /* \"#utility.yul\":2406:2437   */\n      calldataload\n        /* \"#utility.yul\":2464:2482   */\n      0xffffffffffffffff\n        /* \"#utility.yul\":2456:2462   */\n      dup2\n        /* \"#utility.yul\":2453:2483   */\n      gt\n        /* \"#utility.yul\":2450:2567   */\n      iszero\n      tag_290\n      jumpi\n        /* \"#utility.yul\":2486:2565   */\n      tag_291\n      tag_199\n      jump\t// in\n    tag_291:\n        /* \"#utility.yul\":2450:2567   */\n    tag_290:\n        /* \"#utility.yul\":2599:2664   */\n      tag_292\n        /* \"#utility.yul\":2656:2663   */\n      dup7\n        /* \"#utility.yul\":2647:2653   */\n      dup3\n        /* \"#utility.yul\":2636:2645   */\n      dup8\n        /* \"#utility.yul\":2632:2654   */\n      add\n        /* \"#utility.yul\":2599:2664   */\n      tag_203\n      jump\t// in\n    tag_292:\n        /* \"#utility.yul\":2581:2664   */\n      swap4\n      pop\n      swap4\n      pop\n        /* \"#utility.yul\":2377:2674   */\n      pop\n        /* \"#utility.yul\":2713:2715   */\n      0x20\n        /* \"#utility.yul\":2739:2792   */\n      tag_293\n        /* \"#utility.yul\":2784:2791   */\n      dup7\n        /* \"#utility.yul\":2775:2781   */\n      dup3\n        /* \"#utility.yul\":2764:2773   */\n      dup8\n        /* \"#utility.yul\":2760:2782   */\n      add\n        /* \"#utility.yul\":2739:2792   */\n      tag_205\n      jump\t// in\n    tag_293:\n        /* \"#utility.yul\":2729:2792   */\n      swap2\n      pop\n        /* \"#utility.yul\":2684:2802   */\n      pop\n        /* \"#utility.yul\":2135:2809   */\n      swap3\n      pop\n      swap3\n      pop\n      swap3\n      jump\t// out\n        /* \"#utility.yul\":2815:3689   */\n    tag_24:\n        /* \"#utility.yul\":2907:2913   */\n      0x00\n        /* \"#utility.yul\":2915:2921   */\n      dup1\n        /* \"#utility.yul\":2923:2929   */\n      0x00\n        /* \"#utility.yul\":2931:2937   */\n      dup1\n        /* \"#utility.yul\":2980:2982   */\n      0x40\n        /* \"#utility.yul\":2968:2977   */\n      dup6\n        /* \"#utility.yul\":2959:2966   */\n      dup8\n        /* \"#utility.yul\":2955:2978   */\n      sub\n        /* \"#utility.yul\":2951:2983   */\n      slt\n        /* \"#utility.yul\":2948:3067   */\n      iszero\n      tag_295\n      jumpi\n        /* \"#utility.yul\":2986:3065   */\n      tag_296\n      tag_198\n      jump\t// in\n    tag_296:\n        /* \"#utility.yul\":2948:3067   */\n    tag_295:\n        /* \"#utility.yul\":3134:3135   */\n      0x00\n        /* \"#utility.yul\":3123:3132   */\n      dup6\n        /* \"#utility.yul\":3119:3136   */\n      add\n        /* \"#utility.yul\":3106:3137   */\n      calldataload\n        /* \"#utility.yul\":3164:3182   */\n      0xffffffffffffffff\n        /* \"#utility.yul\":3156:3162   */\n      dup2\n        /* \"#utility.yul\":3153:3183   */\n      gt\n        /* \"#utility.yul\":3150:3267   */\n      iszero\n      tag_297\n      jumpi\n        /* \"#utility.yul\":3186:3265   */\n      tag_298\n      tag_199\n      jump\t// in\n    tag_298:\n        /* \"#utility.yul\":3150:3267   */\n    tag_297:\n        /* \"#utility.yul\":3299:3364   */\n      tag_299\n        /* \"#utility.yul\":3356:3363   */\n      dup8\n        /* \"#utility.yul\":3347:3353   */\n      dup3\n        /* \"#utility.yul\":3336:3345   */\n      dup9\n        /* \"#utility.yul\":3332:3354   */\n      add\n        /* \"#utility.yul\":3299:3364   */\n      tag_203\n      jump\t// in\n    tag_299:\n        /* \"#utility.yul\":3281:3364   */\n      swap5\n      pop\n      swap5\n      pop\n        /* \"#utility.yul\":3077:3374   */\n      pop\n        /* \"#utility.yul\":3441:3443   */\n      0x20\n        /* \"#utility.yul\":3430:3439   */\n      dup6\n        /* \"#utility.yul\":3426:3444   */\n      add\n        /* \"#utility.yul\":3413:3445   */\n      calldataload\n        /* \"#utility.yul\":3472:3490   */\n      0xffffffffffffffff\n        /* \"#utility.yul\":3464:3470   */\n      dup2\n        /* \"#utility.yul\":3461:3491   */\n      gt\n        /* \"#utility.yul\":3458:3575   */\n      iszero\n      tag_300\n      jumpi\n        /* \"#utility.yul\":3494:3573   */\n      tag_301\n      tag_199\n      jump\t// in\n    tag_301:\n        /* \"#utility.yul\":3458:3575   */\n    tag_300:\n        /* \"#utility.yul\":3607:3672   */\n      tag_302\n        /* \"#utility.yul\":3664:3671   */\n      dup8\n        /* \"#utility.yul\":3655:3661   */\n      dup3\n        /* \"#utility.yul\":3644:3653   */\n      dup9\n        /* \"#utility.yul\":3640:3662   */\n      add\n        /* \"#utility.yul\":3607:3672   */\n      tag_203\n      jump\t// in\n    tag_302:\n        /* \"#utility.yul\":3589:3672   */\n      swap3\n      pop\n      swap3\n      pop\n        /* \"#utility.yul\":3384:3682   */\n      pop\n        /* \"#utility.yul\":2815:3689   */\n      swap3\n      swap6\n      swap2\n      swap5\n      pop\n      swap3\n      pop\n      jump\t// out\n        /* \"#utility.yul\":3695:4024   */\n    tag_28:\n        /* \"#utility.yul\":3754:3760   */\n      0x00\n        /* \"#utility.yul\":3803:3805   */\n      0x20\n        /* \"#utility.yul\":3791:3800   */\n      dup3\n        /* \"#utility.yul\":3782:3789   */\n      dup5\n        /* \"#utility.yul\":3778:3801   */\n      sub\n        /* \"#utility.yul\":3774:3806   */\n      slt\n        /* \"#utility.yul\":3771:3890   */\n      iszero\n      tag_304\n      jumpi\n        /* \"#utility.yul\":3809:3888   */\n      tag_305\n      tag_198\n      jump\t// in\n    tag_305:\n        /* \"#utility.yul\":3771:3890   */\n    tag_304:\n        /* \"#utility.yul\":3929:3930   */\n      0x00\n        /* \"#utility.yul\":3954:4007   */\n      tag_306\n        /* \"#utility.yul\":3999:4006   */\n      dup5\n        /* \"#utility.yul\":3990:3996   */\n      dup3\n        /* \"#utility.yul\":3979:3988   */\n      dup6\n        /* \"#utility.yul\":3975:3997   */\n      add\n        /* \"#utility.yul\":3954:4007   */\n      tag_205\n      jump\t// in\n    tag_306:\n        /* \"#utility.yul\":3944:4007   */\n      swap2\n      pop\n        /* \"#utility.yul\":3900:4017   */\n      pop\n        /* \"#utility.yul\":3695:4024   */\n      swap3\n      swap2\n      pop\n      pop\n      jump\t// out\n        /* \"#utility.yul\":4030:4129   */\n    tag_206:\n        /* \"#utility.yul\":4082:4088   */\n      0x00\n        /* \"#utility.yul\":4116:4121   */\n      dup2\n        /* \"#utility.yul\":4110:4122   */\n      mload\n        /* \"#utility.yul\":4100:4122   */\n      swap1\n      pop\n        /* \"#utility.yul\":4030:4129   */\n      swap2\n      swap1\n      pop\n      jump\t// out\n        /* \"#utility.yul\":4135:4304   */\n    tag_207:\n        /* \"#utility.yul\":4219:4230   */\n      0x00\n        /* \"#utility.yul\":4253:4259   */\n      dup3\n        /* \"#utility.yul\":4248:4251   */\n      dup3\n        /* \"#utility.yul\":4241:4260   */\n      mstore\n        /* \"#utility.yul\":4293:4297   */\n      0x20\n        /* \"#utility.yul\":4288:4291   */\n      dup3\n        /* \"#utility.yul\":4284:4298   */\n      add\n        /* \"#utility.yul\":4269:4298   */\n      swap1\n      pop\n        /* \"#utility.yul\":4135:4304   */\n      swap3\n      swap2\n      pop\n      pop\n      jump\t// out\n        /* \"#utility.yul\":4310:4556   */\n    tag_208:\n        /* \"#utility.yul\":4391:4392   */\n      0x00\n        /* \"#utility.yul\":4401:4514   */\n    tag_310:\n        /* \"#utility.yul\":4415:4421   */\n      dup4\n        /* \"#utility.yul\":4412:4413   */\n      dup2\n        /* \"#utility.yul\":4409:4422   */\n      lt\n        /* \"#utility.yul\":4401:4514   */\n      iszero\n      tag_312\n      jumpi\n        /* \"#utility.yul\":4500:4501   */\n      dup1\n        /* \"#utility.yul\":4495:4498   */\n      dup3\n        /* \"#utility.yul\":4491:4502   */\n      add\n        /* \"#utility.yul\":4485:4503   */\n      mload\n        /* \"#utility.yul\":4481:4482   */\n      dup2\n        /* \"#utility.yul\":4476:4479   */\n      dup5\n        /* \"#utility.yul\":4472:4483   */\n      add\n        /* \"#utility.yul\":4465:4504   */\n      mstore\n        /* \"#utility.yul\":4437:4439   */\n      0x20\n        /* \"#utility.yul\":4434:4435   */\n      dup2\n        /* \"#utility.yul\":4430:4440   */\n      add\n        /* \"#utility.yul\":4425:4440   */\n      swap1\n      pop\n        /* \"#utility.yul\":4401:4514   */\n      jump(tag_310)\n    tag_312:\n        /* \"#utility.yul\":4548:4549   */\n      0x00\n        /* \"#utility.yul\":4539:4545   */\n      dup5\n        /* \"#utility.yul\":4534:4537   */\n      dup5\n        /* \"#utility.yul\":4530:4546   */\n      add\n        /* \"#utility.yul\":4523:4550   */\n      mstore\n        /* \"#utility.yul\":4372:4556   */\n      pop\n        /* \"#utility.yul\":4310:4556   */\n      pop\n      pop\n      pop\n      jump\t// out\n        /* \"#utility.yul\":4562:4664   */\n    tag_209:\n        /* \"#utility.yul\":4603:4609   */\n      0x00\n        /* \"#utility.yul\":4654:4656   */\n      0x1f\n        /* \"#utility.yul\":4650:4657   */\n      not\n        /* \"#utility.yul\":4645:4647   */\n      0x1f\n        /* \"#utility.yul\":4638:4643   */\n      dup4\n        /* \"#utility.yul\":4634:4648   */\n      add\n        /* \"#utility.yul\":4630:4658   */\n      and\n        /* \"#utility.yul\":4620:4658   */\n      swap1\n      pop\n        /* \"#utility.yul\":4562:4664   */\n      swap2\n      swap1\n      pop\n      jump\t// out\n        /* \"#utility.yul\":4670:5047   */\n    tag_210:\n        /* \"#utility.yul\":4758:4761   */\n      0x00\n        /* \"#utility.yul\":4786:4825   */\n      tag_315\n        /* \"#utility.yul\":4819:4824   */\n      dup3\n        /* \"#utility.yul\":4786:4825   */\n      tag_206\n      jump\t// in\n    tag_315:\n        /* \"#utility.yul\":4841:4912   */\n      tag_316\n        /* \"#utility.yul\":4905:4911   */\n      dup2\n        /* \"#utility.yul\":4900:4903   */\n      dup6\n        /* \"#utility.yul\":4841:4912   */\n      tag_207\n      jump\t// in\n    tag_316:\n        /* \"#utility.yul\":4834:4912   */\n      swap4\n      pop\n        /* \"#utility.yul\":4921:4986   */\n      tag_317\n        /* \"#utility.yul\":4979:4985   */\n      dup2\n        /* \"#utility.yul\":4974:4977   */\n      dup6\n        /* \"#utility.yul\":4967:4971   */\n      0x20\n        /* \"#utility.yul\":4960:4965   */\n      dup7\n        /* \"#utility.yul\":4956:4972   */\n      add\n        /* \"#utility.yul\":4921:4986   */\n      tag_208\n      jump\t// in\n    tag_317:\n        /* \"#utility.yul\":5011:5040   */\n      tag_318\n        /* \"#utility.yul\":5033:5039   */\n      dup2\n        /* \"#utility.yul\":5011:5040   */\n      tag_209\n      jump\t// in\n    tag_318:\n        /* \"#utility.yul\":5006:5009   */\n      dup5\n        /* \"#utility.yul\":5002:5041   */\n      add\n        /* \"#utility.yul\":4995:5041   */\n      swap2\n      pop\n        /* \"#utility.yul\":4762:5047   */\n      pop\n        /* \"#utility.yul\":4670:5047   */\n      swap3\n      swap2\n      pop\n      pop\n      jump\t// out\n        /* \"#utility.yul\":5053:5130   */\n    tag_211:\n        /* \"#utility.yul\":5090:5097   */\n      0x00\n        /* \"#utility.yul\":5119:5124   */\n      dup2\n        /* \"#utility.yul\":5108:5124   */\n      swap1\n      pop\n        /* \"#utility.yul\":5053:5130   */\n      swap2\n      swap1\n      pop\n      jump\t// out\n        /* \"#utility.yul\":5136:5254   */\n    tag_212:\n        /* \"#utility.yul\":5223:5247   */\n      tag_321\n        /* \"#utility.yul\":5241:5246   */\n      dup2\n        /* \"#utility.yul\":5223:5247   */\n      tag_211\n      jump\t// in\n    tag_321:\n        /* \"#utility.yul\":5218:5221   */\n      dup3\n        /* \"#utility.yul\":5211:5248   */\n      mstore\n        /* \"#utility.yul\":5136:5254   */\n      pop\n      pop\n      jump\t// out\n        /* \"#utility.yul\":5260:5350   */\n    tag_213:\n        /* \"#utility.yul\":5294:5301   */\n      0x00\n        /* \"#utility.yul\":5337:5342   */\n      dup2\n        /* \"#utility.yul\":5330:5343   */\n      iszero\n        /* \"#utility.yul\":5323:5344   */\n      iszero\n        /* \"#utility.yul\":5312:5344   */\n      swap1\n      pop\n        /* \"#utility.yul\":5260:5350   */\n      swap2\n      swap1\n      pop\n      jump\t// out\n        /* \"#utility.yul\":5356:5465   */\n    tag_214:\n        /* \"#utility.yul\":5437:5458   */\n      tag_324\n        /* \"#utility.yul\":5452:5457   */\n      dup2\n        /* \"#utility.yul\":5437:5458   */\n      tag_213\n      jump\t// in\n    tag_324:\n        /* \"#utility.yul\":5432:5435   */\n      dup3\n        /* \"#utility.yul\":5425:5459   */\n      mstore\n        /* \"#utility.yul\":5356:5465   */\n      pop\n      pop\n      jump\t// out\n        /* \"#utility.yul\":5471:6305   */\n    tag_31:\n        /* \"#utility.yul\":5710:5714   */\n      0x00\n        /* \"#utility.yul\":5748:5751   */\n      0xa0\n        /* \"#utility.yul\":5737:5746   */\n      dup3\n        /* \"#utility.yul\":5733:5752   */\n      add\n        /* \"#utility.yul\":5725:5752   */\n      swap1\n      pop\n        /* \"#utility.yul\":5798:5807   */\n      dup2\n        /* \"#utility.yul\":5792:5796   */\n      dup2\n        /* \"#utility.yul\":5788:5808   */\n      sub\n        /* \"#utility.yul\":5784:5785   */\n      0x00\n        /* \"#utility.yul\":5773:5782   */\n      dup4\n        /* \"#utility.yul\":5769:5786   */\n      add\n        /* \"#utility.yul\":5762:5809   */\n      mstore\n        /* \"#utility.yul\":5826:5904   */\n      tag_326\n        /* \"#utility.yul\":5899:5903   */\n      dup2\n        /* \"#utility.yul\":5890:5896   */\n      dup9\n        /* \"#utility.yul\":5826:5904   */\n      tag_210\n      jump\t// in\n    tag_326:\n        /* \"#utility.yul\":5818:5904   */\n      swap1\n      pop\n        /* \"#utility.yul\":5914:5986   */\n      tag_327\n        /* \"#utility.yul\":5982:5984   */\n      0x20\n        /* \"#utility.yul\":5971:5980   */\n      dup4\n        /* \"#utility.yul\":5967:5985   */\n      add\n        /* \"#utility.yul\":5958:5964   */\n      dup8\n        /* \"#utility.yul\":5914:5986   */\n      tag_212\n      jump\t// in\n    tag_327:\n        /* \"#utility.yul\":6033:6042   */\n      dup2\n        /* \"#utility.yul\":6027:6031   */\n      dup2\n        /* \"#utility.yul\":6023:6043   */\n      sub\n        /* \"#utility.yul\":6018:6020   */\n      0x40\n        /* \"#utility.yul\":6007:6016   */\n      dup4\n        /* \"#utility.yul\":6003:6021   */\n      add\n        /* \"#utility.yul\":5996:6044   */\n      mstore\n        /* \"#utility.yul\":6061:6139   */\n      tag_328\n        /* \"#utility.yul\":6134:6138   */\n      dup2\n        /* \"#utility.yul\":6125:6131   */\n      dup7\n        /* \"#utility.yul\":6061:6139   */\n      tag_210\n      jump\t// in\n    tag_328:\n        /* \"#utility.yul\":6053:6139   */\n      swap1\n      pop\n        /* \"#utility.yul\":6149:6215   */\n      tag_329\n        /* \"#utility.yul\":6211:6213   */\n      0x60\n        /* \"#utility.yul\":6200:6209   */\n      dup4\n        /* \"#utility.yul\":6196:6214   */\n      add\n        /* \"#utility.yul\":6187:6193   */\n      dup6\n        /* \"#utility.yul\":6149:6215   */\n      tag_214\n      jump\t// in\n    tag_329:\n        /* \"#utility.yul\":6225:6298   */\n      tag_330\n        /* \"#utility.yul\":6293:6296   */\n      0x80\n        /* \"#utility.yul\":6282:6291   */\n      dup4\n        /* \"#utility.yul\":6278:6297   */\n      add\n        /* \"#utility.yul\":6269:6275   */\n      dup5\n        /* \"#utility.yul\":6225:6298   */\n      tag_196\n      jump\t// in\n    tag_330:\n        /* \"#utility.yul\":5471:6305   */\n      swap7\n      swap6\n      pop\n      pop\n      pop\n      pop\n      pop\n      pop\n      jump\t// out\n        /* \"#utility.yul\":6311:7236   */\n    tag_36:\n        /* \"#utility.yul\":6570:6574   */\n      0x00\n        /* \"#utility.yul\":6608:6611   */\n      0xa0\n        /* \"#utility.yul\":6597:6606   */\n      dup3\n        /* \"#utility.yul\":6593:6612   */\n      add\n        /* \"#utility.yul\":6585:6612   */\n      swap1\n      pop\n        /* \"#utility.yul\":6658:6667   */\n      dup2\n        /* \"#utility.yul\":6652:6656   */\n      dup2\n        /* \"#utility.yul\":6648:6668   */\n      sub\n        /* \"#utility.yul\":6644:6645   */\n      0x00\n        /* \"#utility.yul\":6633:6642   */\n      dup4\n        /* \"#utility.yul\":6629:6646   */\n      add\n        /* \"#utility.yul\":6622:6669   */\n      mstore\n        /* \"#utility.yul\":6686:6764   */\n      tag_332\n        /* \"#utility.yul\":6759:6763   */\n      dup2\n        /* \"#utility.yul\":6750:6756   */\n      dup9\n        /* \"#utility.yul\":6686:6764   */\n      tag_210\n      jump\t// in\n    tag_332:\n        /* \"#utility.yul\":6678:6764   */\n      swap1\n      pop\n        /* \"#utility.yul\":6811:6820   */\n      dup2\n        /* \"#utility.yul\":6805:6809   */\n      dup2\n        /* \"#utility.yul\":6801:6821   */\n      sub\n        /* \"#utility.yul\":6796:6798   */\n      0x20\n        /* \"#utility.yul\":6785:6794   */\n      dup4\n        /* \"#utility.yul\":6781:6799   */\n      add\n        /* \"#utility.yul\":6774:6822   */\n      mstore\n        /* \"#utility.yul\":6839:6917   */\n      tag_333\n        /* \"#utility.yul\":6912:6916   */\n      dup2\n        /* \"#utility.yul\":6903:6909   */\n      dup8\n        /* \"#utility.yul\":6839:6917   */\n      tag_210\n      jump\t// in\n    tag_333:\n        /* \"#utility.yul\":6831:6917   */\n      swap1\n      pop\n        /* \"#utility.yul\":6964:6973   */\n      dup2\n        /* \"#utility.yul\":6958:6962   */\n      dup2\n        /* \"#utility.yul\":6954:6974   */\n      sub\n        /* \"#utility.yul\":6949:6951   */\n      0x40\n        /* \"#utility.yul\":6938:6947   */\n      dup4\n        /* \"#utility.yul\":6934:6952   */\n      add\n        /* \"#utility.yul\":6927:6975   */\n      mstore\n        /* \"#utility.yul\":6992:7070   */\n      tag_334\n        /* \"#utility.yul\":7065:7069   */\n      dup2\n        /* \"#utility.yul\":7056:7062   */\n      dup7\n        /* \"#utility.yul\":6992:7070   */\n      tag_210\n      jump\t// in\n    tag_334:\n        /* \"#utility.yul\":6984:7070   */\n      swap1\n      pop\n        /* \"#utility.yul\":7080:7146   */\n      tag_335\n        /* \"#utility.yul\":7142:7144   */\n      0x60\n        /* \"#utility.yul\":7131:7140   */\n      dup4\n        /* \"#utility.yul\":7127:7145   */\n      add\n        /* \"#utility.yul\":7118:7124   */\n      dup6\n        /* \"#utility.yul\":7080:7146   */\n      tag_214\n      jump\t// in\n    tag_335:\n        /* \"#utility.yul\":7156:7229   */\n      tag_336\n        /* \"#utility.yul\":7224:7227   */\n      0x80\n        /* \"#utility.yul\":7213:7222   */\n      dup4\n        /* \"#utility.yul\":7209:7228   */\n      add\n        /* \"#utility.yul\":7200:7206   */\n      dup5\n        /* \"#utility.yul\":7156:7229   */\n      tag_196\n      jump\t// in\n    tag_336:\n        /* \"#utility.yul\":6311:7236   */\n      swap7\n      swap6\n      pop\n      pop\n      pop\n      pop\n      pop\n      pop\n      jump\t// out\n        /* \"#utility.yul\":7242:7364   */\n    tag_215:\n        /* \"#utility.yul\":7315:7339   */\n      tag_338\n        /* \"#utility.yul\":7333:7338   */\n      dup2\n        /* \"#utility.yul\":7315:7339   */\n      tag_211\n      jump\t// in\n    tag_338:\n        /* \"#utility.yul\":7308:7313   */\n      dup2\n        /* \"#utility.yul\":7305:7340   */\n      eq\n        /* \"#utility.yul\":7295:7358   */\n      tag_339\n      jumpi\n        /* \"#utility.yul\":7354:7355   */\n      0x00\n        /* \"#utility.yul\":7351:7352   */\n      dup1\n        /* \"#utility.yul\":7344:7356   */\n      revert\n        /* \"#utility.yul\":7295:7358   */\n    tag_339:\n        /* \"#utility.yul\":7242:7364   */\n      pop\n      jump\t// out\n        /* \"#utility.yul\":7370:7509   */\n    tag_216:\n        /* \"#utility.yul\":7416:7421   */\n      0x00\n        /* \"#utility.yul\":7454:7460   */\n      dup2\n        /* \"#utility.yul\":7441:7461   */\n      calldataload\n        /* \"#utility.yul\":7432:7461   */\n      swap1\n      pop\n        /* \"#utility.yul\":7470:7503   */\n      tag_341\n        /* \"#utility.yul\":7497:7502   */\n      dup2\n        /* \"#utility.yul\":7470:7503   */\n      tag_215\n      jump\t// in\n    tag_341:\n        /* \"#utility.yul\":7370:7509   */\n      swap3\n      swap2\n      pop\n      pop\n      jump\t// out\n        /* \"#utility.yul\":7515:8189   */\n    tag_39:\n        /* \"#utility.yul\":7595:7601   */\n      0x00\n        /* \"#utility.yul\":7603:7609   */\n      dup1\n        /* \"#utility.yul\":7611:7617   */\n      0x00\n        /* \"#utility.yul\":7660:7662   */\n      0x40\n        /* \"#utility.yul\":7648:7657   */\n      dup5\n        /* \"#utility.yul\":7639:7646   */\n      dup7\n        /* \"#utility.yul\":7635:7658   */\n      sub\n        /* \"#utility.yul\":7631:7663   */\n      slt\n        /* \"#utility.yul\":7628:7747   */\n      iszero\n      tag_343\n      jumpi\n        /* \"#utility.yul\":7666:7745   */\n      tag_344\n      tag_198\n      jump\t// in\n    tag_344:\n        /* \"#utility.yul\":7628:7747   */\n    tag_343:\n        /* \"#utility.yul\":7814:7815   */\n      0x00\n        /* \"#utility.yul\":7803:7812   */\n      dup5\n        /* \"#utility.yul\":7799:7816   */\n      add\n        /* \"#utility.yul\":7786:7817   */\n      calldataload\n        /* \"#utility.yul\":7844:7862   */\n      0xffffffffffffffff\n        /* \"#utility.yul\":7836:7842   */\n      dup2\n        /* \"#utility.yul\":7833:7863   */\n      gt\n        /* \"#utility.yul\":7830:7947   */\n      iszero\n      tag_345\n      jumpi\n        /* \"#utility.yul\":7866:7945   */\n      tag_346\n      tag_199\n      jump\t// in\n    tag_346:\n        /* \"#utility.yul\":7830:7947   */\n    tag_345:\n        /* \"#utility.yul\":7979:8044   */\n      tag_347\n        /* \"#utility.yul\":8036:8043   */\n      dup7\n        /* \"#utility.yul\":8027:8033   */\n      dup3\n        /* \"#utility.yul\":8016:8025   */\n      dup8\n        /* \"#utility.yul\":8012:8034   */\n      add\n        /* \"#utility.yul\":7979:8044   */\n      tag_203\n      jump\t// in\n    tag_347:\n        /* \"#utility.yul\":7961:8044   */\n      swap4\n      pop\n      swap4\n      pop\n        /* \"#utility.yul\":7757:8054   */\n      pop\n        /* \"#utility.yul\":8093:8095   */\n      0x20\n        /* \"#utility.yul\":8119:8172   */\n      tag_348\n        /* \"#utility.yul\":8164:8171   */\n      dup7\n        /* \"#utility.yul\":8155:8161   */\n      dup3\n        /* \"#utility.yul\":8144:8153   */\n      dup8\n        /* \"#utility.yul\":8140:8162   */\n      add\n        /* \"#utility.yul\":8119:8172   */\n      tag_216\n      jump\t// in\n    tag_348:\n        /* \"#utility.yul\":8109:8172   */\n      swap2\n      pop\n        /* \"#utility.yul\":8064:8182   */\n      pop\n        /* \"#utility.yul\":7515:8189   */\n      swap3\n      pop\n      swap3\n      pop\n      swap3\n      jump\t// out\n        /* \"#utility.yul\":8195:8354   */\n    tag_217:\n        /* \"#utility.yul\":8269:8280   */\n      0x00\n        /* \"#utility.yul\":8303:8309   */\n      dup3\n        /* \"#utility.yul\":8298:8301   */\n      dup3\n        /* \"#utility.yul\":8291:8310   */\n      mstore\n        /* \"#utility.yul\":8343:8347   */\n      0x20\n        /* \"#utility.yul\":8338:8341   */\n      dup3\n        /* \"#utility.yul\":8334:8348   */\n      add\n        /* \"#utility.yul\":8319:8348   */\n      swap1\n      pop\n        /* \"#utility.yul\":8195:8354   */\n      swap3\n      swap2\n      pop\n      pop\n      jump\t// out\n        /* \"#utility.yul\":8360:8717   */\n    tag_218:\n        /* \"#utility.yul\":8438:8441   */\n      0x00\n        /* \"#utility.yul\":8466:8505   */\n      tag_351\n        /* \"#utility.yul\":8499:8504   */\n      dup3\n        /* \"#utility.yul\":8466:8505   */\n      tag_206\n      jump\t// in\n    tag_351:\n        /* \"#utility.yul\":8521:8582   */\n      tag_352\n        /* \"#utility.yul\":8575:8581   */\n      dup2\n        /* \"#utility.yul\":8570:8573   */\n      dup6\n        /* \"#utility.yul\":8521:8582   */\n      tag_217\n      jump\t// in\n    tag_352:\n        /* \"#utility.yul\":8514:8582   */\n      swap4\n      pop\n        /* \"#utility.yul\":8591:8656   */\n      tag_353\n        /* \"#utility.yul\":8649:8655   */\n      dup2\n        /* \"#utility.yul\":8644:8647   */\n      dup6\n        /* \"#utility.yul\":8637:8641   */\n      0x20\n        /* \"#utility.yul\":8630:8635   */\n      dup7\n        /* \"#utility.yul\":8626:8642   */\n      add\n        /* \"#utility.yul\":8591:8656   */\n      tag_208\n      jump\t// in\n    tag_353:\n        /* \"#utility.yul\":8681:8710   */\n      tag_354\n        /* \"#utility.yul\":8703:8709   */\n      dup2\n        /* \"#utility.yul\":8681:8710   */\n      tag_209\n      jump\t// in\n    tag_354:\n        /* \"#utility.yul\":8676:8679   */\n      dup5\n        /* \"#utility.yul\":8672:8711   */\n      add\n        /* \"#utility.yul\":8665:8711   */\n      swap2\n      pop\n        /* \"#utility.yul\":8442:8717   */\n      pop\n        /* \"#utility.yul\":8360:8717   */\n      swap3\n      swap2\n      pop\n      pop\n      jump\t// out\n        /* \"#utility.yul\":8723:8831   */\n    tag_219:\n        /* \"#utility.yul\":8800:8824   */\n      tag_356\n        /* \"#utility.yul\":8818:8823   */\n      dup2\n        /* \"#utility.yul\":8800:8824   */\n      tag_211\n      jump\t// in\n    tag_356:\n        /* \"#utility.yul\":8795:8798   */\n      dup3\n        /* \"#utility.yul\":8788:8825   */\n      mstore\n        /* \"#utility.yul\":8723:8831   */\n      pop\n      pop\n      jump\t// out\n        /* \"#utility.yul\":8837:8936   */\n    tag_220:\n        /* \"#utility.yul\":8908:8929   */\n      tag_358\n        /* \"#utility.yul\":8923:8928   */\n      dup2\n        /* \"#utility.yul\":8908:8929   */\n      tag_213\n      jump\t// in\n    tag_358:\n        /* \"#utility.yul\":8903:8906   */\n      dup3\n        /* \"#utility.yul\":8896:8930   */\n      mstore\n        /* \"#utility.yul\":8837:8936   */\n      pop\n      pop\n      jump\t// out\n        /* \"#utility.yul\":8942:9050   */\n    tag_221:\n        /* \"#utility.yul\":9019:9043   */\n      tag_360\n        /* \"#utility.yul\":9037:9042   */\n      dup2\n        /* \"#utility.yul\":9019:9043   */\n      tag_195\n      jump\t// in\n    tag_360:\n        /* \"#utility.yul\":9014:9017   */\n      dup3\n        /* \"#utility.yul\":9007:9044   */\n      mstore\n        /* \"#utility.yul\":8942:9050   */\n      pop\n      pop\n      jump\t// out\n        /* \"#utility.yul\":9092:10301   */\n    tag_222:\n        /* \"#utility.yul\":9207:9210   */\n      0x00\n        /* \"#utility.yul\":9243:9247   */\n      0xa0\n        /* \"#utility.yul\":9238:9241   */\n      dup4\n        /* \"#utility.yul\":9234:9248   */\n      add\n        /* \"#utility.yul\":9330:9334   */\n      0x00\n        /* \"#utility.yul\":9323:9328   */\n      dup4\n        /* \"#utility.yul\":9319:9335   */\n      add\n        /* \"#utility.yul\":9313:9336   */\n      mload\n        /* \"#utility.yul\":9383:9386   */\n      dup5\n        /* \"#utility.yul\":9377:9381   */\n      dup3\n        /* \"#utility.yul\":9373:9387   */\n      sub\n        /* \"#utility.yul\":9366:9370   */\n      0x00\n        /* \"#utility.yul\":9361:9364   */\n      dup7\n        /* \"#utility.yul\":9357:9371   */\n      add\n        /* \"#utility.yul\":9350:9388   */\n      mstore\n        /* \"#utility.yul\":9409:9482   */\n      tag_362\n        /* \"#utility.yul\":9477:9481   */\n      dup3\n        /* \"#utility.yul\":9463:9475   */\n      dup3\n        /* \"#utility.yul\":9409:9482   */\n      tag_218\n      jump\t// in\n    tag_362:\n        /* \"#utility.yul\":9401:9482   */\n      swap2\n      pop\n        /* \"#utility.yul\":9258:9493   */\n      pop\n        /* \"#utility.yul\":9574:9578   */\n      0x20\n        /* \"#utility.yul\":9567:9572   */\n      dup4\n        /* \"#utility.yul\":9563:9579   */\n      add\n        /* \"#utility.yul\":9557:9580   */\n      mload\n        /* \"#utility.yul\":9593:9656   */\n      tag_363\n        /* \"#utility.yul\":9650:9654   */\n      0x20\n        /* \"#utility.yul\":9645:9648   */\n      dup7\n        /* \"#utility.yul\":9641:9655   */\n      add\n        /* \"#utility.yul\":9627:9639   */\n      dup3\n        /* \"#utility.yul\":9593:9656   */\n      tag_219\n      jump\t// in\n    tag_363:\n        /* \"#utility.yul\":9503:9666   */\n      pop\n        /* \"#utility.yul\":9751:9755   */\n      0x40\n        /* \"#utility.yul\":9744:9749   */\n      dup4\n        /* \"#utility.yul\":9740:9756   */\n      add\n        /* \"#utility.yul\":9734:9757   */\n      mload\n        /* \"#utility.yul\":9804:9807   */\n      dup5\n        /* \"#utility.yul\":9798:9802   */\n      dup3\n        /* \"#utility.yul\":9794:9808   */\n      sub\n        /* \"#utility.yul\":9787:9791   */\n      0x40\n        /* \"#utility.yul\":9782:9785   */\n      dup7\n        /* \"#utility.yul\":9778:9792   */\n      add\n        /* \"#utility.yul\":9771:9809   */\n      mstore\n        /* \"#utility.yul\":9830:9903   */\n      tag_364\n        /* \"#utility.yul\":9898:9902   */\n      dup3\n        /* \"#utility.yul\":9884:9896   */\n      dup3\n        /* \"#utility.yul\":9830:9903   */\n      tag_218\n      jump\t// in\n    tag_364:\n        /* \"#utility.yul\":9822:9903   */\n      swap2\n      pop\n        /* \"#utility.yul\":9676:9914   */\n      pop\n        /* \"#utility.yul\":10006:10010   */\n      0x60\n        /* \"#utility.yul\":9999:10004   */\n      dup4\n        /* \"#utility.yul\":9995:10011   */\n      add\n        /* \"#utility.yul\":9989:10012   */\n      mload\n        /* \"#utility.yul\":10025:10082   */\n      tag_365\n        /* \"#utility.yul\":10076:10080   */\n      0x60\n        /* \"#utility.yul\":10071:10074   */\n      dup7\n        /* \"#utility.yul\":10067:10081   */\n      add\n        /* \"#utility.yul\":10053:10065   */\n      dup3\n        /* \"#utility.yul\":10025:10082   */\n      tag_220\n      jump\t// in\n    tag_365:\n        /* \"#utility.yul\":9924:10092   */\n      pop\n        /* \"#utility.yul\":10182:10186   */\n      0x80\n        /* \"#utility.yul\":10175:10180   */\n      dup4\n        /* \"#utility.yul\":10171:10187   */\n      add\n        /* \"#utility.yul\":10165:10188   */\n      mload\n        /* \"#utility.yul\":10201:10264   */\n      tag_366\n        /* \"#utility.yul\":10258:10262   */\n      0x80\n        /* \"#utility.yul\":10253:10256   */\n      dup7\n        /* \"#utility.yul\":10249:10263   */\n      add\n        /* \"#utility.yul\":10235:10247   */\n      dup3\n        /* \"#utility.yul\":10201:10264   */\n      tag_221\n      jump\t// in\n    tag_366:\n        /* \"#utility.yul\":10102:10274   */\n      pop\n        /* \"#utility.yul\":10291:10295   */\n      dup1\n        /* \"#utility.yul\":10284:10295   */\n      swap2\n      pop\n        /* \"#utility.yul\":9212:10301   */\n      pop\n        /* \"#utility.yul\":9092:10301   */\n      swap3\n      swap2\n      pop\n      pop\n      jump\t// out\n        /* \"#utility.yul\":10307:10672   */\n    tag_42:\n        /* \"#utility.yul\":10446:10450   */\n      0x00\n        /* \"#utility.yul\":10484:10486   */\n      0x20\n        /* \"#utility.yul\":10473:10482   */\n      dup3\n        /* \"#utility.yul\":10469:10487   */\n      add\n        /* \"#utility.yul\":10461:10487   */\n      swap1\n      pop\n        /* \"#utility.yul\":10533:10542   */\n      dup2\n        /* \"#utility.yul\":10527:10531   */\n      dup2\n        /* \"#utility.yul\":10523:10543   */\n      sub\n        /* \"#utility.yul\":10519:10520   */\n      0x00\n        /* \"#utility.yul\":10508:10517   */\n      dup4\n        /* \"#utility.yul\":10504:10521   */\n      add\n        /* \"#utility.yul\":10497:10544   */\n      mstore\n        /* \"#utility.yul\":10561:10665   */\n      tag_368\n        /* \"#utility.yul\":10660:10664   */\n      dup2\n        /* \"#utility.yul\":10651:10657   */\n      dup5\n        /* \"#utility.yul\":10561:10665   */\n      tag_222\n      jump\t// in\n    tag_368:\n        /* \"#utility.yul\":10553:10665   */\n      swap1\n      pop\n        /* \"#utility.yul\":10307:10672   */\n      swap3\n      swap2\n      pop\n      pop\n      jump\t// out\n        /* \"#utility.yul\":10678:10888   */\n    tag_49:\n        /* \"#utility.yul\":10765:10769   */\n      0x00\n        /* \"#utility.yul\":10803:10805   */\n      0x20\n        /* \"#utility.yul\":10792:10801   */\n      dup3\n        /* \"#utility.yul\":10788:10806   */\n      add\n        /* \"#utility.yul\":10780:10806   */\n      swap1\n      pop\n        /* \"#utility.yul\":10816:10881   */\n      tag_370\n        /* \"#utility.yul\":10878:10879   */\n      0x00\n        /* \"#utility.yul\":10867:10876   */\n      dup4\n        /* \"#utility.yul\":10863:10880   */\n      add\n        /* \"#utility.yul\":10854:10860   */\n      dup5\n        /* \"#utility.yul\":10816:10881   */\n      tag_214\n      jump\t// in\n    tag_370:\n        /* \"#utility.yul\":10678:10888   */\n      swap3\n      swap2\n      pop\n      pop\n      jump\t// out\n        /* \"#utility.yul\":10894:11074   */\n    tag_223:\n        /* \"#utility.yul\":10942:11019   */\n      0x4e487b7100000000000000000000000000000000000000000000000000000000\n        /* \"#utility.yul\":10939:10940   */\n      0x00\n        /* \"#utility.yul\":10932:11020   */\n      mstore\n        /* \"#utility.yul\":11039:11043   */\n      0x22\n        /* \"#utility.yul\":11036:11037   */\n      0x04\n        /* \"#utility.yul\":11029:11044   */\n      mstore\n        /* \"#utility.yul\":11063:11067   */\n      0x24\n        /* \"#utility.yul\":11060:11061   */\n      0x00\n        /* \"#utility.yul\":11053:11068   */\n      revert\n        /* \"#utility.yul\":11080:11400   */\n    tag_61:\n        /* \"#utility.yul\":11124:11130   */\n      0x00\n        /* \"#utility.yul\":11161:11162   */\n      0x02\n        /* \"#utility.yul\":11155:11159   */\n      dup3\n        /* \"#utility.yul\":11151:11163   */\n      div\n        /* \"#utility.yul\":11141:11163   */\n      swap1\n      pop\n        /* \"#utility.yul\":11208:11209   */\n      0x01\n        /* \"#utility.yul\":11202:11206   */\n      dup3\n        /* \"#utility.yul\":11198:11210   */\n      and\n        /* \"#utility.yul\":11229:11247   */\n      dup1\n        /* \"#utility.yul\":11219:11300   */\n      tag_373\n      jumpi\n        /* \"#utility.yul\":11285:11289   */\n      0x7f\n        /* \"#utility.yul\":11277:11283   */\n      dup3\n        /* \"#utility.yul\":11273:11290   */\n      and\n        /* \"#utility.yul\":11263:11290   */\n      swap2\n      pop\n        /* \"#utility.yul\":11219:11300   */\n    tag_373:\n        /* \"#utility.yul\":11347:11349   */\n      0x20\n        /* \"#utility.yul\":11339:11345   */\n      dup3\n        /* \"#utility.yul\":11336:11350   */\n      lt\n        /* \"#utility.yul\":11316:11334   */\n      dup2\n        /* \"#utility.yul\":11313:11351   */\n      sub\n        /* \"#utility.yul\":11310:11394   */\n      tag_374\n      jumpi\n        /* \"#utility.yul\":11366:11384   */\n      tag_375\n      tag_223\n      jump\t// in\n    tag_375:\n        /* \"#utility.yul\":11310:11394   */\n    tag_374:\n        /* \"#utility.yul\":11131:11400   */\n      pop\n        /* \"#utility.yul\":11080:11400   */\n      swap2\n      swap1\n      pop\n      jump\t// out\n        /* \"#utility.yul\":11406:11626   */\n    tag_224:\n        /* \"#utility.yul\":11546:11580   */\n      0x746869732061646472657373206973206e6f74206120636f6f7264696e61746f\n        /* \"#utility.yul\":11542:11543   */\n      0x00\n        /* \"#utility.yul\":11534:11540   */\n      dup3\n        /* \"#utility.yul\":11530:11544   */\n      add\n        /* \"#utility.yul\":11523:11581   */\n      mstore\n        /* \"#utility.yul\":11615:11618   */\n      0x7200000000000000000000000000000000000000000000000000000000000000\n        /* \"#utility.yul\":11610:11612   */\n      0x20\n        /* \"#utility.yul\":11602:11608   */\n      dup3\n        /* \"#utility.yul\":11598:11613   */\n      add\n        /* \"#utility.yul\":11591:11619   */\n      mstore\n        /* \"#utility.yul\":11406:11626   */\n      pop\n      jump\t// out\n        /* \"#utility.yul\":11632:11998   */\n    tag_225:\n        /* \"#utility.yul\":11774:11777   */\n      0x00\n        /* \"#utility.yul\":11795:11862   */\n      tag_378\n        /* \"#utility.yul\":11859:11861   */\n      0x21\n        /* \"#utility.yul\":11854:11857   */\n      dup4\n        /* \"#utility.yul\":11795:11862   */\n      tag_207\n      jump\t// in\n    tag_378:\n        /* \"#utility.yul\":11788:11862   */\n      swap2\n      pop\n        /* \"#utility.yul\":11871:11964   */\n      tag_379\n        /* \"#utility.yul\":11960:11963   */\n      dup3\n        /* \"#utility.yul\":11871:11964   */\n      tag_224\n      jump\t// in\n    tag_379:\n        /* \"#utility.yul\":11989:11991   */\n      0x40\n        /* \"#utility.yul\":11984:11987   */\n      dup3\n        /* \"#utility.yul\":11980:11992   */\n      add\n        /* \"#utility.yul\":11973:11992   */\n      swap1\n      pop\n        /* \"#utility.yul\":11632:11998   */\n      swap2\n      swap1\n      pop\n      jump\t// out\n        /* \"#utility.yul\":12004:12423   */\n    tag_64:\n        /* \"#utility.yul\":12170:12174   */\n      0x00\n        /* \"#utility.yul\":12208:12210   */\n      0x20\n        /* \"#utility.yul\":12197:12206   */\n      dup3\n        /* \"#utility.yul\":12193:12211   */\n      add\n        /* \"#utility.yul\":12185:12211   */\n      swap1\n      pop\n        /* \"#utility.yul\":12257:12266   */\n      dup2\n        /* \"#utility.yul\":12251:12255   */\n      dup2\n        /* \"#utility.yul\":12247:12267   */\n      sub\n        /* \"#utility.yul\":12243:12244   */\n      0x00\n        /* \"#utility.yul\":12232:12241   */\n      dup4\n        /* \"#utility.yul\":12228:12245   */\n      add\n        /* \"#utility.yul\":12221:12268   */\n      mstore\n        /* \"#utility.yul\":12285:12416   */\n      tag_381\n        /* \"#utility.yul\":12411:12415   */\n      dup2\n        /* \"#utility.yul\":12285:12416   */\n      tag_225\n      jump\t// in\n    tag_381:\n        /* \"#utility.yul\":12277:12416   */\n      swap1\n      pop\n        /* \"#utility.yul\":12004:12423   */\n      swap2\n      swap1\n      pop\n      jump\t// out\n        /* \"#utility.yul\":12429:12604   */\n    tag_226:\n        /* \"#utility.yul\":12569:12596   */\n      0x546869732075736572206973206e6f7420616e2061646d696e00000000000000\n        /* \"#utility.yul\":12565:12566   */\n      0x00\n        /* \"#utility.yul\":12557:12563   */\n      dup3\n        /* \"#utility.yul\":12553:12567   */\n      add\n        /* \"#utility.yul\":12546:12597   */\n      mstore\n        /* \"#utility.yul\":12429:12604   */\n      pop\n      jump\t// out\n        /* \"#utility.yul\":12610:12976   */\n    tag_227:\n        /* \"#utility.yul\":12752:12755   */\n      0x00\n        /* \"#utility.yul\":12773:12840   */\n      tag_384\n        /* \"#utility.yul\":12837:12839   */\n      0x19\n        /* \"#utility.yul\":12832:12835   */\n      dup4\n        /* \"#utility.yul\":12773:12840   */\n      tag_207\n      jump\t// in\n    tag_384:\n        /* \"#utility.yul\":12766:12840   */\n      swap2\n      pop\n        /* \"#utility.yul\":12849:12942   */\n      tag_385\n        /* \"#utility.yul\":12938:12941   */\n      dup3\n        /* \"#utility.yul\":12849:12942   */\n      tag_226\n      jump\t// in\n    tag_385:\n        /* \"#utility.yul\":12967:12969   */\n      0x20\n        /* \"#utility.yul\":12962:12965   */\n      dup3\n        /* \"#utility.yul\":12958:12970   */\n      add\n        /* \"#utility.yul\":12951:12970   */\n      swap1\n      pop\n        /* \"#utility.yul\":12610:12976   */\n      swap2\n      swap1\n      pop\n      jump\t// out\n        /* \"#utility.yul\":12982:13401   */\n    tag_67:\n        /* \"#utility.yul\":13148:13152   */\n      0x00\n        /* \"#utility.yul\":13186:13188   */\n      0x20\n        /* \"#utility.yul\":13175:13184   */\n      dup3\n        /* \"#utility.yul\":13171:13189   */\n      add\n        /* \"#utility.yul\":13163:13189   */\n      swap1\n      pop\n        /* \"#utility.yul\":13235:13244   */\n      dup2\n        /* \"#utility.yul\":13229:13233   */\n      dup2\n        /* \"#utility.yul\":13225:13245   */\n      sub\n        /* \"#utility.yul\":13221:13222   */\n      0x00\n        /* \"#utility.yul\":13210:13219   */\n      dup4\n        /* \"#utility.yul\":13206:13223   */\n      add\n        /* \"#utility.yul\":13199:13246   */\n      mstore\n        /* \"#utility.yul\":13263:13394   */\n      tag_387\n        /* \"#utility.yul\":13389:13393   */\n      dup2\n        /* \"#utility.yul\":13263:13394   */\n      tag_227\n      jump\t// in\n    tag_387:\n        /* \"#utility.yul\":13255:13394   */\n      swap1\n      pop\n        /* \"#utility.yul\":12982:13401   */\n      swap2\n      swap1\n      pop\n      jump\t// out\n        /* \"#utility.yul\":13407:13555   */\n    tag_228:\n        /* \"#utility.yul\":13509:13520   */\n      0x00\n        /* \"#utility.yul\":13546:13549   */\n      dup2\n        /* \"#utility.yul\":13531:13549   */\n      swap1\n      pop\n        /* \"#utility.yul\":13407:13555   */\n      swap3\n      swap2\n      pop\n      pop\n      jump\t// out\n        /* \"#utility.yul\":13561:13707   */\n    tag_229:\n        /* \"#utility.yul\":13658:13664   */\n      dup3\n        /* \"#utility.yul\":13653:13656   */\n      dup2\n        /* \"#utility.yul\":13648:13651   */\n      dup4\n        /* \"#utility.yul\":13635:13665   */\n      calldatacopy\n        /* \"#utility.yul\":13699:13700   */\n      0x00\n        /* \"#utility.yul\":13690:13696   */\n      dup4\n        /* \"#utility.yul\":13685:13688   */\n      dup4\n        /* \"#utility.yul\":13681:13697   */\n      add\n        /* \"#utility.yul\":13674:13701   */\n      mstore\n        /* \"#utility.yul\":13561:13707   */\n      pop\n      pop\n      pop\n      jump\t// out\n        /* \"#utility.yul\":13737:14067   */\n    tag_230:\n        /* \"#utility.yul\":13853:13856   */\n      0x00\n        /* \"#utility.yul\":13874:13963   */\n      tag_391\n        /* \"#utility.yul\":13956:13962   */\n      dup4\n        /* \"#utility.yul\":13951:13954   */\n      dup6\n        /* \"#utility.yul\":13874:13963   */\n      tag_228\n      jump\t// in\n    tag_391:\n        /* \"#utility.yul\":13867:13963   */\n      swap4\n      pop\n        /* \"#utility.yul\":13973:14029   */\n      tag_392\n        /* \"#utility.yul\":14022:14028   */\n      dup4\n        /* \"#utility.yul\":14017:14020   */\n      dup6\n        /* \"#utility.yul\":14010:14015   */\n      dup5\n        /* \"#utility.yul\":13973:14029   */\n      tag_229\n      jump\t// in\n    tag_392:\n        /* \"#utility.yul\":14054:14060   */\n      dup3\n        /* \"#utility.yul\":14049:14052   */\n      dup5\n        /* \"#utility.yul\":14045:14061   */\n      add\n        /* \"#utility.yul\":14038:14061   */\n      swap1\n      pop\n        /* \"#utility.yul\":13737:14067   */\n      swap4\n      swap3\n      pop\n      pop\n      pop\n      jump\t// out\n        /* \"#utility.yul\":14073:14368   */\n    tag_69:\n        /* \"#utility.yul\":14215:14218   */\n      0x00\n        /* \"#utility.yul\":14237:14342   */\n      tag_394\n        /* \"#utility.yul\":14338:14341   */\n      dup3\n        /* \"#utility.yul\":14329:14335   */\n      dup5\n        /* \"#utility.yul\":14321:14327   */\n      dup7\n        /* \"#utility.yul\":14237:14342   */\n      tag_230\n      jump\t// in\n    tag_394:\n        /* \"#utility.yul\":14230:14342   */\n      swap2\n      pop\n        /* \"#utility.yul\":14359:14362   */\n      dup2\n        /* \"#utility.yul\":14352:14362   */\n      swap1\n      pop\n        /* \"#utility.yul\":14073:14368   */\n      swap4\n      swap3\n      pop\n      pop\n      pop\n      jump\t// out\n        /* \"#utility.yul\":14374:14515   */\n    tag_231:\n        /* \"#utility.yul\":14423:14427   */\n      0x00\n        /* \"#utility.yul\":14446:14449   */\n      dup2\n        /* \"#utility.yul\":14438:14449   */\n      swap1\n      pop\n        /* \"#utility.yul\":14469:14472   */\n      dup2\n        /* \"#utility.yul\":14466:14467   */\n      0x00\n        /* \"#utility.yul\":14459:14473   */\n      mstore\n        /* \"#utility.yul\":14503:14507   */\n      0x20\n        /* \"#utility.yul\":14500:14501   */\n      0x00\n        /* \"#utility.yul\":14490:14508   */\n      keccak256\n        /* \"#utility.yul\":14482:14508   */\n      swap1\n      pop\n        /* \"#utility.yul\":14374:14515   */\n      swap2\n      swap1\n      pop\n      jump\t// out\n        /* \"#utility.yul\":14545:15419   */\n    tag_232:\n        /* \"#utility.yul\":14648:14651   */\n      0x00\n        /* \"#utility.yul\":14685:14690   */\n      dup2\n        /* \"#utility.yul\":14679:14691   */\n      sload\n        /* \"#utility.yul\":14714:14750   */\n      tag_397\n        /* \"#utility.yul\":14740:14749   */\n      dup2\n        /* \"#utility.yul\":14714:14750   */\n      tag_61\n      jump\t// in\n    tag_397:\n        /* \"#utility.yul\":14766:14855   */\n      tag_398\n        /* \"#utility.yul\":14848:14854   */\n      dup2\n        /* \"#utility.yul\":14843:14846   */\n      dup7\n        /* \"#utility.yul\":14766:14855   */\n      tag_228\n      jump\t// in\n    tag_398:\n        /* \"#utility.yul\":14759:14855   */\n      swap5\n      pop\n        /* \"#utility.yul\":14886:14887   */\n      0x01\n        /* \"#utility.yul\":14875:14884   */\n      dup3\n        /* \"#utility.yul\":14871:14888   */\n      and\n        /* \"#utility.yul\":14902:14903   */\n      0x00\n        /* \"#utility.yul\":14897:15063   */\n      dup2\n      eq\n      tag_400\n      jumpi\n        /* \"#utility.yul\":15077:15078   */\n      0x01\n        /* \"#utility.yul\":15072:15413   */\n      dup2\n      eq\n      tag_401\n      jumpi\n        /* \"#utility.yul\":14864:15413   */\n      jump(tag_399)\n        /* \"#utility.yul\":14897:15063   */\n    tag_400:\n        /* \"#utility.yul\":14981:14985   */\n      0xff\n        /* \"#utility.yul\":14977:14986   */\n      not\n        /* \"#utility.yul\":14966:14975   */\n      dup4\n        /* \"#utility.yul\":14962:14987   */\n      and\n        /* \"#utility.yul\":14957:14960   */\n      dup7\n        /* \"#utility.yul\":14950:14988   */\n      mstore\n        /* \"#utility.yul\":15043:15049   */\n      dup2\n        /* \"#utility.yul\":15036:15050   */\n      iszero\n        /* \"#utility.yul\":15029:15051   */\n      iszero\n        /* \"#utility.yul\":15021:15027   */\n      dup3\n        /* \"#utility.yul\":15017:15052   */\n      mul\n        /* \"#utility.yul\":15012:15015   */\n      dup7\n        /* \"#utility.yul\":15008:15053   */\n      add\n        /* \"#utility.yul\":15001:15053   */\n      swap4\n      pop\n        /* \"#utility.yul\":14897:15063   */\n      jump(tag_399)\n        /* \"#utility.yul\":15072:15413   */\n    tag_401:\n        /* \"#utility.yul\":15139:15177   */\n      tag_402\n        /* \"#utility.yul\":15171:15176   */\n      dup6\n        /* \"#utility.yul\":15139:15177   */\n      tag_231\n      jump\t// in\n    tag_402:\n        /* \"#utility.yul\":15199:15200   */\n      0x00\n        /* \"#utility.yul\":15213:15367   */\n    tag_403:\n        /* \"#utility.yul\":15227:15233   */\n      dup4\n        /* \"#utility.yul\":15224:15225   */\n      dup2\n        /* \"#utility.yul\":15221:15234   */\n      lt\n        /* \"#utility.yul\":15213:15367   */\n      iszero\n      tag_405\n      jumpi\n        /* \"#utility.yul\":15301:15308   */\n      dup2\n        /* \"#utility.yul\":15295:15309   */\n      sload\n        /* \"#utility.yul\":15291:15292   */\n      dup2\n        /* \"#utility.yul\":15286:15289   */\n      dup10\n        /* \"#utility.yul\":15282:15293   */\n      add\n        /* \"#utility.yul\":15275:15310   */\n      mstore\n        /* \"#utility.yul\":15351:15352   */\n      0x01\n        /* \"#utility.yul\":15342:15349   */\n      dup3\n        /* \"#utility.yul\":15338:15353   */\n      add\n        /* \"#utility.yul\":15327:15353   */\n      swap2\n      pop\n        /* \"#utility.yul\":15249:15253   */\n      0x20\n        /* \"#utility.yul\":15246:15247   */\n      dup2\n        /* \"#utility.yul\":15242:15254   */\n      add\n        /* \"#utility.yul\":15237:15254   */\n      swap1\n      pop\n        /* \"#utility.yul\":15213:15367   */\n      jump(tag_403)\n    tag_405:\n        /* \"#utility.yul\":15396:15402   */\n      dup4\n        /* \"#utility.yul\":15391:15394   */\n      dup9\n        /* \"#utility.yul\":15387:15403   */\n      add\n        /* \"#utility.yul\":15380:15403   */\n      swap6\n      pop\n        /* \"#utility.yul\":15079:15413   */\n      pop\n      pop\n        /* \"#utility.yul\":14864:15413   */\n    tag_399:\n      pop\n        /* \"#utility.yul\":14652:15419   */\n      pop\n      pop\n        /* \"#utility.yul\":14545:15419   */\n      swap3\n      swap2\n      pop\n      pop\n      jump\t// out\n        /* \"#utility.yul\":15425:15694   */\n    tag_71:\n        /* \"#utility.yul\":15554:15557   */\n      0x00\n        /* \"#utility.yul\":15576:15668   */\n      tag_407\n        /* \"#utility.yul\":15664:15667   */\n      dup3\n        /* \"#utility.yul\":15655:15661   */\n      dup5\n        /* \"#utility.yul\":15576:15668   */\n      tag_232\n      jump\t// in\n    tag_407:\n        /* \"#utility.yul\":15569:15668   */\n      swap2\n      pop\n        /* \"#utility.yul\":15685:15688   */\n      dup2\n        /* \"#utility.yul\":15678:15688   */\n      swap1\n      pop\n        /* \"#utility.yul\":15425:15694   */\n      swap3\n      swap2\n      pop\n      pop\n      jump\t// out\n        /* \"#utility.yul\":15700:15930   */\n    tag_233:\n        /* \"#utility.yul\":15840:15874   */\n      0x546869732075736572206861732061646d696e2072696768747320746f207468\n        /* \"#utility.yul\":15836:15837   */\n      0x00\n        /* \"#utility.yul\":15828:15834   */\n      dup3\n        /* \"#utility.yul\":15824:15838   */\n      add\n        /* \"#utility.yul\":15817:15875   */\n      mstore\n        /* \"#utility.yul\":15909:15922   */\n      0x697320656c656374696f6e000000000000000000000000000000000000000000\n        /* \"#utility.yul\":15904:15906   */\n      0x20\n        /* \"#utility.yul\":15896:15902   */\n      dup3\n        /* \"#utility.yul\":15892:15907   */\n      add\n        /* \"#utility.yul\":15885:15923   */\n      mstore\n        /* \"#utility.yul\":15700:15930   */\n      pop\n      jump\t// out\n        /* \"#utility.yul\":15936:16302   */\n    tag_234:\n        /* \"#utility.yul\":16078:16081   */\n      0x00\n        /* \"#utility.yul\":16099:16166   */\n      tag_410\n        /* \"#utility.yul\":16163:16165   */\n      0x2b\n        /* \"#utility.yul\":16158:16161   */\n      dup4\n        /* \"#utility.yul\":16099:16166   */\n      tag_207\n      jump\t// in\n    tag_410:\n        /* \"#utility.yul\":16092:16166   */\n      swap2\n      pop\n        /* \"#utility.yul\":16175:16268   */\n      tag_411\n        /* \"#utility.yul\":16264:16267   */\n      dup3\n        /* \"#utility.yul\":16175:16268   */\n      tag_233\n      jump\t// in\n    tag_411:\n        /* \"#utility.yul\":16293:16295   */\n      0x40\n        /* \"#utility.yul\":16288:16291   */\n      dup3\n        /* \"#utility.yul\":16284:16296   */\n      add\n        /* \"#utility.yul\":16277:16296   */\n      swap1\n      pop\n        /* \"#utility.yul\":15936:16302   */\n      swap2\n      swap1\n      pop\n      jump\t// out\n        /* \"#utility.yul\":16308:16727   */\n    tag_74:\n        /* \"#utility.yul\":16474:16478   */\n      0x00\n        /* \"#utility.yul\":16512:16514   */\n      0x20\n        /* \"#utility.yul\":16501:16510   */\n      dup3\n        /* \"#utility.yul\":16497:16515   */\n      add\n        /* \"#utility.yul\":16489:16515   */\n      swap1\n      pop\n        /* \"#utility.yul\":16561:16570   */\n      dup2\n        /* \"#utility.yul\":16555:16559   */\n      dup2\n        /* \"#utility.yul\":16551:16571   */\n      sub\n        /* \"#utility.yul\":16547:16548   */\n      0x00\n        /* \"#utility.yul\":16536:16545   */\n      dup4\n        /* \"#utility.yul\":16532:16549   */\n      add\n        /* \"#utility.yul\":16525:16572   */\n      mstore\n        /* \"#utility.yul\":16589:16720   */\n      tag_413\n        /* \"#utility.yul\":16715:16719   */\n      dup2\n        /* \"#utility.yul\":16589:16720   */\n      tag_234\n      jump\t// in\n    tag_413:\n        /* \"#utility.yul\":16581:16720   */\n      swap1\n      pop\n        /* \"#utility.yul\":16308:16727   */\n      swap2\n      swap1\n      pop\n      jump\t// out\n        /* \"#utility.yul\":16733:16907   */\n    tag_235:\n        /* \"#utility.yul\":16873:16899   */\n      0x54686973206164647265737320697320616e2061646d696e0000000000000000\n        /* \"#utility.yul\":16869:16870   */\n      0x00\n        /* \"#utility.yul\":16861:16867   */\n      dup3\n        /* \"#utility.yul\":16857:16871   */\n      add\n        /* \"#utility.yul\":16850:16900   */\n      mstore\n        /* \"#utility.yul\":16733:16907   */\n      pop\n      jump\t// out\n        /* \"#utility.yul\":16913:17279   */\n    tag_236:\n        /* \"#utility.yul\":17055:17058   */\n      0x00\n        /* \"#utility.yul\":17076:17143   */\n      tag_416\n        /* \"#utility.yul\":17140:17142   */\n      0x18\n        /* \"#utility.yul\":17135:17138   */\n      dup4\n        /* \"#utility.yul\":17076:17143   */\n      tag_207\n      jump\t// in\n    tag_416:\n        /* \"#utility.yul\":17069:17143   */\n      swap2\n      pop\n        /* \"#utility.yul\":17152:17245   */\n      tag_417\n        /* \"#utility.yul\":17241:17244   */\n      dup3\n        /* \"#utility.yul\":17152:17245   */\n      tag_235\n      jump\t// in\n    tag_417:\n        /* \"#utility.yul\":17270:17272   */\n      0x20\n        /* \"#utility.yul\":17265:17268   */\n      dup3\n        /* \"#utility.yul\":17261:17273   */\n      add\n        /* \"#utility.yul\":17254:17273   */\n      swap1\n      pop\n        /* \"#utility.yul\":16913:17279   */\n      swap2\n      swap1\n      pop\n      jump\t// out\n        /* \"#utility.yul\":17285:17704   */\n    tag_79:\n        /* \"#utility.yul\":17451:17455   */\n      0x00\n        /* \"#utility.yul\":17489:17491   */\n      0x20\n        /* \"#utility.yul\":17478:17487   */\n      dup3\n        /* \"#utility.yul\":17474:17492   */\n      add\n        /* \"#utility.yul\":17466:17492   */\n      swap1\n      pop\n        /* \"#utility.yul\":17538:17547   */\n      dup2\n        /* \"#utility.yul\":17532:17536   */\n      dup2\n        /* \"#utility.yul\":17528:17548   */\n      sub\n        /* \"#utility.yul\":17524:17525   */\n      0x00\n        /* \"#utility.yul\":17513:17522   */\n      dup4\n        /* \"#utility.yul\":17509:17526   */\n      add\n        /* \"#utility.yul\":17502:17549   */\n      mstore\n        /* \"#utility.yul\":17566:17697   */\n      tag_419\n        /* \"#utility.yul\":17692:17696   */\n      dup2\n        /* \"#utility.yul\":17566:17697   */\n      tag_236\n      jump\t// in\n    tag_419:\n        /* \"#utility.yul\":17558:17697   */\n      swap1\n      pop\n        /* \"#utility.yul\":17285:17704   */\n      swap2\n      swap1\n      pop\n      jump\t// out\n        /* \"#utility.yul\":17710:17958   */\n    tag_237:\n        /* \"#utility.yul\":17850:17884   */\n      0x54686973206164647265737320686173206d6f74206265656e20726567697374\n        /* \"#utility.yul\":17846:17847   */\n      0x00\n        /* \"#utility.yul\":17838:17844   */\n      dup3\n        /* \"#utility.yul\":17834:17848   */\n      add\n        /* \"#utility.yul\":17827:17885   */\n      mstore\n        /* \"#utility.yul\":17919:17950   */\n      0x6572656420696e2074686520656c6563746f72616c2070726f63657373000000\n        /* \"#utility.yul\":17914:17916   */\n      0x20\n        /* \"#utility.yul\":17906:17912   */\n      dup3\n        /* \"#utility.yul\":17902:17917   */\n      add\n        /* \"#utility.yul\":17895:17951   */\n      mstore\n        /* \"#utility.yul\":17710:17958   */\n      pop\n      jump\t// out\n        /* \"#utility.yul\":17964:18330   */\n    tag_238:\n        /* \"#utility.yul\":18106:18109   */\n      0x00\n        /* \"#utility.yul\":18127:18194   */\n      tag_422\n        /* \"#utility.yul\":18191:18193   */\n      0x3d\n        /* \"#utility.yul\":18186:18189   */\n      dup4\n        /* \"#utility.yul\":18127:18194   */\n      tag_207\n      jump\t// in\n    tag_422:\n        /* \"#utility.yul\":18120:18194   */\n      swap2\n      pop\n        /* \"#utility.yul\":18203:18296   */\n      tag_423\n        /* \"#utility.yul\":18292:18295   */\n      dup3\n        /* \"#utility.yul\":18203:18296   */\n      tag_237\n      jump\t// in\n    tag_423:\n        /* \"#utility.yul\":18321:18323   */\n      0x40\n        /* \"#utility.yul\":18316:18319   */\n      dup3\n        /* \"#utility.yul\":18312:18324   */\n      add\n        /* \"#utility.yul\":18305:18324   */\n      swap1\n      pop\n        /* \"#utility.yul\":17964:18330   */\n      swap2\n      swap1\n      pop\n      jump\t// out\n        /* \"#utility.yul\":18336:18755   */\n    tag_83:\n        /* \"#utility.yul\":18502:18506   */\n      0x00\n        /* \"#utility.yul\":18540:18542   */\n      0x20\n        /* \"#utility.yul\":18529:18538   */\n      dup3\n        /* \"#utility.yul\":18525:18543   */\n      add\n        /* \"#utility.yul\":18517:18543   */\n      swap1\n      pop\n        /* \"#utility.yul\":18589:18598   */\n      dup2\n        /* \"#utility.yul\":18583:18587   */\n      dup2\n        /* \"#utility.yul\":18579:18599   */\n      sub\n        /* \"#utility.yul\":18575:18576   */\n      0x00\n        /* \"#utility.yul\":18564:18573   */\n      dup4\n        /* \"#utility.yul\":18560:18577   */\n      add\n        /* \"#utility.yul\":18553:18600   */\n      mstore\n        /* \"#utility.yul\":18617:18748   */\n      tag_425\n        /* \"#utility.yul\":18743:18747   */\n      dup2\n        /* \"#utility.yul\":18617:18748   */\n      tag_238\n      jump\t// in\n    tag_425:\n        /* \"#utility.yul\":18609:18748   */\n      swap1\n      pop\n        /* \"#utility.yul\":18336:18755   */\n      swap2\n      swap1\n      pop\n      jump\t// out\n        /* \"#utility.yul\":18761:18941   */\n    tag_239:\n        /* \"#utility.yul\":18929:18934   */\n      0x434f440000000000000000000000000000000000000000000000000000000000\n        /* \"#utility.yul\":18924:18927   */\n      dup2\n        /* \"#utility.yul\":18917:18935   */\n      mstore\n        /* \"#utility.yul\":18761:18941   */\n      pop\n      jump\t// out\n        /* \"#utility.yul\":18947:19337   */\n    tag_240:\n        /* \"#utility.yul\":19053:19056   */\n      0x00\n        /* \"#utility.yul\":19081:19120   */\n      tag_428\n        /* \"#utility.yul\":19114:19119   */\n      dup3\n        /* \"#utility.yul\":19081:19120   */\n      tag_206\n      jump\t// in\n    tag_428:\n        /* \"#utility.yul\":19136:19225   */\n      tag_429\n        /* \"#utility.yul\":19218:19224   */\n      dup2\n        /* \"#utility.yul\":19213:19216   */\n      dup6\n        /* \"#utility.yul\":19136:19225   */\n      tag_228\n      jump\t// in\n    tag_429:\n        /* \"#utility.yul\":19129:19225   */\n      swap4\n      pop\n        /* \"#utility.yul\":19234:19299   */\n      tag_430\n        /* \"#utility.yul\":19292:19298   */\n      dup2\n        /* \"#utility.yul\":19287:19290   */\n      dup6\n        /* \"#utility.yul\":19280:19284   */\n      0x20\n        /* \"#utility.yul\":19273:19278   */\n      dup7\n        /* \"#utility.yul\":19269:19285   */\n      add\n        /* \"#utility.yul\":19234:19299   */\n      tag_208\n      jump\t// in\n    tag_430:\n        /* \"#utility.yul\":19324:19330   */\n      dup1\n        /* \"#utility.yul\":19319:19322   */\n      dup5\n        /* \"#utility.yul\":19315:19331   */\n      add\n        /* \"#utility.yul\":19308:19331   */\n      swap2\n      pop\n        /* \"#utility.yul\":19057:19337   */\n      pop\n        /* \"#utility.yul\":18947:19337   */\n      swap3\n      swap2\n      pop\n      pop\n      jump\t// out\n        /* \"#utility.yul\":19343:19882   */\n    tag_87:\n        /* \"#utility.yul\":19565:19568   */\n      0x00\n        /* \"#utility.yul\":19580:19717   */\n      tag_432\n        /* \"#utility.yul\":19713:19716   */\n      dup3\n        /* \"#utility.yul\":19580:19717   */\n      tag_239\n      jump\t// in\n    tag_432:\n        /* \"#utility.yul\":19742:19743   */\n      0x03\n        /* \"#utility.yul\":19737:19740   */\n      dup3\n        /* \"#utility.yul\":19733:19744   */\n      add\n        /* \"#utility.yul\":19726:19744   */\n      swap2\n      pop\n        /* \"#utility.yul\":19761:19856   */\n      tag_433\n        /* \"#utility.yul\":19852:19855   */\n      dup3\n        /* \"#utility.yul\":19843:19849   */\n      dup5\n        /* \"#utility.yul\":19761:19856   */\n      tag_240\n      jump\t// in\n    tag_433:\n        /* \"#utility.yul\":19754:19856   */\n      swap2\n      pop\n        /* \"#utility.yul\":19873:19876   */\n      dup2\n        /* \"#utility.yul\":19866:19876   */\n      swap1\n      pop\n        /* \"#utility.yul\":19343:19882   */\n      swap3\n      swap2\n      pop\n      pop\n      jump\t// out\n        /* \"#utility.yul\":19888:20068   */\n    tag_166:\n        /* \"#utility.yul\":19936:20013   */\n      0x4e487b7100000000000000000000000000000000000000000000000000000000\n        /* \"#utility.yul\":19933:19934   */\n      0x00\n        /* \"#utility.yul\":19926:20014   */\n      mstore\n        /* \"#utility.yul\":20033:20037   */\n      0x41\n        /* \"#utility.yul\":20030:20031   */\n      0x04\n        /* \"#utility.yul\":20023:20038   */\n      mstore\n        /* \"#utility.yul\":20057:20061   */\n      0x24\n        /* \"#utility.yul\":20054:20055   */\n      0x00\n        /* \"#utility.yul\":20047:20062   */\n      revert\n        /* \"#utility.yul\":20074:20167   */\n    tag_241:\n        /* \"#utility.yul\":20111:20117   */\n      0x00\n        /* \"#utility.yul\":20158:20160   */\n      0x20\n        /* \"#utility.yul\":20153:20155   */\n      0x1f\n        /* \"#utility.yul\":20146:20151   */\n      dup4\n        /* \"#utility.yul\":20142:20156   */\n      add\n        /* \"#utility.yul\":20138:20161   */\n      div\n        /* \"#utility.yul\":20128:20161   */\n      swap1\n      pop\n        /* \"#utility.yul\":20074:20167   */\n      swap2\n      swap1\n      pop\n      jump\t// out\n        /* \"#utility.yul\":20173:20280   */\n    tag_242:\n        /* \"#utility.yul\":20217:20225   */\n      0x00\n        /* \"#utility.yul\":20267:20272   */\n      dup3\n        /* \"#utility.yul\":20261:20265   */\n      dup3\n        /* \"#utility.yul\":20257:20273   */\n      shl\n        /* \"#utility.yul\":20236:20273   */\n      swap1\n      pop\n        /* \"#utility.yul\":20173:20280   */\n      swap3\n      swap2\n      pop\n      pop\n      jump\t// out\n        /* \"#utility.yul\":20286:20679   */\n    tag_243:\n        /* \"#utility.yul\":20355:20361   */\n      0x00\n        /* \"#utility.yul\":20405:20406   */\n      0x08\n        /* \"#utility.yul\":20393:20403   */\n      dup4\n        /* \"#utility.yul\":20389:20407   */\n      mul\n        /* \"#utility.yul\":20428:20525   */\n      tag_438\n        /* \"#utility.yul\":20458:20524   */\n      0xffffffffffffffffffffffffffffffffffffffffffffffffffffffffffffffff\n        /* \"#utility.yul\":20447:20456   */\n      dup3\n        /* \"#utility.yul\":20428:20525   */\n      tag_242\n      jump\t// in\n    tag_438:\n        /* \"#utility.yul\":20546:20585   */\n      tag_439\n        /* \"#utility.yul\":20576:20584   */\n      dup7\n        /* \"#utility.yul\":20565:20574   */\n      dup4\n        /* \"#utility.yul\":20546:20585   */\n      tag_242\n      jump\t// in\n    tag_439:\n        /* \"#utility.yul\":20534:20585   */\n      swap6\n      pop\n        /* \"#utility.yul\":20618:20622   */\n      dup1\n        /* \"#utility.yul\":20614:20623   */\n      not\n        /* \"#utility.yul\":20607:20612   */\n      dup5\n        /* \"#utility.yul\":20603:20624   */\n      and\n        /* \"#utility.yul\":20594:20624   */\n      swap4\n      pop\n        /* \"#utility.yul\":20667:20671   */\n      dup1\n        /* \"#utility.yul\":20657:20665   */\n      dup7\n        /* \"#utility.yul\":20653:20672   */\n      and\n        /* \"#utility.yul\":20646:20651   */\n      dup5\n        /* \"#utility.yul\":20643:20673   */\n      or\n        /* \"#utility.yul\":20633:20673   */\n      swap3\n      pop\n        /* \"#utility.yul\":20362:20679   */\n      pop\n      pop\n        /* \"#utility.yul\":20286:20679   */\n      swap4\n      swap3\n      pop\n      pop\n      pop\n      jump\t// out\n        /* \"#utility.yul\":20685:20745   */\n    tag_244:\n        /* \"#utility.yul\":20713:20716   */\n      0x00\n        /* \"#utility.yul\":20734:20739   */\n      dup2\n        /* \"#utility.yul\":20727:20739   */\n      swap1\n      pop\n        /* \"#utility.yul\":20685:20745   */\n      swap2\n      swap1\n      pop\n      jump\t// out\n        /* \"#utility.yul\":20751:20893   */\n    tag_245:\n        /* \"#utility.yul\":20801:20810   */\n      0x00\n        /* \"#utility.yul\":20834:20887   */\n      tag_442\n        /* \"#utility.yul\":20852:20886   */\n      tag_443\n        /* \"#utility.yul\":20861:20885   */\n      tag_444\n        /* \"#utility.yul\":20879:20884   */\n      dup5\n        /* \"#utility.yul\":20861:20885   */\n      tag_211\n      jump\t// in\n    tag_444:\n        /* \"#utility.yul\":20852:20886   */\n      tag_244\n      jump\t// in\n    tag_443:\n        /* \"#utility.yul\":20834:20887   */\n      tag_211\n      jump\t// in\n    tag_442:\n        /* \"#utility.yul\":20821:20887   */\n      swap1\n      pop\n        /* \"#utility.yul\":20751:20893   */\n      swap2\n      swap1\n      pop\n      jump\t// out\n        /* \"#utility.yul\":20899:20974   */\n    tag_246:\n        /* \"#utility.yul\":20942:20945   */\n      0x00\n        /* \"#utility.yul\":20963:20968   */\n      dup2\n        /* \"#utility.yul\":20956:20968   */\n      swap1\n      pop\n        /* \"#utility.yul\":20899:20974   */\n      swap2\n      swap1\n      pop\n      jump\t// out\n        /* \"#utility.yul\":20980:21249   */\n    tag_247:\n        /* \"#utility.yul\":21090:21129   */\n      tag_447\n        /* \"#utility.yul\":21121:21128   */\n      dup4\n        /* \"#utility.yul\":21090:21129   */\n      tag_245\n      jump\t// in\n    tag_447:\n        /* \"#utility.yul\":21151:21242   */\n      tag_448\n        /* \"#utility.yul\":21200:21241   */\n      tag_449\n        /* \"#utility.yul\":21224:21240   */\n      dup3\n        /* \"#utility.yul\":21200:21241   */\n      tag_246\n      jump\t// in\n    tag_449:\n        /* \"#utility.yul\":21192:21198   */\n      dup5\n        /* \"#utility.yul\":21185:21189   */\n      dup5\n        /* \"#utility.yul\":21179:21190   */\n      sload\n        /* \"#utility.yul\":21151:21242   */\n      tag_243\n      jump\t// in\n    tag_448:\n        /* \"#utility.yul\":21145:21149   */\n      dup3\n        /* \"#utility.yul\":21138:21243   */\n      sstore\n        /* \"#utility.yul\":21056:21249   */\n      pop\n        /* \"#utility.yul\":20980:21249   */\n      pop\n      pop\n      pop\n      jump\t// out\n        /* \"#utility.yul\":21255:21328   */\n    tag_248:\n        /* \"#utility.yul\":21300:21303   */\n      0x00\n        /* \"#utility.yul\":21255:21328   */\n      swap1\n      jump\t// out\n        /* \"#utility.yul\":21334:21523   */\n    tag_249:\n        /* \"#utility.yul\":21411:21443   */\n      tag_452\n      tag_248\n      jump\t// in\n    tag_452:\n        /* \"#utility.yul\":21452:21517   */\n      tag_453\n        /* \"#utility.yul\":21510:21516   */\n      dup2\n        /* \"#utility.yul\":21502:21508   */\n      dup5\n        /* \"#utility.yul\":21496:21500   */\n      dup5\n        /* \"#utility.yul\":21452:21517   */\n      tag_247\n      jump\t// in\n    tag_453:\n        /* \"#utility.yul\":21387:21523   */\n      pop\n        /* \"#utility.yul\":21334:21523   */\n      pop\n      pop\n      jump\t// out\n        /* \"#utility.yul\":21529:21715   */\n    tag_250:\n        /* \"#utility.yul\":21589:21709   */\n    tag_455:\n        /* \"#utility.yul\":21606:21609   */\n      dup2\n        /* \"#utility.yul\":21599:21604   */\n      dup2\n        /* \"#utility.yul\":21596:21610   */\n      lt\n        /* \"#utility.yul\":21589:21709   */\n      iszero\n      tag_457\n      jumpi\n        /* \"#utility.yul\":21660:21699   */\n      tag_458\n        /* \"#utility.yul\":21697:21698   */\n      0x00\n        /* \"#utility.yul\":21690:21695   */\n      dup3\n        /* \"#utility.yul\":21660:21699   */\n      tag_249\n      jump\t// in\n    tag_458:\n        /* \"#utility.yul\":21633:21634   */\n      0x01\n        /* \"#utility.yul\":21626:21631   */\n      dup2\n        /* \"#utility.yul\":21622:21635   */\n      add\n        /* \"#utility.yul\":21613:21635   */\n      swap1\n      pop\n        /* \"#utility.yul\":21589:21709   */\n      jump(tag_455)\n    tag_457:\n        /* \"#utility.yul\":21529:21715   */\n      pop\n      pop\n      jump\t// out\n        /* \"#utility.yul\":21721:22264   */\n    tag_251:\n        /* \"#utility.yul\":21822:21824   */\n      0x1f\n        /* \"#utility.yul\":21817:21820   */\n      dup3\n        /* \"#utility.yul\":21814:21825   */\n      gt\n        /* \"#utility.yul\":21811:22257   */\n      iszero\n      tag_460\n      jumpi\n        /* \"#utility.yul\":21856:21894   */\n      tag_461\n        /* \"#utility.yul\":21888:21893   */\n      dup2\n        /* \"#utility.yul\":21856:21894   */\n      tag_231\n      jump\t// in\n    tag_461:\n        /* \"#utility.yul\":21940:21969   */\n      tag_462\n        /* \"#utility.yul\":21958:21968   */\n      dup5\n        /* \"#utility.yul\":21940:21969   */\n      tag_241\n      jump\t// in\n    tag_462:\n        /* \"#utility.yul\":21930:21938   */\n      dup2\n        /* \"#utility.yul\":21926:21970   */\n      add\n        /* \"#utility.yul\":22123:22125   */\n      0x20\n        /* \"#utility.yul\":22111:22121   */\n      dup6\n        /* \"#utility.yul\":22108:22126   */\n      lt\n        /* \"#utility.yul\":22105:22154   */\n      iszero\n      tag_463\n      jumpi\n        /* \"#utility.yul\":22144:22152   */\n      dup2\n        /* \"#utility.yul\":22129:22152   */\n      swap1\n      pop\n        /* \"#utility.yul\":22105:22154   */\n    tag_463:\n        /* \"#utility.yul\":22167:22247   */\n      tag_464\n        /* \"#utility.yul\":22223:22245   */\n      tag_465\n        /* \"#utility.yul\":22241:22244   */\n      dup6\n        /* \"#utility.yul\":22223:22245   */\n      tag_241\n      jump\t// in\n    tag_465:\n        /* \"#utility.yul\":22213:22221   */\n      dup4\n        /* \"#utility.yul\":22209:22246   */\n      add\n        /* \"#utility.yul\":22196:22207   */\n      dup3\n        /* \"#utility.yul\":22167:22247   */\n      tag_250\n      jump\t// in\n    tag_464:\n        /* \"#utility.yul\":21826:22257   */\n      pop\n      pop\n        /* \"#utility.yul\":21811:22257   */\n    tag_460:\n        /* \"#utility.yul\":21721:22264   */\n      pop\n      pop\n      pop\n      jump\t// out\n        /* \"#utility.yul\":22270:22387   */\n    tag_252:\n        /* \"#utility.yul\":22324:22332   */\n      0x00\n        /* \"#utility.yul\":22374:22379   */\n      dup3\n        /* \"#utility.yul\":22368:22372   */\n      dup3\n        /* \"#utility.yul\":22364:22380   */\n      shr\n        /* \"#utility.yul\":22343:22380   */\n      swap1\n      pop\n        /* \"#utility.yul\":22270:22387   */\n      swap3\n      swap2\n      pop\n      pop\n      jump\t// out\n        /* \"#utility.yul\":22393:22562   */\n    tag_253:\n        /* \"#utility.yul\":22437:22443   */\n      0x00\n        /* \"#utility.yul\":22470:22521   */\n      tag_468\n        /* \"#utility.yul\":22518:22519   */\n      0x00\n        /* \"#utility.yul\":22514:22520   */\n      not\n        /* \"#utility.yul\":22506:22511   */\n      dup5\n        /* \"#utility.yul\":22503:22504   */\n      0x08\n        /* \"#utility.yul\":22499:22512   */\n      mul\n        /* \"#utility.yul\":22470:22521   */\n      tag_252\n      jump\t// in\n    tag_468:\n        /* \"#utility.yul\":22466:22522   */\n      not\n        /* \"#utility.yul\":22551:22555   */\n      dup1\n        /* \"#utility.yul\":22545:22549   */\n      dup4\n        /* \"#utility.yul\":22541:22556   */\n      and\n        /* \"#utility.yul\":22531:22556   */\n      swap2\n      pop\n        /* \"#utility.yul\":22444:22562   */\n      pop\n        /* \"#utility.yul\":22393:22562   */\n      swap3\n      swap2\n      pop\n      pop\n      jump\t// out\n        /* \"#utility.yul\":22567:22862   */\n    tag_254:\n        /* \"#utility.yul\":22643:22647   */\n      0x00\n        /* \"#utility.yul\":22789:22818   */\n      tag_470\n        /* \"#utility.yul\":22814:22817   */\n      dup4\n        /* \"#utility.yul\":22808:22812   */\n      dup4\n        /* \"#utility.yul\":22789:22818   */\n      tag_253\n      jump\t// in\n    tag_470:\n        /* \"#utility.yul\":22781:22818   */\n      swap2\n      pop\n        /* \"#utility.yul\":22851:22854   */\n      dup3\n        /* \"#utility.yul\":22848:22849   */\n      0x02\n        /* \"#utility.yul\":22844:22855   */\n      mul\n        /* \"#utility.yul\":22838:22842   */\n      dup3\n        /* \"#utility.yul\":22835:22856   */\n      or\n        /* \"#utility.yul\":22827:22856   */\n      swap1\n      pop\n        /* \"#utility.yul\":22567:22862   */\n      swap3\n      swap2\n      pop\n      pop\n      jump\t// out\n        /* \"#utility.yul\":22867:24262   */\n    tag_89:\n        /* \"#utility.yul\":22984:23021   */\n      tag_472\n        /* \"#utility.yul\":23017:23020   */\n      dup3\n        /* \"#utility.yul\":22984:23021   */\n      tag_206\n      jump\t// in\n    tag_472:\n        /* \"#utility.yul\":23086:23104   */\n      0xffffffffffffffff\n        /* \"#utility.yul\":23078:23084   */\n      dup2\n        /* \"#utility.yul\":23075:23105   */\n      gt\n        /* \"#utility.yul\":23072:23128   */\n      iszero\n      tag_473\n      jumpi\n        /* \"#utility.yul\":23108:23126   */\n      tag_474\n      tag_166\n      jump\t// in\n    tag_474:\n        /* \"#utility.yul\":23072:23128   */\n    tag_473:\n        /* \"#utility.yul\":23152:23190   */\n      tag_475\n        /* \"#utility.yul\":23184:23188   */\n      dup3\n        /* \"#utility.yul\":23178:23189   */\n      sload\n        /* \"#utility.yul\":23152:23190   */\n      tag_61\n      jump\t// in\n    tag_475:\n        /* \"#utility.yul\":23237:23304   */\n      tag_476\n        /* \"#utility.yul\":23297:23303   */\n      dup3\n        /* \"#utility.yul\":23289:23295   */\n      dup3\n        /* \"#utility.yul\":23283:23287   */\n      dup6\n        /* \"#utility.yul\":23237:23304   */\n      tag_251\n      jump\t// in\n    tag_476:\n        /* \"#utility.yul\":23331:23332   */\n      0x00\n        /* \"#utility.yul\":23355:23359   */\n      0x20\n        /* \"#utility.yul\":23342:23359   */\n      swap1\n      pop\n        /* \"#utility.yul\":23387:23389   */\n      0x1f\n        /* \"#utility.yul\":23379:23385   */\n      dup4\n        /* \"#utility.yul\":23376:23390   */\n      gt\n        /* \"#utility.yul\":23404:23405   */\n      0x01\n        /* \"#utility.yul\":23399:24017   */\n      dup2\n      eq\n      tag_478\n      jumpi\n        /* \"#utility.yul\":24061:24062   */\n      0x00\n        /* \"#utility.yul\":24078:24084   */\n      dup5\n        /* \"#utility.yul\":24075:24152   */\n      iszero\n      tag_479\n      jumpi\n        /* \"#utility.yul\":24127:24136   */\n      dup3\n        /* \"#utility.yul\":24122:24125   */\n      dup8\n        /* \"#utility.yul\":24118:24137   */\n      add\n        /* \"#utility.yul\":24112:24138   */\n      mload\n        /* \"#utility.yul\":24103:24138   */\n      swap1\n      pop\n        /* \"#utility.yul\":24075:24152   */\n    tag_479:\n        /* \"#utility.yul\":24178:24245   */\n      tag_480\n        /* \"#utility.yul\":24238:24244   */\n      dup6\n        /* \"#utility.yul\":24231:24236   */\n      dup3\n        /* \"#utility.yul\":24178:24245   */\n      tag_254\n      jump\t// in\n    tag_480:\n        /* \"#utility.yul\":24172:24176   */\n      dup7\n        /* \"#utility.yul\":24165:24246   */\n      sstore\n        /* \"#utility.yul\":24034:24256   */\n      pop\n        /* \"#utility.yul\":23369:24256   */\n      jump(tag_477)\n        /* \"#utility.yul\":23399:24017   */\n    tag_478:\n        /* \"#utility.yul\":23451:23455   */\n      0x1f\n        /* \"#utility.yul\":23447:23456   */\n      not\n        /* \"#utility.yul\":23439:23445   */\n      dup5\n        /* \"#utility.yul\":23435:23457   */\n      and\n        /* \"#utility.yul\":23485:23522   */\n      tag_481\n        /* \"#utility.yul\":23517:23521   */\n      dup7\n        /* \"#utility.yul\":23485:23522   */\n      tag_231\n      jump\t// in\n    tag_481:\n        /* \"#utility.yul\":23544:23545   */\n      0x00\n        /* \"#utility.yul\":23558:23766   */\n    tag_482:\n        /* \"#utility.yul\":23572:23579   */\n      dup3\n        /* \"#utility.yul\":23569:23570   */\n      dup2\n        /* \"#utility.yul\":23566:23580   */\n      lt\n        /* \"#utility.yul\":23558:23766   */\n      iszero\n      tag_484\n      jumpi\n        /* \"#utility.yul\":23651:23660   */\n      dup5\n        /* \"#utility.yul\":23646:23649   */\n      dup10\n        /* \"#utility.yul\":23642:23661   */\n      add\n        /* \"#utility.yul\":23636:23662   */\n      mload\n        /* \"#utility.yul\":23628:23634   */\n      dup3\n        /* \"#utility.yul\":23621:23663   */\n      sstore\n        /* \"#utility.yul\":23702:23703   */\n      0x01\n        /* \"#utility.yul\":23694:23700   */\n      dup3\n        /* \"#utility.yul\":23690:23704   */\n      add\n        /* \"#utility.yul\":23680:23704   */\n      swap2\n      pop\n        /* \"#utility.yul\":23749:23751   */\n      0x20\n        /* \"#utility.yul\":23738:23747   */\n      dup6\n        /* \"#utility.yul\":23734:23752   */\n      add\n        /* \"#utility.yul\":23721:23752   */\n      swap5\n      pop\n        /* \"#utility.yul\":23595:23599   */\n      0x20\n        /* \"#utility.yul\":23592:23593   */\n      dup2\n        /* \"#utility.yul\":23588:23600   */\n      add\n        /* \"#utility.yul\":23583:23600   */\n      swap1\n      pop\n        /* \"#utility.yul\":23558:23766   */\n      jump(tag_482)\n    tag_484:\n        /* \"#utility.yul\":23794:23800   */\n      dup7\n        /* \"#utility.yul\":23785:23792   */\n      dup4\n        /* \"#utility.yul\":23782:23801   */\n      lt\n        /* \"#utility.yul\":23779:23958   */\n      iszero\n      tag_485\n      jumpi\n        /* \"#utility.yul\":23852:23861   */\n      dup5\n        /* \"#utility.yul\":23847:23850   */\n      dup10\n        /* \"#utility.yul\":23843:23862   */\n      add\n        /* \"#utility.yul\":23837:23863   */\n      mload\n        /* \"#utility.yul\":23895:23943   */\n      tag_486\n        /* \"#utility.yul\":23937:23941   */\n      0x1f\n        /* \"#utility.yul\":23929:23935   */\n      dup10\n        /* \"#utility.yul\":23925:23942   */\n      and\n        /* \"#utility.yul\":23914:23923   */\n      dup3\n        /* \"#utility.yul\":23895:23943   */\n      tag_253\n      jump\t// in\n    tag_486:\n        /* \"#utility.yul\":23887:23893   */\n      dup4\n        /* \"#utility.yul\":23880:23944   */\n      sstore\n        /* \"#utility.yul\":23802:23958   */\n      pop\n        /* \"#utility.yul\":23779:23958   */\n    tag_485:\n        /* \"#utility.yul\":24004:24005   */\n      0x01\n        /* \"#utility.yul\":24000:24001   */\n      0x02\n        /* \"#utility.yul\":23992:23998   */\n      dup9\n        /* \"#utility.yul\":23988:24002   */\n      mul\n        /* \"#utility.yul\":23984:24006   */\n      add\n        /* \"#utility.yul\":23978:23982   */\n      dup9\n        /* \"#utility.yul\":23971:24007   */\n      sstore\n        /* \"#utility.yul\":23406:24017   */\n      pop\n      pop\n      pop\n        /* \"#utility.yul\":23369:24256   */\n    tag_477:\n      pop\n        /* \"#utility.yul\":22959:24262   */\n      pop\n      pop\n      pop\n        /* \"#utility.yul\":22867:24262   */\n      pop\n      pop\n      jump\t// out\n        /* \"#utility.yul\":24268:24438   */\n    tag_255:\n        /* \"#utility.yul\":24408:24430   */\n      0x6e6f7420656c696769626c6520746f20766f7465000000000000000000000000\n        /* \"#utility.yul\":24404:24405   */\n      0x00\n        /* \"#utility.yul\":24396:24402   */\n      dup3\n        /* \"#utility.yul\":24392:24406   */\n      add\n        /* \"#utility.yul\":24385:24431   */\n      mstore\n        /* \"#utility.yul\":24268:24438   */\n      pop\n      jump\t// out\n        /* \"#utility.yul\":24444:24810   */\n    tag_256:\n        /* \"#utility.yul\":24586:24589   */\n      0x00\n        /* \"#utility.yul\":24607:24674   */\n      tag_489\n        /* \"#utility.yul\":24671:24673   */\n      0x14\n        /* \"#utility.yul\":24666:24669   */\n      dup4\n        /* \"#utility.yul\":24607:24674   */\n      tag_207\n      jump\t// in\n    tag_489:\n        /* \"#utility.yul\":24600:24674   */\n      swap2\n      pop\n        /* \"#utility.yul\":24683:24776   */\n      tag_490\n        /* \"#utility.yul\":24772:24775   */\n      dup3\n        /* \"#utility.yul\":24683:24776   */\n      tag_255\n      jump\t// in\n    tag_490:\n        /* \"#utility.yul\":24801:24803   */\n      0x20\n        /* \"#utility.yul\":24796:24799   */\n      dup3\n        /* \"#utility.yul\":24792:24804   */\n      add\n        /* \"#utility.yul\":24785:24804   */\n      swap1\n      pop\n        /* \"#utility.yul\":24444:24810   */\n      swap2\n      swap1\n      pop\n      jump\t// out\n        /* \"#utility.yul\":24816:25235   */\n    tag_123:\n        /* \"#utility.yul\":24982:24986   */\n      0x00\n        /* \"#utility.yul\":25020:25022   */\n      0x20\n        /* \"#utility.yul\":25009:25018   */\n      dup3\n        /* \"#utility.yul\":25005:25023   */\n      add\n        /* \"#utility.yul\":24997:25023   */\n      swap1\n      pop\n        /* \"#utility.yul\":25069:25078   */\n      dup2\n        /* \"#utility.yul\":25063:25067   */\n      dup2\n        /* \"#utility.yul\":25059:25079   */\n      sub\n        /* \"#utility.yul\":25055:25056   */\n      0x00\n        /* \"#utility.yul\":25044:25053   */\n      dup4\n        /* \"#utility.yul\":25040:25057   */\n      add\n        /* \"#utility.yul\":25033:25080   */\n      mstore\n        /* \"#utility.yul\":25097:25228   */\n      tag_492\n        /* \"#utility.yul\":25223:25227   */\n      dup2\n        /* \"#utility.yul\":25097:25228   */\n      tag_256\n      jump\t// in\n    tag_492:\n        /* \"#utility.yul\":25089:25228   */\n      swap1\n      pop\n        /* \"#utility.yul\":24816:25235   */\n      swap2\n      swap1\n      pop\n      jump\t// out\n        /* \"#utility.yul\":25241:25423   */\n    tag_257:\n        /* \"#utility.yul\":25381:25415   */\n      0x54686973206164647265737320686173206265656e2072656769737465726564\n        /* \"#utility.yul\":25377:25378   */\n      0x00\n        /* \"#utility.yul\":25369:25375   */\n      dup3\n        /* \"#utility.yul\":25365:25379   */\n      add\n        /* \"#utility.yul\":25358:25416   */\n      mstore\n        /* \"#utility.yul\":25241:25423   */\n      pop\n      jump\t// out\n        /* \"#utility.yul\":25429:25795   */\n    tag_258:\n        /* \"#utility.yul\":25571:25574   */\n      0x00\n        /* \"#utility.yul\":25592:25659   */\n      tag_495\n        /* \"#utility.yul\":25656:25658   */\n      0x20\n        /* \"#utility.yul\":25651:25654   */\n      dup4\n        /* \"#utility.yul\":25592:25659   */\n      tag_207\n      jump\t// in\n    tag_495:\n        /* \"#utility.yul\":25585:25659   */\n      swap2\n      pop\n        /* \"#utility.yul\":25668:25761   */\n      tag_496\n        /* \"#utility.yul\":25757:25760   */\n      dup3\n        /* \"#utility.yul\":25668:25761   */\n      tag_257\n      jump\t// in\n    tag_496:\n        /* \"#utility.yul\":25786:25788   */\n      0x20\n        /* \"#utility.yul\":25781:25784   */\n      dup3\n        /* \"#utility.yul\":25777:25789   */\n      add\n        /* \"#utility.yul\":25770:25789   */\n      swap1\n      pop\n        /* \"#utility.yul\":25429:25795   */\n      swap2\n      swap1\n      pop\n      jump\t// out\n        /* \"#utility.yul\":25801:26220   */\n    tag_127:\n        /* \"#utility.yul\":25967:25971   */\n      0x00\n        /* \"#utility.yul\":26005:26007   */\n      0x20\n        /* \"#utility.yul\":25994:26003   */\n      dup3\n        /* \"#utility.yul\":25990:26008   */\n      add\n        /* \"#utility.yul\":25982:26008   */\n      swap1\n      pop\n        /* \"#utility.yul\":26054:26063   */\n      dup2\n        /* \"#utility.yul\":26048:26052   */\n      dup2\n        /* \"#utility.yul\":26044:26064   */\n      sub\n        /* \"#utility.yul\":26040:26041   */\n      0x00\n        /* \"#utility.yul\":26029:26038   */\n      dup4\n        /* \"#utility.yul\":26025:26042   */\n      add\n        /* \"#utility.yul\":26018:26065   */\n      mstore\n        /* \"#utility.yul\":26082:26213   */\n      tag_498\n        /* \"#utility.yul\":26208:26212   */\n      dup2\n        /* \"#utility.yul\":26082:26213   */\n      tag_258\n      jump\t// in\n    tag_498:\n        /* \"#utility.yul\":26074:26213   */\n      swap1\n      pop\n        /* \"#utility.yul\":25801:26220   */\n      swap2\n      swap1\n      pop\n      jump\t// out\n        /* \"#utility.yul\":26226:26406   */\n    tag_259:\n        /* \"#utility.yul\":26394:26399   */\n      0x4e49470000000000000000000000000000000000000000000000000000000000\n        /* \"#utility.yul\":26389:26392   */\n      dup2\n        /* \"#utility.yul\":26382:26400   */\n      mstore\n        /* \"#utility.yul\":26226:26406   */\n      pop\n      jump\t// out\n        /* \"#utility.yul\":26412:26951   */\n    tag_130:\n        /* \"#utility.yul\":26634:26637   */\n      0x00\n        /* \"#utility.yul\":26649:26786   */\n      tag_501\n        /* \"#utility.yul\":26782:26785   */\n      dup3\n        /* \"#utility.yul\":26649:26786   */\n      tag_259\n      jump\t// in\n    tag_501:\n        /* \"#utility.yul\":26811:26812   */\n      0x03\n        /* \"#utility.yul\":26806:26809   */\n      dup3\n        /* \"#utility.yul\":26802:26813   */\n      add\n        /* \"#utility.yul\":26795:26813   */\n      swap2\n      pop\n        /* \"#utility.yul\":26830:26925   */\n      tag_502\n        /* \"#utility.yul\":26921:26924   */\n      dup3\n        /* \"#utility.yul\":26912:26918   */\n      dup5\n        /* \"#utility.yul\":26830:26925   */\n      tag_240\n      jump\t// in\n    tag_502:\n        /* \"#utility.yul\":26823:26925   */\n      swap2\n      pop\n        /* \"#utility.yul\":26942:26945   */\n      dup2\n        /* \"#utility.yul\":26935:26945   */\n      swap1\n      pop\n        /* \"#utility.yul\":26412:26951   */\n      swap3\n      swap2\n      pop\n      pop\n      jump\t// out\n        /* \"#utility.yul\":26957:27137   */\n    tag_260:\n        /* \"#utility.yul\":27005:27082   */\n      0x4e487b7100000000000000000000000000000000000000000000000000000000\n        /* \"#utility.yul\":27002:27003   */\n      0x00\n        /* \"#utility.yul\":26995:27083   */\n      mstore\n        /* \"#utility.yul\":27102:27106   */\n      0x11\n        /* \"#utility.yul\":27099:27100   */\n      0x04\n        /* \"#utility.yul\":27092:27107   */\n      mstore\n        /* \"#utility.yul\":27126:27130   */\n      0x24\n        /* \"#utility.yul\":27123:27124   */\n      0x00\n        /* \"#utility.yul\":27116:27131   */\n      revert\n        /* \"#utility.yul\":27143:27334   */\n    tag_134:\n        /* \"#utility.yul\":27183:27186   */\n      0x00\n        /* \"#utility.yul\":27202:27222   */\n      tag_505\n        /* \"#utility.yul\":27220:27221   */\n      dup3\n        /* \"#utility.yul\":27202:27222   */\n      tag_211\n      jump\t// in\n    tag_505:\n        /* \"#utility.yul\":27197:27222   */\n      swap2\n      pop\n        /* \"#utility.yul\":27236:27256   */\n      tag_506\n        /* \"#utility.yul\":27254:27255   */\n      dup4\n        /* \"#utility.yul\":27236:27256   */\n      tag_211\n      jump\t// in\n    tag_506:\n        /* \"#utility.yul\":27231:27256   */\n      swap3\n      pop\n        /* \"#utility.yul\":27279:27280   */\n      dup3\n        /* \"#utility.yul\":27276:27277   */\n      dup3\n        /* \"#utility.yul\":27272:27281   */\n      add\n        /* \"#utility.yul\":27265:27281   */\n      swap1\n      pop\n        /* \"#utility.yul\":27300:27303   */\n      dup1\n        /* \"#utility.yul\":27297:27298   */\n      dup3\n        /* \"#utility.yul\":27294:27304   */\n      gt\n        /* \"#utility.yul\":27291:27327   */\n      iszero\n      tag_507\n      jumpi\n        /* \"#utility.yul\":27307:27325   */\n      tag_508\n      tag_260\n      jump\t// in\n    tag_508:\n        /* \"#utility.yul\":27291:27327   */\n    tag_507:\n        /* \"#utility.yul\":27143:27334   */\n      swap3\n      swap2\n      pop\n      pop\n      jump\t// out\n        /* \"#utility.yul\":27340:27520   */\n    tag_172:\n        /* \"#utility.yul\":27388:27465   */\n      0x4e487b7100000000000000000000000000000000000000000000000000000000\n        /* \"#utility.yul\":27385:27386   */\n      0x00\n        /* \"#utility.yul\":27378:27466   */\n      mstore\n        /* \"#utility.yul\":27485:27489   */\n      0x12\n        /* \"#utility.yul\":27482:27483   */\n      0x04\n        /* \"#utility.yul\":27475:27490   */\n      mstore\n        /* \"#utility.yul\":27509:27513   */\n      0x24\n        /* \"#utility.yul\":27506:27507   */\n      0x00\n        /* \"#utility.yul\":27499:27514   */\n      revert\n\n    auxdata: 0xa2646970667358221220e890ce796b36bbc103b375cf9b842f8454af00ca97b2aa6a86859a68f76261ab64736f6c63430008120033\n}\n",
				"bytecode": {
					"linkReferences": {},
					"object": "608060405234801561001057600080fd5b5033600160006101000a81548173ffffffffffffffffffffffffffffffffffffffff021916908373ffffffffffffffffffffffffffffffffffffffff16021790555060016002819055506123aa806100696000396000f3fe608060405234801561001057600080fd5b506004361061009e5760003560e01c8063c0264d3a11610066578063c0264d3a14610161578063ce606ee014610191578063cfa34208146101af578063ef5b7ceb146101cd578063fbbf93a0146101fd5761009e565b80637151ace2146100a357806374775fae146100c15780638bc8d6ff146100dd578063a3ec138d146100f9578063a48af0961461012d575b600080fd5b6100ab61021b565b6040516100b891906115a6565b60405180910390f35b6100db60048036038101906100d6919061165c565b61023f565b005b6100f760048036038101906100f291906116bc565b61049c565b005b610113600480360381019061010e919061173d565b610805565b60405161012495949392919061182e565b60405180910390f35b6101476004803603810190610142919061173d565b610978565b60405161015895949392919061188f565b60405180910390f35b61017b60048036038101906101769190611923565b610b73565b6040516101889190611a77565b60405180910390f35b610199610fed565b6040516101a691906115a6565b60405180910390f35b6101b7611013565b6040516101c49190611a99565b60405180910390f35b6101e760048036038101906101e2919061165c565b61106a565b6040516101f49190611a99565b60405180910390f35b610205611107565b6040516102129190611a77565b60405180910390f35b60008054906101000a900473ffffffffffffffffffffffffffffffffffffffff1681565b60011515600460003373ffffffffffffffffffffffffffffffffffffffff1673ffffffffffffffffffffffffffffffffffffffff16815260200190815260200160002060030160009054906101000a900460ff1615151461029f57600080fd5b6000600460008373ffffffffffffffffffffffffffffffffffffffff1673ffffffffffffffffffffffffffffffffffffffff16815260200190815260200160002060010180546102ee90611ae3565b905003610330576040517f08c379a000000000000000000000000000000000000000000000000000000000815260040161032790611b86565b60405180910390fd5b60001515600460008373ffffffffffffffffffffffffffffffffffffffff1673ffffffffffffffffffffffffffffffffffffffff16815260200190815260200160002060030160009054906101000a900460ff161515036103c6576040517f08c379a00000000000000000000000000000000000000000000000000000000081526004016103bd90611bf2565b60405180910390fd5b82826040516020016103d9929190611c51565b60405160208183030381529060405280519060200120600460008373ffffffffffffffffffffffffffffffffffffffff1673ffffffffffffffffffffffffffffffffffffffff1681526020019081526020016000206002016040516020016104419190611d02565b6040516020818303038152906040528051906020012003610497576040517f08c379a000000000000000000000000000000000000000000000000000000000815260040161048e90611d8b565b60405180910390fd5b505050565b6000600460003373ffffffffffffffffffffffffffffffffffffffff1673ffffffffffffffffffffffffffffffffffffffff16815260200190815260200160002060010180546104eb90611ae3565b90501461052d576040517f08c379a000000000000000000000000000000000000000000000000000000000815260040161052490611df7565b60405180910390fd5b6000600360003373ffffffffffffffffffffffffffffffffffffffff1673ffffffffffffffffffffffffffffffffffffffff168152602001908152602001600020600201805461057c90611ae3565b9050036105be576040517f08c379a00000000000000000000000000000000000000000000000000000000081526004016105b590611e89565b60405180910390fd5b60006105cb6002546112fd565b6040516020016105db9190611f00565b604051602081830303815290604052905060405180602001604052806000815250600360003373ffffffffffffffffffffffffffffffffffffffff1673ffffffffffffffffffffffffffffffffffffffff168152602001908152602001600020600201908161064a91906120ec565b506040518060a0016040528086868080601f016020809104026020016040519081016040528093929190818152602001838380828437600081840152601f19601f82011690508083019250505050505050815260200182815260200184848080601f016020809104026020016040519081016040528093929190818152602001838380828437600081840152601f19601f8201169050808301925050505050505081526020016000151581526020013373ffffffffffffffffffffffffffffffffffffffff16815250600460003373ffffffffffffffffffffffffffffffffffffffff1673ffffffffffffffffffffffffffffffffffffffff168152602001908152602001600020600082015181600001908161076791906120ec565b50602082015181600101908161077d91906120ec565b50604082015181600201908161079391906120ec565b5060608201518160030160006101000a81548160ff02191690831515021790555060808201518160030160016101000a81548173ffffffffffffffffffffffffffffffffffffffff021916908373ffffffffffffffffffffffffffffffffffffffff1602179055509050505050505050565b600360205280600052604060002060009150905080600001805461082890611ae3565b80601f016020809104026020016040519081016040528092919081815260200182805461085490611ae3565b80156108a15780601f10610876576101008083540402835291602001916108a1565b820191906000526020600020905b81548152906001019060200180831161088457829003601f168201915b5050505050908060010154908060020180546108bc90611ae3565b80601f01602080910402602001604051908101604052809291908181526020018280546108e890611ae3565b80156109355780601f1061090a57610100808354040283529160200191610935565b820191906000526020600020905b81548152906001019060200180831161091857829003601f168201915b5050505050908060030160009054906101000a900460ff16908060030160019054906101000a900473ffffffffffffffffffffffffffffffffffffffff16905085565b600460205280600052604060002060009150905080600001805461099b90611ae3565b80601f01602080910402602001604051908101604052809291908181526020018280546109c790611ae3565b8015610a145780601f106109e957610100808354040283529160200191610a14565b820191906000526020600020905b8154815290600101906020018083116109f757829003601f168201915b505050505090806001018054610a2990611ae3565b80601f0160208091040260200160405190810160405280929190818152602001828054610a5590611ae3565b8015610aa25780601f10610a7757610100808354040283529160200191610aa2565b820191906000526020600020905b815481529060010190602001808311610a8557829003601f168201915b505050505090806002018054610ab790611ae3565b80601f0160208091040260200160405190810160405280929190818152602001828054610ae390611ae3565b8015610b305780601f10610b0557610100808354040283529160200191610b30565b820191906000526020600020905b815481529060010190602001808311610b1357829003601f168201915b5050505050908060030160009054906101000a900460ff16908060030160019054906101000a900473ffffffffffffffffffffffffffffffffffffffff16905085565b610b7b61151e565b60118211610bbe576040517f08c379a0000000000000000000000000000000000000000000000000000000008152600401610bb59061220a565b60405180910390fd5b6000600360003373ffffffffffffffffffffffffffffffffffffffff1673ffffffffffffffffffffffffffffffffffffffff1681526020019081526020016000206002018054610c0d90611ae3565b905014610c4f576040517f08c379a0000000000000000000000000000000000000000000000000000000008152600401610c4690612276565b60405180910390fd5b6000610c5c6002546112fd565b604051602001610c6c91906122bc565b60405160208183030381529060405290506040518060a0016040528086868080601f016020809104026020016040519081016040528093929190818152602001838380828437600081840152601f19601f8201169050808301925050505050505081526020018481526020018281526020016000151581526020013373ffffffffffffffffffffffffffffffffffffffff16815250600360003373ffffffffffffffffffffffffffffffffffffffff1673ffffffffffffffffffffffffffffffffffffffff1681526020019081526020016000206000820151816000019081610d5591906120ec565b50602082015181600101556040820151816002019081610d7591906120ec565b5060608201518160030160006101000a81548160ff02191690831515021790555060808201518160030160016101000a81548173ffffffffffffffffffffffffffffffffffffffff021916908373ffffffffffffffffffffffffffffffffffffffff160217905550905050600160026000828254610df39190612311565b92505081905550600360003373ffffffffffffffffffffffffffffffffffffffff1673ffffffffffffffffffffffffffffffffffffffff1681526020019081526020016000206040518060a0016040529081600082018054610e5490611ae3565b80601f0160208091040260200160405190810160405280929190818152602001828054610e8090611ae3565b8015610ecd5780601f10610ea257610100808354040283529160200191610ecd565b820191906000526020600020905b815481529060010190602001808311610eb057829003601f168201915b5050505050815260200160018201548152602001600282018054610ef090611ae3565b80601f0160208091040260200160405190810160405280929190818152602001828054610f1c90611ae3565b8015610f695780601f10610f3e57610100808354040283529160200191610f69565b820191906000526020600020905b815481529060010190602001808311610f4c57829003601f168201915b505050505081526020016003820160009054906101000a900460ff161515151581526020016003820160019054906101000a900473ffffffffffffffffffffffffffffffffffffffff1673ffffffffffffffffffffffffffffffffffffffff1673ffffffffffffffffffffffffffffffffffffffff16815250509150509392505050565b600160009054906101000a900473ffffffffffffffffffffffffffffffffffffffff1681565b6000600360003373ffffffffffffffffffffffffffffffffffffffff1673ffffffffffffffffffffffffffffffffffffffff16815260200190815260200160002060030160009054906101000a900460ff16905090565b6000838360405160200161107f929190611c51565b60405160208183030381529060405280519060200120600460008473ffffffffffffffffffffffffffffffffffffffff1673ffffffffffffffffffffffffffffffffffffffff1681526020019081526020016000206002016040516020016110e79190611d02565b604051602081830303815290604052805190602001201490509392505050565b61110f61151e565b600360003373ffffffffffffffffffffffffffffffffffffffff1673ffffffffffffffffffffffffffffffffffffffff1681526020019081526020016000206040518060a001604052908160008201805461116990611ae3565b80601f016020809104026020016040519081016040528092919081815260200182805461119590611ae3565b80156111e25780601f106111b7576101008083540402835291602001916111e2565b820191906000526020600020905b8154815290600101906020018083116111c557829003601f168201915b505050505081526020016001820154815260200160028201805461120590611ae3565b80601f016020809104026020016040519081016040528092919081815260200182805461123190611ae3565b801561127e5780601f106112535761010080835404028352916020019161127e565b820191906000526020600020905b81548152906001019060200180831161126157829003601f168201915b505050505081526020016003820160009054906101000a900460ff161515151581526020016003820160019054906101000a900473ffffffffffffffffffffffffffffffffffffffff1673ffffffffffffffffffffffffffffffffffffffff1673ffffffffffffffffffffffffffffffffffffffff1681525050905090565b60606000600161130c846113cb565b01905060008167ffffffffffffffff81111561132b5761132a611f26565b5b6040519080825280601f01601f19166020018201604052801561135d5781602001600182028036833780820191505090505b509050600082602001820190505b6001156113c0578080600190039150507f3031323334353637383961626364656600000000000000000000000000000000600a86061a8153600a85816113b4576113b3612345565b5b0494506000850361136b575b819350505050919050565b600080600090507a184f03e93ff9f4daa797ed6e38ed64bf6a1f0100000000000000008310611429577a184f03e93ff9f4daa797ed6e38ed64bf6a1f010000000000000000838161141f5761141e612345565b5b0492506040810190505b6d04ee2d6d415b85acef81000000008310611466576d04ee2d6d415b85acef8100000000838161145c5761145b612345565b5b0492506020810190505b662386f26fc10000831061149557662386f26fc10000838161148b5761148a612345565b5b0492506010810190505b6305f5e10083106114be576305f5e10083816114b4576114b3612345565b5b0492506008810190505b61271083106114e35761271083816114d9576114d8612345565b5b0492506004810190505b6064831061150657606483816114fc576114fb612345565b5b0492506002810190505b600a8310611515576001810190505b80915050919050565b6040518060a00160405280606081526020016000815260200160608152602001600015158152602001600073ffffffffffffffffffffffffffffffffffffffff1681525090565b600073ffffffffffffffffffffffffffffffffffffffff82169050919050565b600061159082611565565b9050919050565b6115a081611585565b82525050565b60006020820190506115bb6000830184611597565b92915050565b600080fd5b600080fd5b600080fd5b600080fd5b600080fd5b60008083601f8401126115f0576115ef6115cb565b5b8235905067ffffffffffffffff81111561160d5761160c6115d0565b5b602083019150836001820283011115611629576116286115d5565b5b9250929050565b61163981611585565b811461164457600080fd5b50565b60008135905061165681611630565b92915050565b600080600060408486031215611675576116746115c1565b5b600084013567ffffffffffffffff811115611693576116926115c6565b5b61169f868287016115da565b935093505060206116b286828701611647565b9150509250925092565b600080600080604085870312156116d6576116d56115c1565b5b600085013567ffffffffffffffff8111156116f4576116f36115c6565b5b611700878288016115da565b9450945050602085013567ffffffffffffffff811115611723576117226115c6565b5b61172f878288016115da565b925092505092959194509250565b600060208284031215611753576117526115c1565b5b600061176184828501611647565b91505092915050565b600081519050919050565b600082825260208201905092915050565b60005b838110156117a4578082015181840152602081019050611789565b60008484015250505050565b6000601f19601f8301169050919050565b60006117cc8261176a565b6117d68185611775565b93506117e6818560208601611786565b6117ef816117b0565b840191505092915050565b6000819050919050565b61180d816117fa565b82525050565b60008115159050919050565b61182881611813565b82525050565b600060a082019050818103600083015261184881886117c1565b90506118576020830187611804565b818103604083015261186981866117c1565b9050611878606083018561181f565b6118856080830184611597565b9695505050505050565b600060a08201905081810360008301526118a981886117c1565b905081810360208301526118bd81876117c1565b905081810360408301526118d181866117c1565b90506118e0606083018561181f565b6118ed6080830184611597565b9695505050505050565b611900816117fa565b811461190b57600080fd5b50565b60008135905061191d816118f7565b92915050565b60008060006040848603121561193c5761193b6115c1565b5b600084013567ffffffffffffffff81111561195a576119596115c6565b5b611966868287016115da565b935093505060206119798682870161190e565b9150509250925092565b600082825260208201905092915050565b600061199f8261176a565b6119a98185611983565b93506119b9818560208601611786565b6119c2816117b0565b840191505092915050565b6119d6816117fa565b82525050565b6119e581611813565b82525050565b6119f481611585565b82525050565b600060a0830160008301518482036000860152611a178282611994565b9150506020830151611a2c60208601826119cd565b5060408301518482036040860152611a448282611994565b9150506060830151611a5960608601826119dc565b506080830151611a6c60808601826119eb565b508091505092915050565b60006020820190508181036000830152611a9181846119fa565b905092915050565b6000602082019050611aae600083018461181f565b92915050565b7f4e487b7100000000000000000000000000000000000000000000000000000000600052602260045260246000fd5b60006002820490506001821680611afb57607f821691505b602082108103611b0e57611b0d611ab4565b5b50919050565b7f746869732061646472657373206973206e6f74206120636f6f7264696e61746f60008201527f7200000000000000000000000000000000000000000000000000000000000000602082015250565b6000611b70602183611775565b9150611b7b82611b14565b604082019050919050565b60006020820190508181036000830152611b9f81611b63565b9050919050565b7f546869732075736572206973206e6f7420616e2061646d696e00000000000000600082015250565b6000611bdc601983611775565b9150611be782611ba6565b602082019050919050565b60006020820190508181036000830152611c0b81611bcf565b9050919050565b600081905092915050565b82818337600083830152505050565b6000611c388385611c12565b9350611c45838584611c1d565b82840190509392505050565b6000611c5e828486611c2c565b91508190509392505050565b60008190508160005260206000209050919050565b60008154611c8c81611ae3565b611c968186611c12565b94506001821660008114611cb15760018114611cc657611cf9565b60ff1983168652811515820286019350611cf9565b611ccf85611c6a565b60005b83811015611cf157815481890152600182019150602081019050611cd2565b838801955050505b50505092915050565b6000611d0e8284611c7f565b915081905092915050565b7f546869732075736572206861732061646d696e2072696768747320746f20746860008201527f697320656c656374696f6e000000000000000000000000000000000000000000602082015250565b6000611d75602b83611775565b9150611d8082611d19565b604082019050919050565b60006020820190508181036000830152611da481611d68565b9050919050565b7f54686973206164647265737320697320616e2061646d696e0000000000000000600082015250565b6000611de1601883611775565b9150611dec82611dab565b602082019050919050565b60006020820190508181036000830152611e1081611dd4565b9050919050565b7f54686973206164647265737320686173206d6f74206265656e2072656769737460008201527f6572656420696e2074686520656c6563746f72616c2070726f63657373000000602082015250565b6000611e73603d83611775565b9150611e7e82611e17565b604082019050919050565b60006020820190508181036000830152611ea281611e66565b9050919050565b7f434f440000000000000000000000000000000000000000000000000000000000815250565b6000611eda8261176a565b611ee48185611c12565b9350611ef4818560208601611786565b80840191505092915050565b6000611f0b82611ea9565b600382019150611f1b8284611ecf565b915081905092915050565b7f4e487b7100000000000000000000000000000000000000000000000000000000600052604160045260246000fd5b60006020601f8301049050919050565b600082821b905092915050565b600060088302611fa27fffffffffffffffffffffffffffffffffffffffffffffffffffffffffffffffff82611f65565b611fac8683611f65565b95508019841693508086168417925050509392505050565b6000819050919050565b6000611fe9611fe4611fdf846117fa565b611fc4565b6117fa565b9050919050565b6000819050919050565b61200383611fce565b61201761200f82611ff0565b848454611f72565b825550505050565b600090565b61202c61201f565b612037818484611ffa565b505050565b5b8181101561205b57612050600082612024565b60018101905061203d565b5050565b601f8211156120a05761207181611c6a565b61207a84611f55565b81016020851015612089578190505b61209d61209585611f55565b83018261203c565b50505b505050565b600082821c905092915050565b60006120c3600019846008026120a5565b1980831691505092915050565b60006120dc83836120b2565b9150826002028217905092915050565b6120f58261176a565b67ffffffffffffffff81111561210e5761210d611f26565b5b6121188254611ae3565b61212382828561205f565b600060209050601f8311600181146121565760008415612144578287015190505b61214e85826120d0565b8655506121b6565b601f19841661216486611c6a565b60005b8281101561218c57848901518255600182019150602085019450602081019050612167565b868310156121a957848901516121a5601f8916826120b2565b8355505b6001600288020188555050505b505050505050565b7f6e6f7420656c696769626c6520746f20766f7465000000000000000000000000600082015250565b60006121f4601483611775565b91506121ff826121be565b602082019050919050565b60006020820190508181036000830152612223816121e7565b9050919050565b7f54686973206164647265737320686173206265656e2072656769737465726564600082015250565b6000612260602083611775565b915061226b8261222a565b602082019050919050565b6000602082019050818103600083015261228f81612253565b9050919050565b7f4e49470000000000000000000000000000000000000000000000000000000000815250565b60006122c782612296565b6003820191506122d78284611ecf565b915081905092915050565b7f4e487b7100000000000000000000000000000000000000000000000000000000600052601160045260246000fd5b600061231c826117fa565b9150612327836117fa565b925082820190508082111561233f5761233e6122e2565b5b92915050565b7f4e487b7100000000000000000000000000000000000000000000000000000000600052601260045260246000fdfea2646970667358221220e890ce796b36bbc103b375cf9b842f8454af00ca97b2aa6a86859a68f76261ab64736f6c63430008120033",
					"opcodes": "PUSH1 0x80 PUSH1 0x40 MSTORE CALLVALUE DUP1 ISZERO PUSH2 0x10 JUMPI PUSH1 0x0 DUP1 REVERT JUMPDEST POP CALLER PUSH1 0x1 PUSH1 0x0 PUSH2 0x100 EXP DUP2 SLOAD DUP2 PUSH20 0xFFFFFFFFFFFFFFFFFFFFFFFFFFFFFFFFFFFFFFFF MUL NOT AND SWAP1 DUP4 PUSH20 0xFFFFFFFFFFFFFFFFFFFFFFFFFFFFFFFFFFFFFFFF AND MUL OR SWAP1 SSTORE POP PUSH1 0x1 PUSH1 0x2 DUP2 SWAP1 SSTORE POP PUSH2 0x23AA DUP1 PUSH2 0x69 PUSH1 0x0 CODECOPY PUSH1 0x0 RETURN INVALID PUSH1 0x80 PUSH1 0x40 MSTORE CALLVALUE DUP1 ISZERO PUSH2 0x10 JUMPI PUSH1 0x0 DUP1 REVERT JUMPDEST POP PUSH1 0x4 CALLDATASIZE LT PUSH2 0x9E JUMPI PUSH1 0x0 CALLDATALOAD PUSH1 0xE0 SHR DUP1 PUSH4 0xC0264D3A GT PUSH2 0x66 JUMPI DUP1 PUSH4 0xC0264D3A EQ PUSH2 0x161 JUMPI DUP1 PUSH4 0xCE606EE0 EQ PUSH2 0x191 JUMPI DUP1 PUSH4 0xCFA34208 EQ PUSH2 0x1AF JUMPI DUP1 PUSH4 0xEF5B7CEB EQ PUSH2 0x1CD JUMPI DUP1 PUSH4 0xFBBF93A0 EQ PUSH2 0x1FD JUMPI PUSH2 0x9E JUMP JUMPDEST DUP1 PUSH4 0x7151ACE2 EQ PUSH2 0xA3 JUMPI DUP1 PUSH4 0x74775FAE EQ PUSH2 0xC1 JUMPI DUP1 PUSH4 0x8BC8D6FF EQ PUSH2 0xDD JUMPI DUP1 PUSH4 0xA3EC138D EQ PUSH2 0xF9 JUMPI DUP1 PUSH4 0xA48AF096 EQ PUSH2 0x12D JUMPI JUMPDEST PUSH1 0x0 DUP1 REVERT JUMPDEST PUSH2 0xAB PUSH2 0x21B JUMP JUMPDEST PUSH1 0x40 MLOAD PUSH2 0xB8 SWAP2 SWAP1 PUSH2 0x15A6 JUMP JUMPDEST PUSH1 0x40 MLOAD DUP1 SWAP2 SUB SWAP1 RETURN JUMPDEST PUSH2 0xDB PUSH1 0x4 DUP1 CALLDATASIZE SUB DUP2 ADD SWAP1 PUSH2 0xD6 SWAP2 SWAP1 PUSH2 0x165C JUMP JUMPDEST PUSH2 0x23F JUMP JUMPDEST STOP JUMPDEST PUSH2 0xF7 PUSH1 0x4 DUP1 CALLDATASIZE SUB DUP2 ADD SWAP1 PUSH2 0xF2 SWAP2 SWAP1 PUSH2 0x16BC JUMP JUMPDEST PUSH2 0x49C JUMP JUMPDEST STOP JUMPDEST PUSH2 0x113 PUSH1 0x4 DUP1 CALLDATASIZE SUB DUP2 ADD SWAP1 PUSH2 0x10E SWAP2 SWAP1 PUSH2 0x173D JUMP JUMPDEST PUSH2 0x805 JUMP JUMPDEST PUSH1 0x40 MLOAD PUSH2 0x124 SWAP6 SWAP5 SWAP4 SWAP3 SWAP2 SWAP1 PUSH2 0x182E JUMP JUMPDEST PUSH1 0x40 MLOAD DUP1 SWAP2 SUB SWAP1 RETURN JUMPDEST PUSH2 0x147 PUSH1 0x4 DUP1 CALLDATASIZE SUB DUP2 ADD SWAP1 PUSH2 0x142 SWAP2 SWAP1 PUSH2 0x173D JUMP JUMPDEST PUSH2 0x978 JUMP JUMPDEST PUSH1 0x40 MLOAD PUSH2 0x158 SWAP6 SWAP5 SWAP4 SWAP3 SWAP2 SWAP1 PUSH2 0x188F JUMP JUMPDEST PUSH1 0x40 MLOAD DUP1 SWAP2 SUB SWAP1 RETURN JUMPDEST PUSH2 0x17B PUSH1 0x4 DUP1 CALLDATASIZE SUB DUP2 ADD SWAP1 PUSH2 0x176 SWAP2 SWAP1 PUSH2 0x1923 JUMP JUMPDEST PUSH2 0xB73 JUMP JUMPDEST PUSH1 0x40 MLOAD PUSH2 0x188 SWAP2 SWAP1 PUSH2 0x1A77 JUMP JUMPDEST PUSH1 0x40 MLOAD DUP1 SWAP2 SUB SWAP1 RETURN JUMPDEST PUSH2 0x199 PUSH2 0xFED JUMP JUMPDEST PUSH1 0x40 MLOAD PUSH2 0x1A6 SWAP2 SWAP1 PUSH2 0x15A6 JUMP JUMPDEST PUSH1 0x40 MLOAD DUP1 SWAP2 SUB SWAP1 RETURN JUMPDEST PUSH2 0x1B7 PUSH2 0x1013 JUMP JUMPDEST PUSH1 0x40 MLOAD PUSH2 0x1C4 SWAP2 SWAP1 PUSH2 0x1A99 JUMP JUMPDEST PUSH1 0x40 MLOAD DUP1 SWAP2 SUB SWAP1 RETURN JUMPDEST PUSH2 0x1E7 PUSH1 0x4 DUP1 CALLDATASIZE SUB DUP2 ADD SWAP1 PUSH2 0x1E2 SWAP2 SWAP1 PUSH2 0x165C JUMP JUMPDEST PUSH2 0x106A JUMP JUMPDEST PUSH1 0x40 MLOAD PUSH2 0x1F4 SWAP2 SWAP1 PUSH2 0x1A99 JUMP JUMPDEST PUSH1 0x40 MLOAD DUP1 SWAP2 SUB SWAP1 RETURN JUMPDEST PUSH2 0x205 PUSH2 0x1107 JUMP JUMPDEST PUSH1 0x40 MLOAD PUSH2 0x212 SWAP2 SWAP1 PUSH2 0x1A77 JUMP JUMPDEST PUSH1 0x40 MLOAD DUP1 SWAP2 SUB SWAP1 RETURN JUMPDEST PUSH1 0x0 DUP1 SLOAD SWAP1 PUSH2 0x100 EXP SWAP1 DIV PUSH20 0xFFFFFFFFFFFFFFFFFFFFFFFFFFFFFFFFFFFFFFFF AND DUP2 JUMP JUMPDEST PUSH1 0x1 ISZERO ISZERO PUSH1 0x4 PUSH1 0x0 CALLER PUSH20 0xFFFFFFFFFFFFFFFFFFFFFFFFFFFFFFFFFFFFFFFF AND PUSH20 0xFFFFFFFFFFFFFFFFFFFFFFFFFFFFFFFFFFFFFFFF AND DUP2 MSTORE PUSH1 0x20 ADD SWAP1 DUP2 MSTORE PUSH1 0x20 ADD PUSH1 0x0 KECCAK256 PUSH1 0x3 ADD PUSH1 0x0 SWAP1 SLOAD SWAP1 PUSH2 0x100 EXP SWAP1 DIV PUSH1 0xFF AND ISZERO ISZERO EQ PUSH2 0x29F JUMPI PUSH1 0x0 DUP1 REVERT JUMPDEST PUSH1 0x0 PUSH1 0x4 PUSH1 0x0 DUP4 PUSH20 0xFFFFFFFFFFFFFFFFFFFFFFFFFFFFFFFFFFFFFFFF AND PUSH20 0xFFFFFFFFFFFFFFFFFFFFFFFFFFFFFFFFFFFFFFFF AND DUP2 MSTORE PUSH1 0x20 ADD SWAP1 DUP2 MSTORE PUSH1 0x20 ADD PUSH1 0x0 KECCAK256 PUSH1 0x1 ADD DUP1 SLOAD PUSH2 0x2EE SWAP1 PUSH2 0x1AE3 JUMP JUMPDEST SWAP1 POP SUB PUSH2 0x330 JUMPI PUSH1 0x40 MLOAD PUSH32 0x8C379A000000000000000000000000000000000000000000000000000000000 DUP2 MSTORE PUSH1 0x4 ADD PUSH2 0x327 SWAP1 PUSH2 0x1B86 JUMP JUMPDEST PUSH1 0x40 MLOAD DUP1 SWAP2 SUB SWAP1 REVERT JUMPDEST PUSH1 0x0 ISZERO ISZERO PUSH1 0x4 PUSH1 0x0 DUP4 PUSH20 0xFFFFFFFFFFFFFFFFFFFFFFFFFFFFFFFFFFFFFFFF AND PUSH20 0xFFFFFFFFFFFFFFFFFFFFFFFFFFFFFFFFFFFFFFFF AND DUP2 MSTORE PUSH1 0x20 ADD SWAP1 DUP2 MSTORE PUSH1 0x20 ADD PUSH1 0x0 KECCAK256 PUSH1 0x3 ADD PUSH1 0x0 SWAP1 SLOAD SWAP1 PUSH2 0x100 EXP SWAP1 DIV PUSH1 0xFF AND ISZERO ISZERO SUB PUSH2 0x3C6 JUMPI PUSH1 0x40 MLOAD PUSH32 0x8C379A000000000000000000000000000000000000000000000000000000000 DUP2 MSTORE PUSH1 0x4 ADD PUSH2 0x3BD SWAP1 PUSH2 0x1BF2 JUMP JUMPDEST PUSH1 0x40 MLOAD DUP1 SWAP2 SUB SWAP1 REVERT JUMPDEST DUP3 DUP3 PUSH1 0x40 MLOAD PUSH1 0x20 ADD PUSH2 0x3D9 SWAP3 SWAP2 SWAP1 PUSH2 0x1C51 JUMP JUMPDEST PUSH1 0x40 MLOAD PUSH1 0x20 DUP2 DUP4 SUB SUB DUP2 MSTORE SWAP1 PUSH1 0x40 MSTORE DUP1 MLOAD SWAP1 PUSH1 0x20 ADD KECCAK256 PUSH1 0x4 PUSH1 0x0 DUP4 PUSH20 0xFFFFFFFFFFFFFFFFFFFFFFFFFFFFFFFFFFFFFFFF AND PUSH20 0xFFFFFFFFFFFFFFFFFFFFFFFFFFFFFFFFFFFFFFFF AND DUP2 MSTORE PUSH1 0x20 ADD SWAP1 DUP2 MSTORE PUSH1 0x20 ADD PUSH1 0x0 KECCAK256 PUSH1 0x2 ADD PUSH1 0x40 MLOAD PUSH1 0x20 ADD PUSH2 0x441 SWAP2 SWAP1 PUSH2 0x1D02 JUMP JUMPDEST PUSH1 0x40 MLOAD PUSH1 0x20 DUP2 DUP4 SUB SUB DUP2 MSTORE SWAP1 PUSH1 0x40 MSTORE DUP1 MLOAD SWAP1 PUSH1 0x20 ADD KECCAK256 SUB PUSH2 0x497 JUMPI PUSH1 0x40 MLOAD PUSH32 0x8C379A000000000000000000000000000000000000000000000000000000000 DUP2 MSTORE PUSH1 0x4 ADD PUSH2 0x48E SWAP1 PUSH2 0x1D8B JUMP JUMPDEST PUSH1 0x40 MLOAD DUP1 SWAP2 SUB SWAP1 REVERT JUMPDEST POP POP POP JUMP JUMPDEST PUSH1 0x0 PUSH1 0x4 PUSH1 0x0 CALLER PUSH20 0xFFFFFFFFFFFFFFFFFFFFFFFFFFFFFFFFFFFFFFFF AND PUSH20 0xFFFFFFFFFFFFFFFFFFFFFFFFFFFFFFFFFFFFFFFF AND DUP2 MSTORE PUSH1 0x20 ADD SWAP1 DUP2 MSTORE PUSH1 0x20 ADD PUSH1 0x0 KECCAK256 PUSH1 0x1 ADD DUP1 SLOAD PUSH2 0x4EB SWAP1 PUSH2 0x1AE3 JUMP JUMPDEST SWAP1 POP EQ PUSH2 0x52D JUMPI PUSH1 0x40 MLOAD PUSH32 0x8C379A000000000000000000000000000000000000000000000000000000000 DUP2 MSTORE PUSH1 0x4 ADD PUSH2 0x524 SWAP1 PUSH2 0x1DF7 JUMP JUMPDEST PUSH1 0x40 MLOAD DUP1 SWAP2 SUB SWAP1 REVERT JUMPDEST PUSH1 0x0 PUSH1 0x3 PUSH1 0x0 CALLER PUSH20 0xFFFFFFFFFFFFFFFFFFFFFFFFFFFFFFFFFFFFFFFF AND PUSH20 0xFFFFFFFFFFFFFFFFFFFFFFFFFFFFFFFFFFFFFFFF AND DUP2 MSTORE PUSH1 0x20 ADD SWAP1 DUP2 MSTORE PUSH1 0x20 ADD PUSH1 0x0 KECCAK256 PUSH1 0x2 ADD DUP1 SLOAD PUSH2 0x57C SWAP1 PUSH2 0x1AE3 JUMP JUMPDEST SWAP1 POP SUB PUSH2 0x5BE JUMPI PUSH1 0x40 MLOAD PUSH32 0x8C379A000000000000000000000000000000000000000000000000000000000 DUP2 MSTORE PUSH1 0x4 ADD PUSH2 0x5B5 SWAP1 PUSH2 0x1E89 JUMP JUMPDEST PUSH1 0x40 MLOAD DUP1 SWAP2 SUB SWAP1 REVERT JUMPDEST PUSH1 0x0 PUSH2 0x5CB PUSH1 0x2 SLOAD PUSH2 0x12FD JUMP JUMPDEST PUSH1 0x40 MLOAD PUSH1 0x20 ADD PUSH2 0x5DB SWAP2 SWAP1 PUSH2 0x1F00 JUMP JUMPDEST PUSH1 0x40 MLOAD PUSH1 0x20 DUP2 DUP4 SUB SUB DUP2 MSTORE SWAP1 PUSH1 0x40 MSTORE SWAP1 POP PUSH1 0x40 MLOAD DUP1 PUSH1 0x20 ADD PUSH1 0x40 MSTORE DUP1 PUSH1 0x0 DUP2 MSTORE POP PUSH1 0x3 PUSH1 0x0 CALLER PUSH20 0xFFFFFFFFFFFFFFFFFFFFFFFFFFFFFFFFFFFFFFFF AND PUSH20 0xFFFFFFFFFFFFFFFFFFFFFFFFFFFFFFFFFFFFFFFF AND DUP2 MSTORE PUSH1 0x20 ADD SWAP1 DUP2 MSTORE PUSH1 0x20 ADD PUSH1 0x0 KECCAK256 PUSH1 0x2 ADD SWAP1 DUP2 PUSH2 0x64A SWAP2 SWAP1 PUSH2 0x20EC JUMP JUMPDEST POP PUSH1 0x40 MLOAD DUP1 PUSH1 0xA0 ADD PUSH1 0x40 MSTORE DUP1 DUP7 DUP7 DUP1 DUP1 PUSH1 0x1F ADD PUSH1 0x20 DUP1 SWAP2 DIV MUL PUSH1 0x20 ADD PUSH1 0x40 MLOAD SWAP1 DUP2 ADD PUSH1 0x40 MSTORE DUP1 SWAP4 SWAP3 SWAP2 SWAP1 DUP2 DUP2 MSTORE PUSH1 0x20 ADD DUP4 DUP4 DUP1 DUP3 DUP5 CALLDATACOPY PUSH1 0x0 DUP2 DUP5 ADD MSTORE PUSH1 0x1F NOT PUSH1 0x1F DUP3 ADD AND SWAP1 POP DUP1 DUP4 ADD SWAP3 POP POP POP POP POP POP POP DUP2 MSTORE PUSH1 0x20 ADD DUP3 DUP2 MSTORE PUSH1 0x20 ADD DUP5 DUP5 DUP1 DUP1 PUSH1 0x1F ADD PUSH1 0x20 DUP1 SWAP2 DIV MUL PUSH1 0x20 ADD PUSH1 0x40 MLOAD SWAP1 DUP2 ADD PUSH1 0x40 MSTORE DUP1 SWAP4 SWAP3 SWAP2 SWAP1 DUP2 DUP2 MSTORE PUSH1 0x20 ADD DUP4 DUP4 DUP1 DUP3 DUP5 CALLDATACOPY PUSH1 0x0 DUP2 DUP5 ADD MSTORE PUSH1 0x1F NOT PUSH1 0x1F DUP3 ADD AND SWAP1 POP DUP1 DUP4 ADD SWAP3 POP POP POP POP POP POP POP DUP2 MSTORE PUSH1 0x20 ADD PUSH1 0x0 ISZERO ISZERO DUP2 MSTORE PUSH1 0x20 ADD CALLER PUSH20 0xFFFFFFFFFFFFFFFFFFFFFFFFFFFFFFFFFFFFFFFF AND DUP2 MSTORE POP PUSH1 0x4 PUSH1 0x0 CALLER PUSH20 0xFFFFFFFFFFFFFFFFFFFFFFFFFFFFFFFFFFFFFFFF AND PUSH20 0xFFFFFFFFFFFFFFFFFFFFFFFFFFFFFFFFFFFFFFFF AND DUP2 MSTORE PUSH1 0x20 ADD SWAP1 DUP2 MSTORE PUSH1 0x20 ADD PUSH1 0x0 KECCAK256 PUSH1 0x0 DUP3 ADD MLOAD DUP2 PUSH1 0x0 ADD SWAP1 DUP2 PUSH2 0x767 SWAP2 SWAP1 PUSH2 0x20EC JUMP JUMPDEST POP PUSH1 0x20 DUP3 ADD MLOAD DUP2 PUSH1 0x1 ADD SWAP1 DUP2 PUSH2 0x77D SWAP2 SWAP1 PUSH2 0x20EC JUMP JUMPDEST POP PUSH1 0x40 DUP3 ADD MLOAD DUP2 PUSH1 0x2 ADD SWAP1 DUP2 PUSH2 0x793 SWAP2 SWAP1 PUSH2 0x20EC JUMP JUMPDEST POP PUSH1 0x60 DUP3 ADD MLOAD DUP2 PUSH1 0x3 ADD PUSH1 0x0 PUSH2 0x100 EXP DUP2 SLOAD DUP2 PUSH1 0xFF MUL NOT AND SWAP1 DUP4 ISZERO ISZERO MUL OR SWAP1 SSTORE POP PUSH1 0x80 DUP3 ADD MLOAD DUP2 PUSH1 0x3 ADD PUSH1 0x1 PUSH2 0x100 EXP DUP2 SLOAD DUP2 PUSH20 0xFFFFFFFFFFFFFFFFFFFFFFFFFFFFFFFFFFFFFFFF MUL NOT AND SWAP1 DUP4 PUSH20 0xFFFFFFFFFFFFFFFFFFFFFFFFFFFFFFFFFFFFFFFF AND MUL OR SWAP1 SSTORE POP SWAP1 POP POP POP POP POP POP POP JUMP JUMPDEST PUSH1 0x3 PUSH1 0x20 MSTORE DUP1 PUSH1 0x0 MSTORE PUSH1 0x40 PUSH1 0x0 KECCAK256 PUSH1 0x0 SWAP2 POP SWAP1 POP DUP1 PUSH1 0x0 ADD DUP1 SLOAD PUSH2 0x828 SWAP1 PUSH2 0x1AE3 JUMP JUMPDEST DUP1 PUSH1 0x1F ADD PUSH1 0x20 DUP1 SWAP2 DIV MUL PUSH1 0x20 ADD PUSH1 0x40 MLOAD SWAP1 DUP2 ADD PUSH1 0x40 MSTORE DUP1 SWAP3 SWAP2 SWAP1 DUP2 DUP2 MSTORE PUSH1 0x20 ADD DUP3 DUP1 SLOAD PUSH2 0x854 SWAP1 PUSH2 0x1AE3 JUMP JUMPDEST DUP1 ISZERO PUSH2 0x8A1 JUMPI DUP1 PUSH1 0x1F LT PUSH2 0x876 JUMPI PUSH2 0x100 DUP1 DUP4 SLOAD DIV MUL DUP4 MSTORE SWAP2 PUSH1 0x20 ADD SWAP2 PUSH2 0x8A1 JUMP JUMPDEST DUP3 ADD SWAP2 SWAP1 PUSH1 0x0 MSTORE PUSH1 0x20 PUSH1 0x0 KECCAK256 SWAP1 JUMPDEST DUP2 SLOAD DUP2 MSTORE SWAP1 PUSH1 0x1 ADD SWAP1 PUSH1 0x20 ADD DUP1 DUP4 GT PUSH2 0x884 JUMPI DUP3 SWAP1 SUB PUSH1 0x1F AND DUP3 ADD SWAP2 JUMPDEST POP POP POP POP POP SWAP1 DUP1 PUSH1 0x1 ADD SLOAD SWAP1 DUP1 PUSH1 0x2 ADD DUP1 SLOAD PUSH2 0x8BC SWAP1 PUSH2 0x1AE3 JUMP JUMPDEST DUP1 PUSH1 0x1F ADD PUSH1 0x20 DUP1 SWAP2 DIV MUL PUSH1 0x20 ADD PUSH1 0x40 MLOAD SWAP1 DUP2 ADD PUSH1 0x40 MSTORE DUP1 SWAP3 SWAP2 SWAP1 DUP2 DUP2 MSTORE PUSH1 0x20 ADD DUP3 DUP1 SLOAD PUSH2 0x8E8 SWAP1 PUSH2 0x1AE3 JUMP JUMPDEST DUP1 ISZERO PUSH2 0x935 JUMPI DUP1 PUSH1 0x1F LT PUSH2 0x90A JUMPI PUSH2 0x100 DUP1 DUP4 SLOAD DIV MUL DUP4 MSTORE SWAP2 PUSH1 0x20 ADD SWAP2 PUSH2 0x935 JUMP JUMPDEST DUP3 ADD SWAP2 SWAP1 PUSH1 0x0 MSTORE PUSH1 0x20 PUSH1 0x0 KECCAK256 SWAP1 JUMPDEST DUP2 SLOAD DUP2 MSTORE SWAP1 PUSH1 0x1 ADD SWAP1 PUSH1 0x20 ADD DUP1 DUP4 GT PUSH2 0x918 JUMPI DUP3 SWAP1 SUB PUSH1 0x1F AND DUP3 ADD SWAP2 JUMPDEST POP POP POP POP POP SWAP1 DUP1 PUSH1 0x3 ADD PUSH1 0x0 SWAP1 SLOAD SWAP1 PUSH2 0x100 EXP SWAP1 DIV PUSH1 0xFF AND SWAP1 DUP1 PUSH1 0x3 ADD PUSH1 0x1 SWAP1 SLOAD SWAP1 PUSH2 0x100 EXP SWAP1 DIV PUSH20 0xFFFFFFFFFFFFFFFFFFFFFFFFFFFFFFFFFFFFFFFF AND SWAP1 POP DUP6 JUMP JUMPDEST PUSH1 0x4 PUSH1 0x20 MSTORE DUP1 PUSH1 0x0 MSTORE PUSH1 0x40 PUSH1 0x0 KECCAK256 PUSH1 0x0 SWAP2 POP SWAP1 POP DUP1 PUSH1 0x0 ADD DUP1 SLOAD PUSH2 0x99B SWAP1 PUSH2 0x1AE3 JUMP JUMPDEST DUP1 PUSH1 0x1F ADD PUSH1 0x20 DUP1 SWAP2 DIV MUL PUSH1 0x20 ADD PUSH1 0x40 MLOAD SWAP1 DUP2 ADD PUSH1 0x40 MSTORE DUP1 SWAP3 SWAP2 SWAP1 DUP2 DUP2 MSTORE PUSH1 0x20 ADD DUP3 DUP1 SLOAD PUSH2 0x9C7 SWAP1 PUSH2 0x1AE3 JUMP JUMPDEST DUP1 ISZERO PUSH2 0xA14 JUMPI DUP1 PUSH1 0x1F LT PUSH2 0x9E9 JUMPI PUSH2 0x100 DUP1 DUP4 SLOAD DIV MUL DUP4 MSTORE SWAP2 PUSH1 0x20 ADD SWAP2 PUSH2 0xA14 JUMP JUMPDEST DUP3 ADD SWAP2 SWAP1 PUSH1 0x0 MSTORE PUSH1 0x20 PUSH1 0x0 KECCAK256 SWAP1 JUMPDEST DUP2 SLOAD DUP2 MSTORE SWAP1 PUSH1 0x1 ADD SWAP1 PUSH1 0x20 ADD DUP1 DUP4 GT PUSH2 0x9F7 JUMPI DUP3 SWAP1 SUB PUSH1 0x1F AND DUP3 ADD SWAP2 JUMPDEST POP POP POP POP POP SWAP1 DUP1 PUSH1 0x1 ADD DUP1 SLOAD PUSH2 0xA29 SWAP1 PUSH2 0x1AE3 JUMP JUMPDEST DUP1 PUSH1 0x1F ADD PUSH1 0x20 DUP1 SWAP2 DIV MUL PUSH1 0x20 ADD PUSH1 0x40 MLOAD SWAP1 DUP2 ADD PUSH1 0x40 MSTORE DUP1 SWAP3 SWAP2 SWAP1 DUP2 DUP2 MSTORE PUSH1 0x20 ADD DUP3 DUP1 SLOAD PUSH2 0xA55 SWAP1 PUSH2 0x1AE3 JUMP JUMPDEST DUP1 ISZERO PUSH2 0xAA2 JUMPI DUP1 PUSH1 0x1F LT PUSH2 0xA77 JUMPI PUSH2 0x100 DUP1 DUP4 SLOAD DIV MUL DUP4 MSTORE SWAP2 PUSH1 0x20 ADD SWAP2 PUSH2 0xAA2 JUMP JUMPDEST DUP3 ADD SWAP2 SWAP1 PUSH1 0x0 MSTORE PUSH1 0x20 PUSH1 0x0 KECCAK256 SWAP1 JUMPDEST DUP2 SLOAD DUP2 MSTORE SWAP1 PUSH1 0x1 ADD SWAP1 PUSH1 0x20 ADD DUP1 DUP4 GT PUSH2 0xA85 JUMPI DUP3 SWAP1 SUB PUSH1 0x1F AND DUP3 ADD SWAP2 JUMPDEST POP POP POP POP POP SWAP1 DUP1 PUSH1 0x2 ADD DUP1 SLOAD PUSH2 0xAB7 SWAP1 PUSH2 0x1AE3 JUMP JUMPDEST DUP1 PUSH1 0x1F ADD PUSH1 0x20 DUP1 SWAP2 DIV MUL PUSH1 0x20 ADD PUSH1 0x40 MLOAD SWAP1 DUP2 ADD PUSH1 0x40 MSTORE DUP1 SWAP3 SWAP2 SWAP1 DUP2 DUP2 MSTORE PUSH1 0x20 ADD DUP3 DUP1 SLOAD PUSH2 0xAE3 SWAP1 PUSH2 0x1AE3 JUMP JUMPDEST DUP1 ISZERO PUSH2 0xB30 JUMPI DUP1 PUSH1 0x1F LT PUSH2 0xB05 JUMPI PUSH2 0x100 DUP1 DUP4 SLOAD DIV MUL DUP4 MSTORE SWAP2 PUSH1 0x20 ADD SWAP2 PUSH2 0xB30 JUMP JUMPDEST DUP3 ADD SWAP2 SWAP1 PUSH1 0x0 MSTORE PUSH1 0x20 PUSH1 0x0 KECCAK256 SWAP1 JUMPDEST DUP2 SLOAD DUP2 MSTORE SWAP1 PUSH1 0x1 ADD SWAP1 PUSH1 0x20 ADD DUP1 DUP4 GT PUSH2 0xB13 JUMPI DUP3 SWAP1 SUB PUSH1 0x1F AND DUP3 ADD SWAP2 JUMPDEST POP POP POP POP POP SWAP1 DUP1 PUSH1 0x3 ADD PUSH1 0x0 SWAP1 SLOAD SWAP1 PUSH2 0x100 EXP SWAP1 DIV PUSH1 0xFF AND SWAP1 DUP1 PUSH1 0x3 ADD PUSH1 0x1 SWAP1 SLOAD SWAP1 PUSH2 0x100 EXP SWAP1 DIV PUSH20 0xFFFFFFFFFFFFFFFFFFFFFFFFFFFFFFFFFFFFFFFF AND SWAP1 POP DUP6 JUMP JUMPDEST PUSH2 0xB7B PUSH2 0x151E JUMP JUMPDEST PUSH1 0x11 DUP3 GT PUSH2 0xBBE JUMPI PUSH1 0x40 MLOAD PUSH32 0x8C379A000000000000000000000000000000000000000000000000000000000 DUP2 MSTORE PUSH1 0x4 ADD PUSH2 0xBB5 SWAP1 PUSH2 0x220A JUMP JUMPDEST PUSH1 0x40 MLOAD DUP1 SWAP2 SUB SWAP1 REVERT JUMPDEST PUSH1 0x0 PUSH1 0x3 PUSH1 0x0 CALLER PUSH20 0xFFFFFFFFFFFFFFFFFFFFFFFFFFFFFFFFFFFFFFFF AND PUSH20 0xFFFFFFFFFFFFFFFFFFFFFFFFFFFFFFFFFFFFFFFF AND DUP2 MSTORE PUSH1 0x20 ADD SWAP1 DUP2 MSTORE PUSH1 0x20 ADD PUSH1 0x0 KECCAK256 PUSH1 0x2 ADD DUP1 SLOAD PUSH2 0xC0D SWAP1 PUSH2 0x1AE3 JUMP JUMPDEST SWAP1 POP EQ PUSH2 0xC4F JUMPI PUSH1 0x40 MLOAD PUSH32 0x8C379A000000000000000000000000000000000000000000000000000000000 DUP2 MSTORE PUSH1 0x4 ADD PUSH2 0xC46 SWAP1 PUSH2 0x2276 JUMP JUMPDEST PUSH1 0x40 MLOAD DUP1 SWAP2 SUB SWAP1 REVERT JUMPDEST PUSH1 0x0 PUSH2 0xC5C PUSH1 0x2 SLOAD PUSH2 0x12FD JUMP JUMPDEST PUSH1 0x40 MLOAD PUSH1 0x20 ADD PUSH2 0xC6C SWAP2 SWAP1 PUSH2 0x22BC JUMP JUMPDEST PUSH1 0x40 MLOAD PUSH1 0x20 DUP2 DUP4 SUB SUB DUP2 MSTORE SWAP1 PUSH1 0x40 MSTORE SWAP1 POP PUSH1 0x40 MLOAD DUP1 PUSH1 0xA0 ADD PUSH1 0x40 MSTORE DUP1 DUP7 DUP7 DUP1 DUP1 PUSH1 0x1F ADD PUSH1 0x20 DUP1 SWAP2 DIV MUL PUSH1 0x20 ADD PUSH1 0x40 MLOAD SWAP1 DUP2 ADD PUSH1 0x40 MSTORE DUP1 SWAP4 SWAP3 SWAP2 SWAP1 DUP2 DUP2 MSTORE PUSH1 0x20 ADD DUP4 DUP4 DUP1 DUP3 DUP5 CALLDATACOPY PUSH1 0x0 DUP2 DUP5 ADD MSTORE PUSH1 0x1F NOT PUSH1 0x1F DUP3 ADD AND SWAP1 POP DUP1 DUP4 ADD SWAP3 POP POP POP POP POP POP POP DUP2 MSTORE PUSH1 0x20 ADD DUP5 DUP2 MSTORE PUSH1 0x20 ADD DUP3 DUP2 MSTORE PUSH1 0x20 ADD PUSH1 0x0 ISZERO ISZERO DUP2 MSTORE PUSH1 0x20 ADD CALLER PUSH20 0xFFFFFFFFFFFFFFFFFFFFFFFFFFFFFFFFFFFFFFFF AND DUP2 MSTORE POP PUSH1 0x3 PUSH1 0x0 CALLER PUSH20 0xFFFFFFFFFFFFFFFFFFFFFFFFFFFFFFFFFFFFFFFF AND PUSH20 0xFFFFFFFFFFFFFFFFFFFFFFFFFFFFFFFFFFFFFFFF AND DUP2 MSTORE PUSH1 0x20 ADD SWAP1 DUP2 MSTORE PUSH1 0x20 ADD PUSH1 0x0 KECCAK256 PUSH1 0x0 DUP3 ADD MLOAD DUP2 PUSH1 0x0 ADD SWAP1 DUP2 PUSH2 0xD55 SWAP2 SWAP1 PUSH2 0x20EC JUMP JUMPDEST POP PUSH1 0x20 DUP3 ADD MLOAD DUP2 PUSH1 0x1 ADD SSTORE PUSH1 0x40 DUP3 ADD MLOAD DUP2 PUSH1 0x2 ADD SWAP1 DUP2 PUSH2 0xD75 SWAP2 SWAP1 PUSH2 0x20EC JUMP JUMPDEST POP PUSH1 0x60 DUP3 ADD MLOAD DUP2 PUSH1 0x3 ADD PUSH1 0x0 PUSH2 0x100 EXP DUP2 SLOAD DUP2 PUSH1 0xFF MUL NOT AND SWAP1 DUP4 ISZERO ISZERO MUL OR SWAP1 SSTORE POP PUSH1 0x80 DUP3 ADD MLOAD DUP2 PUSH1 0x3 ADD PUSH1 0x1 PUSH2 0x100 EXP DUP2 SLOAD DUP2 PUSH20 0xFFFFFFFFFFFFFFFFFFFFFFFFFFFFFFFFFFFFFFFF MUL NOT AND SWAP1 DUP4 PUSH20 0xFFFFFFFFFFFFFFFFFFFFFFFFFFFFFFFFFFFFFFFF AND MUL OR SWAP1 SSTORE POP SWAP1 POP POP PUSH1 0x1 PUSH1 0x2 PUSH1 0x0 DUP3 DUP3 SLOAD PUSH2 0xDF3 SWAP2 SWAP1 PUSH2 0x2311 JUMP JUMPDEST SWAP3 POP POP DUP2 SWAP1 SSTORE POP PUSH1 0x3 PUSH1 0x0 CALLER PUSH20 0xFFFFFFFFFFFFFFFFFFFFFFFFFFFFFFFFFFFFFFFF AND PUSH20 0xFFFFFFFFFFFFFFFFFFFFFFFFFFFFFFFFFFFFFFFF AND DUP2 MSTORE PUSH1 0x20 ADD SWAP1 DUP2 MSTORE PUSH1 0x20 ADD PUSH1 0x0 KECCAK256 PUSH1 0x40 MLOAD DUP1 PUSH1 0xA0 ADD PUSH1 0x40 MSTORE SWAP1 DUP2 PUSH1 0x0 DUP3 ADD DUP1 SLOAD PUSH2 0xE54 SWAP1 PUSH2 0x1AE3 JUMP JUMPDEST DUP1 PUSH1 0x1F ADD PUSH1 0x20 DUP1 SWAP2 DIV MUL PUSH1 0x20 ADD PUSH1 0x40 MLOAD SWAP1 DUP2 ADD PUSH1 0x40 MSTORE DUP1 SWAP3 SWAP2 SWAP1 DUP2 DUP2 MSTORE PUSH1 0x20 ADD DUP3 DUP1 SLOAD PUSH2 0xE80 SWAP1 PUSH2 0x1AE3 JUMP JUMPDEST DUP1 ISZERO PUSH2 0xECD JUMPI DUP1 PUSH1 0x1F LT PUSH2 0xEA2 JUMPI PUSH2 0x100 DUP1 DUP4 SLOAD DIV MUL DUP4 MSTORE SWAP2 PUSH1 0x20 ADD SWAP2 PUSH2 0xECD JUMP JUMPDEST DUP3 ADD SWAP2 SWAP1 PUSH1 0x0 MSTORE PUSH1 0x20 PUSH1 0x0 KECCAK256 SWAP1 JUMPDEST DUP2 SLOAD DUP2 MSTORE SWAP1 PUSH1 0x1 ADD SWAP1 PUSH1 0x20 ADD DUP1 DUP4 GT PUSH2 0xEB0 JUMPI DUP3 SWAP1 SUB PUSH1 0x1F AND DUP3 ADD SWAP2 JUMPDEST POP POP POP POP POP DUP2 MSTORE PUSH1 0x20 ADD PUSH1 0x1 DUP3 ADD SLOAD DUP2 MSTORE PUSH1 0x20 ADD PUSH1 0x2 DUP3 ADD DUP1 SLOAD PUSH2 0xEF0 SWAP1 PUSH2 0x1AE3 JUMP JUMPDEST DUP1 PUSH1 0x1F ADD PUSH1 0x20 DUP1 SWAP2 DIV MUL PUSH1 0x20 ADD PUSH1 0x40 MLOAD SWAP1 DUP2 ADD PUSH1 0x40 MSTORE DUP1 SWAP3 SWAP2 SWAP1 DUP2 DUP2 MSTORE PUSH1 0x20 ADD DUP3 DUP1 SLOAD PUSH2 0xF1C SWAP1 PUSH2 0x1AE3 JUMP JUMPDEST DUP1 ISZERO PUSH2 0xF69 JUMPI DUP1 PUSH1 0x1F LT PUSH2 0xF3E JUMPI PUSH2 0x100 DUP1 DUP4 SLOAD DIV MUL DUP4 MSTORE SWAP2 PUSH1 0x20 ADD SWAP2 PUSH2 0xF69 JUMP JUMPDEST DUP3 ADD SWAP2 SWAP1 PUSH1 0x0 MSTORE PUSH1 0x20 PUSH1 0x0 KECCAK256 SWAP1 JUMPDEST DUP2 SLOAD DUP2 MSTORE SWAP1 PUSH1 0x1 ADD SWAP1 PUSH1 0x20 ADD DUP1 DUP4 GT PUSH2 0xF4C JUMPI DUP3 SWAP1 SUB PUSH1 0x1F AND DUP3 ADD SWAP2 JUMPDEST POP POP POP POP POP DUP2 MSTORE PUSH1 0x20 ADD PUSH1 0x3 DUP3 ADD PUSH1 0x0 SWAP1 SLOAD SWAP1 PUSH2 0x100 EXP SWAP1 DIV PUSH1 0xFF AND ISZERO ISZERO ISZERO ISZERO DUP2 MSTORE PUSH1 0x20 ADD PUSH1 0x3 DUP3 ADD PUSH1 0x1 SWAP1 SLOAD SWAP1 PUSH2 0x100 EXP SWAP1 DIV PUSH20 0xFFFFFFFFFFFFFFFFFFFFFFFFFFFFFFFFFFFFFFFF AND PUSH20 0xFFFFFFFFFFFFFFFFFFFFFFFFFFFFFFFFFFFFFFFF AND PUSH20 0xFFFFFFFFFFFFFFFFFFFFFFFFFFFFFFFFFFFFFFFF AND DUP2 MSTORE POP POP SWAP2 POP POP SWAP4 SWAP3 POP POP POP JUMP JUMPDEST PUSH1 0x1 PUSH1 0x0 SWAP1 SLOAD SWAP1 PUSH2 0x100 EXP SWAP1 DIV PUSH20 0xFFFFFFFFFFFFFFFFFFFFFFFFFFFFFFFFFFFFFFFF AND DUP2 JUMP JUMPDEST PUSH1 0x0 PUSH1 0x3 PUSH1 0x0 CALLER PUSH20 0xFFFFFFFFFFFFFFFFFFFFFFFFFFFFFFFFFFFFFFFF AND PUSH20 0xFFFFFFFFFFFFFFFFFFFFFFFFFFFFFFFFFFFFFFFF AND DUP2 MSTORE PUSH1 0x20 ADD SWAP1 DUP2 MSTORE PUSH1 0x20 ADD PUSH1 0x0 KECCAK256 PUSH1 0x3 ADD PUSH1 0x0 SWAP1 SLOAD SWAP1 PUSH2 0x100 EXP SWAP1 DIV PUSH1 0xFF AND SWAP1 POP SWAP1 JUMP JUMPDEST PUSH1 0x0 DUP4 DUP4 PUSH1 0x40 MLOAD PUSH1 0x20 ADD PUSH2 0x107F SWAP3 SWAP2 SWAP1 PUSH2 0x1C51 JUMP JUMPDEST PUSH1 0x40 MLOAD PUSH1 0x20 DUP2 DUP4 SUB SUB DUP2 MSTORE SWAP1 PUSH1 0x40 MSTORE DUP1 MLOAD SWAP1 PUSH1 0x20 ADD KECCAK256 PUSH1 0x4 PUSH1 0x0 DUP5 PUSH20 0xFFFFFFFFFFFFFFFFFFFFFFFFFFFFFFFFFFFFFFFF AND PUSH20 0xFFFFFFFFFFFFFFFFFFFFFFFFFFFFFFFFFFFFFFFF AND DUP2 MSTORE PUSH1 0x20 ADD SWAP1 DUP2 MSTORE PUSH1 0x20 ADD PUSH1 0x0 KECCAK256 PUSH1 0x2 ADD PUSH1 0x40 MLOAD PUSH1 0x20 ADD PUSH2 0x10E7 SWAP2 SWAP1 PUSH2 0x1D02 JUMP JUMPDEST PUSH1 0x40 MLOAD PUSH1 0x20 DUP2 DUP4 SUB SUB DUP2 MSTORE SWAP1 PUSH1 0x40 MSTORE DUP1 MLOAD SWAP1 PUSH1 0x20 ADD KECCAK256 EQ SWAP1 POP SWAP4 SWAP3 POP POP POP JUMP JUMPDEST PUSH2 0x110F PUSH2 0x151E JUMP JUMPDEST PUSH1 0x3 PUSH1 0x0 CALLER PUSH20 0xFFFFFFFFFFFFFFFFFFFFFFFFFFFFFFFFFFFFFFFF AND PUSH20 0xFFFFFFFFFFFFFFFFFFFFFFFFFFFFFFFFFFFFFFFF AND DUP2 MSTORE PUSH1 0x20 ADD SWAP1 DUP2 MSTORE PUSH1 0x20 ADD PUSH1 0x0 KECCAK256 PUSH1 0x40 MLOAD DUP1 PUSH1 0xA0 ADD PUSH1 0x40 MSTORE SWAP1 DUP2 PUSH1 0x0 DUP3 ADD DUP1 SLOAD PUSH2 0x1169 SWAP1 PUSH2 0x1AE3 JUMP JUMPDEST DUP1 PUSH1 0x1F ADD PUSH1 0x20 DUP1 SWAP2 DIV MUL PUSH1 0x20 ADD PUSH1 0x40 MLOAD SWAP1 DUP2 ADD PUSH1 0x40 MSTORE DUP1 SWAP3 SWAP2 SWAP1 DUP2 DUP2 MSTORE PUSH1 0x20 ADD DUP3 DUP1 SLOAD PUSH2 0x1195 SWAP1 PUSH2 0x1AE3 JUMP JUMPDEST DUP1 ISZERO PUSH2 0x11E2 JUMPI DUP1 PUSH1 0x1F LT PUSH2 0x11B7 JUMPI PUSH2 0x100 DUP1 DUP4 SLOAD DIV MUL DUP4 MSTORE SWAP2 PUSH1 0x20 ADD SWAP2 PUSH2 0x11E2 JUMP JUMPDEST DUP3 ADD SWAP2 SWAP1 PUSH1 0x0 MSTORE PUSH1 0x20 PUSH1 0x0 KECCAK256 SWAP1 JUMPDEST DUP2 SLOAD DUP2 MSTORE SWAP1 PUSH1 0x1 ADD SWAP1 PUSH1 0x20 ADD DUP1 DUP4 GT PUSH2 0x11C5 JUMPI DUP3 SWAP1 SUB PUSH1 0x1F AND DUP3 ADD SWAP2 JUMPDEST POP POP POP POP POP DUP2 MSTORE PUSH1 0x20 ADD PUSH1 0x1 DUP3 ADD SLOAD DUP2 MSTORE PUSH1 0x20 ADD PUSH1 0x2 DUP3 ADD DUP1 SLOAD PUSH2 0x1205 SWAP1 PUSH2 0x1AE3 JUMP JUMPDEST DUP1 PUSH1 0x1F ADD PUSH1 0x20 DUP1 SWAP2 DIV MUL PUSH1 0x20 ADD PUSH1 0x40 MLOAD SWAP1 DUP2 ADD PUSH1 0x40 MSTORE DUP1 SWAP3 SWAP2 SWAP1 DUP2 DUP2 MSTORE PUSH1 0x20 ADD DUP3 DUP1 SLOAD PUSH2 0x1231 SWAP1 PUSH2 0x1AE3 JUMP JUMPDEST DUP1 ISZERO PUSH2 0x127E JUMPI DUP1 PUSH1 0x1F LT PUSH2 0x1253 JUMPI PUSH2 0x100 DUP1 DUP4 SLOAD DIV MUL DUP4 MSTORE SWAP2 PUSH1 0x20 ADD SWAP2 PUSH2 0x127E JUMP JUMPDEST DUP3 ADD SWAP2 SWAP1 PUSH1 0x0 MSTORE PUSH1 0x20 PUSH1 0x0 KECCAK256 SWAP1 JUMPDEST DUP2 SLOAD DUP2 MSTORE SWAP1 PUSH1 0x1 ADD SWAP1 PUSH1 0x20 ADD DUP1 DUP4 GT PUSH2 0x1261 JUMPI DUP3 SWAP1 SUB PUSH1 0x1F AND DUP3 ADD SWAP2 JUMPDEST POP POP POP POP POP DUP2 MSTORE PUSH1 0x20 ADD PUSH1 0x3 DUP3 ADD PUSH1 0x0 SWAP1 SLOAD SWAP1 PUSH2 0x100 EXP SWAP1 DIV PUSH1 0xFF AND ISZERO ISZERO ISZERO ISZERO DUP2 MSTORE PUSH1 0x20 ADD PUSH1 0x3 DUP3 ADD PUSH1 0x1 SWAP1 SLOAD SWAP1 PUSH2 0x100 EXP SWAP1 DIV PUSH20 0xFFFFFFFFFFFFFFFFFFFFFFFFFFFFFFFFFFFFFFFF AND PUSH20 0xFFFFFFFFFFFFFFFFFFFFFFFFFFFFFFFFFFFFFFFF AND PUSH20 0xFFFFFFFFFFFFFFFFFFFFFFFFFFFFFFFFFFFFFFFF AND DUP2 MSTORE POP POP SWAP1 POP SWAP1 JUMP JUMPDEST PUSH1 0x60 PUSH1 0x0 PUSH1 0x1 PUSH2 0x130C DUP5 PUSH2 0x13CB JUMP JUMPDEST ADD SWAP1 POP PUSH1 0x0 DUP2 PUSH8 0xFFFFFFFFFFFFFFFF DUP2 GT ISZERO PUSH2 0x132B JUMPI PUSH2 0x132A PUSH2 0x1F26 JUMP JUMPDEST JUMPDEST PUSH1 0x40 MLOAD SWAP1 DUP1 DUP3 MSTORE DUP1 PUSH1 0x1F ADD PUSH1 0x1F NOT AND PUSH1 0x20 ADD DUP3 ADD PUSH1 0x40 MSTORE DUP1 ISZERO PUSH2 0x135D JUMPI DUP2 PUSH1 0x20 ADD PUSH1 0x1 DUP3 MUL DUP1 CALLDATASIZE DUP4 CALLDATACOPY DUP1 DUP3 ADD SWAP2 POP POP SWAP1 POP JUMPDEST POP SWAP1 POP PUSH1 0x0 DUP3 PUSH1 0x20 ADD DUP3 ADD SWAP1 POP JUMPDEST PUSH1 0x1 ISZERO PUSH2 0x13C0 JUMPI DUP1 DUP1 PUSH1 0x1 SWAP1 SUB SWAP2 POP POP PUSH32 0x3031323334353637383961626364656600000000000000000000000000000000 PUSH1 0xA DUP7 MOD BYTE DUP2 MSTORE8 PUSH1 0xA DUP6 DUP2 PUSH2 0x13B4 JUMPI PUSH2 0x13B3 PUSH2 0x2345 JUMP JUMPDEST JUMPDEST DIV SWAP5 POP PUSH1 0x0 DUP6 SUB PUSH2 0x136B JUMPI JUMPDEST DUP2 SWAP4 POP POP POP POP SWAP2 SWAP1 POP JUMP JUMPDEST PUSH1 0x0 DUP1 PUSH1 0x0 SWAP1 POP PUSH27 0x184F03E93FF9F4DAA797ED6E38ED64BF6A1F010000000000000000 DUP4 LT PUSH2 0x1429 JUMPI PUSH27 0x184F03E93FF9F4DAA797ED6E38ED64BF6A1F010000000000000000 DUP4 DUP2 PUSH2 0x141F JUMPI PUSH2 0x141E PUSH2 0x2345 JUMP JUMPDEST JUMPDEST DIV SWAP3 POP PUSH1 0x40 DUP2 ADD SWAP1 POP JUMPDEST PUSH14 0x4EE2D6D415B85ACEF8100000000 DUP4 LT PUSH2 0x1466 JUMPI PUSH14 0x4EE2D6D415B85ACEF8100000000 DUP4 DUP2 PUSH2 0x145C JUMPI PUSH2 0x145B PUSH2 0x2345 JUMP JUMPDEST JUMPDEST DIV SWAP3 POP PUSH1 0x20 DUP2 ADD SWAP1 POP JUMPDEST PUSH7 0x2386F26FC10000 DUP4 LT PUSH2 0x1495 JUMPI PUSH7 0x2386F26FC10000 DUP4 DUP2 PUSH2 0x148B JUMPI PUSH2 0x148A PUSH2 0x2345 JUMP JUMPDEST JUMPDEST DIV SWAP3 POP PUSH1 0x10 DUP2 ADD SWAP1 POP JUMPDEST PUSH4 0x5F5E100 DUP4 LT PUSH2 0x14BE JUMPI PUSH4 0x5F5E100 DUP4 DUP2 PUSH2 0x14B4 JUMPI PUSH2 0x14B3 PUSH2 0x2345 JUMP JUMPDEST JUMPDEST DIV SWAP3 POP PUSH1 0x8 DUP2 ADD SWAP1 POP JUMPDEST PUSH2 0x2710 DUP4 LT PUSH2 0x14E3 JUMPI PUSH2 0x2710 DUP4 DUP2 PUSH2 0x14D9 JUMPI PUSH2 0x14D8 PUSH2 0x2345 JUMP JUMPDEST JUMPDEST DIV SWAP3 POP PUSH1 0x4 DUP2 ADD SWAP1 POP JUMPDEST PUSH1 0x64 DUP4 LT PUSH2 0x1506 JUMPI PUSH1 0x64 DUP4 DUP2 PUSH2 0x14FC JUMPI PUSH2 0x14FB PUSH2 0x2345 JUMP JUMPDEST JUMPDEST DIV SWAP3 POP PUSH1 0x2 DUP2 ADD SWAP1 POP JUMPDEST PUSH1 0xA DUP4 LT PUSH2 0x1515 JUMPI PUSH1 0x1 DUP2 ADD SWAP1 POP JUMPDEST DUP1 SWAP2 POP POP SWAP2 SWAP1 POP JUMP JUMPDEST PUSH1 0x40 MLOAD DUP1 PUSH1 0xA0 ADD PUSH1 0x40 MSTORE DUP1 PUSH1 0x60 DUP2 MSTORE PUSH1 0x20 ADD PUSH1 0x0 DUP2 MSTORE PUSH1 0x20 ADD PUSH1 0x60 DUP2 MSTORE PUSH1 0x20 ADD PUSH1 0x0 ISZERO ISZERO DUP2 MSTORE PUSH1 0x20 ADD PUSH1 0x0 PUSH20 0xFFFFFFFFFFFFFFFFFFFFFFFFFFFFFFFFFFFFFFFF AND DUP2 MSTORE POP SWAP1 JUMP JUMPDEST PUSH1 0x0 PUSH20 0xFFFFFFFFFFFFFFFFFFFFFFFFFFFFFFFFFFFFFFFF DUP3 AND SWAP1 POP SWAP2 SWAP1 POP JUMP JUMPDEST PUSH1 0x0 PUSH2 0x1590 DUP3 PUSH2 0x1565 JUMP JUMPDEST SWAP1 POP SWAP2 SWAP1 POP JUMP JUMPDEST PUSH2 0x15A0 DUP2 PUSH2 0x1585 JUMP JUMPDEST DUP3 MSTORE POP POP JUMP JUMPDEST PUSH1 0x0 PUSH1 0x20 DUP3 ADD SWAP1 POP PUSH2 0x15BB PUSH1 0x0 DUP4 ADD DUP5 PUSH2 0x1597 JUMP JUMPDEST SWAP3 SWAP2 POP POP JUMP JUMPDEST PUSH1 0x0 DUP1 REVERT JUMPDEST PUSH1 0x0 DUP1 REVERT JUMPDEST PUSH1 0x0 DUP1 REVERT JUMPDEST PUSH1 0x0 DUP1 REVERT JUMPDEST PUSH1 0x0 DUP1 REVERT JUMPDEST PUSH1 0x0 DUP1 DUP4 PUSH1 0x1F DUP5 ADD SLT PUSH2 0x15F0 JUMPI PUSH2 0x15EF PUSH2 0x15CB JUMP JUMPDEST JUMPDEST DUP3 CALLDATALOAD SWAP1 POP PUSH8 0xFFFFFFFFFFFFFFFF DUP2 GT ISZERO PUSH2 0x160D JUMPI PUSH2 0x160C PUSH2 0x15D0 JUMP JUMPDEST JUMPDEST PUSH1 0x20 DUP4 ADD SWAP2 POP DUP4 PUSH1 0x1 DUP3 MUL DUP4 ADD GT ISZERO PUSH2 0x1629 JUMPI PUSH2 0x1628 PUSH2 0x15D5 JUMP JUMPDEST JUMPDEST SWAP3 POP SWAP3 SWAP1 POP JUMP JUMPDEST PUSH2 0x1639 DUP2 PUSH2 0x1585 JUMP JUMPDEST DUP2 EQ PUSH2 0x1644 JUMPI PUSH1 0x0 DUP1 REVERT JUMPDEST POP JUMP JUMPDEST PUSH1 0x0 DUP2 CALLDATALOAD SWAP1 POP PUSH2 0x1656 DUP2 PUSH2 0x1630 JUMP JUMPDEST SWAP3 SWAP2 POP POP JUMP JUMPDEST PUSH1 0x0 DUP1 PUSH1 0x0 PUSH1 0x40 DUP5 DUP7 SUB SLT ISZERO PUSH2 0x1675 JUMPI PUSH2 0x1674 PUSH2 0x15C1 JUMP JUMPDEST JUMPDEST PUSH1 0x0 DUP5 ADD CALLDATALOAD PUSH8 0xFFFFFFFFFFFFFFFF DUP2 GT ISZERO PUSH2 0x1693 JUMPI PUSH2 0x1692 PUSH2 0x15C6 JUMP JUMPDEST JUMPDEST PUSH2 0x169F DUP7 DUP3 DUP8 ADD PUSH2 0x15DA JUMP JUMPDEST SWAP4 POP SWAP4 POP POP PUSH1 0x20 PUSH2 0x16B2 DUP7 DUP3 DUP8 ADD PUSH2 0x1647 JUMP JUMPDEST SWAP2 POP POP SWAP3 POP SWAP3 POP SWAP3 JUMP JUMPDEST PUSH1 0x0 DUP1 PUSH1 0x0 DUP1 PUSH1 0x40 DUP6 DUP8 SUB SLT ISZERO PUSH2 0x16D6 JUMPI PUSH2 0x16D5 PUSH2 0x15C1 JUMP JUMPDEST JUMPDEST PUSH1 0x0 DUP6 ADD CALLDATALOAD PUSH8 0xFFFFFFFFFFFFFFFF DUP2 GT ISZERO PUSH2 0x16F4 JUMPI PUSH2 0x16F3 PUSH2 0x15C6 JUMP JUMPDEST JUMPDEST PUSH2 0x1700 DUP8 DUP3 DUP9 ADD PUSH2 0x15DA JUMP JUMPDEST SWAP5 POP SWAP5 POP POP PUSH1 0x20 DUP6 ADD CALLDATALOAD PUSH8 0xFFFFFFFFFFFFFFFF DUP2 GT ISZERO PUSH2 0x1723 JUMPI PUSH2 0x1722 PUSH2 0x15C6 JUMP JUMPDEST JUMPDEST PUSH2 0x172F DUP8 DUP3 DUP9 ADD PUSH2 0x15DA JUMP JUMPDEST SWAP3 POP SWAP3 POP POP SWAP3 SWAP6 SWAP2 SWAP5 POP SWAP3 POP JUMP JUMPDEST PUSH1 0x0 PUSH1 0x20 DUP3 DUP5 SUB SLT ISZERO PUSH2 0x1753 JUMPI PUSH2 0x1752 PUSH2 0x15C1 JUMP JUMPDEST JUMPDEST PUSH1 0x0 PUSH2 0x1761 DUP5 DUP3 DUP6 ADD PUSH2 0x1647 JUMP JUMPDEST SWAP2 POP POP SWAP3 SWAP2 POP POP JUMP JUMPDEST PUSH1 0x0 DUP2 MLOAD SWAP1 POP SWAP2 SWAP1 POP JUMP JUMPDEST PUSH1 0x0 DUP3 DUP3 MSTORE PUSH1 0x20 DUP3 ADD SWAP1 POP SWAP3 SWAP2 POP POP JUMP JUMPDEST PUSH1 0x0 JUMPDEST DUP4 DUP2 LT ISZERO PUSH2 0x17A4 JUMPI DUP1 DUP3 ADD MLOAD DUP2 DUP5 ADD MSTORE PUSH1 0x20 DUP2 ADD SWAP1 POP PUSH2 0x1789 JUMP JUMPDEST PUSH1 0x0 DUP5 DUP5 ADD MSTORE POP POP POP POP JUMP JUMPDEST PUSH1 0x0 PUSH1 0x1F NOT PUSH1 0x1F DUP4 ADD AND SWAP1 POP SWAP2 SWAP1 POP JUMP JUMPDEST PUSH1 0x0 PUSH2 0x17CC DUP3 PUSH2 0x176A JUMP JUMPDEST PUSH2 0x17D6 DUP2 DUP6 PUSH2 0x1775 JUMP JUMPDEST SWAP4 POP PUSH2 0x17E6 DUP2 DUP6 PUSH1 0x20 DUP7 ADD PUSH2 0x1786 JUMP JUMPDEST PUSH2 0x17EF DUP2 PUSH2 0x17B0 JUMP JUMPDEST DUP5 ADD SWAP2 POP POP SWAP3 SWAP2 POP POP JUMP JUMPDEST PUSH1 0x0 DUP2 SWAP1 POP SWAP2 SWAP1 POP JUMP JUMPDEST PUSH2 0x180D DUP2 PUSH2 0x17FA JUMP JUMPDEST DUP3 MSTORE POP POP JUMP JUMPDEST PUSH1 0x0 DUP2 ISZERO ISZERO SWAP1 POP SWAP2 SWAP1 POP JUMP JUMPDEST PUSH2 0x1828 DUP2 PUSH2 0x1813 JUMP JUMPDEST DUP3 MSTORE POP POP JUMP JUMPDEST PUSH1 0x0 PUSH1 0xA0 DUP3 ADD SWAP1 POP DUP2 DUP2 SUB PUSH1 0x0 DUP4 ADD MSTORE PUSH2 0x1848 DUP2 DUP9 PUSH2 0x17C1 JUMP JUMPDEST SWAP1 POP PUSH2 0x1857 PUSH1 0x20 DUP4 ADD DUP8 PUSH2 0x1804 JUMP JUMPDEST DUP2 DUP2 SUB PUSH1 0x40 DUP4 ADD MSTORE PUSH2 0x1869 DUP2 DUP7 PUSH2 0x17C1 JUMP JUMPDEST SWAP1 POP PUSH2 0x1878 PUSH1 0x60 DUP4 ADD DUP6 PUSH2 0x181F JUMP JUMPDEST PUSH2 0x1885 PUSH1 0x80 DUP4 ADD DUP5 PUSH2 0x1597 JUMP JUMPDEST SWAP7 SWAP6 POP POP POP POP POP POP JUMP JUMPDEST PUSH1 0x0 PUSH1 0xA0 DUP3 ADD SWAP1 POP DUP2 DUP2 SUB PUSH1 0x0 DUP4 ADD MSTORE PUSH2 0x18A9 DUP2 DUP9 PUSH2 0x17C1 JUMP JUMPDEST SWAP1 POP DUP2 DUP2 SUB PUSH1 0x20 DUP4 ADD MSTORE PUSH2 0x18BD DUP2 DUP8 PUSH2 0x17C1 JUMP JUMPDEST SWAP1 POP DUP2 DUP2 SUB PUSH1 0x40 DUP4 ADD MSTORE PUSH2 0x18D1 DUP2 DUP7 PUSH2 0x17C1 JUMP JUMPDEST SWAP1 POP PUSH2 0x18E0 PUSH1 0x60 DUP4 ADD DUP6 PUSH2 0x181F JUMP JUMPDEST PUSH2 0x18ED PUSH1 0x80 DUP4 ADD DUP5 PUSH2 0x1597 JUMP JUMPDEST SWAP7 SWAP6 POP POP POP POP POP POP JUMP JUMPDEST PUSH2 0x1900 DUP2 PUSH2 0x17FA JUMP JUMPDEST DUP2 EQ PUSH2 0x190B JUMPI PUSH1 0x0 DUP1 REVERT JUMPDEST POP JUMP JUMPDEST PUSH1 0x0 DUP2 CALLDATALOAD SWAP1 POP PUSH2 0x191D DUP2 PUSH2 0x18F7 JUMP JUMPDEST SWAP3 SWAP2 POP POP JUMP JUMPDEST PUSH1 0x0 DUP1 PUSH1 0x0 PUSH1 0x40 DUP5 DUP7 SUB SLT ISZERO PUSH2 0x193C JUMPI PUSH2 0x193B PUSH2 0x15C1 JUMP JUMPDEST JUMPDEST PUSH1 0x0 DUP5 ADD CALLDATALOAD PUSH8 0xFFFFFFFFFFFFFFFF DUP2 GT ISZERO PUSH2 0x195A JUMPI PUSH2 0x1959 PUSH2 0x15C6 JUMP JUMPDEST JUMPDEST PUSH2 0x1966 DUP7 DUP3 DUP8 ADD PUSH2 0x15DA JUMP JUMPDEST SWAP4 POP SWAP4 POP POP PUSH1 0x20 PUSH2 0x1979 DUP7 DUP3 DUP8 ADD PUSH2 0x190E JUMP JUMPDEST SWAP2 POP POP SWAP3 POP SWAP3 POP SWAP3 JUMP JUMPDEST PUSH1 0x0 DUP3 DUP3 MSTORE PUSH1 0x20 DUP3 ADD SWAP1 POP SWAP3 SWAP2 POP POP JUMP JUMPDEST PUSH1 0x0 PUSH2 0x199F DUP3 PUSH2 0x176A JUMP JUMPDEST PUSH2 0x19A9 DUP2 DUP6 PUSH2 0x1983 JUMP JUMPDEST SWAP4 POP PUSH2 0x19B9 DUP2 DUP6 PUSH1 0x20 DUP7 ADD PUSH2 0x1786 JUMP JUMPDEST PUSH2 0x19C2 DUP2 PUSH2 0x17B0 JUMP JUMPDEST DUP5 ADD SWAP2 POP POP SWAP3 SWAP2 POP POP JUMP JUMPDEST PUSH2 0x19D6 DUP2 PUSH2 0x17FA JUMP JUMPDEST DUP3 MSTORE POP POP JUMP JUMPDEST PUSH2 0x19E5 DUP2 PUSH2 0x1813 JUMP JUMPDEST DUP3 MSTORE POP POP JUMP JUMPDEST PUSH2 0x19F4 DUP2 PUSH2 0x1585 JUMP JUMPDEST DUP3 MSTORE POP POP JUMP JUMPDEST PUSH1 0x0 PUSH1 0xA0 DUP4 ADD PUSH1 0x0 DUP4 ADD MLOAD DUP5 DUP3 SUB PUSH1 0x0 DUP7 ADD MSTORE PUSH2 0x1A17 DUP3 DUP3 PUSH2 0x1994 JUMP JUMPDEST SWAP2 POP POP PUSH1 0x20 DUP4 ADD MLOAD PUSH2 0x1A2C PUSH1 0x20 DUP7 ADD DUP3 PUSH2 0x19CD JUMP JUMPDEST POP PUSH1 0x40 DUP4 ADD MLOAD DUP5 DUP3 SUB PUSH1 0x40 DUP7 ADD MSTORE PUSH2 0x1A44 DUP3 DUP3 PUSH2 0x1994 JUMP JUMPDEST SWAP2 POP POP PUSH1 0x60 DUP4 ADD MLOAD PUSH2 0x1A59 PUSH1 0x60 DUP7 ADD DUP3 PUSH2 0x19DC JUMP JUMPDEST POP PUSH1 0x80 DUP4 ADD MLOAD PUSH2 0x1A6C PUSH1 0x80 DUP7 ADD DUP3 PUSH2 0x19EB JUMP JUMPDEST POP DUP1 SWAP2 POP POP SWAP3 SWAP2 POP POP JUMP JUMPDEST PUSH1 0x0 PUSH1 0x20 DUP3 ADD SWAP1 POP DUP2 DUP2 SUB PUSH1 0x0 DUP4 ADD MSTORE PUSH2 0x1A91 DUP2 DUP5 PUSH2 0x19FA JUMP JUMPDEST SWAP1 POP SWAP3 SWAP2 POP POP JUMP JUMPDEST PUSH1 0x0 PUSH1 0x20 DUP3 ADD SWAP1 POP PUSH2 0x1AAE PUSH1 0x0 DUP4 ADD DUP5 PUSH2 0x181F JUMP JUMPDEST SWAP3 SWAP2 POP POP JUMP JUMPDEST PUSH32 0x4E487B7100000000000000000000000000000000000000000000000000000000 PUSH1 0x0 MSTORE PUSH1 0x22 PUSH1 0x4 MSTORE PUSH1 0x24 PUSH1 0x0 REVERT JUMPDEST PUSH1 0x0 PUSH1 0x2 DUP3 DIV SWAP1 POP PUSH1 0x1 DUP3 AND DUP1 PUSH2 0x1AFB JUMPI PUSH1 0x7F DUP3 AND SWAP2 POP JUMPDEST PUSH1 0x20 DUP3 LT DUP2 SUB PUSH2 0x1B0E JUMPI PUSH2 0x1B0D PUSH2 0x1AB4 JUMP JUMPDEST JUMPDEST POP SWAP2 SWAP1 POP JUMP JUMPDEST PUSH32 0x746869732061646472657373206973206E6F74206120636F6F7264696E61746F PUSH1 0x0 DUP3 ADD MSTORE PUSH32 0x7200000000000000000000000000000000000000000000000000000000000000 PUSH1 0x20 DUP3 ADD MSTORE POP JUMP JUMPDEST PUSH1 0x0 PUSH2 0x1B70 PUSH1 0x21 DUP4 PUSH2 0x1775 JUMP JUMPDEST SWAP2 POP PUSH2 0x1B7B DUP3 PUSH2 0x1B14 JUMP JUMPDEST PUSH1 0x40 DUP3 ADD SWAP1 POP SWAP2 SWAP1 POP JUMP JUMPDEST PUSH1 0x0 PUSH1 0x20 DUP3 ADD SWAP1 POP DUP2 DUP2 SUB PUSH1 0x0 DUP4 ADD MSTORE PUSH2 0x1B9F DUP2 PUSH2 0x1B63 JUMP JUMPDEST SWAP1 POP SWAP2 SWAP1 POP JUMP JUMPDEST PUSH32 0x546869732075736572206973206E6F7420616E2061646D696E00000000000000 PUSH1 0x0 DUP3 ADD MSTORE POP JUMP JUMPDEST PUSH1 0x0 PUSH2 0x1BDC PUSH1 0x19 DUP4 PUSH2 0x1775 JUMP JUMPDEST SWAP2 POP PUSH2 0x1BE7 DUP3 PUSH2 0x1BA6 JUMP JUMPDEST PUSH1 0x20 DUP3 ADD SWAP1 POP SWAP2 SWAP1 POP JUMP JUMPDEST PUSH1 0x0 PUSH1 0x20 DUP3 ADD SWAP1 POP DUP2 DUP2 SUB PUSH1 0x0 DUP4 ADD MSTORE PUSH2 0x1C0B DUP2 PUSH2 0x1BCF JUMP JUMPDEST SWAP1 POP SWAP2 SWAP1 POP JUMP JUMPDEST PUSH1 0x0 DUP2 SWAP1 POP SWAP3 SWAP2 POP POP JUMP JUMPDEST DUP3 DUP2 DUP4 CALLDATACOPY PUSH1 0x0 DUP4 DUP4 ADD MSTORE POP POP POP JUMP JUMPDEST PUSH1 0x0 PUSH2 0x1C38 DUP4 DUP6 PUSH2 0x1C12 JUMP JUMPDEST SWAP4 POP PUSH2 0x1C45 DUP4 DUP6 DUP5 PUSH2 0x1C1D JUMP JUMPDEST DUP3 DUP5 ADD SWAP1 POP SWAP4 SWAP3 POP POP POP JUMP JUMPDEST PUSH1 0x0 PUSH2 0x1C5E DUP3 DUP5 DUP7 PUSH2 0x1C2C JUMP JUMPDEST SWAP2 POP DUP2 SWAP1 POP SWAP4 SWAP3 POP POP POP JUMP JUMPDEST PUSH1 0x0 DUP2 SWAP1 POP DUP2 PUSH1 0x0 MSTORE PUSH1 0x20 PUSH1 0x0 KECCAK256 SWAP1 POP SWAP2 SWAP1 POP JUMP JUMPDEST PUSH1 0x0 DUP2 SLOAD PUSH2 0x1C8C DUP2 PUSH2 0x1AE3 JUMP JUMPDEST PUSH2 0x1C96 DUP2 DUP7 PUSH2 0x1C12 JUMP JUMPDEST SWAP5 POP PUSH1 0x1 DUP3 AND PUSH1 0x0 DUP2 EQ PUSH2 0x1CB1 JUMPI PUSH1 0x1 DUP2 EQ PUSH2 0x1CC6 JUMPI PUSH2 0x1CF9 JUMP JUMPDEST PUSH1 0xFF NOT DUP4 AND DUP7 MSTORE DUP2 ISZERO ISZERO DUP3 MUL DUP7 ADD SWAP4 POP PUSH2 0x1CF9 JUMP JUMPDEST PUSH2 0x1CCF DUP6 PUSH2 0x1C6A JUMP JUMPDEST PUSH1 0x0 JUMPDEST DUP4 DUP2 LT ISZERO PUSH2 0x1CF1 JUMPI DUP2 SLOAD DUP2 DUP10 ADD MSTORE PUSH1 0x1 DUP3 ADD SWAP2 POP PUSH1 0x20 DUP2 ADD SWAP1 POP PUSH2 0x1CD2 JUMP JUMPDEST DUP4 DUP9 ADD SWAP6 POP POP POP JUMPDEST POP POP POP SWAP3 SWAP2 POP POP JUMP JUMPDEST PUSH1 0x0 PUSH2 0x1D0E DUP3 DUP5 PUSH2 0x1C7F JUMP JUMPDEST SWAP2 POP DUP2 SWAP1 POP SWAP3 SWAP2 POP POP JUMP JUMPDEST PUSH32 0x546869732075736572206861732061646D696E2072696768747320746F207468 PUSH1 0x0 DUP3 ADD MSTORE PUSH32 0x697320656C656374696F6E000000000000000000000000000000000000000000 PUSH1 0x20 DUP3 ADD MSTORE POP JUMP JUMPDEST PUSH1 0x0 PUSH2 0x1D75 PUSH1 0x2B DUP4 PUSH2 0x1775 JUMP JUMPDEST SWAP2 POP PUSH2 0x1D80 DUP3 PUSH2 0x1D19 JUMP JUMPDEST PUSH1 0x40 DUP3 ADD SWAP1 POP SWAP2 SWAP1 POP JUMP JUMPDEST PUSH1 0x0 PUSH1 0x20 DUP3 ADD SWAP1 POP DUP2 DUP2 SUB PUSH1 0x0 DUP4 ADD MSTORE PUSH2 0x1DA4 DUP2 PUSH2 0x1D68 JUMP JUMPDEST SWAP1 POP SWAP2 SWAP1 POP JUMP JUMPDEST PUSH32 0x54686973206164647265737320697320616E2061646D696E0000000000000000 PUSH1 0x0 DUP3 ADD MSTORE POP JUMP JUMPDEST PUSH1 0x0 PUSH2 0x1DE1 PUSH1 0x18 DUP4 PUSH2 0x1775 JUMP JUMPDEST SWAP2 POP PUSH2 0x1DEC DUP3 PUSH2 0x1DAB JUMP JUMPDEST PUSH1 0x20 DUP3 ADD SWAP1 POP SWAP2 SWAP1 POP JUMP JUMPDEST PUSH1 0x0 PUSH1 0x20 DUP3 ADD SWAP1 POP DUP2 DUP2 SUB PUSH1 0x0 DUP4 ADD MSTORE PUSH2 0x1E10 DUP2 PUSH2 0x1DD4 JUMP JUMPDEST SWAP1 POP SWAP2 SWAP1 POP JUMP JUMPDEST PUSH32 0x54686973206164647265737320686173206D6F74206265656E20726567697374 PUSH1 0x0 DUP3 ADD MSTORE PUSH32 0x6572656420696E2074686520656C6563746F72616C2070726F63657373000000 PUSH1 0x20 DUP3 ADD MSTORE POP JUMP JUMPDEST PUSH1 0x0 PUSH2 0x1E73 PUSH1 0x3D DUP4 PUSH2 0x1775 JUMP JUMPDEST SWAP2 POP PUSH2 0x1E7E DUP3 PUSH2 0x1E17 JUMP JUMPDEST PUSH1 0x40 DUP3 ADD SWAP1 POP SWAP2 SWAP1 POP JUMP JUMPDEST PUSH1 0x0 PUSH1 0x20 DUP3 ADD SWAP1 POP DUP2 DUP2 SUB PUSH1 0x0 DUP4 ADD MSTORE PUSH2 0x1EA2 DUP2 PUSH2 0x1E66 JUMP JUMPDEST SWAP1 POP SWAP2 SWAP1 POP JUMP JUMPDEST PUSH32 0x434F440000000000000000000000000000000000000000000000000000000000 DUP2 MSTORE POP JUMP JUMPDEST PUSH1 0x0 PUSH2 0x1EDA DUP3 PUSH2 0x176A JUMP JUMPDEST PUSH2 0x1EE4 DUP2 DUP6 PUSH2 0x1C12 JUMP JUMPDEST SWAP4 POP PUSH2 0x1EF4 DUP2 DUP6 PUSH1 0x20 DUP7 ADD PUSH2 0x1786 JUMP JUMPDEST DUP1 DUP5 ADD SWAP2 POP POP SWAP3 SWAP2 POP POP JUMP JUMPDEST PUSH1 0x0 PUSH2 0x1F0B DUP3 PUSH2 0x1EA9 JUMP JUMPDEST PUSH1 0x3 DUP3 ADD SWAP2 POP PUSH2 0x1F1B DUP3 DUP5 PUSH2 0x1ECF JUMP JUMPDEST SWAP2 POP DUP2 SWAP1 POP SWAP3 SWAP2 POP POP JUMP JUMPDEST PUSH32 0x4E487B7100000000000000000000000000000000000000000000000000000000 PUSH1 0x0 MSTORE PUSH1 0x41 PUSH1 0x4 MSTORE PUSH1 0x24 PUSH1 0x0 REVERT JUMPDEST PUSH1 0x0 PUSH1 0x20 PUSH1 0x1F DUP4 ADD DIV SWAP1 POP SWAP2 SWAP1 POP JUMP JUMPDEST PUSH1 0x0 DUP3 DUP3 SHL SWAP1 POP SWAP3 SWAP2 POP POP JUMP JUMPDEST PUSH1 0x0 PUSH1 0x8 DUP4 MUL PUSH2 0x1FA2 PUSH32 0xFFFFFFFFFFFFFFFFFFFFFFFFFFFFFFFFFFFFFFFFFFFFFFFFFFFFFFFFFFFFFFFF DUP3 PUSH2 0x1F65 JUMP JUMPDEST PUSH2 0x1FAC DUP7 DUP4 PUSH2 0x1F65 JUMP JUMPDEST SWAP6 POP DUP1 NOT DUP5 AND SWAP4 POP DUP1 DUP7 AND DUP5 OR SWAP3 POP POP POP SWAP4 SWAP3 POP POP POP JUMP JUMPDEST PUSH1 0x0 DUP2 SWAP1 POP SWAP2 SWAP1 POP JUMP JUMPDEST PUSH1 0x0 PUSH2 0x1FE9 PUSH2 0x1FE4 PUSH2 0x1FDF DUP5 PUSH2 0x17FA JUMP JUMPDEST PUSH2 0x1FC4 JUMP JUMPDEST PUSH2 0x17FA JUMP JUMPDEST SWAP1 POP SWAP2 SWAP1 POP JUMP JUMPDEST PUSH1 0x0 DUP2 SWAP1 POP SWAP2 SWAP1 POP JUMP JUMPDEST PUSH2 0x2003 DUP4 PUSH2 0x1FCE JUMP JUMPDEST PUSH2 0x2017 PUSH2 0x200F DUP3 PUSH2 0x1FF0 JUMP JUMPDEST DUP5 DUP5 SLOAD PUSH2 0x1F72 JUMP JUMPDEST DUP3 SSTORE POP POP POP POP JUMP JUMPDEST PUSH1 0x0 SWAP1 JUMP JUMPDEST PUSH2 0x202C PUSH2 0x201F JUMP JUMPDEST PUSH2 0x2037 DUP2 DUP5 DUP5 PUSH2 0x1FFA JUMP JUMPDEST POP POP POP JUMP JUMPDEST JUMPDEST DUP2 DUP2 LT ISZERO PUSH2 0x205B JUMPI PUSH2 0x2050 PUSH1 0x0 DUP3 PUSH2 0x2024 JUMP JUMPDEST PUSH1 0x1 DUP2 ADD SWAP1 POP PUSH2 0x203D JUMP JUMPDEST POP POP JUMP JUMPDEST PUSH1 0x1F DUP3 GT ISZERO PUSH2 0x20A0 JUMPI PUSH2 0x2071 DUP2 PUSH2 0x1C6A JUMP JUMPDEST PUSH2 0x207A DUP5 PUSH2 0x1F55 JUMP JUMPDEST DUP2 ADD PUSH1 0x20 DUP6 LT ISZERO PUSH2 0x2089 JUMPI DUP2 SWAP1 POP JUMPDEST PUSH2 0x209D PUSH2 0x2095 DUP6 PUSH2 0x1F55 JUMP JUMPDEST DUP4 ADD DUP3 PUSH2 0x203C JUMP JUMPDEST POP POP JUMPDEST POP POP POP JUMP JUMPDEST PUSH1 0x0 DUP3 DUP3 SHR SWAP1 POP SWAP3 SWAP2 POP POP JUMP JUMPDEST PUSH1 0x0 PUSH2 0x20C3 PUSH1 0x0 NOT DUP5 PUSH1 0x8 MUL PUSH2 0x20A5 JUMP JUMPDEST NOT DUP1 DUP4 AND SWAP2 POP POP SWAP3 SWAP2 POP POP JUMP JUMPDEST PUSH1 0x0 PUSH2 0x20DC DUP4 DUP4 PUSH2 0x20B2 JUMP JUMPDEST SWAP2 POP DUP3 PUSH1 0x2 MUL DUP3 OR SWAP1 POP SWAP3 SWAP2 POP POP JUMP JUMPDEST PUSH2 0x20F5 DUP3 PUSH2 0x176A JUMP JUMPDEST PUSH8 0xFFFFFFFFFFFFFFFF DUP2 GT ISZERO PUSH2 0x210E JUMPI PUSH2 0x210D PUSH2 0x1F26 JUMP JUMPDEST JUMPDEST PUSH2 0x2118 DUP3 SLOAD PUSH2 0x1AE3 JUMP JUMPDEST PUSH2 0x2123 DUP3 DUP3 DUP6 PUSH2 0x205F JUMP JUMPDEST PUSH1 0x0 PUSH1 0x20 SWAP1 POP PUSH1 0x1F DUP4 GT PUSH1 0x1 DUP2 EQ PUSH2 0x2156 JUMPI PUSH1 0x0 DUP5 ISZERO PUSH2 0x2144 JUMPI DUP3 DUP8 ADD MLOAD SWAP1 POP JUMPDEST PUSH2 0x214E DUP6 DUP3 PUSH2 0x20D0 JUMP JUMPDEST DUP7 SSTORE POP PUSH2 0x21B6 JUMP JUMPDEST PUSH1 0x1F NOT DUP5 AND PUSH2 0x2164 DUP7 PUSH2 0x1C6A JUMP JUMPDEST PUSH1 0x0 JUMPDEST DUP3 DUP2 LT ISZERO PUSH2 0x218C JUMPI DUP5 DUP10 ADD MLOAD DUP3 SSTORE PUSH1 0x1 DUP3 ADD SWAP2 POP PUSH1 0x20 DUP6 ADD SWAP5 POP PUSH1 0x20 DUP2 ADD SWAP1 POP PUSH2 0x2167 JUMP JUMPDEST DUP7 DUP4 LT ISZERO PUSH2 0x21A9 JUMPI DUP5 DUP10 ADD MLOAD PUSH2 0x21A5 PUSH1 0x1F DUP10 AND DUP3 PUSH2 0x20B2 JUMP JUMPDEST DUP4 SSTORE POP JUMPDEST PUSH1 0x1 PUSH1 0x2 DUP9 MUL ADD DUP9 SSTORE POP POP POP JUMPDEST POP POP POP POP POP POP JUMP JUMPDEST PUSH32 0x6E6F7420656C696769626C6520746F20766F7465000000000000000000000000 PUSH1 0x0 DUP3 ADD MSTORE POP JUMP JUMPDEST PUSH1 0x0 PUSH2 0x21F4 PUSH1 0x14 DUP4 PUSH2 0x1775 JUMP JUMPDEST SWAP2 POP PUSH2 0x21FF DUP3 PUSH2 0x21BE JUMP JUMPDEST PUSH1 0x20 DUP3 ADD SWAP1 POP SWAP2 SWAP1 POP JUMP JUMPDEST PUSH1 0x0 PUSH1 0x20 DUP3 ADD SWAP1 POP DUP2 DUP2 SUB PUSH1 0x0 DUP4 ADD MSTORE PUSH2 0x2223 DUP2 PUSH2 0x21E7 JUMP JUMPDEST SWAP1 POP SWAP2 SWAP1 POP JUMP JUMPDEST PUSH32 0x54686973206164647265737320686173206265656E2072656769737465726564 PUSH1 0x0 DUP3 ADD MSTORE POP JUMP JUMPDEST PUSH1 0x0 PUSH2 0x2260 PUSH1 0x20 DUP4 PUSH2 0x1775 JUMP JUMPDEST SWAP2 POP PUSH2 0x226B DUP3 PUSH2 0x222A JUMP JUMPDEST PUSH1 0x20 DUP3 ADD SWAP1 POP SWAP2 SWAP1 POP JUMP JUMPDEST PUSH1 0x0 PUSH1 0x20 DUP3 ADD SWAP1 POP DUP2 DUP2 SUB PUSH1 0x0 DUP4 ADD MSTORE PUSH2 0x228F DUP2 PUSH2 0x2253 JUMP JUMPDEST SWAP1 POP SWAP2 SWAP1 POP JUMP JUMPDEST PUSH32 0x4E49470000000000000000000000000000000000000000000000000000000000 DUP2 MSTORE POP JUMP JUMPDEST PUSH1 0x0 PUSH2 0x22C7 DUP3 PUSH2 0x2296 JUMP JUMPDEST PUSH1 0x3 DUP3 ADD SWAP2 POP PUSH2 0x22D7 DUP3 DUP5 PUSH2 0x1ECF JUMP JUMPDEST SWAP2 POP DUP2 SWAP1 POP SWAP3 SWAP2 POP POP JUMP JUMPDEST PUSH32 0x4E487B7100000000000000000000000000000000000000000000000000000000 PUSH1 0x0 MSTORE PUSH1 0x11 PUSH1 0x4 MSTORE PUSH1 0x24 PUSH1 0x0 REVERT JUMPDEST PUSH1 0x0 PUSH2 0x231C DUP3 PUSH2 0x17FA JUMP JUMPDEST SWAP2 POP PUSH2 0x2327 DUP4 PUSH2 0x17FA JUMP JUMPDEST SWAP3 POP DUP3 DUP3 ADD SWAP1 POP DUP1 DUP3 GT ISZERO PUSH2 0x233F JUMPI PUSH2 0x233E PUSH2 0x22E2 JUMP JUMPDEST JUMPDEST SWAP3 SWAP2 POP POP JUMP JUMPDEST PUSH32 0x4E487B7100000000000000000000000000000000000000000000000000000000 PUSH1 0x0 MSTORE PUSH1 0x12 PUSH1 0x4 MSTORE PUSH1 0x24 PUSH1 0x0 REVERT INVALID LOG2 PUSH5 0x6970667358 0x22 SLT KECCAK256 0xE8 SWAP1 0xCE PUSH26 0x6B36BBC103B375CF9B842F8454AF00CA97B2AA6A86859A68F762 PUSH2 0xAB64 PUSH20 0x6F6C634300081200330000000000000000000000 "
				},
				"gasEstimates": {
					"creation": {
						"codeDepositCost": "1826000",
						"executionCost": "48306",
						"totalCost": "1874306"
					},
					"external": {
						"applyForAdmin(string,string)": "infinite",
						"confirmApplication()": "2618",
						"contractOwner()": "2536",
						"coordinators(address)": "infinite",
						"electionCordinator()": "2512",
						"getDetails()": "infinite",
						"grantAdminPrivileges(string,address)": "infinite",
						"isElectionCoord(string,address)": "infinite",
						"registerDetails(string,uint256)": "infinite",
						"voters(address)": "infinite"
					}
				},
				"methodIdentifiers": {
					"applyForAdmin(string,string)": "8bc8d6ff",
					"confirmApplication()": "cfa34208",
					"contractOwner()": "ce606ee0",
					"coordinators(address)": "a48af096",
					"electionCordinator()": "7151ace2",
					"getDetails()": "fbbf93a0",
					"grantAdminPrivileges(string,address)": "74775fae",
					"isElectionCoord(string,address)": "ef5b7ceb",
					"registerDetails(string,uint256)": "c0264d3a",
					"voters(address)": "a3ec138d"
				}
			},
			"storageLayout": {
				"storage": [
					{
						"astId": 1165,
						"contract": "register.sol:Voter",
						"label": "electionCordinator",
						"offset": 0,
						"slot": "0",
						"type": "t_address"
					},
					{
						"astId": 1167,
						"contract": "register.sol:Voter",
						"label": "contractOwner",
						"offset": 0,
						"slot": "1",
						"type": "t_address"
					},
					{
						"astId": 1169,
						"contract": "register.sol:Voter",
						"label": "regCount",
						"offset": 0,
						"slot": "2",
						"type": "t_uint256"
					},
					{
						"astId": 1174,
						"contract": "register.sol:Voter",
						"label": "voters",
						"offset": 0,
						"slot": "3",
						"type": "t_mapping(t_address,t_struct(voter)1053_storage)"
					},
					{
						"astId": 1179,
						"contract": "register.sol:Voter",
						"label": "coordinators",
						"offset": 0,
						"slot": "4",
						"type": "t_mapping(t_address,t_struct(coordinator)1064_storage)"
					}
				],
				"types": {
					"t_address": {
						"encoding": "inplace",
						"label": "address",
						"numberOfBytes": "20"
					},
					"t_bool": {
						"encoding": "inplace",
						"label": "bool",
						"numberOfBytes": "1"
					},
					"t_mapping(t_address,t_struct(coordinator)1064_storage)": {
						"encoding": "mapping",
						"key": "t_address",
						"label": "mapping(address => struct coordinator)",
						"numberOfBytes": "32",
						"value": "t_struct(coordinator)1064_storage"
					},
					"t_mapping(t_address,t_struct(voter)1053_storage)": {
						"encoding": "mapping",
						"key": "t_address",
						"label": "mapping(address => struct voter)",
						"numberOfBytes": "32",
						"value": "t_struct(voter)1053_storage"
					},
					"t_string_storage": {
						"encoding": "bytes",
						"label": "string",
						"numberOfBytes": "32"
					},
					"t_struct(coordinator)1064_storage": {
						"encoding": "inplace",
						"label": "struct coordinator",
						"members": [
							{
								"astId": 1055,
								"contract": "register.sol:Voter",
								"label": "name",
								"offset": 0,
								"slot": "0",
								"type": "t_string_storage"
							},
							{
								"astId": 1057,
								"contract": "register.sol:Voter",
								"label": "cordID",
								"offset": 0,
								"slot": "1",
								"type": "t_string_storage"
							},
							{
								"astId": 1059,
								"contract": "register.sol:Voter",
								"label": "electionID",
								"offset": 0,
								"slot": "2",
								"type": "t_string_storage"
							},
							{
								"astId": 1061,
								"contract": "register.sol:Voter",
								"label": "adminAuth",
								"offset": 0,
								"slot": "3",
								"type": "t_bool"
							},
							{
								"astId": 1063,
								"contract": "register.sol:Voter",
								"label": "voterAddress",
								"offset": 1,
								"slot": "3",
								"type": "t_address"
							}
						],
						"numberOfBytes": "128"
					},
					"t_struct(voter)1053_storage": {
						"encoding": "inplace",
						"label": "struct voter",
						"members": [
							{
								"astId": 1044,
								"contract": "register.sol:Voter",
								"label": "name",
								"offset": 0,
								"slot": "0",
								"type": "t_string_storage"
							},
							{
								"astId": 1046,
								"contract": "register.sol:Voter",
								"label": "age",
								"offset": 0,
								"slot": "1",
								"type": "t_uint256"
							},
							{
								"astId": 1048,
								"contract": "register.sol:Voter",
								"label": "voterID",
								"offset": 0,
								"slot": "2",
								"type": "t_string_storage"
							},
							{
								"astId": 1050,
								"contract": "register.sol:Voter",
								"label": "canApplyToVote",
								"offset": 0,
								"slot": "3",
								"type": "t_bool"
							},
							{
								"astId": 1052,
								"contract": "register.sol:Voter",
								"label": "voterAddress",
								"offset": 1,
								"slot": "3",
								"type": "t_address"
							}
						],
						"numberOfBytes": "128"
					},
					"t_uint256": {
						"encoding": "inplace",
						"label": "uint256",
						"numberOfBytes": "32"
					}
				}
			},
			"userdoc": {
				"kind": "user",
				"methods": {},
				"version": 1
			}
		}
	}
}