{
	"register.sol": {
		"Voter": {
			"abi": [
				{
					"inputs": [],
					"stateMutability": "nonpayable",
					"type": "constructor"
				},
				{
					"inputs": [],
					"name": "contractOwner",
					"outputs": [
						{
							"internalType": "address",
							"name": "",
							"type": "address"
						}
					],
					"stateMutability": "view",
					"type": "function"
				},
				{
					"inputs": [],
					"name": "electionCordinator",
					"outputs": [
						{
							"internalType": "address",
							"name": "",
							"type": "address"
						}
					],
					"stateMutability": "view",
					"type": "function"
				},
				{
					"inputs": [
						{
							"internalType": "string",
							"name": "name",
							"type": "string"
						},
						{
							"internalType": "uint256",
							"name": "age",
							"type": "uint256"
						}
					],
					"name": "registerVoter",
					"outputs": [],
					"stateMutability": "nonpayable",
					"type": "function"
				},
				{
					"inputs": [
						{
							"internalType": "address",
							"name": "",
							"type": "address"
						}
					],
					"name": "voters",
					"outputs": [
						{
							"internalType": "string",
							"name": "name",
							"type": "string"
						},
						{
							"internalType": "uint256",
							"name": "age",
							"type": "uint256"
						},
						{
							"internalType": "string",
							"name": "voterID",
							"type": "string"
						},
						{
							"internalType": "bool",
							"name": "hasRightToVote",
							"type": "bool"
						}
					],
					"stateMutability": "view",
					"type": "function"
				}
			],
			"devdoc": {
				"kind": "dev",
				"methods": {},
				"version": 1
			},
			"evm": {
				"assembly": "    /* \"register.sol\":974:1601  contract Voter{... */\n  mstore(0x40, 0x80)\n    /* \"register.sol\":1358:1415  constructor(){ ... */\n  callvalue\n  dup1\n  iszero\n  tag_1\n  jumpi\n  0x00\n  dup1\n  revert\ntag_1:\n  pop\n    /* \"register.sol\":1398:1408  msg.sender */\n  caller\n    /* \"register.sol\":1382:1395  contractOwner */\n  0x01\n  0x00\n    /* \"register.sol\":1382:1408  contractOwner = msg.sender */\n  0x0100\n  exp\n  dup2\n  sload\n  dup2\n  0xffffffffffffffffffffffffffffffffffffffff\n  mul\n  not\n  and\n  swap1\n  dup4\n  0xffffffffffffffffffffffffffffffffffffffff\n  and\n  mul\n  or\n  swap1\n  sstore\n  pop\n    /* \"register.sol\":974:1601  contract Voter{... */\n  dataSize(sub_0)\n  dup1\n  dataOffset(sub_0)\n  0x00\n  codecopy\n  0x00\n  return\nstop\n\nsub_0: assembly {\n        /* \"register.sol\":974:1601  contract Voter{... */\n      mstore(0x40, 0x80)\n      callvalue\n      dup1\n      iszero\n      tag_1\n      jumpi\n      0x00\n      dup1\n      revert\n    tag_1:\n      pop\n      jumpi(tag_2, lt(calldatasize, 0x04))\n      shr(0xe0, calldataload(0x00))\n      dup1\n      0x7151ace2\n      eq\n      tag_3\n      jumpi\n      dup1\n      0xa3ec138d\n      eq\n      tag_4\n      jumpi\n      dup1\n      0xce606ee0\n      eq\n      tag_5\n      jumpi\n      dup1\n      0xe661ea5f\n      eq\n      tag_6\n      jumpi\n    tag_2:\n      0x00\n      dup1\n      revert\n        /* \"register.sol\":1238:1271  address public electionCordinator */\n    tag_3:\n      tag_7\n      tag_8\n      jump\t// in\n    tag_7:\n      mload(0x40)\n      tag_9\n      swap2\n      swap1\n      tag_10\n      jump\t// in\n    tag_9:\n      mload(0x40)\n      dup1\n      swap2\n      sub\n      swap1\n      return\n        /* \"register.sol\":1311:1351  mapping( address => voter) public voters */\n    tag_4:\n      tag_11\n      0x04\n      dup1\n      calldatasize\n      sub\n      dup2\n      add\n      swap1\n      tag_12\n      swap2\n      swap1\n      tag_13\n      jump\t// in\n    tag_12:\n      tag_14\n      jump\t// in\n    tag_11:\n      mload(0x40)\n      tag_15\n      swap5\n      swap4\n      swap3\n      swap2\n      swap1\n      tag_16\n      jump\t// in\n    tag_15:\n      mload(0x40)\n      dup1\n      swap2\n      sub\n      swap1\n      return\n        /* \"register.sol\":1277:1305  address public contractOwner */\n    tag_5:\n      tag_17\n      tag_18\n      jump\t// in\n    tag_17:\n      mload(0x40)\n      tag_19\n      swap2\n      swap1\n      tag_10\n      jump\t// in\n    tag_19:\n      mload(0x40)\n      dup1\n      swap2\n      sub\n      swap1\n      return\n        /* \"register.sol\":1421:1598  function registerVoter(string calldata name, uint age) public{... */\n    tag_6:\n      tag_20\n      0x04\n      dup1\n      calldatasize\n      sub\n      dup2\n      add\n      swap1\n      tag_21\n      swap2\n      swap1\n      tag_22\n      jump\t// in\n    tag_21:\n      tag_23\n      jump\t// in\n    tag_20:\n      stop\n        /* \"register.sol\":1238:1271  address public electionCordinator */\n    tag_8:\n      0x00\n      dup1\n      sload\n      swap1\n      0x0100\n      exp\n      swap1\n      div\n      0xffffffffffffffffffffffffffffffffffffffff\n      and\n      dup2\n      jump\t// out\n        /* \"register.sol\":1311:1351  mapping( address => voter) public voters */\n    tag_14:\n      mstore(0x20, 0x02)\n      dup1\n      0x00\n      mstore\n      keccak256(0x00, 0x40)\n      0x00\n      swap2\n      pop\n      swap1\n      pop\n      dup1\n      0x00\n      add\n      dup1\n      sload\n      tag_24\n      swap1\n      tag_25\n      jump\t// in\n    tag_24:\n      dup1\n      0x1f\n      add\n      0x20\n      dup1\n      swap2\n      div\n      mul\n      0x20\n      add\n      mload(0x40)\n      swap1\n      dup2\n      add\n      0x40\n      mstore\n      dup1\n      swap3\n      swap2\n      swap1\n      dup2\n      dup2\n      mstore\n      0x20\n      add\n      dup3\n      dup1\n      sload\n      tag_26\n      swap1\n      tag_25\n      jump\t// in\n    tag_26:\n      dup1\n      iszero\n      tag_27\n      jumpi\n      dup1\n      0x1f\n      lt\n      tag_28\n      jumpi\n      0x0100\n      dup1\n      dup4\n      sload\n      div\n      mul\n      dup4\n      mstore\n      swap2\n      0x20\n      add\n      swap2\n      jump(tag_27)\n    tag_28:\n      dup3\n      add\n      swap2\n      swap1\n      0x00\n      mstore\n      keccak256(0x00, 0x20)\n      swap1\n    tag_29:\n      dup2\n      sload\n      dup2\n      mstore\n      swap1\n      0x01\n      add\n      swap1\n      0x20\n      add\n      dup1\n      dup4\n      gt\n      tag_29\n      jumpi\n      dup3\n      swap1\n      sub\n      0x1f\n      and\n      dup3\n      add\n      swap2\n    tag_27:\n      pop\n      pop\n      pop\n      pop\n      pop\n      swap1\n      dup1\n      0x01\n      add\n      sload\n      swap1\n      dup1\n      0x02\n      add\n      dup1\n      sload\n      tag_30\n      swap1\n      tag_25\n      jump\t// in\n    tag_30:\n      dup1\n      0x1f\n      add\n      0x20\n      dup1\n      swap2\n      div\n      mul\n      0x20\n      add\n      mload(0x40)\n      swap1\n      dup2\n      add\n      0x40\n      mstore\n      dup1\n      swap3\n      swap2\n      swap1\n      dup2\n      dup2\n      mstore\n      0x20\n      add\n      dup3\n      dup1\n      sload\n      tag_31\n      swap1\n      tag_25\n      jump\t// in\n    tag_31:\n      dup1\n      iszero\n      tag_32\n      jumpi\n      dup1\n      0x1f\n      lt\n      tag_33\n      jumpi\n      0x0100\n      dup1\n      dup4\n      sload\n      div\n      mul\n      dup4\n      mstore\n      swap2\n      0x20\n      add\n      swap2\n      jump(tag_32)\n    tag_33:\n      dup3\n      add\n      swap2\n      swap1\n      0x00\n      mstore\n      keccak256(0x00, 0x20)\n      swap1\n    tag_34:\n      dup2\n      sload\n      dup2\n      mstore\n      swap1\n      0x01\n      add\n      swap1\n      0x20\n      add\n      dup1\n      dup4\n      gt\n      tag_34\n      jumpi\n      dup3\n      swap1\n      sub\n      0x1f\n      and\n      dup3\n      add\n      swap2\n    tag_32:\n      pop\n      pop\n      pop\n      pop\n      pop\n      swap1\n      dup1\n      0x03\n      add\n      0x00\n      swap1\n      sload\n      swap1\n      0x0100\n      exp\n      swap1\n      div\n      0xff\n      and\n      swap1\n      pop\n      dup5\n      jump\t// out\n        /* \"register.sol\":1277:1305  address public contractOwner */\n    tag_18:\n      0x01\n      0x00\n      swap1\n      sload\n      swap1\n      0x0100\n      exp\n      swap1\n      div\n      0xffffffffffffffffffffffffffffffffffffffff\n      and\n      dup2\n      jump\t// out\n        /* \"register.sol\":1421:1598  function registerVoter(string calldata name, uint age) public{... */\n    tag_23:\n        /* \"register.sol\":1506:1508  18 */\n      0x12\n        /* \"register.sol\":1500:1503  age */\n      dup2\n        /* \"register.sol\":1500:1508  age > 18 */\n      gt\n        /* \"register.sol\":1492:1533  require(age > 18, \"not eligible to vote\") */\n      tag_36\n      jumpi\n      mload(0x40)\n      0x08c379a000000000000000000000000000000000000000000000000000000000\n      dup2\n      mstore\n      0x04\n      add\n      tag_37\n      swap1\n      tag_38\n      jump\t// in\n    tag_37:\n      mload(0x40)\n      dup1\n      swap2\n      sub\n      swap1\n      revert\n    tag_36:\n        /* \"register.sol\":1565:1591  voter(name, age, \"\",false) */\n      mload(0x40)\n      dup1\n      0x80\n      add\n      0x40\n      mstore\n      dup1\n        /* \"register.sol\":1571:1575  name */\n      dup5\n      dup5\n        /* \"register.sol\":1565:1591  voter(name, age, \"\",false) */\n      dup1\n      dup1\n      0x1f\n      add\n      0x20\n      dup1\n      swap2\n      div\n      mul\n      0x20\n      add\n      mload(0x40)\n      swap1\n      dup2\n      add\n      0x40\n      mstore\n      dup1\n      swap4\n      swap3\n      swap2\n      swap1\n      dup2\n      dup2\n      mstore\n      0x20\n      add\n      dup4\n      dup4\n      dup1\n      dup3\n      dup5\n      calldatacopy\n      0x00\n      dup2\n      dup5\n      add\n      mstore\n      not(0x1f)\n      0x1f\n      dup3\n      add\n      and\n      swap1\n      pop\n      dup1\n      dup4\n      add\n      swap3\n      pop\n      pop\n      pop\n      pop\n      pop\n      pop\n      pop\n      dup2\n      mstore\n      0x20\n      add\n        /* \"register.sol\":1577:1580  age */\n      dup3\n        /* \"register.sol\":1565:1591  voter(name, age, \"\",false) */\n      dup2\n      mstore\n      0x20\n      add\n      mload(0x40)\n      dup1\n      0x20\n      add\n      0x40\n      mstore\n      dup1\n      0x00\n      dup2\n      mstore\n      pop\n      dup2\n      mstore\n      0x20\n      add\n        /* \"register.sol\":1585:1590  false */\n      0x00\n        /* \"register.sol\":1565:1591  voter(name, age, \"\",false) */\n      iszero\n      iszero\n      dup2\n      mstore\n      pop\n        /* \"register.sol\":1544:1550  voters */\n      0x02\n        /* \"register.sol\":1544:1562  voters[msg.sender] */\n      0x00\n        /* \"register.sol\":1551:1561  msg.sender */\n      caller\n        /* \"register.sol\":1544:1562  voters[msg.sender] */\n      0xffffffffffffffffffffffffffffffffffffffff\n      and\n      0xffffffffffffffffffffffffffffffffffffffff\n      and\n      dup2\n      mstore\n      0x20\n      add\n      swap1\n      dup2\n      mstore\n      0x20\n      add\n      0x00\n      keccak256\n        /* \"register.sol\":1544:1591  voters[msg.sender] = voter(name, age, \"\",false) */\n      0x00\n      dup3\n      add\n      mload\n      dup2\n      0x00\n      add\n      swap1\n      dup2\n      tag_39\n      swap2\n      swap1\n      tag_40\n      jump\t// in\n    tag_39:\n      pop\n      0x20\n      dup3\n      add\n      mload\n      dup2\n      0x01\n      add\n      sstore\n      0x40\n      dup3\n      add\n      mload\n      dup2\n      0x02\n      add\n      swap1\n      dup2\n      tag_41\n      swap2\n      swap1\n      tag_40\n      jump\t// in\n    tag_41:\n      pop\n      0x60\n      dup3\n      add\n      mload\n      dup2\n      0x03\n      add\n      exp(0x0100, 0x00)\n      dup2\n      sload\n      dup2\n      0xff\n      mul\n      not\n      and\n      swap1\n      dup4\n      iszero\n      iszero\n      mul\n      or\n      swap1\n      sstore\n      pop\n      swap1\n      pop\n      pop\n        /* \"register.sol\":1421:1598  function registerVoter(string calldata name, uint age) public{... */\n      pop\n      pop\n      pop\n      jump\t// out\n        /* \"#utility.yul\":7:133   */\n    tag_42:\n        /* \"#utility.yul\":44:51   */\n      0x00\n        /* \"#utility.yul\":84:126   */\n      0xffffffffffffffffffffffffffffffffffffffff\n        /* \"#utility.yul\":77:82   */\n      dup3\n        /* \"#utility.yul\":73:127   */\n      and\n        /* \"#utility.yul\":62:127   */\n      swap1\n      pop\n        /* \"#utility.yul\":7:133   */\n      swap2\n      swap1\n      pop\n      jump\t// out\n        /* \"#utility.yul\":139:235   */\n    tag_43:\n        /* \"#utility.yul\":176:183   */\n      0x00\n        /* \"#utility.yul\":205:229   */\n      tag_87\n        /* \"#utility.yul\":223:228   */\n      dup3\n        /* \"#utility.yul\":205:229   */\n      tag_42\n      jump\t// in\n    tag_87:\n        /* \"#utility.yul\":194:229   */\n      swap1\n      pop\n        /* \"#utility.yul\":139:235   */\n      swap2\n      swap1\n      pop\n      jump\t// out\n        /* \"#utility.yul\":241:359   */\n    tag_44:\n        /* \"#utility.yul\":328:352   */\n      tag_89\n        /* \"#utility.yul\":346:351   */\n      dup2\n        /* \"#utility.yul\":328:352   */\n      tag_43\n      jump\t// in\n    tag_89:\n        /* \"#utility.yul\":323:326   */\n      dup3\n        /* \"#utility.yul\":316:353   */\n      mstore\n        /* \"#utility.yul\":241:359   */\n      pop\n      pop\n      jump\t// out\n        /* \"#utility.yul\":365:587   */\n    tag_10:\n        /* \"#utility.yul\":458:462   */\n      0x00\n        /* \"#utility.yul\":496:498   */\n      0x20\n        /* \"#utility.yul\":485:494   */\n      dup3\n        /* \"#utility.yul\":481:499   */\n      add\n        /* \"#utility.yul\":473:499   */\n      swap1\n      pop\n        /* \"#utility.yul\":509:580   */\n      tag_91\n        /* \"#utility.yul\":577:578   */\n      0x00\n        /* \"#utility.yul\":566:575   */\n      dup4\n        /* \"#utility.yul\":562:579   */\n      add\n        /* \"#utility.yul\":553:559   */\n      dup5\n        /* \"#utility.yul\":509:580   */\n      tag_44\n      jump\t// in\n    tag_91:\n        /* \"#utility.yul\":365:587   */\n      swap3\n      swap2\n      pop\n      pop\n      jump\t// out\n        /* \"#utility.yul\":674:791   */\n    tag_46:\n        /* \"#utility.yul\":783:784   */\n      0x00\n        /* \"#utility.yul\":780:781   */\n      dup1\n        /* \"#utility.yul\":773:785   */\n      revert\n        /* \"#utility.yul\":797:914   */\n    tag_47:\n        /* \"#utility.yul\":906:907   */\n      0x00\n        /* \"#utility.yul\":903:904   */\n      dup1\n        /* \"#utility.yul\":896:908   */\n      revert\n        /* \"#utility.yul\":920:1042   */\n    tag_48:\n        /* \"#utility.yul\":993:1017   */\n      tag_96\n        /* \"#utility.yul\":1011:1016   */\n      dup2\n        /* \"#utility.yul\":993:1017   */\n      tag_43\n      jump\t// in\n    tag_96:\n        /* \"#utility.yul\":986:991   */\n      dup2\n        /* \"#utility.yul\":983:1018   */\n      eq\n        /* \"#utility.yul\":973:1036   */\n      tag_97\n      jumpi\n        /* \"#utility.yul\":1032:1033   */\n      0x00\n        /* \"#utility.yul\":1029:1030   */\n      dup1\n        /* \"#utility.yul\":1022:1034   */\n      revert\n        /* \"#utility.yul\":973:1036   */\n    tag_97:\n        /* \"#utility.yul\":920:1042   */\n      pop\n      jump\t// out\n        /* \"#utility.yul\":1048:1187   */\n    tag_49:\n        /* \"#utility.yul\":1094:1099   */\n      0x00\n        /* \"#utility.yul\":1132:1138   */\n      dup2\n        /* \"#utility.yul\":1119:1139   */\n      calldataload\n        /* \"#utility.yul\":1110:1139   */\n      swap1\n      pop\n        /* \"#utility.yul\":1148:1181   */\n      tag_99\n        /* \"#utility.yul\":1175:1180   */\n      dup2\n        /* \"#utility.yul\":1148:1181   */\n      tag_48\n      jump\t// in\n    tag_99:\n        /* \"#utility.yul\":1048:1187   */\n      swap3\n      swap2\n      pop\n      pop\n      jump\t// out\n        /* \"#utility.yul\":1193:1522   */\n    tag_13:\n        /* \"#utility.yul\":1252:1258   */\n      0x00\n        /* \"#utility.yul\":1301:1303   */\n      0x20\n        /* \"#utility.yul\":1289:1298   */\n      dup3\n        /* \"#utility.yul\":1280:1287   */\n      dup5\n        /* \"#utility.yul\":1276:1299   */\n      sub\n        /* \"#utility.yul\":1272:1304   */\n      slt\n        /* \"#utility.yul\":1269:1388   */\n      iszero\n      tag_101\n      jumpi\n        /* \"#utility.yul\":1307:1386   */\n      tag_102\n      tag_46\n      jump\t// in\n    tag_102:\n        /* \"#utility.yul\":1269:1388   */\n    tag_101:\n        /* \"#utility.yul\":1427:1428   */\n      0x00\n        /* \"#utility.yul\":1452:1505   */\n      tag_103\n        /* \"#utility.yul\":1497:1504   */\n      dup5\n        /* \"#utility.yul\":1488:1494   */\n      dup3\n        /* \"#utility.yul\":1477:1486   */\n      dup6\n        /* \"#utility.yul\":1473:1495   */\n      add\n        /* \"#utility.yul\":1452:1505   */\n      tag_49\n      jump\t// in\n    tag_103:\n        /* \"#utility.yul\":1442:1505   */\n      swap2\n      pop\n        /* \"#utility.yul\":1398:1515   */\n      pop\n        /* \"#utility.yul\":1193:1522   */\n      swap3\n      swap2\n      pop\n      pop\n      jump\t// out\n        /* \"#utility.yul\":1528:1627   */\n    tag_50:\n        /* \"#utility.yul\":1580:1586   */\n      0x00\n        /* \"#utility.yul\":1614:1619   */\n      dup2\n        /* \"#utility.yul\":1608:1620   */\n      mload\n        /* \"#utility.yul\":1598:1620   */\n      swap1\n      pop\n        /* \"#utility.yul\":1528:1627   */\n      swap2\n      swap1\n      pop\n      jump\t// out\n        /* \"#utility.yul\":1633:1802   */\n    tag_51:\n        /* \"#utility.yul\":1717:1728   */\n      0x00\n        /* \"#utility.yul\":1751:1757   */\n      dup3\n        /* \"#utility.yul\":1746:1749   */\n      dup3\n        /* \"#utility.yul\":1739:1758   */\n      mstore\n        /* \"#utility.yul\":1791:1795   */\n      0x20\n        /* \"#utility.yul\":1786:1789   */\n      dup3\n        /* \"#utility.yul\":1782:1796   */\n      add\n        /* \"#utility.yul\":1767:1796   */\n      swap1\n      pop\n        /* \"#utility.yul\":1633:1802   */\n      swap3\n      swap2\n      pop\n      pop\n      jump\t// out\n        /* \"#utility.yul\":1808:2054   */\n    tag_52:\n        /* \"#utility.yul\":1889:1890   */\n      0x00\n        /* \"#utility.yul\":1899:2012   */\n    tag_107:\n        /* \"#utility.yul\":1913:1919   */\n      dup4\n        /* \"#utility.yul\":1910:1911   */\n      dup2\n        /* \"#utility.yul\":1907:1920   */\n      lt\n        /* \"#utility.yul\":1899:2012   */\n      iszero\n      tag_109\n      jumpi\n        /* \"#utility.yul\":1998:1999   */\n      dup1\n        /* \"#utility.yul\":1993:1996   */\n      dup3\n        /* \"#utility.yul\":1989:2000   */\n      add\n        /* \"#utility.yul\":1983:2001   */\n      mload\n        /* \"#utility.yul\":1979:1980   */\n      dup2\n        /* \"#utility.yul\":1974:1977   */\n      dup5\n        /* \"#utility.yul\":1970:1981   */\n      add\n        /* \"#utility.yul\":1963:2002   */\n      mstore\n        /* \"#utility.yul\":1935:1937   */\n      0x20\n        /* \"#utility.yul\":1932:1933   */\n      dup2\n        /* \"#utility.yul\":1928:1938   */\n      add\n        /* \"#utility.yul\":1923:1938   */\n      swap1\n      pop\n        /* \"#utility.yul\":1899:2012   */\n      jump(tag_107)\n    tag_109:\n        /* \"#utility.yul\":2046:2047   */\n      0x00\n        /* \"#utility.yul\":2037:2043   */\n      dup5\n        /* \"#utility.yul\":2032:2035   */\n      dup5\n        /* \"#utility.yul\":2028:2044   */\n      add\n        /* \"#utility.yul\":2021:2048   */\n      mstore\n        /* \"#utility.yul\":1870:2054   */\n      pop\n        /* \"#utility.yul\":1808:2054   */\n      pop\n      pop\n      pop\n      jump\t// out\n        /* \"#utility.yul\":2060:2162   */\n    tag_53:\n        /* \"#utility.yul\":2101:2107   */\n      0x00\n        /* \"#utility.yul\":2152:2154   */\n      0x1f\n        /* \"#utility.yul\":2148:2155   */\n      not\n        /* \"#utility.yul\":2143:2145   */\n      0x1f\n        /* \"#utility.yul\":2136:2141   */\n      dup4\n        /* \"#utility.yul\":2132:2146   */\n      add\n        /* \"#utility.yul\":2128:2156   */\n      and\n        /* \"#utility.yul\":2118:2156   */\n      swap1\n      pop\n        /* \"#utility.yul\":2060:2162   */\n      swap2\n      swap1\n      pop\n      jump\t// out\n        /* \"#utility.yul\":2168:2545   */\n    tag_54:\n        /* \"#utility.yul\":2256:2259   */\n      0x00\n        /* \"#utility.yul\":2284:2323   */\n      tag_112\n        /* \"#utility.yul\":2317:2322   */\n      dup3\n        /* \"#utility.yul\":2284:2323   */\n      tag_50\n      jump\t// in\n    tag_112:\n        /* \"#utility.yul\":2339:2410   */\n      tag_113\n        /* \"#utility.yul\":2403:2409   */\n      dup2\n        /* \"#utility.yul\":2398:2401   */\n      dup6\n        /* \"#utility.yul\":2339:2410   */\n      tag_51\n      jump\t// in\n    tag_113:\n        /* \"#utility.yul\":2332:2410   */\n      swap4\n      pop\n        /* \"#utility.yul\":2419:2484   */\n      tag_114\n        /* \"#utility.yul\":2477:2483   */\n      dup2\n        /* \"#utility.yul\":2472:2475   */\n      dup6\n        /* \"#utility.yul\":2465:2469   */\n      0x20\n        /* \"#utility.yul\":2458:2463   */\n      dup7\n        /* \"#utility.yul\":2454:2470   */\n      add\n        /* \"#utility.yul\":2419:2484   */\n      tag_52\n      jump\t// in\n    tag_114:\n        /* \"#utility.yul\":2509:2538   */\n      tag_115\n        /* \"#utility.yul\":2531:2537   */\n      dup2\n        /* \"#utility.yul\":2509:2538   */\n      tag_53\n      jump\t// in\n    tag_115:\n        /* \"#utility.yul\":2504:2507   */\n      dup5\n        /* \"#utility.yul\":2500:2539   */\n      add\n        /* \"#utility.yul\":2493:2539   */\n      swap2\n      pop\n        /* \"#utility.yul\":2260:2545   */\n      pop\n        /* \"#utility.yul\":2168:2545   */\n      swap3\n      swap2\n      pop\n      pop\n      jump\t// out\n        /* \"#utility.yul\":2551:2628   */\n    tag_55:\n        /* \"#utility.yul\":2588:2595   */\n      0x00\n        /* \"#utility.yul\":2617:2622   */\n      dup2\n        /* \"#utility.yul\":2606:2622   */\n      swap1\n      pop\n        /* \"#utility.yul\":2551:2628   */\n      swap2\n      swap1\n      pop\n      jump\t// out\n        /* \"#utility.yul\":2634:2752   */\n    tag_56:\n        /* \"#utility.yul\":2721:2745   */\n      tag_118\n        /* \"#utility.yul\":2739:2744   */\n      dup2\n        /* \"#utility.yul\":2721:2745   */\n      tag_55\n      jump\t// in\n    tag_118:\n        /* \"#utility.yul\":2716:2719   */\n      dup3\n        /* \"#utility.yul\":2709:2746   */\n      mstore\n        /* \"#utility.yul\":2634:2752   */\n      pop\n      pop\n      jump\t// out\n        /* \"#utility.yul\":2758:2848   */\n    tag_57:\n        /* \"#utility.yul\":2792:2799   */\n      0x00\n        /* \"#utility.yul\":2835:2840   */\n      dup2\n        /* \"#utility.yul\":2828:2841   */\n      iszero\n        /* \"#utility.yul\":2821:2842   */\n      iszero\n        /* \"#utility.yul\":2810:2842   */\n      swap1\n      pop\n        /* \"#utility.yul\":2758:2848   */\n      swap2\n      swap1\n      pop\n      jump\t// out\n        /* \"#utility.yul\":2854:2963   */\n    tag_58:\n        /* \"#utility.yul\":2935:2956   */\n      tag_121\n        /* \"#utility.yul\":2950:2955   */\n      dup2\n        /* \"#utility.yul\":2935:2956   */\n      tag_57\n      jump\t// in\n    tag_121:\n        /* \"#utility.yul\":2930:2933   */\n      dup3\n        /* \"#utility.yul\":2923:2957   */\n      mstore\n        /* \"#utility.yul\":2854:2963   */\n      pop\n      pop\n      jump\t// out\n        /* \"#utility.yul\":2969:3692   */\n    tag_16:\n        /* \"#utility.yul\":3180:3184   */\n      0x00\n        /* \"#utility.yul\":3218:3221   */\n      0x80\n        /* \"#utility.yul\":3207:3216   */\n      dup3\n        /* \"#utility.yul\":3203:3222   */\n      add\n        /* \"#utility.yul\":3195:3222   */\n      swap1\n      pop\n        /* \"#utility.yul\":3268:3277   */\n      dup2\n        /* \"#utility.yul\":3262:3266   */\n      dup2\n        /* \"#utility.yul\":3258:3278   */\n      sub\n        /* \"#utility.yul\":3254:3255   */\n      0x00\n        /* \"#utility.yul\":3243:3252   */\n      dup4\n        /* \"#utility.yul\":3239:3256   */\n      add\n        /* \"#utility.yul\":3232:3279   */\n      mstore\n        /* \"#utility.yul\":3296:3374   */\n      tag_123\n        /* \"#utility.yul\":3369:3373   */\n      dup2\n        /* \"#utility.yul\":3360:3366   */\n      dup8\n        /* \"#utility.yul\":3296:3374   */\n      tag_54\n      jump\t// in\n    tag_123:\n        /* \"#utility.yul\":3288:3374   */\n      swap1\n      pop\n        /* \"#utility.yul\":3384:3456   */\n      tag_124\n        /* \"#utility.yul\":3452:3454   */\n      0x20\n        /* \"#utility.yul\":3441:3450   */\n      dup4\n        /* \"#utility.yul\":3437:3455   */\n      add\n        /* \"#utility.yul\":3428:3434   */\n      dup7\n        /* \"#utility.yul\":3384:3456   */\n      tag_56\n      jump\t// in\n    tag_124:\n        /* \"#utility.yul\":3503:3512   */\n      dup2\n        /* \"#utility.yul\":3497:3501   */\n      dup2\n        /* \"#utility.yul\":3493:3513   */\n      sub\n        /* \"#utility.yul\":3488:3490   */\n      0x40\n        /* \"#utility.yul\":3477:3486   */\n      dup4\n        /* \"#utility.yul\":3473:3491   */\n      add\n        /* \"#utility.yul\":3466:3514   */\n      mstore\n        /* \"#utility.yul\":3531:3609   */\n      tag_125\n        /* \"#utility.yul\":3604:3608   */\n      dup2\n        /* \"#utility.yul\":3595:3601   */\n      dup6\n        /* \"#utility.yul\":3531:3609   */\n      tag_54\n      jump\t// in\n    tag_125:\n        /* \"#utility.yul\":3523:3609   */\n      swap1\n      pop\n        /* \"#utility.yul\":3619:3685   */\n      tag_126\n        /* \"#utility.yul\":3681:3683   */\n      0x60\n        /* \"#utility.yul\":3670:3679   */\n      dup4\n        /* \"#utility.yul\":3666:3684   */\n      add\n        /* \"#utility.yul\":3657:3663   */\n      dup5\n        /* \"#utility.yul\":3619:3685   */\n      tag_58\n      jump\t// in\n    tag_126:\n        /* \"#utility.yul\":2969:3692   */\n      swap6\n      swap5\n      pop\n      pop\n      pop\n      pop\n      pop\n      jump\t// out\n        /* \"#utility.yul\":3698:3815   */\n    tag_59:\n        /* \"#utility.yul\":3807:3808   */\n      0x00\n        /* \"#utility.yul\":3804:3805   */\n      dup1\n        /* \"#utility.yul\":3797:3809   */\n      revert\n        /* \"#utility.yul\":3821:3938   */\n    tag_60:\n        /* \"#utility.yul\":3930:3931   */\n      0x00\n        /* \"#utility.yul\":3927:3928   */\n      dup1\n        /* \"#utility.yul\":3920:3932   */\n      revert\n        /* \"#utility.yul\":3944:4061   */\n    tag_61:\n        /* \"#utility.yul\":4053:4054   */\n      0x00\n        /* \"#utility.yul\":4050:4051   */\n      dup1\n        /* \"#utility.yul\":4043:4055   */\n      revert\n        /* \"#utility.yul\":4081:4634   */\n    tag_62:\n        /* \"#utility.yul\":4139:4147   */\n      0x00\n        /* \"#utility.yul\":4149:4155   */\n      dup1\n        /* \"#utility.yul\":4199:4202   */\n      dup4\n        /* \"#utility.yul\":4192:4196   */\n      0x1f\n        /* \"#utility.yul\":4184:4190   */\n      dup5\n        /* \"#utility.yul\":4180:4197   */\n      add\n        /* \"#utility.yul\":4176:4203   */\n      slt\n        /* \"#utility.yul\":4166:4288   */\n      tag_131\n      jumpi\n        /* \"#utility.yul\":4207:4286   */\n      tag_132\n      tag_59\n      jump\t// in\n    tag_132:\n        /* \"#utility.yul\":4166:4288   */\n    tag_131:\n        /* \"#utility.yul\":4320:4326   */\n      dup3\n        /* \"#utility.yul\":4307:4327   */\n      calldataload\n        /* \"#utility.yul\":4297:4327   */\n      swap1\n      pop\n        /* \"#utility.yul\":4350:4368   */\n      0xffffffffffffffff\n        /* \"#utility.yul\":4342:4348   */\n      dup2\n        /* \"#utility.yul\":4339:4369   */\n      gt\n        /* \"#utility.yul\":4336:4453   */\n      iszero\n      tag_133\n      jumpi\n        /* \"#utility.yul\":4372:4451   */\n      tag_134\n      tag_60\n      jump\t// in\n    tag_134:\n        /* \"#utility.yul\":4336:4453   */\n    tag_133:\n        /* \"#utility.yul\":4486:4490   */\n      0x20\n        /* \"#utility.yul\":4478:4484   */\n      dup4\n        /* \"#utility.yul\":4474:4491   */\n      add\n        /* \"#utility.yul\":4462:4491   */\n      swap2\n      pop\n        /* \"#utility.yul\":4540:4543   */\n      dup4\n        /* \"#utility.yul\":4532:4536   */\n      0x01\n        /* \"#utility.yul\":4524:4530   */\n      dup3\n        /* \"#utility.yul\":4520:4537   */\n      mul\n        /* \"#utility.yul\":4510:4518   */\n      dup4\n        /* \"#utility.yul\":4506:4538   */\n      add\n        /* \"#utility.yul\":4503:4544   */\n      gt\n        /* \"#utility.yul\":4500:4628   */\n      iszero\n      tag_135\n      jumpi\n        /* \"#utility.yul\":4547:4626   */\n      tag_136\n      tag_61\n      jump\t// in\n    tag_136:\n        /* \"#utility.yul\":4500:4628   */\n    tag_135:\n        /* \"#utility.yul\":4081:4634   */\n      swap3\n      pop\n      swap3\n      swap1\n      pop\n      jump\t// out\n        /* \"#utility.yul\":4640:4762   */\n    tag_63:\n        /* \"#utility.yul\":4713:4737   */\n      tag_138\n        /* \"#utility.yul\":4731:4736   */\n      dup2\n        /* \"#utility.yul\":4713:4737   */\n      tag_55\n      jump\t// in\n    tag_138:\n        /* \"#utility.yul\":4706:4711   */\n      dup2\n        /* \"#utility.yul\":4703:4738   */\n      eq\n        /* \"#utility.yul\":4693:4756   */\n      tag_139\n      jumpi\n        /* \"#utility.yul\":4752:4753   */\n      0x00\n        /* \"#utility.yul\":4749:4750   */\n      dup1\n        /* \"#utility.yul\":4742:4754   */\n      revert\n        /* \"#utility.yul\":4693:4756   */\n    tag_139:\n        /* \"#utility.yul\":4640:4762   */\n      pop\n      jump\t// out\n        /* \"#utility.yul\":4768:4907   */\n    tag_64:\n        /* \"#utility.yul\":4814:4819   */\n      0x00\n        /* \"#utility.yul\":4852:4858   */\n      dup2\n        /* \"#utility.yul\":4839:4859   */\n      calldataload\n        /* \"#utility.yul\":4830:4859   */\n      swap1\n      pop\n        /* \"#utility.yul\":4868:4901   */\n      tag_141\n        /* \"#utility.yul\":4895:4900   */\n      dup2\n        /* \"#utility.yul\":4868:4901   */\n      tag_63\n      jump\t// in\n    tag_141:\n        /* \"#utility.yul\":4768:4907   */\n      swap3\n      swap2\n      pop\n      pop\n      jump\t// out\n        /* \"#utility.yul\":4913:5587   */\n    tag_22:\n        /* \"#utility.yul\":4993:4999   */\n      0x00\n        /* \"#utility.yul\":5001:5007   */\n      dup1\n        /* \"#utility.yul\":5009:5015   */\n      0x00\n        /* \"#utility.yul\":5058:5060   */\n      0x40\n        /* \"#utility.yul\":5046:5055   */\n      dup5\n        /* \"#utility.yul\":5037:5044   */\n      dup7\n        /* \"#utility.yul\":5033:5056   */\n      sub\n        /* \"#utility.yul\":5029:5061   */\n      slt\n        /* \"#utility.yul\":5026:5145   */\n      iszero\n      tag_143\n      jumpi\n        /* \"#utility.yul\":5064:5143   */\n      tag_144\n      tag_46\n      jump\t// in\n    tag_144:\n        /* \"#utility.yul\":5026:5145   */\n    tag_143:\n        /* \"#utility.yul\":5212:5213   */\n      0x00\n        /* \"#utility.yul\":5201:5210   */\n      dup5\n        /* \"#utility.yul\":5197:5214   */\n      add\n        /* \"#utility.yul\":5184:5215   */\n      calldataload\n        /* \"#utility.yul\":5242:5260   */\n      0xffffffffffffffff\n        /* \"#utility.yul\":5234:5240   */\n      dup2\n        /* \"#utility.yul\":5231:5261   */\n      gt\n        /* \"#utility.yul\":5228:5345   */\n      iszero\n      tag_145\n      jumpi\n        /* \"#utility.yul\":5264:5343   */\n      tag_146\n      tag_47\n      jump\t// in\n    tag_146:\n        /* \"#utility.yul\":5228:5345   */\n    tag_145:\n        /* \"#utility.yul\":5377:5442   */\n      tag_147\n        /* \"#utility.yul\":5434:5441   */\n      dup7\n        /* \"#utility.yul\":5425:5431   */\n      dup3\n        /* \"#utility.yul\":5414:5423   */\n      dup8\n        /* \"#utility.yul\":5410:5432   */\n      add\n        /* \"#utility.yul\":5377:5442   */\n      tag_62\n      jump\t// in\n    tag_147:\n        /* \"#utility.yul\":5359:5442   */\n      swap4\n      pop\n      swap4\n      pop\n        /* \"#utility.yul\":5155:5452   */\n      pop\n        /* \"#utility.yul\":5491:5493   */\n      0x20\n        /* \"#utility.yul\":5517:5570   */\n      tag_148\n        /* \"#utility.yul\":5562:5569   */\n      dup7\n        /* \"#utility.yul\":5553:5559   */\n      dup3\n        /* \"#utility.yul\":5542:5551   */\n      dup8\n        /* \"#utility.yul\":5538:5560   */\n      add\n        /* \"#utility.yul\":5517:5570   */\n      tag_64\n      jump\t// in\n    tag_148:\n        /* \"#utility.yul\":5507:5570   */\n      swap2\n      pop\n        /* \"#utility.yul\":5462:5580   */\n      pop\n        /* \"#utility.yul\":4913:5587   */\n      swap3\n      pop\n      swap3\n      pop\n      swap3\n      jump\t// out\n        /* \"#utility.yul\":5593:5773   */\n    tag_65:\n        /* \"#utility.yul\":5641:5718   */\n      0x4e487b7100000000000000000000000000000000000000000000000000000000\n        /* \"#utility.yul\":5638:5639   */\n      0x00\n        /* \"#utility.yul\":5631:5719   */\n      mstore\n        /* \"#utility.yul\":5738:5742   */\n      0x22\n        /* \"#utility.yul\":5735:5736   */\n      0x04\n        /* \"#utility.yul\":5728:5743   */\n      mstore\n        /* \"#utility.yul\":5762:5766   */\n      0x24\n        /* \"#utility.yul\":5759:5760   */\n      0x00\n        /* \"#utility.yul\":5752:5767   */\n      revert\n        /* \"#utility.yul\":5779:6099   */\n    tag_25:\n        /* \"#utility.yul\":5823:5829   */\n      0x00\n        /* \"#utility.yul\":5860:5861   */\n      0x02\n        /* \"#utility.yul\":5854:5858   */\n      dup3\n        /* \"#utility.yul\":5850:5862   */\n      div\n        /* \"#utility.yul\":5840:5862   */\n      swap1\n      pop\n        /* \"#utility.yul\":5907:5908   */\n      0x01\n        /* \"#utility.yul\":5901:5905   */\n      dup3\n        /* \"#utility.yul\":5897:5909   */\n      and\n        /* \"#utility.yul\":5928:5946   */\n      dup1\n        /* \"#utility.yul\":5918:5999   */\n      tag_151\n      jumpi\n        /* \"#utility.yul\":5984:5988   */\n      0x7f\n        /* \"#utility.yul\":5976:5982   */\n      dup3\n        /* \"#utility.yul\":5972:5989   */\n      and\n        /* \"#utility.yul\":5962:5989   */\n      swap2\n      pop\n        /* \"#utility.yul\":5918:5999   */\n    tag_151:\n        /* \"#utility.yul\":6046:6048   */\n      0x20\n        /* \"#utility.yul\":6038:6044   */\n      dup3\n        /* \"#utility.yul\":6035:6049   */\n      lt\n        /* \"#utility.yul\":6015:6033   */\n      dup2\n        /* \"#utility.yul\":6012:6050   */\n      sub\n        /* \"#utility.yul\":6009:6093   */\n      tag_152\n      jumpi\n        /* \"#utility.yul\":6065:6083   */\n      tag_153\n      tag_65\n      jump\t// in\n    tag_153:\n        /* \"#utility.yul\":6009:6093   */\n    tag_152:\n        /* \"#utility.yul\":5830:6099   */\n      pop\n        /* \"#utility.yul\":5779:6099   */\n      swap2\n      swap1\n      pop\n      jump\t// out\n        /* \"#utility.yul\":6105:6275   */\n    tag_66:\n        /* \"#utility.yul\":6245:6267   */\n      0x6e6f7420656c696769626c6520746f20766f7465000000000000000000000000\n        /* \"#utility.yul\":6241:6242   */\n      0x00\n        /* \"#utility.yul\":6233:6239   */\n      dup3\n        /* \"#utility.yul\":6229:6243   */\n      add\n        /* \"#utility.yul\":6222:6268   */\n      mstore\n        /* \"#utility.yul\":6105:6275   */\n      pop\n      jump\t// out\n        /* \"#utility.yul\":6281:6647   */\n    tag_67:\n        /* \"#utility.yul\":6423:6426   */\n      0x00\n        /* \"#utility.yul\":6444:6511   */\n      tag_156\n        /* \"#utility.yul\":6508:6510   */\n      0x14\n        /* \"#utility.yul\":6503:6506   */\n      dup4\n        /* \"#utility.yul\":6444:6511   */\n      tag_51\n      jump\t// in\n    tag_156:\n        /* \"#utility.yul\":6437:6511   */\n      swap2\n      pop\n        /* \"#utility.yul\":6520:6613   */\n      tag_157\n        /* \"#utility.yul\":6609:6612   */\n      dup3\n        /* \"#utility.yul\":6520:6613   */\n      tag_66\n      jump\t// in\n    tag_157:\n        /* \"#utility.yul\":6638:6640   */\n      0x20\n        /* \"#utility.yul\":6633:6636   */\n      dup3\n        /* \"#utility.yul\":6629:6641   */\n      add\n        /* \"#utility.yul\":6622:6641   */\n      swap1\n      pop\n        /* \"#utility.yul\":6281:6647   */\n      swap2\n      swap1\n      pop\n      jump\t// out\n        /* \"#utility.yul\":6653:7072   */\n    tag_38:\n        /* \"#utility.yul\":6819:6823   */\n      0x00\n        /* \"#utility.yul\":6857:6859   */\n      0x20\n        /* \"#utility.yul\":6846:6855   */\n      dup3\n        /* \"#utility.yul\":6842:6860   */\n      add\n        /* \"#utility.yul\":6834:6860   */\n      swap1\n      pop\n        /* \"#utility.yul\":6906:6915   */\n      dup2\n        /* \"#utility.yul\":6900:6904   */\n      dup2\n        /* \"#utility.yul\":6896:6916   */\n      sub\n        /* \"#utility.yul\":6892:6893   */\n      0x00\n        /* \"#utility.yul\":6881:6890   */\n      dup4\n        /* \"#utility.yul\":6877:6894   */\n      add\n        /* \"#utility.yul\":6870:6917   */\n      mstore\n        /* \"#utility.yul\":6934:7065   */\n      tag_159\n        /* \"#utility.yul\":7060:7064   */\n      dup2\n        /* \"#utility.yul\":6934:7065   */\n      tag_67\n      jump\t// in\n    tag_159:\n        /* \"#utility.yul\":6926:7065   */\n      swap1\n      pop\n        /* \"#utility.yul\":6653:7072   */\n      swap2\n      swap1\n      pop\n      jump\t// out\n        /* \"#utility.yul\":7078:7258   */\n    tag_68:\n        /* \"#utility.yul\":7126:7203   */\n      0x4e487b7100000000000000000000000000000000000000000000000000000000\n        /* \"#utility.yul\":7123:7124   */\n      0x00\n        /* \"#utility.yul\":7116:7204   */\n      mstore\n        /* \"#utility.yul\":7223:7227   */\n      0x41\n        /* \"#utility.yul\":7220:7221   */\n      0x04\n        /* \"#utility.yul\":7213:7228   */\n      mstore\n        /* \"#utility.yul\":7247:7251   */\n      0x24\n        /* \"#utility.yul\":7244:7245   */\n      0x00\n        /* \"#utility.yul\":7237:7252   */\n      revert\n        /* \"#utility.yul\":7264:7405   */\n    tag_69:\n        /* \"#utility.yul\":7313:7317   */\n      0x00\n        /* \"#utility.yul\":7336:7339   */\n      dup2\n        /* \"#utility.yul\":7328:7339   */\n      swap1\n      pop\n        /* \"#utility.yul\":7359:7362   */\n      dup2\n        /* \"#utility.yul\":7356:7357   */\n      0x00\n        /* \"#utility.yul\":7349:7363   */\n      mstore\n        /* \"#utility.yul\":7393:7397   */\n      0x20\n        /* \"#utility.yul\":7390:7391   */\n      0x00\n        /* \"#utility.yul\":7380:7398   */\n      keccak256\n        /* \"#utility.yul\":7372:7398   */\n      swap1\n      pop\n        /* \"#utility.yul\":7264:7405   */\n      swap2\n      swap1\n      pop\n      jump\t// out\n        /* \"#utility.yul\":7411:7504   */\n    tag_70:\n        /* \"#utility.yul\":7448:7454   */\n      0x00\n        /* \"#utility.yul\":7495:7497   */\n      0x20\n        /* \"#utility.yul\":7490:7492   */\n      0x1f\n        /* \"#utility.yul\":7483:7488   */\n      dup4\n        /* \"#utility.yul\":7479:7493   */\n      add\n        /* \"#utility.yul\":7475:7498   */\n      div\n        /* \"#utility.yul\":7465:7498   */\n      swap1\n      pop\n        /* \"#utility.yul\":7411:7504   */\n      swap2\n      swap1\n      pop\n      jump\t// out\n        /* \"#utility.yul\":7510:7617   */\n    tag_71:\n        /* \"#utility.yul\":7554:7562   */\n      0x00\n        /* \"#utility.yul\":7604:7609   */\n      dup3\n        /* \"#utility.yul\":7598:7602   */\n      dup3\n        /* \"#utility.yul\":7594:7610   */\n      shl\n        /* \"#utility.yul\":7573:7610   */\n      swap1\n      pop\n        /* \"#utility.yul\":7510:7617   */\n      swap3\n      swap2\n      pop\n      pop\n      jump\t// out\n        /* \"#utility.yul\":7623:8016   */\n    tag_72:\n        /* \"#utility.yul\":7692:7698   */\n      0x00\n        /* \"#utility.yul\":7742:7743   */\n      0x08\n        /* \"#utility.yul\":7730:7740   */\n      dup4\n        /* \"#utility.yul\":7726:7744   */\n      mul\n        /* \"#utility.yul\":7765:7862   */\n      tag_165\n        /* \"#utility.yul\":7795:7861   */\n      0xffffffffffffffffffffffffffffffffffffffffffffffffffffffffffffffff\n        /* \"#utility.yul\":7784:7793   */\n      dup3\n        /* \"#utility.yul\":7765:7862   */\n      tag_71\n      jump\t// in\n    tag_165:\n        /* \"#utility.yul\":7883:7922   */\n      tag_166\n        /* \"#utility.yul\":7913:7921   */\n      dup7\n        /* \"#utility.yul\":7902:7911   */\n      dup4\n        /* \"#utility.yul\":7883:7922   */\n      tag_71\n      jump\t// in\n    tag_166:\n        /* \"#utility.yul\":7871:7922   */\n      swap6\n      pop\n        /* \"#utility.yul\":7955:7959   */\n      dup1\n        /* \"#utility.yul\":7951:7960   */\n      not\n        /* \"#utility.yul\":7944:7949   */\n      dup5\n        /* \"#utility.yul\":7940:7961   */\n      and\n        /* \"#utility.yul\":7931:7961   */\n      swap4\n      pop\n        /* \"#utility.yul\":8004:8008   */\n      dup1\n        /* \"#utility.yul\":7994:8002   */\n      dup7\n        /* \"#utility.yul\":7990:8009   */\n      and\n        /* \"#utility.yul\":7983:7988   */\n      dup5\n        /* \"#utility.yul\":7980:8010   */\n      or\n        /* \"#utility.yul\":7970:8010   */\n      swap3\n      pop\n        /* \"#utility.yul\":7699:8016   */\n      pop\n      pop\n        /* \"#utility.yul\":7623:8016   */\n      swap4\n      swap3\n      pop\n      pop\n      pop\n      jump\t// out\n        /* \"#utility.yul\":8022:8082   */\n    tag_73:\n        /* \"#utility.yul\":8050:8053   */\n      0x00\n        /* \"#utility.yul\":8071:8076   */\n      dup2\n        /* \"#utility.yul\":8064:8076   */\n      swap1\n      pop\n        /* \"#utility.yul\":8022:8082   */\n      swap2\n      swap1\n      pop\n      jump\t// out\n        /* \"#utility.yul\":8088:8230   */\n    tag_74:\n        /* \"#utility.yul\":8138:8147   */\n      0x00\n        /* \"#utility.yul\":8171:8224   */\n      tag_169\n        /* \"#utility.yul\":8189:8223   */\n      tag_170\n        /* \"#utility.yul\":8198:8222   */\n      tag_171\n        /* \"#utility.yul\":8216:8221   */\n      dup5\n        /* \"#utility.yul\":8198:8222   */\n      tag_55\n      jump\t// in\n    tag_171:\n        /* \"#utility.yul\":8189:8223   */\n      tag_73\n      jump\t// in\n    tag_170:\n        /* \"#utility.yul\":8171:8224   */\n      tag_55\n      jump\t// in\n    tag_169:\n        /* \"#utility.yul\":8158:8224   */\n      swap1\n      pop\n        /* \"#utility.yul\":8088:8230   */\n      swap2\n      swap1\n      pop\n      jump\t// out\n        /* \"#utility.yul\":8236:8311   */\n    tag_75:\n        /* \"#utility.yul\":8279:8282   */\n      0x00\n        /* \"#utility.yul\":8300:8305   */\n      dup2\n        /* \"#utility.yul\":8293:8305   */\n      swap1\n      pop\n        /* \"#utility.yul\":8236:8311   */\n      swap2\n      swap1\n      pop\n      jump\t// out\n        /* \"#utility.yul\":8317:8586   */\n    tag_76:\n        /* \"#utility.yul\":8427:8466   */\n      tag_174\n        /* \"#utility.yul\":8458:8465   */\n      dup4\n        /* \"#utility.yul\":8427:8466   */\n      tag_74\n      jump\t// in\n    tag_174:\n        /* \"#utility.yul\":8488:8579   */\n      tag_175\n        /* \"#utility.yul\":8537:8578   */\n      tag_176\n        /* \"#utility.yul\":8561:8577   */\n      dup3\n        /* \"#utility.yul\":8537:8578   */\n      tag_75\n      jump\t// in\n    tag_176:\n        /* \"#utility.yul\":8529:8535   */\n      dup5\n        /* \"#utility.yul\":8522:8526   */\n      dup5\n        /* \"#utility.yul\":8516:8527   */\n      sload\n        /* \"#utility.yul\":8488:8579   */\n      tag_72\n      jump\t// in\n    tag_175:\n        /* \"#utility.yul\":8482:8486   */\n      dup3\n        /* \"#utility.yul\":8475:8580   */\n      sstore\n        /* \"#utility.yul\":8393:8586   */\n      pop\n        /* \"#utility.yul\":8317:8586   */\n      pop\n      pop\n      pop\n      jump\t// out\n        /* \"#utility.yul\":8592:8665   */\n    tag_77:\n        /* \"#utility.yul\":8637:8640   */\n      0x00\n        /* \"#utility.yul\":8592:8665   */\n      swap1\n      jump\t// out\n        /* \"#utility.yul\":8671:8860   */\n    tag_78:\n        /* \"#utility.yul\":8748:8780   */\n      tag_179\n      tag_77\n      jump\t// in\n    tag_179:\n        /* \"#utility.yul\":8789:8854   */\n      tag_180\n        /* \"#utility.yul\":8847:8853   */\n      dup2\n        /* \"#utility.yul\":8839:8845   */\n      dup5\n        /* \"#utility.yul\":8833:8837   */\n      dup5\n        /* \"#utility.yul\":8789:8854   */\n      tag_76\n      jump\t// in\n    tag_180:\n        /* \"#utility.yul\":8724:8860   */\n      pop\n        /* \"#utility.yul\":8671:8860   */\n      pop\n      pop\n      jump\t// out\n        /* \"#utility.yul\":8866:9052   */\n    tag_79:\n        /* \"#utility.yul\":8926:9046   */\n    tag_182:\n        /* \"#utility.yul\":8943:8946   */\n      dup2\n        /* \"#utility.yul\":8936:8941   */\n      dup2\n        /* \"#utility.yul\":8933:8947   */\n      lt\n        /* \"#utility.yul\":8926:9046   */\n      iszero\n      tag_184\n      jumpi\n        /* \"#utility.yul\":8997:9036   */\n      tag_185\n        /* \"#utility.yul\":9034:9035   */\n      0x00\n        /* \"#utility.yul\":9027:9032   */\n      dup3\n        /* \"#utility.yul\":8997:9036   */\n      tag_78\n      jump\t// in\n    tag_185:\n        /* \"#utility.yul\":8970:8971   */\n      0x01\n        /* \"#utility.yul\":8963:8968   */\n      dup2\n        /* \"#utility.yul\":8959:8972   */\n      add\n        /* \"#utility.yul\":8950:8972   */\n      swap1\n      pop\n        /* \"#utility.yul\":8926:9046   */\n      jump(tag_182)\n    tag_184:\n        /* \"#utility.yul\":8866:9052   */\n      pop\n      pop\n      jump\t// out\n        /* \"#utility.yul\":9058:9601   */\n    tag_80:\n        /* \"#utility.yul\":9159:9161   */\n      0x1f\n        /* \"#utility.yul\":9154:9157   */\n      dup3\n        /* \"#utility.yul\":9151:9162   */\n      gt\n        /* \"#utility.yul\":9148:9594   */\n      iszero\n      tag_187\n      jumpi\n        /* \"#utility.yul\":9193:9231   */\n      tag_188\n        /* \"#utility.yul\":9225:9230   */\n      dup2\n        /* \"#utility.yul\":9193:9231   */\n      tag_69\n      jump\t// in\n    tag_188:\n        /* \"#utility.yul\":9277:9306   */\n      tag_189\n        /* \"#utility.yul\":9295:9305   */\n      dup5\n        /* \"#utility.yul\":9277:9306   */\n      tag_70\n      jump\t// in\n    tag_189:\n        /* \"#utility.yul\":9267:9275   */\n      dup2\n        /* \"#utility.yul\":9263:9307   */\n      add\n        /* \"#utility.yul\":9460:9462   */\n      0x20\n        /* \"#utility.yul\":9448:9458   */\n      dup6\n        /* \"#utility.yul\":9445:9463   */\n      lt\n        /* \"#utility.yul\":9442:9491   */\n      iszero\n      tag_190\n      jumpi\n        /* \"#utility.yul\":9481:9489   */\n      dup2\n        /* \"#utility.yul\":9466:9489   */\n      swap1\n      pop\n        /* \"#utility.yul\":9442:9491   */\n    tag_190:\n        /* \"#utility.yul\":9504:9584   */\n      tag_191\n        /* \"#utility.yul\":9560:9582   */\n      tag_192\n        /* \"#utility.yul\":9578:9581   */\n      dup6\n        /* \"#utility.yul\":9560:9582   */\n      tag_70\n      jump\t// in\n    tag_192:\n        /* \"#utility.yul\":9550:9558   */\n      dup4\n        /* \"#utility.yul\":9546:9583   */\n      add\n        /* \"#utility.yul\":9533:9544   */\n      dup3\n        /* \"#utility.yul\":9504:9584   */\n      tag_79\n      jump\t// in\n    tag_191:\n        /* \"#utility.yul\":9163:9594   */\n      pop\n      pop\n        /* \"#utility.yul\":9148:9594   */\n    tag_187:\n        /* \"#utility.yul\":9058:9601   */\n      pop\n      pop\n      pop\n      jump\t// out\n        /* \"#utility.yul\":9607:9724   */\n    tag_81:\n        /* \"#utility.yul\":9661:9669   */\n      0x00\n        /* \"#utility.yul\":9711:9716   */\n      dup3\n        /* \"#utility.yul\":9705:9709   */\n      dup3\n        /* \"#utility.yul\":9701:9717   */\n      shr\n        /* \"#utility.yul\":9680:9717   */\n      swap1\n      pop\n        /* \"#utility.yul\":9607:9724   */\n      swap3\n      swap2\n      pop\n      pop\n      jump\t// out\n        /* \"#utility.yul\":9730:9899   */\n    tag_82:\n        /* \"#utility.yul\":9774:9780   */\n      0x00\n        /* \"#utility.yul\":9807:9858   */\n      tag_195\n        /* \"#utility.yul\":9855:9856   */\n      0x00\n        /* \"#utility.yul\":9851:9857   */\n      not\n        /* \"#utility.yul\":9843:9848   */\n      dup5\n        /* \"#utility.yul\":9840:9841   */\n      0x08\n        /* \"#utility.yul\":9836:9849   */\n      mul\n        /* \"#utility.yul\":9807:9858   */\n      tag_81\n      jump\t// in\n    tag_195:\n        /* \"#utility.yul\":9803:9859   */\n      not\n        /* \"#utility.yul\":9888:9892   */\n      dup1\n        /* \"#utility.yul\":9882:9886   */\n      dup4\n        /* \"#utility.yul\":9878:9893   */\n      and\n        /* \"#utility.yul\":9868:9893   */\n      swap2\n      pop\n        /* \"#utility.yul\":9781:9899   */\n      pop\n        /* \"#utility.yul\":9730:9899   */\n      swap3\n      swap2\n      pop\n      pop\n      jump\t// out\n        /* \"#utility.yul\":9904:10199   */\n    tag_83:\n        /* \"#utility.yul\":9980:9984   */\n      0x00\n        /* \"#utility.yul\":10126:10155   */\n      tag_197\n        /* \"#utility.yul\":10151:10154   */\n      dup4\n        /* \"#utility.yul\":10145:10149   */\n      dup4\n        /* \"#utility.yul\":10126:10155   */\n      tag_82\n      jump\t// in\n    tag_197:\n        /* \"#utility.yul\":10118:10155   */\n      swap2\n      pop\n        /* \"#utility.yul\":10188:10191   */\n      dup3\n        /* \"#utility.yul\":10185:10186   */\n      0x02\n        /* \"#utility.yul\":10181:10192   */\n      mul\n        /* \"#utility.yul\":10175:10179   */\n      dup3\n        /* \"#utility.yul\":10172:10193   */\n      or\n        /* \"#utility.yul\":10164:10193   */\n      swap1\n      pop\n        /* \"#utility.yul\":9904:10199   */\n      swap3\n      swap2\n      pop\n      pop\n      jump\t// out\n        /* \"#utility.yul\":10204:11599   */\n    tag_40:\n        /* \"#utility.yul\":10321:10358   */\n      tag_199\n        /* \"#utility.yul\":10354:10357   */\n      dup3\n        /* \"#utility.yul\":10321:10358   */\n      tag_50\n      jump\t// in\n    tag_199:\n        /* \"#utility.yul\":10423:10441   */\n      0xffffffffffffffff\n        /* \"#utility.yul\":10415:10421   */\n      dup2\n        /* \"#utility.yul\":10412:10442   */\n      gt\n        /* \"#utility.yul\":10409:10465   */\n      iszero\n      tag_200\n      jumpi\n        /* \"#utility.yul\":10445:10463   */\n      tag_201\n      tag_68\n      jump\t// in\n    tag_201:\n        /* \"#utility.yul\":10409:10465   */\n    tag_200:\n        /* \"#utility.yul\":10489:10527   */\n      tag_202\n        /* \"#utility.yul\":10521:10525   */\n      dup3\n        /* \"#utility.yul\":10515:10526   */\n      sload\n        /* \"#utility.yul\":10489:10527   */\n      tag_25\n      jump\t// in\n    tag_202:\n        /* \"#utility.yul\":10574:10641   */\n      tag_203\n        /* \"#utility.yul\":10634:10640   */\n      dup3\n        /* \"#utility.yul\":10626:10632   */\n      dup3\n        /* \"#utility.yul\":10620:10624   */\n      dup6\n        /* \"#utility.yul\":10574:10641   */\n      tag_80\n      jump\t// in\n    tag_203:\n        /* \"#utility.yul\":10668:10669   */\n      0x00\n        /* \"#utility.yul\":10692:10696   */\n      0x20\n        /* \"#utility.yul\":10679:10696   */\n      swap1\n      pop\n        /* \"#utility.yul\":10724:10726   */\n      0x1f\n        /* \"#utility.yul\":10716:10722   */\n      dup4\n        /* \"#utility.yul\":10713:10727   */\n      gt\n        /* \"#utility.yul\":10741:10742   */\n      0x01\n        /* \"#utility.yul\":10736:11354   */\n      dup2\n      eq\n      tag_205\n      jumpi\n        /* \"#utility.yul\":11398:11399   */\n      0x00\n        /* \"#utility.yul\":11415:11421   */\n      dup5\n        /* \"#utility.yul\":11412:11489   */\n      iszero\n      tag_206\n      jumpi\n        /* \"#utility.yul\":11464:11473   */\n      dup3\n        /* \"#utility.yul\":11459:11462   */\n      dup8\n        /* \"#utility.yul\":11455:11474   */\n      add\n        /* \"#utility.yul\":11449:11475   */\n      mload\n        /* \"#utility.yul\":11440:11475   */\n      swap1\n      pop\n        /* \"#utility.yul\":11412:11489   */\n    tag_206:\n        /* \"#utility.yul\":11515:11582   */\n      tag_207\n        /* \"#utility.yul\":11575:11581   */\n      dup6\n        /* \"#utility.yul\":11568:11573   */\n      dup3\n        /* \"#utility.yul\":11515:11582   */\n      tag_83\n      jump\t// in\n    tag_207:\n        /* \"#utility.yul\":11509:11513   */\n      dup7\n        /* \"#utility.yul\":11502:11583   */\n      sstore\n        /* \"#utility.yul\":11371:11593   */\n      pop\n        /* \"#utility.yul\":10706:11593   */\n      jump(tag_204)\n        /* \"#utility.yul\":10736:11354   */\n    tag_205:\n        /* \"#utility.yul\":10788:10792   */\n      0x1f\n        /* \"#utility.yul\":10784:10793   */\n      not\n        /* \"#utility.yul\":10776:10782   */\n      dup5\n        /* \"#utility.yul\":10772:10794   */\n      and\n        /* \"#utility.yul\":10822:10859   */\n      tag_208\n        /* \"#utility.yul\":10854:10858   */\n      dup7\n        /* \"#utility.yul\":10822:10859   */\n      tag_69\n      jump\t// in\n    tag_208:\n        /* \"#utility.yul\":10881:10882   */\n      0x00\n        /* \"#utility.yul\":10895:11103   */\n    tag_209:\n        /* \"#utility.yul\":10909:10916   */\n      dup3\n        /* \"#utility.yul\":10906:10907   */\n      dup2\n        /* \"#utility.yul\":10903:10917   */\n      lt\n        /* \"#utility.yul\":10895:11103   */\n      iszero\n      tag_211\n      jumpi\n        /* \"#utility.yul\":10988:10997   */\n      dup5\n        /* \"#utility.yul\":10983:10986   */\n      dup10\n        /* \"#utility.yul\":10979:10998   */\n      add\n        /* \"#utility.yul\":10973:10999   */\n      mload\n        /* \"#utility.yul\":10965:10971   */\n      dup3\n        /* \"#utility.yul\":10958:11000   */\n      sstore\n        /* \"#utility.yul\":11039:11040   */\n      0x01\n        /* \"#utility.yul\":11031:11037   */\n      dup3\n        /* \"#utility.yul\":11027:11041   */\n      add\n        /* \"#utility.yul\":11017:11041   */\n      swap2\n      pop\n        /* \"#utility.yul\":11086:11088   */\n      0x20\n        /* \"#utility.yul\":11075:11084   */\n      dup6\n        /* \"#utility.yul\":11071:11089   */\n      add\n        /* \"#utility.yul\":11058:11089   */\n      swap5\n      pop\n        /* \"#utility.yul\":10932:10936   */\n      0x20\n        /* \"#utility.yul\":10929:10930   */\n      dup2\n        /* \"#utility.yul\":10925:10937   */\n      add\n        /* \"#utility.yul\":10920:10937   */\n      swap1\n      pop\n        /* \"#utility.yul\":10895:11103   */\n      jump(tag_209)\n    tag_211:\n        /* \"#utility.yul\":11131:11137   */\n      dup7\n        /* \"#utility.yul\":11122:11129   */\n      dup4\n        /* \"#utility.yul\":11119:11138   */\n      lt\n        /* \"#utility.yul\":11116:11295   */\n      iszero\n      tag_212\n      jumpi\n        /* \"#utility.yul\":11189:11198   */\n      dup5\n        /* \"#utility.yul\":11184:11187   */\n      dup10\n        /* \"#utility.yul\":11180:11199   */\n      add\n        /* \"#utility.yul\":11174:11200   */\n      mload\n        /* \"#utility.yul\":11232:11280   */\n      tag_213\n        /* \"#utility.yul\":11274:11278   */\n      0x1f\n        /* \"#utility.yul\":11266:11272   */\n      dup10\n        /* \"#utility.yul\":11262:11279   */\n      and\n        /* \"#utility.yul\":11251:11260   */\n      dup3\n        /* \"#utility.yul\":11232:11280   */\n      tag_82\n      jump\t// in\n    tag_213:\n        /* \"#utility.yul\":11224:11230   */\n      dup4\n        /* \"#utility.yul\":11217:11281   */\n      sstore\n        /* \"#utility.yul\":11139:11295   */\n      pop\n        /* \"#utility.yul\":11116:11295   */\n    tag_212:\n        /* \"#utility.yul\":11341:11342   */\n      0x01\n        /* \"#utility.yul\":11337:11338   */\n      0x02\n        /* \"#utility.yul\":11329:11335   */\n      dup9\n        /* \"#utility.yul\":11325:11339   */\n      mul\n        /* \"#utility.yul\":11321:11343   */\n      add\n        /* \"#utility.yul\":11315:11319   */\n      dup9\n        /* \"#utility.yul\":11308:11344   */\n      sstore\n        /* \"#utility.yul\":10743:11354   */\n      pop\n      pop\n      pop\n        /* \"#utility.yul\":10706:11593   */\n    tag_204:\n      pop\n        /* \"#utility.yul\":10296:11599   */\n      pop\n      pop\n      pop\n        /* \"#utility.yul\":10204:11599   */\n      pop\n      pop\n      jump\t// out\n\n    auxdata: 0xa2646970667358221220192033eb8f8a3c385e93975bfce7d2ecd10ac5f8b90ea65c16af7d420b5d7d9e64736f6c63430008120033\n}\n",
				"bytecode": {
					"linkReferences": {},
					"object": "608060405234801561001057600080fd5b5033600160006101000a81548173ffffffffffffffffffffffffffffffffffffffff021916908373ffffffffffffffffffffffffffffffffffffffff160217905550610a40806100616000396000f3fe608060405234801561001057600080fd5b506004361061004c5760003560e01c80637151ace214610051578063a3ec138d1461006f578063ce606ee0146100a2578063e661ea5f146100c0575b600080fd5b6100596100dc565b604051610066919061040b565b60405180910390f35b6100896004803603810190610084919061045c565b610100565b604051610099949392919061054d565b60405180910390f35b6100aa61024d565b6040516100b7919061040b565b60405180910390f35b6100da60048036038101906100d59190610631565b610273565b005b60008054906101000a900473ffffffffffffffffffffffffffffffffffffffff1681565b6002602052806000526040600020600091509050806000018054610123906106c0565b80601f016020809104026020016040519081016040528092919081815260200182805461014f906106c0565b801561019c5780601f106101715761010080835404028352916020019161019c565b820191906000526020600020905b81548152906001019060200180831161017f57829003601f168201915b5050505050908060010154908060020180546101b7906106c0565b80601f01602080910402602001604051908101604052809291908181526020018280546101e3906106c0565b80156102305780601f1061020557610100808354040283529160200191610230565b820191906000526020600020905b81548152906001019060200180831161021357829003601f168201915b5050505050908060030160009054906101000a900460ff16905084565b600160009054906101000a900473ffffffffffffffffffffffffffffffffffffffff1681565b601281116102b6576040517f08c379a00000000000000000000000000000000000000000000000000000000081526004016102ad9061073d565b60405180910390fd5b604051806080016040528084848080601f016020809104026020016040519081016040528093929190818152602001838380828437600081840152601f19601f82011690508083019250505050505050815260200182815260200160405180602001604052806000815250815260200160001515815250600260003373ffffffffffffffffffffffffffffffffffffffff1673ffffffffffffffffffffffffffffffffffffffff16815260200190815260200160002060008201518160000190816103819190610938565b506020820151816001015560408201518160020190816103a19190610938565b5060608201518160030160006101000a81548160ff021916908315150217905550905050505050565b600073ffffffffffffffffffffffffffffffffffffffff82169050919050565b60006103f5826103ca565b9050919050565b610405816103ea565b82525050565b600060208201905061042060008301846103fc565b92915050565b600080fd5b600080fd5b610439816103ea565b811461044457600080fd5b50565b60008135905061045681610430565b92915050565b60006020828403121561047257610471610426565b5b600061048084828501610447565b91505092915050565b600081519050919050565b600082825260208201905092915050565b60005b838110156104c35780820151818401526020810190506104a8565b60008484015250505050565b6000601f19601f8301169050919050565b60006104eb82610489565b6104f58185610494565b93506105058185602086016104a5565b61050e816104cf565b840191505092915050565b6000819050919050565b61052c81610519565b82525050565b60008115159050919050565b61054781610532565b82525050565b6000608082019050818103600083015261056781876104e0565b90506105766020830186610523565b818103604083015261058881856104e0565b9050610597606083018461053e565b95945050505050565b600080fd5b600080fd5b600080fd5b60008083601f8401126105c5576105c46105a0565b5b8235905067ffffffffffffffff8111156105e2576105e16105a5565b5b6020830191508360018202830111156105fe576105fd6105aa565b5b9250929050565b61060e81610519565b811461061957600080fd5b50565b60008135905061062b81610605565b92915050565b60008060006040848603121561064a57610649610426565b5b600084013567ffffffffffffffff8111156106685761066761042b565b5b610674868287016105af565b935093505060206106878682870161061c565b9150509250925092565b7f4e487b7100000000000000000000000000000000000000000000000000000000600052602260045260246000fd5b600060028204905060018216806106d857607f821691505b6020821081036106eb576106ea610691565b5b50919050565b7f6e6f7420656c696769626c6520746f20766f7465000000000000000000000000600082015250565b6000610727601483610494565b9150610732826106f1565b602082019050919050565b600060208201905081810360008301526107568161071a565b9050919050565b7f4e487b7100000000000000000000000000000000000000000000000000000000600052604160045260246000fd5b60008190508160005260206000209050919050565b60006020601f8301049050919050565b600082821b905092915050565b6000600883026107ee7fffffffffffffffffffffffffffffffffffffffffffffffffffffffffffffffff826107b1565b6107f886836107b1565b95508019841693508086168417925050509392505050565b6000819050919050565b600061083561083061082b84610519565b610810565b610519565b9050919050565b6000819050919050565b61084f8361081a565b61086361085b8261083c565b8484546107be565b825550505050565b600090565b61087861086b565b610883818484610846565b505050565b5b818110156108a75761089c600082610870565b600181019050610889565b5050565b601f8211156108ec576108bd8161078c565b6108c6846107a1565b810160208510156108d5578190505b6108e96108e1856107a1565b830182610888565b50505b505050565b600082821c905092915050565b600061090f600019846008026108f1565b1980831691505092915050565b600061092883836108fe565b9150826002028217905092915050565b61094182610489565b67ffffffffffffffff81111561095a5761095961075d565b5b61096482546106c0565b61096f8282856108ab565b600060209050601f8311600181146109a25760008415610990578287015190505b61099a858261091c565b865550610a02565b601f1984166109b08661078c565b60005b828110156109d8578489015182556001820191506020850194506020810190506109b3565b868310156109f557848901516109f1601f8916826108fe565b8355505b6001600288020188555050505b50505050505056fea2646970667358221220192033eb8f8a3c385e93975bfce7d2ecd10ac5f8b90ea65c16af7d420b5d7d9e64736f6c63430008120033",
					"opcodes": "PUSH1 0x80 PUSH1 0x40 MSTORE CALLVALUE DUP1 ISZERO PUSH2 0x10 JUMPI PUSH1 0x0 DUP1 REVERT JUMPDEST POP CALLER PUSH1 0x1 PUSH1 0x0 PUSH2 0x100 EXP DUP2 SLOAD DUP2 PUSH20 0xFFFFFFFFFFFFFFFFFFFFFFFFFFFFFFFFFFFFFFFF MUL NOT AND SWAP1 DUP4 PUSH20 0xFFFFFFFFFFFFFFFFFFFFFFFFFFFFFFFFFFFFFFFF AND MUL OR SWAP1 SSTORE POP PUSH2 0xA40 DUP1 PUSH2 0x61 PUSH1 0x0 CODECOPY PUSH1 0x0 RETURN INVALID PUSH1 0x80 PUSH1 0x40 MSTORE CALLVALUE DUP1 ISZERO PUSH2 0x10 JUMPI PUSH1 0x0 DUP1 REVERT JUMPDEST POP PUSH1 0x4 CALLDATASIZE LT PUSH2 0x4C JUMPI PUSH1 0x0 CALLDATALOAD PUSH1 0xE0 SHR DUP1 PUSH4 0x7151ACE2 EQ PUSH2 0x51 JUMPI DUP1 PUSH4 0xA3EC138D EQ PUSH2 0x6F JUMPI DUP1 PUSH4 0xCE606EE0 EQ PUSH2 0xA2 JUMPI DUP1 PUSH4 0xE661EA5F EQ PUSH2 0xC0 JUMPI JUMPDEST PUSH1 0x0 DUP1 REVERT JUMPDEST PUSH2 0x59 PUSH2 0xDC JUMP JUMPDEST PUSH1 0x40 MLOAD PUSH2 0x66 SWAP2 SWAP1 PUSH2 0x40B JUMP JUMPDEST PUSH1 0x40 MLOAD DUP1 SWAP2 SUB SWAP1 RETURN JUMPDEST PUSH2 0x89 PUSH1 0x4 DUP1 CALLDATASIZE SUB DUP2 ADD SWAP1 PUSH2 0x84 SWAP2 SWAP1 PUSH2 0x45C JUMP JUMPDEST PUSH2 0x100 JUMP JUMPDEST PUSH1 0x40 MLOAD PUSH2 0x99 SWAP5 SWAP4 SWAP3 SWAP2 SWAP1 PUSH2 0x54D JUMP JUMPDEST PUSH1 0x40 MLOAD DUP1 SWAP2 SUB SWAP1 RETURN JUMPDEST PUSH2 0xAA PUSH2 0x24D JUMP JUMPDEST PUSH1 0x40 MLOAD PUSH2 0xB7 SWAP2 SWAP1 PUSH2 0x40B JUMP JUMPDEST PUSH1 0x40 MLOAD DUP1 SWAP2 SUB SWAP1 RETURN JUMPDEST PUSH2 0xDA PUSH1 0x4 DUP1 CALLDATASIZE SUB DUP2 ADD SWAP1 PUSH2 0xD5 SWAP2 SWAP1 PUSH2 0x631 JUMP JUMPDEST PUSH2 0x273 JUMP JUMPDEST STOP JUMPDEST PUSH1 0x0 DUP1 SLOAD SWAP1 PUSH2 0x100 EXP SWAP1 DIV PUSH20 0xFFFFFFFFFFFFFFFFFFFFFFFFFFFFFFFFFFFFFFFF AND DUP2 JUMP JUMPDEST PUSH1 0x2 PUSH1 0x20 MSTORE DUP1 PUSH1 0x0 MSTORE PUSH1 0x40 PUSH1 0x0 KECCAK256 PUSH1 0x0 SWAP2 POP SWAP1 POP DUP1 PUSH1 0x0 ADD DUP1 SLOAD PUSH2 0x123 SWAP1 PUSH2 0x6C0 JUMP JUMPDEST DUP1 PUSH1 0x1F ADD PUSH1 0x20 DUP1 SWAP2 DIV MUL PUSH1 0x20 ADD PUSH1 0x40 MLOAD SWAP1 DUP2 ADD PUSH1 0x40 MSTORE DUP1 SWAP3 SWAP2 SWAP1 DUP2 DUP2 MSTORE PUSH1 0x20 ADD DUP3 DUP1 SLOAD PUSH2 0x14F SWAP1 PUSH2 0x6C0 JUMP JUMPDEST DUP1 ISZERO PUSH2 0x19C JUMPI DUP1 PUSH1 0x1F LT PUSH2 0x171 JUMPI PUSH2 0x100 DUP1 DUP4 SLOAD DIV MUL DUP4 MSTORE SWAP2 PUSH1 0x20 ADD SWAP2 PUSH2 0x19C JUMP JUMPDEST DUP3 ADD SWAP2 SWAP1 PUSH1 0x0 MSTORE PUSH1 0x20 PUSH1 0x0 KECCAK256 SWAP1 JUMPDEST DUP2 SLOAD DUP2 MSTORE SWAP1 PUSH1 0x1 ADD SWAP1 PUSH1 0x20 ADD DUP1 DUP4 GT PUSH2 0x17F JUMPI DUP3 SWAP1 SUB PUSH1 0x1F AND DUP3 ADD SWAP2 JUMPDEST POP POP POP POP POP SWAP1 DUP1 PUSH1 0x1 ADD SLOAD SWAP1 DUP1 PUSH1 0x2 ADD DUP1 SLOAD PUSH2 0x1B7 SWAP1 PUSH2 0x6C0 JUMP JUMPDEST DUP1 PUSH1 0x1F ADD PUSH1 0x20 DUP1 SWAP2 DIV MUL PUSH1 0x20 ADD PUSH1 0x40 MLOAD SWAP1 DUP2 ADD PUSH1 0x40 MSTORE DUP1 SWAP3 SWAP2 SWAP1 DUP2 DUP2 MSTORE PUSH1 0x20 ADD DUP3 DUP1 SLOAD PUSH2 0x1E3 SWAP1 PUSH2 0x6C0 JUMP JUMPDEST DUP1 ISZERO PUSH2 0x230 JUMPI DUP1 PUSH1 0x1F LT PUSH2 0x205 JUMPI PUSH2 0x100 DUP1 DUP4 SLOAD DIV MUL DUP4 MSTORE SWAP2 PUSH1 0x20 ADD SWAP2 PUSH2 0x230 JUMP JUMPDEST DUP3 ADD SWAP2 SWAP1 PUSH1 0x0 MSTORE PUSH1 0x20 PUSH1 0x0 KECCAK256 SWAP1 JUMPDEST DUP2 SLOAD DUP2 MSTORE SWAP1 PUSH1 0x1 ADD SWAP1 PUSH1 0x20 ADD DUP1 DUP4 GT PUSH2 0x213 JUMPI DUP3 SWAP1 SUB PUSH1 0x1F AND DUP3 ADD SWAP2 JUMPDEST POP POP POP POP POP SWAP1 DUP1 PUSH1 0x3 ADD PUSH1 0x0 SWAP1 SLOAD SWAP1 PUSH2 0x100 EXP SWAP1 DIV PUSH1 0xFF AND SWAP1 POP DUP5 JUMP JUMPDEST PUSH1 0x1 PUSH1 0x0 SWAP1 SLOAD SWAP1 PUSH2 0x100 EXP SWAP1 DIV PUSH20 0xFFFFFFFFFFFFFFFFFFFFFFFFFFFFFFFFFFFFFFFF AND DUP2 JUMP JUMPDEST PUSH1 0x12 DUP2 GT PUSH2 0x2B6 JUMPI PUSH1 0x40 MLOAD PUSH32 0x8C379A000000000000000000000000000000000000000000000000000000000 DUP2 MSTORE PUSH1 0x4 ADD PUSH2 0x2AD SWAP1 PUSH2 0x73D JUMP JUMPDEST PUSH1 0x40 MLOAD DUP1 SWAP2 SUB SWAP1 REVERT JUMPDEST PUSH1 0x40 MLOAD DUP1 PUSH1 0x80 ADD PUSH1 0x40 MSTORE DUP1 DUP5 DUP5 DUP1 DUP1 PUSH1 0x1F ADD PUSH1 0x20 DUP1 SWAP2 DIV MUL PUSH1 0x20 ADD PUSH1 0x40 MLOAD SWAP1 DUP2 ADD PUSH1 0x40 MSTORE DUP1 SWAP4 SWAP3 SWAP2 SWAP1 DUP2 DUP2 MSTORE PUSH1 0x20 ADD DUP4 DUP4 DUP1 DUP3 DUP5 CALLDATACOPY PUSH1 0x0 DUP2 DUP5 ADD MSTORE PUSH1 0x1F NOT PUSH1 0x1F DUP3 ADD AND SWAP1 POP DUP1 DUP4 ADD SWAP3 POP POP POP POP POP POP POP DUP2 MSTORE PUSH1 0x20 ADD DUP3 DUP2 MSTORE PUSH1 0x20 ADD PUSH1 0x40 MLOAD DUP1 PUSH1 0x20 ADD PUSH1 0x40 MSTORE DUP1 PUSH1 0x0 DUP2 MSTORE POP DUP2 MSTORE PUSH1 0x20 ADD PUSH1 0x0 ISZERO ISZERO DUP2 MSTORE POP PUSH1 0x2 PUSH1 0x0 CALLER PUSH20 0xFFFFFFFFFFFFFFFFFFFFFFFFFFFFFFFFFFFFFFFF AND PUSH20 0xFFFFFFFFFFFFFFFFFFFFFFFFFFFFFFFFFFFFFFFF AND DUP2 MSTORE PUSH1 0x20 ADD SWAP1 DUP2 MSTORE PUSH1 0x20 ADD PUSH1 0x0 KECCAK256 PUSH1 0x0 DUP3 ADD MLOAD DUP2 PUSH1 0x0 ADD SWAP1 DUP2 PUSH2 0x381 SWAP2 SWAP1 PUSH2 0x938 JUMP JUMPDEST POP PUSH1 0x20 DUP3 ADD MLOAD DUP2 PUSH1 0x1 ADD SSTORE PUSH1 0x40 DUP3 ADD MLOAD DUP2 PUSH1 0x2 ADD SWAP1 DUP2 PUSH2 0x3A1 SWAP2 SWAP1 PUSH2 0x938 JUMP JUMPDEST POP PUSH1 0x60 DUP3 ADD MLOAD DUP2 PUSH1 0x3 ADD PUSH1 0x0 PUSH2 0x100 EXP DUP2 SLOAD DUP2 PUSH1 0xFF MUL NOT AND SWAP1 DUP4 ISZERO ISZERO MUL OR SWAP1 SSTORE POP SWAP1 POP POP POP POP POP JUMP JUMPDEST PUSH1 0x0 PUSH20 0xFFFFFFFFFFFFFFFFFFFFFFFFFFFFFFFFFFFFFFFF DUP3 AND SWAP1 POP SWAP2 SWAP1 POP JUMP JUMPDEST PUSH1 0x0 PUSH2 0x3F5 DUP3 PUSH2 0x3CA JUMP JUMPDEST SWAP1 POP SWAP2 SWAP1 POP JUMP JUMPDEST PUSH2 0x405 DUP2 PUSH2 0x3EA JUMP JUMPDEST DUP3 MSTORE POP POP JUMP JUMPDEST PUSH1 0x0 PUSH1 0x20 DUP3 ADD SWAP1 POP PUSH2 0x420 PUSH1 0x0 DUP4 ADD DUP5 PUSH2 0x3FC JUMP JUMPDEST SWAP3 SWAP2 POP POP JUMP JUMPDEST PUSH1 0x0 DUP1 REVERT JUMPDEST PUSH1 0x0 DUP1 REVERT JUMPDEST PUSH2 0x439 DUP2 PUSH2 0x3EA JUMP JUMPDEST DUP2 EQ PUSH2 0x444 JUMPI PUSH1 0x0 DUP1 REVERT JUMPDEST POP JUMP JUMPDEST PUSH1 0x0 DUP2 CALLDATALOAD SWAP1 POP PUSH2 0x456 DUP2 PUSH2 0x430 JUMP JUMPDEST SWAP3 SWAP2 POP POP JUMP JUMPDEST PUSH1 0x0 PUSH1 0x20 DUP3 DUP5 SUB SLT ISZERO PUSH2 0x472 JUMPI PUSH2 0x471 PUSH2 0x426 JUMP JUMPDEST JUMPDEST PUSH1 0x0 PUSH2 0x480 DUP5 DUP3 DUP6 ADD PUSH2 0x447 JUMP JUMPDEST SWAP2 POP POP SWAP3 SWAP2 POP POP JUMP JUMPDEST PUSH1 0x0 DUP2 MLOAD SWAP1 POP SWAP2 SWAP1 POP JUMP JUMPDEST PUSH1 0x0 DUP3 DUP3 MSTORE PUSH1 0x20 DUP3 ADD SWAP1 POP SWAP3 SWAP2 POP POP JUMP JUMPDEST PUSH1 0x0 JUMPDEST DUP4 DUP2 LT ISZERO PUSH2 0x4C3 JUMPI DUP1 DUP3 ADD MLOAD DUP2 DUP5 ADD MSTORE PUSH1 0x20 DUP2 ADD SWAP1 POP PUSH2 0x4A8 JUMP JUMPDEST PUSH1 0x0 DUP5 DUP5 ADD MSTORE POP POP POP POP JUMP JUMPDEST PUSH1 0x0 PUSH1 0x1F NOT PUSH1 0x1F DUP4 ADD AND SWAP1 POP SWAP2 SWAP1 POP JUMP JUMPDEST PUSH1 0x0 PUSH2 0x4EB DUP3 PUSH2 0x489 JUMP JUMPDEST PUSH2 0x4F5 DUP2 DUP6 PUSH2 0x494 JUMP JUMPDEST SWAP4 POP PUSH2 0x505 DUP2 DUP6 PUSH1 0x20 DUP7 ADD PUSH2 0x4A5 JUMP JUMPDEST PUSH2 0x50E DUP2 PUSH2 0x4CF JUMP JUMPDEST DUP5 ADD SWAP2 POP POP SWAP3 SWAP2 POP POP JUMP JUMPDEST PUSH1 0x0 DUP2 SWAP1 POP SWAP2 SWAP1 POP JUMP JUMPDEST PUSH2 0x52C DUP2 PUSH2 0x519 JUMP JUMPDEST DUP3 MSTORE POP POP JUMP JUMPDEST PUSH1 0x0 DUP2 ISZERO ISZERO SWAP1 POP SWAP2 SWAP1 POP JUMP JUMPDEST PUSH2 0x547 DUP2 PUSH2 0x532 JUMP JUMPDEST DUP3 MSTORE POP POP JUMP JUMPDEST PUSH1 0x0 PUSH1 0x80 DUP3 ADD SWAP1 POP DUP2 DUP2 SUB PUSH1 0x0 DUP4 ADD MSTORE PUSH2 0x567 DUP2 DUP8 PUSH2 0x4E0 JUMP JUMPDEST SWAP1 POP PUSH2 0x576 PUSH1 0x20 DUP4 ADD DUP7 PUSH2 0x523 JUMP JUMPDEST DUP2 DUP2 SUB PUSH1 0x40 DUP4 ADD MSTORE PUSH2 0x588 DUP2 DUP6 PUSH2 0x4E0 JUMP JUMPDEST SWAP1 POP PUSH2 0x597 PUSH1 0x60 DUP4 ADD DUP5 PUSH2 0x53E JUMP JUMPDEST SWAP6 SWAP5 POP POP POP POP POP JUMP JUMPDEST PUSH1 0x0 DUP1 REVERT JUMPDEST PUSH1 0x0 DUP1 REVERT JUMPDEST PUSH1 0x0 DUP1 REVERT JUMPDEST PUSH1 0x0 DUP1 DUP4 PUSH1 0x1F DUP5 ADD SLT PUSH2 0x5C5 JUMPI PUSH2 0x5C4 PUSH2 0x5A0 JUMP JUMPDEST JUMPDEST DUP3 CALLDATALOAD SWAP1 POP PUSH8 0xFFFFFFFFFFFFFFFF DUP2 GT ISZERO PUSH2 0x5E2 JUMPI PUSH2 0x5E1 PUSH2 0x5A5 JUMP JUMPDEST JUMPDEST PUSH1 0x20 DUP4 ADD SWAP2 POP DUP4 PUSH1 0x1 DUP3 MUL DUP4 ADD GT ISZERO PUSH2 0x5FE JUMPI PUSH2 0x5FD PUSH2 0x5AA JUMP JUMPDEST JUMPDEST SWAP3 POP SWAP3 SWAP1 POP JUMP JUMPDEST PUSH2 0x60E DUP2 PUSH2 0x519 JUMP JUMPDEST DUP2 EQ PUSH2 0x619 JUMPI PUSH1 0x0 DUP1 REVERT JUMPDEST POP JUMP JUMPDEST PUSH1 0x0 DUP2 CALLDATALOAD SWAP1 POP PUSH2 0x62B DUP2 PUSH2 0x605 JUMP JUMPDEST SWAP3 SWAP2 POP POP JUMP JUMPDEST PUSH1 0x0 DUP1 PUSH1 0x0 PUSH1 0x40 DUP5 DUP7 SUB SLT ISZERO PUSH2 0x64A JUMPI PUSH2 0x649 PUSH2 0x426 JUMP JUMPDEST JUMPDEST PUSH1 0x0 DUP5 ADD CALLDATALOAD PUSH8 0xFFFFFFFFFFFFFFFF DUP2 GT ISZERO PUSH2 0x668 JUMPI PUSH2 0x667 PUSH2 0x42B JUMP JUMPDEST JUMPDEST PUSH2 0x674 DUP7 DUP3 DUP8 ADD PUSH2 0x5AF JUMP JUMPDEST SWAP4 POP SWAP4 POP POP PUSH1 0x20 PUSH2 0x687 DUP7 DUP3 DUP8 ADD PUSH2 0x61C JUMP JUMPDEST SWAP2 POP POP SWAP3 POP SWAP3 POP SWAP3 JUMP JUMPDEST PUSH32 0x4E487B7100000000000000000000000000000000000000000000000000000000 PUSH1 0x0 MSTORE PUSH1 0x22 PUSH1 0x4 MSTORE PUSH1 0x24 PUSH1 0x0 REVERT JUMPDEST PUSH1 0x0 PUSH1 0x2 DUP3 DIV SWAP1 POP PUSH1 0x1 DUP3 AND DUP1 PUSH2 0x6D8 JUMPI PUSH1 0x7F DUP3 AND SWAP2 POP JUMPDEST PUSH1 0x20 DUP3 LT DUP2 SUB PUSH2 0x6EB JUMPI PUSH2 0x6EA PUSH2 0x691 JUMP JUMPDEST JUMPDEST POP SWAP2 SWAP1 POP JUMP JUMPDEST PUSH32 0x6E6F7420656C696769626C6520746F20766F7465000000000000000000000000 PUSH1 0x0 DUP3 ADD MSTORE POP JUMP JUMPDEST PUSH1 0x0 PUSH2 0x727 PUSH1 0x14 DUP4 PUSH2 0x494 JUMP JUMPDEST SWAP2 POP PUSH2 0x732 DUP3 PUSH2 0x6F1 JUMP JUMPDEST PUSH1 0x20 DUP3 ADD SWAP1 POP SWAP2 SWAP1 POP JUMP JUMPDEST PUSH1 0x0 PUSH1 0x20 DUP3 ADD SWAP1 POP DUP2 DUP2 SUB PUSH1 0x0 DUP4 ADD MSTORE PUSH2 0x756 DUP2 PUSH2 0x71A JUMP JUMPDEST SWAP1 POP SWAP2 SWAP1 POP JUMP JUMPDEST PUSH32 0x4E487B7100000000000000000000000000000000000000000000000000000000 PUSH1 0x0 MSTORE PUSH1 0x41 PUSH1 0x4 MSTORE PUSH1 0x24 PUSH1 0x0 REVERT JUMPDEST PUSH1 0x0 DUP2 SWAP1 POP DUP2 PUSH1 0x0 MSTORE PUSH1 0x20 PUSH1 0x0 KECCAK256 SWAP1 POP SWAP2 SWAP1 POP JUMP JUMPDEST PUSH1 0x0 PUSH1 0x20 PUSH1 0x1F DUP4 ADD DIV SWAP1 POP SWAP2 SWAP1 POP JUMP JUMPDEST PUSH1 0x0 DUP3 DUP3 SHL SWAP1 POP SWAP3 SWAP2 POP POP JUMP JUMPDEST PUSH1 0x0 PUSH1 0x8 DUP4 MUL PUSH2 0x7EE PUSH32 0xFFFFFFFFFFFFFFFFFFFFFFFFFFFFFFFFFFFFFFFFFFFFFFFFFFFFFFFFFFFFFFFF DUP3 PUSH2 0x7B1 JUMP JUMPDEST PUSH2 0x7F8 DUP7 DUP4 PUSH2 0x7B1 JUMP JUMPDEST SWAP6 POP DUP1 NOT DUP5 AND SWAP4 POP DUP1 DUP7 AND DUP5 OR SWAP3 POP POP POP SWAP4 SWAP3 POP POP POP JUMP JUMPDEST PUSH1 0x0 DUP2 SWAP1 POP SWAP2 SWAP1 POP JUMP JUMPDEST PUSH1 0x0 PUSH2 0x835 PUSH2 0x830 PUSH2 0x82B DUP5 PUSH2 0x519 JUMP JUMPDEST PUSH2 0x810 JUMP JUMPDEST PUSH2 0x519 JUMP JUMPDEST SWAP1 POP SWAP2 SWAP1 POP JUMP JUMPDEST PUSH1 0x0 DUP2 SWAP1 POP SWAP2 SWAP1 POP JUMP JUMPDEST PUSH2 0x84F DUP4 PUSH2 0x81A JUMP JUMPDEST PUSH2 0x863 PUSH2 0x85B DUP3 PUSH2 0x83C JUMP JUMPDEST DUP5 DUP5 SLOAD PUSH2 0x7BE JUMP JUMPDEST DUP3 SSTORE POP POP POP POP JUMP JUMPDEST PUSH1 0x0 SWAP1 JUMP JUMPDEST PUSH2 0x878 PUSH2 0x86B JUMP JUMPDEST PUSH2 0x883 DUP2 DUP5 DUP5 PUSH2 0x846 JUMP JUMPDEST POP POP POP JUMP JUMPDEST JUMPDEST DUP2 DUP2 LT ISZERO PUSH2 0x8A7 JUMPI PUSH2 0x89C PUSH1 0x0 DUP3 PUSH2 0x870 JUMP JUMPDEST PUSH1 0x1 DUP2 ADD SWAP1 POP PUSH2 0x889 JUMP JUMPDEST POP POP JUMP JUMPDEST PUSH1 0x1F DUP3 GT ISZERO PUSH2 0x8EC JUMPI PUSH2 0x8BD DUP2 PUSH2 0x78C JUMP JUMPDEST PUSH2 0x8C6 DUP5 PUSH2 0x7A1 JUMP JUMPDEST DUP2 ADD PUSH1 0x20 DUP6 LT ISZERO PUSH2 0x8D5 JUMPI DUP2 SWAP1 POP JUMPDEST PUSH2 0x8E9 PUSH2 0x8E1 DUP6 PUSH2 0x7A1 JUMP JUMPDEST DUP4 ADD DUP3 PUSH2 0x888 JUMP JUMPDEST POP POP JUMPDEST POP POP POP JUMP JUMPDEST PUSH1 0x0 DUP3 DUP3 SHR SWAP1 POP SWAP3 SWAP2 POP POP JUMP JUMPDEST PUSH1 0x0 PUSH2 0x90F PUSH1 0x0 NOT DUP5 PUSH1 0x8 MUL PUSH2 0x8F1 JUMP JUMPDEST NOT DUP1 DUP4 AND SWAP2 POP POP SWAP3 SWAP2 POP POP JUMP JUMPDEST PUSH1 0x0 PUSH2 0x928 DUP4 DUP4 PUSH2 0x8FE JUMP JUMPDEST SWAP2 POP DUP3 PUSH1 0x2 MUL DUP3 OR SWAP1 POP SWAP3 SWAP2 POP POP JUMP JUMPDEST PUSH2 0x941 DUP3 PUSH2 0x489 JUMP JUMPDEST PUSH8 0xFFFFFFFFFFFFFFFF DUP2 GT ISZERO PUSH2 0x95A JUMPI PUSH2 0x959 PUSH2 0x75D JUMP JUMPDEST JUMPDEST PUSH2 0x964 DUP3 SLOAD PUSH2 0x6C0 JUMP JUMPDEST PUSH2 0x96F DUP3 DUP3 DUP6 PUSH2 0x8AB JUMP JUMPDEST PUSH1 0x0 PUSH1 0x20 SWAP1 POP PUSH1 0x1F DUP4 GT PUSH1 0x1 DUP2 EQ PUSH2 0x9A2 JUMPI PUSH1 0x0 DUP5 ISZERO PUSH2 0x990 JUMPI DUP3 DUP8 ADD MLOAD SWAP1 POP JUMPDEST PUSH2 0x99A DUP6 DUP3 PUSH2 0x91C JUMP JUMPDEST DUP7 SSTORE POP PUSH2 0xA02 JUMP JUMPDEST PUSH1 0x1F NOT DUP5 AND PUSH2 0x9B0 DUP7 PUSH2 0x78C JUMP JUMPDEST PUSH1 0x0 JUMPDEST DUP3 DUP2 LT ISZERO PUSH2 0x9D8 JUMPI DUP5 DUP10 ADD MLOAD DUP3 SSTORE PUSH1 0x1 DUP3 ADD SWAP2 POP PUSH1 0x20 DUP6 ADD SWAP5 POP PUSH1 0x20 DUP2 ADD SWAP1 POP PUSH2 0x9B3 JUMP JUMPDEST DUP7 DUP4 LT ISZERO PUSH2 0x9F5 JUMPI DUP5 DUP10 ADD MLOAD PUSH2 0x9F1 PUSH1 0x1F DUP10 AND DUP3 PUSH2 0x8FE JUMP JUMPDEST DUP4 SSTORE POP JUMPDEST PUSH1 0x1 PUSH1 0x2 DUP9 MUL ADD DUP9 SSTORE POP POP POP JUMPDEST POP POP POP POP POP POP JUMP INVALID LOG2 PUSH5 0x6970667358 0x22 SLT KECCAK256 NOT KECCAK256 CALLER 0xEB DUP16 DUP11 EXTCODECOPY CODESIZE 0x5E SWAP4 SWAP8 JUMPDEST 0xFC 0xE7 0xD2 0xEC 0xD1 EXP 0xC5 0xF8 0xB9 0xE 0xA6 0x5C AND 0xAF PUSH30 0x420B5D7D9E64736F6C634300081200330000000000000000000000000000 "
				},
				"gasEstimates": {
					"creation": {
						"codeDepositCost": "524800",
						"executionCost": "24822",
						"totalCost": "549622"
					},
					"external": {
						"contractOwner()": "2536",
						"electionCordinator()": "2489",
						"registerVoter(string,uint256)": "infinite",
						"voters(address)": "infinite"
					}
				},
				"methodIdentifiers": {
					"contractOwner()": "ce606ee0",
					"electionCordinator()": "7151ace2",
					"registerVoter(string,uint256)": "e661ea5f",
					"voters(address)": "a3ec138d"
				}
			},
			"storageLayout": {
				"storage": [
					{
						"astId": 95,
						"contract": "register.sol:Voter",
						"label": "electionCordinator",
						"offset": 0,
						"slot": "0",
						"type": "t_address"
					},
					{
						"astId": 97,
						"contract": "register.sol:Voter",
						"label": "contractOwner",
						"offset": 0,
						"slot": "1",
						"type": "t_address"
					},
					{
						"astId": 102,
						"contract": "register.sol:Voter",
						"label": "voters",
						"offset": 0,
						"slot": "2",
						"type": "t_mapping(t_address,t_struct(voter)84_storage)"
					}
				],
				"types": {
					"t_address": {
						"encoding": "inplace",
						"label": "address",
						"numberOfBytes": "20"
					},
					"t_bool": {
						"encoding": "inplace",
						"label": "bool",
						"numberOfBytes": "1"
					},
					"t_mapping(t_address,t_struct(voter)84_storage)": {
						"encoding": "mapping",
						"key": "t_address",
						"label": "mapping(address => struct Voter.voter)",
						"numberOfBytes": "32",
						"value": "t_struct(voter)84_storage"
					},
					"t_string_storage": {
						"encoding": "bytes",
						"label": "string",
						"numberOfBytes": "32"
					},
					"t_struct(voter)84_storage": {
						"encoding": "inplace",
						"label": "struct Voter.voter",
						"members": [
							{
								"astId": 77,
								"contract": "register.sol:Voter",
								"label": "name",
								"offset": 0,
								"slot": "0",
								"type": "t_string_storage"
							},
							{
								"astId": 79,
								"contract": "register.sol:Voter",
								"label": "age",
								"offset": 0,
								"slot": "1",
								"type": "t_uint256"
							},
							{
								"astId": 81,
								"contract": "register.sol:Voter",
								"label": "voterID",
								"offset": 0,
								"slot": "2",
								"type": "t_string_storage"
							},
							{
								"astId": 83,
								"contract": "register.sol:Voter",
								"label": "hasRightToVote",
								"offset": 0,
								"slot": "3",
								"type": "t_bool"
							}
						],
						"numberOfBytes": "128"
					},
					"t_uint256": {
						"encoding": "inplace",
						"label": "uint256",
						"numberOfBytes": "32"
					}
				}
			},
			"userdoc": {
				"kind": "user",
				"methods": {},
				"version": 1
			}
		}
	}
}